{
  "address": "0x87188197DB005211CA84bF6fC76dFefE237d28b9",
  "abi": [
    {
      "inputs": [
        {
          "internalType": "string",
          "name": "_uri",
          "type": "string"
        },
        {
          "internalType": "uint256[4]",
          "name": "_price",
          "type": "uint256[4]"
        },
        {
          "internalType": "uint256[4]",
          "name": "_maxSupply",
          "type": "uint256[4]"
        },
        {
          "internalType": "contract ISafeToken",
          "name": "_safeToken",
          "type": "address"
        },
        {
          "internalType": "uint256[2]",
          "name": "_priceDistributionOnMint",
          "type": "uint256[2]"
        },
        {
          "internalType": "uint256",
          "name": "_referralShareForNFTPurchase",
          "type": "uint256"
        },
        {
          "internalType": "uint256[2]",
          "name": "_profitDistribution",
          "type": "uint256[2]"
        },
        {
          "internalType": "address",
          "name": "_stabilizerWallet",
          "type": "address"
        }
      ],
      "stateMutability": "nonpayable",
      "type": "constructor"
    },
    {
      "anonymous": false,
      "inputs": [
        {
          "indexed": true,
          "internalType": "address",
          "name": "account",
          "type": "address"
        },
        {
          "indexed": true,
          "internalType": "address",
          "name": "operator",
          "type": "address"
        },
        {
          "indexed": false,
          "internalType": "bool",
          "name": "approved",
          "type": "bool"
        }
      ],
      "name": "ApprovalForAll",
      "type": "event"
    },
    {
      "anonymous": false,
      "inputs": [
        {
          "indexed": true,
          "internalType": "address",
          "name": "to",
          "type": "address"
        },
        {
          "indexed": true,
          "internalType": "uint256",
          "name": "id",
          "type": "uint256"
        },
        {
          "indexed": true,
          "internalType": "uint256",
          "name": "amount",
          "type": "uint256"
        },
        {
          "indexed": false,
          "internalType": "uint256",
          "name": "price",
          "type": "uint256"
        }
      ],
      "name": "NitroSale",
      "type": "event"
    },
    {
      "anonymous": false,
      "inputs": [
        {
          "indexed": false,
          "internalType": "address",
          "name": "account",
          "type": "address"
        }
      ],
      "name": "Paused",
      "type": "event"
    },
    {
      "anonymous": false,
      "inputs": [
        {
          "indexed": true,
          "internalType": "bytes32",
          "name": "role",
          "type": "bytes32"
        },
        {
          "indexed": true,
          "internalType": "bytes32",
          "name": "previousAdminRole",
          "type": "bytes32"
        },
        {
          "indexed": true,
          "internalType": "bytes32",
          "name": "newAdminRole",
          "type": "bytes32"
        }
      ],
      "name": "RoleAdminChanged",
      "type": "event"
    },
    {
      "anonymous": false,
      "inputs": [
        {
          "indexed": true,
          "internalType": "bytes32",
          "name": "role",
          "type": "bytes32"
        },
        {
          "indexed": true,
          "internalType": "address",
          "name": "account",
          "type": "address"
        },
        {
          "indexed": true,
          "internalType": "address",
          "name": "sender",
          "type": "address"
        }
      ],
      "name": "RoleGranted",
      "type": "event"
    },
    {
      "anonymous": false,
      "inputs": [
        {
          "indexed": true,
          "internalType": "bytes32",
          "name": "role",
          "type": "bytes32"
        },
        {
          "indexed": true,
          "internalType": "address",
          "name": "account",
          "type": "address"
        },
        {
          "indexed": true,
          "internalType": "address",
          "name": "sender",
          "type": "address"
        }
      ],
      "name": "RoleRevoked",
      "type": "event"
    },
    {
      "anonymous": false,
      "inputs": [
        {
          "indexed": false,
          "internalType": "bool",
          "name": "_status",
          "type": "bool"
        }
      ],
      "name": "TogglePresale",
      "type": "event"
    },
    {
      "anonymous": false,
      "inputs": [
        {
          "indexed": true,
          "internalType": "address",
          "name": "operator",
          "type": "address"
        },
        {
          "indexed": true,
          "internalType": "address",
          "name": "from",
          "type": "address"
        },
        {
          "indexed": true,
          "internalType": "address",
          "name": "to",
          "type": "address"
        },
        {
          "indexed": false,
          "internalType": "uint256[]",
          "name": "ids",
          "type": "uint256[]"
        },
        {
          "indexed": false,
          "internalType": "uint256[]",
          "name": "values",
          "type": "uint256[]"
        }
      ],
      "name": "TransferBatch",
      "type": "event"
    },
    {
      "anonymous": false,
      "inputs": [
        {
          "indexed": true,
          "internalType": "address",
          "name": "operator",
          "type": "address"
        },
        {
          "indexed": true,
          "internalType": "address",
          "name": "from",
          "type": "address"
        },
        {
          "indexed": true,
          "internalType": "address",
          "name": "to",
          "type": "address"
        },
        {
          "indexed": false,
          "internalType": "uint256",
          "name": "id",
          "type": "uint256"
        },
        {
          "indexed": false,
          "internalType": "uint256",
          "name": "value",
          "type": "uint256"
        }
      ],
      "name": "TransferSingle",
      "type": "event"
    },
    {
      "anonymous": false,
      "inputs": [
        {
          "indexed": false,
          "internalType": "string",
          "name": "value",
          "type": "string"
        },
        {
          "indexed": true,
          "internalType": "uint256",
          "name": "id",
          "type": "uint256"
        }
      ],
      "name": "URI",
      "type": "event"
    },
    {
      "anonymous": false,
      "inputs": [
        {
          "indexed": false,
          "internalType": "address",
          "name": "account",
          "type": "address"
        }
      ],
      "name": "Unpaused",
      "type": "event"
    },
    {
      "inputs": [],
      "name": "DEFAULT_ADMIN_ROLE",
      "outputs": [
        {
          "internalType": "bytes32",
          "name": "",
          "type": "bytes32"
        }
      ],
      "stateMutability": "view",
      "type": "function"
    },
    {
      "inputs": [],
      "name": "HUNDRED_PERCENT",
      "outputs": [
        {
          "internalType": "uint256",
          "name": "",
          "type": "uint256"
        }
      ],
      "stateMutability": "view",
      "type": "function"
    },
    {
      "inputs": [],
      "name": "MINTER_ROLE",
      "outputs": [
        {
          "internalType": "bytes32",
          "name": "",
          "type": "bytes32"
        }
      ],
      "stateMutability": "view",
      "type": "function"
    },
    {
      "inputs": [],
      "name": "PAUSER_ROLE",
      "outputs": [
        {
          "internalType": "bytes32",
          "name": "",
          "type": "bytes32"
        }
      ],
      "stateMutability": "view",
      "type": "function"
    },
    {
      "inputs": [],
      "name": "TIERS",
      "outputs": [
        {
          "internalType": "uint256",
          "name": "",
          "type": "uint256"
        }
      ],
      "stateMutability": "view",
      "type": "function"
    },
    {
      "inputs": [],
      "name": "WALLETS",
      "outputs": [
        {
          "internalType": "uint256",
          "name": "",
          "type": "uint256"
        }
      ],
      "stateMutability": "view",
      "type": "function"
    },
    {
      "inputs": [],
      "name": "WEEKS",
      "outputs": [
        {
          "internalType": "uint256",
          "name": "",
          "type": "uint256"
        }
      ],
      "stateMutability": "view",
      "type": "function"
    },
    {
      "inputs": [
        {
          "internalType": "uint256",
          "name": "",
          "type": "uint256"
        },
        {
          "internalType": "uint256",
          "name": "",
          "type": "uint256"
        },
        {
          "internalType": "address",
          "name": "",
          "type": "address"
        }
      ],
      "name": "alreadyDistributedAmount",
      "outputs": [
        {
          "internalType": "uint256",
          "name": "",
          "type": "uint256"
        }
      ],
      "stateMutability": "view",
      "type": "function"
    },
    {
      "inputs": [
        {
          "internalType": "uint256",
          "name": "",
          "type": "uint256"
        },
        {
          "internalType": "uint256",
          "name": "",
          "type": "uint256"
        }
      ],
      "name": "alreadyDistributedAmountByTier",
      "outputs": [
        {
          "internalType": "uint256",
          "name": "",
          "type": "uint256"
        }
      ],
      "stateMutability": "view",
      "type": "function"
    },
    {
      "inputs": [],
      "name": "ambassador",
      "outputs": [
        {
          "internalType": "address",
          "name": "",
          "type": "address"
        }
      ],
      "stateMutability": "view",
      "type": "function"
    },
    {
      "inputs": [
        {
          "internalType": "address",
          "name": "account",
          "type": "address"
        },
        {
          "internalType": "uint256",
          "name": "id",
          "type": "uint256"
        }
      ],
      "name": "balanceOf",
      "outputs": [
        {
          "internalType": "uint256",
          "name": "",
          "type": "uint256"
        }
      ],
      "stateMutability": "view",
      "type": "function"
    },
    {
      "inputs": [
        {
          "internalType": "address[]",
          "name": "accounts",
          "type": "address[]"
        },
        {
          "internalType": "uint256[]",
          "name": "ids",
          "type": "uint256[]"
        }
      ],
      "name": "balanceOfBatch",
      "outputs": [
        {
          "internalType": "uint256[]",
          "name": "",
          "type": "uint256[]"
        }
      ],
      "stateMutability": "view",
      "type": "function"
    },
    {
      "inputs": [
        {
          "internalType": "address",
          "name": "account",
          "type": "address"
        },
        {
          "internalType": "uint256",
          "name": "id",
          "type": "uint256"
        },
        {
          "internalType": "uint256",
          "name": "value",
          "type": "uint256"
        }
      ],
      "name": "burn",
      "outputs": [],
      "stateMutability": "nonpayable",
      "type": "function"
    },
    {
      "inputs": [
        {
          "internalType": "address",
          "name": "account",
          "type": "address"
        },
        {
          "internalType": "uint256[]",
          "name": "ids",
          "type": "uint256[]"
        },
        {
          "internalType": "uint256[]",
          "name": "values",
          "type": "uint256[]"
        }
      ],
      "name": "burnBatch",
      "outputs": [],
      "stateMutability": "nonpayable",
      "type": "function"
    },
    {
      "inputs": [
        {
          "internalType": "enum ISafeNFT.Tiers",
          "name": "_tier",
          "type": "uint8"
        },
        {
          "internalType": "uint256",
          "name": "_amount",
          "type": "uint256"
        },
        {
          "internalType": "address",
          "name": "_referral",
          "type": "address"
        }
      ],
      "name": "buy",
      "outputs": [],
      "stateMutability": "nonpayable",
      "type": "function"
    },
    {
      "inputs": [
        {
          "internalType": "enum ISafeNFT.Tiers",
          "name": "_tier",
          "type": "uint8"
        },
        {
          "internalType": "uint256",
          "name": "_distributionId",
          "type": "uint256"
        }
      ],
      "name": "claimReward",
      "outputs": [],
      "stateMutability": "nonpayable",
      "type": "function"
    },
    {
      "inputs": [],
      "name": "claimRewardsTotal",
      "outputs": [],
      "stateMutability": "nonpayable",
      "type": "function"
    },
    {
      "inputs": [],
      "name": "currentDistributionId",
      "outputs": [
        {
          "internalType": "uint256",
          "name": "",
          "type": "uint256"
        }
      ],
      "stateMutability": "view",
      "type": "function"
    },
    {
      "inputs": [
        {
          "internalType": "uint256",
          "name": "",
          "type": "uint256"
        }
      ],
      "name": "currentlySoldInPresale",
      "outputs": [
        {
          "internalType": "uint256",
          "name": "",
          "type": "uint256"
        }
      ],
      "stateMutability": "view",
      "type": "function"
    },
    {
      "inputs": [
        {
          "internalType": "uint256",
          "name": "_amountUSD",
          "type": "uint256"
        }
      ],
      "name": "distributeProfit",
      "outputs": [],
      "stateMutability": "nonpayable",
      "type": "function"
    },
    {
      "inputs": [
        {
          "internalType": "uint256",
          "name": "",
          "type": "uint256"
        },
        {
          "internalType": "uint256",
          "name": "",
          "type": "uint256"
        }
      ],
      "name": "distributionByTier",
      "outputs": [
        {
          "internalType": "uint256",
          "name": "",
          "type": "uint256"
        }
      ],
      "stateMutability": "view",
      "type": "function"
    },
    {
      "inputs": [
        {
          "internalType": "uint256",
          "name": "",
          "type": "uint256"
        }
      ],
      "name": "distributionOfProfit",
      "outputs": [
        {
          "internalType": "uint256",
          "name": "",
          "type": "uint256"
        }
      ],
      "stateMutability": "view",
      "type": "function"
    },
    {
      "inputs": [
        {
          "internalType": "uint256",
          "name": "",
          "type": "uint256"
        },
        {
          "internalType": "uint256",
          "name": "",
          "type": "uint256"
        }
      ],
      "name": "distributionTotalSupplySnapshot",
      "outputs": [
        {
          "internalType": "uint256",
          "name": "",
          "type": "uint256"
        }
      ],
      "stateMutability": "view",
      "type": "function"
    },
    {
      "inputs": [
        {
          "internalType": "uint256",
          "name": "id",
          "type": "uint256"
        }
      ],
      "name": "exists",
      "outputs": [
        {
          "internalType": "bool",
          "name": "",
          "type": "bool"
        }
      ],
      "stateMutability": "view",
      "type": "function"
    },
    {
      "inputs": [
        {
          "internalType": "address",
          "name": "_user",
          "type": "address"
        }
      ],
      "name": "getBalanceTable",
      "outputs": [
        {
          "internalType": "uint256[]",
          "name": "",
          "type": "uint256[]"
        }
      ],
      "stateMutability": "view",
      "type": "function"
    },
    {
      "inputs": [],
      "name": "getCurrentPresaleWeek",
      "outputs": [
        {
          "internalType": "uint256",
          "name": "",
          "type": "uint256"
        }
      ],
      "stateMutability": "view",
      "type": "function"
    },
    {
      "inputs": [],
      "name": "getDiscountedPriceTable",
      "outputs": [
        {
          "internalType": "uint256[]",
          "name": "",
          "type": "uint256[]"
        }
      ],
      "stateMutability": "view",
      "type": "function"
    },
    {
      "inputs": [
        {
          "internalType": "enum ISafeNFT.Tiers",
          "name": "_tier",
          "type": "uint8"
        }
      ],
      "name": "getFairPrice",
      "outputs": [
        {
          "internalType": "uint256",
          "name": "",
          "type": "uint256"
        }
      ],
      "stateMutability": "view",
      "type": "function"
    },
    {
      "inputs": [],
      "name": "getFairPriceTable",
      "outputs": [
        {
          "internalType": "uint256[]",
          "name": "",
          "type": "uint256[]"
        }
      ],
      "stateMutability": "view",
      "type": "function"
    },
    {
      "inputs": [],
      "name": "getMyBalanceTable",
      "outputs": [
        {
          "internalType": "uint256[]",
          "name": "",
          "type": "uint256[]"
        }
      ],
      "stateMutability": "view",
      "type": "function"
    },
    {
      "inputs": [],
      "name": "getMyPendingRewardsTotal",
      "outputs": [
        {
          "internalType": "uint256",
          "name": "",
          "type": "uint256"
        }
      ],
      "stateMutability": "view",
      "type": "function"
    },
    {
      "inputs": [],
      "name": "getMyShareOfTreasury",
      "outputs": [
        {
          "internalType": "uint256",
          "name": "",
          "type": "uint256"
        }
      ],
      "stateMutability": "view",
      "type": "function"
    },
    {
      "inputs": [
        {
          "internalType": "address",
          "name": "_user",
          "type": "address"
        },
        {
          "internalType": "enum ISafeNFT.Tiers",
          "name": "_tier",
          "type": "uint8"
        },
        {
          "internalType": "uint256",
          "name": "_distributionId",
          "type": "uint256"
        }
      ],
      "name": "getPendingRewards",
      "outputs": [
        {
          "internalType": "uint256",
          "name": "",
          "type": "uint256"
        }
      ],
      "stateMutability": "view",
      "type": "function"
    },
    {
      "inputs": [],
      "name": "getPresaleNFTAvailable",
      "outputs": [
        {
          "internalType": "uint256[]",
          "name": "",
          "type": "uint256[]"
        }
      ],
      "stateMutability": "view",
      "type": "function"
    },
    {
      "inputs": [
        {
          "internalType": "enum ISafeNFT.Tiers",
          "name": "_tier",
          "type": "uint8"
        }
      ],
      "name": "getPrice",
      "outputs": [
        {
          "internalType": "uint256",
          "name": "",
          "type": "uint256"
        }
      ],
      "stateMutability": "view",
      "type": "function"
    },
    {
      "inputs": [],
      "name": "getPriceTable",
      "outputs": [
        {
          "internalType": "uint256[]",
          "name": "",
          "type": "uint256[]"
        }
      ],
      "stateMutability": "view",
      "type": "function"
    },
    {
      "inputs": [
        {
          "internalType": "bytes32",
          "name": "role",
          "type": "bytes32"
        }
      ],
      "name": "getRoleAdmin",
      "outputs": [
        {
          "internalType": "bytes32",
          "name": "",
          "type": "bytes32"
        }
      ],
      "stateMutability": "view",
      "type": "function"
    },
    {
      "inputs": [
        {
          "internalType": "bytes32",
          "name": "role",
          "type": "bytes32"
        },
        {
          "internalType": "uint256",
          "name": "index",
          "type": "uint256"
        }
      ],
      "name": "getRoleMember",
      "outputs": [
        {
          "internalType": "address",
          "name": "",
          "type": "address"
        }
      ],
      "stateMutability": "view",
      "type": "function"
    },
    {
      "inputs": [
        {
          "internalType": "bytes32",
          "name": "role",
          "type": "bytes32"
        }
      ],
      "name": "getRoleMemberCount",
      "outputs": [
        {
          "internalType": "uint256",
          "name": "",
          "type": "uint256"
        }
      ],
      "stateMutability": "view",
      "type": "function"
    },
    {
      "inputs": [],
      "name": "getTotalSupplyAllTiers",
      "outputs": [
        {
          "internalType": "uint256",
          "name": "",
          "type": "uint256"
        }
      ],
      "stateMutability": "view",
      "type": "function"
    },
    {
      "inputs": [],
      "name": "getTreasuryCost",
      "outputs": [
        {
          "internalType": "uint256",
          "name": "",
          "type": "uint256"
        }
      ],
      "stateMutability": "view",
      "type": "function"
    },
    {
      "inputs": [],
      "name": "getUnclaimedRewards",
      "outputs": [
        {
          "internalType": "uint256",
          "name": "",
          "type": "uint256"
        }
      ],
      "stateMutability": "view",
      "type": "function"
    },
    {
      "inputs": [
        {
          "internalType": "bytes32",
          "name": "role",
          "type": "bytes32"
        },
        {
          "internalType": "address",
          "name": "account",
          "type": "address"
        }
      ],
      "name": "grantRole",
      "outputs": [],
      "stateMutability": "nonpayable",
      "type": "function"
    },
    {
      "inputs": [
        {
          "internalType": "bytes32",
          "name": "role",
          "type": "bytes32"
        },
        {
          "internalType": "address",
          "name": "account",
          "type": "address"
        }
      ],
      "name": "hasRole",
      "outputs": [
        {
          "internalType": "bool",
          "name": "",
          "type": "bool"
        }
      ],
      "stateMutability": "view",
      "type": "function"
    },
    {
      "inputs": [
        {
          "internalType": "string",
          "name": "_uri",
          "type": "string"
        },
        {
          "internalType": "uint256[4]",
          "name": "_price",
          "type": "uint256[4]"
        },
        {
          "internalType": "uint256[4]",
          "name": "_maxSupply",
          "type": "uint256[4]"
        },
        {
          "internalType": "contract ISafeToken",
          "name": "_safeToken",
          "type": "address"
        },
        {
          "internalType": "uint256[2]",
          "name": "_priceDistributionOnMint",
          "type": "uint256[2]"
        },
        {
          "internalType": "uint256",
          "name": "_referralShareForNFTPurchase",
          "type": "uint256"
        },
        {
          "internalType": "uint256[2]",
          "name": "_profitDistribution",
          "type": "uint256[2]"
        },
        {
          "internalType": "address",
          "name": "_stabilizerWallet",
          "type": "address"
        }
      ],
      "name": "initialize",
      "outputs": [],
      "stateMutability": "nonpayable",
      "type": "function"
    },
    {
      "inputs": [
        {
          "internalType": "address",
          "name": "account",
          "type": "address"
        },
        {
          "internalType": "address",
          "name": "operator",
          "type": "address"
        }
      ],
      "name": "isApprovedForAll",
      "outputs": [
        {
          "internalType": "bool",
          "name": "",
          "type": "bool"
        }
      ],
      "stateMutability": "view",
      "type": "function"
    },
    {
      "inputs": [
        {
          "internalType": "uint256",
          "name": "",
          "type": "uint256"
        }
      ],
      "name": "maxSupply",
      "outputs": [
        {
          "internalType": "uint256",
          "name": "",
          "type": "uint256"
        }
      ],
      "stateMutability": "view",
      "type": "function"
    },
    {
      "inputs": [
        {
          "internalType": "address",
          "name": "to",
          "type": "address"
        },
        {
          "internalType": "uint256",
          "name": "id",
          "type": "uint256"
        },
        {
          "internalType": "uint256",
          "name": "amount",
          "type": "uint256"
        },
        {
          "internalType": "bytes",
          "name": "data",
          "type": "bytes"
        }
      ],
      "name": "mint",
      "outputs": [],
      "stateMutability": "nonpayable",
      "type": "function"
    },
    {
      "inputs": [
        {
          "internalType": "address",
          "name": "to",
          "type": "address"
        },
        {
          "internalType": "uint256[]",
          "name": "ids",
          "type": "uint256[]"
        },
        {
          "internalType": "uint256[]",
          "name": "amounts",
          "type": "uint256[]"
        },
        {
          "internalType": "bytes",
          "name": "data",
          "type": "bytes"
        }
      ],
      "name": "mintBatch",
      "outputs": [],
      "stateMutability": "nonpayable",
      "type": "function"
    },
    {
      "inputs": [],
      "name": "name",
      "outputs": [
        {
          "internalType": "string",
          "name": "",
          "type": "string"
        }
      ],
      "stateMutability": "view",
      "type": "function"
    },
    {
      "inputs": [],
      "name": "nitroAddress",
      "outputs": [
        {
          "internalType": "address",
          "name": "",
          "type": "address"
        }
      ],
      "stateMutability": "view",
      "type": "function"
    },
    {
      "inputs": [],
      "name": "nitroPresale",
      "outputs": [
        {
          "internalType": "bool",
          "name": "",
          "type": "bool"
        }
      ],
      "stateMutability": "view",
      "type": "function"
    },
    {
      "inputs": [],
      "name": "nitroPresaleDiscount",
      "outputs": [
        {
          "internalType": "uint256",
          "name": "",
          "type": "uint256"
        }
      ],
      "stateMutability": "view",
      "type": "function"
    },
    {
      "inputs": [],
      "name": "nitroPresaleDuration",
      "outputs": [
        {
          "internalType": "uint256",
          "name": "",
          "type": "uint256"
        }
      ],
      "stateMutability": "view",
      "type": "function"
    },
    {
      "inputs": [],
      "name": "nitroPresaleStartDate",
      "outputs": [
        {
          "internalType": "uint256",
          "name": "",
          "type": "uint256"
        }
      ],
      "stateMutability": "view",
      "type": "function"
    },
    {
      "inputs": [],
      "name": "pause",
      "outputs": [],
      "stateMutability": "nonpayable",
      "type": "function"
    },
    {
      "inputs": [],
      "name": "paused",
      "outputs": [
        {
          "internalType": "bool",
          "name": "",
          "type": "bool"
        }
      ],
      "stateMutability": "view",
      "type": "function"
    },
    {
      "inputs": [],
      "name": "presale",
      "outputs": [
        {
          "internalType": "bool",
          "name": "",
          "type": "bool"
        }
      ],
      "stateMutability": "view",
      "type": "function"
    },
    {
      "inputs": [
        {
          "internalType": "uint256",
          "name": "",
          "type": "uint256"
        }
      ],
      "name": "presaleMaxSupply",
      "outputs": [
        {
          "internalType": "uint256",
          "name": "",
          "type": "uint256"
        }
      ],
      "stateMutability": "view",
      "type": "function"
    },
    {
      "inputs": [
        {
          "internalType": "uint256",
          "name": "",
          "type": "uint256"
        },
        {
          "internalType": "uint256",
          "name": "",
          "type": "uint256"
        }
      ],
      "name": "presalePrice",
      "outputs": [
        {
          "internalType": "uint256",
          "name": "",
          "type": "uint256"
        }
      ],
      "stateMutability": "view",
      "type": "function"
    },
    {
      "inputs": [],
      "name": "presaleStartDate",
      "outputs": [
        {
          "internalType": "uint256",
          "name": "",
          "type": "uint256"
        }
      ],
      "stateMutability": "view",
      "type": "function"
    },
    {
      "inputs": [
        {
          "internalType": "uint256",
          "name": "",
          "type": "uint256"
        }
      ],
      "name": "price",
      "outputs": [
        {
          "internalType": "uint256",
          "name": "",
          "type": "uint256"
        }
      ],
      "stateMutability": "view",
      "type": "function"
    },
    {
      "inputs": [
        {
          "internalType": "uint256",
          "name": "",
          "type": "uint256"
        }
      ],
      "name": "priceDistributionOnMint",
      "outputs": [
        {
          "internalType": "uint256",
          "name": "",
          "type": "uint256"
        }
      ],
      "stateMutability": "view",
      "type": "function"
    },
    {
      "inputs": [
        {
          "internalType": "uint256",
          "name": "",
          "type": "uint256"
        }
      ],
      "name": "profitDistribution",
      "outputs": [
        {
          "internalType": "uint256",
          "name": "",
          "type": "uint256"
        }
      ],
      "stateMutability": "view",
      "type": "function"
    },
    {
      "inputs": [],
      "name": "referralShareForNFTPurchase",
      "outputs": [
        {
          "internalType": "uint256",
          "name": "",
          "type": "uint256"
        }
      ],
      "stateMutability": "view",
      "type": "function"
    },
    {
      "inputs": [
        {
          "internalType": "bytes32",
          "name": "role",
          "type": "bytes32"
        },
        {
          "internalType": "address",
          "name": "account",
          "type": "address"
        }
      ],
      "name": "renounceRole",
      "outputs": [],
      "stateMutability": "nonpayable",
      "type": "function"
    },
    {
      "inputs": [
        {
          "internalType": "bytes32",
          "name": "role",
          "type": "bytes32"
        },
        {
          "internalType": "address",
          "name": "account",
          "type": "address"
        }
      ],
      "name": "revokeRole",
      "outputs": [],
      "stateMutability": "nonpayable",
      "type": "function"
    },
    {
      "inputs": [
        {
          "internalType": "address",
          "name": "from",
          "type": "address"
        },
        {
          "internalType": "address",
          "name": "to",
          "type": "address"
        },
        {
          "internalType": "uint256[]",
          "name": "ids",
          "type": "uint256[]"
        },
        {
          "internalType": "uint256[]",
          "name": "amounts",
          "type": "uint256[]"
        },
        {
          "internalType": "bytes",
          "name": "data",
          "type": "bytes"
        }
      ],
      "name": "safeBatchTransferFrom",
      "outputs": [],
      "stateMutability": "nonpayable",
      "type": "function"
    },
    {
      "inputs": [],
      "name": "safeToken",
      "outputs": [
        {
          "internalType": "contract ISafeToken",
          "name": "",
          "type": "address"
        }
      ],
      "stateMutability": "view",
      "type": "function"
    },
    {
      "inputs": [
        {
          "internalType": "address",
          "name": "from",
          "type": "address"
        },
        {
          "internalType": "address",
          "name": "to",
          "type": "address"
        },
        {
          "internalType": "uint256",
          "name": "id",
          "type": "uint256"
        },
        {
          "internalType": "uint256",
          "name": "amount",
          "type": "uint256"
        },
        {
          "internalType": "bytes",
          "name": "data",
          "type": "bytes"
        }
      ],
      "name": "safeTransferFrom",
      "outputs": [],
      "stateMutability": "nonpayable",
      "type": "function"
    },
    {
      "inputs": [],
      "name": "safeVault",
      "outputs": [
        {
          "internalType": "contract ISafeVault",
          "name": "",
          "type": "address"
        }
      ],
      "stateMutability": "view",
      "type": "function"
    },
    {
      "inputs": [
        {
          "internalType": "address",
          "name": "_ambassador",
          "type": "address"
        }
      ],
      "name": "setAmbassador",
      "outputs": [],
      "stateMutability": "nonpayable",
      "type": "function"
    },
    {
      "inputs": [
        {
          "internalType": "address",
          "name": "operator",
          "type": "address"
        },
        {
          "internalType": "bool",
          "name": "approved",
          "type": "bool"
        }
      ],
      "name": "setApprovalForAll",
      "outputs": [],
      "stateMutability": "nonpayable",
      "type": "function"
    },
    {
      "inputs": [
        {
          "internalType": "uint256[][]",
          "name": "_presalePrice",
          "type": "uint256[][]"
        }
      ],
      "name": "setDiscountedPriceTable",
      "outputs": [],
      "stateMutability": "nonpayable",
      "type": "function"
    },
    {
      "inputs": [
        {
          "internalType": "bool",
          "name": "_nitroPresale",
          "type": "bool"
        },
        {
          "internalType": "uint256",
          "name": "_nitroPresaleStartDate",
          "type": "uint256"
        },
        {
          "internalType": "uint256",
          "name": "_nitroPresaleDuration",
          "type": "uint256"
        },
        {
          "internalType": "uint256",
          "name": "_nitroPresaleDiscount",
          "type": "uint256"
        },
        {
          "internalType": "address",
          "name": "_nitroAddress",
          "type": "address"
        }
      ],
      "name": "setNitroPresale",
      "outputs": [],
      "stateMutability": "nonpayable",
      "type": "function"
    },
    {
      "inputs": [
        {
          "internalType": "uint256[4]",
          "name": "_presaleMaxSupply",
          "type": "uint256[4]"
        }
      ],
      "name": "setPresaleMaxSupply",
      "outputs": [],
      "stateMutability": "nonpayable",
      "type": "function"
    },
    {
      "inputs": [
        {
          "internalType": "uint256",
          "name": "_launchDate",
          "type": "uint256"
        },
        {
          "internalType": "uint256",
          "name": "_weekDuration",
          "type": "uint256"
        }
      ],
      "name": "setPresaleStartDate",
      "outputs": [],
      "stateMutability": "nonpayable",
      "type": "function"
    },
    {
      "inputs": [
        {
          "internalType": "uint256",
          "name": "",
          "type": "uint256"
        }
      ],
      "name": "soldInNitroPresale",
      "outputs": [
        {
          "internalType": "uint256",
          "name": "",
          "type": "uint256"
        }
      ],
      "stateMutability": "view",
      "type": "function"
    },
    {
      "inputs": [
        {
          "internalType": "address",
          "name": "",
          "type": "address"
        },
        {
          "internalType": "uint256",
          "name": "",
          "type": "uint256"
        },
        {
          "internalType": "uint256",
          "name": "",
          "type": "uint256"
        }
      ],
      "name": "soldPerPresaleWeek",
      "outputs": [
        {
          "internalType": "uint256",
          "name": "",
          "type": "uint256"
        }
      ],
      "stateMutability": "view",
      "type": "function"
    },
    {
      "inputs": [],
      "name": "stabilizerWallet",
      "outputs": [
        {
          "internalType": "address",
          "name": "",
          "type": "address"
        }
      ],
      "stateMutability": "view",
      "type": "function"
    },
    {
      "inputs": [
        {
          "internalType": "bytes4",
          "name": "interfaceId",
          "type": "bytes4"
        }
      ],
      "name": "supportsInterface",
      "outputs": [
        {
          "internalType": "bool",
          "name": "",
          "type": "bool"
        }
      ],
      "stateMutability": "view",
      "type": "function"
    },
    {
      "inputs": [],
      "name": "togglePresale",
      "outputs": [],
      "stateMutability": "nonpayable",
      "type": "function"
    },
    {
      "inputs": [
        {
          "internalType": "uint256",
          "name": "id",
          "type": "uint256"
        }
      ],
      "name": "totalSupply",
      "outputs": [
        {
          "internalType": "uint256",
          "name": "",
          "type": "uint256"
        }
      ],
      "stateMutability": "view",
      "type": "function"
    },
    {
      "inputs": [],
      "name": "unpause",
      "outputs": [],
      "stateMutability": "nonpayable",
      "type": "function"
    },
    {
      "inputs": [
        {
          "internalType": "uint256",
          "name": "",
          "type": "uint256"
        }
      ],
      "name": "uri",
      "outputs": [
        {
          "internalType": "string",
          "name": "",
          "type": "string"
        }
      ],
      "stateMutability": "view",
      "type": "function"
    },
    {
      "inputs": [],
      "name": "usd",
      "outputs": [
        {
          "internalType": "contract IERC20",
          "name": "",
          "type": "address"
        }
      ],
      "stateMutability": "view",
      "type": "function"
    },
    {
      "inputs": [
        {
          "internalType": "uint256",
          "name": "",
          "type": "uint256"
        }
      ],
      "name": "wallets",
      "outputs": [
        {
          "internalType": "address",
          "name": "",
          "type": "address"
        }
      ],
      "stateMutability": "view",
      "type": "function"
    },
    {
      "inputs": [],
      "name": "weekDuration",
      "outputs": [
        {
          "internalType": "uint256",
          "name": "",
          "type": "uint256"
        }
      ],
      "stateMutability": "view",
      "type": "function"
    }
  ],
  "transactionHash": "0x6838dba602d6f5cc9ba6d744e5e2113f1fdacbc488ad8cd61f99b31cd6369f78",
  "args": [
    "",
    [
      "131250000",
      "262500000",
      "525000000",
      "1050000000"
    ],
    [
      2000,
      1000,
      1000,
      1000
    ],
    "0x519EfB2bEFBd3f00D335dc9DF42BF721D591604f",
    [
      50000000,
      40000000
    ],
    5000000,
    [
      25000000,
      20000000
    ],
    "0xe97BDb5600d711C38854d603a4748f98063314AB"
  ],
  "numDeployments": 12,
  "solcInputHash": "03bc0ea3ed724e25724027861a2f0864",
  "bytecode": "0x60806040523480156200001157600080fd5b5060405162006c2038038062006c208339810160408190526200003491620008ad565b87806200004181620000b5565b506007805460ff1916905562000059600033620000c7565b6200007460008051602062006c0083398151915233620000c7565b6200008f60008051602062006be083398151915233620000c7565b506001600955620000a78888888888888888620000d3565b505050505050505062000bf2565b6006620000c3828262000a74565b5050565b620000c382826200050c565b6000620000ed60008051602062006bc08339815191525490565b90506001600160a01b0381166200011d576001600160a01b0360008051602062006bc08339815191525562000133565b336001600160a01b038216146200013357600080fd5b6200013e89620000b5565b6200014b600033620000c7565b6200016660008051602062006c0083398151915233620000c7565b6200018160008051602062006be083398151915233620000c7565b62000190600a8960046200066f565b50620001a0601e8860046200066f565b50602480546001600160a01b0319166001600160a01b038816179055620001cb6027866002620006b2565b50602b849055620001e06029846002620006b2565b50602c80546001600160a01b0319166001600160a01b03848116919091179091556024546040805163db7a460560e01b815281516200027394939093169263db7a4605926004808401939192918290030181865afa15801562000247573d6000803e3d6000fd5b505050506040513d601f19601f820116820180604052508101906200026d919062000b40565b6200054f565b602460009054906101000a90046001600160a01b03166001600160a01b031663deef94de6040518163ffffffff1660e01b8152600401602060405180830381865afa158015620002c7573d6000803e3d6000fd5b505050506040513d601f19601f82011682018060405250810190620002ed919062000ba7565b602580546001600160a01b0319166001600160a01b039283161790556024546040805163d63a6ccd60e01b81529051919092169163d63a6ccd9160048083019260209291908290030181865afa1580156200034c573d6000803e3d6000fd5b505050506040513d601f19601f8201168201806040525081019062000372919062000ba7565b602680546001600160a01b0319166001600160a01b039283169081179091556024805460405163095ea7b360e01b815293166004840152600019908301529063095ea7b3906044016020604051808303816000875af1158015620003da573d6000803e3d6000fd5b505050506040513d601f19601f8201168201806040525081019062000400919062000bce565b5060265460255460405163095ea7b360e01b81526001600160a01b039182166004820152600019602482015291169063095ea7b3906044016020604051808303816000875af115801562000458573d6000803e3d6000fd5b505050506040513d601f19601f820116820180604052508101906200047e919062000bce565b506024805460405163095ea7b360e01b81526001600160a01b03909116600482018190526000199282019290925263095ea7b3906044016020604051808303816000875af1158015620004d5573d6000803e3d6000fd5b505050506040513d601f19601f82011682018060405250810190620004fb919062000bce565b505060006036555050505050505050565b6200052382826200055d60201b6200345c1760201c565b60008281526001602090815260409091206200054a918390620034e0620005fd821b17901c565b505050565b620000c360028281620006e2565b6000828152602081815260408083206001600160a01b038516845290915290205460ff16620000c3576000828152602081815260408083206001600160a01b03851684529091529020805460ff19166001179055620005b93390565b6001600160a01b0316816001600160a01b0316837f2f8788117e7eff1d82e926ec794901d17c78024a50270940304540a733656f0d60405160405180910390a45050565b600062000614836001600160a01b0384166200061d565b90505b92915050565b6000818152600183016020526040812054620006665750815460018181018455600084815260208082209093018490558454848252828601909352604090209190915562000617565b50600062000617565b8260048101928215620006a0579160200282015b82811115620006a057825182559160200191906001019062000683565b50620006ae9291506200072d565b5090565b8260028101928215620006a05791602002820182811115620006a057825182559160200191906001019062000683565b8260028101928215620006a0579160200282015b82811115620006a057825182546001600160a01b0319166001600160a01b03909116178255602090920191600190910190620006f6565b5b80821115620006ae57600081556001016200072e565b634e487b7160e01b600052604160045260246000fd5b604080519081016001600160401b03811182821017156200077f576200077f62000744565b60405290565b604051601f8201601f191681016001600160401b0381118282101715620007b057620007b062000744565b604052919050565b600082601f830112620007ca57600080fd5b604051608081016001600160401b0381118282101715620007ef57620007ef62000744565b6040528060808401858111156200080557600080fd5b845b818110156200082157805183526020928301920162000807565b509195945050505050565b6001600160a01b03811681146200084257600080fd5b50565b805162000852816200082c565b919050565b600082601f8301126200086957600080fd5b620008736200075a565b8060408401858111156200088657600080fd5b845b81811015620008a257805184526020938401930162000888565b509095945050505050565b600080600080600080600080610200898b031215620008cb57600080fd5b88516001600160401b0380821115620008e357600080fd5b818b0191508b601f830112620008f857600080fd5b8151818111156200090d576200090d62000744565b6020915062000925601f8201601f1916830162000785565b8181528d838386010111156200093a57600080fd5b60005b828110156200095a5784810184015182820185015283016200093d565b506000838383010152809b505050620009768c828d01620007b8565b98505050620009898a60a08b01620007b8565b95506200099a6101208a0162000845565b9450620009ac8a6101408b0162000857565b93506101808901519250620009c68a6101a08b0162000857565b9150620009d76101e08a0162000845565b90509295985092959890939650565b600181811c90821680620009fb57607f821691505b60208210810362000a1c57634e487b7160e01b600052602260045260246000fd5b50919050565b601f8211156200054a57600081815260208120601f850160051c8101602086101562000a4b5750805b601f850160051c820191505b8181101562000a6c5782815560010162000a57565b505050505050565b81516001600160401b0381111562000a905762000a9062000744565b62000aa88162000aa18454620009e6565b8462000a22565b602080601f83116001811462000ae0576000841562000ac75750858301515b600019600386901b1c1916600185901b17855562000a6c565b600085815260208120601f198616915b8281101562000b115788860151825594840194600190910190840162000af0565b508582101562000b305787850151600019600388901b60f8161c191681555b5050505050600190811b01905550565b60006040828403121562000b5357600080fd5b82601f83011262000b6357600080fd5b62000b6d6200075a565b80604084018581111562000b8057600080fd5b845b81811015620008a257805162000b98816200082c565b84526020938401930162000b82565b60006020828403121562000bba57600080fd5b815162000bc7816200082c565b9392505050565b60006020828403121562000be157600080fd5b8151801515811462000bc757600080fd5b615fbe8062000c026000396000f3fe608060405234801561001057600080fd5b50600436106104d65760003560e01c80636e748f9711610283578063ca15c8731161015c578063e0adca1b116100ce578063f0b2df8911610092578063f0b2df8914610b08578063f242432a14610b1b578063f3430a1614610b2e578063f5298aca14610b41578063fd18a25314610b54578063fdea8e0b14610b6757600080fd5b8063e0adca1b14610a81578063e63ab1e914610a94578063e985e9c514610abb578063ee6cf86514610af7578063f03f1e5114610b0057600080fd5b8063d36dfac811610120578063d36dfac8146109fb578063d539139314610a0e578063d547741f14610a35578063d63a6ccd14610a48578063deef94de14610a5b578063df71da7614610a6e57600080fd5b8063ca15c87314610989578063ca7b24471461099c578063ced79ce0146109af578063d0d5a1ba146109e0578063d36122b8146109f357600080fd5b80638d3bd55b116101f5578063a1f5c239116101b9578063a1f5c23914610929578063a217fddf14610931578063a22cb46514610939578063aa00771a1461094c578063b412e57c14610960578063bd85b0391461096957600080fd5b80638d3bd55b146108df5780639010d07c146108e757806391d14854146108fa578063974a281e1461090d578063a0bf9a011461091657600080fd5b80637dfe5914116102475780637dfe59141461086f5780637e93391a146108a057806380a3a783146108a85780638456cb59146108b157806384b1b612146108b9578063869f7594146108cc57600080fd5b80636e748f971461082d5780636ed93dd014610835578063731133e914610840578063780069e0146108535780637ad71f721461085c57600080fd5b80632eb2c2d6116103b55780634f558e7911610327578063592fa65e116102eb578063592fa65e146107d65780635c975abb146107e95780635e95b4fe146107f45780636ac60068146108075780636b20c4541461081a5780636d6689ea1461082d57600080fd5b80634f558e791461077357806351ba5b441461079557806352a1ad541461079d57806353f7ffd2146107b0578063553b6975146107c357600080fd5b80633a78a7d6116103795780633a78a7d61461070c5780633f4ba83a1461071f578063418f7c51146107275780634407a61e1461073a5780634b3fd05a1461074d5780634e1273f41461076057600080fd5b80632eb2c2d6146106b85780632f2ff15d146106cb57806334393743146106de57806336568abe146106e657806337f1e7f2146106f957600080fd5b8063162302571161044e57806323f77fa91161041257806323f77fa91461063f578063248a9ca31461065257806326a49e37146106755780632af94a2b146106885780632c13f08c146106a85780632e2a31d4146106b057600080fd5b806316230257146105f2578063168affdf146105fa5780631729c14f1461061a5780631a5e85e5146106225780631f7fdffa1461062a57600080fd5b806304ca4c07116104a057806304ca4c071461054957806305adca381461055c57806306fdde03146105645780630b0b73d21461059f5780630e89341c146105ca578063104304f3146105dd57600080fd5b8062a13c4c146104db578062fdd58e146104f757806301ffc9a71461050a57806303b2add01461052d57806304a3adf714610540575b600080fd5b6104e4602b5481565b6040519081526020015b60405180910390f35b6104e4610505366004614d60565b610b7b565b61051d610518366004614da2565b610c16565b60405190151581526020016104ee565b6104e461053b366004614dbf565b610c21565b6104e460235481565b6104e4610557366004614dd8565b610c38565b6104e4610c5d565b6105926040518060400160405280600f81526020016e14d8599948165a595b191cc8139195608a1b81525081565b6040516104ee9190614e4a565b602c546105b2906001600160a01b031681565b6040516001600160a01b0390911681526020016104ee565b6105926105d8366004614dbf565b610cbc565b6105e5610d50565b6040516104ee9190614e98565b6104e4610dcd565b6104e4610608366004614dbf565b60376020526000908152604090205481565b6105e5610e64565b6104e4610f22565b61063d610638366004615018565b610f5d565b005b6105e561064d3660046150b2565b610fb5565b6104e4610660366004614dbf565b60009081526020819052604090206001015490565b6104e4610683366004614dbf565b611021565b6104e4610696366004614dbf565b60416020526000908152604090205481565b6105e5611031565b6105e56110a8565b61063d6106c63660046150cf565b611165565b61063d6106d936600461517c565b6111b1565b61063d6111db565b61063d6106f436600461517c565b611268565b6104e46107073660046151c0565b6112e6565b603c546105b2906001600160a01b031681565b61063d611314565b6104e46107353660046151db565b6113ba565b61063d610748366004615219565b611487565b6024546105b2906001600160a01b031681565b6105e561076e3660046152d4565b611603565b61051d610781366004614dbf565b600090815260086020526040902054151590565b6104e461172c565b6104e46107ab366004614dd8565b6117af565b61063d6107be3660046153a0565b6117d1565b61063d6107d13660046150b2565b6118d5565b6104e46107e4366004614dd8565b61191e565b60075460ff1661051d565b6104e4610802366004614dd8565b61193a565b61063d610815366004615458565b611956565b61063d610828366004615525565b611dab565b6104e4600481565b6104e46305f5e10081565b61063d61084e36600461559a565b611dee565b6104e460365481565b6105b261086a366004614dbf565b611e40565b6104e461087d3660046155f0565b602d60209081526000938452604080852082529284528284209052825290205481565b6104e4611e60565b6104e460225481565b61063d611ff9565b6040546105b2906001600160a01b031681565b6104e46108da366004614dbf565b61209d565b6104e4600281565b6105b26108f5366004614dd8565b6120ad565b61051d61090836600461517c565b6120cc565b6104e4603f5481565b61063d610924366004615633565b6120f5565b6105e5612167565b6104e4600081565b61063d610947366004615689565b612173565b603c5461051d90600160a01b900460ff1681565b6104e4603d5481565b6104e4610977366004614dbf565b60009081526008602052604090205490565b6104e4610997366004614dbf565b61217e565b6104e46109aa366004614dbf565b612195565b6104e46109bd3660046156b7565b603a60209081526000938452604080852082529284528284209052825290205481565b61063d6109ee3660046156f0565b6121a5565b61063d612eba565b61063d610a09366004614dbf565b612f25565b6104e47f9f2df0fed2c77648de5860a4cc508cd0818c85b8b8a1ab4ceeef8d981c8956a681565b61063d610a4336600461517c565b613219565b6026546105b2906001600160a01b031681565b6025546105b2906001600160a01b031681565b6104e4610a7c366004614dbf565b61323e565b61063d610a8f366004614dd8565b61324e565b6104e47f65d7a28e3265b37a6474929f336521b332c1681b933f6cb9f3376673440d862a81565b61051d610ac9366004615725565b6001600160a01b03918216600090815260056020908152604080832093909416825291909152205460ff1690565b6104e4603e5481565b6104e4613280565b6104e4610b163660046151c0565b6132e8565b61063d610b29366004615753565b613390565b61063d610b3c3660046157bb565b6133d5565b61063d610b4f3660046155f0565b613409565b6104e4610b62366004614dbf565b61344c565b602c5461051d90600160a01b900460ff1681565b60006001600160a01b038316610beb5760405162461bcd60e51b815260206004820152602a60248201527f455243313135353a2061646472657373207a65726f206973206e6f742061207660448201526930b634b21037bbb732b960b11b60648201526084015b60405180910390fd5b5060008181526004602090815260408083206001600160a01b03861684529091529020545b92915050565b6000610c10826134f5565b60328160048110610c3157600080fd5b0154905081565b60386020528160005260406000208160048110610c5457600080fd5b01549150829050565b602c54600090600160a01b900460ff168015610c7b57506000602254115b8015610c88575042602254105b610c925750600090565b602354602254610ca290426157ed565b610cac9190615800565b610cb7906001615822565b905090565b606060068054610ccb90615835565b80601f0160208091040260200160405190810160405280929190818152602001828054610cf790615835565b8015610d445780601f10610d1957610100808354040283529160200191610d44565b820191906000526020600020905b815481529060010190602001808311610d2757829003601f168201915b50505050509050919050565b60408051600480825260a08201909252606091600091906020820160808036833701905050905060005b6004811015610dc757600a8160048110610d9657610d96615869565b0154828281518110610daa57610daa615869565b602090810291909101015280610dbf8161587f565b915050610d7a565b50919050565b600080805b6004811015610dc75760005b6036548111610e51576000818152603b602052604090208260048110610e0657610e06615869565b015460008281526038602052604090208360048110610e2757610e27615869565b0154610e3391906157ed565b610e3d9084615822565b925080610e498161587f565b915050610dde565b5080610e5c8161587f565b915050610dd2565b60606000610e70610c5d565b90506004811115610e8957610e83610d50565b91505090565b60408051600480825260a082019092526000916020820160808036833701905050905060005b6004811015610f1b57600e610ec56001856157ed565b60048110610ed557610ed5615869565b600402018160048110610eea57610eea615869565b0154828281518110610efe57610efe615869565b602090810291909101015280610f138161587f565b915050610eaf565b5092915050565b600080805b6004811015610dc757600081815260086020526040902054610f499083615822565b915080610f558161587f565b915050610f27565b610f877f9f2df0fed2c77648de5860a4cc508cd0818c85b8b8a1ab4ceeef8d981c8956a6336120cc565b610fa35760405162461bcd60e51b8152600401610be290615898565b610faf84848484613500565b50505050565b60408051600480825260a08201909252606091600091906020820160808036833701905050905060005b6004811015610f1b57610ff28482610b7b565b82828151811061100457611004615869565b6020908102919091010152806110198161587f565b915050610fdf565b600a8160048110610c3157600080fd5b60408051600480825260a08201909252606091600091906020820160808036833701905050905060005b6004811015610dc757611079816003811115610b1657610b166158f5565b82828151811061108b5761108b615869565b6020908102919091010152806110a08161587f565b91505061105b565b606060006110b4610c5d565b60408051600480825260a08201909252919250600091906020820160808036833701905050905060005b6004811015610f1b5760048311611133576032816004811061110257611102615869565b015483602e836004811061111857611118615869565b0154611124919061590b565b61112e91906157ed565b611136565b60005b82828151811061114857611148615869565b60209081029190910101528061115d8161587f565b9150506110de565b6001600160a01b03851633148061118157506111818533610ac9565b61119d5760405162461bcd60e51b8152600401610be290615922565b6111aa858585858561366a565b5050505050565b6000828152602081905260409020600101546111cc81613825565b6111d6838361382f565b505050565b6111e66000336120cc565b6112025760405162461bcd60e51b8152600401610be290615970565b602c805460ff600160a01b808304821615810260ff60a01b1990931692909217928390556040517f512e257b3133a95bd1fef520dafc0dfb212f406af4f808d030e788c8ff536c049361125e9390049091161515815260200190565b60405180910390a1565b6001600160a01b03811633146112d85760405162461bcd60e51b815260206004820152602f60248201527f416363657373436f6e74726f6c3a2063616e206f6e6c792072656e6f756e636560448201526e103937b632b9903337b91039b2b63360891b6064820152608401610be2565b6112e28282613851565b5050565b6000600a8260038111156112fc576112fc6158f5565b6004811061130c5761130c615869565b015492915050565b61133e7f65d7a28e3265b37a6474929f336521b332c1681b933f6cb9f3376673440d862a336120cc565b6113b05760405162461bcd60e51b815260206004820152603b60248201527f455243313135355072657365744d696e7465725061757365723a206d7573742060448201527f686176652070617573657220726f6c6520746f20756e706175736500000000006064820152608401610be2565b6113b8613873565b565b6000808360038111156113cf576113cf6158f5565b60365460009081526038602052604081209192509082600481106113f5576113f5615869565b01546000838152600860205260408120549192509015611441576000838152600860205260409020546114288885610b7b565b611432908461590b565b61143c9190615800565b611444565b60005b6000868152603a6020908152604080832087845282528083206001600160a01b038c16845290915290205490915061147c90826157ed565b979650505050505050565b6114926000336120cc565b6114ae5760405162461bcd60e51b8152600401610be290615970565b60048151146114ff5760405162461bcd60e51b815260206004820152601960248201527f496e636f7272656374206e756d626572206f66207765656b73000000000000006044820152606401610be2565b60005b60048110156112e257600482828151811061151f5761151f615869565b602002602001015151146115755760405162461bcd60e51b815260206004820152601960248201527f496e636f7272656374206e756d626572206f66207469657273000000000000006044820152606401610be2565b60005b60048110156115f05782828151811061159357611593615869565b602002602001015181815181106115ac576115ac615869565b6020026020010151600e83600481106115c7576115c7615869565b6004020182600481106115dc576115dc615869565b0155806115e88161587f565b915050611578565b50806115fb8161587f565b915050611502565b606081518351146116685760405162461bcd60e51b815260206004820152602960248201527f455243313135353a206163636f756e747320616e6420696473206c656e677468604482015268040dad2e6dac2e8c6d60bb1b6064820152608401610be2565b600083516001600160401b0381111561168357611683614eab565b6040519080825280602002602001820160405280156116ac578160200160208202803683370190505b50905060005b8451811015611724576116f78582815181106116d0576116d0615869565b60200260200101518583815181106116ea576116ea615869565b6020026020010151610b7b565b82828151811061170957611709615869565b602090810291909101015261171d8161587f565b90506116b2565b509392505050565b60003381805b600481101561178257600a816004811061174e5761174e615869565b015461175a8483610b7b565b611764919061590b565b61176e9083615822565b91508061177a8161587f565b915050611732565b50600061178d611e60565b905080156117a45761179f8183615800565b6117a7565b60005b935050505090565b600e82600481106117bf57600080fd5b600402018160048110610c5457600080fd5b6117d96138c0565b3360006117e78285856113ba565b60265460405163a9059cbb60e01b81526001600160a01b0385811660048301526024820184905292935091169063a9059cbb906044016020604051808303816000875af115801561183c573d6000803e3d6000fd5b505050506040513d601f19601f8201168201806040525081019061186091906159bf565b506000838152603a602052604081208291866003811115611883576118836158f5565b81526020019081526020016000206000846001600160a01b03166001600160a01b0316815260200190815260200160002060008282546118c39190615822565b90915550506001600955506112e29050565b6118e06000336120cc565b6118fc5760405162461bcd60e51b8152600401610be290615970565b603c80546001600160a01b0319166001600160a01b0392909216919091179055565b603b6020528160005260406000208160048110610c5457600080fd5b60396020528160005260406000208160048110610c5457600080fd5b60006119807fb53127684a568b3173ae13b9f8a6016e243e63b6e8ee1178d6a717850b5d61035490565b90506001600160a01b0381166119bf576001600160a01b037fb53127684a568b3173ae13b9f8a6016e243e63b6e8ee1178d6a717850b5d6103556119d4565b336001600160a01b038216146119d457600080fd5b6119dd89613919565b6119e8600033613925565b611a127f9f2df0fed2c77648de5860a4cc508cd0818c85b8b8a1ab4ceeef8d981c8956a633613925565b611a3c7f65d7a28e3265b37a6474929f336521b332c1681b933f6cb9f3376673440d862a33613925565b611a49600a896004614c83565b50611a57601e886004614c83565b50602480546001600160a01b0319166001600160a01b038816179055611a806027866002614cc1565b50602b849055611a936029846002614cc1565b50602c80546001600160a01b0319166001600160a01b03848116919091179091556024546040805163db7a460560e01b81528151611b2194939093169263db7a4605926004808401939192918290030181865afa158015611af8573d6000803e3d6000fd5b505050506040513d601f19601f82011682018060405250810190611b1c91906159dc565b61392f565b602460009054906101000a90046001600160a01b03166001600160a01b031663deef94de6040518163ffffffff1660e01b8152600401602060405180830381865afa158015611b74573d6000803e3d6000fd5b505050506040513d601f19601f82011682018060405250810190611b989190615a3e565b602580546001600160a01b0319166001600160a01b039283161790556024546040805163d63a6ccd60e01b81529051919092169163d63a6ccd9160048083019260209291908290030181865afa158015611bf6573d6000803e3d6000fd5b505050506040513d601f19601f82011682018060405250810190611c1a9190615a3e565b602680546001600160a01b0319166001600160a01b039283169081179091556024805460405163095ea7b360e01b815293166004840152600019908301529063095ea7b3906044016020604051808303816000875af1158015611c81573d6000803e3d6000fd5b505050506040513d601f19601f82011682018060405250810190611ca591906159bf565b5060265460255460405163095ea7b360e01b81526001600160a01b039182166004820152600019602482015291169063095ea7b3906044016020604051808303816000875af1158015611cfc573d6000803e3d6000fd5b505050506040513d601f19601f82011682018060405250810190611d2091906159bf565b506024805460405163095ea7b360e01b81526001600160a01b03909116600482018190526000199282019290925263095ea7b3906044016020604051808303816000875af1158015611d76573d6000803e3d6000fd5b505050506040513d601f19601f82011682018060405250810190611d9a91906159bf565b505060006036555050505050505050565b6001600160a01b038316331480611dc75750611dc78333610ac9565b611de35760405162461bcd60e51b8152600401610be290615922565b6111d683838361393b565b611e187f9f2df0fed2c77648de5860a4cc508cd0818c85b8b8a1ab4ceeef8d981c8956a6336120cc565b611e345760405162461bcd60e51b8152600401610be290615898565b610faf84848484613ae4565b60028160028110611e5057600080fd5b01546001600160a01b0316905081565b6000620f4240602460009054906101000a90046001600160a01b03166001600160a01b031663a035b1fe6040518163ffffffff1660e01b8152600401602060405180830381865afa158015611eb9573d6000803e3d6000fd5b505050506040513d601f19601f82011682018060405250810190611edd9190615a5b565b6024546001600160a01b03166370a0823160026000015460405160e083901b6001600160e01b03191681526001600160a01b039091166004820152602401602060405180830381865afa158015611f38573d6000803e3d6000fd5b505050506040513d601f19601f82011682018060405250810190611f5c9190615a5b565b611f66919061590b565b611f709190615800565b6026546001600160a01b03166370a0823160026000015460405160e083901b6001600160e01b03191681526001600160a01b039091166004820152602401602060405180830381865afa158015611fcb573d6000803e3d6000fd5b505050506040513d601f19601f82011682018060405250810190611fef9190615a5b565b610cb79190615822565b6120237f65d7a28e3265b37a6474929f336521b332c1681b933f6cb9f3376673440d862a336120cc565b6120955760405162461bcd60e51b815260206004820152603960248201527f455243313135355072657365744d696e7465725061757365723a206d7573742060448201527f686176652070617573657220726f6c6520746f207061757365000000000000006064820152608401610be2565b6113b8613bde565b601e8160048110610c3157600080fd5b60008281526001602052604081206120c59083613c1b565b9392505050565b6000918252602082815260408084206001600160a01b0393909316845291905290205460ff1690565b6121006000336120cc565b61211c5760405162461bcd60e51b8152600401610be290615970565b603c805460ff60a01b1916600160a01b9615159690960295909517909455603d92909255603e55603f55604080546001600160a01b0319166001600160a01b03909216919091179055565b606033610e8381610fb5565b6112e2338383613c27565b6000818152600160205260408120610c1090613d07565b60298160028110610c3157600080fd5b6121ad6138c0565b600082116122235760405162461bcd60e51b815260206004820152603960248201527f45205243313135355072657365744d696e7465725061757365723a20616d6f7560448201527f6e74206d7573742062652067726561746572207468616e2030000000000000006064820152608401610be2565b6000600a846003811115612239576122396158f5565b6004811061224957612249615869565b0154116122be5760405162461bcd60e51b815260206004820152603c60248201527f455243313135355072657365744d696e7465725061757365723a20746965722060448201527f7072696365206d7573742062652067726561746572207468616e2030000000006064820152608401610be2565b6001600160a01b03811615801590806122e857508080156122e857506001600160a01b0382163314155b6123435760405162461bcd60e51b815260206004820152602660248201527f526566657272616c206d75737420626520646966666572656e742066726f6d2060448201526539b2b73232b960d11b6064820152608401610be2565b6000846003811115612357576123576158f5565b602c54909150600160a01b900460ff166125f457600084600a876003811115612382576123826158f5565b6004811061239257612392615869565b015461239e919061590b565b6026549091506001600160a01b03166323b872dd336040516001600160e01b031960e084901b1681526001600160a01b039091166004820152306024820152604481018490526064016020604051808303816000875af1158015612406573d6000803e3d6000fd5b505050506040513d601f19601f8201168201806040525081019061242a91906159bf565b5060006124478260278661243f576000613d11565b602b54613d11565b6024805460405163f7e0ba5f60e01b8152600481018490529293506000926001600160a01b039091169163f7e0ba5f91016020604051808303816000875af1158015612497573d6000803e3d6000fd5b505050506040513d601f19601f820116820180604052508101906124bb9190615a5b565b6024549091506000906124d9906001600160a01b0316836027613d82565b90508515612516576000612506602460009054906101000a90046001600160a01b0316848a602b54613e80565b90506125128183615822565b9150505b6026546040516370a0823160e01b81523060048201526000916001600160a01b0316906370a0823190602401602060405180830381865afa15801561255f573d6000803e3d6000fd5b505050506040513d601f19601f820116820180604052508101906125839190615a5b565b905080156125ea5760255460405163b6b55f2560e01b8152600481018390526001600160a01b039091169063b6b55f2590602401600060405180830381600087803b1580156125d157600080fd5b505af11580156125e5573d6000803e3d6000fd5b505050505b5050505050612e93565b603c54600160a01b900460ff1615612a0657603d544210156126585760405162461bcd60e51b815260206004820152601b60248201527f50726573616c6520686173206e6f7420737461727465642079657400000000006044820152606401610be2565b603e54603d546126689190615822565b42106126ad5760405162461bcd60e51b8152602060048201526014602482015273141c995cd85b19481a185cc8199a5b9a5cda195960621b6044820152606401610be2565b33600060328760038111156126c4576126c46158f5565b600481106126d4576126d4615869565b0154602e8860038111156126ea576126ea6158f5565b600481106126fa576126fa615869565b015461270790600461590b565b61271191906157ed565b9050808611156127635760405162461bcd60e51b815260206004820152601f60248201527f4e6f7420656e6f75676820746f6b656e73206c65667420666f722073616c65006044820152606401610be2565b856041600089600381111561277a5761277a6158f5565b815260200190815260200160002060008282546127979190615822565b9250508190555060006305f5e10087603f54600a8b60038111156127bd576127bd6158f5565b600481106127cd576127cd615869565b01546127d9919061590b565b6127e3919061590b565b6127ed9190615800565b6026549091506001600160a01b03166323b872dd336040516001600160e01b031960e084901b1681526001600160a01b039091166004820152306024820152604481018490526064016020604051808303816000875af1158015612855573d6000803e3d6000fd5b505050506040513d601f19601f8201168201806040525081019061287991906159bf565b50602654604054602b5461289d926001600160a01b03908116928592911690613e80565b506026546128b6906001600160a01b0316826027613d82565b506026546040516370a0823160e01b81523060048201526000916001600160a01b0316906370a0823190602401602060405180830381865afa158015612900573d6000803e3d6000fd5b505050506040513d601f19601f820116820180604052508101906129249190615a5b565b905080156129a757602654602c5460405163a9059cbb60e01b81526001600160a01b0391821660048201526024810184905291169063a9059cbb906044016020604051808303816000875af1158015612981573d6000803e3d6000fd5b505050506040513d601f19601f820116820180604052508101906129a591906159bf565b505b8860038111156129b9576129b96158f5565b88856001600160a01b03167f39ee30f4a24386c77a2357c56106e468872ec0535ac06ca3a59c7cc50c55553f856040516129f591815260200190565b60405180910390a450505050612e93565b602254421015612a585760405162461bcd60e51b815260206004820152601b60248201527f50726573616c6520686173206e6f7420737461727465642079657400000000006044820152606401610be2565b6000612a62610c5d565b90506004811115612aa75760405162461bcd60e51b815260206004820152600f60248201526e283932b9b0b6329034b99037bb32b960891b6044820152606401610be2565b6000600e612ab66001846157ed565b60048110612ac657612ac6615869565b60408051608081019182905292600492830201919082845b815481526020019060010190808311612ade575050505050905085602d6000612b043390565b6001600160a01b03166001600160a01b0316815260200190815260200160002060008481526020019081526020016000206000896003811115612b4957612b496158f5565b81526020019081526020016000206000828254612b669190615822565b9091555086905060416000896003811115612b8357612b836158f5565b81526020019081526020016000206000828254612ba09190615822565b90915550829050602e886003811115612bbb57612bbb6158f5565b60048110612bcb57612bcb615869565b0154612bd7919061590b565b6032886003811115612beb57612beb6158f5565b60048110612bfb57612bfb615869565b01541115612c575760405162461bcd60e51b815260206004820152602360248201527f50726573616c65206d617820737570706c7920706572207765656b20726561636044820152621a195960ea1b6064820152608401610be2565b60008682896003811115612c6d57612c6d6158f5565b60048110612c7d57612c7d615869565b6020020151612c8c919061590b565b6026549091506001600160a01b03166323b872dd336040516001600160e01b031960e084901b1681526001600160a01b039091166004820152306024820152604481018490526064016020604051808303816000875af1158015612cf4573d6000803e3d6000fd5b505050506040513d601f19601f82011682018060405250810190612d1891906159bf565b50600085612d27576000612d44565b602654602b54612d44916001600160a01b03169084908a90613e80565b905060008615612d55576000612d78565b602654603c54602b54612d78926001600160a01b03908116928792911690613e80565b602654909150600090612d96906001600160a01b0316856027613d82565b6026546040516370a0823160e01b81523060048201529192506000916001600160a01b03909116906370a0823190602401602060405180830381865afa158015612de4573d6000803e3d6000fd5b505050506040513d601f19601f82011682018060405250810190612e089190615a5b565b90508015612e8b57602654602c5460405163a9059cbb60e01b81526001600160a01b0391821660048201526024810184905291169063a9059cbb906044016020604051808303816000875af1158015612e65573d6000803e3d6000fd5b505050506040513d601f19601f82011682018060405250810190612e8991906159bf565b505b505050505050505b612eae33828660405180602001604052806000815250613ae4565b50506111d66001600955565b612ec26138c0565b60005b6004811015612f1a5760005b6036548111612f0757612ef5826003811115612eef57612eef6158f5565b826117d1565b80612eff8161587f565b915050612ed1565b5080612f128161587f565b915050612ec5565b506113b86001600955565b612f2d6138c0565b6026546001600160a01b03166323b872dd336040516001600160e01b031960e084901b1681526001600160a01b039091166004820152306024820152604481018490526064016020604051808303816000875af1158015612f92573d6000803e3d6000fd5b505050506040513d601f19601f82011682018060405250810190612fb691906159bf565b506000612fc4600283615800565b90506000612fde612fd583856157ed565b60296000613d11565b6024805460405163f7e0ba5f60e01b8152600481018490529293506000926001600160a01b039091169163f7e0ba5f91016020604051808303816000875af115801561302e573d6000803e3d6000fd5b505050506040513d601f19601f820116820180604052508101906130529190615a5b565b602454909150600090613070906001600160a01b0316836029613d82565b6036805491925060006130828361587f565b909155505060365460009081526037602052604081208290556130a3610f22565b905060005b60048110156131315760008181526008602090815260408083205460365484526039909252909120819083600481106130e3576130e3615869565b0155826130f0828961590b565b6130fa9190615800565b6036546000908152603860205260409020836004811061311c5761311c615869565b015550806131298161587f565b9150506130a8565b506026546040516370a0823160e01b81523060048201526000916001600160a01b0316906370a0823190602401602060405180830381865afa15801561317b573d6000803e3d6000fd5b505050506040513d601f19601f8201168201806040525081019061319f9190615a5b565b905080156132065760255460405163b6b55f2560e01b8152600481018390526001600160a01b039091169063b6b55f2590602401600060405180830381600087803b1580156131ed57600080fd5b505af1158015613201573d6000803e3d6000fd5b505050505b5050505050506132166001600955565b50565b60008281526020819052604090206001015461323481613825565b6111d68383613851565b60278160028110610c3157600080fd5b6132596000336120cc565b6132755760405162461bcd60e51b8152600401610be290615970565b602291909155602355565b60003381805b6004811015610f1b5760005b60365481116132d5576132b7848360038111156132b1576132b16158f5565b836113ba565b6132c19084615822565b9250806132cd8161587f565b915050613292565b50806132e08161587f565b915050613286565b60006132ff826003811115610977576109776158f5565b1561331e57613319826003811115610977576109776158f5565b613321565b60015b6036546000908152603860205260409020836003811115613344576133446158f5565b6004811061335457613354615869565b01546133609190615800565b600a836003811115613374576133746158f5565b6004811061338457613384615869565b0154610c109190615822565b6001600160a01b0385163314806133ac57506133ac8533610ac9565b6133c85760405162461bcd60e51b8152600401610be290615922565b6111aa8585858585613fe5565b6133e06000336120cc565b6133fc5760405162461bcd60e51b8152600401610be290615970565b6112e2602e826004614c83565b6001600160a01b03831633148061342557506134258333610ac9565b6134415760405162461bcd60e51b8152600401610be290615922565b6111d683838361412f565b602e8160048110610c3157600080fd5b61346682826120cc565b6112e2576000828152602081815260408083206001600160a01b03851684529091529020805460ff1916600117905561349c3390565b6001600160a01b0316816001600160a01b0316837f2f8788117e7eff1d82e926ec794901d17c78024a50270940304540a733656f0d60405160405180910390a45050565b60006120c5836001600160a01b038416614255565b6000610c10826142a4565b6001600160a01b0384166135265760405162461bcd60e51b8152600401610be290615a74565b81518351146135475760405162461bcd60e51b8152600401610be290615ab5565b33613557816000878787876142e4565b60005b84518110156135f35783818151811061357557613575615869565b60200260200101516004600087848151811061359357613593615869565b602002602001015181526020019081526020016000206000886001600160a01b03166001600160a01b0316815260200190815260200160002060008282546135db9190615822565b909155508190506135eb8161587f565b91505061355a565b50846001600160a01b031660006001600160a01b0316826001600160a01b03167f4a39dc06d4c0dbc64b70af90fd698a233a518aa5d07e595d983b8c0526c8f7fb8787604051613644929190615afd565b60405180910390a461365b816000878787876142f2565b6111aa816000878787876143a4565b815183511461368b5760405162461bcd60e51b8152600401610be290615ab5565b6001600160a01b0384166136b15760405162461bcd60e51b8152600401610be290615b2b565b336136c08187878787876142e4565b60005b84518110156137a95760008582815181106136e0576136e0615869565b6020026020010151905060008583815181106136fe576136fe615869565b60209081029190910181015160008481526004835260408082206001600160a01b038e16835290935291909120549091508181101561374f5760405162461bcd60e51b8152600401610be290615b70565b60008381526004602090815260408083206001600160a01b038e8116855292528083208585039055908b1682528120805484929061378e908490615822565b92505081905550505050806137a29061587f565b90506136c3565b50846001600160a01b0316866001600160a01b0316826001600160a01b03167f4a39dc06d4c0dbc64b70af90fd698a233a518aa5d07e595d983b8c0526c8f7fb87876040516137f9929190615afd565b60405180910390a461380f8187878787876142f2565b61381d8187878787876143a4565b505050505050565b61321681336144ff565b613839828261345c565b60008281526001602052604090206111d690826134e0565b61385b8282614558565b60008281526001602052604090206111d690826145bd565b61387b6145d2565b6007805460ff191690557f5db9ee0a495bf2e6ff9c91a7834c1ba4fdd244a5e8aa4e537bd38aeae4b073aa335b6040516001600160a01b03909116815260200161125e565b6002600954036139125760405162461bcd60e51b815260206004820152601f60248201527f5265656e7472616e637947756172643a207265656e7472616e742063616c6c006044820152606401610be2565b6002600955565b60066112e28282615c00565b6112e2828261382f565b6112e260028281614cee565b6001600160a01b0383166139615760405162461bcd60e51b8152600401610be290615cbf565b80518251146139825760405162461bcd60e51b8152600401610be290615ab5565b60003390506139a5818560008686604051806020016040528060008152506142e4565b60005b8351811015613a6d5760008482815181106139c5576139c5615869565b6020026020010151905060008483815181106139e3576139e3615869565b60209081029190910181015160008481526004835260408082206001600160a01b038c168352909352919091205490915081811015613a345760405162461bcd60e51b8152600401610be290615d02565b60009283526004602090815260408085206001600160a01b038b1686529091529092209103905580613a658161587f565b9150506139a8565b5060006001600160a01b0316846001600160a01b0316826001600160a01b03167f4a39dc06d4c0dbc64b70af90fd698a233a518aa5d07e595d983b8c0526c8f7fb8686604051613abe929190615afd565b60405180910390a4610faf818560008686604051806020016040528060008152506142f2565b6001600160a01b038416613b0a5760405162461bcd60e51b8152600401610be290615a74565b336000613b168561461b565b90506000613b238561461b565b9050613b34836000898585896142e4565b60008681526004602090815260408083206001600160a01b038b16845290915281208054879290613b66908490615822565b909155505060408051878152602081018790526001600160a01b03808a1692600092918716917fc3d58168c5ae7397731d063d5bbf3d657854427343f4c083240f7aacaa2d0f62910160405180910390a4613bc6836000898585896142f2565b613bd583600089898989614666565b50505050505050565b613be6614721565b6007805460ff191660011790557f62e78cea01bee320cd4e420270b5ea74000d11b0c9f74754ebdbfc544b05a2586138a83390565b60006120c58383614767565b816001600160a01b0316836001600160a01b031603613c9a5760405162461bcd60e51b815260206004820152602960248201527f455243313135353a2073657474696e6720617070726f76616c20737461747573604482015268103337b91039b2b63360b91b6064820152608401610be2565b6001600160a01b03838116600081815260056020908152604080832094871680845294825291829020805460ff191686151590811790915591519182527f17307eab39ab6107e8899845ad3d59bd9653f200f220920489ca2b5937696c31910160405180910390a3505050565b6000610c10825490565b6000806002815b81811015613d5257858160028110613d3257613d32615869565b0154613d3e9084615822565b925080613d4a8161587f565b915050613d18565b50613d5d8483615822565b91506305f5e100613d6e838861590b565b613d789190615800565b9695505050505050565b600080805b6002811015613e775760006305f5e100858360028110613da957613da9615869565b0154613db5908861590b565b613dbf9190615800565b9050866001600160a01b031663a9059cbb60028460028110613de357613de3615869565b015460405160e083901b6001600160e01b03191681526001600160a01b039091166004820152602481018490526044016020604051808303816000875af1158015613e32573d6000803e3d6000fd5b505050506040513d601f19601f82011682018060405250810190613e5691906159bf565b50613e618184615822565b9250508080613e6f9061587f565b915050613d87565b50949350505050565b6040516370a0823160e01b815230600482015260009081906001600160a01b038716906370a0823190602401602060405180830381865afa158015613ec9573d6000803e3d6000fd5b505050506040513d601f19601f82011682018060405250810190613eed9190615a5b565b905060006305f5e100613f00858861590b565b613f0a9190615800565b905080821015613f675760405162461bcd60e51b815260206004820152602260248201527f4e6f7420656e6f7567682062616c616e6365206f6e2074686520636f6e74726160448201526118dd60f21b6064820152608401610be2565b60405163a9059cbb60e01b81526001600160a01b0386811660048301526024820183905288169063a9059cbb906044016020604051808303816000875af1158015613fb6573d6000803e3d6000fd5b505050506040513d601f19601f82011682018060405250810190613fda91906159bf565b509695505050505050565b6001600160a01b03841661400b5760405162461bcd60e51b8152600401610be290615b2b565b3360006140178561461b565b905060006140248561461b565b90506140348389898585896142e4565b60008681526004602090815260408083206001600160a01b038c168452909152902054858110156140775760405162461bcd60e51b8152600401610be290615b70565b60008781526004602090815260408083206001600160a01b038d8116855292528083208985039055908a168252812080548892906140b6908490615822565b909155505060408051888152602081018890526001600160a01b03808b16928c821692918816917fc3d58168c5ae7397731d063d5bbf3d657854427343f4c083240f7aacaa2d0f62910160405180910390a4614116848a8a86868a6142f2565b614124848a8a8a8a8a614666565b505050505050505050565b6001600160a01b0383166141555760405162461bcd60e51b8152600401610be290615cbf565b3360006141618461461b565b9050600061416e8461461b565b905061418e838760008585604051806020016040528060008152506142e4565b60008581526004602090815260408083206001600160a01b038a168452909152902054848110156141d15760405162461bcd60e51b8152600401610be290615d02565b60008681526004602090815260408083206001600160a01b038b81168086529184528285208a8703905582518b81529384018a90529092908816917fc3d58168c5ae7397731d063d5bbf3d657854427343f4c083240f7aacaa2d0f62910160405180910390a4613bd5848860008686604051806020016040528060008152506142f2565b600081815260018301602052604081205461429c57508154600181810184556000848152602080822090930184905584548482528286019093526040902091909155610c10565b506000610c10565b60006001600160e01b03198216636cdb3d1360e11b14806142d557506001600160e01b031982166303a24d0760e21b145b80610c105750610c1082614791565b61381d8686868686866147b6565b601e8360008151811061430757614307615869565b60200260200101516004811061431f5761431f615869565b01546143518460008151811061433757614337615869565b602002602001015160009081526008602052604090205490565b111561439f5760405162461bcd60e51b815260206004820152601b60248201527f536166654e46543a206d617820737570706c79207265616368656400000000006044820152606401610be2565b61381d565b6001600160a01b0384163b1561381d5760405163bc197c8160e01b81526001600160a01b0385169063bc197c81906143e89089908990889088908890600401615d46565b6020604051808303816000875af1925050508015614423575060408051601f3d908101601f1916820190925261442091810190615da4565b60015b6144cf5761442f615dc1565b806308c379a0036144685750614443615ddd565b8061444e575061446a565b8060405162461bcd60e51b8152600401610be29190614e4a565b505b60405162461bcd60e51b815260206004820152603460248201527f455243313135353a207472616e7366657220746f206e6f6e2d455243313135356044820152732932b1b2b4bb32b91034b6b83632b6b2b73a32b960611b6064820152608401610be2565b6001600160e01b0319811663bc197c8160e01b14613bd55760405162461bcd60e51b8152600401610be290615e66565b61450982826120cc565b6112e2576145168161493d565b61452183602061494f565b604051602001614532929190615eae565b60408051601f198184030181529082905262461bcd60e51b8252610be291600401614e4a565b61456282826120cc565b156112e2576000828152602081815260408083206001600160a01b0385168085529252808320805460ff1916905551339285917ff6391f5c32d9c69d2a47ea670b442974b53935d1edc7fd64eb21e047a839171b9190a45050565b60006120c5836001600160a01b038416614aea565b60075460ff166113b85760405162461bcd60e51b815260206004820152601460248201527314185d5cd8589b194e881b9bdd081c185d5cd95960621b6044820152606401610be2565b6040805160018082528183019092526060916000919060208083019080368337019050509050828160008151811061465557614655615869565b602090810291909101015292915050565b6001600160a01b0384163b1561381d5760405163f23a6e6160e01b81526001600160a01b0385169063f23a6e61906146aa9089908990889088908890600401615f23565b6020604051808303816000875af19250505080156146e5575060408051601f3d908101601f191682019092526146e291810190615da4565b60015b6146f15761442f615dc1565b6001600160e01b0319811663f23a6e6160e01b14613bd55760405162461bcd60e51b8152600401610be290615e66565b60075460ff16156113b85760405162461bcd60e51b815260206004820152601060248201526f14185d5cd8589b194e881c185d5cd95960821b6044820152606401610be2565b600082600001828154811061477e5761477e615869565b9060005260206000200154905092915050565b60006001600160e01b03198216635a05180f60e01b1480610c105750610c1082614bdd565b6147c4868686868686614c12565b6001600160a01b03851661484b5760005b8351811015614849578281815181106147f0576147f0615869565b60200260200101516008600086848151811061480e5761480e615869565b6020026020010151815260200190815260200160002060008282546148339190615822565b9091555061484290508161587f565b90506147d5565b505b6001600160a01b03841661381d5760005b8351811015613bd557600084828151811061487957614879615869565b60200260200101519050600084838151811061489757614897615869565b602002602001015190506000600860008481526020019081526020016000205490508181101561491a5760405162461bcd60e51b815260206004820152602860248201527f455243313135353a206275726e20616d6f756e74206578636565647320746f74604482015267616c537570706c7960c01b6064820152608401610be2565b600092835260086020526040909220910390556149368161587f565b905061485c565b6060610c106001600160a01b03831660145b6060600061495e83600261590b565b614969906002615822565b6001600160401b0381111561498057614980614eab565b6040519080825280601f01601f1916602001820160405280156149aa576020820181803683370190505b509050600360fc1b816000815181106149c5576149c5615869565b60200101906001600160f81b031916908160001a905350600f60fb1b816001815181106149f4576149f4615869565b60200101906001600160f81b031916908160001a9053506000614a1884600261590b565b614a23906001615822565b90505b6001811115614a9b576f181899199a1a9b1b9c1cb0b131b232b360811b85600f1660108110614a5757614a57615869565b1a60f81b828281518110614a6d57614a6d615869565b60200101906001600160f81b031916908160001a90535060049490941c93614a9481615f5b565b9050614a26565b5083156120c55760405162461bcd60e51b815260206004820181905260248201527f537472696e67733a20686578206c656e67746820696e73756666696369656e746044820152606401610be2565b60008181526001830160205260408120548015614bd3576000614b0e6001836157ed565b8554909150600090614b22906001906157ed565b9050818114614b87576000866000018281548110614b4257614b42615869565b9060005260206000200154905080876000018481548110614b6557614b65615869565b6000918252602080832090910192909255918252600188019052604090208390555b8554869080614b9857614b98615f72565b600190038181906000526020600020016000905590558560010160008681526020019081526020016000206000905560019350505050610c10565b6000915050610c10565b60006001600160e01b03198216637965db0b60e01b1480610c1057506301ffc9a760e01b6001600160e01b0319831614610c10565b61381d86868686868660075460ff161561381d5760405162461bcd60e51b815260206004820152602c60248201527f455243313135355061757361626c653a20746f6b656e207472616e736665722060448201526b1dda1a5b19481c185d5cd95960a21b6064820152608401610be2565b8260048101928215614cb1579160200282015b82811115614cb1578251825591602001919060010190614c96565b50614cbd929150614d36565b5090565b8260028101928215614cb15791602002820182811115614cb1578251825591602001919060010190614c96565b8260028101928215614cb1579160200282015b82811115614cb157825182546001600160a01b0319166001600160a01b03909116178255602090920191600190910190614d01565b5b80821115614cbd5760008155600101614d37565b6001600160a01b038116811461321657600080fd5b60008060408385031215614d7357600080fd5b8235614d7e81614d4b565b946020939093013593505050565b6001600160e01b03198116811461321657600080fd5b600060208284031215614db457600080fd5b81356120c581614d8c565b600060208284031215614dd157600080fd5b5035919050565b60008060408385031215614deb57600080fd5b50508035926020909101359150565b60005b83811015614e15578181015183820152602001614dfd565b50506000910152565b60008151808452614e36816020860160208601614dfa565b601f01601f19169290920160200192915050565b6020815260006120c56020830184614e1e565b600081518084526020808501945080840160005b83811015614e8d57815187529582019590820190600101614e71565b509495945050505050565b6020815260006120c56020830184614e5d565b634e487b7160e01b600052604160045260246000fd5b604081018181106001600160401b0382111715614ee057614ee0614eab565b60405250565b601f8201601f191681016001600160401b0381118282101715614f0b57614f0b614eab565b6040525050565b60006001600160401b03821115614f2b57614f2b614eab565b5060051b60200190565b600082601f830112614f4657600080fd5b81356020614f5382614f12565b604051614f608282614ee6565b83815260059390931b8501820192828101915086841115614f8057600080fd5b8286015b84811015613fda5780358352918301918301614f84565b60006001600160401b03831115614fb457614fb4614eab565b604051614fcb601f8501601f191660200182614ee6565b809150838152848484011115614fe057600080fd5b83836020830137600060208583010152509392505050565b600082601f83011261500957600080fd5b6120c583833560208501614f9b565b6000806000806080858703121561502e57600080fd5b843561503981614d4b565b935060208501356001600160401b038082111561505557600080fd5b61506188838901614f35565b9450604087013591508082111561507757600080fd5b61508388838901614f35565b9350606087013591508082111561509957600080fd5b506150a687828801614ff8565b91505092959194509250565b6000602082840312156150c457600080fd5b81356120c581614d4b565b600080600080600060a086880312156150e757600080fd5b85356150f281614d4b565b9450602086013561510281614d4b565b935060408601356001600160401b038082111561511e57600080fd5b61512a89838a01614f35565b9450606088013591508082111561514057600080fd5b61514c89838a01614f35565b9350608088013591508082111561516257600080fd5b5061516f88828901614ff8565b9150509295509295909350565b6000806040838503121561518f57600080fd5b8235915060208301356151a181614d4b565b809150509250929050565b8035600481106151bb57600080fd5b919050565b6000602082840312156151d257600080fd5b6120c5826151ac565b6000806000606084860312156151f057600080fd5b83356151fb81614d4b565b9250615209602085016151ac565b9150604084013590509250925092565b6000602080838503121561522c57600080fd5b82356001600160401b038082111561524357600080fd5b818501915085601f83011261525757600080fd5b813561526281614f12565b60405161526f8282614ee6565b82815260059290921b840185019185810191508883111561528f57600080fd5b8585015b838110156152c7578035858111156152ab5760008081fd5b6152b98b89838a0101614f35565b845250918601918601615293565b5098975050505050505050565b600080604083850312156152e757600080fd5b82356001600160401b03808211156152fe57600080fd5b818501915085601f83011261531257600080fd5b8135602061531f82614f12565b60405161532c8282614ee6565b83815260059390931b850182019282810191508984111561534c57600080fd5b948201945b8386101561537357853561536481614d4b565b82529482019490820190615351565b9650508601359250508082111561538957600080fd5b5061539685828601614f35565b9150509250929050565b600080604083850312156153b357600080fd5b614d7e836151ac565b600082601f8301126153cd57600080fd5b604051608081018181106001600160401b03821117156153ef576153ef614eab565b60405280608084018581111561540457600080fd5b845b8181101561541e578035835260209283019201615406565b509195945050505050565b600082601f83011261543a57600080fd5b60405161544681614ec1565b80604084018581111561540457600080fd5b600080600080600080600080610200898b03121561547557600080fd5b88356001600160401b0381111561548b57600080fd5b8901601f81018b1361549c57600080fd5b6154ab8b823560208401614f9b565b9850506154bb8a60208b016153bc565b96506154ca8a60a08b016153bc565b95506101208901356154db81614d4b565b94506154eb8a6101408b01615429565b935061018089013592506155038a6101a08b01615429565b91506101e089013561551481614d4b565b809150509295985092959890939650565b60008060006060848603121561553a57600080fd5b833561554581614d4b565b925060208401356001600160401b038082111561556157600080fd5b61556d87838801614f35565b9350604086013591508082111561558357600080fd5b5061559086828701614f35565b9150509250925092565b600080600080608085870312156155b057600080fd5b84356155bb81614d4b565b9350602085013592506040850135915060608501356001600160401b038111156155e457600080fd5b6150a687828801614ff8565b60008060006060848603121561560557600080fd5b833561561081614d4b565b95602085013595506040909401359392505050565b801515811461321657600080fd5b600080600080600060a0868803121561564b57600080fd5b853561565681615625565b9450602086013593506040860135925060608601359150608086013561567b81614d4b565b809150509295509295909350565b6000806040838503121561569c57600080fd5b82356156a781614d4b565b915060208301356151a181615625565b6000806000606084860312156156cc57600080fd5b833592506020840135915060408401356156e581614d4b565b809150509250925092565b60008060006060848603121561570557600080fd5b61570e846151ac565b92506020840135915060408401356156e581614d4b565b6000806040838503121561573857600080fd5b823561574381614d4b565b915060208301356151a181614d4b565b600080600080600060a0868803121561576b57600080fd5b853561577681614d4b565b9450602086013561578681614d4b565b9350604086013592506060860135915060808601356001600160401b038111156157af57600080fd5b61516f88828901614ff8565b6000608082840312156157cd57600080fd5b6120c583836153bc565b634e487b7160e01b600052601160045260246000fd5b81810381811115610c1057610c106157d7565b60008261581d57634e487b7160e01b600052601260045260246000fd5b500490565b80820180821115610c1057610c106157d7565b600181811c9082168061584957607f821691505b602082108103610dc757634e487b7160e01b600052602260045260246000fd5b634e487b7160e01b600052603260045260246000fd5b600060018201615891576158916157d7565b5060010190565b60208082526038908201527f455243313135355072657365744d696e7465725061757365723a206d7573742060408201527f68617665206d696e74657220726f6c6520746f206d696e740000000000000000606082015260800190565b634e487b7160e01b600052602160045260246000fd5b8082028115828204841417610c1057610c106157d7565b6020808252602e908201527f455243313135353a2063616c6c6572206973206e6f7420746f6b656e206f776e60408201526d195c881bdc88185c1c1c9bdd995960921b606082015260800190565b6020808252602f908201527f455243313135355072657365744d696e7465725061757365723a206d7573742060408201526e686176652061646d696e20726f6c6560881b606082015260800190565b6000602082840312156159d157600080fd5b81516120c581615625565b6000604082840312156159ee57600080fd5b82601f8301126159fd57600080fd5b604051615a0981614ec1565b806040840185811115615a1b57600080fd5b845b8181101561541e578051615a3081614d4b565b835260209283019201615a1d565b600060208284031215615a5057600080fd5b81516120c581614d4b565b600060208284031215615a6d57600080fd5b5051919050565b60208082526021908201527f455243313135353a206d696e7420746f20746865207a65726f206164647265736040820152607360f81b606082015260800190565b60208082526028908201527f455243313135353a2069647320616e6420616d6f756e7473206c656e677468206040820152670dad2e6dac2e8c6d60c31b606082015260800190565b604081526000615b106040830185614e5d565b8281036020840152615b228185614e5d565b95945050505050565b60208082526025908201527f455243313135353a207472616e7366657220746f20746865207a65726f206164604082015264647265737360d81b606082015260800190565b6020808252602a908201527f455243313135353a20696e73756666696369656e742062616c616e636520666f60408201526939103a3930b739b332b960b11b606082015260800190565b601f8211156111d657600081815260208120601f850160051c81016020861015615be15750805b601f850160051c820191505b8181101561381d57828155600101615bed565b81516001600160401b03811115615c1957615c19614eab565b615c2d81615c278454615835565b84615bba565b602080601f831160018114615c625760008415615c4a5750858301515b600019600386901b1c1916600185901b17855561381d565b600085815260208120601f198616915b82811015615c9157888601518255948401946001909101908401615c72565b5085821015615caf5787850151600019600388901b60f8161c191681555b5050505050600190811b01905550565b60208082526023908201527f455243313135353a206275726e2066726f6d20746865207a65726f206164647260408201526265737360e81b606082015260800190565b60208082526024908201527f455243313135353a206275726e20616d6f756e7420657863656564732062616c604082015263616e636560e01b606082015260800190565b60006001600160a01b03808816835280871660208401525060a06040830152615d7260a0830186614e5d565b8281036060840152615d848186614e5d565b90508281036080840152615d988185614e1e565b98975050505050505050565b600060208284031215615db657600080fd5b81516120c581614d8c565b600060033d1115615dda5760046000803e5060005160e01c5b90565b600060443d1015615deb5790565b6040516003193d81016004833e81513d6001600160401b038160248401118184111715615e1a57505050505090565b8285019150815181811115615e325750505050505090565b843d8701016020828501011115615e4c5750505050505090565b615e5b60208286010187614ee6565b509095945050505050565b60208082526028908201527f455243313135353a204552433131353552656365697665722072656a656374656040820152676420746f6b656e7360c01b606082015260800190565b7f416363657373436f6e74726f6c3a206163636f756e7420000000000000000000815260008351615ee6816017850160208801614dfa565b7001034b99036b4b9b9b4b733903937b6329607d1b6017918401918201528351615f17816028840160208801614dfa565b01602801949350505050565b60006001600160a01b03808816835280871660208401525084604083015283606083015260a0608083015261147c60a0830184614e1e565b600081615f6a57615f6a6157d7565b506000190190565b634e487b7160e01b600052603160045260246000fdfea2646970667358221220a1e15034a88b47bf49873e3cb00952898f73e776f68dc912cbc01d1d625340b864736f6c63430008110033b53127684a568b3173ae13b9f8a6016e243e63b6e8ee1178d6a717850b5d610365d7a28e3265b37a6474929f336521b332c1681b933f6cb9f3376673440d862a9f2df0fed2c77648de5860a4cc508cd0818c85b8b8a1ab4ceeef8d981c8956a6",
  "devdoc": {
    "author": "crypt0grapher",
    "kind": "dev",
    "methods": {
      "balanceOf(address,uint256)": {
        "details": "See {IERC1155-balanceOf}. Requirements: - `account` cannot be the zero address."
      },
      "balanceOfBatch(address[],uint256[])": {
        "details": "See {IERC1155-balanceOfBatch}. Requirements: - `accounts` and `ids` must have the same length."
      },
      "buy(uint8,uint256,address)": {
        "params": {
          "_amount": "amount of USD to spend",
          "_referral": "referral getting 5% of the price, should not be the sender, if not specified, goes to treasury",
          "_tier": "tier of the NFT to purchase which stands for ERC1155 token id [0..3]"
        }
      },
      "distributeProfit(uint256)": {
        "params": {
          "_amountUSD": "amount of USD to distribute"
        }
      },
      "exists(uint256)": {
        "details": "Indicates whether any token exist with a given id, or not."
      },
      "getCurrentPresaleWeek()": {
        "returns": {
          "_0": "returns 1-4"
        }
      },
      "getDiscountedPriceTable()": {
        "returns": {
          "_0": "uint256[] containing all NFT prices in one table in USD for the current presale week"
        }
      },
      "getFairPrice(uint8)": {
        "returns": {
          "_0": "counts not only the sale price but also share of the profit for the tier"
        }
      },
      "getPrice(uint8)": {
        "returns": {
          "_0": "NFT price in USD"
        }
      },
      "getPriceTable()": {
        "returns": {
          "_0": "uint256[] containing all NFT prices in one table in USD"
        }
      },
      "getRoleAdmin(bytes32)": {
        "details": "Returns the admin role that controls `role`. See {grantRole} and {revokeRole}. To change a role's admin, use {_setRoleAdmin}."
      },
      "getRoleMember(bytes32,uint256)": {
        "details": "Returns one of the accounts that have `role`. `index` must be a value between 0 and {getRoleMemberCount}, non-inclusive. Role bearers are not sorted in any particular way, and their ordering may change at any point. WARNING: When using {getRoleMember} and {getRoleMemberCount}, make sure you perform all queries on the same block. See the following https://forum.openzeppelin.com/t/iterating-over-elements-on-enumerableset-in-openzeppelin-contracts/2296[forum post] for more information."
      },
      "getRoleMemberCount(bytes32)": {
        "details": "Returns the number of accounts that have `role`. Can be used together with {getRoleMember} to enumerate all bearers of a role."
      },
      "getUnclaimedRewards()": {
        "returns": {
          "_0": "amount of the rewards not yet distributed to NFT holders"
        }
      },
      "grantRole(bytes32,address)": {
        "details": "Grants `role` to `account`. If `account` had not been already granted `role`, emits a {RoleGranted} event. Requirements: - the caller must have ``role``'s admin role. May emit a {RoleGranted} event."
      },
      "hasRole(bytes32,address)": {
        "details": "Returns `true` if `account` has been granted `role`."
      },
      "isApprovedForAll(address,address)": {
        "details": "See {IERC1155-isApprovedForAll}."
      },
      "mint(address,uint256,uint256,bytes)": {
        "details": "Creates `amount` new tokens for `to`, of token type `id`. See {ERC1155-_mint}. Requirements: - the caller must have the `MINTER_ROLE`."
      },
      "mintBatch(address,uint256[],uint256[],bytes)": {
        "details": "xref:ROOT:erc1155.adoc#batch-operations[Batched] variant of {mint}."
      },
      "pause()": {
        "details": "Pauses all token transfers. See {ERC1155Pausable} and {Pausable-_pause}. Requirements: - the caller must have the `PAUSER_ROLE`."
      },
      "paused()": {
        "details": "Returns true if the contract is paused, and false otherwise."
      },
      "renounceRole(bytes32,address)": {
        "details": "Revokes `role` from the calling account. Roles are often managed via {grantRole} and {revokeRole}: this function's purpose is to provide a mechanism for accounts to lose their privileges if they are compromised (such as when a trusted device is misplaced). If the calling account had been revoked `role`, emits a {RoleRevoked} event. Requirements: - the caller must be `account`. May emit a {RoleRevoked} event."
      },
      "revokeRole(bytes32,address)": {
        "details": "Revokes `role` from `account`. If `account` had been granted `role`, emits a {RoleRevoked} event. Requirements: - the caller must have ``role``'s admin role. May emit a {RoleRevoked} event."
      },
      "safeBatchTransferFrom(address,address,uint256[],uint256[],bytes)": {
        "details": "See {IERC1155-safeBatchTransferFrom}."
      },
      "safeTransferFrom(address,address,uint256,uint256,bytes)": {
        "details": "See {IERC1155-safeTransferFrom}."
      },
      "setApprovalForAll(address,bool)": {
        "details": "See {IERC1155-setApprovalForAll}."
      },
      "setDiscountedPriceTable(uint256[][])": {
        "params": {
          "_presalePrice": "4x4 table of the discounted prices for all 4 tiers for all 4 weeks of the presale"
        }
      },
      "totalSupply(uint256)": {
        "details": "Total amount of tokens in with a given id."
      },
      "unpause()": {
        "details": "Unpauses all token transfers. See {ERC1155Pausable} and {Pausable-_unpause}. Requirements: - the caller must have the `PAUSER_ROLE`."
      },
      "uri(uint256)": {
        "details": "See {IERC1155MetadataURI-uri}. This implementation returns the same URI for *all* token types. It relies on the token type ID substitution mechanism https://eips.ethereum.org/EIPS/eip-1155#metadata[defined in the EIP]. Clients calling this function must replace the `\\{id\\}` substring with the actual token type ID."
      }
    },
    "stateVariables": {
      "currentDistributionId": {
        "return": "current distribution number, the one that assigned to the latest distribution",
        "returns": {
          "_0": "current distribution number, the one that assigned to the latest distribution"
        }
      }
    },
    "title": "Safe NFT",
    "version": 1
  },
  "userdoc": {
    "kind": "user",
    "methods": {
      "TIERS()": {
        "notice": "todo a number of tiers should be flexible"
      },
      "WALLETS()": {
        "notice": "total wallets on the protocol less vault, see Wallets enum, this can be basically any number"
      },
      "buy(uint8,uint256,address)": {
        "notice": "purchase Safe NFT for exact amount of USD"
      },
      "claimReward(uint8,uint256)": {
        "notice": "the function calculates the amount of the reward for the NFT holder and transfers it to the NFT holder"
      },
      "claimRewardsTotal()": {
        "notice": "the function calculates the amount of the reward for the NFT holder and transfers it to the NFT holder"
      },
      "currentDistributionId()": {
        "notice": "gets the current distribution number"
      },
      "distributeProfit(uint256)": {
        "notice": "distribute profit among the NFT holders, the function fixes the amount of the reward and the NFT holders and their shares at the moment of the call. It does not transfer the reward to the NFT holders, it just records the amount of the reward for each NFT holder."
      },
      "getBalanceTable(address)": {
        "notice": "gets NFT balance for all tiers"
      },
      "getCurrentPresaleWeek()": {
        "notice": "gets the current presale week"
      },
      "getDiscountedPriceTable()": {
        "notice": "gets all discounted NFT prices in USD, for presale for all 4 weeks of the presale"
      },
      "getFairPrice(uint8)": {
        "notice": "gets NFT fair price in USD"
      },
      "getFairPriceTable()": {
        "notice": "gets NFT price for all tiers in USD ///todo in SAFE!"
      },
      "getMyBalanceTable()": {
        "notice": "gets NFT balance for all tiers"
      },
      "getMyPendingRewardsTotal()": {
        "notice": "returns the amount of the reward share for the NFT holder"
      },
      "getMyShareOfTreasury()": {
        "notice": "**Your NFTs (% Treasury) **is calculated in $ as a relation of total price of NFTs possessed by the $ amount of Investment Pool - including its SAFE and stable coin  components."
      },
      "getPendingRewards(address,uint8,uint256)": {
        "notice": "returns the amount of the reward share for the NFT holder"
      },
      "getPrice(uint8)": {
        "notice": "gets NFT price in USD"
      },
      "getPriceTable()": {
        "notice": "gets all NFT prices in USD, the original ones without discounts"
      },
      "getTreasuryCost()": {
        "notice": "gets the total usd value of the NFT minted"
      },
      "getUnclaimedRewards()": {
        "notice": "undistributed profit amount in USD"
      },
      "setDiscountedPriceTable(uint256[][])": {
        "notice": "sets all discounted NFT prices in USD, for presale for all 4 weeks of the presale"
      },
      "togglePresale()": {
        "notice": "toggles presale status"
      }
    },
    "notice": "Safe Yields NFT token based on ERC1155 standard, id [0..3] represents one of the 4 tiers",
    "version": 1
  },
  "storageLayout": {
    "storage": [
      {
        "astId": 24,
        "contract": "contracts/SafeNFT.sol:SafeNFT",
        "label": "_roles",
        "offset": 0,
        "slot": "0",
        "type": "t_mapping(t_bytes32,t_struct(RoleData)19_storage)"
      },
      {
        "astId": 334,
        "contract": "contracts/SafeNFT.sol:SafeNFT",
        "label": "_roleMembers",
        "offset": 0,
        "slot": "1",
        "type": "t_mapping(t_bytes32,t_struct(AddressSet)4430_storage)"
      },
      {
        "astId": 6598,
        "contract": "contracts/SafeNFT.sol:SafeNFT",
        "label": "wallets",
        "offset": 0,
        "slot": "2",
        "type": "t_array(t_address)2_storage"
      },
      {
        "astId": 726,
        "contract": "contracts/SafeNFT.sol:SafeNFT",
        "label": "_balances",
        "offset": 0,
        "slot": "4",
        "type": "t_mapping(t_uint256,t_mapping(t_address,t_uint256))"
      },
      {
        "astId": 732,
        "contract": "contracts/SafeNFT.sol:SafeNFT",
        "label": "_operatorApprovals",
        "offset": 0,
        "slot": "5",
        "type": "t_mapping(t_address,t_mapping(t_address,t_bool))"
      },
      {
        "astId": 734,
        "contract": "contracts/SafeNFT.sol:SafeNFT",
        "label": "_uri",
        "offset": 0,
        "slot": "6",
        "type": "t_string_storage"
      },
      {
        "astId": 556,
        "contract": "contracts/SafeNFT.sol:SafeNFT",
        "label": "_paused",
        "offset": 0,
        "slot": "7",
        "type": "t_bool"
      },
      {
        "astId": 2213,
        "contract": "contracts/SafeNFT.sol:SafeNFT",
        "label": "_totalSupply",
        "offset": 0,
        "slot": "8",
        "type": "t_mapping(t_uint256,t_uint256)"
      },
      {
        "astId": 657,
        "contract": "contracts/SafeNFT.sol:SafeNFT",
        "label": "_status",
        "offset": 0,
        "slot": "9",
        "type": "t_uint256"
      },
      {
        "astId": 4752,
        "contract": "contracts/SafeNFT.sol:SafeNFT",
        "label": "price",
        "offset": 0,
        "slot": "10",
        "type": "t_array(t_uint256)4_storage"
      },
      {
        "astId": 4758,
        "contract": "contracts/SafeNFT.sol:SafeNFT",
        "label": "presalePrice",
        "offset": 0,
        "slot": "14",
        "type": "t_array(t_array(t_uint256)4_storage)4_storage"
      },
      {
        "astId": 4762,
        "contract": "contracts/SafeNFT.sol:SafeNFT",
        "label": "maxSupply",
        "offset": 0,
        "slot": "30",
        "type": "t_array(t_uint256)4_storage"
      },
      {
        "astId": 4764,
        "contract": "contracts/SafeNFT.sol:SafeNFT",
        "label": "presaleStartDate",
        "offset": 0,
        "slot": "34",
        "type": "t_uint256"
      },
      {
        "astId": 4766,
        "contract": "contracts/SafeNFT.sol:SafeNFT",
        "label": "weekDuration",
        "offset": 0,
        "slot": "35",
        "type": "t_uint256"
      },
      {
        "astId": 4769,
        "contract": "contracts/SafeNFT.sol:SafeNFT",
        "label": "safeToken",
        "offset": 0,
        "slot": "36",
        "type": "t_contract(ISafeToken)7023"
      },
      {
        "astId": 4772,
        "contract": "contracts/SafeNFT.sol:SafeNFT",
        "label": "safeVault",
        "offset": 0,
        "slot": "37",
        "type": "t_contract(ISafeVault)7061"
      },
      {
        "astId": 4775,
        "contract": "contracts/SafeNFT.sol:SafeNFT",
        "label": "usd",
        "offset": 0,
        "slot": "38",
        "type": "t_contract(IERC20)2651"
      },
      {
        "astId": 4782,
        "contract": "contracts/SafeNFT.sol:SafeNFT",
        "label": "priceDistributionOnMint",
        "offset": 0,
        "slot": "39",
        "type": "t_array(t_uint256)2_storage"
      },
      {
        "astId": 4786,
        "contract": "contracts/SafeNFT.sol:SafeNFT",
        "label": "profitDistribution",
        "offset": 0,
        "slot": "41",
        "type": "t_array(t_uint256)2_storage"
      },
      {
        "astId": 4788,
        "contract": "contracts/SafeNFT.sol:SafeNFT",
        "label": "referralShareForNFTPurchase",
        "offset": 0,
        "slot": "43",
        "type": "t_uint256"
      },
      {
        "astId": 4790,
        "contract": "contracts/SafeNFT.sol:SafeNFT",
        "label": "stabilizerWallet",
        "offset": 0,
        "slot": "44",
        "type": "t_address"
      },
      {
        "astId": 4792,
        "contract": "contracts/SafeNFT.sol:SafeNFT",
        "label": "presale",
        "offset": 20,
        "slot": "44",
        "type": "t_bool"
      },
      {
        "astId": 4800,
        "contract": "contracts/SafeNFT.sol:SafeNFT",
        "label": "soldPerPresaleWeek",
        "offset": 0,
        "slot": "45",
        "type": "t_mapping(t_address,t_mapping(t_uint256,t_mapping(t_uint256,t_uint256)))"
      },
      {
        "astId": 4804,
        "contract": "contracts/SafeNFT.sol:SafeNFT",
        "label": "presaleMaxSupply",
        "offset": 0,
        "slot": "46",
        "type": "t_array(t_uint256)4_storage"
      },
      {
        "astId": 4808,
        "contract": "contracts/SafeNFT.sol:SafeNFT",
        "label": "currentlySoldInPresale",
        "offset": 0,
        "slot": "50",
        "type": "t_array(t_uint256)4_storage"
      },
      {
        "astId": 4810,
        "contract": "contracts/SafeNFT.sol:SafeNFT",
        "label": "currentDistributionId",
        "offset": 0,
        "slot": "54",
        "type": "t_uint256"
      },
      {
        "astId": 4814,
        "contract": "contracts/SafeNFT.sol:SafeNFT",
        "label": "distributionOfProfit",
        "offset": 0,
        "slot": "55",
        "type": "t_mapping(t_uint256,t_uint256)"
      },
      {
        "astId": 4820,
        "contract": "contracts/SafeNFT.sol:SafeNFT",
        "label": "distributionByTier",
        "offset": 0,
        "slot": "56",
        "type": "t_mapping(t_uint256,t_array(t_uint256)4_storage)"
      },
      {
        "astId": 4826,
        "contract": "contracts/SafeNFT.sol:SafeNFT",
        "label": "distributionTotalSupplySnapshot",
        "offset": 0,
        "slot": "57",
        "type": "t_mapping(t_uint256,t_array(t_uint256)4_storage)"
      },
      {
        "astId": 4834,
        "contract": "contracts/SafeNFT.sol:SafeNFT",
        "label": "alreadyDistributedAmount",
        "offset": 0,
        "slot": "58",
        "type": "t_mapping(t_uint256,t_mapping(t_uint256,t_mapping(t_address,t_uint256)))"
      },
      {
        "astId": 4840,
        "contract": "contracts/SafeNFT.sol:SafeNFT",
        "label": "alreadyDistributedAmountByTier",
        "offset": 0,
        "slot": "59",
        "type": "t_mapping(t_uint256,t_array(t_uint256)4_storage)"
      },
      {
        "astId": 4842,
        "contract": "contracts/SafeNFT.sol:SafeNFT",
        "label": "ambassador",
        "offset": 0,
        "slot": "60",
        "type": "t_address"
      },
      {
        "astId": 4844,
        "contract": "contracts/SafeNFT.sol:SafeNFT",
        "label": "nitroPresale",
        "offset": 20,
        "slot": "60",
        "type": "t_bool"
      },
      {
        "astId": 4846,
        "contract": "contracts/SafeNFT.sol:SafeNFT",
        "label": "nitroPresaleStartDate",
        "offset": 0,
        "slot": "61",
        "type": "t_uint256"
      },
      {
        "astId": 4848,
        "contract": "contracts/SafeNFT.sol:SafeNFT",
        "label": "nitroPresaleDuration",
        "offset": 0,
        "slot": "62",
        "type": "t_uint256"
      },
      {
        "astId": 4850,
        "contract": "contracts/SafeNFT.sol:SafeNFT",
        "label": "nitroPresaleDiscount",
        "offset": 0,
        "slot": "63",
        "type": "t_uint256"
      },
      {
        "astId": 4852,
        "contract": "contracts/SafeNFT.sol:SafeNFT",
        "label": "nitroAddress",
        "offset": 0,
        "slot": "64",
        "type": "t_address"
      },
      {
        "astId": 4856,
        "contract": "contracts/SafeNFT.sol:SafeNFT",
        "label": "soldInNitroPresale",
        "offset": 0,
        "slot": "65",
        "type": "t_mapping(t_uint256,t_uint256)"
      }
    ],
    "types": {
      "t_address": {
        "encoding": "inplace",
        "label": "address",
        "numberOfBytes": "20"
      },
      "t_array(t_address)2_storage": {
        "base": "t_address",
        "encoding": "inplace",
        "label": "address[2]",
        "numberOfBytes": "64"
      },
      "t_array(t_array(t_uint256)4_storage)4_storage": {
        "base": "t_array(t_uint256)4_storage",
        "encoding": "inplace",
        "label": "uint256[4][4]",
        "numberOfBytes": "512"
      },
      "t_array(t_bytes32)dyn_storage": {
        "base": "t_bytes32",
        "encoding": "dynamic_array",
        "label": "bytes32[]",
        "numberOfBytes": "32"
      },
      "t_array(t_uint256)2_storage": {
        "base": "t_uint256",
        "encoding": "inplace",
        "label": "uint256[2]",
        "numberOfBytes": "64"
      },
      "t_array(t_uint256)4_storage": {
        "base": "t_uint256",
        "encoding": "inplace",
        "label": "uint256[4]",
        "numberOfBytes": "128"
      },
      "t_bool": {
        "encoding": "inplace",
        "label": "bool",
        "numberOfBytes": "1"
      },
      "t_bytes32": {
        "encoding": "inplace",
        "label": "bytes32",
        "numberOfBytes": "32"
      },
      "t_contract(IERC20)2651": {
        "encoding": "inplace",
        "label": "contract IERC20",
        "numberOfBytes": "20"
      },
      "t_contract(ISafeToken)7023": {
        "encoding": "inplace",
        "label": "contract ISafeToken",
        "numberOfBytes": "20"
      },
      "t_contract(ISafeVault)7061": {
        "encoding": "inplace",
        "label": "contract ISafeVault",
        "numberOfBytes": "20"
      },
      "t_mapping(t_address,t_bool)": {
        "encoding": "mapping",
        "key": "t_address",
        "label": "mapping(address => bool)",
        "numberOfBytes": "32",
        "value": "t_bool"
      },
      "t_mapping(t_address,t_mapping(t_address,t_bool))": {
        "encoding": "mapping",
        "key": "t_address",
        "label": "mapping(address => mapping(address => bool))",
        "numberOfBytes": "32",
        "value": "t_mapping(t_address,t_bool)"
      },
      "t_mapping(t_address,t_mapping(t_uint256,t_mapping(t_uint256,t_uint256)))": {
        "encoding": "mapping",
        "key": "t_address",
        "label": "mapping(address => mapping(uint256 => mapping(uint256 => uint256)))",
        "numberOfBytes": "32",
        "value": "t_mapping(t_uint256,t_mapping(t_uint256,t_uint256))"
      },
      "t_mapping(t_address,t_uint256)": {
        "encoding": "mapping",
        "key": "t_address",
        "label": "mapping(address => uint256)",
        "numberOfBytes": "32",
        "value": "t_uint256"
      },
      "t_mapping(t_bytes32,t_struct(AddressSet)4430_storage)": {
        "encoding": "mapping",
        "key": "t_bytes32",
        "label": "mapping(bytes32 => struct EnumerableSet.AddressSet)",
        "numberOfBytes": "32",
        "value": "t_struct(AddressSet)4430_storage"
      },
      "t_mapping(t_bytes32,t_struct(RoleData)19_storage)": {
        "encoding": "mapping",
        "key": "t_bytes32",
        "label": "mapping(bytes32 => struct AccessControl.RoleData)",
        "numberOfBytes": "32",
        "value": "t_struct(RoleData)19_storage"
      },
      "t_mapping(t_bytes32,t_uint256)": {
        "encoding": "mapping",
        "key": "t_bytes32",
        "label": "mapping(bytes32 => uint256)",
        "numberOfBytes": "32",
        "value": "t_uint256"
      },
      "t_mapping(t_uint256,t_array(t_uint256)4_storage)": {
        "encoding": "mapping",
        "key": "t_uint256",
        "label": "mapping(uint256 => uint256[4])",
        "numberOfBytes": "32",
        "value": "t_array(t_uint256)4_storage"
      },
      "t_mapping(t_uint256,t_mapping(t_address,t_uint256))": {
        "encoding": "mapping",
        "key": "t_uint256",
        "label": "mapping(uint256 => mapping(address => uint256))",
        "numberOfBytes": "32",
        "value": "t_mapping(t_address,t_uint256)"
      },
      "t_mapping(t_uint256,t_mapping(t_uint256,t_mapping(t_address,t_uint256)))": {
        "encoding": "mapping",
        "key": "t_uint256",
        "label": "mapping(uint256 => mapping(uint256 => mapping(address => uint256)))",
        "numberOfBytes": "32",
        "value": "t_mapping(t_uint256,t_mapping(t_address,t_uint256))"
      },
      "t_mapping(t_uint256,t_mapping(t_uint256,t_uint256))": {
        "encoding": "mapping",
        "key": "t_uint256",
        "label": "mapping(uint256 => mapping(uint256 => uint256))",
        "numberOfBytes": "32",
        "value": "t_mapping(t_uint256,t_uint256)"
      },
      "t_mapping(t_uint256,t_uint256)": {
        "encoding": "mapping",
        "key": "t_uint256",
        "label": "mapping(uint256 => uint256)",
        "numberOfBytes": "32",
        "value": "t_uint256"
      },
      "t_string_storage": {
        "encoding": "bytes",
        "label": "string",
        "numberOfBytes": "32"
      },
      "t_struct(AddressSet)4430_storage": {
        "encoding": "inplace",
        "label": "struct EnumerableSet.AddressSet",
        "members": [
          {
            "astId": 4429,
            "contract": "contracts/SafeNFT.sol:SafeNFT",
            "label": "_inner",
            "offset": 0,
            "slot": "0",
            "type": "t_struct(Set)4115_storage"
          }
        ],
        "numberOfBytes": "64"
      },
      "t_struct(RoleData)19_storage": {
        "encoding": "inplace",
        "label": "struct AccessControl.RoleData",
        "members": [
          {
            "astId": 16,
            "contract": "contracts/SafeNFT.sol:SafeNFT",
            "label": "members",
            "offset": 0,
            "slot": "0",
            "type": "t_mapping(t_address,t_bool)"
          },
          {
            "astId": 18,
            "contract": "contracts/SafeNFT.sol:SafeNFT",
            "label": "adminRole",
            "offset": 0,
            "slot": "1",
            "type": "t_bytes32"
          }
        ],
        "numberOfBytes": "64"
      },
      "t_struct(Set)4115_storage": {
        "encoding": "inplace",
        "label": "struct EnumerableSet.Set",
        "members": [
          {
            "astId": 4110,
            "contract": "contracts/SafeNFT.sol:SafeNFT",
            "label": "_values",
            "offset": 0,
            "slot": "0",
            "type": "t_array(t_bytes32)dyn_storage"
          },
          {
            "astId": 4114,
            "contract": "contracts/SafeNFT.sol:SafeNFT",
            "label": "_indexes",
            "offset": 0,
            "slot": "1",
            "type": "t_mapping(t_bytes32,t_uint256)"
          }
        ],
        "numberOfBytes": "64"
      },
      "t_uint256": {
        "encoding": "inplace",
        "label": "uint256",
        "numberOfBytes": "32"
      }
    }
  }
}