{
  "address": "0x129f2962B3bcD3f1c5b3E836094761dcdd968122",
  "abi": [
    {
      "inputs": [
        {
          "internalType": "string",
          "name": "_uri",
          "type": "string"
        },
        {
          "internalType": "uint256[4]",
          "name": "_price",
          "type": "uint256[4]"
        },
        {
          "internalType": "uint256[4]",
          "name": "_maxSupply",
          "type": "uint256[4]"
        },
        {
          "internalType": "contract ISafeToken",
          "name": "_safeToken",
          "type": "address"
        },
        {
          "internalType": "uint256[2]",
          "name": "_priceDistributionOnMint",
          "type": "uint256[2]"
        },
        {
          "internalType": "uint256",
          "name": "_referralShareForNFTPurchase",
          "type": "uint256"
        },
        {
          "internalType": "uint256[2]",
          "name": "_profitDistribution",
          "type": "uint256[2]"
        },
        {
          "internalType": "address",
          "name": "_preVaultWallet",
          "type": "address"
        }
      ],
      "stateMutability": "nonpayable",
      "type": "constructor"
    },
    {
      "anonymous": false,
      "inputs": [
        {
          "indexed": true,
          "internalType": "address",
          "name": "account",
          "type": "address"
        },
        {
          "indexed": true,
          "internalType": "address",
          "name": "operator",
          "type": "address"
        },
        {
          "indexed": false,
          "internalType": "bool",
          "name": "approved",
          "type": "bool"
        }
      ],
      "name": "ApprovalForAll",
      "type": "event"
    },
    {
      "anonymous": false,
      "inputs": [
        {
          "indexed": false,
          "internalType": "address",
          "name": "account",
          "type": "address"
        }
      ],
      "name": "Paused",
      "type": "event"
    },
    {
      "anonymous": false,
      "inputs": [
        {
          "indexed": true,
          "internalType": "bytes32",
          "name": "role",
          "type": "bytes32"
        },
        {
          "indexed": true,
          "internalType": "bytes32",
          "name": "previousAdminRole",
          "type": "bytes32"
        },
        {
          "indexed": true,
          "internalType": "bytes32",
          "name": "newAdminRole",
          "type": "bytes32"
        }
      ],
      "name": "RoleAdminChanged",
      "type": "event"
    },
    {
      "anonymous": false,
      "inputs": [
        {
          "indexed": true,
          "internalType": "bytes32",
          "name": "role",
          "type": "bytes32"
        },
        {
          "indexed": true,
          "internalType": "address",
          "name": "account",
          "type": "address"
        },
        {
          "indexed": true,
          "internalType": "address",
          "name": "sender",
          "type": "address"
        }
      ],
      "name": "RoleGranted",
      "type": "event"
    },
    {
      "anonymous": false,
      "inputs": [
        {
          "indexed": true,
          "internalType": "bytes32",
          "name": "role",
          "type": "bytes32"
        },
        {
          "indexed": true,
          "internalType": "address",
          "name": "account",
          "type": "address"
        },
        {
          "indexed": true,
          "internalType": "address",
          "name": "sender",
          "type": "address"
        }
      ],
      "name": "RoleRevoked",
      "type": "event"
    },
    {
      "anonymous": false,
      "inputs": [
        {
          "indexed": false,
          "internalType": "bool",
          "name": "_status",
          "type": "bool"
        }
      ],
      "name": "TogglePresale",
      "type": "event"
    },
    {
      "anonymous": false,
      "inputs": [
        {
          "indexed": true,
          "internalType": "address",
          "name": "operator",
          "type": "address"
        },
        {
          "indexed": true,
          "internalType": "address",
          "name": "from",
          "type": "address"
        },
        {
          "indexed": true,
          "internalType": "address",
          "name": "to",
          "type": "address"
        },
        {
          "indexed": false,
          "internalType": "uint256[]",
          "name": "ids",
          "type": "uint256[]"
        },
        {
          "indexed": false,
          "internalType": "uint256[]",
          "name": "values",
          "type": "uint256[]"
        }
      ],
      "name": "TransferBatch",
      "type": "event"
    },
    {
      "anonymous": false,
      "inputs": [
        {
          "indexed": true,
          "internalType": "address",
          "name": "operator",
          "type": "address"
        },
        {
          "indexed": true,
          "internalType": "address",
          "name": "from",
          "type": "address"
        },
        {
          "indexed": true,
          "internalType": "address",
          "name": "to",
          "type": "address"
        },
        {
          "indexed": false,
          "internalType": "uint256",
          "name": "id",
          "type": "uint256"
        },
        {
          "indexed": false,
          "internalType": "uint256",
          "name": "value",
          "type": "uint256"
        }
      ],
      "name": "TransferSingle",
      "type": "event"
    },
    {
      "anonymous": false,
      "inputs": [
        {
          "indexed": false,
          "internalType": "string",
          "name": "value",
          "type": "string"
        },
        {
          "indexed": true,
          "internalType": "uint256",
          "name": "id",
          "type": "uint256"
        }
      ],
      "name": "URI",
      "type": "event"
    },
    {
      "anonymous": false,
      "inputs": [
        {
          "indexed": false,
          "internalType": "address",
          "name": "account",
          "type": "address"
        }
      ],
      "name": "Unpaused",
      "type": "event"
    },
    {
      "inputs": [],
      "name": "DEFAULT_ADMIN_ROLE",
      "outputs": [
        {
          "internalType": "bytes32",
          "name": "",
          "type": "bytes32"
        }
      ],
      "stateMutability": "view",
      "type": "function"
    },
    {
      "inputs": [],
      "name": "HUNDRED_PERCENT",
      "outputs": [
        {
          "internalType": "uint256",
          "name": "",
          "type": "uint256"
        }
      ],
      "stateMutability": "view",
      "type": "function"
    },
    {
      "inputs": [],
      "name": "MINTER_ROLE",
      "outputs": [
        {
          "internalType": "bytes32",
          "name": "",
          "type": "bytes32"
        }
      ],
      "stateMutability": "view",
      "type": "function"
    },
    {
      "inputs": [],
      "name": "PAUSER_ROLE",
      "outputs": [
        {
          "internalType": "bytes32",
          "name": "",
          "type": "bytes32"
        }
      ],
      "stateMutability": "view",
      "type": "function"
    },
    {
      "inputs": [],
      "name": "TIERS",
      "outputs": [
        {
          "internalType": "uint256",
          "name": "",
          "type": "uint256"
        }
      ],
      "stateMutability": "view",
      "type": "function"
    },
    {
      "inputs": [],
      "name": "WALLETS",
      "outputs": [
        {
          "internalType": "uint256",
          "name": "",
          "type": "uint256"
        }
      ],
      "stateMutability": "view",
      "type": "function"
    },
    {
      "inputs": [],
      "name": "WEEKS",
      "outputs": [
        {
          "internalType": "uint256",
          "name": "",
          "type": "uint256"
        }
      ],
      "stateMutability": "view",
      "type": "function"
    },
    {
      "inputs": [
        {
          "internalType": "uint256",
          "name": "",
          "type": "uint256"
        },
        {
          "internalType": "uint256",
          "name": "",
          "type": "uint256"
        },
        {
          "internalType": "address",
          "name": "",
          "type": "address"
        }
      ],
      "name": "alreadyDistributedAmount",
      "outputs": [
        {
          "internalType": "uint256",
          "name": "",
          "type": "uint256"
        }
      ],
      "stateMutability": "view",
      "type": "function"
    },
    {
      "inputs": [
        {
          "internalType": "uint256",
          "name": "",
          "type": "uint256"
        },
        {
          "internalType": "uint256",
          "name": "",
          "type": "uint256"
        }
      ],
      "name": "alreadyDistributedAmountByTier",
      "outputs": [
        {
          "internalType": "uint256",
          "name": "",
          "type": "uint256"
        }
      ],
      "stateMutability": "view",
      "type": "function"
    },
    {
      "inputs": [
        {
          "internalType": "address",
          "name": "account",
          "type": "address"
        },
        {
          "internalType": "uint256",
          "name": "id",
          "type": "uint256"
        }
      ],
      "name": "balanceOf",
      "outputs": [
        {
          "internalType": "uint256",
          "name": "",
          "type": "uint256"
        }
      ],
      "stateMutability": "view",
      "type": "function"
    },
    {
      "inputs": [
        {
          "internalType": "address[]",
          "name": "accounts",
          "type": "address[]"
        },
        {
          "internalType": "uint256[]",
          "name": "ids",
          "type": "uint256[]"
        }
      ],
      "name": "balanceOfBatch",
      "outputs": [
        {
          "internalType": "uint256[]",
          "name": "",
          "type": "uint256[]"
        }
      ],
      "stateMutability": "view",
      "type": "function"
    },
    {
      "inputs": [
        {
          "internalType": "address",
          "name": "account",
          "type": "address"
        },
        {
          "internalType": "uint256",
          "name": "id",
          "type": "uint256"
        },
        {
          "internalType": "uint256",
          "name": "value",
          "type": "uint256"
        }
      ],
      "name": "burn",
      "outputs": [],
      "stateMutability": "nonpayable",
      "type": "function"
    },
    {
      "inputs": [
        {
          "internalType": "address",
          "name": "account",
          "type": "address"
        },
        {
          "internalType": "uint256[]",
          "name": "ids",
          "type": "uint256[]"
        },
        {
          "internalType": "uint256[]",
          "name": "values",
          "type": "uint256[]"
        }
      ],
      "name": "burnBatch",
      "outputs": [],
      "stateMutability": "nonpayable",
      "type": "function"
    },
    {
      "inputs": [
        {
          "internalType": "enum ISafeNFT.Tiers",
          "name": "_tier",
          "type": "uint8"
        },
        {
          "internalType": "uint256",
          "name": "_amount",
          "type": "uint256"
        },
        {
          "internalType": "address",
          "name": "_referral",
          "type": "address"
        }
      ],
      "name": "buy",
      "outputs": [],
      "stateMutability": "nonpayable",
      "type": "function"
    },
    {
      "inputs": [
        {
          "internalType": "enum ISafeNFT.Tiers",
          "name": "_tier",
          "type": "uint8"
        },
        {
          "internalType": "uint256",
          "name": "_distributionId",
          "type": "uint256"
        }
      ],
      "name": "claimReward",
      "outputs": [],
      "stateMutability": "nonpayable",
      "type": "function"
    },
    {
      "inputs": [],
      "name": "claimRewardsTotal",
      "outputs": [],
      "stateMutability": "nonpayable",
      "type": "function"
    },
    {
      "inputs": [],
      "name": "currentDistributionId",
      "outputs": [
        {
          "internalType": "uint256",
          "name": "",
          "type": "uint256"
        }
      ],
      "stateMutability": "view",
      "type": "function"
    },
    {
      "inputs": [
        {
          "internalType": "uint256",
          "name": "",
          "type": "uint256"
        }
      ],
      "name": "currentlySoldInPresale",
      "outputs": [
        {
          "internalType": "uint256",
          "name": "",
          "type": "uint256"
        }
      ],
      "stateMutability": "view",
      "type": "function"
    },
    {
      "inputs": [
        {
          "internalType": "uint256",
          "name": "_amountUSD",
          "type": "uint256"
        }
      ],
      "name": "distributeProfit",
      "outputs": [],
      "stateMutability": "nonpayable",
      "type": "function"
    },
    {
      "inputs": [
        {
          "internalType": "uint256",
          "name": "",
          "type": "uint256"
        },
        {
          "internalType": "uint256",
          "name": "",
          "type": "uint256"
        }
      ],
      "name": "distributionByTier",
      "outputs": [
        {
          "internalType": "uint256",
          "name": "",
          "type": "uint256"
        }
      ],
      "stateMutability": "view",
      "type": "function"
    },
    {
      "inputs": [
        {
          "internalType": "uint256",
          "name": "",
          "type": "uint256"
        }
      ],
      "name": "distributionOfProfit",
      "outputs": [
        {
          "internalType": "uint256",
          "name": "",
          "type": "uint256"
        }
      ],
      "stateMutability": "view",
      "type": "function"
    },
    {
      "inputs": [
        {
          "internalType": "uint256",
          "name": "",
          "type": "uint256"
        },
        {
          "internalType": "uint256",
          "name": "",
          "type": "uint256"
        }
      ],
      "name": "distributionTotalSupplySnapshot",
      "outputs": [
        {
          "internalType": "uint256",
          "name": "",
          "type": "uint256"
        }
      ],
      "stateMutability": "view",
      "type": "function"
    },
    {
      "inputs": [
        {
          "internalType": "uint256",
          "name": "id",
          "type": "uint256"
        }
      ],
      "name": "exists",
      "outputs": [
        {
          "internalType": "bool",
          "name": "",
          "type": "bool"
        }
      ],
      "stateMutability": "view",
      "type": "function"
    },
    {
      "inputs": [
        {
          "internalType": "address",
          "name": "_user",
          "type": "address"
        }
      ],
      "name": "getBalanceTable",
      "outputs": [
        {
          "internalType": "uint256[]",
          "name": "",
          "type": "uint256[]"
        }
      ],
      "stateMutability": "view",
      "type": "function"
    },
    {
      "inputs": [],
      "name": "getCurrentPresaleWeek",
      "outputs": [
        {
          "internalType": "uint256",
          "name": "",
          "type": "uint256"
        }
      ],
      "stateMutability": "view",
      "type": "function"
    },
    {
      "inputs": [],
      "name": "getDiscountedPriceTable",
      "outputs": [
        {
          "internalType": "uint256[]",
          "name": "",
          "type": "uint256[]"
        }
      ],
      "stateMutability": "view",
      "type": "function"
    },
    {
      "inputs": [
        {
          "internalType": "enum ISafeNFT.Tiers",
          "name": "_tier",
          "type": "uint8"
        }
      ],
      "name": "getFairPrice",
      "outputs": [
        {
          "internalType": "uint256",
          "name": "",
          "type": "uint256"
        }
      ],
      "stateMutability": "view",
      "type": "function"
    },
    {
      "inputs": [],
      "name": "getFairPriceTable",
      "outputs": [
        {
          "internalType": "uint256[]",
          "name": "",
          "type": "uint256[]"
        }
      ],
      "stateMutability": "view",
      "type": "function"
    },
    {
      "inputs": [],
      "name": "getMyBalanceTable",
      "outputs": [
        {
          "internalType": "uint256[]",
          "name": "",
          "type": "uint256[]"
        }
      ],
      "stateMutability": "view",
      "type": "function"
    },
    {
      "inputs": [],
      "name": "getMyPendingRewardsTotal",
      "outputs": [
        {
          "internalType": "uint256",
          "name": "",
          "type": "uint256"
        }
      ],
      "stateMutability": "view",
      "type": "function"
    },
    {
      "inputs": [],
      "name": "getMyShareOfTreasury",
      "outputs": [
        {
          "internalType": "uint256",
          "name": "",
          "type": "uint256"
        }
      ],
      "stateMutability": "view",
      "type": "function"
    },
    {
      "inputs": [
        {
          "internalType": "address",
          "name": "_user",
          "type": "address"
        },
        {
          "internalType": "enum ISafeNFT.Tiers",
          "name": "_tier",
          "type": "uint8"
        },
        {
          "internalType": "uint256",
          "name": "_distributionId",
          "type": "uint256"
        }
      ],
      "name": "getPendingRewards",
      "outputs": [
        {
          "internalType": "uint256",
          "name": "",
          "type": "uint256"
        }
      ],
      "stateMutability": "view",
      "type": "function"
    },
    {
      "inputs": [],
      "name": "getPresaleNFTAvailable",
      "outputs": [
        {
          "internalType": "uint256[]",
          "name": "",
          "type": "uint256[]"
        }
      ],
      "stateMutability": "view",
      "type": "function"
    },
    {
      "inputs": [
        {
          "internalType": "enum ISafeNFT.Tiers",
          "name": "_tier",
          "type": "uint8"
        }
      ],
      "name": "getPrice",
      "outputs": [
        {
          "internalType": "uint256",
          "name": "",
          "type": "uint256"
        }
      ],
      "stateMutability": "view",
      "type": "function"
    },
    {
      "inputs": [],
      "name": "getPriceTable",
      "outputs": [
        {
          "internalType": "uint256[]",
          "name": "",
          "type": "uint256[]"
        }
      ],
      "stateMutability": "view",
      "type": "function"
    },
    {
      "inputs": [
        {
          "internalType": "bytes32",
          "name": "role",
          "type": "bytes32"
        }
      ],
      "name": "getRoleAdmin",
      "outputs": [
        {
          "internalType": "bytes32",
          "name": "",
          "type": "bytes32"
        }
      ],
      "stateMutability": "view",
      "type": "function"
    },
    {
      "inputs": [
        {
          "internalType": "bytes32",
          "name": "role",
          "type": "bytes32"
        },
        {
          "internalType": "uint256",
          "name": "index",
          "type": "uint256"
        }
      ],
      "name": "getRoleMember",
      "outputs": [
        {
          "internalType": "address",
          "name": "",
          "type": "address"
        }
      ],
      "stateMutability": "view",
      "type": "function"
    },
    {
      "inputs": [
        {
          "internalType": "bytes32",
          "name": "role",
          "type": "bytes32"
        }
      ],
      "name": "getRoleMemberCount",
      "outputs": [
        {
          "internalType": "uint256",
          "name": "",
          "type": "uint256"
        }
      ],
      "stateMutability": "view",
      "type": "function"
    },
    {
      "inputs": [],
      "name": "getTotalSupplyAllTiers",
      "outputs": [
        {
          "internalType": "uint256",
          "name": "",
          "type": "uint256"
        }
      ],
      "stateMutability": "view",
      "type": "function"
    },
    {
      "inputs": [],
      "name": "getTreasuryCost",
      "outputs": [
        {
          "internalType": "uint256",
          "name": "",
          "type": "uint256"
        }
      ],
      "stateMutability": "view",
      "type": "function"
    },
    {
      "inputs": [],
      "name": "getUnclaimedRewards",
      "outputs": [
        {
          "internalType": "uint256",
          "name": "",
          "type": "uint256"
        }
      ],
      "stateMutability": "view",
      "type": "function"
    },
    {
      "inputs": [
        {
          "internalType": "bytes32",
          "name": "role",
          "type": "bytes32"
        },
        {
          "internalType": "address",
          "name": "account",
          "type": "address"
        }
      ],
      "name": "grantRole",
      "outputs": [],
      "stateMutability": "nonpayable",
      "type": "function"
    },
    {
      "inputs": [
        {
          "internalType": "bytes32",
          "name": "role",
          "type": "bytes32"
        },
        {
          "internalType": "address",
          "name": "account",
          "type": "address"
        }
      ],
      "name": "hasRole",
      "outputs": [
        {
          "internalType": "bool",
          "name": "",
          "type": "bool"
        }
      ],
      "stateMutability": "view",
      "type": "function"
    },
    {
      "inputs": [
        {
          "internalType": "string",
          "name": "_uri",
          "type": "string"
        },
        {
          "internalType": "uint256[4]",
          "name": "_price",
          "type": "uint256[4]"
        },
        {
          "internalType": "uint256[4]",
          "name": "_maxSupply",
          "type": "uint256[4]"
        },
        {
          "internalType": "contract ISafeToken",
          "name": "_safeToken",
          "type": "address"
        },
        {
          "internalType": "uint256[2]",
          "name": "_priceDistributionOnMint",
          "type": "uint256[2]"
        },
        {
          "internalType": "uint256",
          "name": "_referralShareForNFTPurchase",
          "type": "uint256"
        },
        {
          "internalType": "uint256[2]",
          "name": "_profitDistribution",
          "type": "uint256[2]"
        },
        {
          "internalType": "address",
          "name": "_preVaultWallet",
          "type": "address"
        }
      ],
      "name": "initialize",
      "outputs": [],
      "stateMutability": "nonpayable",
      "type": "function"
    },
    {
      "inputs": [
        {
          "internalType": "address",
          "name": "account",
          "type": "address"
        },
        {
          "internalType": "address",
          "name": "operator",
          "type": "address"
        }
      ],
      "name": "isApprovedForAll",
      "outputs": [
        {
          "internalType": "bool",
          "name": "",
          "type": "bool"
        }
      ],
      "stateMutability": "view",
      "type": "function"
    },
    {
      "inputs": [
        {
          "internalType": "uint256",
          "name": "",
          "type": "uint256"
        }
      ],
      "name": "maxSupply",
      "outputs": [
        {
          "internalType": "uint256",
          "name": "",
          "type": "uint256"
        }
      ],
      "stateMutability": "view",
      "type": "function"
    },
    {
      "inputs": [
        {
          "internalType": "address",
          "name": "to",
          "type": "address"
        },
        {
          "internalType": "uint256",
          "name": "id",
          "type": "uint256"
        },
        {
          "internalType": "uint256",
          "name": "amount",
          "type": "uint256"
        },
        {
          "internalType": "bytes",
          "name": "data",
          "type": "bytes"
        }
      ],
      "name": "mint",
      "outputs": [],
      "stateMutability": "nonpayable",
      "type": "function"
    },
    {
      "inputs": [
        {
          "internalType": "address",
          "name": "to",
          "type": "address"
        },
        {
          "internalType": "uint256[]",
          "name": "ids",
          "type": "uint256[]"
        },
        {
          "internalType": "uint256[]",
          "name": "amounts",
          "type": "uint256[]"
        },
        {
          "internalType": "bytes",
          "name": "data",
          "type": "bytes"
        }
      ],
      "name": "mintBatch",
      "outputs": [],
      "stateMutability": "nonpayable",
      "type": "function"
    },
    {
      "inputs": [],
      "name": "name",
      "outputs": [
        {
          "internalType": "string",
          "name": "",
          "type": "string"
        }
      ],
      "stateMutability": "view",
      "type": "function"
    },
    {
      "inputs": [],
      "name": "pause",
      "outputs": [],
      "stateMutability": "nonpayable",
      "type": "function"
    },
    {
      "inputs": [],
      "name": "paused",
      "outputs": [
        {
          "internalType": "bool",
          "name": "",
          "type": "bool"
        }
      ],
      "stateMutability": "view",
      "type": "function"
    },
    {
      "inputs": [],
      "name": "preVaultWallet",
      "outputs": [
        {
          "internalType": "address",
          "name": "",
          "type": "address"
        }
      ],
      "stateMutability": "view",
      "type": "function"
    },
    {
      "inputs": [],
      "name": "presale",
      "outputs": [
        {
          "internalType": "bool",
          "name": "",
          "type": "bool"
        }
      ],
      "stateMutability": "view",
      "type": "function"
    },
    {
      "inputs": [
        {
          "internalType": "uint256",
          "name": "",
          "type": "uint256"
        }
      ],
      "name": "presaleMaxSupply",
      "outputs": [
        {
          "internalType": "uint256",
          "name": "",
          "type": "uint256"
        }
      ],
      "stateMutability": "view",
      "type": "function"
    },
    {
      "inputs": [
        {
          "internalType": "uint256",
          "name": "",
          "type": "uint256"
        },
        {
          "internalType": "uint256",
          "name": "",
          "type": "uint256"
        }
      ],
      "name": "presalePrice",
      "outputs": [
        {
          "internalType": "uint256",
          "name": "",
          "type": "uint256"
        }
      ],
      "stateMutability": "view",
      "type": "function"
    },
    {
      "inputs": [],
      "name": "presaleStartDate",
      "outputs": [
        {
          "internalType": "uint256",
          "name": "",
          "type": "uint256"
        }
      ],
      "stateMutability": "view",
      "type": "function"
    },
    {
      "inputs": [
        {
          "internalType": "uint256",
          "name": "",
          "type": "uint256"
        }
      ],
      "name": "price",
      "outputs": [
        {
          "internalType": "uint256",
          "name": "",
          "type": "uint256"
        }
      ],
      "stateMutability": "view",
      "type": "function"
    },
    {
      "inputs": [
        {
          "internalType": "uint256",
          "name": "",
          "type": "uint256"
        }
      ],
      "name": "priceDistributionOnMint",
      "outputs": [
        {
          "internalType": "uint256",
          "name": "",
          "type": "uint256"
        }
      ],
      "stateMutability": "view",
      "type": "function"
    },
    {
      "inputs": [
        {
          "internalType": "uint256",
          "name": "",
          "type": "uint256"
        }
      ],
      "name": "profitDistribution",
      "outputs": [
        {
          "internalType": "uint256",
          "name": "",
          "type": "uint256"
        }
      ],
      "stateMutability": "view",
      "type": "function"
    },
    {
      "inputs": [],
      "name": "referralShareForNFTPurchase",
      "outputs": [
        {
          "internalType": "uint256",
          "name": "",
          "type": "uint256"
        }
      ],
      "stateMutability": "view",
      "type": "function"
    },
    {
      "inputs": [
        {
          "internalType": "bytes32",
          "name": "role",
          "type": "bytes32"
        },
        {
          "internalType": "address",
          "name": "account",
          "type": "address"
        }
      ],
      "name": "renounceRole",
      "outputs": [],
      "stateMutability": "nonpayable",
      "type": "function"
    },
    {
      "inputs": [
        {
          "internalType": "bytes32",
          "name": "role",
          "type": "bytes32"
        },
        {
          "internalType": "address",
          "name": "account",
          "type": "address"
        }
      ],
      "name": "revokeRole",
      "outputs": [],
      "stateMutability": "nonpayable",
      "type": "function"
    },
    {
      "inputs": [
        {
          "internalType": "address",
          "name": "from",
          "type": "address"
        },
        {
          "internalType": "address",
          "name": "to",
          "type": "address"
        },
        {
          "internalType": "uint256[]",
          "name": "ids",
          "type": "uint256[]"
        },
        {
          "internalType": "uint256[]",
          "name": "amounts",
          "type": "uint256[]"
        },
        {
          "internalType": "bytes",
          "name": "data",
          "type": "bytes"
        }
      ],
      "name": "safeBatchTransferFrom",
      "outputs": [],
      "stateMutability": "nonpayable",
      "type": "function"
    },
    {
      "inputs": [],
      "name": "safeToken",
      "outputs": [
        {
          "internalType": "contract ISafeToken",
          "name": "",
          "type": "address"
        }
      ],
      "stateMutability": "view",
      "type": "function"
    },
    {
      "inputs": [
        {
          "internalType": "address",
          "name": "from",
          "type": "address"
        },
        {
          "internalType": "address",
          "name": "to",
          "type": "address"
        },
        {
          "internalType": "uint256",
          "name": "id",
          "type": "uint256"
        },
        {
          "internalType": "uint256",
          "name": "amount",
          "type": "uint256"
        },
        {
          "internalType": "bytes",
          "name": "data",
          "type": "bytes"
        }
      ],
      "name": "safeTransferFrom",
      "outputs": [],
      "stateMutability": "nonpayable",
      "type": "function"
    },
    {
      "inputs": [],
      "name": "safeVault",
      "outputs": [
        {
          "internalType": "contract ISafeVault",
          "name": "",
          "type": "address"
        }
      ],
      "stateMutability": "view",
      "type": "function"
    },
    {
      "inputs": [
        {
          "internalType": "address",
          "name": "operator",
          "type": "address"
        },
        {
          "internalType": "bool",
          "name": "approved",
          "type": "bool"
        }
      ],
      "name": "setApprovalForAll",
      "outputs": [],
      "stateMutability": "nonpayable",
      "type": "function"
    },
    {
      "inputs": [
        {
          "internalType": "uint256[][]",
          "name": "_presalePrice",
          "type": "uint256[][]"
        }
      ],
      "name": "setDiscountedPriceTable",
      "outputs": [],
      "stateMutability": "nonpayable",
      "type": "function"
    },
    {
      "inputs": [
        {
          "internalType": "uint256[4]",
          "name": "_presaleMaxSupply",
          "type": "uint256[4]"
        }
      ],
      "name": "setPresaleMaxSupply",
      "outputs": [],
      "stateMutability": "nonpayable",
      "type": "function"
    },
    {
      "inputs": [
        {
          "internalType": "uint256",
          "name": "_launchDate",
          "type": "uint256"
        },
        {
          "internalType": "uint256",
          "name": "_weekDuration",
          "type": "uint256"
        }
      ],
      "name": "setPresaleStartDate",
      "outputs": [],
      "stateMutability": "nonpayable",
      "type": "function"
    },
    {
      "inputs": [
        {
          "internalType": "address",
          "name": "",
          "type": "address"
        },
        {
          "internalType": "uint256",
          "name": "",
          "type": "uint256"
        },
        {
          "internalType": "uint256",
          "name": "",
          "type": "uint256"
        }
      ],
      "name": "soldPerPresaleWeek",
      "outputs": [
        {
          "internalType": "uint256",
          "name": "",
          "type": "uint256"
        }
      ],
      "stateMutability": "view",
      "type": "function"
    },
    {
      "inputs": [
        {
          "internalType": "bytes4",
          "name": "interfaceId",
          "type": "bytes4"
        }
      ],
      "name": "supportsInterface",
      "outputs": [
        {
          "internalType": "bool",
          "name": "",
          "type": "bool"
        }
      ],
      "stateMutability": "view",
      "type": "function"
    },
    {
      "inputs": [],
      "name": "togglePresale",
      "outputs": [],
      "stateMutability": "nonpayable",
      "type": "function"
    },
    {
      "inputs": [
        {
          "internalType": "uint256",
          "name": "id",
          "type": "uint256"
        }
      ],
      "name": "totalSupply",
      "outputs": [
        {
          "internalType": "uint256",
          "name": "",
          "type": "uint256"
        }
      ],
      "stateMutability": "view",
      "type": "function"
    },
    {
      "inputs": [],
      "name": "unpause",
      "outputs": [],
      "stateMutability": "nonpayable",
      "type": "function"
    },
    {
      "inputs": [
        {
          "internalType": "uint256",
          "name": "",
          "type": "uint256"
        }
      ],
      "name": "uri",
      "outputs": [
        {
          "internalType": "string",
          "name": "",
          "type": "string"
        }
      ],
      "stateMutability": "view",
      "type": "function"
    },
    {
      "inputs": [],
      "name": "usd",
      "outputs": [
        {
          "internalType": "contract IERC20",
          "name": "",
          "type": "address"
        }
      ],
      "stateMutability": "view",
      "type": "function"
    },
    {
      "inputs": [
        {
          "internalType": "uint256",
          "name": "",
          "type": "uint256"
        }
      ],
      "name": "wallets",
      "outputs": [
        {
          "internalType": "address",
          "name": "",
          "type": "address"
        }
      ],
      "stateMutability": "view",
      "type": "function"
    },
    {
      "inputs": [],
      "name": "weekDuration",
      "outputs": [
        {
          "internalType": "uint256",
          "name": "",
          "type": "uint256"
        }
      ],
      "stateMutability": "view",
      "type": "function"
    }
  ],
  "transactionHash": "0x116ed3716a4b3c95c112e97d351b834a1cad42ba33adde2f22067bd86cdccdcd",
  "args": [
    "",
    [
      "131250000",
      "262500000",
      "525000000",
      "1050000000"
    ],
    [
      2000,
      1000,
      1000,
      1000
    ],
    "0x519EfB2bEFBd3f00D335dc9DF42BF721D591604f",
    [
      50000000,
      40000000
    ],
    5000000,
    [
      25000000,
      20000000
    ],
    "0xe97BDb5600d711C38854d603a4748f98063314AB"
  ],
  "numDeployments": 5,
  "solcInputHash": "b10a890c931bf56539dcf6a39fa2e104",
  "bytecode": "0x60806040523480156200001157600080fd5b5060405162006690380380620066908339810160408190526200003491620008ab565b87806200004181620000b5565b506007805460ff1916905562000059600033620000c7565b620000746000805160206200667083398151915233620000c7565b6200008f6000805160206200665083398151915233620000c7565b506001600955620000a78888888888888888620000d3565b505050505050505062000bf0565b6006620000c3828262000a72565b5050565b620000c382826200050a565b6000620000ed600080516020620066308339815191525490565b90506001600160a01b0381166200011d576001600160a01b03600080516020620066308339815191525562000133565b336001600160a01b038216146200013357600080fd5b6200013e89620000b5565b6200014b600033620000c7565b620001666000805160206200667083398151915233620000c7565b620001816000805160206200665083398151915233620000c7565b62000190600a8960046200066d565b50620001a0601e8860046200066d565b50602e80546001600160a01b0319166001600160a01b038816179055620001cb6031866002620006b0565b506035849055620001e06033846002620006b0565b50603680546001600160a01b0319166001600160a01b0384811691909117909155602e546040805163db7a460560e01b815281516200027394939093169263db7a4605926004808401939192918290030181865afa15801562000247573d6000803e3d6000fd5b505050506040513d601f19601f820116820180604052508101906200026d919062000b3e565b6200054d565b602e60009054906101000a90046001600160a01b03166001600160a01b031663deef94de6040518163ffffffff1660e01b8152600401602060405180830381865afa158015620002c7573d6000803e3d6000fd5b505050506040513d601f19601f82011682018060405250810190620002ed919062000ba5565b602f80546001600160a01b0319166001600160a01b03928316179055602e546040805163d63a6ccd60e01b81529051919092169163d63a6ccd9160048083019260209291908290030181865afa1580156200034c573d6000803e3d6000fd5b505050506040513d601f19601f8201168201806040525081019062000372919062000ba5565b603080546001600160a01b0319166001600160a01b03928316908117909155602e5460405163095ea7b360e01b81529216600483015260001960248301529063095ea7b3906044016020604051808303816000875af1158015620003da573d6000803e3d6000fd5b505050506040513d601f19601f8201168201806040525081019062000400919062000bcc565b50603054602f5460405163095ea7b360e01b81526001600160a01b039182166004820152600019602482015291169063095ea7b3906044016020604051808303816000875af115801562000458573d6000803e3d6000fd5b505050506040513d601f19601f820116820180604052508101906200047e919062000bcc565b50602e5460405163095ea7b360e01b81526001600160a01b039091166004820181905260001960248301529063095ea7b3906044016020604051808303816000875af1158015620004d3573d6000803e3d6000fd5b505050506040513d601f19601f82011682018060405250810190620004f9919062000bcc565b505060006037555050505050505050565b6200052182826200055b60201b62002ef51760201c565b60008281526001602090815260409091206200054891839062002f79620005fb821b17901c565b505050565b620000c360028281620006e0565b6000828152602081815260408083206001600160a01b038516845290915290205460ff16620000c3576000828152602081815260408083206001600160a01b03851684529091529020805460ff19166001179055620005b73390565b6001600160a01b0316816001600160a01b0316837f2f8788117e7eff1d82e926ec794901d17c78024a50270940304540a733656f0d60405160405180910390a45050565b600062000612836001600160a01b0384166200061b565b90505b92915050565b6000818152600183016020526040812054620006645750815460018181018455600084815260208082209093018490558454848252828601909352604090209190915562000615565b50600062000615565b82600481019282156200069e579160200282015b828111156200069e57825182559160200191906001019062000681565b50620006ac9291506200072b565b5090565b82600281019282156200069e57916020028201828111156200069e57825182559160200191906001019062000681565b82600281019282156200069e579160200282015b828111156200069e57825182546001600160a01b0319166001600160a01b03909116178255602090920191600190910190620006f4565b5b80821115620006ac57600081556001016200072c565b634e487b7160e01b600052604160045260246000fd5b604080519081016001600160401b03811182821017156200077d576200077d62000742565b60405290565b604051601f8201601f191681016001600160401b0381118282101715620007ae57620007ae62000742565b604052919050565b600082601f830112620007c857600080fd5b604051608081016001600160401b0381118282101715620007ed57620007ed62000742565b6040528060808401858111156200080357600080fd5b845b818110156200081f57805183526020928301920162000805565b509195945050505050565b6001600160a01b03811681146200084057600080fd5b50565b805162000850816200082a565b919050565b600082601f8301126200086757600080fd5b6200087162000758565b8060408401858111156200088457600080fd5b845b81811015620008a057805184526020938401930162000886565b509095945050505050565b600080600080600080600080610200898b031215620008c957600080fd5b88516001600160401b0380821115620008e157600080fd5b818b0191508b601f830112620008f657600080fd5b8151818111156200090b576200090b62000742565b6020915062000923601f8201601f1916830162000783565b8181528d838386010111156200093857600080fd5b60005b82811015620009585784810184015182820185015283016200093b565b506000838383010152809b505050620009748c828d01620007b6565b98505050620009878a60a08b01620007b6565b9550620009986101208a0162000843565b9450620009aa8a6101408b0162000855565b93506101808901519250620009c48a6101a08b0162000855565b9150620009d56101e08a0162000843565b90509295985092959890939650565b600181811c90821680620009f957607f821691505b60208210810362000a1a57634e487b7160e01b600052602260045260246000fd5b50919050565b601f8211156200054857600081815260208120601f850160051c8101602086101562000a495750805b601f850160051c820191505b8181101562000a6a5782815560010162000a55565b505050505050565b81516001600160401b0381111562000a8e5762000a8e62000742565b62000aa68162000a9f8454620009e4565b8462000a20565b602080601f83116001811462000ade576000841562000ac55750858301515b600019600386901b1c1916600185901b17855562000a6a565b600085815260208120601f198616915b8281101562000b0f5788860151825594840194600190910190840162000aee565b508582101562000b2e5787850151600019600388901b60f8161c191681555b5050505050600190811b01905550565b60006040828403121562000b5157600080fd5b82601f83011262000b6157600080fd5b62000b6b62000758565b80604084018581111562000b7e57600080fd5b845b81811015620008a057805162000b96816200082a565b84526020938401930162000b80565b60006020828403121562000bb857600080fd5b815162000bc5816200082a565b9392505050565b60006020828403121562000bdf57600080fd5b8151801515811462000bc557600080fd5b615a308062000c006000396000f3fe608060405234801561001057600080fd5b50600436106104735760003560e01c80636b20c45411610257578063ca7b244711610146578063e0adca1b116100c3578063f242432a11610087578063f242432a14610a1d578063f3430a1614610a30578063f5298aca14610a43578063fd18a25314610a56578063fdea8e0b14610a6957600080fd5b8063e0adca1b1461098c578063e63ab1e91461099f578063e985e9c5146109c6578063f03f1e5114610a02578063f0b2df8914610a0a57600080fd5b8063d53913931161010a578063d539139314610919578063d547741f14610940578063d63a6ccd14610953578063deef94de14610966578063df71da761461097957600080fd5b8063ca7b2447146108a7578063ced79ce0146108ba578063d0d5a1ba146108eb578063d36122b8146108fe578063d36dfac81461090657600080fd5b80638456cb59116101d4578063a1f5c23911610198578063a1f5c23914610851578063a217fddf14610859578063a22cb46514610861578063bd85b03914610874578063ca15c8731461089457600080fd5b80638456cb5914610808578063869f7594146108105780638d3bd55b146108235780639010d07c1461082b57806391d148541461083e57600080fd5b8063780069e01161021b578063780069e0146107aa5780637ad71f72146107b35780637dfe5914146107c65780637e93391a146107f757806380a3a783146107ff57600080fd5b80636b20c454146107715780636d6689ea146107845780636e748f97146107845780636ed93dd01461078c578063731133e91461079757600080fd5b80632e2a31d4116103735780634e1273f4116102f0578063592fa65e116102b4578063592fa65e1461071a5780635c975abb1461072d5780635e95b4fe1461073857806365011c101461074b5780636ac600681461075e57600080fd5b80634e1273f4146106b75780634f558e79146106ca57806351ba5b44146106ec57806352a1ad54146106f457806353f7ffd21461070757600080fd5b806337f1e7f21161033757806337f1e7f21461064b5780633f4ba83a1461065e578063418f7c51146106665780634407a61e146106795780634b3fd05a1461068c57600080fd5b80632e2a31d4146106025780632eb2c2d61461060a5780632f2ff15d1461061d578063343937431461063057806336568abe1461063857600080fd5b8063104304f3116104015780631f7fdffa116103c55780631f7fdffa1461059c57806323f77fa9146105b1578063248a9ca3146105c457806326a49e37146105e75780632c13f08c146105fa57600080fd5b8063104304f31461054f5780631623025714610564578063168affdf1461056c5780631729c14f1461058c5780631a5e85e51461059457600080fd5b806304a3adf71161044857806304a3adf7146104dd57806304ca4c07146104e657806305adca38146104f957806306fdde03146105015780630e89341c1461053c57600080fd5b8062a13c4c14610478578062fdd58e1461049457806301ffc9a7146104a757806303b2add0146104ca575b600080fd5b61048160355481565b6040519081526020015b60405180910390f35b6104816104a23660046147f9565b610a76565b6104ba6104b536600461483b565b610b11565b604051901515815260200161048b565b6104816104d8366004614858565b610b1c565b61048160235481565b6104816104f4366004614871565b610b33565b610481610b58565b61052f6040518060400160405280600f81526020016e14d8599948165a595b191cc8139195608a1b81525081565b60405161048b91906148e3565b61052f61054a366004614858565b610bb0565b610557610c44565b60405161048b9190614931565b610481610cc1565b61048161057a366004614858565b60386020526000908152604090205481565b610557610d58565b610481610e16565b6105af6105aa366004614ab1565b610e51565b005b6105576105bf366004614b4b565b610ea9565b6104816105d2366004614858565b60009081526020819052604090206001015490565b6104816105f5366004614858565b610f15565b610557610f25565b610557610f9c565b6105af610618366004614b68565b611059565b6105af61062b366004614c15565b6110a5565b6105af6110cf565b6105af610646366004614c15565b611144565b610481610659366004614c59565b6111c2565b6105af6111f0565b610481610674366004614c74565b611296565b6105af610687366004614cb2565b611363565b602e5461069f906001600160a01b031681565b6040516001600160a01b03909116815260200161048b565b6105576106c5366004614d6d565b6114df565b6104ba6106d8366004614858565b600090815260086020526040902054151590565b610481611608565b610481610702366004614871565b61168b565b6105af610715366004614e39565b6116ad565b610481610728366004614871565b6117d4565b60075460ff166104ba565b610481610746366004614871565b6117f0565b60365461069f906001600160a01b031681565b6105af61076c366004614ef1565b61180c565b6105af61077f366004614fbe565b611c5f565b610481600481565b6104816305f5e10081565b6105af6107a5366004615033565b611ca2565b61048160375481565b61069f6107c1366004614858565b611cf4565b6104816107d4366004615089565b602560209081526000938452604080852082529284528284209052825290205481565b610481611d14565b61048160225481565b6105af611ead565b61048161081e366004614858565b611f51565b610481600281565b61069f610839366004614871565b611f61565b6104ba61084c366004614c15565b611f80565b610557611fa9565b610481600081565b6105af61086f3660046150cc565b611fb5565b610481610882366004614858565b60009081526008602052604090205490565b6104816108a2366004614858565b611fc0565b6104816108b5366004614858565b611fd7565b6104816108c83660046150fa565b603b60209081526000938452604080852082529284528284209052825290205481565b6105af6108f9366004615133565b611fe7565b6105af612930565b6105af610914366004614858565b61299b565b6104817f9f2df0fed2c77648de5860a4cc508cd0818c85b8b8a1ab4ceeef8d981c8956a681565b6105af61094e366004614c15565b612cb2565b60305461069f906001600160a01b031681565b602f5461069f906001600160a01b031681565b610481610987366004614858565b612cd7565b6105af61099a366004614871565b612ce7565b6104817f65d7a28e3265b37a6474929f336521b332c1681b933f6cb9f3376673440d862a81565b6104ba6109d4366004615168565b6001600160a01b03918216600090815260056020908152604080832093909416825291909152205460ff1690565b610481612d19565b610481610a18366004614c59565b612d81565b6105af610a2b366004615196565b612e29565b6105af610a3e3660046151fe565b612e6e565b6105af610a51366004615089565b612ea2565b610481610a64366004614858565b612ee5565b6024546104ba9060ff1681565b60006001600160a01b038316610ae65760405162461bcd60e51b815260206004820152602a60248201527f455243313135353a2061646472657373207a65726f206973206e6f742061207660448201526930b634b21037bbb732b960b11b60648201526084015b60405180910390fd5b5060008181526004602090815260408083206001600160a01b03861684529091529020545b92915050565b6000610b0b82612f8e565b602a8160048110610b2c57600080fd5b0154905081565b60396020528160005260406000208160048110610b4f57600080fd5b01549150829050565b60245460009060ff168015610b6f57506000602254115b8015610b7c575042602254105b610b865750600090565b602354602254610b969042615230565b610ba09190615243565b610bab906001615265565b905090565b606060068054610bbf90615278565b80601f0160208091040260200160405190810160405280929190818152602001828054610beb90615278565b8015610c385780601f10610c0d57610100808354040283529160200191610c38565b820191906000526020600020905b815481529060010190602001808311610c1b57829003601f168201915b50505050509050919050565b60408051600480825260a08201909252606091600091906020820160808036833701905050905060005b6004811015610cbb57600a8160048110610c8a57610c8a6152ac565b0154828281518110610c9e57610c9e6152ac565b602090810291909101015280610cb3816152c2565b915050610c6e565b50919050565b600080805b6004811015610cbb5760005b6037548111610d45576000818152603c602052604090208260048110610cfa57610cfa6152ac565b015460008281526039602052604090208360048110610d1b57610d1b6152ac565b0154610d279190615230565b610d319084615265565b925080610d3d816152c2565b915050610cd2565b5080610d50816152c2565b915050610cc6565b60606000610d64610b58565b90506004811115610d7d57610d77610c44565b91505090565b60408051600480825260a082019092526000916020820160808036833701905050905060005b6004811015610e0f57600e610db9600185615230565b60048110610dc957610dc96152ac565b600402018160048110610dde57610dde6152ac565b0154828281518110610df257610df26152ac565b602090810291909101015280610e07816152c2565b915050610da3565b5092915050565b600080805b6004811015610cbb57600081815260086020526040902054610e3d9083615265565b915080610e49816152c2565b915050610e1b565b610e7b7f9f2df0fed2c77648de5860a4cc508cd0818c85b8b8a1ab4ceeef8d981c8956a633611f80565b610e975760405162461bcd60e51b8152600401610add906152db565b610ea384848484612f99565b50505050565b60408051600480825260a08201909252606091600091906020820160808036833701905050905060005b6004811015610e0f57610ee68482610a76565b828281518110610ef857610ef86152ac565b602090810291909101015280610f0d816152c2565b915050610ed3565b600a8160048110610b2c57600080fd5b60408051600480825260a08201909252606091600091906020820160808036833701905050905060005b6004811015610cbb57610f6d816003811115610a1857610a18615338565b828281518110610f7f57610f7f6152ac565b602090810291909101015280610f94816152c2565b915050610f4f565b60606000610fa8610b58565b60408051600480825260a08201909252919250600091906020820160808036833701905050905060005b6004811015610e0f576004831161102757602a8160048110610ff657610ff66152ac565b0154836026836004811061100c5761100c6152ac565b0154611018919061534e565b6110229190615230565b61102a565b60005b82828151811061103c5761103c6152ac565b602090810291909101015280611051816152c2565b915050610fd2565b6001600160a01b038516331480611075575061107585336109d4565b6110915760405162461bcd60e51b8152600401610add90615365565b61109e8585858585613103565b5050505050565b6000828152602081905260409020600101546110c0816132be565b6110ca83836132c8565b505050565b6110da600033611f80565b6110f65760405162461bcd60e51b8152600401610add906153b3565b6024805460ff8082161560ff1990921682179092556040519116151581527f512e257b3133a95bd1fef520dafc0dfb212f406af4f808d030e788c8ff536c04906020015b60405180910390a1565b6001600160a01b03811633146111b45760405162461bcd60e51b815260206004820152602f60248201527f416363657373436f6e74726f6c3a2063616e206f6e6c792072656e6f756e636560448201526e103937b632b9903337b91039b2b63360891b6064820152608401610add565b6111be82826132ea565b5050565b6000600a8260038111156111d8576111d8615338565b600481106111e8576111e86152ac565b015492915050565b61121a7f65d7a28e3265b37a6474929f336521b332c1681b933f6cb9f3376673440d862a33611f80565b61128c5760405162461bcd60e51b815260206004820152603b60248201527f455243313135355072657365744d696e7465725061757365723a206d7573742060448201527f686176652070617573657220726f6c6520746f20756e706175736500000000006064820152608401610add565b61129461330c565b565b6000808360038111156112ab576112ab615338565b60375460009081526039602052604081209192509082600481106112d1576112d16152ac565b0154600083815260086020526040812054919250901561131d576000838152600860205260409020546113048885610a76565b61130e908461534e565b6113189190615243565b611320565b60005b6000868152603b6020908152604080832087845282528083206001600160a01b038c1684529091529020549091506113589082615230565b979650505050505050565b61136e600033611f80565b61138a5760405162461bcd60e51b8152600401610add906153b3565b60048151146113db5760405162461bcd60e51b815260206004820152601960248201527f496e636f7272656374206e756d626572206f66207765656b73000000000000006044820152606401610add565b60005b60048110156111be5760048282815181106113fb576113fb6152ac565b602002602001015151146114515760405162461bcd60e51b815260206004820152601960248201527f496e636f7272656374206e756d626572206f66207469657273000000000000006044820152606401610add565b60005b60048110156114cc5782828151811061146f5761146f6152ac565b60200260200101518181518110611488576114886152ac565b6020026020010151600e83600481106114a3576114a36152ac565b6004020182600481106114b8576114b86152ac565b0155806114c4816152c2565b915050611454565b50806114d7816152c2565b9150506113de565b606081518351146115445760405162461bcd60e51b815260206004820152602960248201527f455243313135353a206163636f756e747320616e6420696473206c656e677468604482015268040dad2e6dac2e8c6d60bb1b6064820152608401610add565b600083516001600160401b0381111561155f5761155f614944565b604051908082528060200260200182016040528015611588578160200160208202803683370190505b50905060005b8451811015611600576115d38582815181106115ac576115ac6152ac565b60200260200101518583815181106115c6576115c66152ac565b6020026020010151610a76565b8282815181106115e5576115e56152ac565b60209081029190910101526115f9816152c2565b905061158e565b509392505050565b60003381805b600481101561165e57600a816004811061162a5761162a6152ac565b01546116368483610a76565b611640919061534e565b61164a9083615265565b915080611656816152c2565b91505061160e565b506000611669611d14565b905080156116805761167b8183615243565b611683565b60005b935050505090565b600e826004811061169b57600080fd5b600402018160048110610b4f57600080fd5b6116b5613359565b3360006116c3828585611296565b60305460405163a9059cbb60e01b81526001600160a01b038581166004830152602482018490529293506000929091169063a9059cbb906044016020604051808303816000875af115801561171c573d6000803e3d6000fd5b505050506040513d601f19601f820116820180604052508101906117409190615402565b90508061175f5760405162461bcd60e51b8152600401610add9061541f565b6000848152603b60205260408120839187600381111561178157611781615338565b81526020019081526020016000206000856001600160a01b03166001600160a01b0316815260200190815260200160002060008282546117c19190615265565b90915550506001600955506111be915050565b603c6020528160005260406000208160048110610b4f57600080fd5b603a6020528160005260406000208160048110610b4f57600080fd5b60006118367fb53127684a568b3173ae13b9f8a6016e243e63b6e8ee1178d6a717850b5d61035490565b90506001600160a01b038116611875576001600160a01b037fb53127684a568b3173ae13b9f8a6016e243e63b6e8ee1178d6a717850b5d61035561188a565b336001600160a01b0382161461188a57600080fd5b611893896133b2565b61189e6000336133be565b6118c87f9f2df0fed2c77648de5860a4cc508cd0818c85b8b8a1ab4ceeef8d981c8956a6336133be565b6118f27f65d7a28e3265b37a6474929f336521b332c1681b933f6cb9f3376673440d862a336133be565b6118ff600a89600461471c565b5061190d601e88600461471c565b50602e80546001600160a01b0319166001600160a01b038816179055611936603186600261475a565b506035849055611949603384600261475a565b50603680546001600160a01b0319166001600160a01b0384811691909117909155602e546040805163db7a460560e01b815281516119d794939093169263db7a4605926004808401939192918290030181865afa1580156119ae573d6000803e3d6000fd5b505050506040513d601f19601f820116820180604052508101906119d2919061544e565b6133c8565b602e60009054906101000a90046001600160a01b03166001600160a01b031663deef94de6040518163ffffffff1660e01b8152600401602060405180830381865afa158015611a2a573d6000803e3d6000fd5b505050506040513d601f19601f82011682018060405250810190611a4e91906154b0565b602f80546001600160a01b0319166001600160a01b03928316179055602e546040805163d63a6ccd60e01b81529051919092169163d63a6ccd9160048083019260209291908290030181865afa158015611aac573d6000803e3d6000fd5b505050506040513d601f19601f82011682018060405250810190611ad091906154b0565b603080546001600160a01b0319166001600160a01b03928316908117909155602e5460405163095ea7b360e01b81529216600483015260001960248301529063095ea7b3906044016020604051808303816000875af1158015611b37573d6000803e3d6000fd5b505050506040513d601f19601f82011682018060405250810190611b5b9190615402565b50603054602f5460405163095ea7b360e01b81526001600160a01b039182166004820152600019602482015291169063095ea7b3906044016020604051808303816000875af1158015611bb2573d6000803e3d6000fd5b505050506040513d601f19601f82011682018060405250810190611bd69190615402565b50602e5460405163095ea7b360e01b81526001600160a01b039091166004820181905260001960248301529063095ea7b3906044016020604051808303816000875af1158015611c2a573d6000803e3d6000fd5b505050506040513d601f19601f82011682018060405250810190611c4e9190615402565b505060006037555050505050505050565b6001600160a01b038316331480611c7b5750611c7b83336109d4565b611c975760405162461bcd60e51b8152600401610add90615365565b6110ca8383836133d4565b611ccc7f9f2df0fed2c77648de5860a4cc508cd0818c85b8b8a1ab4ceeef8d981c8956a633611f80565b611ce85760405162461bcd60e51b8152600401610add906152db565b610ea38484848461357d565b60028160028110611d0457600080fd5b01546001600160a01b0316905081565b6000620f4240602e60009054906101000a90046001600160a01b03166001600160a01b031663a035b1fe6040518163ffffffff1660e01b8152600401602060405180830381865afa158015611d6d573d6000803e3d6000fd5b505050506040513d601f19601f82011682018060405250810190611d9191906154cd565b602e546001600160a01b03166370a0823160026000015460405160e083901b6001600160e01b03191681526001600160a01b039091166004820152602401602060405180830381865afa158015611dec573d6000803e3d6000fd5b505050506040513d601f19601f82011682018060405250810190611e1091906154cd565b611e1a919061534e565b611e249190615243565b6030546001600160a01b03166370a0823160026000015460405160e083901b6001600160e01b03191681526001600160a01b039091166004820152602401602060405180830381865afa158015611e7f573d6000803e3d6000fd5b505050506040513d601f19601f82011682018060405250810190611ea391906154cd565b610bab9190615265565b611ed77f65d7a28e3265b37a6474929f336521b332c1681b933f6cb9f3376673440d862a33611f80565b611f495760405162461bcd60e51b815260206004820152603960248201527f455243313135355072657365744d696e7465725061757365723a206d7573742060448201527f686176652070617573657220726f6c6520746f207061757365000000000000006064820152608401610add565b611294613677565b601e8160048110610b2c57600080fd5b6000828152600160205260408120611f7990836136b4565b9392505050565b6000918252602082815260408084206001600160a01b0393909316845291905290205460ff1690565b606033610d7781610ea9565b6111be3383836136c0565b6000818152600160205260408120610b0b906137a0565b60338160028110610b2c57600080fd5b611fef613359565b600082116120655760405162461bcd60e51b815260206004820152603960248201527f45205243313135355072657365744d696e7465725061757365723a20616d6f7560448201527f6e74206d7573742062652067726561746572207468616e2030000000000000006064820152608401610add565b6000600a84600381111561207b5761207b615338565b6004811061208b5761208b6152ac565b0154116121005760405162461bcd60e51b815260206004820152603c60248201527f455243313135355072657365744d696e7465725061757365723a20746965722060448201527f7072696365206d7573742062652067726561746572207468616e2030000000006064820152608401610add565b6001600160a01b038116158015908061212a575080801561212a57506001600160a01b0382163314155b6121855760405162461bcd60e51b815260206004820152602660248201527f526566657272616c206d75737420626520646966666572656e742066726f6d2060448201526539b2b73232b960d11b6064820152608401610add565b600084600381111561219957612199615338565b60245490915060ff1661245257600084600a8760038111156121bd576121bd615338565b600481106121cd576121cd6152ac565b01546121d9919061534e565b6030549091506000906001600160a01b03166323b872dd336040516001600160e01b031960e084901b1681526001600160a01b039091166004820152306024820152604481018590526064016020604051808303816000875af1158015612244573d6000803e3d6000fd5b505050506040513d601f19601f820116820180604052508101906122689190615402565b9050806122875760405162461bcd60e51b8152600401610add9061541f565b60006122a38360318761229b5760006137aa565b6035546137aa565b602e5460405163f7e0ba5f60e01b8152600481018390529192506000916001600160a01b039091169063f7e0ba5f906024016020604051808303816000875af11580156122f4573d6000803e3d6000fd5b505050506040513d601f19601f8201168201806040525081019061231891906154cd565b602e54909150600090612336906001600160a01b031683603161381b565b90508615612373576000612363602e60009054906101000a90046001600160a01b0316848b603554613919565b905061236f8183615265565b9150505b6030546040516370a0823160e01b81523060048201526000916001600160a01b0316906370a0823190602401602060405180830381865afa1580156123bc573d6000803e3d6000fd5b505050506040513d601f19601f820116820180604052508101906123e091906154cd565b9050801561244757602f5460405163b6b55f2560e01b8152600481018390526001600160a01b039091169063b6b55f2590602401600060405180830381600087803b15801561242e57600080fd5b505af1158015612442573d6000803e3d6000fd5b505050505b505050505050612909565b6022544210156124a45760405162461bcd60e51b815260206004820152601a60248201527f50726573616c65206973206e6f742073746172746564207965740000000000006044820152606401610add565b60006124ae610b58565b905060048111156124f35760405162461bcd60e51b815260206004820152600f60248201526e283932b9b0b6329034b99037bb32b960891b6044820152606401610add565b6000600e612502600184615230565b60048110612512576125126152ac565b60408051608081019182905292600492830201919082845b81548152602001906001019080831161252a575050505050905085602560006125503390565b6001600160a01b03166001600160a01b031681526020019081526020016000206000848152602001908152602001600020600089600381111561259557612595615338565b815260200190815260200160002060008282546125b29190615265565b90915550869050602a8860038111156125cd576125cd615338565b600481106125dd576125dd6152ac565b0160008282546125ed9190615265565b90915550829050602688600381111561260857612608615338565b60048110612618576126186152ac565b0154612624919061534e565b602a88600381111561263857612638615338565b60048110612648576126486152ac565b015411156126a45760405162461bcd60e51b815260206004820152602360248201527f50726573616c65206d617820737570706c7920706572207765656b20726561636044820152621a195960ea1b6064820152608401610add565b600086828960038111156126ba576126ba615338565b600481106126ca576126ca6152ac565b60200201516126d9919061534e565b6030549091506000906001600160a01b03166323b872dd336040516001600160e01b031960e084901b1681526001600160a01b039091166004820152306024820152604481018590526064016020604051808303816000875af1158015612744573d6000803e3d6000fd5b505050506040513d601f19601f820116820180604052508101906127689190615402565b9050806127875760405162461bcd60e51b8152600401610add9061541f565b85156127b0576030546035546127aa916001600160a01b03169084908a90613919565b506127dd565b6030546127db906001600160a01b0316836002600001546035546001600160a01b0390911690613919565b505b6030546127f5906001600160a01b031683603161381b565b506030546040516370a0823160e01b81523060048201526000916001600160a01b0316906370a0823190602401602060405180830381865afa15801561283f573d6000803e3d6000fd5b505050506040513d601f19601f8201168201806040525081019061286391906154cd565b905080156129035760305460365460405163a9059cbb60e01b81526001600160a01b0391821660048201526024810184905291169063a9059cbb906044016020604051808303816000875af11580156128c0573d6000803e3d6000fd5b505050506040513d601f19601f820116820180604052508101906128e49190615402565b9150816129035760405162461bcd60e51b8152600401610add9061541f565b50505050505b6129243382866040518060200160405280600081525061357d565b50506110ca6001600955565b612938613359565b60005b60048110156129905760005b603754811161297d5761296b82600381111561296557612965615338565b826116ad565b80612975816152c2565b915050612947565b5080612988816152c2565b91505061293b565b506112946001600955565b6129a3613359565b6030546000906001600160a01b03166323b872dd336040516001600160e01b031960e084901b1681526001600160a01b039091166004820152306024820152604481018590526064016020604051808303816000875af1158015612a0b573d6000803e3d6000fd5b505050506040513d601f19601f82011682018060405250810190612a2f9190615402565b905080612a4e5760405162461bcd60e51b8152600401610add9061541f565b6000612a5b600284615243565b90506000612a75612a6c8386615230565b603360006137aa565b602e5460405163f7e0ba5f60e01b8152600481018390529192506000916001600160a01b039091169063f7e0ba5f906024016020604051808303816000875af1158015612ac6573d6000803e3d6000fd5b505050506040513d601f19601f82011682018060405250810190612aea91906154cd565b602e54909150600090612b08906001600160a01b031683603361381b565b603780549192506000612b1a836152c2565b90915550506037546000908152603860205260408120829055612b3b610e16565b905060005b6004811015612bc9576000818152600860209081526040808320546037548452603a90925290912081908360048110612b7b57612b7b6152ac565b015582612b88828961534e565b612b929190615243565b60375460009081526039602052604090208360048110612bb457612bb46152ac565b01555080612bc1816152c2565b915050612b40565b506030546040516370a0823160e01b81523060048201526000916001600160a01b0316906370a0823190602401602060405180830381865afa158015612c13573d6000803e3d6000fd5b505050506040513d601f19601f82011682018060405250810190612c3791906154cd565b90508015612c9e57602f5460405163b6b55f2560e01b8152600481018390526001600160a01b039091169063b6b55f2590602401600060405180830381600087803b158015612c8557600080fd5b505af1158015612c99573d6000803e3d6000fd5b505050505b50505050505050612caf6001600955565b50565b600082815260208190526040902060010154612ccd816132be565b6110ca83836132ea565b60318160028110610b2c57600080fd5b612cf2600033611f80565b612d0e5760405162461bcd60e51b8152600401610add906153b3565b602291909155602355565b60003381805b6004811015610e0f5760005b6037548111612d6e57612d5084836003811115612d4a57612d4a615338565b83611296565b612d5a9084615265565b925080612d66816152c2565b915050612d2b565b5080612d79816152c2565b915050612d1f565b6000612d9882600381111561088257610882615338565b15612db757612db282600381111561088257610882615338565b612dba565b60015b6037546000908152603960205260409020836003811115612ddd57612ddd615338565b60048110612ded57612ded6152ac565b0154612df99190615243565b600a836003811115612e0d57612e0d615338565b60048110612e1d57612e1d6152ac565b0154610b0b9190615265565b6001600160a01b038516331480612e455750612e4585336109d4565b612e615760405162461bcd60e51b8152600401610add90615365565b61109e8585858585613a7e565b612e79600033611f80565b612e955760405162461bcd60e51b8152600401610add906153b3565b6111be602682600461471c565b6001600160a01b038316331480612ebe5750612ebe83336109d4565b612eda5760405162461bcd60e51b8152600401610add90615365565b6110ca838383613bc8565b60268160048110610b2c57600080fd5b612eff8282611f80565b6111be576000828152602081815260408083206001600160a01b03851684529091529020805460ff19166001179055612f353390565b6001600160a01b0316816001600160a01b0316837f2f8788117e7eff1d82e926ec794901d17c78024a50270940304540a733656f0d60405160405180910390a45050565b6000611f79836001600160a01b038416613cee565b6000610b0b82613d3d565b6001600160a01b038416612fbf5760405162461bcd60e51b8152600401610add906154e6565b8151835114612fe05760405162461bcd60e51b8152600401610add90615527565b33612ff081600087878787613d7d565b60005b845181101561308c5783818151811061300e5761300e6152ac565b60200260200101516004600087848151811061302c5761302c6152ac565b602002602001015181526020019081526020016000206000886001600160a01b03166001600160a01b0316815260200190815260200160002060008282546130749190615265565b90915550819050613084816152c2565b915050612ff3565b50846001600160a01b031660006001600160a01b0316826001600160a01b03167f4a39dc06d4c0dbc64b70af90fd698a233a518aa5d07e595d983b8c0526c8f7fb87876040516130dd92919061556f565b60405180910390a46130f481600087878787613d8b565b61109e81600087878787613e3d565b81518351146131245760405162461bcd60e51b8152600401610add90615527565b6001600160a01b03841661314a5760405162461bcd60e51b8152600401610add9061559d565b33613159818787878787613d7d565b60005b8451811015613242576000858281518110613179576131796152ac565b602002602001015190506000858381518110613197576131976152ac565b60209081029190910181015160008481526004835260408082206001600160a01b038e1683529093529190912054909150818110156131e85760405162461bcd60e51b8152600401610add906155e2565b60008381526004602090815260408083206001600160a01b038e8116855292528083208585039055908b16825281208054849290613227908490615265565b925050819055505050508061323b906152c2565b905061315c565b50846001600160a01b0316866001600160a01b0316826001600160a01b03167f4a39dc06d4c0dbc64b70af90fd698a233a518aa5d07e595d983b8c0526c8f7fb878760405161329292919061556f565b60405180910390a46132a8818787878787613d8b565b6132b6818787878787613e3d565b505050505050565b612caf8133613f98565b6132d28282612ef5565b60008281526001602052604090206110ca9082612f79565b6132f48282613ff1565b60008281526001602052604090206110ca9082614056565b61331461406b565b6007805460ff191690557f5db9ee0a495bf2e6ff9c91a7834c1ba4fdd244a5e8aa4e537bd38aeae4b073aa335b6040516001600160a01b03909116815260200161113a565b6002600954036133ab5760405162461bcd60e51b815260206004820152601f60248201527f5265656e7472616e637947756172643a207265656e7472616e742063616c6c006044820152606401610add565b6002600955565b60066111be8282615672565b6111be82826132c8565b6111be60028281614787565b6001600160a01b0383166133fa5760405162461bcd60e51b8152600401610add90615731565b805182511461341b5760405162461bcd60e51b8152600401610add90615527565b600033905061343e81856000868660405180602001604052806000815250613d7d565b60005b835181101561350657600084828151811061345e5761345e6152ac565b60200260200101519050600084838151811061347c5761347c6152ac565b60209081029190910181015160008481526004835260408082206001600160a01b038c1683529093529190912054909150818110156134cd5760405162461bcd60e51b8152600401610add90615774565b60009283526004602090815260408085206001600160a01b038b16865290915290922091039055806134fe816152c2565b915050613441565b5060006001600160a01b0316846001600160a01b0316826001600160a01b03167f4a39dc06d4c0dbc64b70af90fd698a233a518aa5d07e595d983b8c0526c8f7fb868660405161355792919061556f565b60405180910390a4610ea381856000868660405180602001604052806000815250613d8b565b6001600160a01b0384166135a35760405162461bcd60e51b8152600401610add906154e6565b3360006135af856140b4565b905060006135bc856140b4565b90506135cd83600089858589613d7d565b60008681526004602090815260408083206001600160a01b038b168452909152812080548792906135ff908490615265565b909155505060408051878152602081018790526001600160a01b03808a1692600092918716917fc3d58168c5ae7397731d063d5bbf3d657854427343f4c083240f7aacaa2d0f62910160405180910390a461365f83600089858589613d8b565b61366e836000898989896140ff565b50505050505050565b61367f6141ba565b6007805460ff191660011790557f62e78cea01bee320cd4e420270b5ea74000d11b0c9f74754ebdbfc544b05a2586133413390565b6000611f798383614200565b816001600160a01b0316836001600160a01b0316036137335760405162461bcd60e51b815260206004820152602960248201527f455243313135353a2073657474696e6720617070726f76616c20737461747573604482015268103337b91039b2b63360b91b6064820152608401610add565b6001600160a01b03838116600081815260056020908152604080832094871680845294825291829020805460ff191686151590811790915591519182527f17307eab39ab6107e8899845ad3d59bd9653f200f220920489ca2b5937696c31910160405180910390a3505050565b6000610b0b825490565b6000806002815b818110156137eb578581600281106137cb576137cb6152ac565b01546137d79084615265565b9250806137e3816152c2565b9150506137b1565b506137f68483615265565b91506305f5e100613807838861534e565b6138119190615243565b9695505050505050565b600080805b60028110156139105760006305f5e100858360028110613842576138426152ac565b015461384e908861534e565b6138589190615243565b9050866001600160a01b031663a9059cbb6002846002811061387c5761387c6152ac565b015460405160e083901b6001600160e01b03191681526001600160a01b039091166004820152602481018490526044016020604051808303816000875af11580156138cb573d6000803e3d6000fd5b505050506040513d601f19601f820116820180604052508101906138ef9190615402565b506138fa8184615265565b9250508080613908906152c2565b915050613820565b50949350505050565b6040516370a0823160e01b815230600482015260009081906001600160a01b038716906370a0823190602401602060405180830381865afa158015613962573d6000803e3d6000fd5b505050506040513d601f19601f8201168201806040525081019061398691906154cd565b905060006305f5e100613999858861534e565b6139a39190615243565b905080821015613a005760405162461bcd60e51b815260206004820152602260248201527f4e6f7420656e6f7567682062616c616e6365206f6e2074686520636f6e74726160448201526118dd60f21b6064820152608401610add565b60405163a9059cbb60e01b81526001600160a01b0386811660048301526024820183905288169063a9059cbb906044016020604051808303816000875af1158015613a4f573d6000803e3d6000fd5b505050506040513d601f19601f82011682018060405250810190613a739190615402565b509695505050505050565b6001600160a01b038416613aa45760405162461bcd60e51b8152600401610add9061559d565b336000613ab0856140b4565b90506000613abd856140b4565b9050613acd838989858589613d7d565b60008681526004602090815260408083206001600160a01b038c16845290915290205485811015613b105760405162461bcd60e51b8152600401610add906155e2565b60008781526004602090815260408083206001600160a01b038d8116855292528083208985039055908a16825281208054889290613b4f908490615265565b909155505060408051888152602081018890526001600160a01b03808b16928c821692918816917fc3d58168c5ae7397731d063d5bbf3d657854427343f4c083240f7aacaa2d0f62910160405180910390a4613baf848a8a86868a613d8b565b613bbd848a8a8a8a8a6140ff565b505050505050505050565b6001600160a01b038316613bee5760405162461bcd60e51b8152600401610add90615731565b336000613bfa846140b4565b90506000613c07846140b4565b9050613c2783876000858560405180602001604052806000815250613d7d565b60008581526004602090815260408083206001600160a01b038a16845290915290205484811015613c6a5760405162461bcd60e51b8152600401610add90615774565b60008681526004602090815260408083206001600160a01b038b81168086529184528285208a8703905582518b81529384018a90529092908816917fc3d58168c5ae7397731d063d5bbf3d657854427343f4c083240f7aacaa2d0f62910160405180910390a461366e84886000868660405180602001604052806000815250613d8b565b6000818152600183016020526040812054613d3557508154600181810184556000848152602080822090930184905584548482528286019093526040902091909155610b0b565b506000610b0b565b60006001600160e01b03198216636cdb3d1360e11b1480613d6e57506001600160e01b031982166303a24d0760e21b145b80610b0b5750610b0b8261422a565b6132b686868686868661424f565b601e83600081518110613da057613da06152ac565b602002602001015160048110613db857613db86152ac565b0154613dea84600081518110613dd057613dd06152ac565b602002602001015160009081526008602052604090205490565b1115613e385760405162461bcd60e51b815260206004820152601b60248201527f536166654e46543a206d617820737570706c79207265616368656400000000006044820152606401610add565b6132b6565b6001600160a01b0384163b156132b65760405163bc197c8160e01b81526001600160a01b0385169063bc197c8190613e8190899089908890889088906004016157b8565b6020604051808303816000875af1925050508015613ebc575060408051601f3d908101601f19168201909252613eb991810190615816565b60015b613f6857613ec8615833565b806308c379a003613f015750613edc61584f565b80613ee75750613f03565b8060405162461bcd60e51b8152600401610add91906148e3565b505b60405162461bcd60e51b815260206004820152603460248201527f455243313135353a207472616e7366657220746f206e6f6e2d455243313135356044820152732932b1b2b4bb32b91034b6b83632b6b2b73a32b960611b6064820152608401610add565b6001600160e01b0319811663bc197c8160e01b1461366e5760405162461bcd60e51b8152600401610add906158d8565b613fa28282611f80565b6111be57613faf816143d6565b613fba8360206143e8565b604051602001613fcb929190615920565b60408051601f198184030181529082905262461bcd60e51b8252610add916004016148e3565b613ffb8282611f80565b156111be576000828152602081815260408083206001600160a01b0385168085529252808320805460ff1916905551339285917ff6391f5c32d9c69d2a47ea670b442974b53935d1edc7fd64eb21e047a839171b9190a45050565b6000611f79836001600160a01b038416614583565b60075460ff166112945760405162461bcd60e51b815260206004820152601460248201527314185d5cd8589b194e881b9bdd081c185d5cd95960621b6044820152606401610add565b604080516001808252818301909252606091600091906020808301908036833701905050905082816000815181106140ee576140ee6152ac565b602090810291909101015292915050565b6001600160a01b0384163b156132b65760405163f23a6e6160e01b81526001600160a01b0385169063f23a6e61906141439089908990889088908890600401615995565b6020604051808303816000875af192505050801561417e575060408051601f3d908101601f1916820190925261417b91810190615816565b60015b61418a57613ec8615833565b6001600160e01b0319811663f23a6e6160e01b1461366e5760405162461bcd60e51b8152600401610add906158d8565b60075460ff16156112945760405162461bcd60e51b815260206004820152601060248201526f14185d5cd8589b194e881c185d5cd95960821b6044820152606401610add565b6000826000018281548110614217576142176152ac565b9060005260206000200154905092915050565b60006001600160e01b03198216635a05180f60e01b1480610b0b5750610b0b82614676565b61425d8686868686866146ab565b6001600160a01b0385166142e45760005b83518110156142e257828181518110614289576142896152ac565b6020026020010151600860008684815181106142a7576142a76152ac565b6020026020010151815260200190815260200160002060008282546142cc9190615265565b909155506142db9050816152c2565b905061426e565b505b6001600160a01b0384166132b65760005b835181101561366e576000848281518110614312576143126152ac565b602002602001015190506000848381518110614330576143306152ac565b60200260200101519050600060086000848152602001908152602001600020549050818110156143b35760405162461bcd60e51b815260206004820152602860248201527f455243313135353a206275726e20616d6f756e74206578636565647320746f74604482015267616c537570706c7960c01b6064820152608401610add565b600092835260086020526040909220910390556143cf816152c2565b90506142f5565b6060610b0b6001600160a01b03831660145b606060006143f783600261534e565b614402906002615265565b6001600160401b0381111561441957614419614944565b6040519080825280601f01601f191660200182016040528015614443576020820181803683370190505b509050600360fc1b8160008151811061445e5761445e6152ac565b60200101906001600160f81b031916908160001a905350600f60fb1b8160018151811061448d5761448d6152ac565b60200101906001600160f81b031916908160001a90535060006144b184600261534e565b6144bc906001615265565b90505b6001811115614534576f181899199a1a9b1b9c1cb0b131b232b360811b85600f16601081106144f0576144f06152ac565b1a60f81b828281518110614506576145066152ac565b60200101906001600160f81b031916908160001a90535060049490941c9361452d816159cd565b90506144bf565b508315611f795760405162461bcd60e51b815260206004820181905260248201527f537472696e67733a20686578206c656e67746820696e73756666696369656e746044820152606401610add565b6000818152600183016020526040812054801561466c5760006145a7600183615230565b85549091506000906145bb90600190615230565b90508181146146205760008660000182815481106145db576145db6152ac565b90600052602060002001549050808760000184815481106145fe576145fe6152ac565b6000918252602080832090910192909255918252600188019052604090208390555b8554869080614631576146316159e4565b600190038181906000526020600020016000905590558560010160008681526020019081526020016000206000905560019350505050610b0b565b6000915050610b0b565b60006001600160e01b03198216637965db0b60e01b1480610b0b57506301ffc9a760e01b6001600160e01b0319831614610b0b565b6132b686868686868660075460ff16156132b65760405162461bcd60e51b815260206004820152602c60248201527f455243313135355061757361626c653a20746f6b656e207472616e736665722060448201526b1dda1a5b19481c185d5cd95960a21b6064820152608401610add565b826004810192821561474a579160200282015b8281111561474a57825182559160200191906001019061472f565b506147569291506147cf565b5090565b826002810192821561474a579160200282018281111561474a57825182559160200191906001019061472f565b826002810192821561474a579160200282015b8281111561474a57825182546001600160a01b0319166001600160a01b0390911617825560209092019160019091019061479a565b5b8082111561475657600081556001016147d0565b6001600160a01b0381168114612caf57600080fd5b6000806040838503121561480c57600080fd5b8235614817816147e4565b946020939093013593505050565b6001600160e01b031981168114612caf57600080fd5b60006020828403121561484d57600080fd5b8135611f7981614825565b60006020828403121561486a57600080fd5b5035919050565b6000806040838503121561488457600080fd5b50508035926020909101359150565b60005b838110156148ae578181015183820152602001614896565b50506000910152565b600081518084526148cf816020860160208601614893565b601f01601f19169290920160200192915050565b602081526000611f7960208301846148b7565b600081518084526020808501945080840160005b838110156149265781518752958201959082019060010161490a565b509495945050505050565b602081526000611f7960208301846148f6565b634e487b7160e01b600052604160045260246000fd5b604081018181106001600160401b038211171561497957614979614944565b60405250565b601f8201601f191681016001600160401b03811182821017156149a4576149a4614944565b6040525050565b60006001600160401b038211156149c4576149c4614944565b5060051b60200190565b600082601f8301126149df57600080fd5b813560206149ec826149ab565b6040516149f9828261497f565b83815260059390931b8501820192828101915086841115614a1957600080fd5b8286015b84811015613a735780358352918301918301614a1d565b60006001600160401b03831115614a4d57614a4d614944565b604051614a64601f8501601f19166020018261497f565b809150838152848484011115614a7957600080fd5b83836020830137600060208583010152509392505050565b600082601f830112614aa257600080fd5b611f7983833560208501614a34565b60008060008060808587031215614ac757600080fd5b8435614ad2816147e4565b935060208501356001600160401b0380821115614aee57600080fd5b614afa888389016149ce565b94506040870135915080821115614b1057600080fd5b614b1c888389016149ce565b93506060870135915080821115614b3257600080fd5b50614b3f87828801614a91565b91505092959194509250565b600060208284031215614b5d57600080fd5b8135611f79816147e4565b600080600080600060a08688031215614b8057600080fd5b8535614b8b816147e4565b94506020860135614b9b816147e4565b935060408601356001600160401b0380821115614bb757600080fd5b614bc389838a016149ce565b94506060880135915080821115614bd957600080fd5b614be589838a016149ce565b93506080880135915080821115614bfb57600080fd5b50614c0888828901614a91565b9150509295509295909350565b60008060408385031215614c2857600080fd5b823591506020830135614c3a816147e4565b809150509250929050565b803560048110614c5457600080fd5b919050565b600060208284031215614c6b57600080fd5b611f7982614c45565b600080600060608486031215614c8957600080fd5b8335614c94816147e4565b9250614ca260208501614c45565b9150604084013590509250925092565b60006020808385031215614cc557600080fd5b82356001600160401b0380821115614cdc57600080fd5b818501915085601f830112614cf057600080fd5b8135614cfb816149ab565b604051614d08828261497f565b82815260059290921b8401850191858101915088831115614d2857600080fd5b8585015b83811015614d6057803585811115614d445760008081fd5b614d528b89838a01016149ce565b845250918601918601614d2c565b5098975050505050505050565b60008060408385031215614d8057600080fd5b82356001600160401b0380821115614d9757600080fd5b818501915085601f830112614dab57600080fd5b81356020614db8826149ab565b604051614dc5828261497f565b83815260059390931b8501820192828101915089841115614de557600080fd5b948201945b83861015614e0c578535614dfd816147e4565b82529482019490820190614dea565b96505086013592505080821115614e2257600080fd5b50614e2f858286016149ce565b9150509250929050565b60008060408385031215614e4c57600080fd5b61481783614c45565b600082601f830112614e6657600080fd5b604051608081018181106001600160401b0382111715614e8857614e88614944565b604052806080840185811115614e9d57600080fd5b845b81811015614eb7578035835260209283019201614e9f565b509195945050505050565b600082601f830112614ed357600080fd5b604051614edf8161495a565b806040840185811115614e9d57600080fd5b600080600080600080600080610200898b031215614f0e57600080fd5b88356001600160401b03811115614f2457600080fd5b8901601f81018b13614f3557600080fd5b614f448b823560208401614a34565b985050614f548a60208b01614e55565b9650614f638a60a08b01614e55565b9550610120890135614f74816147e4565b9450614f848a6101408b01614ec2565b93506101808901359250614f9c8a6101a08b01614ec2565b91506101e0890135614fad816147e4565b809150509295985092959890939650565b600080600060608486031215614fd357600080fd5b8335614fde816147e4565b925060208401356001600160401b0380821115614ffa57600080fd5b615006878388016149ce565b9350604086013591508082111561501c57600080fd5b50615029868287016149ce565b9150509250925092565b6000806000806080858703121561504957600080fd5b8435615054816147e4565b9350602085013592506040850135915060608501356001600160401b0381111561507d57600080fd5b614b3f87828801614a91565b60008060006060848603121561509e57600080fd5b83356150a9816147e4565b95602085013595506040909401359392505050565b8015158114612caf57600080fd5b600080604083850312156150df57600080fd5b82356150ea816147e4565b91506020830135614c3a816150be565b60008060006060848603121561510f57600080fd5b83359250602084013591506040840135615128816147e4565b809150509250925092565b60008060006060848603121561514857600080fd5b61515184614c45565b9250602084013591506040840135615128816147e4565b6000806040838503121561517b57600080fd5b8235615186816147e4565b91506020830135614c3a816147e4565b600080600080600060a086880312156151ae57600080fd5b85356151b9816147e4565b945060208601356151c9816147e4565b9350604086013592506060860135915060808601356001600160401b038111156151f257600080fd5b614c0888828901614a91565b60006080828403121561521057600080fd5b611f798383614e55565b634e487b7160e01b600052601160045260246000fd5b81810381811115610b0b57610b0b61521a565b60008261526057634e487b7160e01b600052601260045260246000fd5b500490565b80820180821115610b0b57610b0b61521a565b600181811c9082168061528c57607f821691505b602082108103610cbb57634e487b7160e01b600052602260045260246000fd5b634e487b7160e01b600052603260045260246000fd5b6000600182016152d4576152d461521a565b5060010190565b60208082526038908201527f455243313135355072657365744d696e7465725061757365723a206d7573742060408201527f68617665206d696e74657220726f6c6520746f206d696e740000000000000000606082015260800190565b634e487b7160e01b600052602160045260246000fd5b8082028115828204841417610b0b57610b0b61521a565b6020808252602e908201527f455243313135353a2063616c6c6572206973206e6f7420746f6b656e206f776e60408201526d195c881bdc88185c1c1c9bdd995960921b606082015260800190565b6020808252602f908201527f455243313135355072657365744d696e7465725061757365723a206d7573742060408201526e686176652061646d696e20726f6c6560881b606082015260800190565b60006020828403121561541457600080fd5b8151611f79816150be565b602080825260159082015274151bdad95b881d1c985b9cd9995c8819985a5b1959605a1b604082015260600190565b60006040828403121561546057600080fd5b82601f83011261546f57600080fd5b60405161547b8161495a565b80604084018581111561548d57600080fd5b845b81811015614eb75780516154a2816147e4565b83526020928301920161548f565b6000602082840312156154c257600080fd5b8151611f79816147e4565b6000602082840312156154df57600080fd5b5051919050565b60208082526021908201527f455243313135353a206d696e7420746f20746865207a65726f206164647265736040820152607360f81b606082015260800190565b60208082526028908201527f455243313135353a2069647320616e6420616d6f756e7473206c656e677468206040820152670dad2e6dac2e8c6d60c31b606082015260800190565b60408152600061558260408301856148f6565b828103602084015261559481856148f6565b95945050505050565b60208082526025908201527f455243313135353a207472616e7366657220746f20746865207a65726f206164604082015264647265737360d81b606082015260800190565b6020808252602a908201527f455243313135353a20696e73756666696369656e742062616c616e636520666f60408201526939103a3930b739b332b960b11b606082015260800190565b601f8211156110ca57600081815260208120601f850160051c810160208610156156535750805b601f850160051c820191505b818110156132b65782815560010161565f565b81516001600160401b0381111561568b5761568b614944565b61569f816156998454615278565b8461562c565b602080601f8311600181146156d457600084156156bc5750858301515b600019600386901b1c1916600185901b1785556132b6565b600085815260208120601f198616915b82811015615703578886015182559484019460019091019084016156e4565b50858210156157215787850151600019600388901b60f8161c191681555b5050505050600190811b01905550565b60208082526023908201527f455243313135353a206275726e2066726f6d20746865207a65726f206164647260408201526265737360e81b606082015260800190565b60208082526024908201527f455243313135353a206275726e20616d6f756e7420657863656564732062616c604082015263616e636560e01b606082015260800190565b60006001600160a01b03808816835280871660208401525060a060408301526157e460a08301866148f6565b82810360608401526157f681866148f6565b9050828103608084015261580a81856148b7565b98975050505050505050565b60006020828403121561582857600080fd5b8151611f7981614825565b600060033d111561584c5760046000803e5060005160e01c5b90565b600060443d101561585d5790565b6040516003193d81016004833e81513d6001600160401b03816024840111818411171561588c57505050505090565b82850191508151818111156158a45750505050505090565b843d87010160208285010111156158be5750505050505090565b6158cd6020828601018761497f565b509095945050505050565b60208082526028908201527f455243313135353a204552433131353552656365697665722072656a656374656040820152676420746f6b656e7360c01b606082015260800190565b7f416363657373436f6e74726f6c3a206163636f756e7420000000000000000000815260008351615958816017850160208801614893565b7001034b99036b4b9b9b4b733903937b6329607d1b6017918401918201528351615989816028840160208801614893565b01602801949350505050565b60006001600160a01b03808816835280871660208401525084604083015283606083015260a0608083015261135860a08301846148b7565b6000816159dc576159dc61521a565b506000190190565b634e487b7160e01b600052603160045260246000fdfea2646970667358221220d5d053b59bafedae99f06b73200e4a689af80fda8a98ccb3fe7d1a71f69d86cc64736f6c63430008110033b53127684a568b3173ae13b9f8a6016e243e63b6e8ee1178d6a717850b5d610365d7a28e3265b37a6474929f336521b332c1681b933f6cb9f3376673440d862a9f2df0fed2c77648de5860a4cc508cd0818c85b8b8a1ab4ceeef8d981c8956a6",
  "devdoc": {
    "author": "crypt0grapher",
    "kind": "dev",
    "methods": {
      "balanceOf(address,uint256)": {
        "details": "See {IERC1155-balanceOf}. Requirements: - `account` cannot be the zero address."
      },
      "balanceOfBatch(address[],uint256[])": {
        "details": "See {IERC1155-balanceOfBatch}. Requirements: - `accounts` and `ids` must have the same length."
      },
      "buy(uint8,uint256,address)": {
        "params": {
          "_amount": "amount of USD to spend",
          "_referral": "referral getting 5% of the price, should not be the sender, if not specified, goes to treasury",
          "_tier": "tier of the NFT to purchase which stands for ERC1155 token id [0..3]"
        }
      },
      "distributeProfit(uint256)": {
        "params": {
          "_amountUSD": "amount of USD to distribute"
        }
      },
      "exists(uint256)": {
        "details": "Indicates whether any token exist with a given id, or not."
      },
      "getCurrentPresaleWeek()": {
        "returns": {
          "_0": "returns 1-4"
        }
      },
      "getDiscountedPriceTable()": {
        "returns": {
          "_0": "uint256[] containing all NFT prices in one table in USD for the current presale week"
        }
      },
      "getFairPrice(uint8)": {
        "returns": {
          "_0": "counts not only the sale price but also share of the profit for the tier"
        }
      },
      "getPrice(uint8)": {
        "returns": {
          "_0": "NFT price in USD"
        }
      },
      "getPriceTable()": {
        "returns": {
          "_0": "uint256[] containing all NFT prices in one table in USD"
        }
      },
      "getRoleAdmin(bytes32)": {
        "details": "Returns the admin role that controls `role`. See {grantRole} and {revokeRole}. To change a role's admin, use {_setRoleAdmin}."
      },
      "getRoleMember(bytes32,uint256)": {
        "details": "Returns one of the accounts that have `role`. `index` must be a value between 0 and {getRoleMemberCount}, non-inclusive. Role bearers are not sorted in any particular way, and their ordering may change at any point. WARNING: When using {getRoleMember} and {getRoleMemberCount}, make sure you perform all queries on the same block. See the following https://forum.openzeppelin.com/t/iterating-over-elements-on-enumerableset-in-openzeppelin-contracts/2296[forum post] for more information."
      },
      "getRoleMemberCount(bytes32)": {
        "details": "Returns the number of accounts that have `role`. Can be used together with {getRoleMember} to enumerate all bearers of a role."
      },
      "getUnclaimedRewards()": {
        "returns": {
          "_0": "amount of the rewards not yet distributed to NFT holders"
        }
      },
      "grantRole(bytes32,address)": {
        "details": "Grants `role` to `account`. If `account` had not been already granted `role`, emits a {RoleGranted} event. Requirements: - the caller must have ``role``'s admin role. May emit a {RoleGranted} event."
      },
      "hasRole(bytes32,address)": {
        "details": "Returns `true` if `account` has been granted `role`."
      },
      "isApprovedForAll(address,address)": {
        "details": "See {IERC1155-isApprovedForAll}."
      },
      "mint(address,uint256,uint256,bytes)": {
        "details": "Creates `amount` new tokens for `to`, of token type `id`. See {ERC1155-_mint}. Requirements: - the caller must have the `MINTER_ROLE`."
      },
      "mintBatch(address,uint256[],uint256[],bytes)": {
        "details": "xref:ROOT:erc1155.adoc#batch-operations[Batched] variant of {mint}."
      },
      "pause()": {
        "details": "Pauses all token transfers. See {ERC1155Pausable} and {Pausable-_pause}. Requirements: - the caller must have the `PAUSER_ROLE`."
      },
      "paused()": {
        "details": "Returns true if the contract is paused, and false otherwise."
      },
      "renounceRole(bytes32,address)": {
        "details": "Revokes `role` from the calling account. Roles are often managed via {grantRole} and {revokeRole}: this function's purpose is to provide a mechanism for accounts to lose their privileges if they are compromised (such as when a trusted device is misplaced). If the calling account had been revoked `role`, emits a {RoleRevoked} event. Requirements: - the caller must be `account`. May emit a {RoleRevoked} event."
      },
      "revokeRole(bytes32,address)": {
        "details": "Revokes `role` from `account`. If `account` had been granted `role`, emits a {RoleRevoked} event. Requirements: - the caller must have ``role``'s admin role. May emit a {RoleRevoked} event."
      },
      "safeBatchTransferFrom(address,address,uint256[],uint256[],bytes)": {
        "details": "See {IERC1155-safeBatchTransferFrom}."
      },
      "safeTransferFrom(address,address,uint256,uint256,bytes)": {
        "details": "See {IERC1155-safeTransferFrom}."
      },
      "setApprovalForAll(address,bool)": {
        "details": "See {IERC1155-setApprovalForAll}."
      },
      "setDiscountedPriceTable(uint256[][])": {
        "params": {
          "_presalePrice": "4x4 table of the discounted prices for all 4 tiers for all 4 weeks of the presale"
        }
      },
      "totalSupply(uint256)": {
        "details": "Total amount of tokens in with a given id."
      },
      "unpause()": {
        "details": "Unpauses all token transfers. See {ERC1155Pausable} and {Pausable-_unpause}. Requirements: - the caller must have the `PAUSER_ROLE`."
      },
      "uri(uint256)": {
        "details": "See {IERC1155MetadataURI-uri}. This implementation returns the same URI for *all* token types. It relies on the token type ID substitution mechanism https://eips.ethereum.org/EIPS/eip-1155#metadata[defined in the EIP]. Clients calling this function must replace the `\\{id\\}` substring with the actual token type ID."
      }
    },
    "stateVariables": {
      "currentDistributionId": {
        "return": "current distribution number, the one that assigned to the latest distribution",
        "returns": {
          "_0": "current distribution number, the one that assigned to the latest distribution"
        }
      }
    },
    "title": "Safe NFT",
    "version": 1
  },
  "userdoc": {
    "kind": "user",
    "methods": {
      "WALLETS()": {
        "notice": "total wallets on the protocol less vault, see Wallets enum, this can be basically any number"
      },
      "buy(uint8,uint256,address)": {
        "notice": "purchase Safe NFT for exact amount of USD"
      },
      "claimReward(uint8,uint256)": {
        "notice": "the function calculates the amount of the reward for the NFT holder and transfers it to the NFT holder"
      },
      "claimRewardsTotal()": {
        "notice": "the function calculates the amount of the reward for the NFT holder and transfers it to the NFT holder"
      },
      "currentDistributionId()": {
        "notice": "gets the current distribution number"
      },
      "distributeProfit(uint256)": {
        "notice": "distribute profit among the NFT holders, the function fixes the amount of the reward and the NFT holders and their shares at the moment of the call. It does not transfer the reward to the NFT holders, it just records the amount of the reward for each NFT holder."
      },
      "getBalanceTable(address)": {
        "notice": "gets NFT balance for all tiers"
      },
      "getCurrentPresaleWeek()": {
        "notice": "gets the current presale week"
      },
      "getDiscountedPriceTable()": {
        "notice": "gets all discounted NFT prices in USD, for presale for all 4 weeks of the presale"
      },
      "getFairPrice(uint8)": {
        "notice": "gets NFT fair price in USD"
      },
      "getFairPriceTable()": {
        "notice": "gets NFT price for all tiers in USD ///todo in SAFE!"
      },
      "getMyBalanceTable()": {
        "notice": "gets NFT balance for all tiers"
      },
      "getMyPendingRewardsTotal()": {
        "notice": "returns the amount of the reward share for the NFT holder"
      },
      "getMyShareOfTreasury()": {
        "notice": "**Your NFTs (% Treasury) **is calculated in $ as a relation of total price of NFTs possessed by the $ amount of Investment Pool - including its SAFE and stable coin  components."
      },
      "getPendingRewards(address,uint8,uint256)": {
        "notice": "returns the amount of the reward share for the NFT holder"
      },
      "getPrice(uint8)": {
        "notice": "gets NFT price in USD"
      },
      "getPriceTable()": {
        "notice": "gets all NFT prices in USD, the original ones without discounts"
      },
      "getTreasuryCost()": {
        "notice": "gets the total usd value of the NFT minted"
      },
      "getUnclaimedRewards()": {
        "notice": "undistributed profit amount in USD"
      },
      "setDiscountedPriceTable(uint256[][])": {
        "notice": "sets all discounted NFT prices in USD, for presale for all 4 weeks of the presale"
      },
      "togglePresale()": {
        "notice": "toggles presale status"
      }
    },
    "notice": "Safe Yields NFT token based on ERC1155 standard, id [0..3] represents one of the 4 tiers",
    "version": 1
  },
  "storageLayout": {
    "storage": [
      {
        "astId": 24,
        "contract": "contracts/SafeNFT.sol:SafeNFT",
        "label": "_roles",
        "offset": 0,
        "slot": "0",
        "type": "t_mapping(t_bytes32,t_struct(RoleData)19_storage)"
      },
      {
        "astId": 334,
        "contract": "contracts/SafeNFT.sol:SafeNFT",
        "label": "_roleMembers",
        "offset": 0,
        "slot": "1",
        "type": "t_mapping(t_bytes32,t_struct(AddressSet)4430_storage)"
      },
      {
        "astId": 7531,
        "contract": "contracts/SafeNFT.sol:SafeNFT",
        "label": "wallets",
        "offset": 0,
        "slot": "2",
        "type": "t_array(t_address)2_storage"
      },
      {
        "astId": 726,
        "contract": "contracts/SafeNFT.sol:SafeNFT",
        "label": "_balances",
        "offset": 0,
        "slot": "4",
        "type": "t_mapping(t_uint256,t_mapping(t_address,t_uint256))"
      },
      {
        "astId": 732,
        "contract": "contracts/SafeNFT.sol:SafeNFT",
        "label": "_operatorApprovals",
        "offset": 0,
        "slot": "5",
        "type": "t_mapping(t_address,t_mapping(t_address,t_bool))"
      },
      {
        "astId": 734,
        "contract": "contracts/SafeNFT.sol:SafeNFT",
        "label": "_uri",
        "offset": 0,
        "slot": "6",
        "type": "t_string_storage"
      },
      {
        "astId": 556,
        "contract": "contracts/SafeNFT.sol:SafeNFT",
        "label": "_paused",
        "offset": 0,
        "slot": "7",
        "type": "t_bool"
      },
      {
        "astId": 2213,
        "contract": "contracts/SafeNFT.sol:SafeNFT",
        "label": "_totalSupply",
        "offset": 0,
        "slot": "8",
        "type": "t_mapping(t_uint256,t_uint256)"
      },
      {
        "astId": 657,
        "contract": "contracts/SafeNFT.sol:SafeNFT",
        "label": "_status",
        "offset": 0,
        "slot": "9",
        "type": "t_uint256"
      },
      {
        "astId": 4763,
        "contract": "contracts/SafeNFT.sol:SafeNFT",
        "label": "price",
        "offset": 0,
        "slot": "10",
        "type": "t_array(t_uint256)4_storage"
      },
      {
        "astId": 4769,
        "contract": "contracts/SafeNFT.sol:SafeNFT",
        "label": "presalePrice",
        "offset": 0,
        "slot": "14",
        "type": "t_array(t_array(t_uint256)4_storage)4_storage"
      },
      {
        "astId": 4773,
        "contract": "contracts/SafeNFT.sol:SafeNFT",
        "label": "maxSupply",
        "offset": 0,
        "slot": "30",
        "type": "t_array(t_uint256)4_storage"
      },
      {
        "astId": 4775,
        "contract": "contracts/SafeNFT.sol:SafeNFT",
        "label": "presaleStartDate",
        "offset": 0,
        "slot": "34",
        "type": "t_uint256"
      },
      {
        "astId": 4777,
        "contract": "contracts/SafeNFT.sol:SafeNFT",
        "label": "weekDuration",
        "offset": 0,
        "slot": "35",
        "type": "t_uint256"
      },
      {
        "astId": 4779,
        "contract": "contracts/SafeNFT.sol:SafeNFT",
        "label": "presale",
        "offset": 0,
        "slot": "36",
        "type": "t_bool"
      },
      {
        "astId": 4787,
        "contract": "contracts/SafeNFT.sol:SafeNFT",
        "label": "soldPerPresaleWeek",
        "offset": 0,
        "slot": "37",
        "type": "t_mapping(t_address,t_mapping(t_uint256,t_mapping(t_uint256,t_uint256)))"
      },
      {
        "astId": 4791,
        "contract": "contracts/SafeNFT.sol:SafeNFT",
        "label": "presaleMaxSupply",
        "offset": 0,
        "slot": "38",
        "type": "t_array(t_uint256)4_storage"
      },
      {
        "astId": 4795,
        "contract": "contracts/SafeNFT.sol:SafeNFT",
        "label": "currentlySoldInPresale",
        "offset": 0,
        "slot": "42",
        "type": "t_array(t_uint256)4_storage"
      },
      {
        "astId": 4798,
        "contract": "contracts/SafeNFT.sol:SafeNFT",
        "label": "safeToken",
        "offset": 0,
        "slot": "46",
        "type": "t_contract(ISafeToken)7956"
      },
      {
        "astId": 4801,
        "contract": "contracts/SafeNFT.sol:SafeNFT",
        "label": "safeVault",
        "offset": 0,
        "slot": "47",
        "type": "t_contract(ISafeVault)7994"
      },
      {
        "astId": 4804,
        "contract": "contracts/SafeNFT.sol:SafeNFT",
        "label": "usd",
        "offset": 0,
        "slot": "48",
        "type": "t_contract(IERC20)2651"
      },
      {
        "astId": 4811,
        "contract": "contracts/SafeNFT.sol:SafeNFT",
        "label": "priceDistributionOnMint",
        "offset": 0,
        "slot": "49",
        "type": "t_array(t_uint256)2_storage"
      },
      {
        "astId": 4815,
        "contract": "contracts/SafeNFT.sol:SafeNFT",
        "label": "profitDistribution",
        "offset": 0,
        "slot": "51",
        "type": "t_array(t_uint256)2_storage"
      },
      {
        "astId": 4817,
        "contract": "contracts/SafeNFT.sol:SafeNFT",
        "label": "referralShareForNFTPurchase",
        "offset": 0,
        "slot": "53",
        "type": "t_uint256"
      },
      {
        "astId": 4819,
        "contract": "contracts/SafeNFT.sol:SafeNFT",
        "label": "preVaultWallet",
        "offset": 0,
        "slot": "54",
        "type": "t_address"
      },
      {
        "astId": 4821,
        "contract": "contracts/SafeNFT.sol:SafeNFT",
        "label": "currentDistributionId",
        "offset": 0,
        "slot": "55",
        "type": "t_uint256"
      },
      {
        "astId": 4825,
        "contract": "contracts/SafeNFT.sol:SafeNFT",
        "label": "distributionOfProfit",
        "offset": 0,
        "slot": "56",
        "type": "t_mapping(t_uint256,t_uint256)"
      },
      {
        "astId": 4831,
        "contract": "contracts/SafeNFT.sol:SafeNFT",
        "label": "distributionByTier",
        "offset": 0,
        "slot": "57",
        "type": "t_mapping(t_uint256,t_array(t_uint256)4_storage)"
      },
      {
        "astId": 4837,
        "contract": "contracts/SafeNFT.sol:SafeNFT",
        "label": "distributionTotalSupplySnapshot",
        "offset": 0,
        "slot": "58",
        "type": "t_mapping(t_uint256,t_array(t_uint256)4_storage)"
      },
      {
        "astId": 4845,
        "contract": "contracts/SafeNFT.sol:SafeNFT",
        "label": "alreadyDistributedAmount",
        "offset": 0,
        "slot": "59",
        "type": "t_mapping(t_uint256,t_mapping(t_uint256,t_mapping(t_address,t_uint256)))"
      },
      {
        "astId": 4851,
        "contract": "contracts/SafeNFT.sol:SafeNFT",
        "label": "alreadyDistributedAmountByTier",
        "offset": 0,
        "slot": "60",
        "type": "t_mapping(t_uint256,t_array(t_uint256)4_storage)"
      }
    ],
    "types": {
      "t_address": {
        "encoding": "inplace",
        "label": "address",
        "numberOfBytes": "20"
      },
      "t_array(t_address)2_storage": {
        "base": "t_address",
        "encoding": "inplace",
        "label": "address[2]",
        "numberOfBytes": "64"
      },
      "t_array(t_array(t_uint256)4_storage)4_storage": {
        "base": "t_array(t_uint256)4_storage",
        "encoding": "inplace",
        "label": "uint256[4][4]",
        "numberOfBytes": "512"
      },
      "t_array(t_bytes32)dyn_storage": {
        "base": "t_bytes32",
        "encoding": "dynamic_array",
        "label": "bytes32[]",
        "numberOfBytes": "32"
      },
      "t_array(t_uint256)2_storage": {
        "base": "t_uint256",
        "encoding": "inplace",
        "label": "uint256[2]",
        "numberOfBytes": "64"
      },
      "t_array(t_uint256)4_storage": {
        "base": "t_uint256",
        "encoding": "inplace",
        "label": "uint256[4]",
        "numberOfBytes": "128"
      },
      "t_bool": {
        "encoding": "inplace",
        "label": "bool",
        "numberOfBytes": "1"
      },
      "t_bytes32": {
        "encoding": "inplace",
        "label": "bytes32",
        "numberOfBytes": "32"
      },
      "t_contract(IERC20)2651": {
        "encoding": "inplace",
        "label": "contract IERC20",
        "numberOfBytes": "20"
      },
      "t_contract(ISafeToken)7956": {
        "encoding": "inplace",
        "label": "contract ISafeToken",
        "numberOfBytes": "20"
      },
      "t_contract(ISafeVault)7994": {
        "encoding": "inplace",
        "label": "contract ISafeVault",
        "numberOfBytes": "20"
      },
      "t_mapping(t_address,t_bool)": {
        "encoding": "mapping",
        "key": "t_address",
        "label": "mapping(address => bool)",
        "numberOfBytes": "32",
        "value": "t_bool"
      },
      "t_mapping(t_address,t_mapping(t_address,t_bool))": {
        "encoding": "mapping",
        "key": "t_address",
        "label": "mapping(address => mapping(address => bool))",
        "numberOfBytes": "32",
        "value": "t_mapping(t_address,t_bool)"
      },
      "t_mapping(t_address,t_mapping(t_uint256,t_mapping(t_uint256,t_uint256)))": {
        "encoding": "mapping",
        "key": "t_address",
        "label": "mapping(address => mapping(uint256 => mapping(uint256 => uint256)))",
        "numberOfBytes": "32",
        "value": "t_mapping(t_uint256,t_mapping(t_uint256,t_uint256))"
      },
      "t_mapping(t_address,t_uint256)": {
        "encoding": "mapping",
        "key": "t_address",
        "label": "mapping(address => uint256)",
        "numberOfBytes": "32",
        "value": "t_uint256"
      },
      "t_mapping(t_bytes32,t_struct(AddressSet)4430_storage)": {
        "encoding": "mapping",
        "key": "t_bytes32",
        "label": "mapping(bytes32 => struct EnumerableSet.AddressSet)",
        "numberOfBytes": "32",
        "value": "t_struct(AddressSet)4430_storage"
      },
      "t_mapping(t_bytes32,t_struct(RoleData)19_storage)": {
        "encoding": "mapping",
        "key": "t_bytes32",
        "label": "mapping(bytes32 => struct AccessControl.RoleData)",
        "numberOfBytes": "32",
        "value": "t_struct(RoleData)19_storage"
      },
      "t_mapping(t_bytes32,t_uint256)": {
        "encoding": "mapping",
        "key": "t_bytes32",
        "label": "mapping(bytes32 => uint256)",
        "numberOfBytes": "32",
        "value": "t_uint256"
      },
      "t_mapping(t_uint256,t_array(t_uint256)4_storage)": {
        "encoding": "mapping",
        "key": "t_uint256",
        "label": "mapping(uint256 => uint256[4])",
        "numberOfBytes": "32",
        "value": "t_array(t_uint256)4_storage"
      },
      "t_mapping(t_uint256,t_mapping(t_address,t_uint256))": {
        "encoding": "mapping",
        "key": "t_uint256",
        "label": "mapping(uint256 => mapping(address => uint256))",
        "numberOfBytes": "32",
        "value": "t_mapping(t_address,t_uint256)"
      },
      "t_mapping(t_uint256,t_mapping(t_uint256,t_mapping(t_address,t_uint256)))": {
        "encoding": "mapping",
        "key": "t_uint256",
        "label": "mapping(uint256 => mapping(uint256 => mapping(address => uint256)))",
        "numberOfBytes": "32",
        "value": "t_mapping(t_uint256,t_mapping(t_address,t_uint256))"
      },
      "t_mapping(t_uint256,t_mapping(t_uint256,t_uint256))": {
        "encoding": "mapping",
        "key": "t_uint256",
        "label": "mapping(uint256 => mapping(uint256 => uint256))",
        "numberOfBytes": "32",
        "value": "t_mapping(t_uint256,t_uint256)"
      },
      "t_mapping(t_uint256,t_uint256)": {
        "encoding": "mapping",
        "key": "t_uint256",
        "label": "mapping(uint256 => uint256)",
        "numberOfBytes": "32",
        "value": "t_uint256"
      },
      "t_string_storage": {
        "encoding": "bytes",
        "label": "string",
        "numberOfBytes": "32"
      },
      "t_struct(AddressSet)4430_storage": {
        "encoding": "inplace",
        "label": "struct EnumerableSet.AddressSet",
        "members": [
          {
            "astId": 4429,
            "contract": "contracts/SafeNFT.sol:SafeNFT",
            "label": "_inner",
            "offset": 0,
            "slot": "0",
            "type": "t_struct(Set)4115_storage"
          }
        ],
        "numberOfBytes": "64"
      },
      "t_struct(RoleData)19_storage": {
        "encoding": "inplace",
        "label": "struct AccessControl.RoleData",
        "members": [
          {
            "astId": 16,
            "contract": "contracts/SafeNFT.sol:SafeNFT",
            "label": "members",
            "offset": 0,
            "slot": "0",
            "type": "t_mapping(t_address,t_bool)"
          },
          {
            "astId": 18,
            "contract": "contracts/SafeNFT.sol:SafeNFT",
            "label": "adminRole",
            "offset": 0,
            "slot": "1",
            "type": "t_bytes32"
          }
        ],
        "numberOfBytes": "64"
      },
      "t_struct(Set)4115_storage": {
        "encoding": "inplace",
        "label": "struct EnumerableSet.Set",
        "members": [
          {
            "astId": 4110,
            "contract": "contracts/SafeNFT.sol:SafeNFT",
            "label": "_values",
            "offset": 0,
            "slot": "0",
            "type": "t_array(t_bytes32)dyn_storage"
          },
          {
            "astId": 4114,
            "contract": "contracts/SafeNFT.sol:SafeNFT",
            "label": "_indexes",
            "offset": 0,
            "slot": "1",
            "type": "t_mapping(t_bytes32,t_uint256)"
          }
        ],
        "numberOfBytes": "64"
      },
      "t_uint256": {
        "encoding": "inplace",
        "label": "uint256",
        "numberOfBytes": "32"
      }
    }
  }
}