{
  "address": "0x8EB98b78928393C7Eb40F96e43F0C5dFe0ADd809",
  "abi": [
    {
      "inputs": [
        {
          "internalType": "string",
          "name": "_uri",
          "type": "string"
        },
        {
          "internalType": "uint256[4]",
          "name": "_price",
          "type": "uint256[4]"
        },
        {
          "internalType": "uint256[4]",
          "name": "_maxSupply",
          "type": "uint256[4]"
        },
        {
          "internalType": "contract ISafeToken",
          "name": "_safeToken",
          "type": "address"
        },
        {
          "internalType": "uint256[2]",
          "name": "_priceDistributionOnMint",
          "type": "uint256[2]"
        },
        {
          "internalType": "uint256",
          "name": "_referralShareForNFTPurchase",
          "type": "uint256"
        },
        {
          "internalType": "uint256[2]",
          "name": "_profitDistribution",
          "type": "uint256[2]"
        },
        {
          "internalType": "address",
          "name": "_stabilizerWallet",
          "type": "address"
        }
      ],
      "stateMutability": "nonpayable",
      "type": "constructor"
    },
    {
      "anonymous": false,
      "inputs": [
        {
          "indexed": true,
          "internalType": "address",
          "name": "account",
          "type": "address"
        },
        {
          "indexed": true,
          "internalType": "address",
          "name": "operator",
          "type": "address"
        },
        {
          "indexed": false,
          "internalType": "bool",
          "name": "approved",
          "type": "bool"
        }
      ],
      "name": "ApprovalForAll",
      "type": "event"
    },
    {
      "anonymous": false,
      "inputs": [
        {
          "indexed": false,
          "internalType": "address",
          "name": "account",
          "type": "address"
        }
      ],
      "name": "Paused",
      "type": "event"
    },
    {
      "anonymous": false,
      "inputs": [
        {
          "indexed": true,
          "internalType": "bytes32",
          "name": "role",
          "type": "bytes32"
        },
        {
          "indexed": true,
          "internalType": "bytes32",
          "name": "previousAdminRole",
          "type": "bytes32"
        },
        {
          "indexed": true,
          "internalType": "bytes32",
          "name": "newAdminRole",
          "type": "bytes32"
        }
      ],
      "name": "RoleAdminChanged",
      "type": "event"
    },
    {
      "anonymous": false,
      "inputs": [
        {
          "indexed": true,
          "internalType": "bytes32",
          "name": "role",
          "type": "bytes32"
        },
        {
          "indexed": true,
          "internalType": "address",
          "name": "account",
          "type": "address"
        },
        {
          "indexed": true,
          "internalType": "address",
          "name": "sender",
          "type": "address"
        }
      ],
      "name": "RoleGranted",
      "type": "event"
    },
    {
      "anonymous": false,
      "inputs": [
        {
          "indexed": true,
          "internalType": "bytes32",
          "name": "role",
          "type": "bytes32"
        },
        {
          "indexed": true,
          "internalType": "address",
          "name": "account",
          "type": "address"
        },
        {
          "indexed": true,
          "internalType": "address",
          "name": "sender",
          "type": "address"
        }
      ],
      "name": "RoleRevoked",
      "type": "event"
    },
    {
      "anonymous": false,
      "inputs": [
        {
          "indexed": false,
          "internalType": "bool",
          "name": "_status",
          "type": "bool"
        }
      ],
      "name": "TogglePresale",
      "type": "event"
    },
    {
      "anonymous": false,
      "inputs": [
        {
          "indexed": true,
          "internalType": "address",
          "name": "operator",
          "type": "address"
        },
        {
          "indexed": true,
          "internalType": "address",
          "name": "from",
          "type": "address"
        },
        {
          "indexed": true,
          "internalType": "address",
          "name": "to",
          "type": "address"
        },
        {
          "indexed": false,
          "internalType": "uint256[]",
          "name": "ids",
          "type": "uint256[]"
        },
        {
          "indexed": false,
          "internalType": "uint256[]",
          "name": "values",
          "type": "uint256[]"
        }
      ],
      "name": "TransferBatch",
      "type": "event"
    },
    {
      "anonymous": false,
      "inputs": [
        {
          "indexed": true,
          "internalType": "address",
          "name": "operator",
          "type": "address"
        },
        {
          "indexed": true,
          "internalType": "address",
          "name": "from",
          "type": "address"
        },
        {
          "indexed": true,
          "internalType": "address",
          "name": "to",
          "type": "address"
        },
        {
          "indexed": false,
          "internalType": "uint256",
          "name": "id",
          "type": "uint256"
        },
        {
          "indexed": false,
          "internalType": "uint256",
          "name": "value",
          "type": "uint256"
        }
      ],
      "name": "TransferSingle",
      "type": "event"
    },
    {
      "anonymous": false,
      "inputs": [
        {
          "indexed": false,
          "internalType": "string",
          "name": "value",
          "type": "string"
        },
        {
          "indexed": true,
          "internalType": "uint256",
          "name": "id",
          "type": "uint256"
        }
      ],
      "name": "URI",
      "type": "event"
    },
    {
      "anonymous": false,
      "inputs": [
        {
          "indexed": false,
          "internalType": "address",
          "name": "account",
          "type": "address"
        }
      ],
      "name": "Unpaused",
      "type": "event"
    },
    {
      "inputs": [],
      "name": "DEFAULT_ADMIN_ROLE",
      "outputs": [
        {
          "internalType": "bytes32",
          "name": "",
          "type": "bytes32"
        }
      ],
      "stateMutability": "view",
      "type": "function"
    },
    {
      "inputs": [],
      "name": "MINTER_ROLE",
      "outputs": [
        {
          "internalType": "bytes32",
          "name": "",
          "type": "bytes32"
        }
      ],
      "stateMutability": "view",
      "type": "function"
    },
    {
      "inputs": [],
      "name": "PAUSER_ROLE",
      "outputs": [
        {
          "internalType": "bytes32",
          "name": "",
          "type": "bytes32"
        }
      ],
      "stateMutability": "view",
      "type": "function"
    },
    {
      "inputs": [],
      "name": "TIERS",
      "outputs": [
        {
          "internalType": "uint256",
          "name": "",
          "type": "uint256"
        }
      ],
      "stateMutability": "view",
      "type": "function"
    },
    {
      "inputs": [],
      "name": "WALLETS",
      "outputs": [
        {
          "internalType": "uint256",
          "name": "",
          "type": "uint256"
        }
      ],
      "stateMutability": "view",
      "type": "function"
    },
    {
      "inputs": [],
      "name": "WEEKS",
      "outputs": [
        {
          "internalType": "uint256",
          "name": "",
          "type": "uint256"
        }
      ],
      "stateMutability": "view",
      "type": "function"
    },
    {
      "inputs": [
        {
          "internalType": "uint256",
          "name": "",
          "type": "uint256"
        },
        {
          "internalType": "uint256",
          "name": "",
          "type": "uint256"
        },
        {
          "internalType": "address",
          "name": "",
          "type": "address"
        }
      ],
      "name": "alreadyDistributedAmount",
      "outputs": [
        {
          "internalType": "uint256",
          "name": "",
          "type": "uint256"
        }
      ],
      "stateMutability": "view",
      "type": "function"
    },
    {
      "inputs": [
        {
          "internalType": "uint256",
          "name": "",
          "type": "uint256"
        },
        {
          "internalType": "uint256",
          "name": "",
          "type": "uint256"
        }
      ],
      "name": "alreadyDistributedAmountByTier",
      "outputs": [
        {
          "internalType": "uint256",
          "name": "",
          "type": "uint256"
        }
      ],
      "stateMutability": "view",
      "type": "function"
    },
    {
      "inputs": [
        {
          "internalType": "address",
          "name": "account",
          "type": "address"
        },
        {
          "internalType": "uint256",
          "name": "id",
          "type": "uint256"
        }
      ],
      "name": "balanceOf",
      "outputs": [
        {
          "internalType": "uint256",
          "name": "",
          "type": "uint256"
        }
      ],
      "stateMutability": "view",
      "type": "function"
    },
    {
      "inputs": [
        {
          "internalType": "address[]",
          "name": "accounts",
          "type": "address[]"
        },
        {
          "internalType": "uint256[]",
          "name": "ids",
          "type": "uint256[]"
        }
      ],
      "name": "balanceOfBatch",
      "outputs": [
        {
          "internalType": "uint256[]",
          "name": "",
          "type": "uint256[]"
        }
      ],
      "stateMutability": "view",
      "type": "function"
    },
    {
      "inputs": [
        {
          "internalType": "address",
          "name": "account",
          "type": "address"
        },
        {
          "internalType": "uint256",
          "name": "id",
          "type": "uint256"
        },
        {
          "internalType": "uint256",
          "name": "value",
          "type": "uint256"
        }
      ],
      "name": "burn",
      "outputs": [],
      "stateMutability": "nonpayable",
      "type": "function"
    },
    {
      "inputs": [
        {
          "internalType": "address",
          "name": "account",
          "type": "address"
        },
        {
          "internalType": "uint256[]",
          "name": "ids",
          "type": "uint256[]"
        },
        {
          "internalType": "uint256[]",
          "name": "values",
          "type": "uint256[]"
        }
      ],
      "name": "burnBatch",
      "outputs": [],
      "stateMutability": "nonpayable",
      "type": "function"
    },
    {
      "inputs": [
        {
          "internalType": "enum ISafeNFT.Tiers",
          "name": "_tier",
          "type": "uint8"
        },
        {
          "internalType": "uint256",
          "name": "_amount",
          "type": "uint256"
        },
        {
          "internalType": "address",
          "name": "_referral",
          "type": "address"
        }
      ],
      "name": "buy",
      "outputs": [],
      "stateMutability": "nonpayable",
      "type": "function"
    },
    {
      "inputs": [
        {
          "internalType": "enum ISafeNFT.Tiers",
          "name": "_tier",
          "type": "uint8"
        },
        {
          "internalType": "uint256",
          "name": "_distributionId",
          "type": "uint256"
        }
      ],
      "name": "claimReward",
      "outputs": [],
      "stateMutability": "nonpayable",
      "type": "function"
    },
    {
      "inputs": [],
      "name": "claimRewardsTotal",
      "outputs": [],
      "stateMutability": "nonpayable",
      "type": "function"
    },
    {
      "inputs": [],
      "name": "currentDistributionId",
      "outputs": [
        {
          "internalType": "uint256",
          "name": "",
          "type": "uint256"
        }
      ],
      "stateMutability": "view",
      "type": "function"
    },
    {
      "inputs": [
        {
          "internalType": "uint256",
          "name": "",
          "type": "uint256"
        }
      ],
      "name": "currentlySoldInPresale",
      "outputs": [
        {
          "internalType": "uint256",
          "name": "",
          "type": "uint256"
        }
      ],
      "stateMutability": "view",
      "type": "function"
    },
    {
      "inputs": [
        {
          "internalType": "uint256",
          "name": "_amountUSD",
          "type": "uint256"
        }
      ],
      "name": "distributeProfit",
      "outputs": [],
      "stateMutability": "nonpayable",
      "type": "function"
    },
    {
      "inputs": [
        {
          "internalType": "uint256",
          "name": "",
          "type": "uint256"
        },
        {
          "internalType": "uint256",
          "name": "",
          "type": "uint256"
        }
      ],
      "name": "distributionByTier",
      "outputs": [
        {
          "internalType": "uint256",
          "name": "",
          "type": "uint256"
        }
      ],
      "stateMutability": "view",
      "type": "function"
    },
    {
      "inputs": [
        {
          "internalType": "uint256",
          "name": "",
          "type": "uint256"
        }
      ],
      "name": "distributionOfProfit",
      "outputs": [
        {
          "internalType": "uint256",
          "name": "",
          "type": "uint256"
        }
      ],
      "stateMutability": "view",
      "type": "function"
    },
    {
      "inputs": [
        {
          "internalType": "uint256",
          "name": "",
          "type": "uint256"
        },
        {
          "internalType": "uint256",
          "name": "",
          "type": "uint256"
        }
      ],
      "name": "distributionTotalSupplySnapshot",
      "outputs": [
        {
          "internalType": "uint256",
          "name": "",
          "type": "uint256"
        }
      ],
      "stateMutability": "view",
      "type": "function"
    },
    {
      "inputs": [
        {
          "internalType": "uint256",
          "name": "id",
          "type": "uint256"
        }
      ],
      "name": "exists",
      "outputs": [
        {
          "internalType": "bool",
          "name": "",
          "type": "bool"
        }
      ],
      "stateMutability": "view",
      "type": "function"
    },
    {
      "inputs": [
        {
          "internalType": "address",
          "name": "_user",
          "type": "address"
        }
      ],
      "name": "getBalanceTable",
      "outputs": [
        {
          "internalType": "uint256[]",
          "name": "",
          "type": "uint256[]"
        }
      ],
      "stateMutability": "view",
      "type": "function"
    },
    {
      "inputs": [],
      "name": "getCurrentPresaleWeek",
      "outputs": [
        {
          "internalType": "uint256",
          "name": "",
          "type": "uint256"
        }
      ],
      "stateMutability": "view",
      "type": "function"
    },
    {
      "inputs": [],
      "name": "getDiscountedPriceTable",
      "outputs": [
        {
          "internalType": "uint256[]",
          "name": "",
          "type": "uint256[]"
        }
      ],
      "stateMutability": "view",
      "type": "function"
    },
    {
      "inputs": [
        {
          "internalType": "enum ISafeNFT.Tiers",
          "name": "_tier",
          "type": "uint8"
        }
      ],
      "name": "getFairPrice",
      "outputs": [
        {
          "internalType": "uint256",
          "name": "",
          "type": "uint256"
        }
      ],
      "stateMutability": "view",
      "type": "function"
    },
    {
      "inputs": [],
      "name": "getFairPriceTable",
      "outputs": [
        {
          "internalType": "uint256[]",
          "name": "",
          "type": "uint256[]"
        }
      ],
      "stateMutability": "view",
      "type": "function"
    },
    {
      "inputs": [],
      "name": "getMyBalanceTable",
      "outputs": [
        {
          "internalType": "uint256[]",
          "name": "",
          "type": "uint256[]"
        }
      ],
      "stateMutability": "view",
      "type": "function"
    },
    {
      "inputs": [],
      "name": "getMyPendingRewardsTotal",
      "outputs": [
        {
          "internalType": "uint256",
          "name": "",
          "type": "uint256"
        }
      ],
      "stateMutability": "view",
      "type": "function"
    },
    {
      "inputs": [],
      "name": "getMyShareOfTreasury",
      "outputs": [
        {
          "internalType": "uint256",
          "name": "",
          "type": "uint256"
        }
      ],
      "stateMutability": "view",
      "type": "function"
    },
    {
      "inputs": [
        {
          "internalType": "address",
          "name": "_user",
          "type": "address"
        },
        {
          "internalType": "enum ISafeNFT.Tiers",
          "name": "_tier",
          "type": "uint8"
        },
        {
          "internalType": "uint256",
          "name": "_distributionId",
          "type": "uint256"
        }
      ],
      "name": "getPendingRewards",
      "outputs": [
        {
          "internalType": "uint256",
          "name": "",
          "type": "uint256"
        }
      ],
      "stateMutability": "view",
      "type": "function"
    },
    {
      "inputs": [
        {
          "internalType": "enum ISafeNFT.Tiers",
          "name": "_tier",
          "type": "uint8"
        }
      ],
      "name": "getPresaleSupplyLeft",
      "outputs": [
        {
          "internalType": "uint256[]",
          "name": "",
          "type": "uint256[]"
        }
      ],
      "stateMutability": "view",
      "type": "function"
    },
    {
      "inputs": [
        {
          "internalType": "enum ISafeNFT.Tiers",
          "name": "_tier",
          "type": "uint8"
        }
      ],
      "name": "getPrice",
      "outputs": [
        {
          "internalType": "uint256",
          "name": "",
          "type": "uint256"
        }
      ],
      "stateMutability": "view",
      "type": "function"
    },
    {
      "inputs": [],
      "name": "getPriceTable",
      "outputs": [
        {
          "internalType": "uint256[]",
          "name": "",
          "type": "uint256[]"
        }
      ],
      "stateMutability": "view",
      "type": "function"
    },
    {
      "inputs": [
        {
          "internalType": "bytes32",
          "name": "role",
          "type": "bytes32"
        }
      ],
      "name": "getRoleAdmin",
      "outputs": [
        {
          "internalType": "bytes32",
          "name": "",
          "type": "bytes32"
        }
      ],
      "stateMutability": "view",
      "type": "function"
    },
    {
      "inputs": [
        {
          "internalType": "bytes32",
          "name": "role",
          "type": "bytes32"
        },
        {
          "internalType": "uint256",
          "name": "index",
          "type": "uint256"
        }
      ],
      "name": "getRoleMember",
      "outputs": [
        {
          "internalType": "address",
          "name": "",
          "type": "address"
        }
      ],
      "stateMutability": "view",
      "type": "function"
    },
    {
      "inputs": [
        {
          "internalType": "bytes32",
          "name": "role",
          "type": "bytes32"
        }
      ],
      "name": "getRoleMemberCount",
      "outputs": [
        {
          "internalType": "uint256",
          "name": "",
          "type": "uint256"
        }
      ],
      "stateMutability": "view",
      "type": "function"
    },
    {
      "inputs": [],
      "name": "getTotalSupplyAllTiers",
      "outputs": [
        {
          "internalType": "uint256",
          "name": "",
          "type": "uint256"
        }
      ],
      "stateMutability": "view",
      "type": "function"
    },
    {
      "inputs": [],
      "name": "getTreasuryCost",
      "outputs": [
        {
          "internalType": "uint256",
          "name": "",
          "type": "uint256"
        }
      ],
      "stateMutability": "view",
      "type": "function"
    },
    {
      "inputs": [],
      "name": "getUnclaimedRewards",
      "outputs": [
        {
          "internalType": "uint256",
          "name": "",
          "type": "uint256"
        }
      ],
      "stateMutability": "view",
      "type": "function"
    },
    {
      "inputs": [
        {
          "internalType": "bytes32",
          "name": "role",
          "type": "bytes32"
        },
        {
          "internalType": "address",
          "name": "account",
          "type": "address"
        }
      ],
      "name": "grantRole",
      "outputs": [],
      "stateMutability": "nonpayable",
      "type": "function"
    },
    {
      "inputs": [
        {
          "internalType": "bytes32",
          "name": "role",
          "type": "bytes32"
        },
        {
          "internalType": "address",
          "name": "account",
          "type": "address"
        }
      ],
      "name": "hasRole",
      "outputs": [
        {
          "internalType": "bool",
          "name": "",
          "type": "bool"
        }
      ],
      "stateMutability": "view",
      "type": "function"
    },
    {
      "inputs": [
        {
          "internalType": "string",
          "name": "_uri",
          "type": "string"
        },
        {
          "internalType": "uint256[4]",
          "name": "_price",
          "type": "uint256[4]"
        },
        {
          "internalType": "uint256[4]",
          "name": "_maxSupply",
          "type": "uint256[4]"
        },
        {
          "internalType": "contract ISafeToken",
          "name": "_safeToken",
          "type": "address"
        },
        {
          "internalType": "uint256[2]",
          "name": "_priceDistributionOnMint",
          "type": "uint256[2]"
        },
        {
          "internalType": "uint256",
          "name": "_referralShareForNFTPurchase",
          "type": "uint256"
        },
        {
          "internalType": "uint256[2]",
          "name": "_profitDistribution",
          "type": "uint256[2]"
        },
        {
          "internalType": "address",
          "name": "_stabilizerWallet",
          "type": "address"
        }
      ],
      "name": "initialize",
      "outputs": [],
      "stateMutability": "nonpayable",
      "type": "function"
    },
    {
      "inputs": [
        {
          "internalType": "address",
          "name": "account",
          "type": "address"
        },
        {
          "internalType": "address",
          "name": "operator",
          "type": "address"
        }
      ],
      "name": "isApprovedForAll",
      "outputs": [
        {
          "internalType": "bool",
          "name": "",
          "type": "bool"
        }
      ],
      "stateMutability": "view",
      "type": "function"
    },
    {
      "inputs": [
        {
          "internalType": "uint256",
          "name": "",
          "type": "uint256"
        }
      ],
      "name": "maxSupply",
      "outputs": [
        {
          "internalType": "uint256",
          "name": "",
          "type": "uint256"
        }
      ],
      "stateMutability": "view",
      "type": "function"
    },
    {
      "inputs": [
        {
          "internalType": "address",
          "name": "to",
          "type": "address"
        },
        {
          "internalType": "uint256",
          "name": "id",
          "type": "uint256"
        },
        {
          "internalType": "uint256",
          "name": "amount",
          "type": "uint256"
        },
        {
          "internalType": "bytes",
          "name": "data",
          "type": "bytes"
        }
      ],
      "name": "mint",
      "outputs": [],
      "stateMutability": "nonpayable",
      "type": "function"
    },
    {
      "inputs": [
        {
          "internalType": "address",
          "name": "to",
          "type": "address"
        },
        {
          "internalType": "uint256[]",
          "name": "ids",
          "type": "uint256[]"
        },
        {
          "internalType": "uint256[]",
          "name": "amounts",
          "type": "uint256[]"
        },
        {
          "internalType": "bytes",
          "name": "data",
          "type": "bytes"
        }
      ],
      "name": "mintBatch",
      "outputs": [],
      "stateMutability": "nonpayable",
      "type": "function"
    },
    {
      "inputs": [],
      "name": "name",
      "outputs": [
        {
          "internalType": "string",
          "name": "",
          "type": "string"
        }
      ],
      "stateMutability": "view",
      "type": "function"
    },
    {
      "inputs": [],
      "name": "pause",
      "outputs": [],
      "stateMutability": "nonpayable",
      "type": "function"
    },
    {
      "inputs": [],
      "name": "paused",
      "outputs": [
        {
          "internalType": "bool",
          "name": "",
          "type": "bool"
        }
      ],
      "stateMutability": "view",
      "type": "function"
    },
    {
      "inputs": [],
      "name": "presale",
      "outputs": [
        {
          "internalType": "bool",
          "name": "",
          "type": "bool"
        }
      ],
      "stateMutability": "view",
      "type": "function"
    },
    {
      "inputs": [
        {
          "internalType": "uint256",
          "name": "",
          "type": "uint256"
        }
      ],
      "name": "presaleMaxSupply",
      "outputs": [
        {
          "internalType": "uint256",
          "name": "",
          "type": "uint256"
        }
      ],
      "stateMutability": "view",
      "type": "function"
    },
    {
      "inputs": [
        {
          "internalType": "uint256",
          "name": "",
          "type": "uint256"
        },
        {
          "internalType": "uint256",
          "name": "",
          "type": "uint256"
        }
      ],
      "name": "presalePrice",
      "outputs": [
        {
          "internalType": "uint256",
          "name": "",
          "type": "uint256"
        }
      ],
      "stateMutability": "view",
      "type": "function"
    },
    {
      "inputs": [],
      "name": "presaleStartDate",
      "outputs": [
        {
          "internalType": "uint256",
          "name": "",
          "type": "uint256"
        }
      ],
      "stateMutability": "view",
      "type": "function"
    },
    {
      "inputs": [
        {
          "internalType": "uint256",
          "name": "",
          "type": "uint256"
        }
      ],
      "name": "price",
      "outputs": [
        {
          "internalType": "uint256",
          "name": "",
          "type": "uint256"
        }
      ],
      "stateMutability": "view",
      "type": "function"
    },
    {
      "inputs": [
        {
          "internalType": "uint256",
          "name": "",
          "type": "uint256"
        }
      ],
      "name": "priceDistributionOnMint",
      "outputs": [
        {
          "internalType": "uint256",
          "name": "",
          "type": "uint256"
        }
      ],
      "stateMutability": "view",
      "type": "function"
    },
    {
      "inputs": [
        {
          "internalType": "uint256",
          "name": "",
          "type": "uint256"
        }
      ],
      "name": "profitDistribution",
      "outputs": [
        {
          "internalType": "uint256",
          "name": "",
          "type": "uint256"
        }
      ],
      "stateMutability": "view",
      "type": "function"
    },
    {
      "inputs": [],
      "name": "referralShareForNFTPurchase",
      "outputs": [
        {
          "internalType": "uint256",
          "name": "",
          "type": "uint256"
        }
      ],
      "stateMutability": "view",
      "type": "function"
    },
    {
      "inputs": [
        {
          "internalType": "bytes32",
          "name": "role",
          "type": "bytes32"
        },
        {
          "internalType": "address",
          "name": "account",
          "type": "address"
        }
      ],
      "name": "renounceRole",
      "outputs": [],
      "stateMutability": "nonpayable",
      "type": "function"
    },
    {
      "inputs": [
        {
          "internalType": "bytes32",
          "name": "role",
          "type": "bytes32"
        },
        {
          "internalType": "address",
          "name": "account",
          "type": "address"
        }
      ],
      "name": "revokeRole",
      "outputs": [],
      "stateMutability": "nonpayable",
      "type": "function"
    },
    {
      "inputs": [
        {
          "internalType": "address",
          "name": "from",
          "type": "address"
        },
        {
          "internalType": "address",
          "name": "to",
          "type": "address"
        },
        {
          "internalType": "uint256[]",
          "name": "ids",
          "type": "uint256[]"
        },
        {
          "internalType": "uint256[]",
          "name": "amounts",
          "type": "uint256[]"
        },
        {
          "internalType": "bytes",
          "name": "data",
          "type": "bytes"
        }
      ],
      "name": "safeBatchTransferFrom",
      "outputs": [],
      "stateMutability": "nonpayable",
      "type": "function"
    },
    {
      "inputs": [],
      "name": "safeToken",
      "outputs": [
        {
          "internalType": "contract ISafeToken",
          "name": "",
          "type": "address"
        }
      ],
      "stateMutability": "view",
      "type": "function"
    },
    {
      "inputs": [
        {
          "internalType": "address",
          "name": "from",
          "type": "address"
        },
        {
          "internalType": "address",
          "name": "to",
          "type": "address"
        },
        {
          "internalType": "uint256",
          "name": "id",
          "type": "uint256"
        },
        {
          "internalType": "uint256",
          "name": "amount",
          "type": "uint256"
        },
        {
          "internalType": "bytes",
          "name": "data",
          "type": "bytes"
        }
      ],
      "name": "safeTransferFrom",
      "outputs": [],
      "stateMutability": "nonpayable",
      "type": "function"
    },
    {
      "inputs": [],
      "name": "safeVault",
      "outputs": [
        {
          "internalType": "contract ISafeVault",
          "name": "",
          "type": "address"
        }
      ],
      "stateMutability": "view",
      "type": "function"
    },
    {
      "inputs": [
        {
          "internalType": "address",
          "name": "operator",
          "type": "address"
        },
        {
          "internalType": "bool",
          "name": "approved",
          "type": "bool"
        }
      ],
      "name": "setApprovalForAll",
      "outputs": [],
      "stateMutability": "nonpayable",
      "type": "function"
    },
    {
      "inputs": [
        {
          "internalType": "uint256[][]",
          "name": "_presalePrice",
          "type": "uint256[][]"
        }
      ],
      "name": "setDiscountedPriceTable",
      "outputs": [],
      "stateMutability": "nonpayable",
      "type": "function"
    },
    {
      "inputs": [
        {
          "internalType": "uint256[4]",
          "name": "_presaleMaxSupply",
          "type": "uint256[4]"
        }
      ],
      "name": "setPresaleMaxSupply",
      "outputs": [],
      "stateMutability": "nonpayable",
      "type": "function"
    },
    {
      "inputs": [
        {
          "internalType": "uint256",
          "name": "_launchDate",
          "type": "uint256"
        }
      ],
      "name": "setPresaleStartDate",
      "outputs": [],
      "stateMutability": "nonpayable",
      "type": "function"
    },
    {
      "inputs": [
        {
          "internalType": "address",
          "name": "",
          "type": "address"
        },
        {
          "internalType": "uint256",
          "name": "",
          "type": "uint256"
        },
        {
          "internalType": "uint256",
          "name": "",
          "type": "uint256"
        }
      ],
      "name": "soldPerPresaleWeek",
      "outputs": [
        {
          "internalType": "uint256",
          "name": "",
          "type": "uint256"
        }
      ],
      "stateMutability": "view",
      "type": "function"
    },
    {
      "inputs": [],
      "name": "stabilizerWallet",
      "outputs": [
        {
          "internalType": "address",
          "name": "",
          "type": "address"
        }
      ],
      "stateMutability": "view",
      "type": "function"
    },
    {
      "inputs": [
        {
          "internalType": "bytes4",
          "name": "interfaceId",
          "type": "bytes4"
        }
      ],
      "name": "supportsInterface",
      "outputs": [
        {
          "internalType": "bool",
          "name": "",
          "type": "bool"
        }
      ],
      "stateMutability": "view",
      "type": "function"
    },
    {
      "inputs": [],
      "name": "togglePresale",
      "outputs": [],
      "stateMutability": "nonpayable",
      "type": "function"
    },
    {
      "inputs": [
        {
          "internalType": "uint256",
          "name": "id",
          "type": "uint256"
        }
      ],
      "name": "totalSupply",
      "outputs": [
        {
          "internalType": "uint256",
          "name": "",
          "type": "uint256"
        }
      ],
      "stateMutability": "view",
      "type": "function"
    },
    {
      "inputs": [],
      "name": "unpause",
      "outputs": [],
      "stateMutability": "nonpayable",
      "type": "function"
    },
    {
      "inputs": [
        {
          "internalType": "uint256",
          "name": "",
          "type": "uint256"
        }
      ],
      "name": "uri",
      "outputs": [
        {
          "internalType": "string",
          "name": "",
          "type": "string"
        }
      ],
      "stateMutability": "view",
      "type": "function"
    },
    {
      "inputs": [],
      "name": "usd",
      "outputs": [
        {
          "internalType": "contract IERC20",
          "name": "",
          "type": "address"
        }
      ],
      "stateMutability": "view",
      "type": "function"
    },
    {
      "inputs": [
        {
          "internalType": "uint256",
          "name": "",
          "type": "uint256"
        }
      ],
      "name": "wallets",
      "outputs": [
        {
          "internalType": "address",
          "name": "",
          "type": "address"
        }
      ],
      "stateMutability": "view",
      "type": "function"
    }
  ],
  "transactionHash": "0x7dcb94ed8ffe5e5f3ecdf3308a411872f7530835f105211e724627cb4783054d",
  "args": [
    "",
    [
      "131250000",
      "262500000",
      "525000000",
      "1050000000"
    ],
    [
      2000,
      1000,
      1000,
      1000
    ],
    "0xF3c420B081422C51533150664Fc8F2fb77E39296",
    [
      70000000,
      20000000
    ],
    5000000,
    [
      25000000,
      20000000
    ],
    "0x9F397Baa90A0968E87351Ed7D45797EDF9f9037F"
  ],
  "numDeployments": 9,
  "solcInputHash": "dffc69b0a18f69d4c8d1fb9e61f113f3",
  "bytecode": "0x60806040523480156200001157600080fd5b50604051620065aa380380620065aa8339810160408190526200003491620008af565b87806200004181620000b5565b506007805460ff1916905562000059600033620000c7565b620000746000805160206200658a83398151915233620000c7565b6200008f6000805160206200656a83398151915233620000c7565b506001600955620000a78888888888888888620000d3565b505050505050505062000bf4565b6006620000c3828262000a76565b5050565b620000c382826200050e565b6000620000ed6000805160206200654a8339815191525490565b90506001600160a01b0381166200011d576001600160a01b036000805160206200654a8339815191525562000133565b336001600160a01b038216146200013357600080fd5b6200013e89620000b5565b6200014b600033620000c7565b620001666000805160206200658a83398151915233620000c7565b620001816000805160206200656a83398151915233620000c7565b62000190600a89600462000671565b50620001a0601e88600462000671565b50602380546001600160a01b0319166001600160a01b038816179055620001cb6026866002620006b4565b50602a849055620001e06028846002620006b4565b50602b80546001600160a01b0319166001600160a01b03848116919091179091556023546040805163db7a460560e01b815281516200027394939093169263db7a4605926004808401939192918290030181865afa15801562000247573d6000803e3d6000fd5b505050506040513d601f19601f820116820180604052508101906200026d919062000b42565b62000551565b602360009054906101000a90046001600160a01b03166001600160a01b031663deef94de6040518163ffffffff1660e01b8152600401602060405180830381865afa158015620002c7573d6000803e3d6000fd5b505050506040513d601f19601f82011682018060405250810190620002ed919062000ba9565b602480546001600160a01b0319166001600160a01b039283161790556023546040805163d63a6ccd60e01b81529051919092169163d63a6ccd9160048083019260209291908290030181865afa1580156200034c573d6000803e3d6000fd5b505050506040513d601f19601f8201168201806040525081019062000372919062000ba9565b602580546001600160a01b0319166001600160a01b0392831690811790915560235460405163095ea7b360e01b81529216600483015260001960248301529063095ea7b3906044016020604051808303816000875af1158015620003da573d6000803e3d6000fd5b505050506040513d601f19601f8201168201806040525081019062000400919062000bd0565b506025546024805460405163095ea7b360e01b81526001600160a01b039182166004820152600019928101929092529091169063095ea7b3906044016020604051808303816000875af11580156200045c573d6000803e3d6000fd5b505050506040513d601f19601f8201168201806040525081019062000482919062000bd0565b5060235460405163095ea7b360e01b81526001600160a01b039091166004820181905260001960248301529063095ea7b3906044016020604051808303816000875af1158015620004d7573d6000803e3d6000fd5b505050506040513d601f19601f82011682018060405250810190620004fd919062000bd0565b505060006035555050505050505050565b6200052582826200055f60201b62002e451760201c565b60008281526001602090815260409091206200054c91839062002ec9620005ff821b17901c565b505050565b620000c360028281620006e4565b6000828152602081815260408083206001600160a01b038516845290915290205460ff16620000c3576000828152602081815260408083206001600160a01b03851684529091529020805460ff19166001179055620005bb3390565b6001600160a01b0316816001600160a01b0316837f2f8788117e7eff1d82e926ec794901d17c78024a50270940304540a733656f0d60405160405180910390a45050565b600062000616836001600160a01b0384166200061f565b90505b92915050565b6000818152600183016020526040812054620006685750815460018181018455600084815260208082209093018490558454848252828601909352604090209190915562000619565b50600062000619565b8260048101928215620006a2579160200282015b82811115620006a257825182559160200191906001019062000685565b50620006b09291506200072f565b5090565b8260028101928215620006a25791602002820182811115620006a257825182559160200191906001019062000685565b8260028101928215620006a2579160200282015b82811115620006a257825182546001600160a01b0319166001600160a01b03909116178255602090920191600190910190620006f8565b5b80821115620006b0576000815560010162000730565b634e487b7160e01b600052604160045260246000fd5b604080519081016001600160401b038111828210171562000781576200078162000746565b60405290565b604051601f8201601f191681016001600160401b0381118282101715620007b257620007b262000746565b604052919050565b600082601f830112620007cc57600080fd5b604051608081016001600160401b0381118282101715620007f157620007f162000746565b6040528060808401858111156200080757600080fd5b845b818110156200082357805183526020928301920162000809565b509195945050505050565b6001600160a01b03811681146200084457600080fd5b50565b805162000854816200082e565b919050565b600082601f8301126200086b57600080fd5b620008756200075c565b8060408401858111156200088857600080fd5b845b81811015620008a45780518452602093840193016200088a565b509095945050505050565b600080600080600080600080610200898b031215620008cd57600080fd5b88516001600160401b0380821115620008e557600080fd5b818b0191508b601f830112620008fa57600080fd5b8151818111156200090f576200090f62000746565b6020915062000927601f8201601f1916830162000787565b8181528d838386010111156200093c57600080fd5b60005b828110156200095c5784810184015182820185015283016200093f565b506000838383010152809b505050620009788c828d01620007ba565b985050506200098b8a60a08b01620007ba565b95506200099c6101208a0162000847565b9450620009ae8a6101408b0162000859565b93506101808901519250620009c88a6101a08b0162000859565b9150620009d96101e08a0162000847565b90509295985092959890939650565b600181811c90821680620009fd57607f821691505b60208210810362000a1e57634e487b7160e01b600052602260045260246000fd5b50919050565b601f8211156200054c57600081815260208120601f850160051c8101602086101562000a4d5750805b601f850160051c820191505b8181101562000a6e5782815560010162000a59565b505050505050565b81516001600160401b0381111562000a925762000a9262000746565b62000aaa8162000aa38454620009e8565b8462000a24565b602080601f83116001811462000ae2576000841562000ac95750858301515b600019600386901b1c1916600185901b17855562000a6e565b600085815260208120601f198616915b8281101562000b135788860151825594840194600190910190840162000af2565b508582101562000b325787850151600019600388901b60f8161c191681555b5050505050600190811b01905550565b60006040828403121562000b5557600080fd5b82601f83011262000b6557600080fd5b62000b6f6200075c565b80604084018581111562000b8257600080fd5b845b81811015620008a457805162000b9a816200082e565b84526020938401930162000b84565b60006020828403121562000bbc57600080fd5b815162000bc9816200082e565b9392505050565b60006020828403121562000be357600080fd5b8151801515811462000bc957600080fd5b6159468062000c046000396000f3fe608060405234801561001057600080fd5b506004361061045d5760003560e01c80636b20c4541161024c578063ca15c87311610146578063df71da76116100c3578063f242432a11610087578063f242432a146109fe578063f3430a1614610a11578063f5298aca14610a24578063fd18a25314610a37578063fdea8e0b14610a4a57600080fd5b8063df71da761461096d578063e63ab1e914610980578063e985e9c5146109a7578063f03f1e51146109e3578063f0b2df89146109eb57600080fd5b8063d36dfac81161010a578063d36dfac8146108fa578063d53913931461090d578063d547741f14610934578063d63a6ccd14610947578063deef94de1461095a57600080fd5b8063ca15c87314610888578063ca7b24471461089b578063ced79ce0146108ae578063d0d5a1ba146108df578063d36122b8146108f257600080fd5b80638456cb59116101d457806391d148541161019857806391d1485414610832578063a1f5c23914610845578063a217fddf1461084d578063a22cb46514610855578063bd85b0391461086857600080fd5b80638456cb59146107e9578063869f7594146107f15780638b518082146108045780638d3bd55b146108175780639010d07c1461081f57600080fd5b8063780069e01161021b578063780069e01461078b5780637ad71f72146107945780637dfe5914146107a75780637e93391a146107d857806380a3a783146107e057600080fd5b80636b20c4541461075d5780636d6689ea146107705780636e748f9714610770578063731133e91461077857600080fd5b80632eb2c2d61161035d5780634b3fd05a116102e557806353f7ffd2116102a957806353f7ffd214610706578063592fa65e146107195780635c975abb1461072c5780635e95b4fe146107375780636ac600681461074a57600080fd5b80634b3fd05a146106a35780634e1273f4146106b65780634f558e79146106c957806351ba5b44146106eb57806352a1ad54146106f357600080fd5b806337f1e7f21161032c57806337f1e7f21461064f5780633f4ba83a14610662578063418f7c511461066a57806342e0f7921461067d5780634407a61e1461069057600080fd5b80632eb2c2d61461060e5780632f2ff15d14610621578063343937431461063457806336568abe1461063c57600080fd5b8063104304f3116103eb5780631f7fdffa116103af5780631f7fdffa146105a857806323f77fa9146105bd578063248a9ca3146105d057806326a49e37146105f35780632c13f08c1461060657600080fd5b8063104304f31461055b5780631623025714610570578063168affdf146105785780631729c14f146105985780631a5e85e5146105a057600080fd5b806304ca4c071161043257806304ca4c07146104c757806305adca38146104da57806306fdde03146104e25780630b0b73d21461051d5780630e89341c1461054857600080fd5b8062a13c4c14610462578062fdd58e1461047e57806301ffc9a71461049157806303b2add0146104b4575b600080fd5b61046b602a5481565b6040519081526020015b60405180910390f35b61046b61048c366004614747565b610a5e565b6104a461049f366004614789565b610af9565b6040519015158152602001610475565b61046b6104c23660046147a6565b610b04565b61046b6104d53660046147bf565b610b1b565b61046b610b40565b6105106040518060400160405280600f81526020016e14d8599948165a595b191cc8139195608a1b81525081565b6040516104759190614831565b602b54610530906001600160a01b031681565b6040516001600160a01b039091168152602001610475565b6105106105563660046147a6565b610bc1565b610563610c55565b604051610475919061487f565b61046b610cd2565b61046b6105863660046147a6565b60366020526000908152604090205481565b610563610d69565b61046b610e08565b6105bb6105b63660046149ff565b610e43565b005b6105636105cb366004614a99565b610e9b565b61046b6105de3660046147a6565b60009081526020819052604090206001015490565b61046b6106013660046147a6565b610f07565b610563610f17565b6105bb61061c366004614ab6565b610f8e565b6105bb61062f366004614b63565b610fda565b6105bb611004565b6105bb61064a366004614b63565b611091565b61046b61065d366004614ba7565b61110f565b6105bb61113d565b61046b610678366004614bc2565b6111e3565b6105bb61068b3660046147a6565b6112b0565b6105bb61069e366004614c00565b6112dc565b602354610530906001600160a01b031681565b6105636106c4366004614cbb565b611458565b6104a46106d73660046147a6565b600090815260086020526040902054151590565b61046b611581565b61046b6107013660046147bf565b611604565b6105bb610714366004614d87565b611626565b61046b6107273660046147bf565b61172a565b60075460ff166104a4565b61046b6107453660046147bf565b611746565b6105bb610758366004614e3f565b611762565b6105bb61076b366004614f0c565b611bb9565b61046b600481565b6105bb610786366004614f81565b611bfc565b61046b60355481565b6105306107a23660046147a6565b611c4e565b61046b6107b5366004614fd7565b602c60209081526000938452604080852082529284528284209052825290205481565b61046b611c6e565b61046b60225481565b6105bb611e07565b61046b6107ff3660046147a6565b611eab565b610563610812366004614ba7565b611ebb565b61046b600281565b61053061082d3660046147bf565b611f8a565b6104a4610840366004614b63565b611fa9565b610563611fd2565b61046b600081565b6105bb61086336600461501a565b611fe4565b61046b6108763660046147a6565b60009081526008602052604090205490565b61046b6108963660046147a6565b611fef565b61046b6108a93660046147a6565b612006565b61046b6108bc366004615048565b603960209081526000938452604080852082529284528284209052825290205481565b6105bb6108ed366004615081565b612016565b6105bb6128d5565b6105bb6109083660046147a6565b612940565b61046b7f9f2df0fed2c77648de5860a4cc508cd0818c85b8b8a1ab4ceeef8d981c8956a681565b6105bb610942366004614b63565b612c34565b602554610530906001600160a01b031681565b602454610530906001600160a01b031681565b61046b61097b3660046147a6565b612c59565b61046b7f65d7a28e3265b37a6474929f336521b332c1681b933f6cb9f3376673440d862a81565b6104a46109b53660046150b6565b6001600160a01b03918216600090815260056020908152604080832093909416825291909152205460ff1690565b61046b612c69565b61046b6109f9366004614ba7565b612cd1565b6105bb610a0c3660046150e4565b612d79565b6105bb610a1f36600461514c565b612dbe565b6105bb610a32366004614fd7565b612df2565b61046b610a453660046147a6565b612e35565b602b546104a490600160a01b900460ff1681565b60006001600160a01b038316610ace5760405162461bcd60e51b815260206004820152602a60248201527f455243313135353a2061646472657373207a65726f206973206e6f742061207660448201526930b634b21037bbb732b960b11b60648201526084015b60405180910390fd5b5060008181526004602090815260408083206001600160a01b03861684529091529020545b92915050565b6000610af382612ede565b60318160048110610b1457600080fd5b0154905081565b60376020528160005260406000208160048110610b3757600080fd5b01549150829050565b602b54600090600160a01b900460ff168015610b5e57506000602254115b610ba05760405162461bcd60e51b8152602060048201526013602482015272141c995cd85b19481b9bdd081cdd185c9d1959606a1b6044820152606401610ac5565b62093a8060225442610bb2919061517e565b610bbc9190615191565b905090565b606060068054610bd0906151b3565b80601f0160208091040260200160405190810160405280929190818152602001828054610bfc906151b3565b8015610c495780601f10610c1e57610100808354040283529160200191610c49565b820191906000526020600020905b815481529060010190602001808311610c2c57829003601f168201915b50505050509050919050565b60408051600480825260a08201909252606091600091906020820160808036833701905050905060005b6004811015610ccc57600a8160048110610c9b57610c9b6151e7565b0154828281518110610caf57610caf6151e7565b602090810291909101015280610cc4816151fd565b915050610c7f565b50919050565b600080805b6004811015610ccc5760005b6035548111610d56576000818152603a602052604090208260048110610d0b57610d0b6151e7565b015460008281526037602052604090208360048110610d2c57610d2c6151e7565b0154610d38919061517e565b610d429084615216565b925080610d4e816151fd565b915050610ce3565b5080610d61816151fd565b915050610cd7565b60606000610d75610b40565b60408051600480825260a08201909252919250600091906020820160808036833701905050905060005b6004811015610e0157600e8360048110610dbb57610dbb6151e7565b600402018160048110610dd057610dd06151e7565b0154828281518110610de457610de46151e7565b602090810291909101015280610df9816151fd565b915050610d9f565b5092915050565b600080805b6004811015610ccc57600081815260086020526040902054610e2f9083615216565b915080610e3b816151fd565b915050610e0d565b610e6d7f9f2df0fed2c77648de5860a4cc508cd0818c85b8b8a1ab4ceeef8d981c8956a633611fa9565b610e895760405162461bcd60e51b8152600401610ac590615229565b610e9584848484612ee9565b50505050565b60408051600480825260a08201909252606091600091906020820160808036833701905050905060005b6004811015610e0157610ed88482610a5e565b828281518110610eea57610eea6151e7565b602090810291909101015280610eff816151fd565b915050610ec5565b600a8160048110610b1457600080fd5b60408051600480825260a08201909252606091600091906020820160808036833701905050905060005b6004811015610ccc57610f5f8160038111156109f9576109f9615286565b828281518110610f7157610f716151e7565b602090810291909101015280610f86816151fd565b915050610f41565b6001600160a01b038516331480610faa5750610faa85336109b5565b610fc65760405162461bcd60e51b8152600401610ac59061529c565b610fd38585858585613053565b5050505050565b600082815260208190526040902060010154610ff58161320e565b610fff8383613218565b505050565b61100f600033611fa9565b61102b5760405162461bcd60e51b8152600401610ac5906152ea565b602b805460ff600160a01b808304821615810260ff60a01b1990931692909217928390556040517f512e257b3133a95bd1fef520dafc0dfb212f406af4f808d030e788c8ff536c04936110879390049091161515815260200190565b60405180910390a1565b6001600160a01b03811633146111015760405162461bcd60e51b815260206004820152602f60248201527f416363657373436f6e74726f6c3a2063616e206f6e6c792072656e6f756e636560448201526e103937b632b9903337b91039b2b63360891b6064820152608401610ac5565b61110b828261323a565b5050565b6000600a82600381111561112557611125615286565b60048110611135576111356151e7565b015492915050565b6111677f65d7a28e3265b37a6474929f336521b332c1681b933f6cb9f3376673440d862a33611fa9565b6111d95760405162461bcd60e51b815260206004820152603b60248201527f455243313135355072657365744d696e7465725061757365723a206d7573742060448201527f686176652070617573657220726f6c6520746f20756e706175736500000000006064820152608401610ac5565b6111e161325c565b565b6000808360038111156111f8576111f8615286565b603554600090815260376020526040812091925090826004811061121e5761121e6151e7565b0154600083815260086020526040812054919250901561126a576000838152600860205260409020546112518885610a5e565b61125b9084615339565b6112659190615191565b61126d565b60005b600086815260396020908152604080832087845282528083206001600160a01b038c1684529091529020549091506112a5908261517e565b979650505050505050565b6112bb600033611fa9565b6112d75760405162461bcd60e51b8152600401610ac5906152ea565b602255565b6112e7600033611fa9565b6113035760405162461bcd60e51b8152600401610ac5906152ea565b60048151146113545760405162461bcd60e51b815260206004820152601960248201527f496e636f7272656374206e756d626572206f66207765656b73000000000000006044820152606401610ac5565b60005b600481101561110b576004828281518110611374576113746151e7565b602002602001015151146113ca5760405162461bcd60e51b815260206004820152601960248201527f496e636f7272656374206e756d626572206f66207469657273000000000000006044820152606401610ac5565b60005b6004811015611445578282815181106113e8576113e86151e7565b60200260200101518181518110611401576114016151e7565b6020026020010151600e836004811061141c5761141c6151e7565b600402018260048110611431576114316151e7565b01558061143d816151fd565b9150506113cd565b5080611450816151fd565b915050611357565b606081518351146114bd5760405162461bcd60e51b815260206004820152602960248201527f455243313135353a206163636f756e747320616e6420696473206c656e677468604482015268040dad2e6dac2e8c6d60bb1b6064820152608401610ac5565b600083516001600160401b038111156114d8576114d8614892565b604051908082528060200260200182016040528015611501578160200160208202803683370190505b50905060005b84518110156115795761154c858281518110611525576115256151e7565b602002602001015185838151811061153f5761153f6151e7565b6020026020010151610a5e565b82828151811061155e5761155e6151e7565b6020908102919091010152611572816151fd565b9050611507565b509392505050565b60003381805b60048110156115d757600a81600481106115a3576115a36151e7565b01546115af8483610a5e565b6115b99190615339565b6115c39083615216565b9150806115cf816151fd565b915050611587565b5060006115e2611c6e565b905080156115f9576115f48183615191565b6115fc565b60005b935050505090565b600e826004811061161457600080fd5b600402018160048110610b3757600080fd5b61162e6132a9565b33600061163c8285856111e3565b60255460405163a9059cbb60e01b81526001600160a01b0385811660048301526024820184905292935091169063a9059cbb906044016020604051808303816000875af1158015611691573d6000803e3d6000fd5b505050506040513d601f19601f820116820180604052508101906116b59190615350565b50600083815260396020526040812082918660038111156116d8576116d8615286565b81526020019081526020016000206000846001600160a01b03166001600160a01b0316815260200190815260200160002060008282546117189190615216565b909155505060016009555061110b9050565b603a6020528160005260406000208160048110610b3757600080fd5b60386020528160005260406000208160048110610b3757600080fd5b600061178c7fb53127684a568b3173ae13b9f8a6016e243e63b6e8ee1178d6a717850b5d61035490565b90506001600160a01b0381166117cb576001600160a01b037fb53127684a568b3173ae13b9f8a6016e243e63b6e8ee1178d6a717850b5d6103556117e0565b336001600160a01b038216146117e057600080fd5b6117e989613302565b6117f460003361330e565b61181e7f9f2df0fed2c77648de5860a4cc508cd0818c85b8b8a1ab4ceeef8d981c8956a63361330e565b6118487f65d7a28e3265b37a6474929f336521b332c1681b933f6cb9f3376673440d862a3361330e565b611855600a89600461466a565b50611863601e88600461466a565b50602380546001600160a01b0319166001600160a01b03881617905561188c60268660026146a8565b50602a84905561189f60288460026146a8565b50602b80546001600160a01b0319166001600160a01b03848116919091179091556023546040805163db7a460560e01b8152815161192d94939093169263db7a4605926004808401939192918290030181865afa158015611904573d6000803e3d6000fd5b505050506040513d601f19601f82011682018060405250810190611928919061536d565b613318565b602360009054906101000a90046001600160a01b03166001600160a01b031663deef94de6040518163ffffffff1660e01b8152600401602060405180830381865afa158015611980573d6000803e3d6000fd5b505050506040513d601f19601f820116820180604052508101906119a491906153cf565b602480546001600160a01b0319166001600160a01b039283161790556023546040805163d63a6ccd60e01b81529051919092169163d63a6ccd9160048083019260209291908290030181865afa158015611a02573d6000803e3d6000fd5b505050506040513d601f19601f82011682018060405250810190611a2691906153cf565b602580546001600160a01b0319166001600160a01b0392831690811790915560235460405163095ea7b360e01b81529216600483015260001960248301529063095ea7b3906044016020604051808303816000875af1158015611a8d573d6000803e3d6000fd5b505050506040513d601f19601f82011682018060405250810190611ab19190615350565b506025546024805460405163095ea7b360e01b81526001600160a01b039182166004820152600019928101929092529091169063095ea7b3906044016020604051808303816000875af1158015611b0c573d6000803e3d6000fd5b505050506040513d601f19601f82011682018060405250810190611b309190615350565b5060235460405163095ea7b360e01b81526001600160a01b039091166004820181905260001960248301529063095ea7b3906044016020604051808303816000875af1158015611b84573d6000803e3d6000fd5b505050506040513d601f19601f82011682018060405250810190611ba89190615350565b505060006035555050505050505050565b6001600160a01b038316331480611bd55750611bd583336109b5565b611bf15760405162461bcd60e51b8152600401610ac59061529c565b610fff838383613324565b611c267f9f2df0fed2c77648de5860a4cc508cd0818c85b8b8a1ab4ceeef8d981c8956a633611fa9565b611c425760405162461bcd60e51b8152600401610ac590615229565b610e95848484846134cd565b60028160028110611c5e57600080fd5b01546001600160a01b0316905081565b6000620f4240602360009054906101000a90046001600160a01b03166001600160a01b031663a035b1fe6040518163ffffffff1660e01b8152600401602060405180830381865afa158015611cc7573d6000803e3d6000fd5b505050506040513d601f19601f82011682018060405250810190611ceb91906153ec565b6023546001600160a01b03166370a0823160026000015460405160e083901b6001600160e01b03191681526001600160a01b039091166004820152602401602060405180830381865afa158015611d46573d6000803e3d6000fd5b505050506040513d601f19601f82011682018060405250810190611d6a91906153ec565b611d749190615339565b611d7e9190615191565b6025546001600160a01b03166370a0823160026000015460405160e083901b6001600160e01b03191681526001600160a01b039091166004820152602401602060405180830381865afa158015611dd9573d6000803e3d6000fd5b505050506040513d601f19601f82011682018060405250810190611dfd91906153ec565b610bbc9190615216565b611e317f65d7a28e3265b37a6474929f336521b332c1681b933f6cb9f3376673440d862a33611fa9565b611ea35760405162461bcd60e51b815260206004820152603960248201527f455243313135355072657365744d696e7465725061757365723a206d7573742060448201527f686176652070617573657220726f6c6520746f207061757365000000000000006064820152608401610ac5565b6111e16135c7565b601e8160048110610b1457600080fd5b60606000611ec7610b40565b60408051600480825260a08201909252919250600091906020820160808036833701905050905060005b6004811015611579576031856003811115611f0e57611f0e615286565b60048110611f1e57611f1e6151e7565b015483602d876003811115611f3557611f35615286565b60048110611f4557611f456151e7565b0154611f519190615339565b611f5b919061517e565b828281518110611f6d57611f6d6151e7565b602090810291909101015280611f82816151fd565b915050611ef1565b6000828152600160205260408120611fa29083613604565b9392505050565b6000918252602082815260408084206001600160a01b0393909316845291905290205460ff1690565b606033611fde81610e9b565b91505090565b61110b338383613610565b6000818152600160205260408120610af3906136f0565b60288160028110610b1457600080fd5b61201e6132a9565b600082116120945760405162461bcd60e51b815260206004820152603960248201527f45205243313135355072657365744d696e7465725061757365723a20616d6f7560448201527f6e74206d7573742062652067726561746572207468616e2030000000000000006064820152608401610ac5565b6000600a8460038111156120aa576120aa615286565b600481106120ba576120ba6151e7565b01541161212f5760405162461bcd60e51b815260206004820152603c60248201527f455243313135355072657365744d696e7465725061757365723a20746965722060448201527f7072696365206d7573742062652067726561746572207468616e2030000000006064820152608401610ac5565b6001600160a01b0381161580159080612159575080801561215957506001600160a01b0382163314155b6121b45760405162461bcd60e51b815260206004820152602660248201527f526566657272616c206d75737420626520646966666572656e742066726f6d2060448201526539b2b73232b960d11b6064820152608401610ac5565b60008460038111156121c8576121c8615286565b602b54909150600160a01b900460ff1661246557600084600a8760038111156121f3576121f3615286565b60048110612203576122036151e7565b015461220f9190615339565b6025549091506001600160a01b03166323b872dd336040516001600160e01b031960e084901b1681526001600160a01b039091166004820152306024820152604481018490526064016020604051808303816000875af1158015612277573d6000803e3d6000fd5b505050506040513d601f19601f8201168201806040525081019061229b9190615350565b5060006122b8826026866122b05760006136fa565b602a546136fa565b60235460405163f7e0ba5f60e01b8152600481018390529192506000916001600160a01b039091169063f7e0ba5f906024016020604051808303816000875af1158015612309573d6000803e3d6000fd5b505050506040513d601f19601f8201168201806040525081019061232d91906153ec565b60235490915060009061234b906001600160a01b0316836026613769565b90508515612388576000612378602360009054906101000a90046001600160a01b0316848a602a54613867565b90506123848183615216565b9150505b6025546040516370a0823160e01b81523060048201526000916001600160a01b0316906370a0823190602401602060405180830381865afa1580156123d1573d6000803e3d6000fd5b505050506040513d601f19601f820116820180604052508101906123f591906153ec565b9050801561245b576024805460405163b6b55f2560e01b8152600481018490526001600160a01b039091169163b6b55f259101600060405180830381600087803b15801561244257600080fd5b505af1158015612456573d6000803e3d6000fd5b505050505b50505050506128ae565b6022544210156124b75760405162461bcd60e51b815260206004820152601a60248201527f50726573616c65206973206e6f742073746172746564207965740000000000006044820152606401610ac5565b60006124c1610b40565b90506000600e82600481106124d8576124d86151e7565b60408051608081019182905292600492830201919082845b8154815260200190600101908083116124f0575050505050905085602c60006125163390565b6001600160a01b03166001600160a01b031681526020019081526020016000206000848152602001908152602001600020600089600381111561255b5761255b615286565b815260200190815260200160002060008282546125789190615216565b90915550869050603188600381111561259357612593615286565b600481106125a3576125a36151e7565b0160008282546125b39190615216565b90915550829050602d8860038111156125ce576125ce615286565b600481106125de576125de6151e7565b01546125ea9190615339565b60318860038111156125fe576125fe615286565b6004811061260e5761260e6151e7565b0154111561266a5760405162461bcd60e51b815260206004820152602360248201527f50726573616c65206d617820737570706c7920706572207765656b20726561636044820152621a195960ea1b6064820152608401610ac5565b6000868289600381111561268057612680615286565b60048110612690576126906151e7565b602002015161269f9190615339565b6025549091506001600160a01b03166323b872dd336040516001600160e01b031960e084901b1681526001600160a01b039091166004820152306024820152604481018490526064016020604051808303816000875af1158015612707573d6000803e3d6000fd5b505050506040513d601f19601f8201168201806040525081019061272b9190615350565b5060008561273a576000612757565b602554602a54612757916001600160a01b03169084908a90613867565b905060008615612768576000612793565b602554612793906001600160a01b031684600260000154602a546001600160a01b0390911690613867565b6025549091506000906127b1906001600160a01b0316856026613769565b6025546040516370a0823160e01b81523060048201529192506000916001600160a01b03909116906370a0823190602401602060405180830381865afa1580156127ff573d6000803e3d6000fd5b505050506040513d601f19601f8201168201806040525081019061282391906153ec565b905080156128a657602554602b5460405163a9059cbb60e01b81526001600160a01b0391821660048201526024810184905291169063a9059cbb906044016020604051808303816000875af1158015612880573d6000803e3d6000fd5b505050506040513d601f19601f820116820180604052508101906128a49190615350565b505b505050505050505b6128c9338286604051806020016040528060008152506134cd565b5050610fff6001600955565b6128dd6132a9565b60005b60048110156129355760005b60355481116129225761291082600381111561290a5761290a615286565b82611626565b8061291a816151fd565b9150506128ec565b508061292d816151fd565b9150506128e0565b506111e16001600955565b6129486132a9565b6025546001600160a01b03166323b872dd336040516001600160e01b031960e084901b1681526001600160a01b039091166004820152306024820152604481018490526064016020604051808303816000875af11580156129ad573d6000803e3d6000fd5b505050506040513d601f19601f820116820180604052508101906129d19190615350565b5060006129df600283615191565b905060006129f96129f0838561517e565b602860006136fa565b60235460405163f7e0ba5f60e01b8152600481018390529192506000916001600160a01b039091169063f7e0ba5f906024016020604051808303816000875af1158015612a4a573d6000803e3d6000fd5b505050506040513d601f19601f82011682018060405250810190612a6e91906153ec565b602354909150600090612a8c906001600160a01b0316836028613769565b603580549192506000612a9e836151fd565b90915550506035546000908152603660205260408120829055612abf610e08565b905060005b6004811015612b4d576000818152600860209081526040808320546035548452603890925290912081908360048110612aff57612aff6151e7565b015582612b0c8289615339565b612b169190615191565b60355460009081526037602052604090208360048110612b3857612b386151e7565b01555080612b45816151fd565b915050612ac4565b506025546040516370a0823160e01b81523060048201526000916001600160a01b0316906370a0823190602401602060405180830381865afa158015612b97573d6000803e3d6000fd5b505050506040513d601f19601f82011682018060405250810190612bbb91906153ec565b90508015612c21576024805460405163b6b55f2560e01b8152600481018490526001600160a01b039091169163b6b55f259101600060405180830381600087803b158015612c0857600080fd5b505af1158015612c1c573d6000803e3d6000fd5b505050505b505050505050612c316001600955565b50565b600082815260208190526040902060010154612c4f8161320e565b610fff838361323a565b60268160028110610b1457600080fd5b60003381805b6004811015610e015760005b6035548111612cbe57612ca084836003811115612c9a57612c9a615286565b836111e3565b612caa9084615216565b925080612cb6816151fd565b915050612c7b565b5080612cc9816151fd565b915050612c6f565b6000612ce882600381111561087657610876615286565b15612d0757612d0282600381111561087657610876615286565b612d0a565b60015b6035546000908152603760205260409020836003811115612d2d57612d2d615286565b60048110612d3d57612d3d6151e7565b0154612d499190615191565b600a836003811115612d5d57612d5d615286565b60048110612d6d57612d6d6151e7565b0154610af39190615216565b6001600160a01b038516331480612d955750612d9585336109b5565b612db15760405162461bcd60e51b8152600401610ac59061529c565b610fd385858585856139cc565b612dc9600033611fa9565b612de55760405162461bcd60e51b8152600401610ac5906152ea565b61110b602d82600461466a565b6001600160a01b038316331480612e0e5750612e0e83336109b5565b612e2a5760405162461bcd60e51b8152600401610ac59061529c565b610fff838383613b16565b602d8160048110610b1457600080fd5b612e4f8282611fa9565b61110b576000828152602081815260408083206001600160a01b03851684529091529020805460ff19166001179055612e853390565b6001600160a01b0316816001600160a01b0316837f2f8788117e7eff1d82e926ec794901d17c78024a50270940304540a733656f0d60405160405180910390a45050565b6000611fa2836001600160a01b038416613c3c565b6000610af382613c8b565b6001600160a01b038416612f0f5760405162461bcd60e51b8152600401610ac590615405565b8151835114612f305760405162461bcd60e51b8152600401610ac590615446565b33612f4081600087878787613ccb565b60005b8451811015612fdc57838181518110612f5e57612f5e6151e7565b602002602001015160046000878481518110612f7c57612f7c6151e7565b602002602001015181526020019081526020016000206000886001600160a01b03166001600160a01b031681526020019081526020016000206000828254612fc49190615216565b90915550819050612fd4816151fd565b915050612f43565b50846001600160a01b031660006001600160a01b0316826001600160a01b03167f4a39dc06d4c0dbc64b70af90fd698a233a518aa5d07e595d983b8c0526c8f7fb878760405161302d92919061548e565b60405180910390a461304481600087878787613cd9565b610fd381600087878787613d8b565b81518351146130745760405162461bcd60e51b8152600401610ac590615446565b6001600160a01b03841661309a5760405162461bcd60e51b8152600401610ac5906154b3565b336130a9818787878787613ccb565b60005b84518110156131925760008582815181106130c9576130c96151e7565b6020026020010151905060008583815181106130e7576130e76151e7565b60209081029190910181015160008481526004835260408082206001600160a01b038e1683529093529190912054909150818110156131385760405162461bcd60e51b8152600401610ac5906154f8565b60008381526004602090815260408083206001600160a01b038e8116855292528083208585039055908b16825281208054849290613177908490615216565b925050819055505050508061318b906151fd565b90506130ac565b50846001600160a01b0316866001600160a01b0316826001600160a01b03167f4a39dc06d4c0dbc64b70af90fd698a233a518aa5d07e595d983b8c0526c8f7fb87876040516131e292919061548e565b60405180910390a46131f8818787878787613cd9565b613206818787878787613d8b565b505050505050565b612c318133613ee6565b6132228282612e45565b6000828152600160205260409020610fff9082612ec9565b6132448282613f3f565b6000828152600160205260409020610fff9082613fa4565b613264613fb9565b6007805460ff191690557f5db9ee0a495bf2e6ff9c91a7834c1ba4fdd244a5e8aa4e537bd38aeae4b073aa335b6040516001600160a01b039091168152602001611087565b6002600954036132fb5760405162461bcd60e51b815260206004820152601f60248201527f5265656e7472616e637947756172643a207265656e7472616e742063616c6c006044820152606401610ac5565b6002600955565b600661110b8282615588565b61110b8282613218565b61110b600282816146d5565b6001600160a01b03831661334a5760405162461bcd60e51b8152600401610ac590615647565b805182511461336b5760405162461bcd60e51b8152600401610ac590615446565b600033905061338e81856000868660405180602001604052806000815250613ccb565b60005b83518110156134565760008482815181106133ae576133ae6151e7565b6020026020010151905060008483815181106133cc576133cc6151e7565b60209081029190910181015160008481526004835260408082206001600160a01b038c16835290935291909120549091508181101561341d5760405162461bcd60e51b8152600401610ac59061568a565b60009283526004602090815260408085206001600160a01b038b168652909152909220910390558061344e816151fd565b915050613391565b5060006001600160a01b0316846001600160a01b0316826001600160a01b03167f4a39dc06d4c0dbc64b70af90fd698a233a518aa5d07e595d983b8c0526c8f7fb86866040516134a792919061548e565b60405180910390a4610e9581856000868660405180602001604052806000815250613cd9565b6001600160a01b0384166134f35760405162461bcd60e51b8152600401610ac590615405565b3360006134ff85614002565b9050600061350c85614002565b905061351d83600089858589613ccb565b60008681526004602090815260408083206001600160a01b038b1684529091528120805487929061354f908490615216565b909155505060408051878152602081018790526001600160a01b03808a1692600092918716917fc3d58168c5ae7397731d063d5bbf3d657854427343f4c083240f7aacaa2d0f62910160405180910390a46135af83600089858589613cd9565b6135be8360008989898961404d565b50505050505050565b6135cf614108565b6007805460ff191660011790557f62e78cea01bee320cd4e420270b5ea74000d11b0c9f74754ebdbfc544b05a2586132913390565b6000611fa2838361414e565b816001600160a01b0316836001600160a01b0316036136835760405162461bcd60e51b815260206004820152602960248201527f455243313135353a2073657474696e6720617070726f76616c20737461747573604482015268103337b91039b2b63360b91b6064820152608401610ac5565b6001600160a01b03838116600081815260056020908152604080832094871680845294825291829020805460ff191686151590811790915591519182527f17307eab39ab6107e8899845ad3d59bd9653f200f220920489ca2b5937696c31910160405180910390a3505050565b6000610af3825490565b600080805b600281101561373a5784816002811061371a5761371a6151e7565b01546137269083615216565b915080613732816151fd565b9150506136ff565b506137458382615216565b90506305f5e1006137568287615339565b6137609190615191565b95945050505050565b600080805b600281101561385e5760006305f5e100858360028110613790576137906151e7565b015461379c9088615339565b6137a69190615191565b9050866001600160a01b031663a9059cbb600284600281106137ca576137ca6151e7565b015460405160e083901b6001600160e01b03191681526001600160a01b039091166004820152602481018490526044016020604051808303816000875af1158015613819573d6000803e3d6000fd5b505050506040513d601f19601f8201168201806040525081019061383d9190615350565b506138488184615216565b9250508080613856906151fd565b91505061376e565b50949350505050565b6040516370a0823160e01b815230600482015260009081906001600160a01b038716906370a0823190602401602060405180830381865afa1580156138b0573d6000803e3d6000fd5b505050506040513d601f19601f820116820180604052508101906138d491906153ec565b905060006305f5e1006138e78588615339565b6138f19190615191565b90508082101561394e5760405162461bcd60e51b815260206004820152602260248201527f4e6f7420656e6f7567682062616c616e6365206f6e2074686520636f6e74726160448201526118dd60f21b6064820152608401610ac5565b60405163a9059cbb60e01b81526001600160a01b0386811660048301526024820183905288169063a9059cbb906044016020604051808303816000875af115801561399d573d6000803e3d6000fd5b505050506040513d601f19601f820116820180604052508101906139c19190615350565b509695505050505050565b6001600160a01b0384166139f25760405162461bcd60e51b8152600401610ac5906154b3565b3360006139fe85614002565b90506000613a0b85614002565b9050613a1b838989858589613ccb565b60008681526004602090815260408083206001600160a01b038c16845290915290205485811015613a5e5760405162461bcd60e51b8152600401610ac5906154f8565b60008781526004602090815260408083206001600160a01b038d8116855292528083208985039055908a16825281208054889290613a9d908490615216565b909155505060408051888152602081018890526001600160a01b03808b16928c821692918816917fc3d58168c5ae7397731d063d5bbf3d657854427343f4c083240f7aacaa2d0f62910160405180910390a4613afd848a8a86868a613cd9565b613b0b848a8a8a8a8a61404d565b505050505050505050565b6001600160a01b038316613b3c5760405162461bcd60e51b8152600401610ac590615647565b336000613b4884614002565b90506000613b5584614002565b9050613b7583876000858560405180602001604052806000815250613ccb565b60008581526004602090815260408083206001600160a01b038a16845290915290205484811015613bb85760405162461bcd60e51b8152600401610ac59061568a565b60008681526004602090815260408083206001600160a01b038b81168086529184528285208a8703905582518b81529384018a90529092908816917fc3d58168c5ae7397731d063d5bbf3d657854427343f4c083240f7aacaa2d0f62910160405180910390a46135be84886000868660405180602001604052806000815250613cd9565b6000818152600183016020526040812054613c8357508154600181810184556000848152602080822090930184905584548482528286019093526040902091909155610af3565b506000610af3565b60006001600160e01b03198216636cdb3d1360e11b1480613cbc57506001600160e01b031982166303a24d0760e21b145b80610af35750610af382614178565b61320686868686868661419d565b601e83600081518110613cee57613cee6151e7565b602002602001015160048110613d0657613d066151e7565b0154613d3884600081518110613d1e57613d1e6151e7565b602002602001015160009081526008602052604090205490565b1115613d865760405162461bcd60e51b815260206004820152601b60248201527f536166654e46543a206d617820737570706c79207265616368656400000000006044820152606401610ac5565b613206565b6001600160a01b0384163b156132065760405163bc197c8160e01b81526001600160a01b0385169063bc197c8190613dcf90899089908890889088906004016156ce565b6020604051808303816000875af1925050508015613e0a575060408051601f3d908101601f19168201909252613e079181019061572c565b60015b613eb657613e16615749565b806308c379a003613e4f5750613e2a615765565b80613e355750613e51565b8060405162461bcd60e51b8152600401610ac59190614831565b505b60405162461bcd60e51b815260206004820152603460248201527f455243313135353a207472616e7366657220746f206e6f6e2d455243313135356044820152732932b1b2b4bb32b91034b6b83632b6b2b73a32b960611b6064820152608401610ac5565b6001600160e01b0319811663bc197c8160e01b146135be5760405162461bcd60e51b8152600401610ac5906157ee565b613ef08282611fa9565b61110b57613efd81614324565b613f08836020614336565b604051602001613f19929190615836565b60408051601f198184030181529082905262461bcd60e51b8252610ac591600401614831565b613f498282611fa9565b1561110b576000828152602081815260408083206001600160a01b0385168085529252808320805460ff1916905551339285917ff6391f5c32d9c69d2a47ea670b442974b53935d1edc7fd64eb21e047a839171b9190a45050565b6000611fa2836001600160a01b0384166144d1565b60075460ff166111e15760405162461bcd60e51b815260206004820152601460248201527314185d5cd8589b194e881b9bdd081c185d5cd95960621b6044820152606401610ac5565b6040805160018082528183019092526060916000919060208083019080368337019050509050828160008151811061403c5761403c6151e7565b602090810291909101015292915050565b6001600160a01b0384163b156132065760405163f23a6e6160e01b81526001600160a01b0385169063f23a6e619061409190899089908890889088906004016158ab565b6020604051808303816000875af19250505080156140cc575060408051601f3d908101601f191682019092526140c99181019061572c565b60015b6140d857613e16615749565b6001600160e01b0319811663f23a6e6160e01b146135be5760405162461bcd60e51b8152600401610ac5906157ee565b60075460ff16156111e15760405162461bcd60e51b815260206004820152601060248201526f14185d5cd8589b194e881c185d5cd95960821b6044820152606401610ac5565b6000826000018281548110614165576141656151e7565b9060005260206000200154905092915050565b60006001600160e01b03198216635a05180f60e01b1480610af35750610af3826145c4565b6141ab8686868686866145f9565b6001600160a01b0385166142325760005b8351811015614230578281815181106141d7576141d76151e7565b6020026020010151600860008684815181106141f5576141f56151e7565b60200260200101518152602001908152602001600020600082825461421a9190615216565b909155506142299050816151fd565b90506141bc565b505b6001600160a01b0384166132065760005b83518110156135be576000848281518110614260576142606151e7565b60200260200101519050600084838151811061427e5761427e6151e7565b60200260200101519050600060086000848152602001908152602001600020549050818110156143015760405162461bcd60e51b815260206004820152602860248201527f455243313135353a206275726e20616d6f756e74206578636565647320746f74604482015267616c537570706c7960c01b6064820152608401610ac5565b6000928352600860205260409092209103905561431d816151fd565b9050614243565b6060610af36001600160a01b03831660145b60606000614345836002615339565b614350906002615216565b6001600160401b0381111561436757614367614892565b6040519080825280601f01601f191660200182016040528015614391576020820181803683370190505b509050600360fc1b816000815181106143ac576143ac6151e7565b60200101906001600160f81b031916908160001a905350600f60fb1b816001815181106143db576143db6151e7565b60200101906001600160f81b031916908160001a90535060006143ff846002615339565b61440a906001615216565b90505b6001811115614482576f181899199a1a9b1b9c1cb0b131b232b360811b85600f166010811061443e5761443e6151e7565b1a60f81b828281518110614454576144546151e7565b60200101906001600160f81b031916908160001a90535060049490941c9361447b816158e3565b905061440d565b508315611fa25760405162461bcd60e51b815260206004820181905260248201527f537472696e67733a20686578206c656e67746820696e73756666696369656e746044820152606401610ac5565b600081815260018301602052604081205480156145ba5760006144f560018361517e565b85549091506000906145099060019061517e565b905081811461456e576000866000018281548110614529576145296151e7565b906000526020600020015490508087600001848154811061454c5761454c6151e7565b6000918252602080832090910192909255918252600188019052604090208390555b855486908061457f5761457f6158fa565b600190038181906000526020600020016000905590558560010160008681526020019081526020016000206000905560019350505050610af3565b6000915050610af3565b60006001600160e01b03198216637965db0b60e01b1480610af357506301ffc9a760e01b6001600160e01b0319831614610af3565b61320686868686868660075460ff16156132065760405162461bcd60e51b815260206004820152602c60248201527f455243313135355061757361626c653a20746f6b656e207472616e736665722060448201526b1dda1a5b19481c185d5cd95960a21b6064820152608401610ac5565b8260048101928215614698579160200282015b8281111561469857825182559160200191906001019061467d565b506146a492915061471d565b5090565b8260028101928215614698579160200282018281111561469857825182559160200191906001019061467d565b8260028101928215614698579160200282015b8281111561469857825182546001600160a01b0319166001600160a01b039091161782556020909201916001909101906146e8565b5b808211156146a4576000815560010161471e565b6001600160a01b0381168114612c3157600080fd5b6000806040838503121561475a57600080fd5b823561476581614732565b946020939093013593505050565b6001600160e01b031981168114612c3157600080fd5b60006020828403121561479b57600080fd5b8135611fa281614773565b6000602082840312156147b857600080fd5b5035919050565b600080604083850312156147d257600080fd5b50508035926020909101359150565b60005b838110156147fc5781810151838201526020016147e4565b50506000910152565b6000815180845261481d8160208601602086016147e1565b601f01601f19169290920160200192915050565b602081526000611fa26020830184614805565b600081518084526020808501945080840160005b8381101561487457815187529582019590820190600101614858565b509495945050505050565b602081526000611fa26020830184614844565b634e487b7160e01b600052604160045260246000fd5b604081018181106001600160401b03821117156148c7576148c7614892565b60405250565b601f8201601f191681016001600160401b03811182821017156148f2576148f2614892565b6040525050565b60006001600160401b0382111561491257614912614892565b5060051b60200190565b600082601f83011261492d57600080fd5b8135602061493a826148f9565b60405161494782826148cd565b83815260059390931b850182019282810191508684111561496757600080fd5b8286015b848110156139c1578035835291830191830161496b565b60006001600160401b0383111561499b5761499b614892565b6040516149b2601f8501601f1916602001826148cd565b8091508381528484840111156149c757600080fd5b83836020830137600060208583010152509392505050565b600082601f8301126149f057600080fd5b611fa283833560208501614982565b60008060008060808587031215614a1557600080fd5b8435614a2081614732565b935060208501356001600160401b0380821115614a3c57600080fd5b614a488883890161491c565b94506040870135915080821115614a5e57600080fd5b614a6a8883890161491c565b93506060870135915080821115614a8057600080fd5b50614a8d878288016149df565b91505092959194509250565b600060208284031215614aab57600080fd5b8135611fa281614732565b600080600080600060a08688031215614ace57600080fd5b8535614ad981614732565b94506020860135614ae981614732565b935060408601356001600160401b0380821115614b0557600080fd5b614b1189838a0161491c565b94506060880135915080821115614b2757600080fd5b614b3389838a0161491c565b93506080880135915080821115614b4957600080fd5b50614b56888289016149df565b9150509295509295909350565b60008060408385031215614b7657600080fd5b823591506020830135614b8881614732565b809150509250929050565b803560048110614ba257600080fd5b919050565b600060208284031215614bb957600080fd5b611fa282614b93565b600080600060608486031215614bd757600080fd5b8335614be281614732565b9250614bf060208501614b93565b9150604084013590509250925092565b60006020808385031215614c1357600080fd5b82356001600160401b0380821115614c2a57600080fd5b818501915085601f830112614c3e57600080fd5b8135614c49816148f9565b604051614c5682826148cd565b82815260059290921b8401850191858101915088831115614c7657600080fd5b8585015b83811015614cae57803585811115614c925760008081fd5b614ca08b89838a010161491c565b845250918601918601614c7a565b5098975050505050505050565b60008060408385031215614cce57600080fd5b82356001600160401b0380821115614ce557600080fd5b818501915085601f830112614cf957600080fd5b81356020614d06826148f9565b604051614d1382826148cd565b83815260059390931b8501820192828101915089841115614d3357600080fd5b948201945b83861015614d5a578535614d4b81614732565b82529482019490820190614d38565b96505086013592505080821115614d7057600080fd5b50614d7d8582860161491c565b9150509250929050565b60008060408385031215614d9a57600080fd5b61476583614b93565b600082601f830112614db457600080fd5b604051608081018181106001600160401b0382111715614dd657614dd6614892565b604052806080840185811115614deb57600080fd5b845b81811015614e05578035835260209283019201614ded565b509195945050505050565b600082601f830112614e2157600080fd5b604051614e2d816148a8565b806040840185811115614deb57600080fd5b600080600080600080600080610200898b031215614e5c57600080fd5b88356001600160401b03811115614e7257600080fd5b8901601f81018b13614e8357600080fd5b614e928b823560208401614982565b985050614ea28a60208b01614da3565b9650614eb18a60a08b01614da3565b9550610120890135614ec281614732565b9450614ed28a6101408b01614e10565b93506101808901359250614eea8a6101a08b01614e10565b91506101e0890135614efb81614732565b809150509295985092959890939650565b600080600060608486031215614f2157600080fd5b8335614f2c81614732565b925060208401356001600160401b0380821115614f4857600080fd5b614f548783880161491c565b93506040860135915080821115614f6a57600080fd5b50614f778682870161491c565b9150509250925092565b60008060008060808587031215614f9757600080fd5b8435614fa281614732565b9350602085013592506040850135915060608501356001600160401b03811115614fcb57600080fd5b614a8d878288016149df565b600080600060608486031215614fec57600080fd5b8335614ff781614732565b95602085013595506040909401359392505050565b8015158114612c3157600080fd5b6000806040838503121561502d57600080fd5b823561503881614732565b91506020830135614b888161500c565b60008060006060848603121561505d57600080fd5b8335925060208401359150604084013561507681614732565b809150509250925092565b60008060006060848603121561509657600080fd5b61509f84614b93565b925060208401359150604084013561507681614732565b600080604083850312156150c957600080fd5b82356150d481614732565b91506020830135614b8881614732565b600080600080600060a086880312156150fc57600080fd5b853561510781614732565b9450602086013561511781614732565b9350604086013592506060860135915060808601356001600160401b0381111561514057600080fd5b614b56888289016149df565b60006080828403121561515e57600080fd5b611fa28383614da3565b634e487b7160e01b600052601160045260246000fd5b81810381811115610af357610af3615168565b6000826151ae57634e487b7160e01b600052601260045260246000fd5b500490565b600181811c908216806151c757607f821691505b602082108103610ccc57634e487b7160e01b600052602260045260246000fd5b634e487b7160e01b600052603260045260246000fd5b60006001820161520f5761520f615168565b5060010190565b80820180821115610af357610af3615168565b60208082526038908201527f455243313135355072657365744d696e7465725061757365723a206d7573742060408201527f68617665206d696e74657220726f6c6520746f206d696e740000000000000000606082015260800190565b634e487b7160e01b600052602160045260246000fd5b6020808252602e908201527f455243313135353a2063616c6c6572206973206e6f7420746f6b656e206f776e60408201526d195c881bdc88185c1c1c9bdd995960921b606082015260800190565b6020808252602f908201527f455243313135355072657365744d696e7465725061757365723a206d7573742060408201526e686176652061646d696e20726f6c6560881b606082015260800190565b8082028115828204841417610af357610af3615168565b60006020828403121561536257600080fd5b8151611fa28161500c565b60006040828403121561537f57600080fd5b82601f83011261538e57600080fd5b60405161539a816148a8565b8060408401858111156153ac57600080fd5b845b81811015614e055780516153c181614732565b8352602092830192016153ae565b6000602082840312156153e157600080fd5b8151611fa281614732565b6000602082840312156153fe57600080fd5b5051919050565b60208082526021908201527f455243313135353a206d696e7420746f20746865207a65726f206164647265736040820152607360f81b606082015260800190565b60208082526028908201527f455243313135353a2069647320616e6420616d6f756e7473206c656e677468206040820152670dad2e6dac2e8c6d60c31b606082015260800190565b6040815260006154a16040830185614844565b82810360208401526137608185614844565b60208082526025908201527f455243313135353a207472616e7366657220746f20746865207a65726f206164604082015264647265737360d81b606082015260800190565b6020808252602a908201527f455243313135353a20696e73756666696369656e742062616c616e636520666f60408201526939103a3930b739b332b960b11b606082015260800190565b601f821115610fff57600081815260208120601f850160051c810160208610156155695750805b601f850160051c820191505b8181101561320657828155600101615575565b81516001600160401b038111156155a1576155a1614892565b6155b5816155af84546151b3565b84615542565b602080601f8311600181146155ea57600084156155d25750858301515b600019600386901b1c1916600185901b178555613206565b600085815260208120601f198616915b82811015615619578886015182559484019460019091019084016155fa565b50858210156156375787850151600019600388901b60f8161c191681555b5050505050600190811b01905550565b60208082526023908201527f455243313135353a206275726e2066726f6d20746865207a65726f206164647260408201526265737360e81b606082015260800190565b60208082526024908201527f455243313135353a206275726e20616d6f756e7420657863656564732062616c604082015263616e636560e01b606082015260800190565b60006001600160a01b03808816835280871660208401525060a060408301526156fa60a0830186614844565b828103606084015261570c8186614844565b905082810360808401526157208185614805565b98975050505050505050565b60006020828403121561573e57600080fd5b8151611fa281614773565b600060033d11156157625760046000803e5060005160e01c5b90565b600060443d10156157735790565b6040516003193d81016004833e81513d6001600160401b0381602484011181841117156157a257505050505090565b82850191508151818111156157ba5750505050505090565b843d87010160208285010111156157d45750505050505090565b6157e3602082860101876148cd565b509095945050505050565b60208082526028908201527f455243313135353a204552433131353552656365697665722072656a656374656040820152676420746f6b656e7360c01b606082015260800190565b7f416363657373436f6e74726f6c3a206163636f756e742000000000000000000081526000835161586e8160178501602088016147e1565b7001034b99036b4b9b9b4b733903937b6329607d1b601791840191820152835161589f8160288401602088016147e1565b01602801949350505050565b60006001600160a01b03808816835280871660208401525084604083015283606083015260a060808301526112a560a0830184614805565b6000816158f2576158f2615168565b506000190190565b634e487b7160e01b600052603160045260246000fdfea264697066735822122091bff1cd462fd9b82a682f2d4b72688220964bcacabe84e306f26f4b90dbe5fc64736f6c63430008110033b53127684a568b3173ae13b9f8a6016e243e63b6e8ee1178d6a717850b5d610365d7a28e3265b37a6474929f336521b332c1681b933f6cb9f3376673440d862a9f2df0fed2c77648de5860a4cc508cd0818c85b8b8a1ab4ceeef8d981c8956a6",
  "devdoc": {
    "author": "crypt0grapher",
    "kind": "dev",
    "methods": {
      "balanceOf(address,uint256)": {
        "details": "See {IERC1155-balanceOf}. Requirements: - `account` cannot be the zero address."
      },
      "balanceOfBatch(address[],uint256[])": {
        "details": "See {IERC1155-balanceOfBatch}. Requirements: - `accounts` and `ids` must have the same length."
      },
      "buy(uint8,uint256,address)": {
        "params": {
          "_amount": "amount of USD to spend",
          "_referral": "referral getting 5% of the price, should not be the sender, if not specified, goes to treasury",
          "_tier": "tier of the NFT to purchase which stands for ERC1155 token id [0..3]"
        }
      },
      "distributeProfit(uint256)": {
        "params": {
          "_amountUSD": "amount of USD to distribute"
        }
      },
      "exists(uint256)": {
        "details": "Indicates whether any token exist with a given id, or not."
      },
      "getCurrentPresaleWeek()": {
        "returns": {
          "_0": "returns 1-4"
        }
      },
      "getDiscountedPriceTable()": {
        "returns": {
          "_0": "uint256[] containing all NFT prices in one table in USD for the current presale week"
        }
      },
      "getFairPrice(uint8)": {
        "returns": {
          "_0": "counts not only the sale price but also share of the profit for the tier"
        }
      },
      "getPrice(uint8)": {
        "returns": {
          "_0": "NFT price in USD"
        }
      },
      "getPriceTable()": {
        "returns": {
          "_0": "uint256[] containing all NFT prices in one table in USD"
        }
      },
      "getRoleAdmin(bytes32)": {
        "details": "Returns the admin role that controls `role`. See {grantRole} and {revokeRole}. To change a role's admin, use {_setRoleAdmin}."
      },
      "getRoleMember(bytes32,uint256)": {
        "details": "Returns one of the accounts that have `role`. `index` must be a value between 0 and {getRoleMemberCount}, non-inclusive. Role bearers are not sorted in any particular way, and their ordering may change at any point. WARNING: When using {getRoleMember} and {getRoleMemberCount}, make sure you perform all queries on the same block. See the following https://forum.openzeppelin.com/t/iterating-over-elements-on-enumerableset-in-openzeppelin-contracts/2296[forum post] for more information."
      },
      "getRoleMemberCount(bytes32)": {
        "details": "Returns the number of accounts that have `role`. Can be used together with {getRoleMember} to enumerate all bearers of a role."
      },
      "getUnclaimedRewards()": {
        "returns": {
          "_0": "amount of the rewards not yet distributed to NFT holders"
        }
      },
      "grantRole(bytes32,address)": {
        "details": "Grants `role` to `account`. If `account` had not been already granted `role`, emits a {RoleGranted} event. Requirements: - the caller must have ``role``'s admin role. May emit a {RoleGranted} event."
      },
      "hasRole(bytes32,address)": {
        "details": "Returns `true` if `account` has been granted `role`."
      },
      "isApprovedForAll(address,address)": {
        "details": "See {IERC1155-isApprovedForAll}."
      },
      "mint(address,uint256,uint256,bytes)": {
        "details": "Creates `amount` new tokens for `to`, of token type `id`. See {ERC1155-_mint}. Requirements: - the caller must have the `MINTER_ROLE`."
      },
      "mintBatch(address,uint256[],uint256[],bytes)": {
        "details": "xref:ROOT:erc1155.adoc#batch-operations[Batched] variant of {mint}."
      },
      "pause()": {
        "details": "Pauses all token transfers. See {ERC1155Pausable} and {Pausable-_pause}. Requirements: - the caller must have the `PAUSER_ROLE`."
      },
      "paused()": {
        "details": "Returns true if the contract is paused, and false otherwise."
      },
      "renounceRole(bytes32,address)": {
        "details": "Revokes `role` from the calling account. Roles are often managed via {grantRole} and {revokeRole}: this function's purpose is to provide a mechanism for accounts to lose their privileges if they are compromised (such as when a trusted device is misplaced). If the calling account had been revoked `role`, emits a {RoleRevoked} event. Requirements: - the caller must be `account`. May emit a {RoleRevoked} event."
      },
      "revokeRole(bytes32,address)": {
        "details": "Revokes `role` from `account`. If `account` had been granted `role`, emits a {RoleRevoked} event. Requirements: - the caller must have ``role``'s admin role. May emit a {RoleRevoked} event."
      },
      "safeBatchTransferFrom(address,address,uint256[],uint256[],bytes)": {
        "details": "See {IERC1155-safeBatchTransferFrom}."
      },
      "safeTransferFrom(address,address,uint256,uint256,bytes)": {
        "details": "See {IERC1155-safeTransferFrom}."
      },
      "setApprovalForAll(address,bool)": {
        "details": "See {IERC1155-setApprovalForAll}."
      },
      "setDiscountedPriceTable(uint256[][])": {
        "params": {
          "_presalePrice": "4x4 table of the discounted prices for all 4 tiers for all 4 weeks of the presale"
        }
      },
      "totalSupply(uint256)": {
        "details": "Total amount of tokens in with a given id."
      },
      "unpause()": {
        "details": "Unpauses all token transfers. See {ERC1155Pausable} and {Pausable-_unpause}. Requirements: - the caller must have the `PAUSER_ROLE`."
      },
      "uri(uint256)": {
        "details": "See {IERC1155MetadataURI-uri}. This implementation returns the same URI for *all* token types. It relies on the token type ID substitution mechanism https://eips.ethereum.org/EIPS/eip-1155#metadata[defined in the EIP]. Clients calling this function must replace the `\\{id\\}` substring with the actual token type ID."
      }
    },
    "stateVariables": {
      "currentDistributionId": {
        "return": "current distribution number, the one that assigned to the latest distribution",
        "returns": {
          "_0": "current distribution number, the one that assigned to the latest distribution"
        }
      }
    },
    "title": "Safe NFT",
    "version": 1
  },
  "userdoc": {
    "kind": "user",
    "methods": {
      "TIERS()": {
        "notice": "todo a number of tiers should be flexible"
      },
      "buy(uint8,uint256,address)": {
        "notice": "purchase Safe NFT for exact amount of USD"
      },
      "claimReward(uint8,uint256)": {
        "notice": "the function calculates the amount of the reward for the NFT holder and transfers it to the NFT holder"
      },
      "claimRewardsTotal()": {
        "notice": "the function calculates the amount of the reward for the NFT holder and transfers it to the NFT holder"
      },
      "currentDistributionId()": {
        "notice": "gets the current distribution number"
      },
      "distributeProfit(uint256)": {
        "notice": "distribute profit among the NFT holders, the function fixes the amount of the reward and the NFT holders and their shares at the moment of the call. It does not transfer the reward to the NFT holders, it just records the amount of the reward for each NFT holder."
      },
      "getBalanceTable(address)": {
        "notice": "gets NFT balance for all tiers"
      },
      "getCurrentPresaleWeek()": {
        "notice": "gets the current presale week"
      },
      "getDiscountedPriceTable()": {
        "notice": "gets all discounted NFT prices in USD, for presale for all 4 weeks of the presale"
      },
      "getFairPrice(uint8)": {
        "notice": "gets NFT fair price in USD"
      },
      "getFairPriceTable()": {
        "notice": "gets NFT price for all tiers in USD ///todo in SAFE!"
      },
      "getMyBalanceTable()": {
        "notice": "gets NFT balance for all tiers"
      },
      "getMyPendingRewardsTotal()": {
        "notice": "returns the amount of the reward share for the NFT holder"
      },
      "getMyShareOfTreasury()": {
        "notice": "**Your NFTs (% Treasury) **is calculated in $ as a relation of total price of NFTs possessed by the $ amount of Investment Pool - including its SAFE and USDC components."
      },
      "getPendingRewards(address,uint8,uint256)": {
        "notice": "returns the amount of the reward share for the NFT holder"
      },
      "getPrice(uint8)": {
        "notice": "gets NFT price in USD"
      },
      "getPriceTable()": {
        "notice": "gets all NFT prices in USD, the original ones without discounts"
      },
      "getTreasuryCost()": {
        "notice": "gets the total usd value of the NFT minted"
      },
      "getUnclaimedRewards()": {
        "notice": "undistributed profit amount in USD"
      },
      "setDiscountedPriceTable(uint256[][])": {
        "notice": "sets all discounted NFT prices in USD, for presale for all 4 weeks of the presale"
      },
      "togglePresale()": {
        "notice": "toggles presale status"
      }
    },
    "notice": "Safe Yields NFT token based on ERC1155 standard, id [0..3] represents one of the 4 tiers",
    "version": 1
  },
  "storageLayout": {
    "storage": [
      {
        "astId": 24,
        "contract": "contracts/SafeNFT.sol:SafeNFT",
        "label": "_roles",
        "offset": 0,
        "slot": "0",
        "type": "t_mapping(t_bytes32,t_struct(RoleData)19_storage)"
      },
      {
        "astId": 334,
        "contract": "contracts/SafeNFT.sol:SafeNFT",
        "label": "_roleMembers",
        "offset": 0,
        "slot": "1",
        "type": "t_mapping(t_bytes32,t_struct(AddressSet)4430_storage)"
      },
      {
        "astId": 7453,
        "contract": "contracts/SafeNFT.sol:SafeNFT",
        "label": "wallets",
        "offset": 0,
        "slot": "2",
        "type": "t_array(t_address)2_storage"
      },
      {
        "astId": 726,
        "contract": "contracts/SafeNFT.sol:SafeNFT",
        "label": "_balances",
        "offset": 0,
        "slot": "4",
        "type": "t_mapping(t_uint256,t_mapping(t_address,t_uint256))"
      },
      {
        "astId": 732,
        "contract": "contracts/SafeNFT.sol:SafeNFT",
        "label": "_operatorApprovals",
        "offset": 0,
        "slot": "5",
        "type": "t_mapping(t_address,t_mapping(t_address,t_bool))"
      },
      {
        "astId": 734,
        "contract": "contracts/SafeNFT.sol:SafeNFT",
        "label": "_uri",
        "offset": 0,
        "slot": "6",
        "type": "t_string_storage"
      },
      {
        "astId": 556,
        "contract": "contracts/SafeNFT.sol:SafeNFT",
        "label": "_paused",
        "offset": 0,
        "slot": "7",
        "type": "t_bool"
      },
      {
        "astId": 2213,
        "contract": "contracts/SafeNFT.sol:SafeNFT",
        "label": "_totalSupply",
        "offset": 0,
        "slot": "8",
        "type": "t_mapping(t_uint256,t_uint256)"
      },
      {
        "astId": 657,
        "contract": "contracts/SafeNFT.sol:SafeNFT",
        "label": "_status",
        "offset": 0,
        "slot": "9",
        "type": "t_uint256"
      },
      {
        "astId": 4752,
        "contract": "contracts/SafeNFT.sol:SafeNFT",
        "label": "price",
        "offset": 0,
        "slot": "10",
        "type": "t_array(t_uint256)4_storage"
      },
      {
        "astId": 4758,
        "contract": "contracts/SafeNFT.sol:SafeNFT",
        "label": "presalePrice",
        "offset": 0,
        "slot": "14",
        "type": "t_array(t_array(t_uint256)4_storage)4_storage"
      },
      {
        "astId": 4762,
        "contract": "contracts/SafeNFT.sol:SafeNFT",
        "label": "maxSupply",
        "offset": 0,
        "slot": "30",
        "type": "t_array(t_uint256)4_storage"
      },
      {
        "astId": 4764,
        "contract": "contracts/SafeNFT.sol:SafeNFT",
        "label": "presaleStartDate",
        "offset": 0,
        "slot": "34",
        "type": "t_uint256"
      },
      {
        "astId": 4767,
        "contract": "contracts/SafeNFT.sol:SafeNFT",
        "label": "safeToken",
        "offset": 0,
        "slot": "35",
        "type": "t_contract(ISafeToken)7871"
      },
      {
        "astId": 4770,
        "contract": "contracts/SafeNFT.sol:SafeNFT",
        "label": "safeVault",
        "offset": 0,
        "slot": "36",
        "type": "t_contract(ISafeVault)7892"
      },
      {
        "astId": 4773,
        "contract": "contracts/SafeNFT.sol:SafeNFT",
        "label": "usd",
        "offset": 0,
        "slot": "37",
        "type": "t_contract(IERC20)2651"
      },
      {
        "astId": 4780,
        "contract": "contracts/SafeNFT.sol:SafeNFT",
        "label": "priceDistributionOnMint",
        "offset": 0,
        "slot": "38",
        "type": "t_array(t_uint256)2_storage"
      },
      {
        "astId": 4784,
        "contract": "contracts/SafeNFT.sol:SafeNFT",
        "label": "profitDistribution",
        "offset": 0,
        "slot": "40",
        "type": "t_array(t_uint256)2_storage"
      },
      {
        "astId": 4786,
        "contract": "contracts/SafeNFT.sol:SafeNFT",
        "label": "referralShareForNFTPurchase",
        "offset": 0,
        "slot": "42",
        "type": "t_uint256"
      },
      {
        "astId": 4788,
        "contract": "contracts/SafeNFT.sol:SafeNFT",
        "label": "stabilizerWallet",
        "offset": 0,
        "slot": "43",
        "type": "t_address"
      },
      {
        "astId": 4790,
        "contract": "contracts/SafeNFT.sol:SafeNFT",
        "label": "presale",
        "offset": 20,
        "slot": "43",
        "type": "t_bool"
      },
      {
        "astId": 4798,
        "contract": "contracts/SafeNFT.sol:SafeNFT",
        "label": "soldPerPresaleWeek",
        "offset": 0,
        "slot": "44",
        "type": "t_mapping(t_address,t_mapping(t_uint256,t_mapping(t_uint256,t_uint256)))"
      },
      {
        "astId": 4802,
        "contract": "contracts/SafeNFT.sol:SafeNFT",
        "label": "presaleMaxSupply",
        "offset": 0,
        "slot": "45",
        "type": "t_array(t_uint256)4_storage"
      },
      {
        "astId": 4806,
        "contract": "contracts/SafeNFT.sol:SafeNFT",
        "label": "currentlySoldInPresale",
        "offset": 0,
        "slot": "49",
        "type": "t_array(t_uint256)4_storage"
      },
      {
        "astId": 4808,
        "contract": "contracts/SafeNFT.sol:SafeNFT",
        "label": "currentDistributionId",
        "offset": 0,
        "slot": "53",
        "type": "t_uint256"
      },
      {
        "astId": 4812,
        "contract": "contracts/SafeNFT.sol:SafeNFT",
        "label": "distributionOfProfit",
        "offset": 0,
        "slot": "54",
        "type": "t_mapping(t_uint256,t_uint256)"
      },
      {
        "astId": 4818,
        "contract": "contracts/SafeNFT.sol:SafeNFT",
        "label": "distributionByTier",
        "offset": 0,
        "slot": "55",
        "type": "t_mapping(t_uint256,t_array(t_uint256)4_storage)"
      },
      {
        "astId": 4824,
        "contract": "contracts/SafeNFT.sol:SafeNFT",
        "label": "distributionTotalSupplySnapshot",
        "offset": 0,
        "slot": "56",
        "type": "t_mapping(t_uint256,t_array(t_uint256)4_storage)"
      },
      {
        "astId": 4832,
        "contract": "contracts/SafeNFT.sol:SafeNFT",
        "label": "alreadyDistributedAmount",
        "offset": 0,
        "slot": "57",
        "type": "t_mapping(t_uint256,t_mapping(t_uint256,t_mapping(t_address,t_uint256)))"
      },
      {
        "astId": 4838,
        "contract": "contracts/SafeNFT.sol:SafeNFT",
        "label": "alreadyDistributedAmountByTier",
        "offset": 0,
        "slot": "58",
        "type": "t_mapping(t_uint256,t_array(t_uint256)4_storage)"
      }
    ],
    "types": {
      "t_address": {
        "encoding": "inplace",
        "label": "address",
        "numberOfBytes": "20"
      },
      "t_array(t_address)2_storage": {
        "base": "t_address",
        "encoding": "inplace",
        "label": "address[2]",
        "numberOfBytes": "64"
      },
      "t_array(t_array(t_uint256)4_storage)4_storage": {
        "base": "t_array(t_uint256)4_storage",
        "encoding": "inplace",
        "label": "uint256[4][4]",
        "numberOfBytes": "512"
      },
      "t_array(t_bytes32)dyn_storage": {
        "base": "t_bytes32",
        "encoding": "dynamic_array",
        "label": "bytes32[]",
        "numberOfBytes": "32"
      },
      "t_array(t_uint256)2_storage": {
        "base": "t_uint256",
        "encoding": "inplace",
        "label": "uint256[2]",
        "numberOfBytes": "64"
      },
      "t_array(t_uint256)4_storage": {
        "base": "t_uint256",
        "encoding": "inplace",
        "label": "uint256[4]",
        "numberOfBytes": "128"
      },
      "t_bool": {
        "encoding": "inplace",
        "label": "bool",
        "numberOfBytes": "1"
      },
      "t_bytes32": {
        "encoding": "inplace",
        "label": "bytes32",
        "numberOfBytes": "32"
      },
      "t_contract(IERC20)2651": {
        "encoding": "inplace",
        "label": "contract IERC20",
        "numberOfBytes": "20"
      },
      "t_contract(ISafeToken)7871": {
        "encoding": "inplace",
        "label": "contract ISafeToken",
        "numberOfBytes": "20"
      },
      "t_contract(ISafeVault)7892": {
        "encoding": "inplace",
        "label": "contract ISafeVault",
        "numberOfBytes": "20"
      },
      "t_mapping(t_address,t_bool)": {
        "encoding": "mapping",
        "key": "t_address",
        "label": "mapping(address => bool)",
        "numberOfBytes": "32",
        "value": "t_bool"
      },
      "t_mapping(t_address,t_mapping(t_address,t_bool))": {
        "encoding": "mapping",
        "key": "t_address",
        "label": "mapping(address => mapping(address => bool))",
        "numberOfBytes": "32",
        "value": "t_mapping(t_address,t_bool)"
      },
      "t_mapping(t_address,t_mapping(t_uint256,t_mapping(t_uint256,t_uint256)))": {
        "encoding": "mapping",
        "key": "t_address",
        "label": "mapping(address => mapping(uint256 => mapping(uint256 => uint256)))",
        "numberOfBytes": "32",
        "value": "t_mapping(t_uint256,t_mapping(t_uint256,t_uint256))"
      },
      "t_mapping(t_address,t_uint256)": {
        "encoding": "mapping",
        "key": "t_address",
        "label": "mapping(address => uint256)",
        "numberOfBytes": "32",
        "value": "t_uint256"
      },
      "t_mapping(t_bytes32,t_struct(AddressSet)4430_storage)": {
        "encoding": "mapping",
        "key": "t_bytes32",
        "label": "mapping(bytes32 => struct EnumerableSet.AddressSet)",
        "numberOfBytes": "32",
        "value": "t_struct(AddressSet)4430_storage"
      },
      "t_mapping(t_bytes32,t_struct(RoleData)19_storage)": {
        "encoding": "mapping",
        "key": "t_bytes32",
        "label": "mapping(bytes32 => struct AccessControl.RoleData)",
        "numberOfBytes": "32",
        "value": "t_struct(RoleData)19_storage"
      },
      "t_mapping(t_bytes32,t_uint256)": {
        "encoding": "mapping",
        "key": "t_bytes32",
        "label": "mapping(bytes32 => uint256)",
        "numberOfBytes": "32",
        "value": "t_uint256"
      },
      "t_mapping(t_uint256,t_array(t_uint256)4_storage)": {
        "encoding": "mapping",
        "key": "t_uint256",
        "label": "mapping(uint256 => uint256[4])",
        "numberOfBytes": "32",
        "value": "t_array(t_uint256)4_storage"
      },
      "t_mapping(t_uint256,t_mapping(t_address,t_uint256))": {
        "encoding": "mapping",
        "key": "t_uint256",
        "label": "mapping(uint256 => mapping(address => uint256))",
        "numberOfBytes": "32",
        "value": "t_mapping(t_address,t_uint256)"
      },
      "t_mapping(t_uint256,t_mapping(t_uint256,t_mapping(t_address,t_uint256)))": {
        "encoding": "mapping",
        "key": "t_uint256",
        "label": "mapping(uint256 => mapping(uint256 => mapping(address => uint256)))",
        "numberOfBytes": "32",
        "value": "t_mapping(t_uint256,t_mapping(t_address,t_uint256))"
      },
      "t_mapping(t_uint256,t_mapping(t_uint256,t_uint256))": {
        "encoding": "mapping",
        "key": "t_uint256",
        "label": "mapping(uint256 => mapping(uint256 => uint256))",
        "numberOfBytes": "32",
        "value": "t_mapping(t_uint256,t_uint256)"
      },
      "t_mapping(t_uint256,t_uint256)": {
        "encoding": "mapping",
        "key": "t_uint256",
        "label": "mapping(uint256 => uint256)",
        "numberOfBytes": "32",
        "value": "t_uint256"
      },
      "t_string_storage": {
        "encoding": "bytes",
        "label": "string",
        "numberOfBytes": "32"
      },
      "t_struct(AddressSet)4430_storage": {
        "encoding": "inplace",
        "label": "struct EnumerableSet.AddressSet",
        "members": [
          {
            "astId": 4429,
            "contract": "contracts/SafeNFT.sol:SafeNFT",
            "label": "_inner",
            "offset": 0,
            "slot": "0",
            "type": "t_struct(Set)4115_storage"
          }
        ],
        "numberOfBytes": "64"
      },
      "t_struct(RoleData)19_storage": {
        "encoding": "inplace",
        "label": "struct AccessControl.RoleData",
        "members": [
          {
            "astId": 16,
            "contract": "contracts/SafeNFT.sol:SafeNFT",
            "label": "members",
            "offset": 0,
            "slot": "0",
            "type": "t_mapping(t_address,t_bool)"
          },
          {
            "astId": 18,
            "contract": "contracts/SafeNFT.sol:SafeNFT",
            "label": "adminRole",
            "offset": 0,
            "slot": "1",
            "type": "t_bytes32"
          }
        ],
        "numberOfBytes": "64"
      },
      "t_struct(Set)4115_storage": {
        "encoding": "inplace",
        "label": "struct EnumerableSet.Set",
        "members": [
          {
            "astId": 4110,
            "contract": "contracts/SafeNFT.sol:SafeNFT",
            "label": "_values",
            "offset": 0,
            "slot": "0",
            "type": "t_array(t_bytes32)dyn_storage"
          },
          {
            "astId": 4114,
            "contract": "contracts/SafeNFT.sol:SafeNFT",
            "label": "_indexes",
            "offset": 0,
            "slot": "1",
            "type": "t_mapping(t_bytes32,t_uint256)"
          }
        ],
        "numberOfBytes": "64"
      },
      "t_uint256": {
        "encoding": "inplace",
        "label": "uint256",
        "numberOfBytes": "32"
      }
    }
  }
}