{
  "address": "0xb26104d2Db5a5477D26A95ca2366E6D3dFCF12f8",
  "abi": [
    {
      "inputs": [
        {
          "internalType": "string",
          "name": "_uri",
          "type": "string"
        },
        {
          "internalType": "uint256[4]",
          "name": "_price",
          "type": "uint256[4]"
        },
        {
          "internalType": "uint256[4]",
          "name": "_maxSupply",
          "type": "uint256[4]"
        },
        {
          "internalType": "contract ISafeToken",
          "name": "_safeToken",
          "type": "address"
        },
        {
          "internalType": "uint256[2]",
          "name": "_priceDistributionOnMint",
          "type": "uint256[2]"
        },
        {
          "internalType": "uint256",
          "name": "_referralShareForNFTPurchase",
          "type": "uint256"
        },
        {
          "internalType": "uint256[2]",
          "name": "_profitDistribution",
          "type": "uint256[2]"
        },
        {
          "internalType": "address",
          "name": "_stabilizerWallet",
          "type": "address"
        }
      ],
      "stateMutability": "nonpayable",
      "type": "constructor"
    },
    {
      "anonymous": false,
      "inputs": [
        {
          "indexed": true,
          "internalType": "address",
          "name": "account",
          "type": "address"
        },
        {
          "indexed": true,
          "internalType": "address",
          "name": "operator",
          "type": "address"
        },
        {
          "indexed": false,
          "internalType": "bool",
          "name": "approved",
          "type": "bool"
        }
      ],
      "name": "ApprovalForAll",
      "type": "event"
    },
    {
      "anonymous": false,
      "inputs": [
        {
          "indexed": false,
          "internalType": "address",
          "name": "account",
          "type": "address"
        }
      ],
      "name": "Paused",
      "type": "event"
    },
    {
      "anonymous": false,
      "inputs": [
        {
          "indexed": true,
          "internalType": "bytes32",
          "name": "role",
          "type": "bytes32"
        },
        {
          "indexed": true,
          "internalType": "bytes32",
          "name": "previousAdminRole",
          "type": "bytes32"
        },
        {
          "indexed": true,
          "internalType": "bytes32",
          "name": "newAdminRole",
          "type": "bytes32"
        }
      ],
      "name": "RoleAdminChanged",
      "type": "event"
    },
    {
      "anonymous": false,
      "inputs": [
        {
          "indexed": true,
          "internalType": "bytes32",
          "name": "role",
          "type": "bytes32"
        },
        {
          "indexed": true,
          "internalType": "address",
          "name": "account",
          "type": "address"
        },
        {
          "indexed": true,
          "internalType": "address",
          "name": "sender",
          "type": "address"
        }
      ],
      "name": "RoleGranted",
      "type": "event"
    },
    {
      "anonymous": false,
      "inputs": [
        {
          "indexed": true,
          "internalType": "bytes32",
          "name": "role",
          "type": "bytes32"
        },
        {
          "indexed": true,
          "internalType": "address",
          "name": "account",
          "type": "address"
        },
        {
          "indexed": true,
          "internalType": "address",
          "name": "sender",
          "type": "address"
        }
      ],
      "name": "RoleRevoked",
      "type": "event"
    },
    {
      "anonymous": false,
      "inputs": [
        {
          "indexed": false,
          "internalType": "bool",
          "name": "_status",
          "type": "bool"
        }
      ],
      "name": "TogglePresale",
      "type": "event"
    },
    {
      "anonymous": false,
      "inputs": [
        {
          "indexed": true,
          "internalType": "address",
          "name": "operator",
          "type": "address"
        },
        {
          "indexed": true,
          "internalType": "address",
          "name": "from",
          "type": "address"
        },
        {
          "indexed": true,
          "internalType": "address",
          "name": "to",
          "type": "address"
        },
        {
          "indexed": false,
          "internalType": "uint256[]",
          "name": "ids",
          "type": "uint256[]"
        },
        {
          "indexed": false,
          "internalType": "uint256[]",
          "name": "values",
          "type": "uint256[]"
        }
      ],
      "name": "TransferBatch",
      "type": "event"
    },
    {
      "anonymous": false,
      "inputs": [
        {
          "indexed": true,
          "internalType": "address",
          "name": "operator",
          "type": "address"
        },
        {
          "indexed": true,
          "internalType": "address",
          "name": "from",
          "type": "address"
        },
        {
          "indexed": true,
          "internalType": "address",
          "name": "to",
          "type": "address"
        },
        {
          "indexed": false,
          "internalType": "uint256",
          "name": "id",
          "type": "uint256"
        },
        {
          "indexed": false,
          "internalType": "uint256",
          "name": "value",
          "type": "uint256"
        }
      ],
      "name": "TransferSingle",
      "type": "event"
    },
    {
      "anonymous": false,
      "inputs": [
        {
          "indexed": false,
          "internalType": "string",
          "name": "value",
          "type": "string"
        },
        {
          "indexed": true,
          "internalType": "uint256",
          "name": "id",
          "type": "uint256"
        }
      ],
      "name": "URI",
      "type": "event"
    },
    {
      "anonymous": false,
      "inputs": [
        {
          "indexed": false,
          "internalType": "address",
          "name": "account",
          "type": "address"
        }
      ],
      "name": "Unpaused",
      "type": "event"
    },
    {
      "inputs": [],
      "name": "DEFAULT_ADMIN_ROLE",
      "outputs": [
        {
          "internalType": "bytes32",
          "name": "",
          "type": "bytes32"
        }
      ],
      "stateMutability": "view",
      "type": "function"
    },
    {
      "inputs": [],
      "name": "MINTER_ROLE",
      "outputs": [
        {
          "internalType": "bytes32",
          "name": "",
          "type": "bytes32"
        }
      ],
      "stateMutability": "view",
      "type": "function"
    },
    {
      "inputs": [],
      "name": "PAUSER_ROLE",
      "outputs": [
        {
          "internalType": "bytes32",
          "name": "",
          "type": "bytes32"
        }
      ],
      "stateMutability": "view",
      "type": "function"
    },
    {
      "inputs": [],
      "name": "TIERS",
      "outputs": [
        {
          "internalType": "uint256",
          "name": "",
          "type": "uint256"
        }
      ],
      "stateMutability": "view",
      "type": "function"
    },
    {
      "inputs": [],
      "name": "WALLETS",
      "outputs": [
        {
          "internalType": "uint256",
          "name": "",
          "type": "uint256"
        }
      ],
      "stateMutability": "view",
      "type": "function"
    },
    {
      "inputs": [],
      "name": "WEEKS",
      "outputs": [
        {
          "internalType": "uint256",
          "name": "",
          "type": "uint256"
        }
      ],
      "stateMutability": "view",
      "type": "function"
    },
    {
      "inputs": [
        {
          "internalType": "uint256",
          "name": "",
          "type": "uint256"
        },
        {
          "internalType": "uint256",
          "name": "",
          "type": "uint256"
        },
        {
          "internalType": "address",
          "name": "",
          "type": "address"
        }
      ],
      "name": "alreadyDistributedAmount",
      "outputs": [
        {
          "internalType": "uint256",
          "name": "",
          "type": "uint256"
        }
      ],
      "stateMutability": "view",
      "type": "function"
    },
    {
      "inputs": [
        {
          "internalType": "uint256",
          "name": "",
          "type": "uint256"
        },
        {
          "internalType": "uint256",
          "name": "",
          "type": "uint256"
        }
      ],
      "name": "alreadyDistributedAmountByTier",
      "outputs": [
        {
          "internalType": "uint256",
          "name": "",
          "type": "uint256"
        }
      ],
      "stateMutability": "view",
      "type": "function"
    },
    {
      "inputs": [
        {
          "internalType": "address",
          "name": "account",
          "type": "address"
        },
        {
          "internalType": "uint256",
          "name": "id",
          "type": "uint256"
        }
      ],
      "name": "balanceOf",
      "outputs": [
        {
          "internalType": "uint256",
          "name": "",
          "type": "uint256"
        }
      ],
      "stateMutability": "view",
      "type": "function"
    },
    {
      "inputs": [
        {
          "internalType": "address[]",
          "name": "accounts",
          "type": "address[]"
        },
        {
          "internalType": "uint256[]",
          "name": "ids",
          "type": "uint256[]"
        }
      ],
      "name": "balanceOfBatch",
      "outputs": [
        {
          "internalType": "uint256[]",
          "name": "",
          "type": "uint256[]"
        }
      ],
      "stateMutability": "view",
      "type": "function"
    },
    {
      "inputs": [
        {
          "internalType": "address",
          "name": "account",
          "type": "address"
        },
        {
          "internalType": "uint256",
          "name": "id",
          "type": "uint256"
        },
        {
          "internalType": "uint256",
          "name": "value",
          "type": "uint256"
        }
      ],
      "name": "burn",
      "outputs": [],
      "stateMutability": "nonpayable",
      "type": "function"
    },
    {
      "inputs": [
        {
          "internalType": "address",
          "name": "account",
          "type": "address"
        },
        {
          "internalType": "uint256[]",
          "name": "ids",
          "type": "uint256[]"
        },
        {
          "internalType": "uint256[]",
          "name": "values",
          "type": "uint256[]"
        }
      ],
      "name": "burnBatch",
      "outputs": [],
      "stateMutability": "nonpayable",
      "type": "function"
    },
    {
      "inputs": [
        {
          "internalType": "enum ISafeNFT.Tiers",
          "name": "_tier",
          "type": "uint8"
        },
        {
          "internalType": "uint256",
          "name": "_amount",
          "type": "uint256"
        },
        {
          "internalType": "address",
          "name": "_referral",
          "type": "address"
        }
      ],
      "name": "buy",
      "outputs": [],
      "stateMutability": "nonpayable",
      "type": "function"
    },
    {
      "inputs": [
        {
          "internalType": "enum ISafeNFT.Tiers",
          "name": "_tier",
          "type": "uint8"
        },
        {
          "internalType": "uint256",
          "name": "_distributionId",
          "type": "uint256"
        }
      ],
      "name": "claimReward",
      "outputs": [],
      "stateMutability": "nonpayable",
      "type": "function"
    },
    {
      "inputs": [],
      "name": "claimRewardsTotal",
      "outputs": [],
      "stateMutability": "nonpayable",
      "type": "function"
    },
    {
      "inputs": [],
      "name": "currentDistributionId",
      "outputs": [
        {
          "internalType": "uint256",
          "name": "",
          "type": "uint256"
        }
      ],
      "stateMutability": "view",
      "type": "function"
    },
    {
      "inputs": [
        {
          "internalType": "uint256",
          "name": "",
          "type": "uint256"
        }
      ],
      "name": "currentlySoldInPresale",
      "outputs": [
        {
          "internalType": "uint256",
          "name": "",
          "type": "uint256"
        }
      ],
      "stateMutability": "view",
      "type": "function"
    },
    {
      "inputs": [
        {
          "internalType": "uint256",
          "name": "_amountUSD",
          "type": "uint256"
        }
      ],
      "name": "distributeProfit",
      "outputs": [],
      "stateMutability": "nonpayable",
      "type": "function"
    },
    {
      "inputs": [
        {
          "internalType": "uint256",
          "name": "",
          "type": "uint256"
        },
        {
          "internalType": "uint256",
          "name": "",
          "type": "uint256"
        }
      ],
      "name": "distributionByTier",
      "outputs": [
        {
          "internalType": "uint256",
          "name": "",
          "type": "uint256"
        }
      ],
      "stateMutability": "view",
      "type": "function"
    },
    {
      "inputs": [
        {
          "internalType": "uint256",
          "name": "",
          "type": "uint256"
        }
      ],
      "name": "distributionOfProfit",
      "outputs": [
        {
          "internalType": "uint256",
          "name": "",
          "type": "uint256"
        }
      ],
      "stateMutability": "view",
      "type": "function"
    },
    {
      "inputs": [
        {
          "internalType": "uint256",
          "name": "",
          "type": "uint256"
        },
        {
          "internalType": "uint256",
          "name": "",
          "type": "uint256"
        }
      ],
      "name": "distributionTotalSupplySnapshot",
      "outputs": [
        {
          "internalType": "uint256",
          "name": "",
          "type": "uint256"
        }
      ],
      "stateMutability": "view",
      "type": "function"
    },
    {
      "inputs": [
        {
          "internalType": "uint256",
          "name": "id",
          "type": "uint256"
        }
      ],
      "name": "exists",
      "outputs": [
        {
          "internalType": "bool",
          "name": "",
          "type": "bool"
        }
      ],
      "stateMutability": "view",
      "type": "function"
    },
    {
      "inputs": [
        {
          "internalType": "address",
          "name": "_user",
          "type": "address"
        }
      ],
      "name": "getBalanceTable",
      "outputs": [
        {
          "internalType": "uint256[]",
          "name": "",
          "type": "uint256[]"
        }
      ],
      "stateMutability": "view",
      "type": "function"
    },
    {
      "inputs": [],
      "name": "getCurrentPresaleWeek",
      "outputs": [
        {
          "internalType": "uint256",
          "name": "",
          "type": "uint256"
        }
      ],
      "stateMutability": "view",
      "type": "function"
    },
    {
      "inputs": [],
      "name": "getDiscountedPriceTable",
      "outputs": [
        {
          "internalType": "uint256[]",
          "name": "",
          "type": "uint256[]"
        }
      ],
      "stateMutability": "view",
      "type": "function"
    },
    {
      "inputs": [
        {
          "internalType": "enum ISafeNFT.Tiers",
          "name": "_tier",
          "type": "uint8"
        }
      ],
      "name": "getFairPrice",
      "outputs": [
        {
          "internalType": "uint256",
          "name": "",
          "type": "uint256"
        }
      ],
      "stateMutability": "view",
      "type": "function"
    },
    {
      "inputs": [],
      "name": "getFairPriceTable",
      "outputs": [
        {
          "internalType": "uint256[]",
          "name": "",
          "type": "uint256[]"
        }
      ],
      "stateMutability": "view",
      "type": "function"
    },
    {
      "inputs": [],
      "name": "getMyBalanceTable",
      "outputs": [
        {
          "internalType": "uint256[]",
          "name": "",
          "type": "uint256[]"
        }
      ],
      "stateMutability": "view",
      "type": "function"
    },
    {
      "inputs": [],
      "name": "getMyPendingRewardsTotal",
      "outputs": [
        {
          "internalType": "uint256",
          "name": "",
          "type": "uint256"
        }
      ],
      "stateMutability": "view",
      "type": "function"
    },
    {
      "inputs": [],
      "name": "getMyShareOfTreasury",
      "outputs": [
        {
          "internalType": "uint256",
          "name": "",
          "type": "uint256"
        }
      ],
      "stateMutability": "view",
      "type": "function"
    },
    {
      "inputs": [
        {
          "internalType": "address",
          "name": "_user",
          "type": "address"
        },
        {
          "internalType": "enum ISafeNFT.Tiers",
          "name": "_tier",
          "type": "uint8"
        },
        {
          "internalType": "uint256",
          "name": "_distributionId",
          "type": "uint256"
        }
      ],
      "name": "getPendingRewards",
      "outputs": [
        {
          "internalType": "uint256",
          "name": "",
          "type": "uint256"
        }
      ],
      "stateMutability": "view",
      "type": "function"
    },
    {
      "inputs": [],
      "name": "getPresaleNFTAvailable",
      "outputs": [
        {
          "internalType": "uint256[]",
          "name": "",
          "type": "uint256[]"
        }
      ],
      "stateMutability": "view",
      "type": "function"
    },
    {
      "inputs": [
        {
          "internalType": "enum ISafeNFT.Tiers",
          "name": "_tier",
          "type": "uint8"
        }
      ],
      "name": "getPrice",
      "outputs": [
        {
          "internalType": "uint256",
          "name": "",
          "type": "uint256"
        }
      ],
      "stateMutability": "view",
      "type": "function"
    },
    {
      "inputs": [],
      "name": "getPriceTable",
      "outputs": [
        {
          "internalType": "uint256[]",
          "name": "",
          "type": "uint256[]"
        }
      ],
      "stateMutability": "view",
      "type": "function"
    },
    {
      "inputs": [
        {
          "internalType": "bytes32",
          "name": "role",
          "type": "bytes32"
        }
      ],
      "name": "getRoleAdmin",
      "outputs": [
        {
          "internalType": "bytes32",
          "name": "",
          "type": "bytes32"
        }
      ],
      "stateMutability": "view",
      "type": "function"
    },
    {
      "inputs": [
        {
          "internalType": "bytes32",
          "name": "role",
          "type": "bytes32"
        },
        {
          "internalType": "uint256",
          "name": "index",
          "type": "uint256"
        }
      ],
      "name": "getRoleMember",
      "outputs": [
        {
          "internalType": "address",
          "name": "",
          "type": "address"
        }
      ],
      "stateMutability": "view",
      "type": "function"
    },
    {
      "inputs": [
        {
          "internalType": "bytes32",
          "name": "role",
          "type": "bytes32"
        }
      ],
      "name": "getRoleMemberCount",
      "outputs": [
        {
          "internalType": "uint256",
          "name": "",
          "type": "uint256"
        }
      ],
      "stateMutability": "view",
      "type": "function"
    },
    {
      "inputs": [],
      "name": "getTotalSupplyAllTiers",
      "outputs": [
        {
          "internalType": "uint256",
          "name": "",
          "type": "uint256"
        }
      ],
      "stateMutability": "view",
      "type": "function"
    },
    {
      "inputs": [],
      "name": "getTreasuryCost",
      "outputs": [
        {
          "internalType": "uint256",
          "name": "",
          "type": "uint256"
        }
      ],
      "stateMutability": "view",
      "type": "function"
    },
    {
      "inputs": [],
      "name": "getUnclaimedRewards",
      "outputs": [
        {
          "internalType": "uint256",
          "name": "",
          "type": "uint256"
        }
      ],
      "stateMutability": "view",
      "type": "function"
    },
    {
      "inputs": [
        {
          "internalType": "bytes32",
          "name": "role",
          "type": "bytes32"
        },
        {
          "internalType": "address",
          "name": "account",
          "type": "address"
        }
      ],
      "name": "grantRole",
      "outputs": [],
      "stateMutability": "nonpayable",
      "type": "function"
    },
    {
      "inputs": [
        {
          "internalType": "bytes32",
          "name": "role",
          "type": "bytes32"
        },
        {
          "internalType": "address",
          "name": "account",
          "type": "address"
        }
      ],
      "name": "hasRole",
      "outputs": [
        {
          "internalType": "bool",
          "name": "",
          "type": "bool"
        }
      ],
      "stateMutability": "view",
      "type": "function"
    },
    {
      "inputs": [
        {
          "internalType": "string",
          "name": "_uri",
          "type": "string"
        },
        {
          "internalType": "uint256[4]",
          "name": "_price",
          "type": "uint256[4]"
        },
        {
          "internalType": "uint256[4]",
          "name": "_maxSupply",
          "type": "uint256[4]"
        },
        {
          "internalType": "contract ISafeToken",
          "name": "_safeToken",
          "type": "address"
        },
        {
          "internalType": "uint256[2]",
          "name": "_priceDistributionOnMint",
          "type": "uint256[2]"
        },
        {
          "internalType": "uint256",
          "name": "_referralShareForNFTPurchase",
          "type": "uint256"
        },
        {
          "internalType": "uint256[2]",
          "name": "_profitDistribution",
          "type": "uint256[2]"
        },
        {
          "internalType": "address",
          "name": "_stabilizerWallet",
          "type": "address"
        }
      ],
      "name": "initialize",
      "outputs": [],
      "stateMutability": "nonpayable",
      "type": "function"
    },
    {
      "inputs": [
        {
          "internalType": "address",
          "name": "account",
          "type": "address"
        },
        {
          "internalType": "address",
          "name": "operator",
          "type": "address"
        }
      ],
      "name": "isApprovedForAll",
      "outputs": [
        {
          "internalType": "bool",
          "name": "",
          "type": "bool"
        }
      ],
      "stateMutability": "view",
      "type": "function"
    },
    {
      "inputs": [
        {
          "internalType": "uint256",
          "name": "",
          "type": "uint256"
        }
      ],
      "name": "maxSupply",
      "outputs": [
        {
          "internalType": "uint256",
          "name": "",
          "type": "uint256"
        }
      ],
      "stateMutability": "view",
      "type": "function"
    },
    {
      "inputs": [
        {
          "internalType": "address",
          "name": "to",
          "type": "address"
        },
        {
          "internalType": "uint256",
          "name": "id",
          "type": "uint256"
        },
        {
          "internalType": "uint256",
          "name": "amount",
          "type": "uint256"
        },
        {
          "internalType": "bytes",
          "name": "data",
          "type": "bytes"
        }
      ],
      "name": "mint",
      "outputs": [],
      "stateMutability": "nonpayable",
      "type": "function"
    },
    {
      "inputs": [
        {
          "internalType": "address",
          "name": "to",
          "type": "address"
        },
        {
          "internalType": "uint256[]",
          "name": "ids",
          "type": "uint256[]"
        },
        {
          "internalType": "uint256[]",
          "name": "amounts",
          "type": "uint256[]"
        },
        {
          "internalType": "bytes",
          "name": "data",
          "type": "bytes"
        }
      ],
      "name": "mintBatch",
      "outputs": [],
      "stateMutability": "nonpayable",
      "type": "function"
    },
    {
      "inputs": [],
      "name": "name",
      "outputs": [
        {
          "internalType": "string",
          "name": "",
          "type": "string"
        }
      ],
      "stateMutability": "view",
      "type": "function"
    },
    {
      "inputs": [],
      "name": "pause",
      "outputs": [],
      "stateMutability": "nonpayable",
      "type": "function"
    },
    {
      "inputs": [],
      "name": "paused",
      "outputs": [
        {
          "internalType": "bool",
          "name": "",
          "type": "bool"
        }
      ],
      "stateMutability": "view",
      "type": "function"
    },
    {
      "inputs": [],
      "name": "presale",
      "outputs": [
        {
          "internalType": "bool",
          "name": "",
          "type": "bool"
        }
      ],
      "stateMutability": "view",
      "type": "function"
    },
    {
      "inputs": [
        {
          "internalType": "uint256",
          "name": "",
          "type": "uint256"
        }
      ],
      "name": "presaleMaxSupply",
      "outputs": [
        {
          "internalType": "uint256",
          "name": "",
          "type": "uint256"
        }
      ],
      "stateMutability": "view",
      "type": "function"
    },
    {
      "inputs": [
        {
          "internalType": "uint256",
          "name": "",
          "type": "uint256"
        },
        {
          "internalType": "uint256",
          "name": "",
          "type": "uint256"
        }
      ],
      "name": "presalePrice",
      "outputs": [
        {
          "internalType": "uint256",
          "name": "",
          "type": "uint256"
        }
      ],
      "stateMutability": "view",
      "type": "function"
    },
    {
      "inputs": [],
      "name": "presaleStartDate",
      "outputs": [
        {
          "internalType": "uint256",
          "name": "",
          "type": "uint256"
        }
      ],
      "stateMutability": "view",
      "type": "function"
    },
    {
      "inputs": [
        {
          "internalType": "uint256",
          "name": "",
          "type": "uint256"
        }
      ],
      "name": "price",
      "outputs": [
        {
          "internalType": "uint256",
          "name": "",
          "type": "uint256"
        }
      ],
      "stateMutability": "view",
      "type": "function"
    },
    {
      "inputs": [
        {
          "internalType": "uint256",
          "name": "",
          "type": "uint256"
        }
      ],
      "name": "priceDistributionOnMint",
      "outputs": [
        {
          "internalType": "uint256",
          "name": "",
          "type": "uint256"
        }
      ],
      "stateMutability": "view",
      "type": "function"
    },
    {
      "inputs": [
        {
          "internalType": "uint256",
          "name": "",
          "type": "uint256"
        }
      ],
      "name": "profitDistribution",
      "outputs": [
        {
          "internalType": "uint256",
          "name": "",
          "type": "uint256"
        }
      ],
      "stateMutability": "view",
      "type": "function"
    },
    {
      "inputs": [],
      "name": "referralShareForNFTPurchase",
      "outputs": [
        {
          "internalType": "uint256",
          "name": "",
          "type": "uint256"
        }
      ],
      "stateMutability": "view",
      "type": "function"
    },
    {
      "inputs": [
        {
          "internalType": "bytes32",
          "name": "role",
          "type": "bytes32"
        },
        {
          "internalType": "address",
          "name": "account",
          "type": "address"
        }
      ],
      "name": "renounceRole",
      "outputs": [],
      "stateMutability": "nonpayable",
      "type": "function"
    },
    {
      "inputs": [
        {
          "internalType": "bytes32",
          "name": "role",
          "type": "bytes32"
        },
        {
          "internalType": "address",
          "name": "account",
          "type": "address"
        }
      ],
      "name": "revokeRole",
      "outputs": [],
      "stateMutability": "nonpayable",
      "type": "function"
    },
    {
      "inputs": [
        {
          "internalType": "address",
          "name": "from",
          "type": "address"
        },
        {
          "internalType": "address",
          "name": "to",
          "type": "address"
        },
        {
          "internalType": "uint256[]",
          "name": "ids",
          "type": "uint256[]"
        },
        {
          "internalType": "uint256[]",
          "name": "amounts",
          "type": "uint256[]"
        },
        {
          "internalType": "bytes",
          "name": "data",
          "type": "bytes"
        }
      ],
      "name": "safeBatchTransferFrom",
      "outputs": [],
      "stateMutability": "nonpayable",
      "type": "function"
    },
    {
      "inputs": [],
      "name": "safeToken",
      "outputs": [
        {
          "internalType": "contract ISafeToken",
          "name": "",
          "type": "address"
        }
      ],
      "stateMutability": "view",
      "type": "function"
    },
    {
      "inputs": [
        {
          "internalType": "address",
          "name": "from",
          "type": "address"
        },
        {
          "internalType": "address",
          "name": "to",
          "type": "address"
        },
        {
          "internalType": "uint256",
          "name": "id",
          "type": "uint256"
        },
        {
          "internalType": "uint256",
          "name": "amount",
          "type": "uint256"
        },
        {
          "internalType": "bytes",
          "name": "data",
          "type": "bytes"
        }
      ],
      "name": "safeTransferFrom",
      "outputs": [],
      "stateMutability": "nonpayable",
      "type": "function"
    },
    {
      "inputs": [],
      "name": "safeVault",
      "outputs": [
        {
          "internalType": "contract ISafeVault",
          "name": "",
          "type": "address"
        }
      ],
      "stateMutability": "view",
      "type": "function"
    },
    {
      "inputs": [
        {
          "internalType": "address",
          "name": "operator",
          "type": "address"
        },
        {
          "internalType": "bool",
          "name": "approved",
          "type": "bool"
        }
      ],
      "name": "setApprovalForAll",
      "outputs": [],
      "stateMutability": "nonpayable",
      "type": "function"
    },
    {
      "inputs": [
        {
          "internalType": "uint256[][]",
          "name": "_presalePrice",
          "type": "uint256[][]"
        }
      ],
      "name": "setDiscountedPriceTable",
      "outputs": [],
      "stateMutability": "nonpayable",
      "type": "function"
    },
    {
      "inputs": [
        {
          "internalType": "uint256[4]",
          "name": "_presaleMaxSupply",
          "type": "uint256[4]"
        }
      ],
      "name": "setPresaleMaxSupply",
      "outputs": [],
      "stateMutability": "nonpayable",
      "type": "function"
    },
    {
      "inputs": [
        {
          "internalType": "uint256",
          "name": "_launchDate",
          "type": "uint256"
        }
      ],
      "name": "setPresaleStartDate",
      "outputs": [],
      "stateMutability": "nonpayable",
      "type": "function"
    },
    {
      "inputs": [
        {
          "internalType": "address",
          "name": "",
          "type": "address"
        },
        {
          "internalType": "uint256",
          "name": "",
          "type": "uint256"
        },
        {
          "internalType": "uint256",
          "name": "",
          "type": "uint256"
        }
      ],
      "name": "soldPerPresaleWeek",
      "outputs": [
        {
          "internalType": "uint256",
          "name": "",
          "type": "uint256"
        }
      ],
      "stateMutability": "view",
      "type": "function"
    },
    {
      "inputs": [],
      "name": "stabilizerWallet",
      "outputs": [
        {
          "internalType": "address",
          "name": "",
          "type": "address"
        }
      ],
      "stateMutability": "view",
      "type": "function"
    },
    {
      "inputs": [
        {
          "internalType": "bytes4",
          "name": "interfaceId",
          "type": "bytes4"
        }
      ],
      "name": "supportsInterface",
      "outputs": [
        {
          "internalType": "bool",
          "name": "",
          "type": "bool"
        }
      ],
      "stateMutability": "view",
      "type": "function"
    },
    {
      "inputs": [],
      "name": "togglePresale",
      "outputs": [],
      "stateMutability": "nonpayable",
      "type": "function"
    },
    {
      "inputs": [
        {
          "internalType": "uint256",
          "name": "id",
          "type": "uint256"
        }
      ],
      "name": "totalSupply",
      "outputs": [
        {
          "internalType": "uint256",
          "name": "",
          "type": "uint256"
        }
      ],
      "stateMutability": "view",
      "type": "function"
    },
    {
      "inputs": [],
      "name": "unpause",
      "outputs": [],
      "stateMutability": "nonpayable",
      "type": "function"
    },
    {
      "inputs": [
        {
          "internalType": "uint256",
          "name": "",
          "type": "uint256"
        }
      ],
      "name": "uri",
      "outputs": [
        {
          "internalType": "string",
          "name": "",
          "type": "string"
        }
      ],
      "stateMutability": "view",
      "type": "function"
    },
    {
      "inputs": [],
      "name": "usd",
      "outputs": [
        {
          "internalType": "contract IERC20",
          "name": "",
          "type": "address"
        }
      ],
      "stateMutability": "view",
      "type": "function"
    },
    {
      "inputs": [
        {
          "internalType": "uint256",
          "name": "",
          "type": "uint256"
        }
      ],
      "name": "wallets",
      "outputs": [
        {
          "internalType": "address",
          "name": "",
          "type": "address"
        }
      ],
      "stateMutability": "view",
      "type": "function"
    }
  ],
  "transactionHash": "0x5096500b030057c7760ee3d9303d726df227a4c76257e496bf8a7c758eee78a5",
  "args": [
    "",
    [
      "131250000",
      "262500000",
      "525000000",
      "1050000000"
    ],
    [
      2000,
      1000,
      1000,
      1000
    ],
    "0xF3c420B081422C51533150664Fc8F2fb77E39296",
    [
      70000000,
      20000000
    ],
    5000000,
    [
      25000000,
      20000000
    ],
    "0xe97BDb5600d711C38854d603a4748f98063314AB"
  ],
  "numDeployments": 11,
  "solcInputHash": "4107a56fcf0ac54d1d0fc9afe01c5907",
  "bytecode": "0x60806040523480156200001157600080fd5b506040516200657d3803806200657d8339810160408190526200003491620008af565b87806200004181620000b5565b506007805460ff1916905562000059600033620000c7565b620000746000805160206200655d83398151915233620000c7565b6200008f6000805160206200653d83398151915233620000c7565b506001600955620000a78888888888888888620000d3565b505050505050505062000bf4565b6006620000c3828262000a76565b5050565b620000c382826200050e565b6000620000ed6000805160206200651d8339815191525490565b90506001600160a01b0381166200011d576001600160a01b036000805160206200651d8339815191525562000133565b336001600160a01b038216146200013357600080fd5b6200013e89620000b5565b6200014b600033620000c7565b620001666000805160206200655d83398151915233620000c7565b620001816000805160206200653d83398151915233620000c7565b62000190600a89600462000671565b50620001a0601e88600462000671565b50602380546001600160a01b0319166001600160a01b038816179055620001cb6026866002620006b4565b50602a849055620001e06028846002620006b4565b50602b80546001600160a01b0319166001600160a01b03848116919091179091556023546040805163db7a460560e01b815281516200027394939093169263db7a4605926004808401939192918290030181865afa15801562000247573d6000803e3d6000fd5b505050506040513d601f19601f820116820180604052508101906200026d919062000b42565b62000551565b602360009054906101000a90046001600160a01b03166001600160a01b031663deef94de6040518163ffffffff1660e01b8152600401602060405180830381865afa158015620002c7573d6000803e3d6000fd5b505050506040513d601f19601f82011682018060405250810190620002ed919062000ba9565b602480546001600160a01b0319166001600160a01b039283161790556023546040805163d63a6ccd60e01b81529051919092169163d63a6ccd9160048083019260209291908290030181865afa1580156200034c573d6000803e3d6000fd5b505050506040513d601f19601f8201168201806040525081019062000372919062000ba9565b602580546001600160a01b0319166001600160a01b0392831690811790915560235460405163095ea7b360e01b81529216600483015260001960248301529063095ea7b3906044016020604051808303816000875af1158015620003da573d6000803e3d6000fd5b505050506040513d601f19601f8201168201806040525081019062000400919062000bd0565b506025546024805460405163095ea7b360e01b81526001600160a01b039182166004820152600019928101929092529091169063095ea7b3906044016020604051808303816000875af11580156200045c573d6000803e3d6000fd5b505050506040513d601f19601f8201168201806040525081019062000482919062000bd0565b5060235460405163095ea7b360e01b81526001600160a01b039091166004820181905260001960248301529063095ea7b3906044016020604051808303816000875af1158015620004d7573d6000803e3d6000fd5b505050506040513d601f19601f82011682018060405250810190620004fd919062000bd0565b505060006035555050505050505050565b6200052582826200055f60201b62002e181760201c565b60008281526001602090815260409091206200054c91839062002e9c620005ff821b17901c565b505050565b620000c360028281620006e4565b6000828152602081815260408083206001600160a01b038516845290915290205460ff16620000c3576000828152602081815260408083206001600160a01b03851684529091529020805460ff19166001179055620005bb3390565b6001600160a01b0316816001600160a01b0316837f2f8788117e7eff1d82e926ec794901d17c78024a50270940304540a733656f0d60405160405180910390a45050565b600062000616836001600160a01b0384166200061f565b90505b92915050565b6000818152600183016020526040812054620006685750815460018181018455600084815260208082209093018490558454848252828601909352604090209190915562000619565b50600062000619565b8260048101928215620006a2579160200282015b82811115620006a257825182559160200191906001019062000685565b50620006b09291506200072f565b5090565b8260028101928215620006a25791602002820182811115620006a257825182559160200191906001019062000685565b8260028101928215620006a2579160200282015b82811115620006a257825182546001600160a01b0319166001600160a01b03909116178255602090920191600190910190620006f8565b5b80821115620006b0576000815560010162000730565b634e487b7160e01b600052604160045260246000fd5b604080519081016001600160401b038111828210171562000781576200078162000746565b60405290565b604051601f8201601f191681016001600160401b0381118282101715620007b257620007b262000746565b604052919050565b600082601f830112620007cc57600080fd5b604051608081016001600160401b0381118282101715620007f157620007f162000746565b6040528060808401858111156200080757600080fd5b845b818110156200082357805183526020928301920162000809565b509195945050505050565b6001600160a01b03811681146200084457600080fd5b50565b805162000854816200082e565b919050565b600082601f8301126200086b57600080fd5b620008756200075c565b8060408401858111156200088857600080fd5b845b81811015620008a45780518452602093840193016200088a565b509095945050505050565b600080600080600080600080610200898b031215620008cd57600080fd5b88516001600160401b0380821115620008e557600080fd5b818b0191508b601f830112620008fa57600080fd5b8151818111156200090f576200090f62000746565b6020915062000927601f8201601f1916830162000787565b8181528d838386010111156200093c57600080fd5b60005b828110156200095c5784810184015182820185015283016200093f565b506000838383010152809b505050620009788c828d01620007ba565b985050506200098b8a60a08b01620007ba565b95506200099c6101208a0162000847565b9450620009ae8a6101408b0162000859565b93506101808901519250620009c88a6101a08b0162000859565b9150620009d96101e08a0162000847565b90509295985092959890939650565b600181811c90821680620009fd57607f821691505b60208210810362000a1e57634e487b7160e01b600052602260045260246000fd5b50919050565b601f8211156200054c57600081815260208120601f850160051c8101602086101562000a4d5750805b601f850160051c820191505b8181101562000a6e5782815560010162000a59565b505050505050565b81516001600160401b0381111562000a925762000a9262000746565b62000aaa8162000aa38454620009e8565b8462000a24565b602080601f83116001811462000ae2576000841562000ac95750858301515b600019600386901b1c1916600185901b17855562000a6e565b600085815260208120601f198616915b8281101562000b135788860151825594840194600190910190840162000af2565b508582101562000b325787850151600019600388901b60f8161c191681555b5050505050600190811b01905550565b60006040828403121562000b5557600080fd5b82601f83011262000b6557600080fd5b62000b6f6200075c565b80604084018581111562000b8257600080fd5b845b81811015620008a457805162000b9a816200082e565b84526020938401930162000b84565b60006020828403121562000bbc57600080fd5b815162000bc9816200082e565b9392505050565b60006020828403121562000be357600080fd5b8151801515811462000bc957600080fd5b6159198062000c046000396000f3fe608060405234801561001057600080fd5b506004361061045d5760003560e01c80636ac600681161024c578063ca15c87311610146578063df71da76116100c3578063f242432a11610087578063f242432a146109f3578063f3430a1614610a06578063f5298aca14610a19578063fd18a25314610a2c578063fdea8e0b14610a3f57600080fd5b8063df71da7614610962578063e63ab1e914610975578063e985e9c51461099c578063f03f1e51146109d8578063f0b2df89146109e057600080fd5b8063d36dfac81161010a578063d36dfac8146108ef578063d539139314610902578063d547741f14610929578063d63a6ccd1461093c578063deef94de1461094f57600080fd5b8063ca15c8731461087d578063ca7b244714610890578063ced79ce0146108a3578063d0d5a1ba146108d4578063d36122b8146108e757600080fd5b806380a3a783116101d457806391d148541161019857806391d1485414610827578063a1f5c2391461083a578063a217fddf14610842578063a22cb4651461084a578063bd85b0391461085d57600080fd5b806380a3a783146107e85780638456cb59146107f1578063869f7594146107f95780638d3bd55b1461080c5780639010d07c1461081457600080fd5b8063731133e91161021b578063731133e914610780578063780069e0146107935780637ad71f721461079c5780637dfe5914146107af5780637e93391a146107e057600080fd5b80636ac60068146107525780636b20c454146107655780636d6689ea146107785780636e748f971461077857600080fd5b80632e2a31d41161035d5780634407a61e116102e557806352a1ad54116102a957806352a1ad54146106fb57806353f7ffd21461070e578063592fa65e146107215780635c975abb146107345780635e95b4fe1461073f57600080fd5b80634407a61e146106985780634b3fd05a146106ab5780634e1273f4146106be5780634f558e79146106d157806351ba5b44146106f357600080fd5b806336568abe1161032c57806336568abe1461064457806337f1e7f2146106575780633f4ba83a1461066a578063418f7c511461067257806342e0f7921461068557600080fd5b80632e2a31d41461060e5780632eb2c2d6146106165780632f2ff15d14610629578063343937431461063c57600080fd5b8063104304f3116103eb5780631f7fdffa116103af5780631f7fdffa146105a857806323f77fa9146105bd578063248a9ca3146105d057806326a49e37146105f35780632c13f08c1461060657600080fd5b8063104304f31461055b5780631623025714610570578063168affdf146105785780631729c14f146105985780631a5e85e5146105a057600080fd5b806304ca4c071161043257806304ca4c07146104c757806305adca38146104da57806306fdde03146104e25780630b0b73d21461051d5780630e89341c1461054857600080fd5b8062a13c4c14610462578062fdd58e1461047e57806301ffc9a71461049157806303b2add0146104b4575b600080fd5b61046b602a5481565b6040519081526020015b60405180910390f35b61046b61048c36600461471a565b610a53565b6104a461049f36600461475c565b610aee565b6040519015158152602001610475565b61046b6104c2366004614779565b610af9565b61046b6104d5366004614792565b610b10565b61046b610b35565b6105106040518060400160405280600f81526020016e14d8599948165a595b191cc8139195608a1b81525081565b6040516104759190614804565b602b54610530906001600160a01b031681565b6040516001600160a01b039091168152602001610475565b610510610556366004614779565b610bb6565b610563610c4a565b6040516104759190614852565b61046b610cc7565b61046b610586366004614779565b60366020526000908152604090205481565b610563610d5e565b61046b610dfd565b6105bb6105b63660046149d2565b610e38565b005b6105636105cb366004614a6c565b610e90565b61046b6105de366004614779565b60009081526020819052604090206001015490565b61046b610601366004614779565b610efc565b610563610f0c565b610563610f83565b6105bb610624366004614a89565b611030565b6105bb610637366004614b36565b61107c565b6105bb6110a6565b6105bb610652366004614b36565b611133565b61046b610665366004614b7a565b6111b1565b6105bb6111df565b61046b610680366004614b95565b611285565b6105bb610693366004614779565b611352565b6105bb6106a6366004614bd3565b61137e565b602354610530906001600160a01b031681565b6105636106cc366004614c8e565b6114fa565b6104a46106df366004614779565b600090815260086020526040902054151590565b61046b611623565b61046b610709366004614792565b6116a6565b6105bb61071c366004614d5a565b6116c8565b61046b61072f366004614792565b6117cc565b60075460ff166104a4565b61046b61074d366004614792565b6117e8565b6105bb610760366004614e12565b611804565b6105bb610773366004614edf565b611c5b565b61046b600481565b6105bb61078e366004614f54565b611c9e565b61046b60355481565b6105306107aa366004614779565b611cf0565b61046b6107bd366004614faa565b602c60209081526000938452604080852082529284528284209052825290205481565b61046b611d10565b61046b60225481565b6105bb611ea9565b61046b610807366004614779565b611f4d565b61046b600281565b610530610822366004614792565b611f5d565b6104a4610835366004614b36565b611f7c565b610563611fa5565b61046b600081565b6105bb610858366004614fed565b611fb7565b61046b61086b366004614779565b60009081526008602052604090205490565b61046b61088b366004614779565b611fc2565b61046b61089e366004614779565b611fd9565b61046b6108b136600461501b565b603960209081526000938452604080852082529284528284209052825290205481565b6105bb6108e2366004615054565b611fe9565b6105bb6128a8565b6105bb6108fd366004614779565b612913565b61046b7f9f2df0fed2c77648de5860a4cc508cd0818c85b8b8a1ab4ceeef8d981c8956a681565b6105bb610937366004614b36565b612c07565b602554610530906001600160a01b031681565b602454610530906001600160a01b031681565b61046b610970366004614779565b612c2c565b61046b7f65d7a28e3265b37a6474929f336521b332c1681b933f6cb9f3376673440d862a81565b6104a46109aa366004615089565b6001600160a01b03918216600090815260056020908152604080832093909416825291909152205460ff1690565b61046b612c3c565b61046b6109ee366004614b7a565b612ca4565b6105bb610a013660046150b7565b612d4c565b6105bb610a1436600461511f565b612d91565b6105bb610a27366004614faa565b612dc5565b61046b610a3a366004614779565b612e08565b602b546104a490600160a01b900460ff1681565b60006001600160a01b038316610ac35760405162461bcd60e51b815260206004820152602a60248201527f455243313135353a2061646472657373207a65726f206973206e6f742061207660448201526930b634b21037bbb732b960b11b60648201526084015b60405180910390fd5b5060008181526004602090815260408083206001600160a01b03861684529091529020545b92915050565b6000610ae882612eb1565b60318160048110610b0957600080fd5b0154905081565b60376020528160005260406000208160048110610b2c57600080fd5b01549150829050565b602b54600090600160a01b900460ff168015610b5357506000602254115b610b955760405162461bcd60e51b8152602060048201526013602482015272141c995cd85b19481b9bdd081cdd185c9d1959606a1b6044820152606401610aba565b62093a8060225442610ba79190615151565b610bb19190615164565b905090565b606060068054610bc590615186565b80601f0160208091040260200160405190810160405280929190818152602001828054610bf190615186565b8015610c3e5780601f10610c1357610100808354040283529160200191610c3e565b820191906000526020600020905b815481529060010190602001808311610c2157829003601f168201915b50505050509050919050565b60408051600480825260a08201909252606091600091906020820160808036833701905050905060005b6004811015610cc157600a8160048110610c9057610c906151ba565b0154828281518110610ca457610ca46151ba565b602090810291909101015280610cb9816151d0565b915050610c74565b50919050565b600080805b6004811015610cc15760005b6035548111610d4b576000818152603a602052604090208260048110610d0057610d006151ba565b015460008281526037602052604090208360048110610d2157610d216151ba565b0154610d2d9190615151565b610d3790846151e9565b925080610d43816151d0565b915050610cd8565b5080610d56816151d0565b915050610ccc565b60606000610d6a610b35565b60408051600480825260a08201909252919250600091906020820160808036833701905050905060005b6004811015610df657600e8360048110610db057610db06151ba565b600402018160048110610dc557610dc56151ba565b0154828281518110610dd957610dd96151ba565b602090810291909101015280610dee816151d0565b915050610d94565b5092915050565b600080805b6004811015610cc157600081815260086020526040902054610e2490836151e9565b915080610e30816151d0565b915050610e02565b610e627f9f2df0fed2c77648de5860a4cc508cd0818c85b8b8a1ab4ceeef8d981c8956a633611f7c565b610e7e5760405162461bcd60e51b8152600401610aba906151fc565b610e8a84848484612ebc565b50505050565b60408051600480825260a08201909252606091600091906020820160808036833701905050905060005b6004811015610df657610ecd8482610a53565b828281518110610edf57610edf6151ba565b602090810291909101015280610ef4816151d0565b915050610eba565b600a8160048110610b0957600080fd5b60408051600480825260a08201909252606091600091906020820160808036833701905050905060005b6004811015610cc157610f548160038111156109ee576109ee615259565b828281518110610f6657610f666151ba565b602090810291909101015280610f7b816151d0565b915050610f36565b60606000610f8f610b35565b60408051600480825260a08201909252919250600091906020820160808036833701905050905060005b6004811015610df65760318160048110610fd557610fd56151ba565b015483602d8360048110610feb57610feb6151ba565b0154610ff7919061526f565b6110019190615151565b828281518110611013576110136151ba565b602090810291909101015280611028816151d0565b915050610fb9565b6001600160a01b03851633148061104c575061104c85336109aa565b6110685760405162461bcd60e51b8152600401610aba90615286565b6110758585858585613026565b5050505050565b600082815260208190526040902060010154611097816131e1565b6110a183836131eb565b505050565b6110b1600033611f7c565b6110cd5760405162461bcd60e51b8152600401610aba906152d4565b602b805460ff600160a01b808304821615810260ff60a01b1990931692909217928390556040517f512e257b3133a95bd1fef520dafc0dfb212f406af4f808d030e788c8ff536c04936111299390049091161515815260200190565b60405180910390a1565b6001600160a01b03811633146111a35760405162461bcd60e51b815260206004820152602f60248201527f416363657373436f6e74726f6c3a2063616e206f6e6c792072656e6f756e636560448201526e103937b632b9903337b91039b2b63360891b6064820152608401610aba565b6111ad828261320d565b5050565b6000600a8260038111156111c7576111c7615259565b600481106111d7576111d76151ba565b015492915050565b6112097f65d7a28e3265b37a6474929f336521b332c1681b933f6cb9f3376673440d862a33611f7c565b61127b5760405162461bcd60e51b815260206004820152603b60248201527f455243313135355072657365744d696e7465725061757365723a206d7573742060448201527f686176652070617573657220726f6c6520746f20756e706175736500000000006064820152608401610aba565b61128361322f565b565b60008083600381111561129a5761129a615259565b60355460009081526037602052604081209192509082600481106112c0576112c06151ba565b0154600083815260086020526040812054919250901561130c576000838152600860205260409020546112f38885610a53565b6112fd908461526f565b6113079190615164565b61130f565b60005b600086815260396020908152604080832087845282528083206001600160a01b038c1684529091529020549091506113479082615151565b979650505050505050565b61135d600033611f7c565b6113795760405162461bcd60e51b8152600401610aba906152d4565b602255565b611389600033611f7c565b6113a55760405162461bcd60e51b8152600401610aba906152d4565b60048151146113f65760405162461bcd60e51b815260206004820152601960248201527f496e636f7272656374206e756d626572206f66207765656b73000000000000006044820152606401610aba565b60005b60048110156111ad576004828281518110611416576114166151ba565b6020026020010151511461146c5760405162461bcd60e51b815260206004820152601960248201527f496e636f7272656374206e756d626572206f66207469657273000000000000006044820152606401610aba565b60005b60048110156114e75782828151811061148a5761148a6151ba565b602002602001015181815181106114a3576114a36151ba565b6020026020010151600e83600481106114be576114be6151ba565b6004020182600481106114d3576114d36151ba565b0155806114df816151d0565b91505061146f565b50806114f2816151d0565b9150506113f9565b6060815183511461155f5760405162461bcd60e51b815260206004820152602960248201527f455243313135353a206163636f756e747320616e6420696473206c656e677468604482015268040dad2e6dac2e8c6d60bb1b6064820152608401610aba565b600083516001600160401b0381111561157a5761157a614865565b6040519080825280602002602001820160405280156115a3578160200160208202803683370190505b50905060005b845181101561161b576115ee8582815181106115c7576115c76151ba565b60200260200101518583815181106115e1576115e16151ba565b6020026020010151610a53565b828281518110611600576116006151ba565b6020908102919091010152611614816151d0565b90506115a9565b509392505050565b60003381805b600481101561167957600a8160048110611645576116456151ba565b01546116518483610a53565b61165b919061526f565b61166590836151e9565b915080611671816151d0565b915050611629565b506000611684611d10565b9050801561169b576116968183615164565b61169e565b60005b935050505090565b600e82600481106116b657600080fd5b600402018160048110610b2c57600080fd5b6116d061327c565b3360006116de828585611285565b60255460405163a9059cbb60e01b81526001600160a01b0385811660048301526024820184905292935091169063a9059cbb906044016020604051808303816000875af1158015611733573d6000803e3d6000fd5b505050506040513d601f19601f820116820180604052508101906117579190615323565b506000838152603960205260408120829186600381111561177a5761177a615259565b81526020019081526020016000206000846001600160a01b03166001600160a01b0316815260200190815260200160002060008282546117ba91906151e9565b90915550506001600955506111ad9050565b603a6020528160005260406000208160048110610b2c57600080fd5b60386020528160005260406000208160048110610b2c57600080fd5b600061182e7fb53127684a568b3173ae13b9f8a6016e243e63b6e8ee1178d6a717850b5d61035490565b90506001600160a01b03811661186d576001600160a01b037fb53127684a568b3173ae13b9f8a6016e243e63b6e8ee1178d6a717850b5d610355611882565b336001600160a01b0382161461188257600080fd5b61188b896132d5565b6118966000336132e1565b6118c07f9f2df0fed2c77648de5860a4cc508cd0818c85b8b8a1ab4ceeef8d981c8956a6336132e1565b6118ea7f65d7a28e3265b37a6474929f336521b332c1681b933f6cb9f3376673440d862a336132e1565b6118f7600a89600461463d565b50611905601e88600461463d565b50602380546001600160a01b0319166001600160a01b03881617905561192e602686600261467b565b50602a849055611941602884600261467b565b50602b80546001600160a01b0319166001600160a01b03848116919091179091556023546040805163db7a460560e01b815281516119cf94939093169263db7a4605926004808401939192918290030181865afa1580156119a6573d6000803e3d6000fd5b505050506040513d601f19601f820116820180604052508101906119ca9190615340565b6132eb565b602360009054906101000a90046001600160a01b03166001600160a01b031663deef94de6040518163ffffffff1660e01b8152600401602060405180830381865afa158015611a22573d6000803e3d6000fd5b505050506040513d601f19601f82011682018060405250810190611a4691906153a2565b602480546001600160a01b0319166001600160a01b039283161790556023546040805163d63a6ccd60e01b81529051919092169163d63a6ccd9160048083019260209291908290030181865afa158015611aa4573d6000803e3d6000fd5b505050506040513d601f19601f82011682018060405250810190611ac891906153a2565b602580546001600160a01b0319166001600160a01b0392831690811790915560235460405163095ea7b360e01b81529216600483015260001960248301529063095ea7b3906044016020604051808303816000875af1158015611b2f573d6000803e3d6000fd5b505050506040513d601f19601f82011682018060405250810190611b539190615323565b506025546024805460405163095ea7b360e01b81526001600160a01b039182166004820152600019928101929092529091169063095ea7b3906044016020604051808303816000875af1158015611bae573d6000803e3d6000fd5b505050506040513d601f19601f82011682018060405250810190611bd29190615323565b5060235460405163095ea7b360e01b81526001600160a01b039091166004820181905260001960248301529063095ea7b3906044016020604051808303816000875af1158015611c26573d6000803e3d6000fd5b505050506040513d601f19601f82011682018060405250810190611c4a9190615323565b505060006035555050505050505050565b6001600160a01b038316331480611c775750611c7783336109aa565b611c935760405162461bcd60e51b8152600401610aba90615286565b6110a18383836132f7565b611cc87f9f2df0fed2c77648de5860a4cc508cd0818c85b8b8a1ab4ceeef8d981c8956a633611f7c565b611ce45760405162461bcd60e51b8152600401610aba906151fc565b610e8a848484846134a0565b60028160028110611d0057600080fd5b01546001600160a01b0316905081565b6000620f4240602360009054906101000a90046001600160a01b03166001600160a01b031663a035b1fe6040518163ffffffff1660e01b8152600401602060405180830381865afa158015611d69573d6000803e3d6000fd5b505050506040513d601f19601f82011682018060405250810190611d8d91906153bf565b6023546001600160a01b03166370a0823160026000015460405160e083901b6001600160e01b03191681526001600160a01b039091166004820152602401602060405180830381865afa158015611de8573d6000803e3d6000fd5b505050506040513d601f19601f82011682018060405250810190611e0c91906153bf565b611e16919061526f565b611e209190615164565b6025546001600160a01b03166370a0823160026000015460405160e083901b6001600160e01b03191681526001600160a01b039091166004820152602401602060405180830381865afa158015611e7b573d6000803e3d6000fd5b505050506040513d601f19601f82011682018060405250810190611e9f91906153bf565b610bb191906151e9565b611ed37f65d7a28e3265b37a6474929f336521b332c1681b933f6cb9f3376673440d862a33611f7c565b611f455760405162461bcd60e51b815260206004820152603960248201527f455243313135355072657365744d696e7465725061757365723a206d7573742060448201527f686176652070617573657220726f6c6520746f207061757365000000000000006064820152608401610aba565b61128361359a565b601e8160048110610b0957600080fd5b6000828152600160205260408120611f7590836135d7565b9392505050565b6000918252602082815260408084206001600160a01b0393909316845291905290205460ff1690565b606033611fb181610e90565b91505090565b6111ad3383836135e3565b6000818152600160205260408120610ae8906136c3565b60288160028110610b0957600080fd5b611ff161327c565b600082116120675760405162461bcd60e51b815260206004820152603960248201527f45205243313135355072657365744d696e7465725061757365723a20616d6f7560448201527f6e74206d7573742062652067726561746572207468616e2030000000000000006064820152608401610aba565b6000600a84600381111561207d5761207d615259565b6004811061208d5761208d6151ba565b0154116121025760405162461bcd60e51b815260206004820152603c60248201527f455243313135355072657365744d696e7465725061757365723a20746965722060448201527f7072696365206d7573742062652067726561746572207468616e2030000000006064820152608401610aba565b6001600160a01b038116158015908061212c575080801561212c57506001600160a01b0382163314155b6121875760405162461bcd60e51b815260206004820152602660248201527f526566657272616c206d75737420626520646966666572656e742066726f6d2060448201526539b2b73232b960d11b6064820152608401610aba565b600084600381111561219b5761219b615259565b602b54909150600160a01b900460ff1661243857600084600a8760038111156121c6576121c6615259565b600481106121d6576121d66151ba565b01546121e2919061526f565b6025549091506001600160a01b03166323b872dd336040516001600160e01b031960e084901b1681526001600160a01b039091166004820152306024820152604481018490526064016020604051808303816000875af115801561224a573d6000803e3d6000fd5b505050506040513d601f19601f8201168201806040525081019061226e9190615323565b50600061228b826026866122835760006136cd565b602a546136cd565b60235460405163f7e0ba5f60e01b8152600481018390529192506000916001600160a01b039091169063f7e0ba5f906024016020604051808303816000875af11580156122dc573d6000803e3d6000fd5b505050506040513d601f19601f8201168201806040525081019061230091906153bf565b60235490915060009061231e906001600160a01b031683602661373c565b9050851561235b57600061234b602360009054906101000a90046001600160a01b0316848a602a5461383a565b905061235781836151e9565b9150505b6025546040516370a0823160e01b81523060048201526000916001600160a01b0316906370a0823190602401602060405180830381865afa1580156123a4573d6000803e3d6000fd5b505050506040513d601f19601f820116820180604052508101906123c891906153bf565b9050801561242e576024805460405163b6b55f2560e01b8152600481018490526001600160a01b039091169163b6b55f259101600060405180830381600087803b15801561241557600080fd5b505af1158015612429573d6000803e3d6000fd5b505050505b5050505050612881565b60225442101561248a5760405162461bcd60e51b815260206004820152601a60248201527f50726573616c65206973206e6f742073746172746564207965740000000000006044820152606401610aba565b6000612494610b35565b90506000600e82600481106124ab576124ab6151ba565b60408051608081019182905292600492830201919082845b8154815260200190600101908083116124c3575050505050905085602c60006124e93390565b6001600160a01b03166001600160a01b031681526020019081526020016000206000848152602001908152602001600020600089600381111561252e5761252e615259565b8152602001908152602001600020600082825461254b91906151e9565b90915550869050603188600381111561256657612566615259565b60048110612576576125766151ba565b01600082825461258691906151e9565b90915550829050602d8860038111156125a1576125a1615259565b600481106125b1576125b16151ba565b01546125bd919061526f565b60318860038111156125d1576125d1615259565b600481106125e1576125e16151ba565b0154111561263d5760405162461bcd60e51b815260206004820152602360248201527f50726573616c65206d617820737570706c7920706572207765656b20726561636044820152621a195960ea1b6064820152608401610aba565b6000868289600381111561265357612653615259565b60048110612663576126636151ba565b6020020151612672919061526f565b6025549091506001600160a01b03166323b872dd336040516001600160e01b031960e084901b1681526001600160a01b039091166004820152306024820152604481018490526064016020604051808303816000875af11580156126da573d6000803e3d6000fd5b505050506040513d601f19601f820116820180604052508101906126fe9190615323565b5060008561270d57600061272a565b602554602a5461272a916001600160a01b03169084908a9061383a565b90506000861561273b576000612766565b602554612766906001600160a01b031684600260000154602a546001600160a01b039091169061383a565b602554909150600090612784906001600160a01b031685602661373c565b6025546040516370a0823160e01b81523060048201529192506000916001600160a01b03909116906370a0823190602401602060405180830381865afa1580156127d2573d6000803e3d6000fd5b505050506040513d601f19601f820116820180604052508101906127f691906153bf565b9050801561287957602554602b5460405163a9059cbb60e01b81526001600160a01b0391821660048201526024810184905291169063a9059cbb906044016020604051808303816000875af1158015612853573d6000803e3d6000fd5b505050506040513d601f19601f820116820180604052508101906128779190615323565b505b505050505050505b61289c338286604051806020016040528060008152506134a0565b50506110a16001600955565b6128b061327c565b60005b60048110156129085760005b60355481116128f5576128e38260038111156128dd576128dd615259565b826116c8565b806128ed816151d0565b9150506128bf565b5080612900816151d0565b9150506128b3565b506112836001600955565b61291b61327c565b6025546001600160a01b03166323b872dd336040516001600160e01b031960e084901b1681526001600160a01b039091166004820152306024820152604481018490526064016020604051808303816000875af1158015612980573d6000803e3d6000fd5b505050506040513d601f19601f820116820180604052508101906129a49190615323565b5060006129b2600283615164565b905060006129cc6129c38385615151565b602860006136cd565b60235460405163f7e0ba5f60e01b8152600481018390529192506000916001600160a01b039091169063f7e0ba5f906024016020604051808303816000875af1158015612a1d573d6000803e3d6000fd5b505050506040513d601f19601f82011682018060405250810190612a4191906153bf565b602354909150600090612a5f906001600160a01b031683602861373c565b603580549192506000612a71836151d0565b90915550506035546000908152603660205260408120829055612a92610dfd565b905060005b6004811015612b20576000818152600860209081526040808320546035548452603890925290912081908360048110612ad257612ad26151ba565b015582612adf828961526f565b612ae99190615164565b60355460009081526037602052604090208360048110612b0b57612b0b6151ba565b01555080612b18816151d0565b915050612a97565b506025546040516370a0823160e01b81523060048201526000916001600160a01b0316906370a0823190602401602060405180830381865afa158015612b6a573d6000803e3d6000fd5b505050506040513d601f19601f82011682018060405250810190612b8e91906153bf565b90508015612bf4576024805460405163b6b55f2560e01b8152600481018490526001600160a01b039091169163b6b55f259101600060405180830381600087803b158015612bdb57600080fd5b505af1158015612bef573d6000803e3d6000fd5b505050505b505050505050612c046001600955565b50565b600082815260208190526040902060010154612c22816131e1565b6110a1838361320d565b60268160028110610b0957600080fd5b60003381805b6004811015610df65760005b6035548111612c9157612c7384836003811115612c6d57612c6d615259565b83611285565b612c7d90846151e9565b925080612c89816151d0565b915050612c4e565b5080612c9c816151d0565b915050612c42565b6000612cbb82600381111561086b5761086b615259565b15612cda57612cd582600381111561086b5761086b615259565b612cdd565b60015b6035546000908152603760205260409020836003811115612d0057612d00615259565b60048110612d1057612d106151ba565b0154612d1c9190615164565b600a836003811115612d3057612d30615259565b60048110612d4057612d406151ba565b0154610ae891906151e9565b6001600160a01b038516331480612d685750612d6885336109aa565b612d845760405162461bcd60e51b8152600401610aba90615286565b611075858585858561399f565b612d9c600033611f7c565b612db85760405162461bcd60e51b8152600401610aba906152d4565b6111ad602d82600461463d565b6001600160a01b038316331480612de15750612de183336109aa565b612dfd5760405162461bcd60e51b8152600401610aba90615286565b6110a1838383613ae9565b602d8160048110610b0957600080fd5b612e228282611f7c565b6111ad576000828152602081815260408083206001600160a01b03851684529091529020805460ff19166001179055612e583390565b6001600160a01b0316816001600160a01b0316837f2f8788117e7eff1d82e926ec794901d17c78024a50270940304540a733656f0d60405160405180910390a45050565b6000611f75836001600160a01b038416613c0f565b6000610ae882613c5e565b6001600160a01b038416612ee25760405162461bcd60e51b8152600401610aba906153d8565b8151835114612f035760405162461bcd60e51b8152600401610aba90615419565b33612f1381600087878787613c9e565b60005b8451811015612faf57838181518110612f3157612f316151ba565b602002602001015160046000878481518110612f4f57612f4f6151ba565b602002602001015181526020019081526020016000206000886001600160a01b03166001600160a01b031681526020019081526020016000206000828254612f9791906151e9565b90915550819050612fa7816151d0565b915050612f16565b50846001600160a01b031660006001600160a01b0316826001600160a01b03167f4a39dc06d4c0dbc64b70af90fd698a233a518aa5d07e595d983b8c0526c8f7fb8787604051613000929190615461565b60405180910390a461301781600087878787613cac565b61107581600087878787613d5e565b81518351146130475760405162461bcd60e51b8152600401610aba90615419565b6001600160a01b03841661306d5760405162461bcd60e51b8152600401610aba90615486565b3361307c818787878787613c9e565b60005b845181101561316557600085828151811061309c5761309c6151ba565b6020026020010151905060008583815181106130ba576130ba6151ba565b60209081029190910181015160008481526004835260408082206001600160a01b038e16835290935291909120549091508181101561310b5760405162461bcd60e51b8152600401610aba906154cb565b60008381526004602090815260408083206001600160a01b038e8116855292528083208585039055908b1682528120805484929061314a9084906151e9565b925050819055505050508061315e906151d0565b905061307f565b50846001600160a01b0316866001600160a01b0316826001600160a01b03167f4a39dc06d4c0dbc64b70af90fd698a233a518aa5d07e595d983b8c0526c8f7fb87876040516131b5929190615461565b60405180910390a46131cb818787878787613cac565b6131d9818787878787613d5e565b505050505050565b612c048133613eb9565b6131f58282612e18565b60008281526001602052604090206110a19082612e9c565b6132178282613f12565b60008281526001602052604090206110a19082613f77565b613237613f8c565b6007805460ff191690557f5db9ee0a495bf2e6ff9c91a7834c1ba4fdd244a5e8aa4e537bd38aeae4b073aa335b6040516001600160a01b039091168152602001611129565b6002600954036132ce5760405162461bcd60e51b815260206004820152601f60248201527f5265656e7472616e637947756172643a207265656e7472616e742063616c6c006044820152606401610aba565b6002600955565b60066111ad828261555b565b6111ad82826131eb565b6111ad600282816146a8565b6001600160a01b03831661331d5760405162461bcd60e51b8152600401610aba9061561a565b805182511461333e5760405162461bcd60e51b8152600401610aba90615419565b600033905061336181856000868660405180602001604052806000815250613c9e565b60005b8351811015613429576000848281518110613381576133816151ba565b60200260200101519050600084838151811061339f5761339f6151ba565b60209081029190910181015160008481526004835260408082206001600160a01b038c1683529093529190912054909150818110156133f05760405162461bcd60e51b8152600401610aba9061565d565b60009283526004602090815260408085206001600160a01b038b1686529091529092209103905580613421816151d0565b915050613364565b5060006001600160a01b0316846001600160a01b0316826001600160a01b03167f4a39dc06d4c0dbc64b70af90fd698a233a518aa5d07e595d983b8c0526c8f7fb868660405161347a929190615461565b60405180910390a4610e8a81856000868660405180602001604052806000815250613cac565b6001600160a01b0384166134c65760405162461bcd60e51b8152600401610aba906153d8565b3360006134d285613fd5565b905060006134df85613fd5565b90506134f083600089858589613c9e565b60008681526004602090815260408083206001600160a01b038b168452909152812080548792906135229084906151e9565b909155505060408051878152602081018790526001600160a01b03808a1692600092918716917fc3d58168c5ae7397731d063d5bbf3d657854427343f4c083240f7aacaa2d0f62910160405180910390a461358283600089858589613cac565b61359183600089898989614020565b50505050505050565b6135a26140db565b6007805460ff191660011790557f62e78cea01bee320cd4e420270b5ea74000d11b0c9f74754ebdbfc544b05a2586132643390565b6000611f758383614121565b816001600160a01b0316836001600160a01b0316036136565760405162461bcd60e51b815260206004820152602960248201527f455243313135353a2073657474696e6720617070726f76616c20737461747573604482015268103337b91039b2b63360b91b6064820152608401610aba565b6001600160a01b03838116600081815260056020908152604080832094871680845294825291829020805460ff191686151590811790915591519182527f17307eab39ab6107e8899845ad3d59bd9653f200f220920489ca2b5937696c31910160405180910390a3505050565b6000610ae8825490565b600080805b600281101561370d578481600281106136ed576136ed6151ba565b01546136f990836151e9565b915080613705816151d0565b9150506136d2565b5061371883826151e9565b90506305f5e100613729828761526f565b6137339190615164565b95945050505050565b600080805b60028110156138315760006305f5e100858360028110613763576137636151ba565b015461376f908861526f565b6137799190615164565b9050866001600160a01b031663a9059cbb6002846002811061379d5761379d6151ba565b015460405160e083901b6001600160e01b03191681526001600160a01b039091166004820152602481018490526044016020604051808303816000875af11580156137ec573d6000803e3d6000fd5b505050506040513d601f19601f820116820180604052508101906138109190615323565b5061381b81846151e9565b9250508080613829906151d0565b915050613741565b50949350505050565b6040516370a0823160e01b815230600482015260009081906001600160a01b038716906370a0823190602401602060405180830381865afa158015613883573d6000803e3d6000fd5b505050506040513d601f19601f820116820180604052508101906138a791906153bf565b905060006305f5e1006138ba858861526f565b6138c49190615164565b9050808210156139215760405162461bcd60e51b815260206004820152602260248201527f4e6f7420656e6f7567682062616c616e6365206f6e2074686520636f6e74726160448201526118dd60f21b6064820152608401610aba565b60405163a9059cbb60e01b81526001600160a01b0386811660048301526024820183905288169063a9059cbb906044016020604051808303816000875af1158015613970573d6000803e3d6000fd5b505050506040513d601f19601f820116820180604052508101906139949190615323565b509695505050505050565b6001600160a01b0384166139c55760405162461bcd60e51b8152600401610aba90615486565b3360006139d185613fd5565b905060006139de85613fd5565b90506139ee838989858589613c9e565b60008681526004602090815260408083206001600160a01b038c16845290915290205485811015613a315760405162461bcd60e51b8152600401610aba906154cb565b60008781526004602090815260408083206001600160a01b038d8116855292528083208985039055908a16825281208054889290613a709084906151e9565b909155505060408051888152602081018890526001600160a01b03808b16928c821692918816917fc3d58168c5ae7397731d063d5bbf3d657854427343f4c083240f7aacaa2d0f62910160405180910390a4613ad0848a8a86868a613cac565b613ade848a8a8a8a8a614020565b505050505050505050565b6001600160a01b038316613b0f5760405162461bcd60e51b8152600401610aba9061561a565b336000613b1b84613fd5565b90506000613b2884613fd5565b9050613b4883876000858560405180602001604052806000815250613c9e565b60008581526004602090815260408083206001600160a01b038a16845290915290205484811015613b8b5760405162461bcd60e51b8152600401610aba9061565d565b60008681526004602090815260408083206001600160a01b038b81168086529184528285208a8703905582518b81529384018a90529092908816917fc3d58168c5ae7397731d063d5bbf3d657854427343f4c083240f7aacaa2d0f62910160405180910390a461359184886000868660405180602001604052806000815250613cac565b6000818152600183016020526040812054613c5657508154600181810184556000848152602080822090930184905584548482528286019093526040902091909155610ae8565b506000610ae8565b60006001600160e01b03198216636cdb3d1360e11b1480613c8f57506001600160e01b031982166303a24d0760e21b145b80610ae85750610ae88261414b565b6131d9868686868686614170565b601e83600081518110613cc157613cc16151ba565b602002602001015160048110613cd957613cd96151ba565b0154613d0b84600081518110613cf157613cf16151ba565b602002602001015160009081526008602052604090205490565b1115613d595760405162461bcd60e51b815260206004820152601b60248201527f536166654e46543a206d617820737570706c79207265616368656400000000006044820152606401610aba565b6131d9565b6001600160a01b0384163b156131d95760405163bc197c8160e01b81526001600160a01b0385169063bc197c8190613da290899089908890889088906004016156a1565b6020604051808303816000875af1925050508015613ddd575060408051601f3d908101601f19168201909252613dda918101906156ff565b60015b613e8957613de961571c565b806308c379a003613e225750613dfd615738565b80613e085750613e24565b8060405162461bcd60e51b8152600401610aba9190614804565b505b60405162461bcd60e51b815260206004820152603460248201527f455243313135353a207472616e7366657220746f206e6f6e2d455243313135356044820152732932b1b2b4bb32b91034b6b83632b6b2b73a32b960611b6064820152608401610aba565b6001600160e01b0319811663bc197c8160e01b146135915760405162461bcd60e51b8152600401610aba906157c1565b613ec38282611f7c565b6111ad57613ed0816142f7565b613edb836020614309565b604051602001613eec929190615809565b60408051601f198184030181529082905262461bcd60e51b8252610aba91600401614804565b613f1c8282611f7c565b156111ad576000828152602081815260408083206001600160a01b0385168085529252808320805460ff1916905551339285917ff6391f5c32d9c69d2a47ea670b442974b53935d1edc7fd64eb21e047a839171b9190a45050565b6000611f75836001600160a01b0384166144a4565b60075460ff166112835760405162461bcd60e51b815260206004820152601460248201527314185d5cd8589b194e881b9bdd081c185d5cd95960621b6044820152606401610aba565b6040805160018082528183019092526060916000919060208083019080368337019050509050828160008151811061400f5761400f6151ba565b602090810291909101015292915050565b6001600160a01b0384163b156131d95760405163f23a6e6160e01b81526001600160a01b0385169063f23a6e6190614064908990899088908890889060040161587e565b6020604051808303816000875af192505050801561409f575060408051601f3d908101601f1916820190925261409c918101906156ff565b60015b6140ab57613de961571c565b6001600160e01b0319811663f23a6e6160e01b146135915760405162461bcd60e51b8152600401610aba906157c1565b60075460ff16156112835760405162461bcd60e51b815260206004820152601060248201526f14185d5cd8589b194e881c185d5cd95960821b6044820152606401610aba565b6000826000018281548110614138576141386151ba565b9060005260206000200154905092915050565b60006001600160e01b03198216635a05180f60e01b1480610ae85750610ae882614597565b61417e8686868686866145cc565b6001600160a01b0385166142055760005b8351811015614203578281815181106141aa576141aa6151ba565b6020026020010151600860008684815181106141c8576141c86151ba565b6020026020010151815260200190815260200160002060008282546141ed91906151e9565b909155506141fc9050816151d0565b905061418f565b505b6001600160a01b0384166131d95760005b8351811015613591576000848281518110614233576142336151ba565b602002602001015190506000848381518110614251576142516151ba565b60200260200101519050600060086000848152602001908152602001600020549050818110156142d45760405162461bcd60e51b815260206004820152602860248201527f455243313135353a206275726e20616d6f756e74206578636565647320746f74604482015267616c537570706c7960c01b6064820152608401610aba565b600092835260086020526040909220910390556142f0816151d0565b9050614216565b6060610ae86001600160a01b03831660145b6060600061431883600261526f565b6143239060026151e9565b6001600160401b0381111561433a5761433a614865565b6040519080825280601f01601f191660200182016040528015614364576020820181803683370190505b509050600360fc1b8160008151811061437f5761437f6151ba565b60200101906001600160f81b031916908160001a905350600f60fb1b816001815181106143ae576143ae6151ba565b60200101906001600160f81b031916908160001a90535060006143d284600261526f565b6143dd9060016151e9565b90505b6001811115614455576f181899199a1a9b1b9c1cb0b131b232b360811b85600f1660108110614411576144116151ba565b1a60f81b828281518110614427576144276151ba565b60200101906001600160f81b031916908160001a90535060049490941c9361444e816158b6565b90506143e0565b508315611f755760405162461bcd60e51b815260206004820181905260248201527f537472696e67733a20686578206c656e67746820696e73756666696369656e746044820152606401610aba565b6000818152600183016020526040812054801561458d5760006144c8600183615151565b85549091506000906144dc90600190615151565b90508181146145415760008660000182815481106144fc576144fc6151ba565b906000526020600020015490508087600001848154811061451f5761451f6151ba565b6000918252602080832090910192909255918252600188019052604090208390555b8554869080614552576145526158cd565b600190038181906000526020600020016000905590558560010160008681526020019081526020016000206000905560019350505050610ae8565b6000915050610ae8565b60006001600160e01b03198216637965db0b60e01b1480610ae857506301ffc9a760e01b6001600160e01b0319831614610ae8565b6131d986868686868660075460ff16156131d95760405162461bcd60e51b815260206004820152602c60248201527f455243313135355061757361626c653a20746f6b656e207472616e736665722060448201526b1dda1a5b19481c185d5cd95960a21b6064820152608401610aba565b826004810192821561466b579160200282015b8281111561466b578251825591602001919060010190614650565b506146779291506146f0565b5090565b826002810192821561466b579160200282018281111561466b578251825591602001919060010190614650565b826002810192821561466b579160200282015b8281111561466b57825182546001600160a01b0319166001600160a01b039091161782556020909201916001909101906146bb565b5b8082111561467757600081556001016146f1565b6001600160a01b0381168114612c0457600080fd5b6000806040838503121561472d57600080fd5b823561473881614705565b946020939093013593505050565b6001600160e01b031981168114612c0457600080fd5b60006020828403121561476e57600080fd5b8135611f7581614746565b60006020828403121561478b57600080fd5b5035919050565b600080604083850312156147a557600080fd5b50508035926020909101359150565b60005b838110156147cf5781810151838201526020016147b7565b50506000910152565b600081518084526147f08160208601602086016147b4565b601f01601f19169290920160200192915050565b602081526000611f7560208301846147d8565b600081518084526020808501945080840160005b838110156148475781518752958201959082019060010161482b565b509495945050505050565b602081526000611f756020830184614817565b634e487b7160e01b600052604160045260246000fd5b604081018181106001600160401b038211171561489a5761489a614865565b60405250565b601f8201601f191681016001600160401b03811182821017156148c5576148c5614865565b6040525050565b60006001600160401b038211156148e5576148e5614865565b5060051b60200190565b600082601f83011261490057600080fd5b8135602061490d826148cc565b60405161491a82826148a0565b83815260059390931b850182019282810191508684111561493a57600080fd5b8286015b84811015613994578035835291830191830161493e565b60006001600160401b0383111561496e5761496e614865565b604051614985601f8501601f1916602001826148a0565b80915083815284848401111561499a57600080fd5b83836020830137600060208583010152509392505050565b600082601f8301126149c357600080fd5b611f7583833560208501614955565b600080600080608085870312156149e857600080fd5b84356149f381614705565b935060208501356001600160401b0380821115614a0f57600080fd5b614a1b888389016148ef565b94506040870135915080821115614a3157600080fd5b614a3d888389016148ef565b93506060870135915080821115614a5357600080fd5b50614a60878288016149b2565b91505092959194509250565b600060208284031215614a7e57600080fd5b8135611f7581614705565b600080600080600060a08688031215614aa157600080fd5b8535614aac81614705565b94506020860135614abc81614705565b935060408601356001600160401b0380821115614ad857600080fd5b614ae489838a016148ef565b94506060880135915080821115614afa57600080fd5b614b0689838a016148ef565b93506080880135915080821115614b1c57600080fd5b50614b29888289016149b2565b9150509295509295909350565b60008060408385031215614b4957600080fd5b823591506020830135614b5b81614705565b809150509250929050565b803560048110614b7557600080fd5b919050565b600060208284031215614b8c57600080fd5b611f7582614b66565b600080600060608486031215614baa57600080fd5b8335614bb581614705565b9250614bc360208501614b66565b9150604084013590509250925092565b60006020808385031215614be657600080fd5b82356001600160401b0380821115614bfd57600080fd5b818501915085601f830112614c1157600080fd5b8135614c1c816148cc565b604051614c2982826148a0565b82815260059290921b8401850191858101915088831115614c4957600080fd5b8585015b83811015614c8157803585811115614c655760008081fd5b614c738b89838a01016148ef565b845250918601918601614c4d565b5098975050505050505050565b60008060408385031215614ca157600080fd5b82356001600160401b0380821115614cb857600080fd5b818501915085601f830112614ccc57600080fd5b81356020614cd9826148cc565b604051614ce682826148a0565b83815260059390931b8501820192828101915089841115614d0657600080fd5b948201945b83861015614d2d578535614d1e81614705565b82529482019490820190614d0b565b96505086013592505080821115614d4357600080fd5b50614d50858286016148ef565b9150509250929050565b60008060408385031215614d6d57600080fd5b61473883614b66565b600082601f830112614d8757600080fd5b604051608081018181106001600160401b0382111715614da957614da9614865565b604052806080840185811115614dbe57600080fd5b845b81811015614dd8578035835260209283019201614dc0565b509195945050505050565b600082601f830112614df457600080fd5b604051614e008161487b565b806040840185811115614dbe57600080fd5b600080600080600080600080610200898b031215614e2f57600080fd5b88356001600160401b03811115614e4557600080fd5b8901601f81018b13614e5657600080fd5b614e658b823560208401614955565b985050614e758a60208b01614d76565b9650614e848a60a08b01614d76565b9550610120890135614e9581614705565b9450614ea58a6101408b01614de3565b93506101808901359250614ebd8a6101a08b01614de3565b91506101e0890135614ece81614705565b809150509295985092959890939650565b600080600060608486031215614ef457600080fd5b8335614eff81614705565b925060208401356001600160401b0380821115614f1b57600080fd5b614f27878388016148ef565b93506040860135915080821115614f3d57600080fd5b50614f4a868287016148ef565b9150509250925092565b60008060008060808587031215614f6a57600080fd5b8435614f7581614705565b9350602085013592506040850135915060608501356001600160401b03811115614f9e57600080fd5b614a60878288016149b2565b600080600060608486031215614fbf57600080fd5b8335614fca81614705565b95602085013595506040909401359392505050565b8015158114612c0457600080fd5b6000806040838503121561500057600080fd5b823561500b81614705565b91506020830135614b5b81614fdf565b60008060006060848603121561503057600080fd5b8335925060208401359150604084013561504981614705565b809150509250925092565b60008060006060848603121561506957600080fd5b61507284614b66565b925060208401359150604084013561504981614705565b6000806040838503121561509c57600080fd5b82356150a781614705565b91506020830135614b5b81614705565b600080600080600060a086880312156150cf57600080fd5b85356150da81614705565b945060208601356150ea81614705565b9350604086013592506060860135915060808601356001600160401b0381111561511357600080fd5b614b29888289016149b2565b60006080828403121561513157600080fd5b611f758383614d76565b634e487b7160e01b600052601160045260246000fd5b81810381811115610ae857610ae861513b565b60008261518157634e487b7160e01b600052601260045260246000fd5b500490565b600181811c9082168061519a57607f821691505b602082108103610cc157634e487b7160e01b600052602260045260246000fd5b634e487b7160e01b600052603260045260246000fd5b6000600182016151e2576151e261513b565b5060010190565b80820180821115610ae857610ae861513b565b60208082526038908201527f455243313135355072657365744d696e7465725061757365723a206d7573742060408201527f68617665206d696e74657220726f6c6520746f206d696e740000000000000000606082015260800190565b634e487b7160e01b600052602160045260246000fd5b8082028115828204841417610ae857610ae861513b565b6020808252602e908201527f455243313135353a2063616c6c6572206973206e6f7420746f6b656e206f776e60408201526d195c881bdc88185c1c1c9bdd995960921b606082015260800190565b6020808252602f908201527f455243313135355072657365744d696e7465725061757365723a206d7573742060408201526e686176652061646d696e20726f6c6560881b606082015260800190565b60006020828403121561533557600080fd5b8151611f7581614fdf565b60006040828403121561535257600080fd5b82601f83011261536157600080fd5b60405161536d8161487b565b80604084018581111561537f57600080fd5b845b81811015614dd857805161539481614705565b835260209283019201615381565b6000602082840312156153b457600080fd5b8151611f7581614705565b6000602082840312156153d157600080fd5b5051919050565b60208082526021908201527f455243313135353a206d696e7420746f20746865207a65726f206164647265736040820152607360f81b606082015260800190565b60208082526028908201527f455243313135353a2069647320616e6420616d6f756e7473206c656e677468206040820152670dad2e6dac2e8c6d60c31b606082015260800190565b6040815260006154746040830185614817565b82810360208401526137338185614817565b60208082526025908201527f455243313135353a207472616e7366657220746f20746865207a65726f206164604082015264647265737360d81b606082015260800190565b6020808252602a908201527f455243313135353a20696e73756666696369656e742062616c616e636520666f60408201526939103a3930b739b332b960b11b606082015260800190565b601f8211156110a157600081815260208120601f850160051c8101602086101561553c5750805b601f850160051c820191505b818110156131d957828155600101615548565b81516001600160401b0381111561557457615574614865565b615588816155828454615186565b84615515565b602080601f8311600181146155bd57600084156155a55750858301515b600019600386901b1c1916600185901b1785556131d9565b600085815260208120601f198616915b828110156155ec578886015182559484019460019091019084016155cd565b508582101561560a5787850151600019600388901b60f8161c191681555b5050505050600190811b01905550565b60208082526023908201527f455243313135353a206275726e2066726f6d20746865207a65726f206164647260408201526265737360e81b606082015260800190565b60208082526024908201527f455243313135353a206275726e20616d6f756e7420657863656564732062616c604082015263616e636560e01b606082015260800190565b60006001600160a01b03808816835280871660208401525060a060408301526156cd60a0830186614817565b82810360608401526156df8186614817565b905082810360808401526156f381856147d8565b98975050505050505050565b60006020828403121561571157600080fd5b8151611f7581614746565b600060033d11156157355760046000803e5060005160e01c5b90565b600060443d10156157465790565b6040516003193d81016004833e81513d6001600160401b03816024840111818411171561577557505050505090565b828501915081518181111561578d5750505050505090565b843d87010160208285010111156157a75750505050505090565b6157b6602082860101876148a0565b509095945050505050565b60208082526028908201527f455243313135353a204552433131353552656365697665722072656a656374656040820152676420746f6b656e7360c01b606082015260800190565b7f416363657373436f6e74726f6c3a206163636f756e74200000000000000000008152600083516158418160178501602088016147b4565b7001034b99036b4b9b9b4b733903937b6329607d1b60179184019182015283516158728160288401602088016147b4565b01602801949350505050565b60006001600160a01b03808816835280871660208401525084604083015283606083015260a0608083015261134760a08301846147d8565b6000816158c5576158c561513b565b506000190190565b634e487b7160e01b600052603160045260246000fdfea2646970667358221220d25f2b1404551a416e0d36bcf143f5d6c22465254c7656709929c1533b3b876164736f6c63430008110033b53127684a568b3173ae13b9f8a6016e243e63b6e8ee1178d6a717850b5d610365d7a28e3265b37a6474929f336521b332c1681b933f6cb9f3376673440d862a9f2df0fed2c77648de5860a4cc508cd0818c85b8b8a1ab4ceeef8d981c8956a6",
  "devdoc": {
    "author": "crypt0grapher",
    "kind": "dev",
    "methods": {
      "balanceOf(address,uint256)": {
        "details": "See {IERC1155-balanceOf}. Requirements: - `account` cannot be the zero address."
      },
      "balanceOfBatch(address[],uint256[])": {
        "details": "See {IERC1155-balanceOfBatch}. Requirements: - `accounts` and `ids` must have the same length."
      },
      "buy(uint8,uint256,address)": {
        "params": {
          "_amount": "amount of USD to spend",
          "_referral": "referral getting 5% of the price, should not be the sender, if not specified, goes to treasury",
          "_tier": "tier of the NFT to purchase which stands for ERC1155 token id [0..3]"
        }
      },
      "distributeProfit(uint256)": {
        "params": {
          "_amountUSD": "amount of USD to distribute"
        }
      },
      "exists(uint256)": {
        "details": "Indicates whether any token exist with a given id, or not."
      },
      "getCurrentPresaleWeek()": {
        "returns": {
          "_0": "returns 1-4"
        }
      },
      "getDiscountedPriceTable()": {
        "returns": {
          "_0": "uint256[] containing all NFT prices in one table in USD for the current presale week"
        }
      },
      "getFairPrice(uint8)": {
        "returns": {
          "_0": "counts not only the sale price but also share of the profit for the tier"
        }
      },
      "getPrice(uint8)": {
        "returns": {
          "_0": "NFT price in USD"
        }
      },
      "getPriceTable()": {
        "returns": {
          "_0": "uint256[] containing all NFT prices in one table in USD"
        }
      },
      "getRoleAdmin(bytes32)": {
        "details": "Returns the admin role that controls `role`. See {grantRole} and {revokeRole}. To change a role's admin, use {_setRoleAdmin}."
      },
      "getRoleMember(bytes32,uint256)": {
        "details": "Returns one of the accounts that have `role`. `index` must be a value between 0 and {getRoleMemberCount}, non-inclusive. Role bearers are not sorted in any particular way, and their ordering may change at any point. WARNING: When using {getRoleMember} and {getRoleMemberCount}, make sure you perform all queries on the same block. See the following https://forum.openzeppelin.com/t/iterating-over-elements-on-enumerableset-in-openzeppelin-contracts/2296[forum post] for more information."
      },
      "getRoleMemberCount(bytes32)": {
        "details": "Returns the number of accounts that have `role`. Can be used together with {getRoleMember} to enumerate all bearers of a role."
      },
      "getUnclaimedRewards()": {
        "returns": {
          "_0": "amount of the rewards not yet distributed to NFT holders"
        }
      },
      "grantRole(bytes32,address)": {
        "details": "Grants `role` to `account`. If `account` had not been already granted `role`, emits a {RoleGranted} event. Requirements: - the caller must have ``role``'s admin role. May emit a {RoleGranted} event."
      },
      "hasRole(bytes32,address)": {
        "details": "Returns `true` if `account` has been granted `role`."
      },
      "isApprovedForAll(address,address)": {
        "details": "See {IERC1155-isApprovedForAll}."
      },
      "mint(address,uint256,uint256,bytes)": {
        "details": "Creates `amount` new tokens for `to`, of token type `id`. See {ERC1155-_mint}. Requirements: - the caller must have the `MINTER_ROLE`."
      },
      "mintBatch(address,uint256[],uint256[],bytes)": {
        "details": "xref:ROOT:erc1155.adoc#batch-operations[Batched] variant of {mint}."
      },
      "pause()": {
        "details": "Pauses all token transfers. See {ERC1155Pausable} and {Pausable-_pause}. Requirements: - the caller must have the `PAUSER_ROLE`."
      },
      "paused()": {
        "details": "Returns true if the contract is paused, and false otherwise."
      },
      "renounceRole(bytes32,address)": {
        "details": "Revokes `role` from the calling account. Roles are often managed via {grantRole} and {revokeRole}: this function's purpose is to provide a mechanism for accounts to lose their privileges if they are compromised (such as when a trusted device is misplaced). If the calling account had been revoked `role`, emits a {RoleRevoked} event. Requirements: - the caller must be `account`. May emit a {RoleRevoked} event."
      },
      "revokeRole(bytes32,address)": {
        "details": "Revokes `role` from `account`. If `account` had been granted `role`, emits a {RoleRevoked} event. Requirements: - the caller must have ``role``'s admin role. May emit a {RoleRevoked} event."
      },
      "safeBatchTransferFrom(address,address,uint256[],uint256[],bytes)": {
        "details": "See {IERC1155-safeBatchTransferFrom}."
      },
      "safeTransferFrom(address,address,uint256,uint256,bytes)": {
        "details": "See {IERC1155-safeTransferFrom}."
      },
      "setApprovalForAll(address,bool)": {
        "details": "See {IERC1155-setApprovalForAll}."
      },
      "setDiscountedPriceTable(uint256[][])": {
        "params": {
          "_presalePrice": "4x4 table of the discounted prices for all 4 tiers for all 4 weeks of the presale"
        }
      },
      "totalSupply(uint256)": {
        "details": "Total amount of tokens in with a given id."
      },
      "unpause()": {
        "details": "Unpauses all token transfers. See {ERC1155Pausable} and {Pausable-_unpause}. Requirements: - the caller must have the `PAUSER_ROLE`."
      },
      "uri(uint256)": {
        "details": "See {IERC1155MetadataURI-uri}. This implementation returns the same URI for *all* token types. It relies on the token type ID substitution mechanism https://eips.ethereum.org/EIPS/eip-1155#metadata[defined in the EIP]. Clients calling this function must replace the `\\{id\\}` substring with the actual token type ID."
      }
    },
    "stateVariables": {
      "currentDistributionId": {
        "return": "current distribution number, the one that assigned to the latest distribution",
        "returns": {
          "_0": "current distribution number, the one that assigned to the latest distribution"
        }
      }
    },
    "title": "Safe NFT",
    "version": 1
  },
  "userdoc": {
    "kind": "user",
    "methods": {
      "TIERS()": {
        "notice": "todo a number of tiers should be flexible"
      },
      "buy(uint8,uint256,address)": {
        "notice": "purchase Safe NFT for exact amount of USD"
      },
      "claimReward(uint8,uint256)": {
        "notice": "the function calculates the amount of the reward for the NFT holder and transfers it to the NFT holder"
      },
      "claimRewardsTotal()": {
        "notice": "the function calculates the amount of the reward for the NFT holder and transfers it to the NFT holder"
      },
      "currentDistributionId()": {
        "notice": "gets the current distribution number"
      },
      "distributeProfit(uint256)": {
        "notice": "distribute profit among the NFT holders, the function fixes the amount of the reward and the NFT holders and their shares at the moment of the call. It does not transfer the reward to the NFT holders, it just records the amount of the reward for each NFT holder."
      },
      "getBalanceTable(address)": {
        "notice": "gets NFT balance for all tiers"
      },
      "getCurrentPresaleWeek()": {
        "notice": "gets the current presale week"
      },
      "getDiscountedPriceTable()": {
        "notice": "gets all discounted NFT prices in USD, for presale for all 4 weeks of the presale"
      },
      "getFairPrice(uint8)": {
        "notice": "gets NFT fair price in USD"
      },
      "getFairPriceTable()": {
        "notice": "gets NFT price for all tiers in USD ///todo in SAFE!"
      },
      "getMyBalanceTable()": {
        "notice": "gets NFT balance for all tiers"
      },
      "getMyPendingRewardsTotal()": {
        "notice": "returns the amount of the reward share for the NFT holder"
      },
      "getMyShareOfTreasury()": {
        "notice": "**Your NFTs (% Treasury) **is calculated in $ as a relation of total price of NFTs possessed by the $ amount of Investment Pool - including its SAFE and USDC components."
      },
      "getPendingRewards(address,uint8,uint256)": {
        "notice": "returns the amount of the reward share for the NFT holder"
      },
      "getPrice(uint8)": {
        "notice": "gets NFT price in USD"
      },
      "getPriceTable()": {
        "notice": "gets all NFT prices in USD, the original ones without discounts"
      },
      "getTreasuryCost()": {
        "notice": "gets the total usd value of the NFT minted"
      },
      "getUnclaimedRewards()": {
        "notice": "undistributed profit amount in USD"
      },
      "setDiscountedPriceTable(uint256[][])": {
        "notice": "sets all discounted NFT prices in USD, for presale for all 4 weeks of the presale"
      },
      "togglePresale()": {
        "notice": "toggles presale status"
      }
    },
    "notice": "Safe Yields NFT token based on ERC1155 standard, id [0..3] represents one of the 4 tiers",
    "version": 1
  },
  "storageLayout": {
    "storage": [
      {
        "astId": 24,
        "contract": "contracts/SafeNFT.sol:SafeNFT",
        "label": "_roles",
        "offset": 0,
        "slot": "0",
        "type": "t_mapping(t_bytes32,t_struct(RoleData)19_storage)"
      },
      {
        "astId": 334,
        "contract": "contracts/SafeNFT.sol:SafeNFT",
        "label": "_roleMembers",
        "offset": 0,
        "slot": "1",
        "type": "t_mapping(t_bytes32,t_struct(AddressSet)4430_storage)"
      },
      {
        "astId": 6360,
        "contract": "contracts/SafeNFT.sol:SafeNFT",
        "label": "wallets",
        "offset": 0,
        "slot": "2",
        "type": "t_array(t_address)2_storage"
      },
      {
        "astId": 726,
        "contract": "contracts/SafeNFT.sol:SafeNFT",
        "label": "_balances",
        "offset": 0,
        "slot": "4",
        "type": "t_mapping(t_uint256,t_mapping(t_address,t_uint256))"
      },
      {
        "astId": 732,
        "contract": "contracts/SafeNFT.sol:SafeNFT",
        "label": "_operatorApprovals",
        "offset": 0,
        "slot": "5",
        "type": "t_mapping(t_address,t_mapping(t_address,t_bool))"
      },
      {
        "astId": 734,
        "contract": "contracts/SafeNFT.sol:SafeNFT",
        "label": "_uri",
        "offset": 0,
        "slot": "6",
        "type": "t_string_storage"
      },
      {
        "astId": 556,
        "contract": "contracts/SafeNFT.sol:SafeNFT",
        "label": "_paused",
        "offset": 0,
        "slot": "7",
        "type": "t_bool"
      },
      {
        "astId": 2213,
        "contract": "contracts/SafeNFT.sol:SafeNFT",
        "label": "_totalSupply",
        "offset": 0,
        "slot": "8",
        "type": "t_mapping(t_uint256,t_uint256)"
      },
      {
        "astId": 657,
        "contract": "contracts/SafeNFT.sol:SafeNFT",
        "label": "_status",
        "offset": 0,
        "slot": "9",
        "type": "t_uint256"
      },
      {
        "astId": 4752,
        "contract": "contracts/SafeNFT.sol:SafeNFT",
        "label": "price",
        "offset": 0,
        "slot": "10",
        "type": "t_array(t_uint256)4_storage"
      },
      {
        "astId": 4758,
        "contract": "contracts/SafeNFT.sol:SafeNFT",
        "label": "presalePrice",
        "offset": 0,
        "slot": "14",
        "type": "t_array(t_array(t_uint256)4_storage)4_storage"
      },
      {
        "astId": 4762,
        "contract": "contracts/SafeNFT.sol:SafeNFT",
        "label": "maxSupply",
        "offset": 0,
        "slot": "30",
        "type": "t_array(t_uint256)4_storage"
      },
      {
        "astId": 4764,
        "contract": "contracts/SafeNFT.sol:SafeNFT",
        "label": "presaleStartDate",
        "offset": 0,
        "slot": "34",
        "type": "t_uint256"
      },
      {
        "astId": 4767,
        "contract": "contracts/SafeNFT.sol:SafeNFT",
        "label": "safeToken",
        "offset": 0,
        "slot": "35",
        "type": "t_contract(ISafeToken)6778"
      },
      {
        "astId": 4770,
        "contract": "contracts/SafeNFT.sol:SafeNFT",
        "label": "safeVault",
        "offset": 0,
        "slot": "36",
        "type": "t_contract(ISafeVault)6799"
      },
      {
        "astId": 4773,
        "contract": "contracts/SafeNFT.sol:SafeNFT",
        "label": "usd",
        "offset": 0,
        "slot": "37",
        "type": "t_contract(IERC20)2651"
      },
      {
        "astId": 4780,
        "contract": "contracts/SafeNFT.sol:SafeNFT",
        "label": "priceDistributionOnMint",
        "offset": 0,
        "slot": "38",
        "type": "t_array(t_uint256)2_storage"
      },
      {
        "astId": 4784,
        "contract": "contracts/SafeNFT.sol:SafeNFT",
        "label": "profitDistribution",
        "offset": 0,
        "slot": "40",
        "type": "t_array(t_uint256)2_storage"
      },
      {
        "astId": 4786,
        "contract": "contracts/SafeNFT.sol:SafeNFT",
        "label": "referralShareForNFTPurchase",
        "offset": 0,
        "slot": "42",
        "type": "t_uint256"
      },
      {
        "astId": 4788,
        "contract": "contracts/SafeNFT.sol:SafeNFT",
        "label": "stabilizerWallet",
        "offset": 0,
        "slot": "43",
        "type": "t_address"
      },
      {
        "astId": 4790,
        "contract": "contracts/SafeNFT.sol:SafeNFT",
        "label": "presale",
        "offset": 20,
        "slot": "43",
        "type": "t_bool"
      },
      {
        "astId": 4798,
        "contract": "contracts/SafeNFT.sol:SafeNFT",
        "label": "soldPerPresaleWeek",
        "offset": 0,
        "slot": "44",
        "type": "t_mapping(t_address,t_mapping(t_uint256,t_mapping(t_uint256,t_uint256)))"
      },
      {
        "astId": 4802,
        "contract": "contracts/SafeNFT.sol:SafeNFT",
        "label": "presaleMaxSupply",
        "offset": 0,
        "slot": "45",
        "type": "t_array(t_uint256)4_storage"
      },
      {
        "astId": 4806,
        "contract": "contracts/SafeNFT.sol:SafeNFT",
        "label": "currentlySoldInPresale",
        "offset": 0,
        "slot": "49",
        "type": "t_array(t_uint256)4_storage"
      },
      {
        "astId": 4808,
        "contract": "contracts/SafeNFT.sol:SafeNFT",
        "label": "currentDistributionId",
        "offset": 0,
        "slot": "53",
        "type": "t_uint256"
      },
      {
        "astId": 4812,
        "contract": "contracts/SafeNFT.sol:SafeNFT",
        "label": "distributionOfProfit",
        "offset": 0,
        "slot": "54",
        "type": "t_mapping(t_uint256,t_uint256)"
      },
      {
        "astId": 4818,
        "contract": "contracts/SafeNFT.sol:SafeNFT",
        "label": "distributionByTier",
        "offset": 0,
        "slot": "55",
        "type": "t_mapping(t_uint256,t_array(t_uint256)4_storage)"
      },
      {
        "astId": 4824,
        "contract": "contracts/SafeNFT.sol:SafeNFT",
        "label": "distributionTotalSupplySnapshot",
        "offset": 0,
        "slot": "56",
        "type": "t_mapping(t_uint256,t_array(t_uint256)4_storage)"
      },
      {
        "astId": 4832,
        "contract": "contracts/SafeNFT.sol:SafeNFT",
        "label": "alreadyDistributedAmount",
        "offset": 0,
        "slot": "57",
        "type": "t_mapping(t_uint256,t_mapping(t_uint256,t_mapping(t_address,t_uint256)))"
      },
      {
        "astId": 4838,
        "contract": "contracts/SafeNFT.sol:SafeNFT",
        "label": "alreadyDistributedAmountByTier",
        "offset": 0,
        "slot": "58",
        "type": "t_mapping(t_uint256,t_array(t_uint256)4_storage)"
      }
    ],
    "types": {
      "t_address": {
        "encoding": "inplace",
        "label": "address",
        "numberOfBytes": "20"
      },
      "t_array(t_address)2_storage": {
        "base": "t_address",
        "encoding": "inplace",
        "label": "address[2]",
        "numberOfBytes": "64"
      },
      "t_array(t_array(t_uint256)4_storage)4_storage": {
        "base": "t_array(t_uint256)4_storage",
        "encoding": "inplace",
        "label": "uint256[4][4]",
        "numberOfBytes": "512"
      },
      "t_array(t_bytes32)dyn_storage": {
        "base": "t_bytes32",
        "encoding": "dynamic_array",
        "label": "bytes32[]",
        "numberOfBytes": "32"
      },
      "t_array(t_uint256)2_storage": {
        "base": "t_uint256",
        "encoding": "inplace",
        "label": "uint256[2]",
        "numberOfBytes": "64"
      },
      "t_array(t_uint256)4_storage": {
        "base": "t_uint256",
        "encoding": "inplace",
        "label": "uint256[4]",
        "numberOfBytes": "128"
      },
      "t_bool": {
        "encoding": "inplace",
        "label": "bool",
        "numberOfBytes": "1"
      },
      "t_bytes32": {
        "encoding": "inplace",
        "label": "bytes32",
        "numberOfBytes": "32"
      },
      "t_contract(IERC20)2651": {
        "encoding": "inplace",
        "label": "contract IERC20",
        "numberOfBytes": "20"
      },
      "t_contract(ISafeToken)6778": {
        "encoding": "inplace",
        "label": "contract ISafeToken",
        "numberOfBytes": "20"
      },
      "t_contract(ISafeVault)6799": {
        "encoding": "inplace",
        "label": "contract ISafeVault",
        "numberOfBytes": "20"
      },
      "t_mapping(t_address,t_bool)": {
        "encoding": "mapping",
        "key": "t_address",
        "label": "mapping(address => bool)",
        "numberOfBytes": "32",
        "value": "t_bool"
      },
      "t_mapping(t_address,t_mapping(t_address,t_bool))": {
        "encoding": "mapping",
        "key": "t_address",
        "label": "mapping(address => mapping(address => bool))",
        "numberOfBytes": "32",
        "value": "t_mapping(t_address,t_bool)"
      },
      "t_mapping(t_address,t_mapping(t_uint256,t_mapping(t_uint256,t_uint256)))": {
        "encoding": "mapping",
        "key": "t_address",
        "label": "mapping(address => mapping(uint256 => mapping(uint256 => uint256)))",
        "numberOfBytes": "32",
        "value": "t_mapping(t_uint256,t_mapping(t_uint256,t_uint256))"
      },
      "t_mapping(t_address,t_uint256)": {
        "encoding": "mapping",
        "key": "t_address",
        "label": "mapping(address => uint256)",
        "numberOfBytes": "32",
        "value": "t_uint256"
      },
      "t_mapping(t_bytes32,t_struct(AddressSet)4430_storage)": {
        "encoding": "mapping",
        "key": "t_bytes32",
        "label": "mapping(bytes32 => struct EnumerableSet.AddressSet)",
        "numberOfBytes": "32",
        "value": "t_struct(AddressSet)4430_storage"
      },
      "t_mapping(t_bytes32,t_struct(RoleData)19_storage)": {
        "encoding": "mapping",
        "key": "t_bytes32",
        "label": "mapping(bytes32 => struct AccessControl.RoleData)",
        "numberOfBytes": "32",
        "value": "t_struct(RoleData)19_storage"
      },
      "t_mapping(t_bytes32,t_uint256)": {
        "encoding": "mapping",
        "key": "t_bytes32",
        "label": "mapping(bytes32 => uint256)",
        "numberOfBytes": "32",
        "value": "t_uint256"
      },
      "t_mapping(t_uint256,t_array(t_uint256)4_storage)": {
        "encoding": "mapping",
        "key": "t_uint256",
        "label": "mapping(uint256 => uint256[4])",
        "numberOfBytes": "32",
        "value": "t_array(t_uint256)4_storage"
      },
      "t_mapping(t_uint256,t_mapping(t_address,t_uint256))": {
        "encoding": "mapping",
        "key": "t_uint256",
        "label": "mapping(uint256 => mapping(address => uint256))",
        "numberOfBytes": "32",
        "value": "t_mapping(t_address,t_uint256)"
      },
      "t_mapping(t_uint256,t_mapping(t_uint256,t_mapping(t_address,t_uint256)))": {
        "encoding": "mapping",
        "key": "t_uint256",
        "label": "mapping(uint256 => mapping(uint256 => mapping(address => uint256)))",
        "numberOfBytes": "32",
        "value": "t_mapping(t_uint256,t_mapping(t_address,t_uint256))"
      },
      "t_mapping(t_uint256,t_mapping(t_uint256,t_uint256))": {
        "encoding": "mapping",
        "key": "t_uint256",
        "label": "mapping(uint256 => mapping(uint256 => uint256))",
        "numberOfBytes": "32",
        "value": "t_mapping(t_uint256,t_uint256)"
      },
      "t_mapping(t_uint256,t_uint256)": {
        "encoding": "mapping",
        "key": "t_uint256",
        "label": "mapping(uint256 => uint256)",
        "numberOfBytes": "32",
        "value": "t_uint256"
      },
      "t_string_storage": {
        "encoding": "bytes",
        "label": "string",
        "numberOfBytes": "32"
      },
      "t_struct(AddressSet)4430_storage": {
        "encoding": "inplace",
        "label": "struct EnumerableSet.AddressSet",
        "members": [
          {
            "astId": 4429,
            "contract": "contracts/SafeNFT.sol:SafeNFT",
            "label": "_inner",
            "offset": 0,
            "slot": "0",
            "type": "t_struct(Set)4115_storage"
          }
        ],
        "numberOfBytes": "64"
      },
      "t_struct(RoleData)19_storage": {
        "encoding": "inplace",
        "label": "struct AccessControl.RoleData",
        "members": [
          {
            "astId": 16,
            "contract": "contracts/SafeNFT.sol:SafeNFT",
            "label": "members",
            "offset": 0,
            "slot": "0",
            "type": "t_mapping(t_address,t_bool)"
          },
          {
            "astId": 18,
            "contract": "contracts/SafeNFT.sol:SafeNFT",
            "label": "adminRole",
            "offset": 0,
            "slot": "1",
            "type": "t_bytes32"
          }
        ],
        "numberOfBytes": "64"
      },
      "t_struct(Set)4115_storage": {
        "encoding": "inplace",
        "label": "struct EnumerableSet.Set",
        "members": [
          {
            "astId": 4110,
            "contract": "contracts/SafeNFT.sol:SafeNFT",
            "label": "_values",
            "offset": 0,
            "slot": "0",
            "type": "t_array(t_bytes32)dyn_storage"
          },
          {
            "astId": 4114,
            "contract": "contracts/SafeNFT.sol:SafeNFT",
            "label": "_indexes",
            "offset": 0,
            "slot": "1",
            "type": "t_mapping(t_bytes32,t_uint256)"
          }
        ],
        "numberOfBytes": "64"
      },
      "t_uint256": {
        "encoding": "inplace",
        "label": "uint256",
        "numberOfBytes": "32"
      }
    }
  }
}