{
  "address": "0x8F7Bf74CcC19cB9579acf35Fcf357d39408cEe6F",
  "abi": [
    {
      "inputs": [
        {
          "internalType": "address",
          "name": "_usdToken",
          "type": "address"
        },
        {
          "internalType": "address",
          "name": "_safeVault",
          "type": "address"
        },
        {
          "internalType": "address[2]",
          "name": "_wallets",
          "type": "address[2]"
        },
        {
          "internalType": "uint256[2]",
          "name": "_taxDistributionOnMintAndBurn",
          "type": "uint256[2]"
        },
        {
          "internalType": "uint256",
          "name": "_buyTaxPercent",
          "type": "uint256"
        },
        {
          "internalType": "uint256",
          "name": "_sellTaxPercent",
          "type": "uint256"
        }
      ],
      "stateMutability": "nonpayable",
      "type": "constructor"
    },
    {
      "anonymous": false,
      "inputs": [
        {
          "indexed": true,
          "internalType": "address",
          "name": "owner",
          "type": "address"
        },
        {
          "indexed": true,
          "internalType": "address",
          "name": "spender",
          "type": "address"
        },
        {
          "indexed": false,
          "internalType": "uint256",
          "name": "value",
          "type": "uint256"
        }
      ],
      "name": "Approval",
      "type": "event"
    },
    {
      "anonymous": false,
      "inputs": [
        {
          "indexed": false,
          "internalType": "address",
          "name": "account",
          "type": "address"
        }
      ],
      "name": "Paused",
      "type": "event"
    },
    {
      "anonymous": false,
      "inputs": [
        {
          "indexed": true,
          "internalType": "address",
          "name": "from",
          "type": "address"
        },
        {
          "indexed": true,
          "internalType": "address",
          "name": "to",
          "type": "address"
        },
        {
          "indexed": false,
          "internalType": "uint256",
          "name": "value",
          "type": "uint256"
        }
      ],
      "name": "Transfer",
      "type": "event"
    },
    {
      "anonymous": false,
      "inputs": [
        {
          "indexed": false,
          "internalType": "address",
          "name": "account",
          "type": "address"
        }
      ],
      "name": "Unpaused",
      "type": "event"
    },
    {
      "inputs": [],
      "name": "BUY_TAX_PERCENT",
      "outputs": [
        {
          "internalType": "uint256",
          "name": "",
          "type": "uint256"
        }
      ],
      "stateMutability": "view",
      "type": "function"
    },
    {
      "inputs": [],
      "name": "SELL_TAX_PERCENT",
      "outputs": [
        {
          "internalType": "uint256",
          "name": "",
          "type": "uint256"
        }
      ],
      "stateMutability": "view",
      "type": "function"
    },
    {
      "inputs": [],
      "name": "WALLETS",
      "outputs": [
        {
          "internalType": "uint256",
          "name": "",
          "type": "uint256"
        }
      ],
      "stateMutability": "view",
      "type": "function"
    },
    {
      "inputs": [
        {
          "internalType": "address",
          "name": "",
          "type": "address"
        }
      ],
      "name": "admin",
      "outputs": [
        {
          "internalType": "uint256",
          "name": "",
          "type": "uint256"
        }
      ],
      "stateMutability": "view",
      "type": "function"
    },
    {
      "inputs": [
        {
          "internalType": "address",
          "name": "",
          "type": "address"
        },
        {
          "internalType": "address",
          "name": "",
          "type": "address"
        }
      ],
      "name": "allowance",
      "outputs": [
        {
          "internalType": "uint256",
          "name": "",
          "type": "uint256"
        }
      ],
      "stateMutability": "view",
      "type": "function"
    },
    {
      "inputs": [
        {
          "internalType": "address",
          "name": "usr",
          "type": "address"
        },
        {
          "internalType": "uint256",
          "name": "wad",
          "type": "uint256"
        }
      ],
      "name": "approve",
      "outputs": [
        {
          "internalType": "bool",
          "name": "",
          "type": "bool"
        }
      ],
      "stateMutability": "nonpayable",
      "type": "function"
    },
    {
      "inputs": [
        {
          "internalType": "address",
          "name": "",
          "type": "address"
        }
      ],
      "name": "balanceOf",
      "outputs": [
        {
          "internalType": "uint256",
          "name": "",
          "type": "uint256"
        }
      ],
      "stateMutability": "view",
      "type": "function"
    },
    {
      "inputs": [
        {
          "internalType": "address",
          "name": "",
          "type": "address"
        }
      ],
      "name": "blacklist",
      "outputs": [
        {
          "internalType": "bool",
          "name": "",
          "type": "bool"
        }
      ],
      "stateMutability": "view",
      "type": "function"
    },
    {
      "inputs": [
        {
          "internalType": "address",
          "name": "_user",
          "type": "address"
        },
        {
          "internalType": "uint256",
          "name": "_amount",
          "type": "uint256"
        }
      ],
      "name": "burn",
      "outputs": [],
      "stateMutability": "nonpayable",
      "type": "function"
    },
    {
      "inputs": [
        {
          "internalType": "uint256",
          "name": "_safeTokensToBuy",
          "type": "uint256"
        }
      ],
      "name": "buyExactAmountOfSafe",
      "outputs": [],
      "stateMutability": "nonpayable",
      "type": "function"
    },
    {
      "inputs": [
        {
          "internalType": "uint256",
          "name": "_usdToSpend",
          "type": "uint256"
        }
      ],
      "name": "buySafeForExactAmountOfUSD",
      "outputs": [
        {
          "internalType": "uint256",
          "name": "",
          "type": "uint256"
        }
      ],
      "stateMutability": "nonpayable",
      "type": "function"
    },
    {
      "inputs": [],
      "name": "decimals",
      "outputs": [
        {
          "internalType": "uint8",
          "name": "",
          "type": "uint8"
        }
      ],
      "stateMutability": "view",
      "type": "function"
    },
    {
      "inputs": [
        {
          "internalType": "address",
          "name": "guy",
          "type": "address"
        }
      ],
      "name": "deny",
      "outputs": [],
      "stateMutability": "nonpayable",
      "type": "function"
    },
    {
      "inputs": [
        {
          "internalType": "uint256",
          "name": "_safeTokensToBuy",
          "type": "uint256"
        }
      ],
      "name": "estimateBuyExactAmountOfSafe",
      "outputs": [],
      "stateMutability": "nonpayable",
      "type": "function"
    },
    {
      "inputs": [],
      "name": "getUsdReserves",
      "outputs": [
        {
          "internalType": "uint256",
          "name": "",
          "type": "uint256"
        }
      ],
      "stateMutability": "view",
      "type": "function"
    },
    {
      "inputs": [],
      "name": "getWallets",
      "outputs": [
        {
          "internalType": "address[2]",
          "name": "",
          "type": "address[2]"
        }
      ],
      "stateMutability": "view",
      "type": "function"
    },
    {
      "inputs": [
        {
          "internalType": "address",
          "name": "_usdToken",
          "type": "address"
        },
        {
          "internalType": "address",
          "name": "_safeVault",
          "type": "address"
        },
        {
          "internalType": "address[2]",
          "name": "_wallets",
          "type": "address[2]"
        },
        {
          "internalType": "uint256[2]",
          "name": "_taxDistributionOnMintAndBurn",
          "type": "uint256[2]"
        },
        {
          "internalType": "uint256",
          "name": "_buyTaxPercent",
          "type": "uint256"
        },
        {
          "internalType": "uint256",
          "name": "_sellTaxPercent",
          "type": "uint256"
        }
      ],
      "name": "initialize",
      "outputs": [],
      "stateMutability": "nonpayable",
      "type": "function"
    },
    {
      "inputs": [
        {
          "internalType": "address",
          "name": "_user",
          "type": "address"
        },
        {
          "internalType": "uint256",
          "name": "_amount",
          "type": "uint256"
        }
      ],
      "name": "mint",
      "outputs": [],
      "stateMutability": "nonpayable",
      "type": "function"
    },
    {
      "inputs": [],
      "name": "name",
      "outputs": [
        {
          "internalType": "string",
          "name": "",
          "type": "string"
        }
      ],
      "stateMutability": "view",
      "type": "function"
    },
    {
      "inputs": [],
      "name": "paused",
      "outputs": [
        {
          "internalType": "bool",
          "name": "",
          "type": "bool"
        }
      ],
      "stateMutability": "view",
      "type": "function"
    },
    {
      "inputs": [],
      "name": "price",
      "outputs": [
        {
          "internalType": "uint256",
          "name": "",
          "type": "uint256"
        }
      ],
      "stateMutability": "view",
      "type": "function"
    },
    {
      "inputs": [
        {
          "internalType": "address",
          "name": "guy",
          "type": "address"
        }
      ],
      "name": "rely",
      "outputs": [],
      "stateMutability": "nonpayable",
      "type": "function"
    },
    {
      "inputs": [],
      "name": "safeVault",
      "outputs": [
        {
          "internalType": "contract ISafeVault",
          "name": "",
          "type": "address"
        }
      ],
      "stateMutability": "view",
      "type": "function"
    },
    {
      "inputs": [
        {
          "internalType": "uint256",
          "name": "_safeTokensToSell",
          "type": "uint256"
        }
      ],
      "name": "sellExactAmountOfSafe",
      "outputs": [],
      "stateMutability": "nonpayable",
      "type": "function"
    },
    {
      "inputs": [
        {
          "internalType": "uint256",
          "name": "_usdToGet",
          "type": "uint256"
        }
      ],
      "name": "sellSafeForExactAmountOfUSD",
      "outputs": [],
      "stateMutability": "nonpayable",
      "type": "function"
    },
    {
      "inputs": [],
      "name": "symbol",
      "outputs": [
        {
          "internalType": "string",
          "name": "",
          "type": "string"
        }
      ],
      "stateMutability": "view",
      "type": "function"
    },
    {
      "inputs": [
        {
          "internalType": "uint256",
          "name": "",
          "type": "uint256"
        }
      ],
      "name": "taxDistributionOnMintAndBurn",
      "outputs": [
        {
          "internalType": "uint256",
          "name": "",
          "type": "uint256"
        }
      ],
      "stateMutability": "view",
      "type": "function"
    },
    {
      "inputs": [],
      "name": "totalSupply",
      "outputs": [
        {
          "internalType": "uint256",
          "name": "",
          "type": "uint256"
        }
      ],
      "stateMutability": "view",
      "type": "function"
    },
    {
      "inputs": [
        {
          "internalType": "address",
          "name": "dst",
          "type": "address"
        },
        {
          "internalType": "uint256",
          "name": "wad",
          "type": "uint256"
        }
      ],
      "name": "transfer",
      "outputs": [
        {
          "internalType": "bool",
          "name": "",
          "type": "bool"
        }
      ],
      "stateMutability": "nonpayable",
      "type": "function"
    },
    {
      "inputs": [
        {
          "internalType": "address",
          "name": "src",
          "type": "address"
        },
        {
          "internalType": "address",
          "name": "dst",
          "type": "address"
        },
        {
          "internalType": "uint256",
          "name": "wad",
          "type": "uint256"
        }
      ],
      "name": "transferFrom",
      "outputs": [
        {
          "internalType": "bool",
          "name": "",
          "type": "bool"
        }
      ],
      "stateMutability": "nonpayable",
      "type": "function"
    },
    {
      "inputs": [],
      "name": "usd",
      "outputs": [
        {
          "internalType": "contract IERC20",
          "name": "",
          "type": "address"
        }
      ],
      "stateMutability": "view",
      "type": "function"
    },
    {
      "inputs": [],
      "name": "version",
      "outputs": [
        {
          "internalType": "string",
          "name": "",
          "type": "string"
        }
      ],
      "stateMutability": "view",
      "type": "function"
    },
    {
      "inputs": [
        {
          "internalType": "uint256",
          "name": "",
          "type": "uint256"
        }
      ],
      "name": "wallets",
      "outputs": [
        {
          "internalType": "address",
          "name": "",
          "type": "address"
        }
      ],
      "stateMutability": "view",
      "type": "function"
    }
  ],
  "transactionHash": "0xfbbee7db4201e58d90d22f3579175c02fd6a59615a22939487136b04a37582d6",
  "args": [
    "0x179522635726710Dd7D2035a81d856de4Aa7836c",
    "0x3Eca9FeB89C04F5B75bDAf72961f97B4D66fE68e",
    [
      "0xBF89e2e63e471cC29Da80bcD661342A9935982A8",
      "0xf2c1FE530d9c1686950F33d1B47d8B9474D92965"
    ],
    [
      30000000,
      20000000
    ],
    250000,
    250000
  ],
  "numDeployments": 3,
  "solcInputHash": "bd4df74437d4f78d086ff175832a64db",
  "bytecode": "0x60806040523480156200001157600080fd5b506040516200271838038062002718833981016040819052620000349162000310565b6002805460ff191690556001600355620000538686868686866200005f565b505050505050620003f6565b600062000079600080516020620026f88339815191525490565b90506001600160a01b038116620000a9576001600160a01b03600080516020620026f883398151915255620000bf565b336001600160a01b03821614620000bf57600080fd5b33600090815260066020526040902060019055600c80546001600160a01b038881166001600160a01b031992831617909255600b8054928a16929091169190911790556200010d85620001ae565b6200011c600d856002620001c1565b506009839055600a829055600b54600c5460405163095ea7b360e01b81526001600160a01b039182166004820152600019602482015291169063095ea7b3906044016020604051808303816000875af11580156200017e573d6000803e3d6000fd5b505050506040513d601f19601f82011682018060405250810190620001a49190620003cb565b5050505050505050565b620001bd600082600262000204565b5050565b8260028101928215620001f2579160200282015b82811115620001f2578251825591602001919060010190620001d5565b50620002009291506200024f565b5090565b8260028101928215620001f2579160200282015b82811115620001f257825182546001600160a01b0319166001600160a01b0390911617825560209092019160019091019062000218565b5b8082111562000200576000815560010162000250565b80516001600160a01b03811681146200027e57600080fd5b919050565b604080519081016001600160401b0381118282101715620002b457634e487b7160e01b600052604160045260246000fd5b60405290565b600082601f830112620002cc57600080fd5b620002d662000283565b806040840185811115620002e957600080fd5b845b8181101562000305578051845260209384019301620002eb565b509095945050505050565b60008060008060008061010087890312156200032b57600080fd5b620003368762000266565b955060206200034781890162000266565b955088605f8901126200035957600080fd5b6200036362000283565b8060808a018b8111156200037657600080fd5b60408b015b818110156200039d576200038f8162000266565b84529284019284016200037b565b50819750620003ad8c82620002ba565b96505050505060c0870151915060e087015190509295509295509295565b600060208284031215620003de57600080fd5b81518015158114620003ef57600080fd5b9392505050565b6122f280620004066000396000f3fe608060405234801561001057600080fd5b50600436106101fb5760003560e01c80638ce8e9d71161011a578063a9059cbb116100ad578063db7a46051161007c578063db7a460514610474578063dd62ed3e14610489578063deef94de146104b4578063f7e0ba5f146104c7578063f9f92be4146104da57600080fd5b8063a9059cbb14610432578063b416d1a314610445578063ba69c3581461044e578063d63a6ccd1461046157600080fd5b80639c52a7f1116100e95780639c52a7f1146103f15780639dc29fac14610404578063a035b1fe14610417578063a634755e1461041f57600080fd5b80638ce8e9d7146103b55780638d3bd55b146103be57806395d89b41146103c65780639baaa20f146103e957600080fd5b80635c975abb1161019257806370a082311161016157806370a08231146103445780637ad71f7214610364578063889a52401461038f57806389d1cabc146103a257600080fd5b80635c975abb146102f5578063624e5b051461030057806363a846f81461031157806365fae35e1461033157600080fd5b8063313ce567116101ce578063313ce5671461029357806340c10f19146102ad57806349da8288146102c257806354fd4d50146102d557600080fd5b806306fdde0314610200578063095ea7b31461024657806318160ddd1461026957806323b872dd14610280575b600080fd5b6102306040518060400160405280601181526020017029b0b332902cb4b2b63239902a37b5b2b760791b81525081565b60405161023d9190611e51565b60405180910390f35b610259610254366004611e7b565b6104fd565b604051901515815260200161023d565b61027260045481565b60405190815260200161023d565b61025961028e366004611ea5565b610565565b61029b600681565b60405160ff909116815260200161023d565b6102c06102bb366004611e7b565b6108ef565b005b6102c06102d0366004611f68565b61092c565b610230604051806040016040528060018152602001603160f81b81525081565b60025460ff16610259565b6102c061030e366004612014565b50565b61027261031f36600461202d565b60066020526000908152604090205481565b6102c061033f36600461202d565b610a92565b61027261035236600461202d565b60076020526000908152604090205481565b610377610372366004612014565b610ade565b6040516001600160a01b03909116815260200161023d565b61027261039d366004612014565b610afe565b6102c06103b0366004612014565b610b15565b610272600a5481565b610272600281565b610230604051806040016040528060048152602001635341464560e01b81525081565b610272610d93565b6102c06103ff36600461202d565b610e06565b6102c0610412366004611e7b565b610e4f565b610272610e88565b6102c061042d366004612014565b610ebe565b610259610440366004611e7b565b611063565b61027260095481565b6102c061045c366004612014565b611070565b600b54610377906001600160a01b031681565b61047c611320565b60405161023d9190612048565b610272610497366004612082565b600860209081526000928352604080842090915290825290205481565b600c54610377906001600160a01b031681565b6102726104d5366004612014565b611364565b6102596104e836600461202d565b60056020526000908152604090205460ff1681565b3360008181526008602090815260408083206001600160a01b03871680855290835281842086905590518581529293909290917f8c5be1e5ebec7d5bd14f71427d1e84f3dd0314c0f7b2291e5b200ac8c7c3b925910160405180910390a35060015b92915050565b600061056f611643565b60025460ff16156105ba5760405162461bcd60e51b815260206004820152601060248201526f14d85999551bdad95b8e9c185d5cd95960821b60448201526064015b60405180910390fd5b6001600160a01b03841615806105d757506001600160a01b038316155b806105fa57506001600160a01b0384166000908152600660205260409020546001145b8061061d57506001600160a01b0383166000908152600660205260409020546001145b6106695760405162461bcd60e51b815260206004820152601e60248201527f53616665546f6b656e3a207472616e736665722d70726f68696269746564000060448201526064016105b1565b6001600160a01b0384166000908152600760205260409020548211156106d15760405162461bcd60e51b815260206004820152601e60248201527f53616665546f6b656e3a696e73756666696369656e742d62616c616e6365000060448201526064016105b1565b6001600160a01b03841660009081526005602052604090205460ff1615801561071357506001600160a01b03831660009081526005602052604090205460ff16155b6107575760405162461bcd60e51b815260206004820152601560248201527414d85999551bdad95b8e989b1858dadb1a5cdd1959605a1b60448201526064016105b1565b6001600160a01b038416331461082d576001600160a01b03841660009081526008602090815260408083203384529091529020548211156107da5760405162461bcd60e51b815260206004820181905260248201527f53616665546f6b656e3a696e73756666696369656e742d616c6c6f77616e636560448201526064016105b1565b6001600160a01b0384166000908152600860209081526040808320338452909152902054610808908361169c565b6001600160a01b03851660009081526008602090815260408083203384529091529020555b6001600160a01b038416600090815260076020526040902054610850908361169c565b6001600160a01b03808616600090815260076020526040808220939093559085168152205461087f90836116b7565b6001600160a01b0380851660008181526007602052604090819020939093559151908616907fddf252ad1be2c89b69c2b068fc378daa952ba7f163c4a11628f55a4df523b3ef906108d39086815260200190565b60405180910390a35060016108e86001600355565b9392505050565b3360009081526006602052604090205460011461091e5760405162461bcd60e51b81526004016105b1906120b5565b61092882826116d2565b5050565b60006109567fb53127684a568b3173ae13b9f8a6016e243e63b6e8ee1178d6a717850b5d61035490565b90506001600160a01b038116610995576001600160a01b037fb53127684a568b3173ae13b9f8a6016e243e63b6e8ee1178d6a717850b5d6103556109aa565b336001600160a01b038216146109aa57600080fd5b33600090815260066020526040902060019055600c80546001600160a01b038881166001600160a01b031992831617909255600b8054928a16929091169190911790556109f685611764565b610a03600d856002611d52565b506009839055600a829055600b54600c5460405163095ea7b360e01b81526001600160a01b039182166004820152600019602482015291169063095ea7b3906044016020604051808303816000875af1158015610a64573d6000803e3d6000fd5b505050506040513d601f19601f82011682018060405250810190610a8891906120ec565b5050505050505050565b33600090815260066020526040902054600114610ac15760405162461bcd60e51b81526004016105b1906120b5565b6001600160a01b0316600090815260066020526040902060019055565b60008160028110610aee57600080fd5b01546001600160a01b0316905081565b600d8160028110610b0e57600080fd5b0154905081565b610b1d611643565b610b52604051806040016040528060148152602001736275794578616374416d6f756e744f665361666560601b815250611771565b6000620f4240610b60610e88565b610b6a9084612124565b610b74919061213b565b9050610bad6040518060400160405280601581526020017475736450726963654f66546f6b656e73546f42757960581b815250826117b4565b60006305f5e10060095483610bc29190612124565b610bcc919061213b565b9050610bf6604051806040016040528060068152602001650eae6c8a8c2f60d31b815250826117b4565b6000610c02828461215d565b9050610c306040518060400160405280600a8152602001691d5cd9151bd4dc195b9960b21b815250826117b4565b610c3a33856116d2565b600b546001600160a01b03166323b872dd336040516001600160e01b031960e084901b1681526001600160a01b039091166004820152306024820152604481018490526064016020604051808303816000875af1158015610c9f573d6000803e3d6000fd5b505050506040513d601f19601f82011682018060405250810190610cc391906120ec565b50600b54600090610cdf906001600160a01b031684600d6117f9565b9050610d07604051806040016040528060048152602001631c185a5960e21b815250826117b4565b6000610d138285612170565b1115610d8557600c546001600160a01b031663b6b55f25610d348385612170565b6040518263ffffffff1660e01b8152600401610d5291815260200190565b600060405180830381600087803b158015610d6c57600080fd5b505af1158015610d80573d6000803e3d6000fd5b505050505b5050505061030e6001600355565b600c54604080516318160ddd60e01b815290516000926001600160a01b0316916318160ddd9160048083019260209291908290030181865afa158015610ddd573d6000803e3d6000fd5b505050506040513d601f19601f82011682018060405250810190610e019190612183565b905090565b33600090815260066020526040902054600114610e355760405162461bcd60e51b81526004016105b1906120b5565b6001600160a01b0316600090815260066020526040812055565b33600090815260066020526040902054600114610e7e5760405162461bcd60e51b81526004016105b1906120b5565b6109288282611aa9565b6000600454600014610eb657600454610e9f610d93565b610eac90620f4240612124565b610e01919061213b565b50620f424090565b610ec6611643565b60006305f5e100600a546305f5e100610edf919061215d565b610ee99084612124565b610ef3919061213b565b905060006305f5e100600a5483610f0a9190612124565b610f14919061213b565b90506000610f20610e88565b610f2d84620f4240612124565b610f37919061213b565b9050610f433382611aa9565b600c546001600160a01b031663f3fef3a3336040516001600160e01b031960e084901b1681526001600160a01b03909116600482015260248101879052604401600060405180830381600087803b158015610f9d57600080fd5b505af1158015610fb1573d6000803e3d6000fd5b5050600c5460405163f3fef3a360e01b8152306004820152602481018690526001600160a01b03909116925063f3fef3a39150604401600060405180830381600087803b15801561100157600080fd5b505af1158015611015573d6000803e3d6000fd5b5050600b546000925061103491506001600160a01b031684600d6117f9565b905060006110428285612170565b1115610d8557600c546001600160a01b031663b6b55f25610d348386612170565b60006108e8338484610565565b611078611643565b6110ae6040518060400160405280601581526020017473656c6c4578616374416d6f756e744f665361666560581b815250611771565b6000620f42406110bc610e88565b6110c69084612124565b6110d0919061213b565b90506111116040518060400160405280601681526020017f75736450726963654f66546f6b656e73546f53656c6c00000000000000000000815250826117b4565b60006305f5e100600a54836111269190612124565b611130919061213b565b905061115a604051806040016040528060068152602001650eae6c8a8c2f60d31b815250826117b4565b60006111668284612170565b90506111956040518060400160405280600b81526020016a3ab9b22a37a932ba3ab93760a91b815250826117b4565b61119f3385611aa9565b6111c160405180606001604052806023815260200161226f60239139856117b4565b600c546001600160a01b031663f3fef3a3336040516001600160e01b031960e084901b1681526001600160a01b03909116600482015260248101849052604401600060405180830381600087803b15801561121b57600080fd5b505af115801561122f573d6000803e3d6000fd5b5050600c5460405163f3fef3a360e01b8152306004820152602481018690526001600160a01b03909116925063f3fef3a39150604401600060405180830381600087803b15801561127f57600080fd5b505af1158015611293573d6000803e3d6000fd5b505050506112b960405180606001604052806024815260200161224b60249139836117b4565b600b546000906112d4906001600160a01b031684600d6117f9565b905061131460405180604001604052806011815260200170757364546178202d20706169643a20257360781b815250828561130f9190612170565b6117b4565b60006110428285612170565b611328611d90565b60408051808201918290529060009060029082845b81546001600160a01b0316815260019091019060200180831161133d575050505050905090565b600061136e611643565b6113906040518060600160405280602b8152602001612292602b9139836117b4565b6113c86040518060400160405280601081526020016f5f6d736753656e64657228293a20257360801b8152506113c33390565b611ca4565b6040805180820190915260078152667573643a20257360c81b6020820152600b546113fc91906001600160a01b0316611ca4565b60006305f5e1006009546305f5e1006114159190612170565b61141f9085612124565b611429919061213b565b905061145d6040518060400160405280601081526020016f757364546f53776170466f725361666560801b815250826117b4565b60006305f5e100600954856114729190612124565b61147c919061213b565b90506114a6604051806040016040528060068152602001650eae6c8a8c2f60d31b815250826117b4565b60006114b0610e88565b6114bd84620f4240612124565b6114c7919061213b565b90506114fa6040518060400160405280600f81526020016e73616665546f6b656e73546f42757960881b815250826117b4565b61150433826116d2565b600b546001600160a01b03166323b872dd336040516001600160e01b031960e084901b1681526001600160a01b039091166004820152306024820152604481018890526064016020604051808303816000875af1158015611569573d6000803e3d6000fd5b505050506040513d601f19601f8201168201806040525081019061158d91906120ec565b50600b546000906115a9906001600160a01b031684600d6117f9565b600c549091506001600160a01b031663b6b55f25826115c8868861215d565b6115d29190612170565b6040518263ffffffff1660e01b81526004016115f091815260200190565b600060405180830381600087803b15801561160a57600080fd5b505af115801561161e573d6000803e3d6000fd5b50505050828461162e919061215d565b94505050505061163e6001600355565b919050565b6002600354036116955760405162461bcd60e51b815260206004820152601f60248201527f5265656e7472616e637947756172643a207265656e7472616e742063616c6c0060448201526064016105b1565b6002600355565b6000826116a98382612170565b915081111561055f57600080fd5b6000826116c4838261215d565b915081101561055f57600080fd5b6001600160a01b0382166000908152600760205260409020546116f590826116b7565b6001600160a01b03831660009081526007602052604090205560045461171b90826116b7565b6004556040518181526001600160a01b038316906000907fddf252ad1be2c89b69c2b068fc378daa952ba7f163c4a11628f55a4df523b3ef906020015b60405180910390a35050565b6109286000826002611dae565b61030e816040516024016117859190611e51565b60408051601f198184030181529190526020810180516001600160e01b031663104c13eb60e21b179052611ce5565b61092882826040516024016117ca92919061219c565b60408051601f198184030181529190526020810180516001600160e01b0316632d839cb360e21b179052611ce5565b60006118396040518060400160405280601781526020017f2d2d205f64697374726962757465207374617274202d2d000000000000000000815250611771565b61186a6040518060400160405280600f81526020016e446973747269627574696e6720257360881b815250846117b4565b604080518082018252600a81526962616c616e636520257360b01b602082015290516370a0823160e01b81523060048201526118f691906001600160a01b038716906370a0823190602401602060405180830381865afa1580156118d2573d6000803e3d6000fd5b505050506040513d601f19601f8201168201806040525081019061130f9190612183565b6000805b6002811015611a3a5760006305f5e10085836002811061191c5761191c6121be565b01546119289088612124565b611932919061213b565b90506119846040518060400160405280601081526020016f73656e64696e6720257320746f20257360801b8152508260008560028110611974576119746121be565b01546001600160a01b0316611d06565b866001600160a01b031663a9059cbb600084600281106119a6576119a66121be565b015460405160e083901b6001600160e01b03191681526001600160a01b039091166004820152602481018490526044016020604051808303816000875af11580156119f5573d6000803e3d6000fd5b505050506040513d601f19601f82011682018060405250810190611a1991906120ec565b50611a24818461215d565b9250508080611a32906121d4565b9150506118fa565b50611a6b6040518060400160405280600e81526020016d446973747269627574656420257360901b815250826117b4565b611aa1604051806040016040528060158152602001742d2d205f6469737472696275746520656e64202d2d60581b815250611771565b949350505050565b6001600160a01b038216600090815260076020526040902054811115611b115760405162461bcd60e51b815260206004820152601e60248201527f53616665546f6b656e3a696e73756666696369656e742d62616c616e6365000060448201526064016105b1565b6001600160a01b0382163314801590611b4f57506001600160a01b038216600090815260086020908152604080832033845290915290205460001914155b15611c1a576001600160a01b0382166000908152600860209081526040808320338452909152902054811115611bc75760405162461bcd60e51b815260206004820181905260248201527f53616665546f6b656e3a696e73756666696369656e742d616c6c6f77616e636560448201526064016105b1565b6001600160a01b0382166000908152600860209081526040808320338452909152902054611bf5908261169c565b6001600160a01b03831660009081526008602090815260408083203384529091529020555b6001600160a01b038216600090815260076020526040902054611c3d908261169c565b6001600160a01b038316600090815260076020526040902055600454611c63908261169c565b6004556040518181526000906001600160a01b038416907fddf252ad1be2c89b69c2b068fc378daa952ba7f163c4a11628f55a4df523b3ef90602001611758565b6109288282604051602401611cba9291906121ed565b60408051601f198184030181529190526020810180516001600160e01b031663319af33360e01b1790525b80516a636f6e736f6c652e6c6f67602083016000808483855afa5050505050565b611d4d838383604051602401611d1e93929190612218565b60408051601f198184030181529190526020810180516001600160e01b031663038fd88960e31b179052611ce5565b505050565b8260028101928215611d80579160200282015b82811115611d80578251825591602001919060010190611d65565b50611d8c929150611df6565b5090565b60405180604001604052806002906020820280368337509192915050565b8260028101928215611d80579160200282015b82811115611d8057825182546001600160a01b0319166001600160a01b03909116178255602090920191600190910190611dc1565b5b80821115611d8c5760008155600101611df7565b6000815180845260005b81811015611e3157602081850181015186830182015201611e15565b506000602082860101526020601f19601f83011685010191505092915050565b6020815260006108e86020830184611e0b565b80356001600160a01b038116811461163e57600080fd5b60008060408385031215611e8e57600080fd5b611e9783611e64565b946020939093013593505050565b600080600060608486031215611eba57600080fd5b611ec384611e64565b9250611ed160208501611e64565b9150604084013590509250925092565b6040805190810167ffffffffffffffff81118282101715611f1257634e487b7160e01b600052604160045260246000fd5b60405290565b600082601f830112611f2957600080fd5b611f31611ee1565b806040840185811115611f4357600080fd5b845b81811015611f5d578035845260209384019301611f45565b509095945050505050565b6000806000806000806101008789031215611f8257600080fd5b611f8b87611e64565b95506020611f9a818901611e64565b955088605f890112611fab57600080fd5b611fb3611ee1565b8060808a018b811115611fc557600080fd5b60408b015b81811015611fe857611fdb81611e64565b8452928401928401611fca565b50819750611ff68c82611f18565b96505050505060c0870135915060e087013590509295509295509295565b60006020828403121561202657600080fd5b5035919050565b60006020828403121561203f57600080fd5b6108e882611e64565b60408101818360005b60028110156120795781516001600160a01b0316835260209283019290910190600101612051565b50505092915050565b6000806040838503121561209557600080fd5b61209e83611e64565b91506120ac60208401611e64565b90509250929050565b60208082526018908201527f53616665546f6b656e3a6e6f742d617574686f72697a65640000000000000000604082015260600190565b6000602082840312156120fe57600080fd5b815180151581146108e857600080fd5b634e487b7160e01b600052601160045260246000fd5b808202811582820484141761055f5761055f61210e565b60008261215857634e487b7160e01b600052601260045260246000fd5b500490565b8082018082111561055f5761055f61210e565b8181038181111561055f5761055f61210e565b60006020828403121561219557600080fd5b5051919050565b6040815260006121af6040830185611e0b565b90508260208301529392505050565b634e487b7160e01b600052603260045260246000fd5b6000600182016121e6576121e661210e565b5060010190565b6040815260006122006040830185611e0b565b90506001600160a01b03831660208301529392505050565b60608152600061222b6060830186611e0b565b90508360208301526001600160a01b038316604083015294935050505056fe7472616e736665727265642066726f6d207468652075736572207573645461783a2025736275726e656420746f6b656e732066726f6d205f6d736753656e64657228293a20257362757953616665466f724578616374416d6f756e744f665553442c205f757364546f5370656e643a202573a2646970667358221220b171648ee75bd83d9a412dbd7a65baca80b9574070e5b87008da26df2113301064736f6c63430008110033b53127684a568b3173ae13b9f8a6016e243e63b6e8ee1178d6a717850b5d6103",
  "devdoc": {
    "author": "crypt0grapher",
    "kind": "dev",
    "methods": {
      "buyExactAmountOfSafe(uint256)": {
        "params": {
          "_safeTokensToBuy": "number of tokens to buy, the respective amount of USDC will be deducted from the user, Safe Yield token will be minted"
        }
      },
      "buySafeForExactAmountOfUSD(uint256)": {
        "params": {
          "_usdToSpend": "number of tokens to buy, the respective amount of USD will be deducted from the user, Safe Yield token will be minted"
        }
      },
      "paused()": {
        "details": "Returns true if the contract is paused, and false otherwise."
      },
      "sellExactAmountOfSafe(uint256)": {
        "params": {
          "_safeTokensToSell": "number of tokens to sell, the respective amount of USDC will be returned from the user, Safe Yield token will be burned"
        }
      },
      "sellSafeForExactAmountOfUSD(uint256)": {
        "params": {
          "_usdToGet": "number of tokens to buy, the respective amount of USDC will be deducted from the user, Safe Yield token will be minted"
        }
      }
    },
    "stateVariables": {
      "allowance": {
        "details": "Returns the remaining number of tokens that `spender` will be allowed to spend on behalf of `owner` through {transferFrom}. This is zero by default. This value changes when {approve} or {transferFrom} are called."
      },
      "balanceOf": {
        "details": "Returns the amount of tokens owned by `account`."
      },
      "decimals": {
        "details": "Returns the decimals places of the token."
      },
      "name": {
        "details": "Returns the name of the token."
      },
      "symbol": {
        "details": "Returns the symbol of the token."
      },
      "totalSupply": {
        "details": "Returns the amount of tokens in existence."
      }
    },
    "title": "SafeToken",
    "version": 1
  },
  "userdoc": {
    "kind": "user",
    "methods": {
      "buyExactAmountOfSafe(uint256)": {
        "notice": "calculate and deduct amount of USD needed to buy given amount of SAFE tokens, SAFE is minted"
      },
      "buySafeForExactAmountOfUSD(uint256)": {
        "notice": "buy SAFE tokens for given amount of USD, taxes deducted from the provided amount, SAFE is minted"
      },
      "getWallets()": {
        "notice": "list of wallets participating in tax distribution on top of the vault"
      },
      "price()": {
        "notice": "price of 1 Safe Yield token in StableCoin"
      },
      "safeVault()": {
        "notice": "attached safe vault contract"
      },
      "sellExactAmountOfSafe(uint256)": {
        "notice": "sell given amount of SAFE tokens for USD, taxes deducted from the user, SAFE is burned"
      },
      "sellSafeForExactAmountOfUSD(uint256)": {
        "notice": "calculate the amount of SAFE needed to swap to get the required USD amount an sell it, SAFE is burned"
      },
      "usd()": {
        "notice": "Usd token contract used in the protocol (USDC for now)"
      }
    },
    "notice": "This contract is used as a token",
    "version": 1
  },
  "storageLayout": {
    "storage": [
      {
        "astId": 7060,
        "contract": "contracts/SafeToken.sol:SafeToken",
        "label": "wallets",
        "offset": 0,
        "slot": "0",
        "type": "t_array(t_address)2_storage"
      },
      {
        "astId": 556,
        "contract": "contracts/SafeToken.sol:SafeToken",
        "label": "_paused",
        "offset": 0,
        "slot": "2",
        "type": "t_bool"
      },
      {
        "astId": 657,
        "contract": "contracts/SafeToken.sol:SafeToken",
        "label": "_status",
        "offset": 0,
        "slot": "3",
        "type": "t_uint256"
      },
      {
        "astId": 6002,
        "contract": "contracts/SafeToken.sol:SafeToken",
        "label": "totalSupply",
        "offset": 0,
        "slot": "4",
        "type": "t_uint256"
      },
      {
        "astId": 6006,
        "contract": "contracts/SafeToken.sol:SafeToken",
        "label": "blacklist",
        "offset": 0,
        "slot": "5",
        "type": "t_mapping(t_address,t_bool)"
      },
      {
        "astId": 6010,
        "contract": "contracts/SafeToken.sol:SafeToken",
        "label": "admin",
        "offset": 0,
        "slot": "6",
        "type": "t_mapping(t_address,t_uint256)"
      },
      {
        "astId": 6014,
        "contract": "contracts/SafeToken.sol:SafeToken",
        "label": "balanceOf",
        "offset": 0,
        "slot": "7",
        "type": "t_mapping(t_address,t_uint256)"
      },
      {
        "astId": 6020,
        "contract": "contracts/SafeToken.sol:SafeToken",
        "label": "allowance",
        "offset": 0,
        "slot": "8",
        "type": "t_mapping(t_address,t_mapping(t_address,t_uint256))"
      },
      {
        "astId": 6022,
        "contract": "contracts/SafeToken.sol:SafeToken",
        "label": "BUY_TAX_PERCENT",
        "offset": 0,
        "slot": "9",
        "type": "t_uint256"
      },
      {
        "astId": 6024,
        "contract": "contracts/SafeToken.sol:SafeToken",
        "label": "SELL_TAX_PERCENT",
        "offset": 0,
        "slot": "10",
        "type": "t_uint256"
      },
      {
        "astId": 6027,
        "contract": "contracts/SafeToken.sol:SafeToken",
        "label": "usd",
        "offset": 0,
        "slot": "11",
        "type": "t_contract(IERC20)2651"
      },
      {
        "astId": 6030,
        "contract": "contracts/SafeToken.sol:SafeToken",
        "label": "safeVault",
        "offset": 0,
        "slot": "12",
        "type": "t_contract(ISafeVault)7561"
      },
      {
        "astId": 6034,
        "contract": "contracts/SafeToken.sol:SafeToken",
        "label": "taxDistributionOnMintAndBurn",
        "offset": 0,
        "slot": "13",
        "type": "t_array(t_uint256)2_storage"
      }
    ],
    "types": {
      "t_address": {
        "encoding": "inplace",
        "label": "address",
        "numberOfBytes": "20"
      },
      "t_array(t_address)2_storage": {
        "base": "t_address",
        "encoding": "inplace",
        "label": "address[2]",
        "numberOfBytes": "64"
      },
      "t_array(t_uint256)2_storage": {
        "base": "t_uint256",
        "encoding": "inplace",
        "label": "uint256[2]",
        "numberOfBytes": "64"
      },
      "t_bool": {
        "encoding": "inplace",
        "label": "bool",
        "numberOfBytes": "1"
      },
      "t_contract(IERC20)2651": {
        "encoding": "inplace",
        "label": "contract IERC20",
        "numberOfBytes": "20"
      },
      "t_contract(ISafeVault)7561": {
        "encoding": "inplace",
        "label": "contract ISafeVault",
        "numberOfBytes": "20"
      },
      "t_mapping(t_address,t_bool)": {
        "encoding": "mapping",
        "key": "t_address",
        "label": "mapping(address => bool)",
        "numberOfBytes": "32",
        "value": "t_bool"
      },
      "t_mapping(t_address,t_mapping(t_address,t_uint256))": {
        "encoding": "mapping",
        "key": "t_address",
        "label": "mapping(address => mapping(address => uint256))",
        "numberOfBytes": "32",
        "value": "t_mapping(t_address,t_uint256)"
      },
      "t_mapping(t_address,t_uint256)": {
        "encoding": "mapping",
        "key": "t_address",
        "label": "mapping(address => uint256)",
        "numberOfBytes": "32",
        "value": "t_uint256"
      },
      "t_uint256": {
        "encoding": "inplace",
        "label": "uint256",
        "numberOfBytes": "32"
      }
    }
  }
}