{
  "address": "0x316825Ca487ee699b124764D64f4700516C780CA",
  "abi": [
    {
      "inputs": [
        {
          "internalType": "string",
          "name": "_uri",
          "type": "string"
        },
        {
          "internalType": "uint256[4]",
          "name": "_price",
          "type": "uint256[4]"
        },
        {
          "internalType": "uint256[4]",
          "name": "_maxSupply",
          "type": "uint256[4]"
        },
        {
          "internalType": "contract ISafeToken",
          "name": "_safeToken",
          "type": "address"
        },
        {
          "internalType": "uint256[2]",
          "name": "_priceDistributionOnMint",
          "type": "uint256[2]"
        },
        {
          "internalType": "uint256",
          "name": "_referralShareForNFTPurchase",
          "type": "uint256"
        },
        {
          "internalType": "uint256[2]",
          "name": "_profitDistribution",
          "type": "uint256[2]"
        },
        {
          "internalType": "address",
          "name": "_stabilizerWallet",
          "type": "address"
        }
      ],
      "stateMutability": "nonpayable",
      "type": "constructor"
    },
    {
      "anonymous": false,
      "inputs": [
        {
          "indexed": true,
          "internalType": "address",
          "name": "account",
          "type": "address"
        },
        {
          "indexed": true,
          "internalType": "address",
          "name": "operator",
          "type": "address"
        },
        {
          "indexed": false,
          "internalType": "bool",
          "name": "approved",
          "type": "bool"
        }
      ],
      "name": "ApprovalForAll",
      "type": "event"
    },
    {
      "anonymous": false,
      "inputs": [
        {
          "indexed": false,
          "internalType": "address",
          "name": "account",
          "type": "address"
        }
      ],
      "name": "Paused",
      "type": "event"
    },
    {
      "anonymous": false,
      "inputs": [
        {
          "indexed": true,
          "internalType": "bytes32",
          "name": "role",
          "type": "bytes32"
        },
        {
          "indexed": true,
          "internalType": "bytes32",
          "name": "previousAdminRole",
          "type": "bytes32"
        },
        {
          "indexed": true,
          "internalType": "bytes32",
          "name": "newAdminRole",
          "type": "bytes32"
        }
      ],
      "name": "RoleAdminChanged",
      "type": "event"
    },
    {
      "anonymous": false,
      "inputs": [
        {
          "indexed": true,
          "internalType": "bytes32",
          "name": "role",
          "type": "bytes32"
        },
        {
          "indexed": true,
          "internalType": "address",
          "name": "account",
          "type": "address"
        },
        {
          "indexed": true,
          "internalType": "address",
          "name": "sender",
          "type": "address"
        }
      ],
      "name": "RoleGranted",
      "type": "event"
    },
    {
      "anonymous": false,
      "inputs": [
        {
          "indexed": true,
          "internalType": "bytes32",
          "name": "role",
          "type": "bytes32"
        },
        {
          "indexed": true,
          "internalType": "address",
          "name": "account",
          "type": "address"
        },
        {
          "indexed": true,
          "internalType": "address",
          "name": "sender",
          "type": "address"
        }
      ],
      "name": "RoleRevoked",
      "type": "event"
    },
    {
      "anonymous": false,
      "inputs": [
        {
          "indexed": false,
          "internalType": "bool",
          "name": "_status",
          "type": "bool"
        }
      ],
      "name": "TogglePresale",
      "type": "event"
    },
    {
      "anonymous": false,
      "inputs": [
        {
          "indexed": true,
          "internalType": "address",
          "name": "operator",
          "type": "address"
        },
        {
          "indexed": true,
          "internalType": "address",
          "name": "from",
          "type": "address"
        },
        {
          "indexed": true,
          "internalType": "address",
          "name": "to",
          "type": "address"
        },
        {
          "indexed": false,
          "internalType": "uint256[]",
          "name": "ids",
          "type": "uint256[]"
        },
        {
          "indexed": false,
          "internalType": "uint256[]",
          "name": "values",
          "type": "uint256[]"
        }
      ],
      "name": "TransferBatch",
      "type": "event"
    },
    {
      "anonymous": false,
      "inputs": [
        {
          "indexed": true,
          "internalType": "address",
          "name": "operator",
          "type": "address"
        },
        {
          "indexed": true,
          "internalType": "address",
          "name": "from",
          "type": "address"
        },
        {
          "indexed": true,
          "internalType": "address",
          "name": "to",
          "type": "address"
        },
        {
          "indexed": false,
          "internalType": "uint256",
          "name": "id",
          "type": "uint256"
        },
        {
          "indexed": false,
          "internalType": "uint256",
          "name": "value",
          "type": "uint256"
        }
      ],
      "name": "TransferSingle",
      "type": "event"
    },
    {
      "anonymous": false,
      "inputs": [
        {
          "indexed": false,
          "internalType": "string",
          "name": "value",
          "type": "string"
        },
        {
          "indexed": true,
          "internalType": "uint256",
          "name": "id",
          "type": "uint256"
        }
      ],
      "name": "URI",
      "type": "event"
    },
    {
      "anonymous": false,
      "inputs": [
        {
          "indexed": false,
          "internalType": "address",
          "name": "account",
          "type": "address"
        }
      ],
      "name": "Unpaused",
      "type": "event"
    },
    {
      "inputs": [],
      "name": "DEFAULT_ADMIN_ROLE",
      "outputs": [
        {
          "internalType": "bytes32",
          "name": "",
          "type": "bytes32"
        }
      ],
      "stateMutability": "view",
      "type": "function"
    },
    {
      "inputs": [],
      "name": "MINTER_ROLE",
      "outputs": [
        {
          "internalType": "bytes32",
          "name": "",
          "type": "bytes32"
        }
      ],
      "stateMutability": "view",
      "type": "function"
    },
    {
      "inputs": [],
      "name": "PAUSER_ROLE",
      "outputs": [
        {
          "internalType": "bytes32",
          "name": "",
          "type": "bytes32"
        }
      ],
      "stateMutability": "view",
      "type": "function"
    },
    {
      "inputs": [],
      "name": "TIERS",
      "outputs": [
        {
          "internalType": "uint256",
          "name": "",
          "type": "uint256"
        }
      ],
      "stateMutability": "view",
      "type": "function"
    },
    {
      "inputs": [],
      "name": "WALLETS",
      "outputs": [
        {
          "internalType": "uint256",
          "name": "",
          "type": "uint256"
        }
      ],
      "stateMutability": "view",
      "type": "function"
    },
    {
      "inputs": [],
      "name": "WEEKS",
      "outputs": [
        {
          "internalType": "uint256",
          "name": "",
          "type": "uint256"
        }
      ],
      "stateMutability": "view",
      "type": "function"
    },
    {
      "inputs": [
        {
          "internalType": "uint256",
          "name": "",
          "type": "uint256"
        },
        {
          "internalType": "uint256",
          "name": "",
          "type": "uint256"
        },
        {
          "internalType": "address",
          "name": "",
          "type": "address"
        }
      ],
      "name": "alreadyDistributedAmount",
      "outputs": [
        {
          "internalType": "uint256",
          "name": "",
          "type": "uint256"
        }
      ],
      "stateMutability": "view",
      "type": "function"
    },
    {
      "inputs": [
        {
          "internalType": "uint256",
          "name": "",
          "type": "uint256"
        },
        {
          "internalType": "uint256",
          "name": "",
          "type": "uint256"
        }
      ],
      "name": "alreadyDistributedAmountByTier",
      "outputs": [
        {
          "internalType": "uint256",
          "name": "",
          "type": "uint256"
        }
      ],
      "stateMutability": "view",
      "type": "function"
    },
    {
      "inputs": [
        {
          "internalType": "address",
          "name": "account",
          "type": "address"
        },
        {
          "internalType": "uint256",
          "name": "id",
          "type": "uint256"
        }
      ],
      "name": "balanceOf",
      "outputs": [
        {
          "internalType": "uint256",
          "name": "",
          "type": "uint256"
        }
      ],
      "stateMutability": "view",
      "type": "function"
    },
    {
      "inputs": [
        {
          "internalType": "address[]",
          "name": "accounts",
          "type": "address[]"
        },
        {
          "internalType": "uint256[]",
          "name": "ids",
          "type": "uint256[]"
        }
      ],
      "name": "balanceOfBatch",
      "outputs": [
        {
          "internalType": "uint256[]",
          "name": "",
          "type": "uint256[]"
        }
      ],
      "stateMutability": "view",
      "type": "function"
    },
    {
      "inputs": [
        {
          "internalType": "address",
          "name": "account",
          "type": "address"
        },
        {
          "internalType": "uint256",
          "name": "id",
          "type": "uint256"
        },
        {
          "internalType": "uint256",
          "name": "value",
          "type": "uint256"
        }
      ],
      "name": "burn",
      "outputs": [],
      "stateMutability": "nonpayable",
      "type": "function"
    },
    {
      "inputs": [
        {
          "internalType": "address",
          "name": "account",
          "type": "address"
        },
        {
          "internalType": "uint256[]",
          "name": "ids",
          "type": "uint256[]"
        },
        {
          "internalType": "uint256[]",
          "name": "values",
          "type": "uint256[]"
        }
      ],
      "name": "burnBatch",
      "outputs": [],
      "stateMutability": "nonpayable",
      "type": "function"
    },
    {
      "inputs": [
        {
          "internalType": "enum ISafeNFT.Tiers",
          "name": "_tier",
          "type": "uint8"
        },
        {
          "internalType": "uint256",
          "name": "_amount",
          "type": "uint256"
        },
        {
          "internalType": "address",
          "name": "_referral",
          "type": "address"
        }
      ],
      "name": "buy",
      "outputs": [],
      "stateMutability": "nonpayable",
      "type": "function"
    },
    {
      "inputs": [
        {
          "internalType": "enum ISafeNFT.Tiers",
          "name": "_tier",
          "type": "uint8"
        },
        {
          "internalType": "uint256",
          "name": "_distributionId",
          "type": "uint256"
        }
      ],
      "name": "claimReward",
      "outputs": [],
      "stateMutability": "nonpayable",
      "type": "function"
    },
    {
      "inputs": [],
      "name": "claimRewardsTotal",
      "outputs": [],
      "stateMutability": "nonpayable",
      "type": "function"
    },
    {
      "inputs": [],
      "name": "currentDistributionId",
      "outputs": [
        {
          "internalType": "uint256",
          "name": "",
          "type": "uint256"
        }
      ],
      "stateMutability": "view",
      "type": "function"
    },
    {
      "inputs": [
        {
          "internalType": "uint256",
          "name": "_amountUSD",
          "type": "uint256"
        }
      ],
      "name": "distributeProfit",
      "outputs": [],
      "stateMutability": "nonpayable",
      "type": "function"
    },
    {
      "inputs": [
        {
          "internalType": "uint256",
          "name": "",
          "type": "uint256"
        },
        {
          "internalType": "uint256",
          "name": "",
          "type": "uint256"
        }
      ],
      "name": "distributionByTier",
      "outputs": [
        {
          "internalType": "uint256",
          "name": "",
          "type": "uint256"
        }
      ],
      "stateMutability": "view",
      "type": "function"
    },
    {
      "inputs": [
        {
          "internalType": "uint256",
          "name": "",
          "type": "uint256"
        }
      ],
      "name": "distributionOfProfit",
      "outputs": [
        {
          "internalType": "uint256",
          "name": "",
          "type": "uint256"
        }
      ],
      "stateMutability": "view",
      "type": "function"
    },
    {
      "inputs": [
        {
          "internalType": "uint256",
          "name": "",
          "type": "uint256"
        },
        {
          "internalType": "uint256",
          "name": "",
          "type": "uint256"
        }
      ],
      "name": "distributionTotalSupplySnapshot",
      "outputs": [
        {
          "internalType": "uint256",
          "name": "",
          "type": "uint256"
        }
      ],
      "stateMutability": "view",
      "type": "function"
    },
    {
      "inputs": [
        {
          "internalType": "uint256",
          "name": "id",
          "type": "uint256"
        }
      ],
      "name": "exists",
      "outputs": [
        {
          "internalType": "bool",
          "name": "",
          "type": "bool"
        }
      ],
      "stateMutability": "view",
      "type": "function"
    },
    {
      "inputs": [
        {
          "internalType": "address",
          "name": "_user",
          "type": "address"
        }
      ],
      "name": "getBalanceTable",
      "outputs": [
        {
          "internalType": "uint256[]",
          "name": "",
          "type": "uint256[]"
        }
      ],
      "stateMutability": "view",
      "type": "function"
    },
    {
      "inputs": [],
      "name": "getCurrentPresaleWeek",
      "outputs": [
        {
          "internalType": "uint256",
          "name": "",
          "type": "uint256"
        }
      ],
      "stateMutability": "view",
      "type": "function"
    },
    {
      "inputs": [
        {
          "internalType": "enum ISafeNFT.Tiers",
          "name": "_tier",
          "type": "uint8"
        }
      ],
      "name": "getFairPrice",
      "outputs": [
        {
          "internalType": "uint256",
          "name": "",
          "type": "uint256"
        }
      ],
      "stateMutability": "view",
      "type": "function"
    },
    {
      "inputs": [],
      "name": "getFairPriceTable",
      "outputs": [
        {
          "internalType": "uint256[]",
          "name": "",
          "type": "uint256[]"
        }
      ],
      "stateMutability": "view",
      "type": "function"
    },
    {
      "inputs": [],
      "name": "getMyBalanceTable",
      "outputs": [
        {
          "internalType": "uint256[]",
          "name": "",
          "type": "uint256[]"
        }
      ],
      "stateMutability": "view",
      "type": "function"
    },
    {
      "inputs": [],
      "name": "getMyPendingRewardsTotal",
      "outputs": [
        {
          "internalType": "uint256",
          "name": "",
          "type": "uint256"
        }
      ],
      "stateMutability": "view",
      "type": "function"
    },
    {
      "inputs": [],
      "name": "getMyShareOfTreasury",
      "outputs": [
        {
          "internalType": "uint256",
          "name": "",
          "type": "uint256"
        }
      ],
      "stateMutability": "view",
      "type": "function"
    },
    {
      "inputs": [
        {
          "internalType": "address",
          "name": "_user",
          "type": "address"
        },
        {
          "internalType": "enum ISafeNFT.Tiers",
          "name": "_tier",
          "type": "uint8"
        },
        {
          "internalType": "uint256",
          "name": "_distributionId",
          "type": "uint256"
        }
      ],
      "name": "getPendingRewards",
      "outputs": [
        {
          "internalType": "uint256",
          "name": "",
          "type": "uint256"
        }
      ],
      "stateMutability": "view",
      "type": "function"
    },
    {
      "inputs": [
        {
          "internalType": "enum ISafeNFT.Tiers",
          "name": "_tier",
          "type": "uint8"
        }
      ],
      "name": "getPrice",
      "outputs": [
        {
          "internalType": "uint256",
          "name": "",
          "type": "uint256"
        }
      ],
      "stateMutability": "view",
      "type": "function"
    },
    {
      "inputs": [],
      "name": "getPriceTable",
      "outputs": [
        {
          "internalType": "uint256[]",
          "name": "",
          "type": "uint256[]"
        }
      ],
      "stateMutability": "view",
      "type": "function"
    },
    {
      "inputs": [
        {
          "internalType": "bytes32",
          "name": "role",
          "type": "bytes32"
        }
      ],
      "name": "getRoleAdmin",
      "outputs": [
        {
          "internalType": "bytes32",
          "name": "",
          "type": "bytes32"
        }
      ],
      "stateMutability": "view",
      "type": "function"
    },
    {
      "inputs": [
        {
          "internalType": "bytes32",
          "name": "role",
          "type": "bytes32"
        },
        {
          "internalType": "uint256",
          "name": "index",
          "type": "uint256"
        }
      ],
      "name": "getRoleMember",
      "outputs": [
        {
          "internalType": "address",
          "name": "",
          "type": "address"
        }
      ],
      "stateMutability": "view",
      "type": "function"
    },
    {
      "inputs": [
        {
          "internalType": "bytes32",
          "name": "role",
          "type": "bytes32"
        }
      ],
      "name": "getRoleMemberCount",
      "outputs": [
        {
          "internalType": "uint256",
          "name": "",
          "type": "uint256"
        }
      ],
      "stateMutability": "view",
      "type": "function"
    },
    {
      "inputs": [],
      "name": "getTotalSupplyAllTiers",
      "outputs": [
        {
          "internalType": "uint256",
          "name": "",
          "type": "uint256"
        }
      ],
      "stateMutability": "view",
      "type": "function"
    },
    {
      "inputs": [],
      "name": "getTreasuryCost",
      "outputs": [
        {
          "internalType": "uint256",
          "name": "",
          "type": "uint256"
        }
      ],
      "stateMutability": "view",
      "type": "function"
    },
    {
      "inputs": [],
      "name": "getUnclaimedRewards",
      "outputs": [
        {
          "internalType": "uint256",
          "name": "",
          "type": "uint256"
        }
      ],
      "stateMutability": "view",
      "type": "function"
    },
    {
      "inputs": [
        {
          "internalType": "bytes32",
          "name": "role",
          "type": "bytes32"
        },
        {
          "internalType": "address",
          "name": "account",
          "type": "address"
        }
      ],
      "name": "grantRole",
      "outputs": [],
      "stateMutability": "nonpayable",
      "type": "function"
    },
    {
      "inputs": [
        {
          "internalType": "bytes32",
          "name": "role",
          "type": "bytes32"
        },
        {
          "internalType": "address",
          "name": "account",
          "type": "address"
        }
      ],
      "name": "hasRole",
      "outputs": [
        {
          "internalType": "bool",
          "name": "",
          "type": "bool"
        }
      ],
      "stateMutability": "view",
      "type": "function"
    },
    {
      "inputs": [
        {
          "internalType": "string",
          "name": "_uri",
          "type": "string"
        },
        {
          "internalType": "uint256[4]",
          "name": "_price",
          "type": "uint256[4]"
        },
        {
          "internalType": "uint256[4]",
          "name": "_maxSupply",
          "type": "uint256[4]"
        },
        {
          "internalType": "contract ISafeToken",
          "name": "_safeToken",
          "type": "address"
        },
        {
          "internalType": "uint256[2]",
          "name": "_priceDistributionOnMint",
          "type": "uint256[2]"
        },
        {
          "internalType": "uint256",
          "name": "_referralShareForNFTPurchase",
          "type": "uint256"
        },
        {
          "internalType": "uint256[2]",
          "name": "_profitDistribution",
          "type": "uint256[2]"
        },
        {
          "internalType": "address",
          "name": "_stabilizerWallet",
          "type": "address"
        }
      ],
      "name": "initialize",
      "outputs": [],
      "stateMutability": "nonpayable",
      "type": "function"
    },
    {
      "inputs": [
        {
          "internalType": "address",
          "name": "account",
          "type": "address"
        },
        {
          "internalType": "address",
          "name": "operator",
          "type": "address"
        }
      ],
      "name": "isApprovedForAll",
      "outputs": [
        {
          "internalType": "bool",
          "name": "",
          "type": "bool"
        }
      ],
      "stateMutability": "view",
      "type": "function"
    },
    {
      "inputs": [
        {
          "internalType": "uint256",
          "name": "",
          "type": "uint256"
        }
      ],
      "name": "maxSupply",
      "outputs": [
        {
          "internalType": "uint256",
          "name": "",
          "type": "uint256"
        }
      ],
      "stateMutability": "view",
      "type": "function"
    },
    {
      "inputs": [
        {
          "internalType": "address",
          "name": "to",
          "type": "address"
        },
        {
          "internalType": "uint256",
          "name": "id",
          "type": "uint256"
        },
        {
          "internalType": "uint256",
          "name": "amount",
          "type": "uint256"
        },
        {
          "internalType": "bytes",
          "name": "data",
          "type": "bytes"
        }
      ],
      "name": "mint",
      "outputs": [],
      "stateMutability": "nonpayable",
      "type": "function"
    },
    {
      "inputs": [
        {
          "internalType": "address",
          "name": "to",
          "type": "address"
        },
        {
          "internalType": "uint256[]",
          "name": "ids",
          "type": "uint256[]"
        },
        {
          "internalType": "uint256[]",
          "name": "amounts",
          "type": "uint256[]"
        },
        {
          "internalType": "bytes",
          "name": "data",
          "type": "bytes"
        }
      ],
      "name": "mintBatch",
      "outputs": [],
      "stateMutability": "nonpayable",
      "type": "function"
    },
    {
      "inputs": [],
      "name": "name",
      "outputs": [
        {
          "internalType": "string",
          "name": "",
          "type": "string"
        }
      ],
      "stateMutability": "view",
      "type": "function"
    },
    {
      "inputs": [],
      "name": "pause",
      "outputs": [],
      "stateMutability": "nonpayable",
      "type": "function"
    },
    {
      "inputs": [],
      "name": "paused",
      "outputs": [
        {
          "internalType": "bool",
          "name": "",
          "type": "bool"
        }
      ],
      "stateMutability": "view",
      "type": "function"
    },
    {
      "inputs": [],
      "name": "presale",
      "outputs": [
        {
          "internalType": "bool",
          "name": "",
          "type": "bool"
        }
      ],
      "stateMutability": "view",
      "type": "function"
    },
    {
      "inputs": [
        {
          "internalType": "uint256",
          "name": "",
          "type": "uint256"
        },
        {
          "internalType": "uint256",
          "name": "",
          "type": "uint256"
        }
      ],
      "name": "presalePrice",
      "outputs": [
        {
          "internalType": "uint256",
          "name": "",
          "type": "uint256"
        }
      ],
      "stateMutability": "view",
      "type": "function"
    },
    {
      "inputs": [],
      "name": "presaleStartDate",
      "outputs": [
        {
          "internalType": "uint256",
          "name": "",
          "type": "uint256"
        }
      ],
      "stateMutability": "view",
      "type": "function"
    },
    {
      "inputs": [
        {
          "internalType": "uint256",
          "name": "",
          "type": "uint256"
        }
      ],
      "name": "price",
      "outputs": [
        {
          "internalType": "uint256",
          "name": "",
          "type": "uint256"
        }
      ],
      "stateMutability": "view",
      "type": "function"
    },
    {
      "inputs": [
        {
          "internalType": "uint256",
          "name": "",
          "type": "uint256"
        }
      ],
      "name": "priceDistributionOnMint",
      "outputs": [
        {
          "internalType": "uint256",
          "name": "",
          "type": "uint256"
        }
      ],
      "stateMutability": "view",
      "type": "function"
    },
    {
      "inputs": [
        {
          "internalType": "uint256",
          "name": "",
          "type": "uint256"
        }
      ],
      "name": "profitDistribution",
      "outputs": [
        {
          "internalType": "uint256",
          "name": "",
          "type": "uint256"
        }
      ],
      "stateMutability": "view",
      "type": "function"
    },
    {
      "inputs": [],
      "name": "referralShareForNFTPurchase",
      "outputs": [
        {
          "internalType": "uint256",
          "name": "",
          "type": "uint256"
        }
      ],
      "stateMutability": "view",
      "type": "function"
    },
    {
      "inputs": [
        {
          "internalType": "bytes32",
          "name": "role",
          "type": "bytes32"
        },
        {
          "internalType": "address",
          "name": "account",
          "type": "address"
        }
      ],
      "name": "renounceRole",
      "outputs": [],
      "stateMutability": "nonpayable",
      "type": "function"
    },
    {
      "inputs": [
        {
          "internalType": "bytes32",
          "name": "role",
          "type": "bytes32"
        },
        {
          "internalType": "address",
          "name": "account",
          "type": "address"
        }
      ],
      "name": "revokeRole",
      "outputs": [],
      "stateMutability": "nonpayable",
      "type": "function"
    },
    {
      "inputs": [
        {
          "internalType": "address",
          "name": "from",
          "type": "address"
        },
        {
          "internalType": "address",
          "name": "to",
          "type": "address"
        },
        {
          "internalType": "uint256[]",
          "name": "ids",
          "type": "uint256[]"
        },
        {
          "internalType": "uint256[]",
          "name": "amounts",
          "type": "uint256[]"
        },
        {
          "internalType": "bytes",
          "name": "data",
          "type": "bytes"
        }
      ],
      "name": "safeBatchTransferFrom",
      "outputs": [],
      "stateMutability": "nonpayable",
      "type": "function"
    },
    {
      "inputs": [],
      "name": "safeToken",
      "outputs": [
        {
          "internalType": "contract ISafeToken",
          "name": "",
          "type": "address"
        }
      ],
      "stateMutability": "view",
      "type": "function"
    },
    {
      "inputs": [
        {
          "internalType": "address",
          "name": "from",
          "type": "address"
        },
        {
          "internalType": "address",
          "name": "to",
          "type": "address"
        },
        {
          "internalType": "uint256",
          "name": "id",
          "type": "uint256"
        },
        {
          "internalType": "uint256",
          "name": "amount",
          "type": "uint256"
        },
        {
          "internalType": "bytes",
          "name": "data",
          "type": "bytes"
        }
      ],
      "name": "safeTransferFrom",
      "outputs": [],
      "stateMutability": "nonpayable",
      "type": "function"
    },
    {
      "inputs": [],
      "name": "safeVault",
      "outputs": [
        {
          "internalType": "contract ISafeVault",
          "name": "",
          "type": "address"
        }
      ],
      "stateMutability": "view",
      "type": "function"
    },
    {
      "inputs": [
        {
          "internalType": "address",
          "name": "operator",
          "type": "address"
        },
        {
          "internalType": "bool",
          "name": "approved",
          "type": "bool"
        }
      ],
      "name": "setApprovalForAll",
      "outputs": [],
      "stateMutability": "nonpayable",
      "type": "function"
    },
    {
      "inputs": [
        {
          "internalType": "uint256[][]",
          "name": "_presalePrice",
          "type": "uint256[][]"
        }
      ],
      "name": "setDiscountedPriceTable",
      "outputs": [],
      "stateMutability": "nonpayable",
      "type": "function"
    },
    {
      "inputs": [
        {
          "internalType": "uint256",
          "name": "_launchDate",
          "type": "uint256"
        }
      ],
      "name": "setPresaleStartDate",
      "outputs": [],
      "stateMutability": "nonpayable",
      "type": "function"
    },
    {
      "inputs": [],
      "name": "stabilizerWallet",
      "outputs": [
        {
          "internalType": "address",
          "name": "",
          "type": "address"
        }
      ],
      "stateMutability": "view",
      "type": "function"
    },
    {
      "inputs": [
        {
          "internalType": "bytes4",
          "name": "interfaceId",
          "type": "bytes4"
        }
      ],
      "name": "supportsInterface",
      "outputs": [
        {
          "internalType": "bool",
          "name": "",
          "type": "bool"
        }
      ],
      "stateMutability": "view",
      "type": "function"
    },
    {
      "inputs": [],
      "name": "togglePresale",
      "outputs": [],
      "stateMutability": "nonpayable",
      "type": "function"
    },
    {
      "inputs": [
        {
          "internalType": "uint256",
          "name": "id",
          "type": "uint256"
        }
      ],
      "name": "totalSupply",
      "outputs": [
        {
          "internalType": "uint256",
          "name": "",
          "type": "uint256"
        }
      ],
      "stateMutability": "view",
      "type": "function"
    },
    {
      "inputs": [],
      "name": "unpause",
      "outputs": [],
      "stateMutability": "nonpayable",
      "type": "function"
    },
    {
      "inputs": [
        {
          "internalType": "uint256",
          "name": "",
          "type": "uint256"
        }
      ],
      "name": "uri",
      "outputs": [
        {
          "internalType": "string",
          "name": "",
          "type": "string"
        }
      ],
      "stateMutability": "view",
      "type": "function"
    },
    {
      "inputs": [],
      "name": "usd",
      "outputs": [
        {
          "internalType": "contract IERC20",
          "name": "",
          "type": "address"
        }
      ],
      "stateMutability": "view",
      "type": "function"
    },
    {
      "inputs": [
        {
          "internalType": "uint256",
          "name": "",
          "type": "uint256"
        }
      ],
      "name": "wallets",
      "outputs": [
        {
          "internalType": "address",
          "name": "",
          "type": "address"
        }
      ],
      "stateMutability": "view",
      "type": "function"
    }
  ],
  "transactionHash": "0xc6533f40e01a5056e33949eebc70158c8cfef43ced2b3f2874876972cef5345a",
  "args": [
    "",
    [
      "131250000",
      "262500000",
      "525000000",
      "1050000000"
    ],
    [
      2000,
      1000,
      1000,
      1000
    ],
    "0xF3c420B081422C51533150664Fc8F2fb77E39296",
    [
      70000000,
      20000000
    ],
    5000000,
    [
      25000000,
      20000000
    ],
    "0x9F397Baa90A0968E87351Ed7D45797EDF9f9037F"
  ],
  "numDeployments": 6,
  "solcInputHash": "cf996ea6222c4d71e4180d754a9a3ba8",
  "bytecode": "0x60806040523480156200001157600080fd5b5060405162006893380380620068938339810160408190526200003491620008af565b87806200004181620000b5565b506007805460ff1916905562000059600033620000c7565b620000746000805160206200687383398151915233620000c7565b6200008f6000805160206200685383398151915233620000c7565b506001600955620000a78888888888888888620000d3565b505050505050505062000bf4565b6006620000c3828262000a76565b5050565b620000c382826200050e565b6000620000ed600080516020620068338339815191525490565b90506001600160a01b0381166200011d576001600160a01b03600080516020620068338339815191525562000133565b336001600160a01b038216146200013357600080fd5b6200013e89620000b5565b6200014b600033620000c7565b620001666000805160206200687383398151915233620000c7565b620001816000805160206200685383398151915233620000c7565b62000190600a89600462000671565b50620001a0601e88600462000671565b50602380546001600160a01b0319166001600160a01b038816179055620001cb6026866002620006b4565b50602a849055620001e06028846002620006b4565b50602b80546001600160a01b0319166001600160a01b03848116919091179091556023546040805163db7a460560e01b815281516200027394939093169263db7a4605926004808401939192918290030181865afa15801562000247573d6000803e3d6000fd5b505050506040513d601f19601f820116820180604052508101906200026d919062000b42565b62000551565b602360009054906101000a90046001600160a01b03166001600160a01b031663deef94de6040518163ffffffff1660e01b8152600401602060405180830381865afa158015620002c7573d6000803e3d6000fd5b505050506040513d601f19601f82011682018060405250810190620002ed919062000ba9565b602480546001600160a01b0319166001600160a01b039283161790556023546040805163d63a6ccd60e01b81529051919092169163d63a6ccd9160048083019260209291908290030181865afa1580156200034c573d6000803e3d6000fd5b505050506040513d601f19601f8201168201806040525081019062000372919062000ba9565b602580546001600160a01b0319166001600160a01b0392831690811790915560235460405163095ea7b360e01b81529216600483015260001960248301529063095ea7b3906044016020604051808303816000875af1158015620003da573d6000803e3d6000fd5b505050506040513d601f19601f8201168201806040525081019062000400919062000bd0565b506025546024805460405163095ea7b360e01b81526001600160a01b039182166004820152600019928101929092529091169063095ea7b3906044016020604051808303816000875af11580156200045c573d6000803e3d6000fd5b505050506040513d601f19601f8201168201806040525081019062000482919062000bd0565b5060235460405163095ea7b360e01b81526001600160a01b039091166004820181905260001960248301529063095ea7b3906044016020604051808303816000875af1158015620004d7573d6000803e3d6000fd5b505050506040513d601f19601f82011682018060405250810190620004fd919062000bd0565b50506000602c555050505050505050565b6200052582826200055f60201b62002cc31760201c565b60008281526001602090815260409091206200054c91839062002d47620005ff821b17901c565b505050565b620000c360028281620006e4565b6000828152602081815260408083206001600160a01b038516845290915290205460ff16620000c3576000828152602081815260408083206001600160a01b03851684529091529020805460ff19166001179055620005bb3390565b6001600160a01b0316816001600160a01b0316837f2f8788117e7eff1d82e926ec794901d17c78024a50270940304540a733656f0d60405160405180910390a45050565b600062000616836001600160a01b0384166200061f565b90505b92915050565b6000818152600183016020526040812054620006685750815460018181018455600084815260208082209093018490558454848252828601909352604090209190915562000619565b50600062000619565b8260048101928215620006a2579160200282015b82811115620006a257825182559160200191906001019062000685565b50620006b09291506200072f565b5090565b8260028101928215620006a25791602002820182811115620006a257825182559160200191906001019062000685565b8260028101928215620006a2579160200282015b82811115620006a257825182546001600160a01b0319166001600160a01b03909116178255602090920191600190910190620006f8565b5b80821115620006b0576000815560010162000730565b634e487b7160e01b600052604160045260246000fd5b604080519081016001600160401b038111828210171562000781576200078162000746565b60405290565b604051601f8201601f191681016001600160401b0381118282101715620007b257620007b262000746565b604052919050565b600082601f830112620007cc57600080fd5b604051608081016001600160401b0381118282101715620007f157620007f162000746565b6040528060808401858111156200080757600080fd5b845b818110156200082357805183526020928301920162000809565b509195945050505050565b6001600160a01b03811681146200084457600080fd5b50565b805162000854816200082e565b919050565b600082601f8301126200086b57600080fd5b620008756200075c565b8060408401858111156200088857600080fd5b845b81811015620008a45780518452602093840193016200088a565b509095945050505050565b600080600080600080600080610200898b031215620008cd57600080fd5b88516001600160401b0380821115620008e557600080fd5b818b0191508b601f830112620008fa57600080fd5b8151818111156200090f576200090f62000746565b6020915062000927601f8201601f1916830162000787565b8181528d838386010111156200093c57600080fd5b60005b828110156200095c5784810184015182820185015283016200093f565b506000838383010152809b505050620009788c828d01620007ba565b985050506200098b8a60a08b01620007ba565b95506200099c6101208a0162000847565b9450620009ae8a6101408b0162000859565b93506101808901519250620009c88a6101a08b0162000859565b9150620009d96101e08a0162000847565b90509295985092959890939650565b600181811c90821680620009fd57607f821691505b60208210810362000a1e57634e487b7160e01b600052602260045260246000fd5b50919050565b601f8211156200054c57600081815260208120601f850160051c8101602086101562000a4d5750805b601f850160051c820191505b8181101562000a6e5782815560010162000a59565b505050505050565b81516001600160401b0381111562000a925762000a9262000746565b62000aaa8162000aa38454620009e8565b8462000a24565b602080601f83116001811462000ae2576000841562000ac95750858301515b600019600386901b1c1916600185901b17855562000a6e565b600085815260208120601f198616915b8281101562000b135788860151825594840194600190910190840162000af2565b508582101562000b325787850151600019600388901b60f8161c191681555b5050505050600190811b01905550565b60006040828403121562000b5557600080fd5b82601f83011262000b6557600080fd5b62000b6f6200075c565b80604084018581111562000b8257600080fd5b845b81811015620008a457805162000b9a816200082e565b84526020938401930162000b84565b60006020828403121562000bbc57600080fd5b815162000bc9816200082e565b9392505050565b60006020828403121562000be357600080fd5b8151801515811462000bc957600080fd5b615c2f8062000c046000396000f3fe608060405234801561001057600080fd5b506004361061041b5760003560e01c80636ac600681161022b578063ca15c87311610130578063deef94de116100b8578063f03f1e5111610087578063f03f1e5114610942578063f0b2df891461094a578063f242432a1461095d578063f5298aca14610970578063fdea8e0b1461098357600080fd5b8063deef94de146108b9578063df71da76146108cc578063e63ab1e9146108df578063e985e9c51461090657600080fd5b8063d36122b8116100ff578063d36122b814610851578063d36dfac814610859578063d53913931461086c578063d547741f14610893578063d63a6ccd146108a657600080fd5b8063ca15c873146107e7578063ca7b2447146107fa578063ced79ce01461080d578063d0d5a1ba1461083e57600080fd5b80638456cb59116101b357806391d148541161018257806391d1485414610791578063a1f5c239146107a4578063a217fddf146107ac578063a22cb465146107b4578063bd85b039146107c757600080fd5b80638456cb591461075b578063869f7594146107635780638d3bd55b146107765780639010d07c1461077e57600080fd5b8063731133e9116101fa578063731133e91461071b578063780069e01461072e5780637ad71f72146107375780637e93391a1461074a57806380a3a7831461075257600080fd5b80636ac60068146106ed5780636b20c454146107005780636d6689ea146107135780636e748f971461071357600080fd5b80632eb2c2d6116103315780634b3fd05a116102b957806352a1ad541161028857806352a1ad541461069657806353f7ffd2146106a9578063592fa65e146106bc5780635c975abb146106cf5780635e95b4fe146106da57600080fd5b80634b3fd05a146106465780634e1273f4146106595780634f558e791461066c57806351ba5b441461068e57600080fd5b806337f1e7f21161030057806337f1e7f2146105f25780633f4ba83a14610605578063418f7c511461060d57806342e0f792146106205780634407a61e1461063357600080fd5b80632eb2c2d6146105b15780632f2ff15d146105c457806334393743146105d757806336568abe146105df57600080fd5b8063104304f3116103b45780631f7fdffa116103835780631f7fdffa1461054b57806323f77fa914610560578063248a9ca31461057357806326a49e37146105965780632c13f08c146105a957600080fd5b8063104304f314610506578063162302571461051b578063168affdf146105235780631a5e85e51461054357600080fd5b806305adca38116103f057806305adca381461048557806306fdde031461048d5780630b0b73d2146104c85780630e89341c146104f357600080fd5b8062a13c4c14610420578062fdd58e1461043c57806301ffc9a71461044f57806304ca4c0714610472575b600080fd5b610429602a5481565b6040519081526020015b60405180910390f35b61042961044a3660046149ed565b610997565b61046261045d366004614a2f565b610a32565b6040519015158152602001610433565b610429610480366004614a4c565b610a3d565b610429610a62565b6104bb6040518060400160405280600f81526020016e14d8599948165a595b191cc8139195608a1b81525081565b6040516104339190614abe565b602b546104db906001600160a01b031681565b6040516001600160a01b039091168152602001610433565b6104bb610501366004614ad1565b610ae3565b61050e610b77565b6040516104339190614b25565b610429610bf4565b610429610531366004614ad1565b602d6020526000908152604090205481565b610429610c8b565b61055e610559366004614cb0565b610cc6565b005b61050e61056e366004614d4a565b610d1e565b610429610581366004614ad1565b60009081526020819052604090206001015490565b6104296105a4366004614ad1565b610d91565b61050e610da8565b61055e6105bf366004614d67565b610e1f565b61055e6105d2366004614e14565b610e6b565b61055e610e95565b61055e6105ed366004614e14565b610f22565b610429610600366004614e58565b610fa0565b61055e610fce565b61042961061b366004614e73565b611074565b61055e61062e366004614ad1565b611141565b61055e610641366004614eb1565b61116d565b6023546104db906001600160a01b031681565b61050e610667366004614f6c565b6112e9565b61046261067a366004614ad1565b600090815260086020526040902054151590565b610429611412565b6104296106a4366004614a4c565b611495565b61055e6106b7366004615038565b6114b7565b6104296106ca366004614a4c565b6115bb565b60075460ff16610462565b6104296106e8366004614a4c565b6115d7565b61055e6106fb3660046150f0565b6115f3565b61055e61070e3660046151bd565b611a4a565b610429600481565b61055e610729366004615232565b611a8d565b610429602c5481565b6104db610745366004614ad1565b611adf565b610429611aff565b61042960225481565b61055e611c98565b610429610771366004614ad1565b611d3c565b610429600281565b6104db61078c366004614a4c565b611d4c565b61046261079f366004614e14565b611d6b565b61050e611d94565b610429600081565b61055e6107c2366004615296565b611da6565b6104296107d5366004614ad1565b60009081526008602052604090205490565b6104296107f5366004614ad1565b611db1565b610429610808366004614ad1565b611dc8565b61042961081b3660046152c4565b603060209081526000938452604080852082529284528284209052825290205481565b61055e61084c3660046152fd565b611dd8565b61055e6126ea565b61055e610867366004614ad1565b612755565b6104297f9f2df0fed2c77648de5860a4cc508cd0818c85b8b8a1ab4ceeef8d981c8956a681565b61055e6108a1366004614e14565b612af6565b6025546104db906001600160a01b031681565b6024546104db906001600160a01b031681565b6104296108da366004614ad1565b612b1b565b6104297f65d7a28e3265b37a6474929f336521b332c1681b933f6cb9f3376673440d862a81565b610462610914366004615332565b6001600160a01b03918216600090815260056020908152604080832093909416825291909152205460ff1690565b610429612b2b565b610429610958366004614e58565b612b93565b61055e61096b366004615360565b612c3b565b61055e61097e3660046153c8565b612c80565b602b5461046290600160a01b900460ff1681565b60006001600160a01b038316610a075760405162461bcd60e51b815260206004820152602a60248201527f455243313135353a2061646472657373207a65726f206973206e6f742061207660448201526930b634b21037bbb732b960b11b60648201526084015b60405180910390fd5b5060008181526004602090815260408083206001600160a01b03861684529091529020545b92915050565b6000610a2c82612d5c565b602e6020528160005260406000208160048110610a5957600080fd5b01549150829050565b602b54600090600160a01b900460ff168015610a8057506000602254115b610ac25760405162461bcd60e51b8152602060048201526013602482015272141c995cd85b19481b9bdd081cdd185c9d1959606a1b60448201526064016109fe565b62093a8060225442610ad49190615413565b610ade9190615426565b905090565b606060068054610af290615448565b80601f0160208091040260200160405190810160405280929190818152602001828054610b1e90615448565b8015610b6b5780601f10610b4057610100808354040283529160200191610b6b565b820191906000526020600020905b815481529060010190602001808311610b4e57829003601f168201915b50505050509050919050565b60408051600480825260a08201909252606091600091906020820160808036833701905050905060005b6004811015610bee57600a8160048110610bbd57610bbd61547c565b0154828281518110610bd157610bd161547c565b602090810291909101015280610be681615492565b915050610ba1565b50919050565b600080805b6004811015610bee5760005b602c548111610c785760008181526031602052604090208260048110610c2d57610c2d61547c565b01546000828152602e602052604090208360048110610c4e57610c4e61547c565b0154610c5a9190615413565b610c6490846154ab565b925080610c7081615492565b915050610c05565b5080610c8381615492565b915050610bf9565b600080805b6004811015610bee57600081815260086020526040902054610cb290836154ab565b915080610cbe81615492565b915050610c90565b610cf07f9f2df0fed2c77648de5860a4cc508cd0818c85b8b8a1ab4ceeef8d981c8956a633611d6b565b610d0c5760405162461bcd60e51b81526004016109fe906154be565b610d1884848484612d67565b50505050565b60408051600480825260a08201909252606091600091906020820160808036833701905050905060005b6004811015610d8a57610d5b8482610997565b828281518110610d6d57610d6d61547c565b602090810291909101015280610d8281615492565b915050610d48565b5092915050565b600a8160048110610da157600080fd5b0154905081565b60408051600480825260a08201909252606091600091906020820160808036833701905050905060005b6004811015610bee57610df08160038111156109585761095861551b565b828281518110610e0257610e0261547c565b602090810291909101015280610e1781615492565b915050610dd2565b6001600160a01b038516331480610e3b5750610e3b8533610914565b610e575760405162461bcd60e51b81526004016109fe90615531565b610e648585858585612ed1565b5050505050565b600082815260208190526040902060010154610e868161308c565b610e908383613096565b505050565b610ea0600033611d6b565b610ebc5760405162461bcd60e51b81526004016109fe9061557f565b602b805460ff600160a01b808304821615810260ff60a01b1990931692909217928390556040517f512e257b3133a95bd1fef520dafc0dfb212f406af4f808d030e788c8ff536c0493610f189390049091161515815260200190565b60405180910390a1565b6001600160a01b0381163314610f925760405162461bcd60e51b815260206004820152602f60248201527f416363657373436f6e74726f6c3a2063616e206f6e6c792072656e6f756e636560448201526e103937b632b9903337b91039b2b63360891b60648201526084016109fe565b610f9c82826130b8565b5050565b6000600a826003811115610fb657610fb661551b565b60048110610fc657610fc661547c565b015492915050565b610ff87f65d7a28e3265b37a6474929f336521b332c1681b933f6cb9f3376673440d862a33611d6b565b61106a5760405162461bcd60e51b815260206004820152603b60248201527f455243313135355072657365744d696e7465725061757365723a206d7573742060448201527f686176652070617573657220726f6c6520746f20756e7061757365000000000060648201526084016109fe565b6110726130da565b565b6000808360038111156110895761108961551b565b602c546000908152602e602052604081209192509082600481106110af576110af61547c565b015460008381526008602052604081205491925090156110fb576000838152600860205260409020546110e28885610997565b6110ec90846155ce565b6110f69190615426565b6110fe565b60005b600086815260306020908152604080832087845282528083206001600160a01b038c1684529091529020549091506111369082615413565b979650505050505050565b61114c600033611d6b565b6111685760405162461bcd60e51b81526004016109fe9061557f565b602255565b611178600033611d6b565b6111945760405162461bcd60e51b81526004016109fe9061557f565b60048151146111e55760405162461bcd60e51b815260206004820152601960248201527f496e636f7272656374206e756d626572206f66207765656b730000000000000060448201526064016109fe565b60005b6004811015610f9c5760048282815181106112055761120561547c565b6020026020010151511461125b5760405162461bcd60e51b815260206004820152601960248201527f496e636f7272656374206e756d626572206f662074696572730000000000000060448201526064016109fe565b60005b60048110156112d6578282815181106112795761127961547c565b602002602001015181815181106112925761129261547c565b6020026020010151600e83600481106112ad576112ad61547c565b6004020182600481106112c2576112c261547c565b0155806112ce81615492565b91505061125e565b50806112e181615492565b9150506111e8565b6060815183511461134e5760405162461bcd60e51b815260206004820152602960248201527f455243313135353a206163636f756e747320616e6420696473206c656e677468604482015268040dad2e6dac2e8c6d60bb1b60648201526084016109fe565b600083516001600160401b0381111561136957611369614b38565b604051908082528060200260200182016040528015611392578160200160208202803683370190505b50905060005b845181101561140a576113dd8582815181106113b6576113b661547c565b60200260200101518583815181106113d0576113d061547c565b6020026020010151610997565b8282815181106113ef576113ef61547c565b602090810291909101015261140381615492565b9050611398565b509392505050565b60003381805b600481101561146857600a81600481106114345761143461547c565b01546114408483610997565b61144a91906155ce565b61145490836154ab565b91508061146081615492565b915050611418565b506000611473611aff565b9050801561148a576114858183615426565b61148d565b60005b935050505090565b600e82600481106114a557600080fd5b600402018160048110610a5957600080fd5b6114bf613127565b3360006114cd828585611074565b60255460405163a9059cbb60e01b81526001600160a01b0385811660048301526024820184905292935091169063a9059cbb906044016020604051808303816000875af1158015611522573d6000803e3d6000fd5b505050506040513d601f19601f8201168201806040525081019061154691906155e5565b50600083815260306020526040812082918660038111156115695761156961551b565b81526020019081526020016000206000846001600160a01b03166001600160a01b0316815260200190815260200160002060008282546115a991906154ab565b9091555050600160095550610f9c9050565b60316020528160005260406000208160048110610a5957600080fd5b602f6020528160005260406000208160048110610a5957600080fd5b600061161d7fb53127684a568b3173ae13b9f8a6016e243e63b6e8ee1178d6a717850b5d61035490565b90506001600160a01b03811661165c576001600160a01b037fb53127684a568b3173ae13b9f8a6016e243e63b6e8ee1178d6a717850b5d610355611671565b336001600160a01b0382161461167157600080fd5b61167a89613180565b61168560003361318c565b6116af7f9f2df0fed2c77648de5860a4cc508cd0818c85b8b8a1ab4ceeef8d981c8956a63361318c565b6116d97f65d7a28e3265b37a6474929f336521b332c1681b933f6cb9f3376673440d862a3361318c565b6116e6600a896004614910565b506116f4601e886004614910565b50602380546001600160a01b0319166001600160a01b03881617905561171d602686600261494e565b50602a849055611730602884600261494e565b50602b80546001600160a01b0319166001600160a01b03848116919091179091556023546040805163db7a460560e01b815281516117be94939093169263db7a4605926004808401939192918290030181865afa158015611795573d6000803e3d6000fd5b505050506040513d601f19601f820116820180604052508101906117b99190615602565b613196565b602360009054906101000a90046001600160a01b03166001600160a01b031663deef94de6040518163ffffffff1660e01b8152600401602060405180830381865afa158015611811573d6000803e3d6000fd5b505050506040513d601f19601f820116820180604052508101906118359190615664565b602480546001600160a01b0319166001600160a01b039283161790556023546040805163d63a6ccd60e01b81529051919092169163d63a6ccd9160048083019260209291908290030181865afa158015611893573d6000803e3d6000fd5b505050506040513d601f19601f820116820180604052508101906118b79190615664565b602580546001600160a01b0319166001600160a01b0392831690811790915560235460405163095ea7b360e01b81529216600483015260001960248301529063095ea7b3906044016020604051808303816000875af115801561191e573d6000803e3d6000fd5b505050506040513d601f19601f8201168201806040525081019061194291906155e5565b506025546024805460405163095ea7b360e01b81526001600160a01b039182166004820152600019928101929092529091169063095ea7b3906044016020604051808303816000875af115801561199d573d6000803e3d6000fd5b505050506040513d601f19601f820116820180604052508101906119c191906155e5565b5060235460405163095ea7b360e01b81526001600160a01b039091166004820181905260001960248301529063095ea7b3906044016020604051808303816000875af1158015611a15573d6000803e3d6000fd5b505050506040513d601f19601f82011682018060405250810190611a3991906155e5565b50506000602c555050505050505050565b6001600160a01b038316331480611a665750611a668333610914565b611a825760405162461bcd60e51b81526004016109fe90615531565b610e908383836131a2565b611ab77f9f2df0fed2c77648de5860a4cc508cd0818c85b8b8a1ab4ceeef8d981c8956a633611d6b565b611ad35760405162461bcd60e51b81526004016109fe906154be565b610d188484848461334b565b60028160028110611aef57600080fd5b01546001600160a01b0316905081565b6000620f4240602360009054906101000a90046001600160a01b03166001600160a01b031663a035b1fe6040518163ffffffff1660e01b8152600401602060405180830381865afa158015611b58573d6000803e3d6000fd5b505050506040513d601f19601f82011682018060405250810190611b7c9190615681565b6023546001600160a01b03166370a0823160026000015460405160e083901b6001600160e01b03191681526001600160a01b039091166004820152602401602060405180830381865afa158015611bd7573d6000803e3d6000fd5b505050506040513d601f19601f82011682018060405250810190611bfb9190615681565b611c0591906155ce565b611c0f9190615426565b6025546001600160a01b03166370a0823160026000015460405160e083901b6001600160e01b03191681526001600160a01b039091166004820152602401602060405180830381865afa158015611c6a573d6000803e3d6000fd5b505050506040513d601f19601f82011682018060405250810190611c8e9190615681565b610ade91906154ab565b611cc27f65d7a28e3265b37a6474929f336521b332c1681b933f6cb9f3376673440d862a33611d6b565b611d345760405162461bcd60e51b815260206004820152603960248201527f455243313135355072657365744d696e7465725061757365723a206d7573742060448201527f686176652070617573657220726f6c6520746f2070617573650000000000000060648201526084016109fe565b611072613445565b601e8160048110610da157600080fd5b6000828152600160205260408120611d649083613482565b9392505050565b6000918252602082815260408084206001600160a01b0393909316845291905290205460ff1690565b606033611da081610d1e565b91505090565b610f9c33838361348e565b6000818152600160205260408120610a2c9061356e565b60288160028110610da157600080fd5b611de0613127565b611e0b6040518060400160405280600a815260200169189d5e5a5b99c813919560b21b815250613578565b60008211611e815760405162461bcd60e51b815260206004820152603960248201527f45205243313135355072657365744d696e7465725061757365723a20616d6f7560448201527f6e74206d7573742062652067726561746572207468616e20300000000000000060648201526084016109fe565b6000600a846003811115611e9757611e9761551b565b60048110611ea757611ea761547c565b015411611f1c5760405162461bcd60e51b815260206004820152603c60248201527f455243313135355072657365744d696e7465725061757365723a20746965722060448201527f7072696365206d7573742062652067726561746572207468616e20300000000060648201526084016109fe565b6001600160a01b0381161580159080611f465750808015611f4657506001600160a01b0382163314155b611fa15760405162461bcd60e51b815260206004820152602660248201527f526566657272616c206d75737420626520646966666572656e742066726f6d2060448201526539b2b73232b960d11b60648201526084016109fe565b6000846003811115611fb557611fb561551b565b602b54909150600160a01b900460ff166123aa57600084600a876003811115611fe057611fe061551b565b60048110611ff057611ff061547c565b0154611ffc91906155ce565b9050612035604051806040016040528060158152602001747472616e7366657272696e6720757364507269636560581b815250826135bb565b6025546001600160a01b03166323b872dd336040516001600160e01b031960e084901b1681526001600160a01b039091166004820152306024820152604481018490526064016020604051808303816000875af115801561209a573d6000803e3d6000fd5b505050506040513d601f19601f820116820180604052508101906120be91906155e5565b5060006120db826026866120d3576000613600565b602a54613600565b905061211c6040518060400160405280601a81526020017f7472616e7366657272696e6720746f53656c6c466f7253616665000000000000815250826135bb565b60235460405163f7e0ba5f60e01b8152600481018390526000916001600160a01b03169063f7e0ba5f906024016020604051808303816000875af1158015612168573d6000803e3d6000fd5b505050506040513d601f19601f8201168201806040525081019061218c9190615681565b90506121c960405180604001604052806019815260200178039b0b332a0b6b7bab73a103932ba3ab93732b210333937b69603d1b815250826135bb565b6023546000906121e4906001600160a01b031683602661366f565b90506122256040518060400160405280601f81526020017f7472616e7366657272656420746f2070726f746f636f6c2077616c6c65747300815250826135bb565b851561228e576000612250602360009054906101000a90046001600160a01b0316848a602a54613924565b90506122806040518060400160405280600c81526020016b726566657272616c2066656560a01b815250826135bb565b61228a81836154ab565b9150505b6122cd6040518060400160405280601c81526020017f746f74616c207472616e7366657272656420746f2077616c6c65747300000000815250826135bb565b6025546040516370a0823160e01b81523060048201526000916001600160a01b0316906370a0823190602401602060405180830381865afa158015612316573d6000803e3d6000fd5b505050506040513d601f19601f8201168201806040525081019061233a9190615681565b905080156123a0576024805460405163b6b55f2560e01b8152600481018490526001600160a01b039091169163b6b55f259101600060405180830381600087803b15801561238757600080fd5b505af115801561239b573d6000803e3d6000fd5b505050505b50505050506126c3565b6022544210156123fc5760405162461bcd60e51b815260206004820152601a60248201527f50726573616c65206973206e6f7420737461727465642079657400000000000060448201526064016109fe565b6000600e612408610a62565b600481106124185761241861547c565b60408051608081019182905292600492830201919082845b8154815260200190600101908083116124305750505050509050600085828860038111156124605761246061551b565b600481106124705761247061547c565b602002015161247f91906155ce565b90506124b8604051806040016040528060158152602001747472616e7366657272696e6720757364507269636560581b815250826135bb565b6025546001600160a01b03166323b872dd336040516001600160e01b031960e084901b1681526001600160a01b039091166004820152306024820152604481018490526064016020604051808303816000875af115801561251d573d6000803e3d6000fd5b505050506040513d601f19601f8201168201806040525081019061254191906155e5565b5060008461255057600061256d565b602554602a5461256d916001600160a01b03169084908990613924565b90506000851561257e5760006125a9565b6025546125a9906001600160a01b031684600260000154602a546001600160a01b0390911690613924565b6025549091506000906125c7906001600160a01b031685602661366f565b6025546040516370a0823160e01b81523060048201529192506000916001600160a01b03909116906370a0823190602401602060405180830381865afa158015612615573d6000803e3d6000fd5b505050506040513d601f19601f820116820180604052508101906126399190615681565b905080156126bc57602554602b5460405163a9059cbb60e01b81526001600160a01b0391821660048201526024810184905291169063a9059cbb906044016020604051808303816000875af1158015612696573d6000803e3d6000fd5b505050506040513d601f19601f820116820180604052508101906126ba91906155e5565b505b5050505050505b6126de3382866040518060200160405280600081525061334b565b5050610e906001600955565b6126f2613127565b60005b600481101561274a5760005b602c5481116127375761272582600381111561271f5761271f61551b565b826114b7565b8061272f81615492565b915050612701565b508061274281615492565b9150506126f5565b506110726001600955565b61275d613127565b612794604051806040016040528060158152602001747472616e7366657272696e6720757364507269636560581b815250826135bb565b6025546001600160a01b03166323b872dd336040516001600160e01b031960e084901b1681526001600160a01b039091166004820152306024820152604481018490526064016020604051808303816000875af11580156127f9573d6000803e3d6000fd5b505050506040513d601f19601f8201168201806040525081019061281d91906155e5565b50600061282b600283615426565b9050600061284561283c8385615413565b60286000613600565b90506128866040518060400160405280601a81526020017f7472616e7366657272696e6720746f53656c6c466f7253616665000000000000815250826135bb565b60235460405163f7e0ba5f60e01b8152600481018390526000916001600160a01b03169063f7e0ba5f906024016020604051808303816000875af11580156128d2573d6000803e3d6000fd5b505050506040513d601f19601f820116820180604052508101906128f69190615681565b905061293360405180604001604052806019815260200178039b0b332a0b6b7bab73a103932ba3ab93732b210333937b69603d1b815250826135bb565b60235460009061294e906001600160a01b031683602861366f565b602c8054919250600061296083615492565b9091555050602c546000908152602d60205260408120829055612981610c8b565b905060005b6004811015612a0f57600081815260086020908152604080832054602c548452602f909252909120819083600481106129c1576129c161547c565b0155826129ce82896155ce565b6129d89190615426565b602c546000908152602e6020526040902083600481106129fa576129fa61547c565b01555080612a0781615492565b915050612986565b506025546040516370a0823160e01b81523060048201526000916001600160a01b0316906370a0823190602401602060405180830381865afa158015612a59573d6000803e3d6000fd5b505050506040513d601f19601f82011682018060405250810190612a7d9190615681565b90508015612ae3576024805460405163b6b55f2560e01b8152600481018490526001600160a01b039091169163b6b55f259101600060405180830381600087803b158015612aca57600080fd5b505af1158015612ade573d6000803e3d6000fd5b505050505b505050505050612af36001600955565b50565b600082815260208190526040902060010154612b118161308c565b610e9083836130b8565b60268160028110610da157600080fd5b60003381805b6004811015610d8a5760005b602c548111612b8057612b6284836003811115612b5c57612b5c61551b565b83611074565b612b6c90846154ab565b925080612b7881615492565b915050612b3d565b5080612b8b81615492565b915050612b31565b6000612baa8260038111156107d5576107d561551b565b15612bc957612bc48260038111156107d5576107d561551b565b612bcc565b60015b602c546000908152602e60205260409020836003811115612bef57612bef61551b565b60048110612bff57612bff61547c565b0154612c0b9190615426565b600a836003811115612c1f57612c1f61551b565b60048110612c2f57612c2f61547c565b0154610a2c91906154ab565b6001600160a01b038516331480612c575750612c578533610914565b612c735760405162461bcd60e51b81526004016109fe90615531565b610e648585858585613c0a565b6001600160a01b038316331480612c9c5750612c9c8333610914565b612cb85760405162461bcd60e51b81526004016109fe90615531565b610e90838383613d54565b612ccd8282611d6b565b610f9c576000828152602081815260408083206001600160a01b03851684529091529020805460ff19166001179055612d033390565b6001600160a01b0316816001600160a01b0316837f2f8788117e7eff1d82e926ec794901d17c78024a50270940304540a733656f0d60405160405180910390a45050565b6000611d64836001600160a01b038416613e7a565b6000610a2c82613ec9565b6001600160a01b038416612d8d5760405162461bcd60e51b81526004016109fe9061569a565b8151835114612dae5760405162461bcd60e51b81526004016109fe906156db565b33612dbe81600087878787613f09565b60005b8451811015612e5a57838181518110612ddc57612ddc61547c565b602002602001015160046000878481518110612dfa57612dfa61547c565b602002602001015181526020019081526020016000206000886001600160a01b03166001600160a01b031681526020019081526020016000206000828254612e4291906154ab565b90915550819050612e5281615492565b915050612dc1565b50846001600160a01b031660006001600160a01b0316826001600160a01b03167f4a39dc06d4c0dbc64b70af90fd698a233a518aa5d07e595d983b8c0526c8f7fb8787604051612eab929190615723565b60405180910390a4612ec281600087878787613f17565b610e6481600087878787613fc9565b8151835114612ef25760405162461bcd60e51b81526004016109fe906156db565b6001600160a01b038416612f185760405162461bcd60e51b81526004016109fe90615748565b33612f27818787878787613f09565b60005b8451811015613010576000858281518110612f4757612f4761547c565b602002602001015190506000858381518110612f6557612f6561547c565b60209081029190910181015160008481526004835260408082206001600160a01b038e168352909352919091205490915081811015612fb65760405162461bcd60e51b81526004016109fe9061578d565b60008381526004602090815260408083206001600160a01b038e8116855292528083208585039055908b16825281208054849290612ff59084906154ab565b925050819055505050508061300990615492565b9050612f2a565b50846001600160a01b0316866001600160a01b0316826001600160a01b03167f4a39dc06d4c0dbc64b70af90fd698a233a518aa5d07e595d983b8c0526c8f7fb8787604051613060929190615723565b60405180910390a4613076818787878787613f17565b613084818787878787613fc9565b505050505050565b612af38133614124565b6130a08282612cc3565b6000828152600160205260409020610e909082612d47565b6130c2828261417d565b6000828152600160205260409020610e9090826141e2565b6130e26141f7565b6007805460ff191690557f5db9ee0a495bf2e6ff9c91a7834c1ba4fdd244a5e8aa4e537bd38aeae4b073aa335b6040516001600160a01b039091168152602001610f18565b6002600954036131795760405162461bcd60e51b815260206004820152601f60248201527f5265656e7472616e637947756172643a207265656e7472616e742063616c6c0060448201526064016109fe565b6002600955565b6006610f9c828261581d565b610f9c8282613096565b610f9c6002828161497b565b6001600160a01b0383166131c85760405162461bcd60e51b81526004016109fe906158dc565b80518251146131e95760405162461bcd60e51b81526004016109fe906156db565b600033905061320c81856000868660405180602001604052806000815250613f09565b60005b83518110156132d457600084828151811061322c5761322c61547c565b60200260200101519050600084838151811061324a5761324a61547c565b60209081029190910181015160008481526004835260408082206001600160a01b038c16835290935291909120549091508181101561329b5760405162461bcd60e51b81526004016109fe9061591f565b60009283526004602090815260408085206001600160a01b038b16865290915290922091039055806132cc81615492565b91505061320f565b5060006001600160a01b0316846001600160a01b0316826001600160a01b03167f4a39dc06d4c0dbc64b70af90fd698a233a518aa5d07e595d983b8c0526c8f7fb8686604051613325929190615723565b60405180910390a4610d1881856000868660405180602001604052806000815250613f17565b6001600160a01b0384166133715760405162461bcd60e51b81526004016109fe9061569a565b33600061337d85614240565b9050600061338a85614240565b905061339b83600089858589613f09565b60008681526004602090815260408083206001600160a01b038b168452909152812080548792906133cd9084906154ab565b909155505060408051878152602081018790526001600160a01b03808a1692600092918716917fc3d58168c5ae7397731d063d5bbf3d657854427343f4c083240f7aacaa2d0f62910160405180910390a461342d83600089858589613f17565b61343c8360008989898961428b565b50505050505050565b61344d614346565b6007805460ff191660011790557f62e78cea01bee320cd4e420270b5ea74000d11b0c9f74754ebdbfc544b05a25861310f3390565b6000611d64838361438c565b816001600160a01b0316836001600160a01b0316036135015760405162461bcd60e51b815260206004820152602960248201527f455243313135353a2073657474696e6720617070726f76616c20737461747573604482015268103337b91039b2b63360b91b60648201526084016109fe565b6001600160a01b03838116600081815260056020908152604080832094871680845294825291829020805460ff191686151590811790915591519182527f17307eab39ab6107e8899845ad3d59bd9653f200f220920489ca2b5937696c31910160405180910390a3505050565b6000610a2c825490565b612af38160405160240161358c9190614abe565b60408051601f198184030181529190526020810180516001600160e01b031663104c13eb60e21b1790526143b6565b610f9c82826040516024016135d1929190615963565b60408051601f198184030181529190526020810180516001600160e01b0316632d839cb360e21b1790526143b6565b600080805b6002811015613640578481600281106136205761362061547c565b015461362c90836154ab565b91508061363881615492565b915050613605565b5061364b83826154ab565b90506305f5e10061365c82876155ce565b6136669190615426565b95945050505050565b60006136af6040518060400160405280601781526020017f2d2d205f64697374726962757465207374617274202d2d000000000000000000815250613578565b6136e06040518060400160405280600f81526020016e446973747269627574696e6720257360881b815250846135bb565b604080518082018252600a81526962616c616e636520257360b01b602082015290516370a0823160e01b815230600482015261377191906001600160a01b038716906370a0823190602401602060405180830381865afa158015613748573d6000803e3d6000fd5b505050506040513d601f19601f8201168201806040525081019061376c9190615681565b6135bb565b6000805b60028110156138b55760006305f5e1008583600281106137975761379761547c565b01546137a390886155ce565b6137ad9190615426565b90506137ff6040518060400160405280601081526020016f73656e64696e6720257320746f20257360801b81525082600285600281106137ef576137ef61547c565b01546001600160a01b03166143d7565b866001600160a01b031663a9059cbb600284600281106138215761382161547c565b015460405160e083901b6001600160e01b03191681526001600160a01b039091166004820152602481018490526044016020604051808303816000875af1158015613870573d6000803e3d6000fd5b505050506040513d601f19601f8201168201806040525081019061389491906155e5565b5061389f81846154ab565b92505080806138ad90615492565b915050613775565b506138e66040518060400160405280600e81526020016d446973747269627574656420257360901b815250826135bb565b61391c604051806040016040528060158152602001742d2d205f6469737472696275746520656e64202d2d60581b815250613578565b949350505050565b60006139646040518060400160405280601c81526020017f2d2d205f7472616e7366657250657263656e74207374617274202d2d00000000815250613578565b6040516370a0823160e01b81523060048201526000906001600160a01b038716906370a0823190602401602060405180830381865afa1580156139ab573d6000803e3d6000fd5b505050506040513d601f19601f820116820180604052508101906139cf9190615681565b9050613a106040518060400160405280601881526020017f7472616e7366657272696e67207368617265206f662025730000000000000000815250866135bb565b613a3c6040518060400160405280600a81526020016962616c616e636520257360b01b815250826135bb565b60006305f5e100613a4d85886155ce565b613a579190615426565b9050613a9060405180604001604052806015815260200174616d6f756e7420746f207472616e7366657220257360581b815250826135bb565b80821015613aeb5760405162461bcd60e51b815260206004820152602260248201527f4e6f7420656e6f7567682062616c616e6365206f6e2074686520636f6e74726160448201526118dd60f21b60648201526084016109fe565b613b1e6040518060400160405280601081526020016f73656e64696e6720257320746f20257360801b81525082876143d7565b60405163a9059cbb60e01b81526001600160a01b0386811660048301526024820183905288169063a9059cbb906044016020604051808303816000875af1158015613b6d573d6000803e3d6000fd5b505050506040513d601f19601f82011682018060405250810190613b9191906155e5565b50613bc26040518060400160405280600e81526020016d446973747269627574656420257360901b815250826135bb565b613c006040518060400160405280601a81526020017f2d2d205f7472616e7366657250657263656e7420656e64202d2d000000000000815250613578565b9695505050505050565b6001600160a01b038416613c305760405162461bcd60e51b81526004016109fe90615748565b336000613c3c85614240565b90506000613c4985614240565b9050613c59838989858589613f09565b60008681526004602090815260408083206001600160a01b038c16845290915290205485811015613c9c5760405162461bcd60e51b81526004016109fe9061578d565b60008781526004602090815260408083206001600160a01b038d8116855292528083208985039055908a16825281208054889290613cdb9084906154ab565b909155505060408051888152602081018890526001600160a01b03808b16928c821692918816917fc3d58168c5ae7397731d063d5bbf3d657854427343f4c083240f7aacaa2d0f62910160405180910390a4613d3b848a8a86868a613f17565b613d49848a8a8a8a8a61428b565b505050505050505050565b6001600160a01b038316613d7a5760405162461bcd60e51b81526004016109fe906158dc565b336000613d8684614240565b90506000613d9384614240565b9050613db383876000858560405180602001604052806000815250613f09565b60008581526004602090815260408083206001600160a01b038a16845290915290205484811015613df65760405162461bcd60e51b81526004016109fe9061591f565b60008681526004602090815260408083206001600160a01b038b81168086529184528285208a8703905582518b81529384018a90529092908816917fc3d58168c5ae7397731d063d5bbf3d657854427343f4c083240f7aacaa2d0f62910160405180910390a461343c84886000868660405180602001604052806000815250613f17565b6000818152600183016020526040812054613ec157508154600181810184556000848152602080822090930184905584548482528286019093526040902091909155610a2c565b506000610a2c565b60006001600160e01b03198216636cdb3d1360e11b1480613efa57506001600160e01b031982166303a24d0760e21b145b80610a2c5750610a2c8261441e565b613084868686868686614443565b601e83600081518110613f2c57613f2c61547c565b602002602001015160048110613f4457613f4461547c565b0154613f7684600081518110613f5c57613f5c61547c565b602002602001015160009081526008602052604090205490565b1115613fc45760405162461bcd60e51b815260206004820152601b60248201527f536166654e46543a206d617820737570706c792072656163686564000000000060448201526064016109fe565b613084565b6001600160a01b0384163b156130845760405163bc197c8160e01b81526001600160a01b0385169063bc197c819061400d9089908990889088908890600401615985565b6020604051808303816000875af1925050508015614048575060408051601f3d908101601f19168201909252614045918101906159e3565b60015b6140f457614054615a00565b806308c379a00361408d5750614068615a1c565b80614073575061408f565b8060405162461bcd60e51b81526004016109fe9190614abe565b505b60405162461bcd60e51b815260206004820152603460248201527f455243313135353a207472616e7366657220746f206e6f6e2d455243313135356044820152732932b1b2b4bb32b91034b6b83632b6b2b73a32b960611b60648201526084016109fe565b6001600160e01b0319811663bc197c8160e01b1461343c5760405162461bcd60e51b81526004016109fe90615aa5565b61412e8282611d6b565b610f9c5761413b816145ca565b6141468360206145dc565b604051602001614157929190615aed565b60408051601f198184030181529082905262461bcd60e51b82526109fe91600401614abe565b6141878282611d6b565b15610f9c576000828152602081815260408083206001600160a01b0385168085529252808320805460ff1916905551339285917ff6391f5c32d9c69d2a47ea670b442974b53935d1edc7fd64eb21e047a839171b9190a45050565b6000611d64836001600160a01b038416614777565b60075460ff166110725760405162461bcd60e51b815260206004820152601460248201527314185d5cd8589b194e881b9bdd081c185d5cd95960621b60448201526064016109fe565b6040805160018082528183019092526060916000919060208083019080368337019050509050828160008151811061427a5761427a61547c565b602090810291909101015292915050565b6001600160a01b0384163b156130845760405163f23a6e6160e01b81526001600160a01b0385169063f23a6e61906142cf9089908990889088908890600401615b62565b6020604051808303816000875af192505050801561430a575060408051601f3d908101601f19168201909252614307918101906159e3565b60015b61431657614054615a00565b6001600160e01b0319811663f23a6e6160e01b1461343c5760405162461bcd60e51b81526004016109fe90615aa5565b60075460ff16156110725760405162461bcd60e51b815260206004820152601060248201526f14185d5cd8589b194e881c185d5cd95960821b60448201526064016109fe565b60008260000182815481106143a3576143a361547c565b9060005260206000200154905092915050565b80516a636f6e736f6c652e6c6f67602083016000808483855afa5050505050565b610e908383836040516024016143ef93929190615b9a565b60408051601f198184030181529190526020810180516001600160e01b031663038fd88960e31b1790526143b6565b60006001600160e01b03198216635a05180f60e01b1480610a2c5750610a2c8261486a565b61445186868686868661489f565b6001600160a01b0385166144d85760005b83518110156144d65782818151811061447d5761447d61547c565b60200260200101516008600086848151811061449b5761449b61547c565b6020026020010151815260200190815260200160002060008282546144c091906154ab565b909155506144cf905081615492565b9050614462565b505b6001600160a01b0384166130845760005b835181101561343c5760008482815181106145065761450661547c565b6020026020010151905060008483815181106145245761452461547c565b60200260200101519050600060086000848152602001908152602001600020549050818110156145a75760405162461bcd60e51b815260206004820152602860248201527f455243313135353a206275726e20616d6f756e74206578636565647320746f74604482015267616c537570706c7960c01b60648201526084016109fe565b600092835260086020526040909220910390556145c381615492565b90506144e9565b6060610a2c6001600160a01b03831660145b606060006145eb8360026155ce565b6145f69060026154ab565b6001600160401b0381111561460d5761460d614b38565b6040519080825280601f01601f191660200182016040528015614637576020820181803683370190505b509050600360fc1b816000815181106146525761465261547c565b60200101906001600160f81b031916908160001a905350600f60fb1b816001815181106146815761468161547c565b60200101906001600160f81b031916908160001a90535060006146a58460026155ce565b6146b09060016154ab565b90505b6001811115614728576f181899199a1a9b1b9c1cb0b131b232b360811b85600f16601081106146e4576146e461547c565b1a60f81b8282815181106146fa576146fa61547c565b60200101906001600160f81b031916908160001a90535060049490941c9361472181615bcc565b90506146b3565b508315611d645760405162461bcd60e51b815260206004820181905260248201527f537472696e67733a20686578206c656e67746820696e73756666696369656e7460448201526064016109fe565b6000818152600183016020526040812054801561486057600061479b600183615413565b85549091506000906147af90600190615413565b90508181146148145760008660000182815481106147cf576147cf61547c565b90600052602060002001549050808760000184815481106147f2576147f261547c565b6000918252602080832090910192909255918252600188019052604090208390555b855486908061482557614825615be3565b600190038181906000526020600020016000905590558560010160008681526020019081526020016000206000905560019350505050610a2c565b6000915050610a2c565b60006001600160e01b03198216637965db0b60e01b1480610a2c57506301ffc9a760e01b6001600160e01b0319831614610a2c565b61308486868686868660075460ff16156130845760405162461bcd60e51b815260206004820152602c60248201527f455243313135355061757361626c653a20746f6b656e207472616e736665722060448201526b1dda1a5b19481c185d5cd95960a21b60648201526084016109fe565b826004810192821561493e579160200282015b8281111561493e578251825591602001919060010190614923565b5061494a9291506149c3565b5090565b826002810192821561493e579160200282018281111561493e578251825591602001919060010190614923565b826002810192821561493e579160200282015b8281111561493e57825182546001600160a01b0319166001600160a01b0390911617825560209092019160019091019061498e565b5b8082111561494a57600081556001016149c4565b6001600160a01b0381168114612af357600080fd5b60008060408385031215614a0057600080fd5b8235614a0b816149d8565b946020939093013593505050565b6001600160e01b031981168114612af357600080fd5b600060208284031215614a4157600080fd5b8135611d6481614a19565b60008060408385031215614a5f57600080fd5b50508035926020909101359150565b60005b83811015614a89578181015183820152602001614a71565b50506000910152565b60008151808452614aaa816020860160208601614a6e565b601f01601f19169290920160200192915050565b602081526000611d646020830184614a92565b600060208284031215614ae357600080fd5b5035919050565b600081518084526020808501945080840160005b83811015614b1a57815187529582019590820190600101614afe565b509495945050505050565b602081526000611d646020830184614aea565b634e487b7160e01b600052604160045260246000fd5b604081018181106001600160401b0382111715614b6d57614b6d614b38565b60405250565b601f8201601f191681016001600160401b0381118282101715614b9857614b98614b38565b6040525050565b60006001600160401b03821115614bb857614bb8614b38565b5060051b60200190565b600082601f830112614bd357600080fd5b81356020614be082614b9f565b604051614bed8282614b73565b83815260059390931b8501820192828101915086841115614c0d57600080fd5b8286015b84811015614c285780358352918301918301614c11565b509695505050505050565b60006001600160401b03831115614c4c57614c4c614b38565b604051614c63601f8501601f191660200182614b73565b809150838152848484011115614c7857600080fd5b83836020830137600060208583010152509392505050565b600082601f830112614ca157600080fd5b611d6483833560208501614c33565b60008060008060808587031215614cc657600080fd5b8435614cd1816149d8565b935060208501356001600160401b0380821115614ced57600080fd5b614cf988838901614bc2565b94506040870135915080821115614d0f57600080fd5b614d1b88838901614bc2565b93506060870135915080821115614d3157600080fd5b50614d3e87828801614c90565b91505092959194509250565b600060208284031215614d5c57600080fd5b8135611d64816149d8565b600080600080600060a08688031215614d7f57600080fd5b8535614d8a816149d8565b94506020860135614d9a816149d8565b935060408601356001600160401b0380821115614db657600080fd5b614dc289838a01614bc2565b94506060880135915080821115614dd857600080fd5b614de489838a01614bc2565b93506080880135915080821115614dfa57600080fd5b50614e0788828901614c90565b9150509295509295909350565b60008060408385031215614e2757600080fd5b823591506020830135614e39816149d8565b809150509250929050565b803560048110614e5357600080fd5b919050565b600060208284031215614e6a57600080fd5b611d6482614e44565b600080600060608486031215614e8857600080fd5b8335614e93816149d8565b9250614ea160208501614e44565b9150604084013590509250925092565b60006020808385031215614ec457600080fd5b82356001600160401b0380821115614edb57600080fd5b818501915085601f830112614eef57600080fd5b8135614efa81614b9f565b604051614f078282614b73565b82815260059290921b8401850191858101915088831115614f2757600080fd5b8585015b83811015614f5f57803585811115614f435760008081fd5b614f518b89838a0101614bc2565b845250918601918601614f2b565b5098975050505050505050565b60008060408385031215614f7f57600080fd5b82356001600160401b0380821115614f9657600080fd5b818501915085601f830112614faa57600080fd5b81356020614fb782614b9f565b604051614fc48282614b73565b83815260059390931b8501820192828101915089841115614fe457600080fd5b948201945b8386101561500b578535614ffc816149d8565b82529482019490820190614fe9565b9650508601359250508082111561502157600080fd5b5061502e85828601614bc2565b9150509250929050565b6000806040838503121561504b57600080fd5b614a0b83614e44565b600082601f83011261506557600080fd5b604051608081018181106001600160401b038211171561508757615087614b38565b60405280608084018581111561509c57600080fd5b845b818110156150b657803583526020928301920161509e565b509195945050505050565b600082601f8301126150d257600080fd5b6040516150de81614b4e565b80604084018581111561509c57600080fd5b600080600080600080600080610200898b03121561510d57600080fd5b88356001600160401b0381111561512357600080fd5b8901601f81018b1361513457600080fd5b6151438b823560208401614c33565b9850506151538a60208b01615054565b96506151628a60a08b01615054565b9550610120890135615173816149d8565b94506151838a6101408b016150c1565b9350610180890135925061519b8a6101a08b016150c1565b91506101e08901356151ac816149d8565b809150509295985092959890939650565b6000806000606084860312156151d257600080fd5b83356151dd816149d8565b925060208401356001600160401b03808211156151f957600080fd5b61520587838801614bc2565b9350604086013591508082111561521b57600080fd5b5061522886828701614bc2565b9150509250925092565b6000806000806080858703121561524857600080fd5b8435615253816149d8565b9350602085013592506040850135915060608501356001600160401b0381111561527c57600080fd5b614d3e87828801614c90565b8015158114612af357600080fd5b600080604083850312156152a957600080fd5b82356152b4816149d8565b91506020830135614e3981615288565b6000806000606084860312156152d957600080fd5b833592506020840135915060408401356152f2816149d8565b809150509250925092565b60008060006060848603121561531257600080fd5b61531b84614e44565b92506020840135915060408401356152f2816149d8565b6000806040838503121561534557600080fd5b8235615350816149d8565b91506020830135614e39816149d8565b600080600080600060a0868803121561537857600080fd5b8535615383816149d8565b94506020860135615393816149d8565b9350604086013592506060860135915060808601356001600160401b038111156153bc57600080fd5b614e0788828901614c90565b6000806000606084860312156153dd57600080fd5b83356153e8816149d8565b95602085013595506040909401359392505050565b634e487b7160e01b600052601160045260246000fd5b81810381811115610a2c57610a2c6153fd565b60008261544357634e487b7160e01b600052601260045260246000fd5b500490565b600181811c9082168061545c57607f821691505b602082108103610bee57634e487b7160e01b600052602260045260246000fd5b634e487b7160e01b600052603260045260246000fd5b6000600182016154a4576154a46153fd565b5060010190565b80820180821115610a2c57610a2c6153fd565b60208082526038908201527f455243313135355072657365744d696e7465725061757365723a206d7573742060408201527f68617665206d696e74657220726f6c6520746f206d696e740000000000000000606082015260800190565b634e487b7160e01b600052602160045260246000fd5b6020808252602e908201527f455243313135353a2063616c6c6572206973206e6f7420746f6b656e206f776e60408201526d195c881bdc88185c1c1c9bdd995960921b606082015260800190565b6020808252602f908201527f455243313135355072657365744d696e7465725061757365723a206d7573742060408201526e686176652061646d696e20726f6c6560881b606082015260800190565b8082028115828204841417610a2c57610a2c6153fd565b6000602082840312156155f757600080fd5b8151611d6481615288565b60006040828403121561561457600080fd5b82601f83011261562357600080fd5b60405161562f81614b4e565b80604084018581111561564157600080fd5b845b818110156150b6578051615656816149d8565b835260209283019201615643565b60006020828403121561567657600080fd5b8151611d64816149d8565b60006020828403121561569357600080fd5b5051919050565b60208082526021908201527f455243313135353a206d696e7420746f20746865207a65726f206164647265736040820152607360f81b606082015260800190565b60208082526028908201527f455243313135353a2069647320616e6420616d6f756e7473206c656e677468206040820152670dad2e6dac2e8c6d60c31b606082015260800190565b6040815260006157366040830185614aea565b82810360208401526136668185614aea565b60208082526025908201527f455243313135353a207472616e7366657220746f20746865207a65726f206164604082015264647265737360d81b606082015260800190565b6020808252602a908201527f455243313135353a20696e73756666696369656e742062616c616e636520666f60408201526939103a3930b739b332b960b11b606082015260800190565b601f821115610e9057600081815260208120601f850160051c810160208610156157fe5750805b601f850160051c820191505b818110156130845782815560010161580a565b81516001600160401b0381111561583657615836614b38565b61584a816158448454615448565b846157d7565b602080601f83116001811461587f57600084156158675750858301515b600019600386901b1c1916600185901b178555613084565b600085815260208120601f198616915b828110156158ae5788860151825594840194600190910190840161588f565b50858210156158cc5787850151600019600388901b60f8161c191681555b5050505050600190811b01905550565b60208082526023908201527f455243313135353a206275726e2066726f6d20746865207a65726f206164647260408201526265737360e81b606082015260800190565b60208082526024908201527f455243313135353a206275726e20616d6f756e7420657863656564732062616c604082015263616e636560e01b606082015260800190565b6040815260006159766040830185614a92565b90508260208301529392505050565b60006001600160a01b03808816835280871660208401525060a060408301526159b160a0830186614aea565b82810360608401526159c38186614aea565b905082810360808401526159d78185614a92565b98975050505050505050565b6000602082840312156159f557600080fd5b8151611d6481614a19565b600060033d1115615a195760046000803e5060005160e01c5b90565b600060443d1015615a2a5790565b6040516003193d81016004833e81513d6001600160401b038160248401118184111715615a5957505050505090565b8285019150815181811115615a715750505050505090565b843d8701016020828501011115615a8b5750505050505090565b615a9a60208286010187614b73565b509095945050505050565b60208082526028908201527f455243313135353a204552433131353552656365697665722072656a656374656040820152676420746f6b656e7360c01b606082015260800190565b7f416363657373436f6e74726f6c3a206163636f756e7420000000000000000000815260008351615b25816017850160208801614a6e565b7001034b99036b4b9b9b4b733903937b6329607d1b6017918401918201528351615b56816028840160208801614a6e565b01602801949350505050565b60006001600160a01b03808816835280871660208401525084604083015283606083015260a0608083015261113660a0830184614a92565b606081526000615bad6060830186614a92565b90508360208301526001600160a01b0383166040830152949350505050565b600081615bdb57615bdb6153fd565b506000190190565b634e487b7160e01b600052603160045260246000fdfea2646970667358221220b47447a7175b9ec15ea4e4f10b7c6b413231ce6d1ef94676fdc3abbee4052ff264736f6c63430008110033b53127684a568b3173ae13b9f8a6016e243e63b6e8ee1178d6a717850b5d610365d7a28e3265b37a6474929f336521b332c1681b933f6cb9f3376673440d862a9f2df0fed2c77648de5860a4cc508cd0818c85b8b8a1ab4ceeef8d981c8956a6",
  "devdoc": {
    "author": "crypt0grapher",
    "kind": "dev",
    "methods": {
      "balanceOf(address,uint256)": {
        "details": "See {IERC1155-balanceOf}. Requirements: - `account` cannot be the zero address."
      },
      "balanceOfBatch(address[],uint256[])": {
        "details": "See {IERC1155-balanceOfBatch}. Requirements: - `accounts` and `ids` must have the same length."
      },
      "buy(uint8,uint256,address)": {
        "params": {
          "_amount": "amount of USD to spend",
          "_referral": "referral getting 5% of the price, should not be the sender, if not specified, goes to treasury",
          "_tier": "tier of the NFT to purchase which stands for ERC1155 token id [0..3]"
        }
      },
      "distributeProfit(uint256)": {
        "params": {
          "_amountUSD": "amount of USD to distribute"
        }
      },
      "exists(uint256)": {
        "details": "Indicates whether any token exist with a given id, or not."
      },
      "getCurrentPresaleWeek()": {
        "returns": {
          "_0": "returns 1-4"
        }
      },
      "getFairPrice(uint8)": {
        "returns": {
          "_0": "counts not only the sale price but also share of the profit for the tier"
        }
      },
      "getPrice(uint8)": {
        "returns": {
          "_0": "NFT price in USD"
        }
      },
      "getPriceTable()": {
        "returns": {
          "_0": "uint256[] containing all NFT prices in one table in USD"
        }
      },
      "getRoleAdmin(bytes32)": {
        "details": "Returns the admin role that controls `role`. See {grantRole} and {revokeRole}. To change a role's admin, use {_setRoleAdmin}."
      },
      "getRoleMember(bytes32,uint256)": {
        "details": "Returns one of the accounts that have `role`. `index` must be a value between 0 and {getRoleMemberCount}, non-inclusive. Role bearers are not sorted in any particular way, and their ordering may change at any point. WARNING: When using {getRoleMember} and {getRoleMemberCount}, make sure you perform all queries on the same block. See the following https://forum.openzeppelin.com/t/iterating-over-elements-on-enumerableset-in-openzeppelin-contracts/2296[forum post] for more information."
      },
      "getRoleMemberCount(bytes32)": {
        "details": "Returns the number of accounts that have `role`. Can be used together with {getRoleMember} to enumerate all bearers of a role."
      },
      "getUnclaimedRewards()": {
        "returns": {
          "_0": "amount of the rewards not yet distributed to NFT holders"
        }
      },
      "grantRole(bytes32,address)": {
        "details": "Grants `role` to `account`. If `account` had not been already granted `role`, emits a {RoleGranted} event. Requirements: - the caller must have ``role``'s admin role. May emit a {RoleGranted} event."
      },
      "hasRole(bytes32,address)": {
        "details": "Returns `true` if `account` has been granted `role`."
      },
      "isApprovedForAll(address,address)": {
        "details": "See {IERC1155-isApprovedForAll}."
      },
      "mint(address,uint256,uint256,bytes)": {
        "details": "Creates `amount` new tokens for `to`, of token type `id`. See {ERC1155-_mint}. Requirements: - the caller must have the `MINTER_ROLE`."
      },
      "mintBatch(address,uint256[],uint256[],bytes)": {
        "details": "xref:ROOT:erc1155.adoc#batch-operations[Batched] variant of {mint}."
      },
      "pause()": {
        "details": "Pauses all token transfers. See {ERC1155Pausable} and {Pausable-_pause}. Requirements: - the caller must have the `PAUSER_ROLE`."
      },
      "paused()": {
        "details": "Returns true if the contract is paused, and false otherwise."
      },
      "renounceRole(bytes32,address)": {
        "details": "Revokes `role` from the calling account. Roles are often managed via {grantRole} and {revokeRole}: this function's purpose is to provide a mechanism for accounts to lose their privileges if they are compromised (such as when a trusted device is misplaced). If the calling account had been revoked `role`, emits a {RoleRevoked} event. Requirements: - the caller must be `account`. May emit a {RoleRevoked} event."
      },
      "revokeRole(bytes32,address)": {
        "details": "Revokes `role` from `account`. If `account` had been granted `role`, emits a {RoleRevoked} event. Requirements: - the caller must have ``role``'s admin role. May emit a {RoleRevoked} event."
      },
      "safeBatchTransferFrom(address,address,uint256[],uint256[],bytes)": {
        "details": "See {IERC1155-safeBatchTransferFrom}."
      },
      "safeTransferFrom(address,address,uint256,uint256,bytes)": {
        "details": "See {IERC1155-safeTransferFrom}."
      },
      "setApprovalForAll(address,bool)": {
        "details": "See {IERC1155-setApprovalForAll}."
      },
      "setDiscountedPriceTable(uint256[][])": {
        "params": {
          "_presalePrice": "4x4 table of the discounted prices for all 4 tiers for all 4 weeks of the presale"
        }
      },
      "totalSupply(uint256)": {
        "details": "Total amount of tokens in with a given id."
      },
      "unpause()": {
        "details": "Unpauses all token transfers. See {ERC1155Pausable} and {Pausable-_unpause}. Requirements: - the caller must have the `PAUSER_ROLE`."
      },
      "uri(uint256)": {
        "details": "See {IERC1155MetadataURI-uri}. This implementation returns the same URI for *all* token types. It relies on the token type ID substitution mechanism https://eips.ethereum.org/EIPS/eip-1155#metadata[defined in the EIP]. Clients calling this function must replace the `\\{id\\}` substring with the actual token type ID."
      }
    },
    "stateVariables": {
      "currentDistributionId": {
        "return": "current distribution number, the one that assigned to the latest distribution",
        "returns": {
          "_0": "current distribution number, the one that assigned to the latest distribution"
        }
      }
    },
    "title": "Safe NFT",
    "version": 1
  },
  "userdoc": {
    "kind": "user",
    "methods": {
      "TIERS()": {
        "notice": "todo a number of tiers should be flexible"
      },
      "buy(uint8,uint256,address)": {
        "notice": "purchase Safe NFT for exact amount of USD"
      },
      "claimReward(uint8,uint256)": {
        "notice": "the function calculates the amount of the reward for the NFT holder and transfers it to the NFT holder"
      },
      "claimRewardsTotal()": {
        "notice": "the function calculates the amount of the reward for the NFT holder and transfers it to the NFT holder"
      },
      "currentDistributionId()": {
        "notice": "gets the current distribution number"
      },
      "distributeProfit(uint256)": {
        "notice": "distribute profit among the NFT holders, the function fixes the amount of the reward and the NFT holders and their shares at the moment of the call. It does not transfer the reward to the NFT holders, it just records the amount of the reward for each NFT holder."
      },
      "getBalanceTable(address)": {
        "notice": "gets NFT balance for all tiers"
      },
      "getCurrentPresaleWeek()": {
        "notice": "gets the current presale week"
      },
      "getFairPrice(uint8)": {
        "notice": "gets NFT fair price in USD"
      },
      "getFairPriceTable()": {
        "notice": "gets NFT price for all tiers in USD ///todo in SAFE!"
      },
      "getMyBalanceTable()": {
        "notice": "gets NFT balance for all tiers"
      },
      "getMyPendingRewardsTotal()": {
        "notice": "returns the amount of the reward share for the NFT holder"
      },
      "getMyShareOfTreasury()": {
        "notice": "**Your NFTs (% Treasury) **is calculated in $ as a relation of total price of NFTs possessed by the $ amount of Investment Pool - including its SAFE and USDC components."
      },
      "getPendingRewards(address,uint8,uint256)": {
        "notice": "returns the amount of the reward share for the NFT holder"
      },
      "getPrice(uint8)": {
        "notice": "gets NFT price in USD"
      },
      "getPriceTable()": {
        "notice": "gets all NFT prices in USD, the original ones without discounts"
      },
      "getTreasuryCost()": {
        "notice": "gets the total usd value of the NFT minted"
      },
      "getUnclaimedRewards()": {
        "notice": "undistributed profit amount in USD"
      },
      "setDiscountedPriceTable(uint256[][])": {
        "notice": "gets all discounted NFT prices in USD, for presale for all 4 weeks of the presale"
      },
      "togglePresale()": {
        "notice": "toggles presale status"
      }
    },
    "notice": "Safe Yields NFT token based on ERC1155 standard, id [0..3] represents one of the 4 tiers",
    "version": 1
  },
  "storageLayout": {
    "storage": [
      {
        "astId": 24,
        "contract": "contracts/SafeNFT.sol:SafeNFT",
        "label": "_roles",
        "offset": 0,
        "slot": "0",
        "type": "t_mapping(t_bytes32,t_struct(RoleData)19_storage)"
      },
      {
        "astId": 334,
        "contract": "contracts/SafeNFT.sol:SafeNFT",
        "label": "_roleMembers",
        "offset": 0,
        "slot": "1",
        "type": "t_mapping(t_bytes32,t_struct(AddressSet)4430_storage)"
      },
      {
        "astId": 6262,
        "contract": "contracts/SafeNFT.sol:SafeNFT",
        "label": "wallets",
        "offset": 0,
        "slot": "2",
        "type": "t_array(t_address)2_storage"
      },
      {
        "astId": 726,
        "contract": "contracts/SafeNFT.sol:SafeNFT",
        "label": "_balances",
        "offset": 0,
        "slot": "4",
        "type": "t_mapping(t_uint256,t_mapping(t_address,t_uint256))"
      },
      {
        "astId": 732,
        "contract": "contracts/SafeNFT.sol:SafeNFT",
        "label": "_operatorApprovals",
        "offset": 0,
        "slot": "5",
        "type": "t_mapping(t_address,t_mapping(t_address,t_bool))"
      },
      {
        "astId": 734,
        "contract": "contracts/SafeNFT.sol:SafeNFT",
        "label": "_uri",
        "offset": 0,
        "slot": "6",
        "type": "t_string_storage"
      },
      {
        "astId": 556,
        "contract": "contracts/SafeNFT.sol:SafeNFT",
        "label": "_paused",
        "offset": 0,
        "slot": "7",
        "type": "t_bool"
      },
      {
        "astId": 2213,
        "contract": "contracts/SafeNFT.sol:SafeNFT",
        "label": "_totalSupply",
        "offset": 0,
        "slot": "8",
        "type": "t_mapping(t_uint256,t_uint256)"
      },
      {
        "astId": 657,
        "contract": "contracts/SafeNFT.sol:SafeNFT",
        "label": "_status",
        "offset": 0,
        "slot": "9",
        "type": "t_uint256"
      },
      {
        "astId": 4753,
        "contract": "contracts/SafeNFT.sol:SafeNFT",
        "label": "price",
        "offset": 0,
        "slot": "10",
        "type": "t_array(t_uint256)4_storage"
      },
      {
        "astId": 4759,
        "contract": "contracts/SafeNFT.sol:SafeNFT",
        "label": "presalePrice",
        "offset": 0,
        "slot": "14",
        "type": "t_array(t_array(t_uint256)4_storage)4_storage"
      },
      {
        "astId": 4763,
        "contract": "contracts/SafeNFT.sol:SafeNFT",
        "label": "maxSupply",
        "offset": 0,
        "slot": "30",
        "type": "t_array(t_uint256)4_storage"
      },
      {
        "astId": 4765,
        "contract": "contracts/SafeNFT.sol:SafeNFT",
        "label": "presaleStartDate",
        "offset": 0,
        "slot": "34",
        "type": "t_uint256"
      },
      {
        "astId": 4768,
        "contract": "contracts/SafeNFT.sol:SafeNFT",
        "label": "safeToken",
        "offset": 0,
        "slot": "35",
        "type": "t_contract(ISafeToken)6770"
      },
      {
        "astId": 4771,
        "contract": "contracts/SafeNFT.sol:SafeNFT",
        "label": "safeVault",
        "offset": 0,
        "slot": "36",
        "type": "t_contract(ISafeVault)6791"
      },
      {
        "astId": 4774,
        "contract": "contracts/SafeNFT.sol:SafeNFT",
        "label": "usd",
        "offset": 0,
        "slot": "37",
        "type": "t_contract(IERC20)2651"
      },
      {
        "astId": 4781,
        "contract": "contracts/SafeNFT.sol:SafeNFT",
        "label": "priceDistributionOnMint",
        "offset": 0,
        "slot": "38",
        "type": "t_array(t_uint256)2_storage"
      },
      {
        "astId": 4785,
        "contract": "contracts/SafeNFT.sol:SafeNFT",
        "label": "profitDistribution",
        "offset": 0,
        "slot": "40",
        "type": "t_array(t_uint256)2_storage"
      },
      {
        "astId": 4787,
        "contract": "contracts/SafeNFT.sol:SafeNFT",
        "label": "referralShareForNFTPurchase",
        "offset": 0,
        "slot": "42",
        "type": "t_uint256"
      },
      {
        "astId": 4789,
        "contract": "contracts/SafeNFT.sol:SafeNFT",
        "label": "stabilizerWallet",
        "offset": 0,
        "slot": "43",
        "type": "t_address"
      },
      {
        "astId": 4791,
        "contract": "contracts/SafeNFT.sol:SafeNFT",
        "label": "presale",
        "offset": 20,
        "slot": "43",
        "type": "t_bool"
      },
      {
        "astId": 4793,
        "contract": "contracts/SafeNFT.sol:SafeNFT",
        "label": "currentDistributionId",
        "offset": 0,
        "slot": "44",
        "type": "t_uint256"
      },
      {
        "astId": 4797,
        "contract": "contracts/SafeNFT.sol:SafeNFT",
        "label": "distributionOfProfit",
        "offset": 0,
        "slot": "45",
        "type": "t_mapping(t_uint256,t_uint256)"
      },
      {
        "astId": 4803,
        "contract": "contracts/SafeNFT.sol:SafeNFT",
        "label": "distributionByTier",
        "offset": 0,
        "slot": "46",
        "type": "t_mapping(t_uint256,t_array(t_uint256)4_storage)"
      },
      {
        "astId": 4809,
        "contract": "contracts/SafeNFT.sol:SafeNFT",
        "label": "distributionTotalSupplySnapshot",
        "offset": 0,
        "slot": "47",
        "type": "t_mapping(t_uint256,t_array(t_uint256)4_storage)"
      },
      {
        "astId": 4817,
        "contract": "contracts/SafeNFT.sol:SafeNFT",
        "label": "alreadyDistributedAmount",
        "offset": 0,
        "slot": "48",
        "type": "t_mapping(t_uint256,t_mapping(t_uint256,t_mapping(t_address,t_uint256)))"
      },
      {
        "astId": 4823,
        "contract": "contracts/SafeNFT.sol:SafeNFT",
        "label": "alreadyDistributedAmountByTier",
        "offset": 0,
        "slot": "49",
        "type": "t_mapping(t_uint256,t_array(t_uint256)4_storage)"
      }
    ],
    "types": {
      "t_address": {
        "encoding": "inplace",
        "label": "address",
        "numberOfBytes": "20"
      },
      "t_array(t_address)2_storage": {
        "base": "t_address",
        "encoding": "inplace",
        "label": "address[2]",
        "numberOfBytes": "64"
      },
      "t_array(t_array(t_uint256)4_storage)4_storage": {
        "base": "t_array(t_uint256)4_storage",
        "encoding": "inplace",
        "label": "uint256[4][4]",
        "numberOfBytes": "512"
      },
      "t_array(t_bytes32)dyn_storage": {
        "base": "t_bytes32",
        "encoding": "dynamic_array",
        "label": "bytes32[]",
        "numberOfBytes": "32"
      },
      "t_array(t_uint256)2_storage": {
        "base": "t_uint256",
        "encoding": "inplace",
        "label": "uint256[2]",
        "numberOfBytes": "64"
      },
      "t_array(t_uint256)4_storage": {
        "base": "t_uint256",
        "encoding": "inplace",
        "label": "uint256[4]",
        "numberOfBytes": "128"
      },
      "t_bool": {
        "encoding": "inplace",
        "label": "bool",
        "numberOfBytes": "1"
      },
      "t_bytes32": {
        "encoding": "inplace",
        "label": "bytes32",
        "numberOfBytes": "32"
      },
      "t_contract(IERC20)2651": {
        "encoding": "inplace",
        "label": "contract IERC20",
        "numberOfBytes": "20"
      },
      "t_contract(ISafeToken)6770": {
        "encoding": "inplace",
        "label": "contract ISafeToken",
        "numberOfBytes": "20"
      },
      "t_contract(ISafeVault)6791": {
        "encoding": "inplace",
        "label": "contract ISafeVault",
        "numberOfBytes": "20"
      },
      "t_mapping(t_address,t_bool)": {
        "encoding": "mapping",
        "key": "t_address",
        "label": "mapping(address => bool)",
        "numberOfBytes": "32",
        "value": "t_bool"
      },
      "t_mapping(t_address,t_mapping(t_address,t_bool))": {
        "encoding": "mapping",
        "key": "t_address",
        "label": "mapping(address => mapping(address => bool))",
        "numberOfBytes": "32",
        "value": "t_mapping(t_address,t_bool)"
      },
      "t_mapping(t_address,t_uint256)": {
        "encoding": "mapping",
        "key": "t_address",
        "label": "mapping(address => uint256)",
        "numberOfBytes": "32",
        "value": "t_uint256"
      },
      "t_mapping(t_bytes32,t_struct(AddressSet)4430_storage)": {
        "encoding": "mapping",
        "key": "t_bytes32",
        "label": "mapping(bytes32 => struct EnumerableSet.AddressSet)",
        "numberOfBytes": "32",
        "value": "t_struct(AddressSet)4430_storage"
      },
      "t_mapping(t_bytes32,t_struct(RoleData)19_storage)": {
        "encoding": "mapping",
        "key": "t_bytes32",
        "label": "mapping(bytes32 => struct AccessControl.RoleData)",
        "numberOfBytes": "32",
        "value": "t_struct(RoleData)19_storage"
      },
      "t_mapping(t_bytes32,t_uint256)": {
        "encoding": "mapping",
        "key": "t_bytes32",
        "label": "mapping(bytes32 => uint256)",
        "numberOfBytes": "32",
        "value": "t_uint256"
      },
      "t_mapping(t_uint256,t_array(t_uint256)4_storage)": {
        "encoding": "mapping",
        "key": "t_uint256",
        "label": "mapping(uint256 => uint256[4])",
        "numberOfBytes": "32",
        "value": "t_array(t_uint256)4_storage"
      },
      "t_mapping(t_uint256,t_mapping(t_address,t_uint256))": {
        "encoding": "mapping",
        "key": "t_uint256",
        "label": "mapping(uint256 => mapping(address => uint256))",
        "numberOfBytes": "32",
        "value": "t_mapping(t_address,t_uint256)"
      },
      "t_mapping(t_uint256,t_mapping(t_uint256,t_mapping(t_address,t_uint256)))": {
        "encoding": "mapping",
        "key": "t_uint256",
        "label": "mapping(uint256 => mapping(uint256 => mapping(address => uint256)))",
        "numberOfBytes": "32",
        "value": "t_mapping(t_uint256,t_mapping(t_address,t_uint256))"
      },
      "t_mapping(t_uint256,t_uint256)": {
        "encoding": "mapping",
        "key": "t_uint256",
        "label": "mapping(uint256 => uint256)",
        "numberOfBytes": "32",
        "value": "t_uint256"
      },
      "t_string_storage": {
        "encoding": "bytes",
        "label": "string",
        "numberOfBytes": "32"
      },
      "t_struct(AddressSet)4430_storage": {
        "encoding": "inplace",
        "label": "struct EnumerableSet.AddressSet",
        "members": [
          {
            "astId": 4429,
            "contract": "contracts/SafeNFT.sol:SafeNFT",
            "label": "_inner",
            "offset": 0,
            "slot": "0",
            "type": "t_struct(Set)4115_storage"
          }
        ],
        "numberOfBytes": "64"
      },
      "t_struct(RoleData)19_storage": {
        "encoding": "inplace",
        "label": "struct AccessControl.RoleData",
        "members": [
          {
            "astId": 16,
            "contract": "contracts/SafeNFT.sol:SafeNFT",
            "label": "members",
            "offset": 0,
            "slot": "0",
            "type": "t_mapping(t_address,t_bool)"
          },
          {
            "astId": 18,
            "contract": "contracts/SafeNFT.sol:SafeNFT",
            "label": "adminRole",
            "offset": 0,
            "slot": "1",
            "type": "t_bytes32"
          }
        ],
        "numberOfBytes": "64"
      },
      "t_struct(Set)4115_storage": {
        "encoding": "inplace",
        "label": "struct EnumerableSet.Set",
        "members": [
          {
            "astId": 4110,
            "contract": "contracts/SafeNFT.sol:SafeNFT",
            "label": "_values",
            "offset": 0,
            "slot": "0",
            "type": "t_array(t_bytes32)dyn_storage"
          },
          {
            "astId": 4114,
            "contract": "contracts/SafeNFT.sol:SafeNFT",
            "label": "_indexes",
            "offset": 0,
            "slot": "1",
            "type": "t_mapping(t_bytes32,t_uint256)"
          }
        ],
        "numberOfBytes": "64"
      },
      "t_uint256": {
        "encoding": "inplace",
        "label": "uint256",
        "numberOfBytes": "32"
      }
    }
  }
}