{
  "address": "0x661e6ec14bBa39611EB5467b7e6dA8b3398819d3",
  "abi": [
    {
      "inputs": [
        {
          "internalType": "string",
          "name": "_uri",
          "type": "string"
        },
        {
          "internalType": "uint256[4]",
          "name": "_tierPrice",
          "type": "uint256[4]"
        },
        {
          "internalType": "contract ISafeToken",
          "name": "_safeToken",
          "type": "address"
        },
        {
          "internalType": "uint256[4]",
          "name": "_priceDistributionOnMint",
          "type": "uint256[4]"
        }
      ],
      "stateMutability": "nonpayable",
      "type": "constructor"
    },
    {
      "anonymous": false,
      "inputs": [
        {
          "indexed": true,
          "internalType": "address",
          "name": "account",
          "type": "address"
        },
        {
          "indexed": true,
          "internalType": "address",
          "name": "operator",
          "type": "address"
        },
        {
          "indexed": false,
          "internalType": "bool",
          "name": "approved",
          "type": "bool"
        }
      ],
      "name": "ApprovalForAll",
      "type": "event"
    },
    {
      "anonymous": false,
      "inputs": [
        {
          "indexed": false,
          "internalType": "address",
          "name": "account",
          "type": "address"
        }
      ],
      "name": "Paused",
      "type": "event"
    },
    {
      "anonymous": false,
      "inputs": [
        {
          "indexed": true,
          "internalType": "bytes32",
          "name": "role",
          "type": "bytes32"
        },
        {
          "indexed": true,
          "internalType": "bytes32",
          "name": "previousAdminRole",
          "type": "bytes32"
        },
        {
          "indexed": true,
          "internalType": "bytes32",
          "name": "newAdminRole",
          "type": "bytes32"
        }
      ],
      "name": "RoleAdminChanged",
      "type": "event"
    },
    {
      "anonymous": false,
      "inputs": [
        {
          "indexed": true,
          "internalType": "bytes32",
          "name": "role",
          "type": "bytes32"
        },
        {
          "indexed": true,
          "internalType": "address",
          "name": "account",
          "type": "address"
        },
        {
          "indexed": true,
          "internalType": "address",
          "name": "sender",
          "type": "address"
        }
      ],
      "name": "RoleGranted",
      "type": "event"
    },
    {
      "anonymous": false,
      "inputs": [
        {
          "indexed": true,
          "internalType": "bytes32",
          "name": "role",
          "type": "bytes32"
        },
        {
          "indexed": true,
          "internalType": "address",
          "name": "account",
          "type": "address"
        },
        {
          "indexed": true,
          "internalType": "address",
          "name": "sender",
          "type": "address"
        }
      ],
      "name": "RoleRevoked",
      "type": "event"
    },
    {
      "anonymous": false,
      "inputs": [
        {
          "indexed": true,
          "internalType": "address",
          "name": "operator",
          "type": "address"
        },
        {
          "indexed": true,
          "internalType": "address",
          "name": "from",
          "type": "address"
        },
        {
          "indexed": true,
          "internalType": "address",
          "name": "to",
          "type": "address"
        },
        {
          "indexed": false,
          "internalType": "uint256[]",
          "name": "ids",
          "type": "uint256[]"
        },
        {
          "indexed": false,
          "internalType": "uint256[]",
          "name": "values",
          "type": "uint256[]"
        }
      ],
      "name": "TransferBatch",
      "type": "event"
    },
    {
      "anonymous": false,
      "inputs": [
        {
          "indexed": true,
          "internalType": "address",
          "name": "operator",
          "type": "address"
        },
        {
          "indexed": true,
          "internalType": "address",
          "name": "from",
          "type": "address"
        },
        {
          "indexed": true,
          "internalType": "address",
          "name": "to",
          "type": "address"
        },
        {
          "indexed": false,
          "internalType": "uint256",
          "name": "id",
          "type": "uint256"
        },
        {
          "indexed": false,
          "internalType": "uint256",
          "name": "value",
          "type": "uint256"
        }
      ],
      "name": "TransferSingle",
      "type": "event"
    },
    {
      "anonymous": false,
      "inputs": [
        {
          "indexed": false,
          "internalType": "string",
          "name": "value",
          "type": "string"
        },
        {
          "indexed": true,
          "internalType": "uint256",
          "name": "id",
          "type": "uint256"
        }
      ],
      "name": "URI",
      "type": "event"
    },
    {
      "anonymous": false,
      "inputs": [
        {
          "indexed": false,
          "internalType": "address",
          "name": "account",
          "type": "address"
        }
      ],
      "name": "Unpaused",
      "type": "event"
    },
    {
      "inputs": [],
      "name": "DEFAULT_ADMIN_ROLE",
      "outputs": [
        {
          "internalType": "bytes32",
          "name": "",
          "type": "bytes32"
        }
      ],
      "stateMutability": "view",
      "type": "function"
    },
    {
      "inputs": [],
      "name": "MINTER_ROLE",
      "outputs": [
        {
          "internalType": "bytes32",
          "name": "",
          "type": "bytes32"
        }
      ],
      "stateMutability": "view",
      "type": "function"
    },
    {
      "inputs": [],
      "name": "PAUSER_ROLE",
      "outputs": [
        {
          "internalType": "bytes32",
          "name": "",
          "type": "bytes32"
        }
      ],
      "stateMutability": "view",
      "type": "function"
    },
    {
      "inputs": [],
      "name": "TIERS",
      "outputs": [
        {
          "internalType": "uint256",
          "name": "",
          "type": "uint256"
        }
      ],
      "stateMutability": "view",
      "type": "function"
    },
    {
      "inputs": [],
      "name": "WALLETS",
      "outputs": [
        {
          "internalType": "uint256",
          "name": "",
          "type": "uint256"
        }
      ],
      "stateMutability": "view",
      "type": "function"
    },
    {
      "inputs": [
        {
          "internalType": "address",
          "name": "account",
          "type": "address"
        },
        {
          "internalType": "uint256",
          "name": "id",
          "type": "uint256"
        }
      ],
      "name": "balanceOf",
      "outputs": [
        {
          "internalType": "uint256",
          "name": "",
          "type": "uint256"
        }
      ],
      "stateMutability": "view",
      "type": "function"
    },
    {
      "inputs": [
        {
          "internalType": "address[]",
          "name": "accounts",
          "type": "address[]"
        },
        {
          "internalType": "uint256[]",
          "name": "ids",
          "type": "uint256[]"
        }
      ],
      "name": "balanceOfBatch",
      "outputs": [
        {
          "internalType": "uint256[]",
          "name": "",
          "type": "uint256[]"
        }
      ],
      "stateMutability": "view",
      "type": "function"
    },
    {
      "inputs": [
        {
          "internalType": "address",
          "name": "account",
          "type": "address"
        },
        {
          "internalType": "uint256",
          "name": "id",
          "type": "uint256"
        },
        {
          "internalType": "uint256",
          "name": "value",
          "type": "uint256"
        }
      ],
      "name": "burn",
      "outputs": [],
      "stateMutability": "nonpayable",
      "type": "function"
    },
    {
      "inputs": [
        {
          "internalType": "address",
          "name": "account",
          "type": "address"
        },
        {
          "internalType": "uint256[]",
          "name": "ids",
          "type": "uint256[]"
        },
        {
          "internalType": "uint256[]",
          "name": "values",
          "type": "uint256[]"
        }
      ],
      "name": "burnBatch",
      "outputs": [],
      "stateMutability": "nonpayable",
      "type": "function"
    },
    {
      "inputs": [
        {
          "internalType": "enum SafeNFT.Tiers",
          "name": "_tier",
          "type": "uint8"
        },
        {
          "internalType": "uint256",
          "name": "_amount",
          "type": "uint256"
        }
      ],
      "name": "buy",
      "outputs": [],
      "stateMutability": "nonpayable",
      "type": "function"
    },
    {
      "inputs": [
        {
          "internalType": "bytes32",
          "name": "role",
          "type": "bytes32"
        }
      ],
      "name": "getRoleAdmin",
      "outputs": [
        {
          "internalType": "bytes32",
          "name": "",
          "type": "bytes32"
        }
      ],
      "stateMutability": "view",
      "type": "function"
    },
    {
      "inputs": [
        {
          "internalType": "bytes32",
          "name": "role",
          "type": "bytes32"
        },
        {
          "internalType": "uint256",
          "name": "index",
          "type": "uint256"
        }
      ],
      "name": "getRoleMember",
      "outputs": [
        {
          "internalType": "address",
          "name": "",
          "type": "address"
        }
      ],
      "stateMutability": "view",
      "type": "function"
    },
    {
      "inputs": [
        {
          "internalType": "bytes32",
          "name": "role",
          "type": "bytes32"
        }
      ],
      "name": "getRoleMemberCount",
      "outputs": [
        {
          "internalType": "uint256",
          "name": "",
          "type": "uint256"
        }
      ],
      "stateMutability": "view",
      "type": "function"
    },
    {
      "inputs": [
        {
          "internalType": "bytes32",
          "name": "role",
          "type": "bytes32"
        },
        {
          "internalType": "address",
          "name": "account",
          "type": "address"
        }
      ],
      "name": "grantRole",
      "outputs": [],
      "stateMutability": "nonpayable",
      "type": "function"
    },
    {
      "inputs": [
        {
          "internalType": "bytes32",
          "name": "role",
          "type": "bytes32"
        },
        {
          "internalType": "address",
          "name": "account",
          "type": "address"
        }
      ],
      "name": "hasRole",
      "outputs": [
        {
          "internalType": "bool",
          "name": "",
          "type": "bool"
        }
      ],
      "stateMutability": "view",
      "type": "function"
    },
    {
      "inputs": [
        {
          "internalType": "string",
          "name": "_uri",
          "type": "string"
        },
        {
          "internalType": "uint256[4]",
          "name": "_tierPrice",
          "type": "uint256[4]"
        },
        {
          "internalType": "contract ISafeToken",
          "name": "_safeToken",
          "type": "address"
        },
        {
          "internalType": "uint256[4]",
          "name": "_priceDistributionOnMint",
          "type": "uint256[4]"
        }
      ],
      "name": "initialize",
      "outputs": [],
      "stateMutability": "nonpayable",
      "type": "function"
    },
    {
      "inputs": [
        {
          "internalType": "address",
          "name": "account",
          "type": "address"
        },
        {
          "internalType": "address",
          "name": "operator",
          "type": "address"
        }
      ],
      "name": "isApprovedForAll",
      "outputs": [
        {
          "internalType": "bool",
          "name": "",
          "type": "bool"
        }
      ],
      "stateMutability": "view",
      "type": "function"
    },
    {
      "inputs": [
        {
          "internalType": "address",
          "name": "to",
          "type": "address"
        },
        {
          "internalType": "uint256",
          "name": "id",
          "type": "uint256"
        },
        {
          "internalType": "uint256",
          "name": "amount",
          "type": "uint256"
        },
        {
          "internalType": "bytes",
          "name": "data",
          "type": "bytes"
        }
      ],
      "name": "mint",
      "outputs": [],
      "stateMutability": "nonpayable",
      "type": "function"
    },
    {
      "inputs": [
        {
          "internalType": "address",
          "name": "to",
          "type": "address"
        },
        {
          "internalType": "uint256[]",
          "name": "ids",
          "type": "uint256[]"
        },
        {
          "internalType": "uint256[]",
          "name": "amounts",
          "type": "uint256[]"
        },
        {
          "internalType": "bytes",
          "name": "data",
          "type": "bytes"
        }
      ],
      "name": "mintBatch",
      "outputs": [],
      "stateMutability": "nonpayable",
      "type": "function"
    },
    {
      "inputs": [],
      "name": "pause",
      "outputs": [],
      "stateMutability": "nonpayable",
      "type": "function"
    },
    {
      "inputs": [],
      "name": "paused",
      "outputs": [
        {
          "internalType": "bool",
          "name": "",
          "type": "bool"
        }
      ],
      "stateMutability": "view",
      "type": "function"
    },
    {
      "inputs": [
        {
          "internalType": "uint256",
          "name": "",
          "type": "uint256"
        }
      ],
      "name": "priceDistributionOnMint",
      "outputs": [
        {
          "internalType": "uint256",
          "name": "",
          "type": "uint256"
        }
      ],
      "stateMutability": "view",
      "type": "function"
    },
    {
      "inputs": [
        {
          "internalType": "bytes32",
          "name": "role",
          "type": "bytes32"
        },
        {
          "internalType": "address",
          "name": "account",
          "type": "address"
        }
      ],
      "name": "renounceRole",
      "outputs": [],
      "stateMutability": "nonpayable",
      "type": "function"
    },
    {
      "inputs": [
        {
          "internalType": "bytes32",
          "name": "role",
          "type": "bytes32"
        },
        {
          "internalType": "address",
          "name": "account",
          "type": "address"
        }
      ],
      "name": "revokeRole",
      "outputs": [],
      "stateMutability": "nonpayable",
      "type": "function"
    },
    {
      "inputs": [
        {
          "internalType": "address",
          "name": "from",
          "type": "address"
        },
        {
          "internalType": "address",
          "name": "to",
          "type": "address"
        },
        {
          "internalType": "uint256[]",
          "name": "ids",
          "type": "uint256[]"
        },
        {
          "internalType": "uint256[]",
          "name": "amounts",
          "type": "uint256[]"
        },
        {
          "internalType": "bytes",
          "name": "data",
          "type": "bytes"
        }
      ],
      "name": "safeBatchTransferFrom",
      "outputs": [],
      "stateMutability": "nonpayable",
      "type": "function"
    },
    {
      "inputs": [],
      "name": "safeToken",
      "outputs": [
        {
          "internalType": "contract ISafeToken",
          "name": "",
          "type": "address"
        }
      ],
      "stateMutability": "view",
      "type": "function"
    },
    {
      "inputs": [
        {
          "internalType": "address",
          "name": "from",
          "type": "address"
        },
        {
          "internalType": "address",
          "name": "to",
          "type": "address"
        },
        {
          "internalType": "uint256",
          "name": "id",
          "type": "uint256"
        },
        {
          "internalType": "uint256",
          "name": "amount",
          "type": "uint256"
        },
        {
          "internalType": "bytes",
          "name": "data",
          "type": "bytes"
        }
      ],
      "name": "safeTransferFrom",
      "outputs": [],
      "stateMutability": "nonpayable",
      "type": "function"
    },
    {
      "inputs": [
        {
          "internalType": "address",
          "name": "operator",
          "type": "address"
        },
        {
          "internalType": "bool",
          "name": "approved",
          "type": "bool"
        }
      ],
      "name": "setApprovalForAll",
      "outputs": [],
      "stateMutability": "nonpayable",
      "type": "function"
    },
    {
      "inputs": [
        {
          "internalType": "bytes4",
          "name": "interfaceId",
          "type": "bytes4"
        }
      ],
      "name": "supportsInterface",
      "outputs": [
        {
          "internalType": "bool",
          "name": "",
          "type": "bool"
        }
      ],
      "stateMutability": "view",
      "type": "function"
    },
    {
      "inputs": [
        {
          "internalType": "uint256",
          "name": "",
          "type": "uint256"
        }
      ],
      "name": "tierPrice",
      "outputs": [
        {
          "internalType": "uint256",
          "name": "",
          "type": "uint256"
        }
      ],
      "stateMutability": "view",
      "type": "function"
    },
    {
      "inputs": [],
      "name": "unpause",
      "outputs": [],
      "stateMutability": "nonpayable",
      "type": "function"
    },
    {
      "inputs": [
        {
          "internalType": "uint256",
          "name": "",
          "type": "uint256"
        }
      ],
      "name": "uri",
      "outputs": [
        {
          "internalType": "string",
          "name": "",
          "type": "string"
        }
      ],
      "stateMutability": "view",
      "type": "function"
    }
  ],
  "transactionHash": "0xcc95719d9460e7f164938fbc34340592d35beca61b3a89e1916976d534caef56",
  "args": [
    "",
    [
      "131250000000000000000",
      "262500000000000000000",
      "525000000000000000000",
      "1050000000000000000000"
    ],
    "0xF3c420B081422C51533150664Fc8F2fb77E39296",
    [
      500,
      7000,
      2000,
      500
    ]
  ],
  "numDeployments": 1,
  "solcInputHash": "7b26c05381f81b4e7fd80aefbbb4286c",
  "bytecode": "0x60806040523480156200001157600080fd5b506040516200698738038062006987833981810160405281019062000037919062000946565b83806200004a816200012b60201b60201c565b506000600560006101000a81548160ff0219169083151502179055506200008a6000801b6200007e6200014060201b60201c565b6200014860201b60201c565b620000cb7f9f2df0fed2c77648de5860a4cc508cd0818c85b8b8a1ab4ceeef8d981c8956a6620000bf6200014060201b60201c565b6200014860201b60201c565b6200010c7f65d7a28e3265b37a6474929f336521b332c1681b933f6cb9f3376673440d862a620001006200014060201b60201c565b6200014860201b60201c565b5062000121848484846200015e60201b60201c565b5050505062000d00565b80600490816200013c919062000c19565b5050565b600033905090565b6200015a82826200033160201b60201c565b5050565b6000620001706200037960201b60201c565b9050600073ffffffffffffffffffffffffffffffffffffffff168173ffffffffffffffffffffffffffffffffffffffff1603620001e45773ffffffffffffffffffffffffffffffffffffffff7fb53127684a568b3173ae13b9f8a6016e243e63b6e8ee1178d6a717850b5d6103556200021e565b8073ffffffffffffffffffffffffffffffffffffffff163373ffffffffffffffffffffffffffffffffffffffff16146200021d57600080fd5b5b6200022f856200012b60201b60201c565b620002536000801b620002476200014060201b60201c565b6200014860201b60201c565b620002947f9f2df0fed2c77648de5860a4cc508cd0818c85b8b8a1ab4ceeef8d981c8956a6620002886200014060201b60201c565b6200014860201b60201c565b620002d57f65d7a28e3265b37a6474929f336521b332c1681b933f6cb9f3376673440d862a620002c96200014060201b60201c565b6200014860201b60201c565b836006906004620002e8929190620005d2565b5082600a60006101000a81548173ffffffffffffffffffffffffffffffffffffffff021916908373ffffffffffffffffffffffffffffffffffffffff1602179055505050505050565b620003488282620003a260201b620015a21760201c565b6200037481600160008581526020019081526020016000206200049360201b620016821790919060201c565b505050565b60007fb53127684a568b3173ae13b9f8a6016e243e63b6e8ee1178d6a717850b5d610354905090565b620003b48282620004cb60201b60201c565b6200048f57600160008084815260200190815260200160002060000160008373ffffffffffffffffffffffffffffffffffffffff1673ffffffffffffffffffffffffffffffffffffffff16815260200190815260200160002060006101000a81548160ff021916908315150217905550620004346200014060201b60201c565b73ffffffffffffffffffffffffffffffffffffffff168173ffffffffffffffffffffffffffffffffffffffff16837f2f8788117e7eff1d82e926ec794901d17c78024a50270940304540a733656f0d60405160405180910390a45b5050565b6000620004c3836000018373ffffffffffffffffffffffffffffffffffffffff1660001b6200053560201b60201c565b905092915050565b600080600084815260200190815260200160002060000160008373ffffffffffffffffffffffffffffffffffffffff1673ffffffffffffffffffffffffffffffffffffffff16815260200190815260200160002060009054906101000a900460ff16905092915050565b6000620005498383620005af60201b60201c565b620005a4578260000182908060018154018082558091505060019003906000526020600020016000909190919091505582600001805490508360010160008481526020019081526020016000208190555060019050620005a9565b600090505b92915050565b600080836001016000848152602001908152602001600020541415905092915050565b826004810192821562000604579160200282015b8281111562000603578251825591602001919060010190620005e6565b5b50905062000613919062000617565b5090565b5b808211156200063257600081600090555060010162000618565b5090565b6000604051905090565b600080fd5b600080fd5b600080fd5b600080fd5b6000601f19601f8301169050919050565b7f4e487b7100000000000000000000000000000000000000000000000000000000600052604160045260246000fd5b6200069f8262000654565b810181811067ffffffffffffffff82111715620006c157620006c062000665565b5b80604052505050565b6000620006d662000636565b9050620006e4828262000694565b919050565b600067ffffffffffffffff82111562000707576200070662000665565b5b620007128262000654565b9050602081019050919050565b60005b838110156200073f57808201518184015260208101905062000722565b60008484015250505050565b6000620007626200075c84620006e9565b620006ca565b9050828152602081018484840111156200078157620007806200064f565b5b6200078e8482856200071f565b509392505050565b600082601f830112620007ae57620007ad6200064a565b5b8151620007c08482602086016200074b565b91505092915050565b600067ffffffffffffffff821115620007e757620007e662000665565b5b602082029050919050565b600080fd5b6000819050919050565b6200080c81620007f7565b81146200081857600080fd5b50565b6000815190506200082c8162000801565b92915050565b6000620008496200084384620007c9565b620006ca565b90508060208402830185811115620008665762000865620007f2565b5b835b818110156200089357806200087e88826200081b565b84526020840193505060208101905062000868565b5050509392505050565b600082601f830112620008b557620008b46200064a565b5b6004620008c484828562000832565b91505092915050565b600073ffffffffffffffffffffffffffffffffffffffff82169050919050565b6000620008fa82620008cd565b9050919050565b60006200090e82620008ed565b9050919050565b620009208162000901565b81146200092c57600080fd5b50565b600081519050620009408162000915565b92915050565b600080600080610140858703121562000964576200096362000640565b5b600085015167ffffffffffffffff81111562000985576200098462000645565b5b620009938782880162000796565b9450506020620009a6878288016200089d565b93505060a0620009b9878288016200092f565b92505060c0620009cc878288016200089d565b91505092959194509250565b600081519050919050565b7f4e487b7100000000000000000000000000000000000000000000000000000000600052602260045260246000fd5b6000600282049050600182168062000a2b57607f821691505b60208210810362000a415762000a40620009e3565b5b50919050565b60008190508160005260206000209050919050565b60006020601f8301049050919050565b600082821b905092915050565b60006008830262000aab7fffffffffffffffffffffffffffffffffffffffffffffffffffffffffffffffff8262000a6c565b62000ab7868362000a6c565b95508019841693508086168417925050509392505050565b6000819050919050565b600062000afa62000af462000aee84620007f7565b62000acf565b620007f7565b9050919050565b6000819050919050565b62000b168362000ad9565b62000b2e62000b258262000b01565b84845462000a79565b825550505050565b600090565b62000b4562000b36565b62000b5281848462000b0b565b505050565b5b8181101562000b7a5762000b6e60008262000b3b565b60018101905062000b58565b5050565b601f82111562000bc95762000b938162000a47565b62000b9e8462000a5c565b8101602085101562000bae578190505b62000bc662000bbd8562000a5c565b83018262000b57565b50505b505050565b600082821c905092915050565b600062000bee6000198460080262000bce565b1980831691505092915050565b600062000c09838362000bdb565b9150826002028217905092915050565b62000c2482620009d8565b67ffffffffffffffff81111562000c405762000c3f62000665565b5b62000c4c825462000a12565b62000c5982828562000b7e565b600060209050601f83116001811462000c91576000841562000c7c578287015190505b62000c88858262000bfb565b86555062000cf8565b601f19841662000ca18662000a47565b60005b8281101562000ccb5784890151825560018201915060208501945060208101905062000ca4565b8683101562000ceb578489015162000ce7601f89168262000bdb565b8355505b6001600288020188555050505b505050505050565b615c778062000d106000396000f3fe608060405234801561001057600080fd5b50600436106101ef5760003560e01c80637d9eea911161010f578063ca15c873116100a2578063e63ab1e911610071578063e63ab1e9146105b4578063e985e9c5146105d2578063f242432a14610602578063f5298aca1461061e576101ef565b8063ca15c8731461051a578063d53913931461054a578063d547741f14610568578063df71da7614610584576101ef565b80639010d07c116100de5780639010d07c1461048057806391d14854146104b0578063a217fddf146104e0578063a22cb465146104fe576101ef565b80637d9eea911461040c578063826d3379146104285780638456cb59146104585780638d3bd55b14610462576101ef565b80633f4ba83a1161018757806362f791c01161015657806362f791c01461039a5780636b20c454146103b65780636e748f97146103d2578063731133e9146103f0576101ef565b80633f4ba83a146103245780634b3fd05a1461032e5780634e1273f41461034c5780635c975abb1461037c576101ef565b8063248a9ca3116101c3578063248a9ca3146102a05780632eb2c2d6146102d05780632f2ff15d146102ec57806336568abe14610308576101ef565b8062fdd58e146101f457806301ffc9a7146102245780630e89341c146102545780631f7fdffa14610284575b600080fd5b61020e60048036038101906102099190613722565b61063a565b60405161021b9190613771565b60405180910390f35b61023e600480360381019061023991906137e4565b610703565b60405161024b919061382c565b60405180910390f35b61026e60048036038101906102699190613847565b610715565b60405161027b9190613904565b60405180910390f35b61029e60048036038101906102999190613b23565b6107a9565b005b6102ba60048036038101906102b59190613c14565b61082b565b6040516102c79190613c50565b60405180910390f35b6102ea60048036038101906102e59190613c6b565b61084a565b005b61030660048036038101906103019190613d3a565b6108eb565b005b610322600480360381019061031d9190613d3a565b61090c565b005b61032c61098f565b005b610336610a09565b6040516103439190613dd9565b60405180910390f35b61036660048036038101906103619190613eb7565b610a2f565b6040516103739190613fed565b60405180910390f35b610384610b48565b604051610391919061382c565b60405180910390f35b6103b460048036038101906103af9190614034565b610b5f565b005b6103d060048036038101906103cb9190614074565b610f26565b005b6103da610fc3565b6040516103e79190613771565b60405180910390f35b61040a600480360381019061040591906140ff565b610fc8565b005b61042660048036038101906104219190614312565b61104a565b005b610442600480360381019061043d9190613847565b6111d8565b60405161044f9190613771565b60405180910390f35b6104606111f3565b005b61046a61126d565b6040516104779190613771565b60405180910390f35b61049a60048036038101906104959190614396565b611272565b6040516104a791906143e5565b60405180910390f35b6104ca60048036038101906104c59190613d3a565b6112a1565b6040516104d7919061382c565b60405180910390f35b6104e861130b565b6040516104f59190613c50565b60405180910390f35b6105186004803603810190610513919061442c565b611312565b005b610534600480360381019061052f9190613c14565b611328565b6040516105419190613771565b60405180910390f35b61055261134c565b60405161055f9190613c50565b60405180910390f35b610582600480360381019061057d9190613d3a565b611370565b005b61059e60048036038101906105999190613847565b611391565b6040516105ab9190613771565b60405180910390f35b6105bc6113ac565b6040516105c99190613c50565b60405180910390f35b6105ec60048036038101906105e7919061446c565b6113d0565b6040516105f9919061382c565b60405180910390f35b61061c600480360381019061061791906144ac565b611464565b005b61063860048036038101906106339190614543565b611505565b005b60008073ffffffffffffffffffffffffffffffffffffffff168373ffffffffffffffffffffffffffffffffffffffff16036106aa576040517f08c379a00000000000000000000000000000000000000000000000000000000081526004016106a190614608565b60405180910390fd5b6002600083815260200190815260200160002060008473ffffffffffffffffffffffffffffffffffffffff1673ffffffffffffffffffffffffffffffffffffffff16815260200190815260200160002054905092915050565b600061070e826116b2565b9050919050565b60606004805461072490614657565b80601f016020809104026020016040519081016040528092919081815260200182805461075090614657565b801561079d5780601f106107725761010080835404028352916020019161079d565b820191906000526020600020905b81548152906001019060200180831161078057829003601f168201915b50505050509050919050565b6107da7f9f2df0fed2c77648de5860a4cc508cd0818c85b8b8a1ab4ceeef8d981c8956a66107d5611794565b6112a1565b610819576040517f08c379a0000000000000000000000000000000000000000000000000000000008152600401610810906146fa565b60405180910390fd5b6108258484848461179c565b50505050565b6000806000838152602001908152602001600020600101549050919050565b610852611794565b73ffffffffffffffffffffffffffffffffffffffff168573ffffffffffffffffffffffffffffffffffffffff161480610898575061089785610892611794565b6113d0565b5b6108d7576040517f08c379a00000000000000000000000000000000000000000000000000000000081526004016108ce9061478c565b60405180910390fd5b6108e485858585856119c9565b5050505050565b6108f48261082b565b6108fd81611ced565b6109078383611d01565b505050565b610914611794565b73ffffffffffffffffffffffffffffffffffffffff168173ffffffffffffffffffffffffffffffffffffffff1614610981576040517f08c379a00000000000000000000000000000000000000000000000000000000081526004016109789061481e565b60405180910390fd5b61098b8282611d35565b5050565b6109c07f65d7a28e3265b37a6474929f336521b332c1681b933f6cb9f3376673440d862a6109bb611794565b6112a1565b6109ff576040517f08c379a00000000000000000000000000000000000000000000000000000000081526004016109f6906148b0565b60405180910390fd5b610a07611d69565b565b600a60009054906101000a900473ffffffffffffffffffffffffffffffffffffffff1681565b60608151835114610a75576040517f08c379a0000000000000000000000000000000000000000000000000000000008152600401610a6c90614942565b60405180910390fd5b6000835167ffffffffffffffff811115610a9257610a9161392b565b5b604051908082528060200260200182016040528015610ac05781602001602082028036833780820191505090505b50905060005b8451811015610b3d57610b0d858281518110610ae557610ae4614962565b5b6020026020010151858381518110610b0057610aff614962565b5b602002602001015161063a565b828281518110610b2057610b1f614962565b5b60200260200101818152505080610b36906149c0565b9050610ac6565b508091505092915050565b6000600560009054906101000a900460ff16905090565b60008111610ba2576040517f08c379a0000000000000000000000000000000000000000000000000000000008152600401610b9990614a7a565b60405180910390fd5b60006006836003811115610bb957610bb8614a9a565b5b60048110610bca57610bc9614962565b5b015411610c0c576040517f08c379a0000000000000000000000000000000000000000000000000000000008152600401610c0390614b3b565b60405180910390fd5b6000826003811115610c2157610c20614a9a565b5b90506000826006856003811115610c3b57610c3a614a9a565b5b60048110610c4c57610c4b614962565b5b0154610c589190614b5b565b90506000600a60009054906101000a900473ffffffffffffffffffffffffffffffffffffffff1673ffffffffffffffffffffffffffffffffffffffff1663d63a6ccd6040518163ffffffff1660e01b8152600401602060405180830381865afa158015610cc9573d6000803e3d6000fd5b505050506040513d601f19601f82011682018060405250810190610ced9190614bdb565b90506000600a60009054906101000a900473ffffffffffffffffffffffffffffffffffffffff1673ffffffffffffffffffffffffffffffffffffffff1663db7a46056040518163ffffffff1660e01b8152600401608060405180830381865afa158015610d5e573d6000803e3d6000fd5b505050506040513d601f19601f82011682018060405250810190610d829190614cce565b9050610d8c611794565b73ffffffffffffffffffffffffffffffffffffffff166323b872dd610daf611794565b30866040518463ffffffff1660e01b8152600401610dcf93929190614cfb565b6020604051808303816000875af1158015610dee573d6000803e3d6000fd5b505050506040513d601f19601f82011682018060405250810190610e129190614d47565b5060005b6004811015610efb576000612710600b8360048110610e3857610e37614962565b5b015486610e459190614b5b565b610e4f9190614da3565b90508373ffffffffffffffffffffffffffffffffffffffff1663a9059cbb848460048110610e8057610e7f614962565b5b6020020151836040518363ffffffff1660e01b8152600401610ea3929190614dd4565b6020604051808303816000875af1158015610ec2573d6000803e3d6000fd5b505050506040513d601f19601f82011682018060405250810190610ee69190614d47565b50508080610ef3906149c0565b915050610e16565b50610f1e610f07611794565b858760405180602001604052806000815250611dcc565b505050505050565b610f2e611794565b73ffffffffffffffffffffffffffffffffffffffff168373ffffffffffffffffffffffffffffffffffffffff161480610f745750610f7383610f6e611794565b6113d0565b5b610fb3576040517f08c379a0000000000000000000000000000000000000000000000000000000008152600401610faa9061478c565b60405180910390fd5b610fbe838383611f7d565b505050565b600481565b610ff97f9f2df0fed2c77648de5860a4cc508cd0818c85b8b8a1ab4ceeef8d981c8956a6610ff4611794565b6112a1565b611038576040517f08c379a000000000000000000000000000000000000000000000000000000000815260040161102f906146fa565b60405180910390fd5b61104484848484611dcc565b50505050565b600061105461224d565b9050600073ffffffffffffffffffffffffffffffffffffffff168173ffffffffffffffffffffffffffffffffffffffff16036110c65773ffffffffffffffffffffffffffffffffffffffff7fb53127684a568b3173ae13b9f8a6016e243e63b6e8ee1178d6a717850b5d6103556110ff565b8073ffffffffffffffffffffffffffffffffffffffff163373ffffffffffffffffffffffffffffffffffffffff16146110fe57600080fd5b5b61110885612276565b61111c6000801b611117611794565b612289565b61114d7f9f2df0fed2c77648de5860a4cc508cd0818c85b8b8a1ab4ceeef8d981c8956a6611148611794565b612289565b61117e7f65d7a28e3265b37a6474929f336521b332c1681b933f6cb9f3376673440d862a611179611794565b612289565b83600690600461118f92919061361d565b5082600a60006101000a81548173ffffffffffffffffffffffffffffffffffffffff021916908373ffffffffffffffffffffffffffffffffffffffff1602179055505050505050565b600681600481106111e857600080fd5b016000915090505481565b6112247f65d7a28e3265b37a6474929f336521b332c1681b933f6cb9f3376673440d862a61121f611794565b6112a1565b611263576040517f08c379a000000000000000000000000000000000000000000000000000000000815260040161125a90614e6f565b60405180910390fd5b61126b612297565b565b600481565b600061129982600160008681526020019081526020016000206122fa90919063ffffffff16565b905092915050565b600080600084815260200190815260200160002060000160008373ffffffffffffffffffffffffffffffffffffffff1673ffffffffffffffffffffffffffffffffffffffff16815260200190815260200160002060009054906101000a900460ff16905092915050565b6000801b81565b61132461131d611794565b8383612314565b5050565b600061134560016000848152602001908152602001600020612480565b9050919050565b7f9f2df0fed2c77648de5860a4cc508cd0818c85b8b8a1ab4ceeef8d981c8956a681565b6113798261082b565b61138281611ced565b61138c8383611d35565b505050565b600b81600481106113a157600080fd5b016000915090505481565b7f65d7a28e3265b37a6474929f336521b332c1681b933f6cb9f3376673440d862a81565b6000600360008473ffffffffffffffffffffffffffffffffffffffff1673ffffffffffffffffffffffffffffffffffffffff16815260200190815260200160002060008373ffffffffffffffffffffffffffffffffffffffff1673ffffffffffffffffffffffffffffffffffffffff16815260200190815260200160002060009054906101000a900460ff16905092915050565b61146c611794565b73ffffffffffffffffffffffffffffffffffffffff168573ffffffffffffffffffffffffffffffffffffffff1614806114b257506114b1856114ac611794565b6113d0565b5b6114f1576040517f08c379a00000000000000000000000000000000000000000000000000000000081526004016114e89061478c565b60405180910390fd5b6114fe8585858585612495565b5050505050565b61150d611794565b73ffffffffffffffffffffffffffffffffffffffff168373ffffffffffffffffffffffffffffffffffffffff16148061155357506115528361154d611794565b6113d0565b5b611592576040517f08c379a00000000000000000000000000000000000000000000000000000000081526004016115899061478c565b60405180910390fd5b61159d838383612733565b505050565b6115ac82826112a1565b61167e57600160008084815260200190815260200160002060000160008373ffffffffffffffffffffffffffffffffffffffff1673ffffffffffffffffffffffffffffffffffffffff16815260200190815260200160002060006101000a81548160ff021916908315150217905550611623611794565b73ffffffffffffffffffffffffffffffffffffffff168173ffffffffffffffffffffffffffffffffffffffff16837f2f8788117e7eff1d82e926ec794901d17c78024a50270940304540a733656f0d60405160405180910390a45b5050565b60006116aa836000018373ffffffffffffffffffffffffffffffffffffffff1660001b61297b565b905092915050565b60007fd9b67a26000000000000000000000000000000000000000000000000000000007bffffffffffffffffffffffffffffffffffffffffffffffffffffffff1916827bffffffffffffffffffffffffffffffffffffffffffffffffffffffff1916148061177d57507f0e89341c000000000000000000000000000000000000000000000000000000007bffffffffffffffffffffffffffffffffffffffffffffffffffffffff1916827bffffffffffffffffffffffffffffffffffffffffffffffffffffffff1916145b8061178d575061178c826129eb565b5b9050919050565b600033905090565b600073ffffffffffffffffffffffffffffffffffffffff168473ffffffffffffffffffffffffffffffffffffffff160361180b576040517f08c379a000000000000000000000000000000000000000000000000000000000815260040161180290614f01565b60405180910390fd5b815183511461184f576040517f08c379a000000000000000000000000000000000000000000000000000000000815260040161184690614f93565b60405180910390fd5b6000611859611794565b905061186a81600087878787612a65565b60005b84518110156119245783818151811061188957611888614962565b5b6020026020010151600260008784815181106118a8576118a7614962565b5b6020026020010151815260200190815260200160002060008873ffffffffffffffffffffffffffffffffffffffff1673ffffffffffffffffffffffffffffffffffffffff168152602001908152602001600020600082825461190a9190614fb3565b92505081905550808061191c906149c0565b91505061186d565b508473ffffffffffffffffffffffffffffffffffffffff16600073ffffffffffffffffffffffffffffffffffffffff168273ffffffffffffffffffffffffffffffffffffffff167f4a39dc06d4c0dbc64b70af90fd698a233a518aa5d07e595d983b8c0526c8f7fb878760405161199c929190614fe7565b60405180910390a46119b381600087878787612a7b565b6119c281600087878787612a83565b5050505050565b8151835114611a0d576040517f08c379a0000000000000000000000000000000000000000000000000000000008152600401611a0490614f93565b60405180910390fd5b600073ffffffffffffffffffffffffffffffffffffffff168473ffffffffffffffffffffffffffffffffffffffff1603611a7c576040517f08c379a0000000000000000000000000000000000000000000000000000000008152600401611a7390615090565b60405180910390fd5b6000611a86611794565b9050611a96818787878787612a65565b60005b8451811015611c4a576000858281518110611ab757611ab6614962565b5b602002602001015190506000858381518110611ad657611ad5614962565b5b6020026020010151905060006002600084815260200190815260200160002060008b73ffffffffffffffffffffffffffffffffffffffff1673ffffffffffffffffffffffffffffffffffffffff16815260200190815260200160002054905081811015611b78576040517f08c379a0000000000000000000000000000000000000000000000000000000008152600401611b6f90615122565b60405180910390fd5b8181036002600085815260200190815260200160002060008c73ffffffffffffffffffffffffffffffffffffffff1673ffffffffffffffffffffffffffffffffffffffff16815260200190815260200160002081905550816002600085815260200190815260200160002060008b73ffffffffffffffffffffffffffffffffffffffff1673ffffffffffffffffffffffffffffffffffffffff1681526020019081526020016000206000828254611c2f9190614fb3565b9250508190555050505080611c43906149c0565b9050611a99565b508473ffffffffffffffffffffffffffffffffffffffff168673ffffffffffffffffffffffffffffffffffffffff168273ffffffffffffffffffffffffffffffffffffffff167f4a39dc06d4c0dbc64b70af90fd698a233a518aa5d07e595d983b8c0526c8f7fb8787604051611cc1929190614fe7565b60405180910390a4611cd7818787878787612a7b565b611ce5818787878787612a83565b505050505050565b611cfe81611cf9611794565b612c5a565b50565b611d0b82826115a2565b611d30816001600085815260200190815260200160002061168290919063ffffffff16565b505050565b611d3f8282612cdf565b611d648160016000858152602001908152602001600020612dc090919063ffffffff16565b505050565b611d71612df0565b6000600560006101000a81548160ff0219169083151502179055507f5db9ee0a495bf2e6ff9c91a7834c1ba4fdd244a5e8aa4e537bd38aeae4b073aa611db5611794565b604051611dc291906143e5565b60405180910390a1565b600073ffffffffffffffffffffffffffffffffffffffff168473ffffffffffffffffffffffffffffffffffffffff1603611e3b576040517f08c379a0000000000000000000000000000000000000000000000000000000008152600401611e3290614f01565b60405180910390fd5b6000611e45611794565b90506000611e5285612e39565b90506000611e5f85612e39565b9050611e7083600089858589612a65565b846002600088815260200190815260200160002060008973ffffffffffffffffffffffffffffffffffffffff1673ffffffffffffffffffffffffffffffffffffffff1681526020019081526020016000206000828254611ed09190614fb3565b925050819055508673ffffffffffffffffffffffffffffffffffffffff16600073ffffffffffffffffffffffffffffffffffffffff168473ffffffffffffffffffffffffffffffffffffffff167fc3d58168c5ae7397731d063d5bbf3d657854427343f4c083240f7aacaa2d0f628989604051611f4e929190615142565b60405180910390a4611f6583600089858589612a7b565b611f7483600089898989612eb3565b50505050505050565b600073ffffffffffffffffffffffffffffffffffffffff168373ffffffffffffffffffffffffffffffffffffffff1603611fec576040517f08c379a0000000000000000000000000000000000000000000000000000000008152600401611fe3906151dd565b60405180910390fd5b8051825114612030576040517f08c379a000000000000000000000000000000000000000000000000000000000815260040161202790614f93565b60405180910390fd5b600061203a611794565b905061205a81856000868660405180602001604052806000815250612a65565b60005b83518110156121a957600084828151811061207b5761207a614962565b5b60200260200101519050600084838151811061209a57612099614962565b5b6020026020010151905060006002600084815260200190815260200160002060008973ffffffffffffffffffffffffffffffffffffffff1673ffffffffffffffffffffffffffffffffffffffff1681526020019081526020016000205490508181101561213c576040517f08c379a00000000000000000000000000000000000000000000000000000000081526004016121339061526f565b60405180910390fd5b8181036002600085815260200190815260200160002060008a73ffffffffffffffffffffffffffffffffffffffff1673ffffffffffffffffffffffffffffffffffffffff1681526020019081526020016000208190555050505080806121a1906149c0565b91505061205d565b50600073ffffffffffffffffffffffffffffffffffffffff168473ffffffffffffffffffffffffffffffffffffffff168273ffffffffffffffffffffffffffffffffffffffff167f4a39dc06d4c0dbc64b70af90fd698a233a518aa5d07e595d983b8c0526c8f7fb8686604051612221929190614fe7565b60405180910390a461224781856000868660405180602001604052806000815250612a7b565b50505050565b60007fb53127684a568b3173ae13b9f8a6016e243e63b6e8ee1178d6a717850b5d610354905090565b80600490816122859190615431565b5050565b6122938282611d01565b5050565b61229f61308a565b6001600560006101000a81548160ff0219169083151502179055507f62e78cea01bee320cd4e420270b5ea74000d11b0c9f74754ebdbfc544b05a2586122e3611794565b6040516122f091906143e5565b60405180910390a1565b600061230983600001836130d4565b60001c905092915050565b8173ffffffffffffffffffffffffffffffffffffffff168373ffffffffffffffffffffffffffffffffffffffff1603612382576040517f08c379a000000000000000000000000000000000000000000000000000000000815260040161237990615575565b60405180910390fd5b80600360008573ffffffffffffffffffffffffffffffffffffffff1673ffffffffffffffffffffffffffffffffffffffff16815260200190815260200160002060008473ffffffffffffffffffffffffffffffffffffffff1673ffffffffffffffffffffffffffffffffffffffff16815260200190815260200160002060006101000a81548160ff0219169083151502179055508173ffffffffffffffffffffffffffffffffffffffff168373ffffffffffffffffffffffffffffffffffffffff167f17307eab39ab6107e8899845ad3d59bd9653f200f220920489ca2b5937696c3183604051612473919061382c565b60405180910390a3505050565b600061248e826000016130ff565b9050919050565b600073ffffffffffffffffffffffffffffffffffffffff168473ffffffffffffffffffffffffffffffffffffffff1603612504576040517f08c379a00000000000000000000000000000000000000000000000000000000081526004016124fb90615090565b60405180910390fd5b600061250e611794565b9050600061251b85612e39565b9050600061252885612e39565b9050612538838989858589612a65565b60006002600088815260200190815260200160002060008a73ffffffffffffffffffffffffffffffffffffffff1673ffffffffffffffffffffffffffffffffffffffff168152602001908152602001600020549050858110156125d0576040517f08c379a00000000000000000000000000000000000000000000000000000000081526004016125c790615122565b60405180910390fd5b8581036002600089815260200190815260200160002060008b73ffffffffffffffffffffffffffffffffffffffff1673ffffffffffffffffffffffffffffffffffffffff16815260200190815260200160002081905550856002600089815260200190815260200160002060008a73ffffffffffffffffffffffffffffffffffffffff1673ffffffffffffffffffffffffffffffffffffffff16815260200190815260200160002060008282546126879190614fb3565b925050819055508773ffffffffffffffffffffffffffffffffffffffff168973ffffffffffffffffffffffffffffffffffffffff168573ffffffffffffffffffffffffffffffffffffffff167fc3d58168c5ae7397731d063d5bbf3d657854427343f4c083240f7aacaa2d0f628a8a604051612704929190615142565b60405180910390a461271a848a8a86868a612a7b565b612728848a8a8a8a8a612eb3565b505050505050505050565b600073ffffffffffffffffffffffffffffffffffffffff168373ffffffffffffffffffffffffffffffffffffffff16036127a2576040517f08c379a0000000000000000000000000000000000000000000000000000000008152600401612799906151dd565b60405180910390fd5b60006127ac611794565b905060006127b984612e39565b905060006127c684612e39565b90506127e683876000858560405180602001604052806000815250612a65565b60006002600087815260200190815260200160002060008873ffffffffffffffffffffffffffffffffffffffff1673ffffffffffffffffffffffffffffffffffffffff1681526020019081526020016000205490508481101561287e576040517f08c379a00000000000000000000000000000000000000000000000000000000081526004016128759061526f565b60405180910390fd5b8481036002600088815260200190815260200160002060008973ffffffffffffffffffffffffffffffffffffffff1673ffffffffffffffffffffffffffffffffffffffff16815260200190815260200160002081905550600073ffffffffffffffffffffffffffffffffffffffff168773ffffffffffffffffffffffffffffffffffffffff168573ffffffffffffffffffffffffffffffffffffffff167fc3d58168c5ae7397731d063d5bbf3d657854427343f4c083240f7aacaa2d0f62898960405161294c929190615142565b60405180910390a461297284886000868660405180602001604052806000815250612a7b565b50505050505050565b60006129878383613110565b6129e05782600001829080600181540180825580915050600190039060005260206000200160009091909190915055826000018054905083600101600084815260200190815260200160002081905550600190506129e5565b600090505b92915050565b60007f5a05180f000000000000000000000000000000000000000000000000000000007bffffffffffffffffffffffffffffffffffffffffffffffffffffffff1916827bffffffffffffffffffffffffffffffffffffffffffffffffffffffff19161480612a5e5750612a5d82613133565b5b9050919050565b612a738686868686866131ad565b505050505050565b505050505050565b612aa28473ffffffffffffffffffffffffffffffffffffffff1661320b565b15612c52578373ffffffffffffffffffffffffffffffffffffffff1663bc197c8187878686866040518663ffffffff1660e01b8152600401612ae89594939291906155ea565b6020604051808303816000875af1925050508015612b2457506040513d601f19601f82011682018060405250810190612b219190615667565b60015b612bc957612b306156a1565b806308c379a003612b8c5750612b446156c3565b80612b4f5750612b8e565b806040517f08c379a0000000000000000000000000000000000000000000000000000000008152600401612b839190613904565b60405180910390fd5b505b6040517f08c379a0000000000000000000000000000000000000000000000000000000008152600401612bc0906157c5565b60405180910390fd5b63bc197c8160e01b7bffffffffffffffffffffffffffffffffffffffffffffffffffffffff1916817bffffffffffffffffffffffffffffffffffffffffffffffffffffffff191614612c50576040517f08c379a0000000000000000000000000000000000000000000000000000000008152600401612c4790615857565b60405180910390fd5b505b505050505050565b612c6482826112a1565b612cdb57612c718161322e565b612c7f8360001c602061325b565b604051602001612c9092919061594b565b6040516020818303038152906040526040517f08c379a0000000000000000000000000000000000000000000000000000000008152600401612cd29190613904565b60405180910390fd5b5050565b612ce982826112a1565b15612dbc57600080600084815260200190815260200160002060000160008373ffffffffffffffffffffffffffffffffffffffff1673ffffffffffffffffffffffffffffffffffffffff16815260200190815260200160002060006101000a81548160ff021916908315150217905550612d61611794565b73ffffffffffffffffffffffffffffffffffffffff168173ffffffffffffffffffffffffffffffffffffffff16837ff6391f5c32d9c69d2a47ea670b442974b53935d1edc7fd64eb21e047a839171b60405160405180910390a45b5050565b6000612de8836000018373ffffffffffffffffffffffffffffffffffffffff1660001b613497565b905092915050565b612df8610b48565b612e37576040517f08c379a0000000000000000000000000000000000000000000000000000000008152600401612e2e906159d1565b60405180910390fd5b565b60606000600167ffffffffffffffff811115612e5857612e5761392b565b5b604051908082528060200260200182016040528015612e865781602001602082028036833780820191505090505b5090508281600081518110612e9e57612e9d614962565b5b60200260200101818152505080915050919050565b612ed28473ffffffffffffffffffffffffffffffffffffffff1661320b565b15613082578373ffffffffffffffffffffffffffffffffffffffff1663f23a6e6187878686866040518663ffffffff1660e01b8152600401612f189594939291906159f1565b6020604051808303816000875af1925050508015612f5457506040513d601f19601f82011682018060405250810190612f519190615667565b60015b612ff957612f606156a1565b806308c379a003612fbc5750612f746156c3565b80612f7f5750612fbe565b806040517f08c379a0000000000000000000000000000000000000000000000000000000008152600401612fb39190613904565b60405180910390fd5b505b6040517f08c379a0000000000000000000000000000000000000000000000000000000008152600401612ff0906157c5565b60405180910390fd5b63f23a6e6160e01b7bffffffffffffffffffffffffffffffffffffffffffffffffffffffff1916817bffffffffffffffffffffffffffffffffffffffffffffffffffffffff191614613080576040517f08c379a000000000000000000000000000000000000000000000000000000000815260040161307790615857565b60405180910390fd5b505b505050505050565b613092610b48565b156130d2576040517f08c379a00000000000000000000000000000000000000000000000000000000081526004016130c990615a97565b60405180910390fd5b565b60008260000182815481106130ec576130eb614962565b5b9060005260206000200154905092915050565b600081600001805490509050919050565b600080836001016000848152602001908152602001600020541415905092915050565b60007f7965db0b000000000000000000000000000000000000000000000000000000007bffffffffffffffffffffffffffffffffffffffffffffffffffffffff1916827bffffffffffffffffffffffffffffffffffffffffffffffffffffffff191614806131a657506131a5826135ab565b5b9050919050565b6131bb868686868686613615565b6131c3610b48565b15613203576040517f08c379a00000000000000000000000000000000000000000000000000000000081526004016131fa90615b29565b60405180910390fd5b505050505050565b6000808273ffffffffffffffffffffffffffffffffffffffff163b119050919050565b60606132548273ffffffffffffffffffffffffffffffffffffffff16601460ff1661325b565b9050919050565b60606000600283600261326e9190614b5b565b6132789190614fb3565b67ffffffffffffffff8111156132915761329061392b565b5b6040519080825280601f01601f1916602001820160405280156132c35781602001600182028036833780820191505090505b5090507f3000000000000000000000000000000000000000000000000000000000000000816000815181106132fb576132fa614962565b5b60200101907effffffffffffffffffffffffffffffffffffffffffffffffffffffffffffff1916908160001a9053507f78000000000000000000000000000000000000000000000000000000000000008160018151811061335f5761335e614962565b5b60200101907effffffffffffffffffffffffffffffffffffffffffffffffffffffffffffff1916908160001a9053506000600184600261339f9190614b5b565b6133a99190614fb3565b90505b6001811115613449577f3031323334353637383961626364656600000000000000000000000000000000600f8616601081106133eb576133ea614962565b5b1a60f81b82828151811061340257613401614962565b5b60200101907effffffffffffffffffffffffffffffffffffffffffffffffffffffffffffff1916908160001a905350600485901c94508061344290615b49565b90506133ac565b506000841461348d576040517f08c379a000000000000000000000000000000000000000000000000000000000815260040161348490615bbe565b60405180910390fd5b8091505092915050565b6000808360010160008481526020019081526020016000205490506000811461359f5760006001826134c99190615bde565b90506000600186600001805490506134e19190615bde565b905081811461355057600086600001828154811061350257613501614962565b5b906000526020600020015490508087600001848154811061352657613525614962565b5b90600052602060002001819055508387600101600083815260200190815260200160002081905550505b8560000180548061356457613563615c12565b5b6001900381819060005260206000200160009055905585600101600086815260200190815260200160002060009055600193505050506135a5565b60009150505b92915050565b60007f01ffc9a7000000000000000000000000000000000000000000000000000000007bffffffffffffffffffffffffffffffffffffffffffffffffffffffff1916827bffffffffffffffffffffffffffffffffffffffffffffffffffffffff1916149050919050565b505050505050565b826004810192821561364c579160200282015b8281111561364b578251825591602001919060010190613630565b5b509050613659919061365d565b5090565b5b8082111561367657600081600090555060010161365e565b5090565b6000604051905090565b600080fd5b600080fd5b600073ffffffffffffffffffffffffffffffffffffffff82169050919050565b60006136b98261368e565b9050919050565b6136c9816136ae565b81146136d457600080fd5b50565b6000813590506136e6816136c0565b92915050565b6000819050919050565b6136ff816136ec565b811461370a57600080fd5b50565b60008135905061371c816136f6565b92915050565b6000806040838503121561373957613738613684565b5b6000613747858286016136d7565b92505060206137588582860161370d565b9150509250929050565b61376b816136ec565b82525050565b60006020820190506137866000830184613762565b92915050565b60007fffffffff0000000000000000000000000000000000000000000000000000000082169050919050565b6137c18161378c565b81146137cc57600080fd5b50565b6000813590506137de816137b8565b92915050565b6000602082840312156137fa576137f9613684565b5b6000613808848285016137cf565b91505092915050565b60008115159050919050565b61382681613811565b82525050565b6000602082019050613841600083018461381d565b92915050565b60006020828403121561385d5761385c613684565b5b600061386b8482850161370d565b91505092915050565b600081519050919050565b600082825260208201905092915050565b60005b838110156138ae578082015181840152602081019050613893565b60008484015250505050565b6000601f19601f8301169050919050565b60006138d682613874565b6138e0818561387f565b93506138f0818560208601613890565b6138f9816138ba565b840191505092915050565b6000602082019050818103600083015261391e81846138cb565b905092915050565b600080fd5b7f4e487b7100000000000000000000000000000000000000000000000000000000600052604160045260246000fd5b613963826138ba565b810181811067ffffffffffffffff821117156139825761398161392b565b5b80604052505050565b600061399561367a565b90506139a1828261395a565b919050565b600067ffffffffffffffff8211156139c1576139c061392b565b5b602082029050602081019050919050565b600080fd5b60006139ea6139e5846139a6565b61398b565b90508083825260208201905060208402830185811115613a0d57613a0c6139d2565b5b835b81811015613a365780613a22888261370d565b845260208401935050602081019050613a0f565b5050509392505050565b600082601f830112613a5557613a54613926565b5b8135613a658482602086016139d7565b91505092915050565b600080fd5b600067ffffffffffffffff821115613a8e57613a8d61392b565b5b613a97826138ba565b9050602081019050919050565b82818337600083830152505050565b6000613ac6613ac184613a73565b61398b565b905082815260208101848484011115613ae257613ae1613a6e565b5b613aed848285613aa4565b509392505050565b600082601f830112613b0a57613b09613926565b5b8135613b1a848260208601613ab3565b91505092915050565b60008060008060808587031215613b3d57613b3c613684565b5b6000613b4b878288016136d7565b945050602085013567ffffffffffffffff811115613b6c57613b6b613689565b5b613b7887828801613a40565b935050604085013567ffffffffffffffff811115613b9957613b98613689565b5b613ba587828801613a40565b925050606085013567ffffffffffffffff811115613bc657613bc5613689565b5b613bd287828801613af5565b91505092959194509250565b6000819050919050565b613bf181613bde565b8114613bfc57600080fd5b50565b600081359050613c0e81613be8565b92915050565b600060208284031215613c2a57613c29613684565b5b6000613c3884828501613bff565b91505092915050565b613c4a81613bde565b82525050565b6000602082019050613c656000830184613c41565b92915050565b600080600080600060a08688031215613c8757613c86613684565b5b6000613c95888289016136d7565b9550506020613ca6888289016136d7565b945050604086013567ffffffffffffffff811115613cc757613cc6613689565b5b613cd388828901613a40565b935050606086013567ffffffffffffffff811115613cf457613cf3613689565b5b613d0088828901613a40565b925050608086013567ffffffffffffffff811115613d2157613d20613689565b5b613d2d88828901613af5565b9150509295509295909350565b60008060408385031215613d5157613d50613684565b5b6000613d5f85828601613bff565b9250506020613d70858286016136d7565b9150509250929050565b6000819050919050565b6000613d9f613d9a613d958461368e565b613d7a565b61368e565b9050919050565b6000613db182613d84565b9050919050565b6000613dc382613da6565b9050919050565b613dd381613db8565b82525050565b6000602082019050613dee6000830184613dca565b92915050565b600067ffffffffffffffff821115613e0f57613e0e61392b565b5b602082029050602081019050919050565b6000613e33613e2e84613df4565b61398b565b90508083825260208201905060208402830185811115613e5657613e556139d2565b5b835b81811015613e7f5780613e6b88826136d7565b845260208401935050602081019050613e58565b5050509392505050565b600082601f830112613e9e57613e9d613926565b5b8135613eae848260208601613e20565b91505092915050565b60008060408385031215613ece57613ecd613684565b5b600083013567ffffffffffffffff811115613eec57613eeb613689565b5b613ef885828601613e89565b925050602083013567ffffffffffffffff811115613f1957613f18613689565b5b613f2585828601613a40565b9150509250929050565b600081519050919050565b600082825260208201905092915050565b6000819050602082019050919050565b613f64816136ec565b82525050565b6000613f768383613f5b565b60208301905092915050565b6000602082019050919050565b6000613f9a82613f2f565b613fa48185613f3a565b9350613faf83613f4b565b8060005b83811015613fe0578151613fc78882613f6a565b9750613fd283613f82565b925050600181019050613fb3565b5085935050505092915050565b600060208201905081810360008301526140078184613f8f565b905092915050565b6004811061401c57600080fd5b50565b60008135905061402e8161400f565b92915050565b6000806040838503121561404b5761404a613684565b5b60006140598582860161401f565b925050602061406a8582860161370d565b9150509250929050565b60008060006060848603121561408d5761408c613684565b5b600061409b868287016136d7565b935050602084013567ffffffffffffffff8111156140bc576140bb613689565b5b6140c886828701613a40565b925050604084013567ffffffffffffffff8111156140e9576140e8613689565b5b6140f586828701613a40565b9150509250925092565b6000806000806080858703121561411957614118613684565b5b6000614127878288016136d7565b94505060206141388782880161370d565b93505060406141498782880161370d565b925050606085013567ffffffffffffffff81111561416a57614169613689565b5b61417687828801613af5565b91505092959194509250565b600067ffffffffffffffff82111561419d5761419c61392b565b5b6141a6826138ba565b9050602081019050919050565b60006141c66141c184614182565b61398b565b9050828152602081018484840111156141e2576141e1613a6e565b5b6141ed848285613aa4565b509392505050565b600082601f83011261420a57614209613926565b5b813561421a8482602086016141b3565b91505092915050565b600067ffffffffffffffff82111561423e5761423d61392b565b5b602082029050919050565b600061425c61425784614223565b61398b565b90508060208402830185811115614276576142756139d2565b5b835b8181101561429f578061428b888261370d565b845260208401935050602081019050614278565b5050509392505050565b600082601f8301126142be576142bd613926565b5b60046142cb848285614249565b91505092915050565b60006142df826136ae565b9050919050565b6142ef816142d4565b81146142fa57600080fd5b50565b60008135905061430c816142e6565b92915050565b600080600080610140858703121561432d5761432c613684565b5b600085013567ffffffffffffffff81111561434b5761434a613689565b5b614357878288016141f5565b9450506020614368878288016142a9565b93505060a0614379878288016142fd565b92505060c061438a878288016142a9565b91505092959194509250565b600080604083850312156143ad576143ac613684565b5b60006143bb85828601613bff565b92505060206143cc8582860161370d565b9150509250929050565b6143df816136ae565b82525050565b60006020820190506143fa60008301846143d6565b92915050565b61440981613811565b811461441457600080fd5b50565b60008135905061442681614400565b92915050565b6000806040838503121561444357614442613684565b5b6000614451858286016136d7565b925050602061446285828601614417565b9150509250929050565b6000806040838503121561448357614482613684565b5b6000614491858286016136d7565b92505060206144a2858286016136d7565b9150509250929050565b600080600080600060a086880312156144c8576144c7613684565b5b60006144d6888289016136d7565b95505060206144e7888289016136d7565b94505060406144f88882890161370d565b93505060606145098882890161370d565b925050608086013567ffffffffffffffff81111561452a57614529613689565b5b61453688828901613af5565b9150509295509295909350565b60008060006060848603121561455c5761455b613684565b5b600061456a868287016136d7565b935050602061457b8682870161370d565b925050604061458c8682870161370d565b9150509250925092565b7f455243313135353a2061646472657373207a65726f206973206e6f742061207660008201527f616c6964206f776e657200000000000000000000000000000000000000000000602082015250565b60006145f2602a8361387f565b91506145fd82614596565b604082019050919050565b60006020820190508181036000830152614621816145e5565b9050919050565b7f4e487b7100000000000000000000000000000000000000000000000000000000600052602260045260246000fd5b6000600282049050600182168061466f57607f821691505b60208210810361468257614681614628565b5b50919050565b7f455243313135355072657365744d696e7465725061757365723a206d7573742060008201527f68617665206d696e74657220726f6c6520746f206d696e740000000000000000602082015250565b60006146e460388361387f565b91506146ef82614688565b604082019050919050565b60006020820190508181036000830152614713816146d7565b9050919050565b7f455243313135353a2063616c6c6572206973206e6f7420746f6b656e206f776e60008201527f6572206f7220617070726f766564000000000000000000000000000000000000602082015250565b6000614776602e8361387f565b91506147818261471a565b604082019050919050565b600060208201905081810360008301526147a581614769565b9050919050565b7f416363657373436f6e74726f6c3a2063616e206f6e6c792072656e6f756e636560008201527f20726f6c657320666f722073656c660000000000000000000000000000000000602082015250565b6000614808602f8361387f565b9150614813826147ac565b604082019050919050565b60006020820190508181036000830152614837816147fb565b9050919050565b7f455243313135355072657365744d696e7465725061757365723a206d7573742060008201527f686176652070617573657220726f6c6520746f20756e70617573650000000000602082015250565b600061489a603b8361387f565b91506148a58261483e565b604082019050919050565b600060208201905081810360008301526148c98161488d565b9050919050565b7f455243313135353a206163636f756e747320616e6420696473206c656e67746860008201527f206d69736d617463680000000000000000000000000000000000000000000000602082015250565b600061492c60298361387f565b9150614937826148d0565b604082019050919050565b6000602082019050818103600083015261495b8161491f565b9050919050565b7f4e487b7100000000000000000000000000000000000000000000000000000000600052603260045260246000fd5b7f4e487b7100000000000000000000000000000000000000000000000000000000600052601160045260246000fd5b60006149cb826136ec565b91507fffffffffffffffffffffffffffffffffffffffffffffffffffffffffffffffff82036149fd576149fc614991565b5b600182019050919050565b7f455243313135355072657365744d696e7465725061757365723a20616d6f756e60008201527f74206d7573742062652067726561746572207468616e20300000000000000000602082015250565b6000614a6460388361387f565b9150614a6f82614a08565b604082019050919050565b60006020820190508181036000830152614a9381614a57565b9050919050565b7f4e487b7100000000000000000000000000000000000000000000000000000000600052602160045260246000fd5b7f455243313135355072657365744d696e7465725061757365723a20746965722060008201527f7072696365206d7573742062652067726561746572207468616e203000000000602082015250565b6000614b25603c8361387f565b9150614b3082614ac9565b604082019050919050565b60006020820190508181036000830152614b5481614b18565b9050919050565b6000614b66826136ec565b9150614b71836136ec565b9250828202614b7f816136ec565b91508282048414831517614b9657614b95614991565b5b5092915050565b6000614ba8826136ae565b9050919050565b614bb881614b9d565b8114614bc357600080fd5b50565b600081519050614bd581614baf565b92915050565b600060208284031215614bf157614bf0613684565b5b6000614bff84828501614bc6565b91505092915050565b600067ffffffffffffffff821115614c2357614c2261392b565b5b602082029050919050565b600081519050614c3d816136c0565b92915050565b6000614c56614c5184614c08565b61398b565b90508060208402830185811115614c7057614c6f6139d2565b5b835b81811015614c995780614c858882614c2e565b845260208401935050602081019050614c72565b5050509392505050565b600082601f830112614cb857614cb7613926565b5b6004614cc5848285614c43565b91505092915050565b600060808284031215614ce457614ce3613684565b5b6000614cf284828501614ca3565b91505092915050565b6000606082019050614d1060008301866143d6565b614d1d60208301856143d6565b614d2a6040830184613762565b949350505050565b600081519050614d4181614400565b92915050565b600060208284031215614d5d57614d5c613684565b5b6000614d6b84828501614d32565b91505092915050565b7f4e487b7100000000000000000000000000000000000000000000000000000000600052601260045260246000fd5b6000614dae826136ec565b9150614db9836136ec565b925082614dc957614dc8614d74565b5b828204905092915050565b6000604082019050614de960008301856143d6565b614df66020830184613762565b9392505050565b7f455243313135355072657365744d696e7465725061757365723a206d7573742060008201527f686176652070617573657220726f6c6520746f20706175736500000000000000602082015250565b6000614e5960398361387f565b9150614e6482614dfd565b604082019050919050565b60006020820190508181036000830152614e8881614e4c565b9050919050565b7f455243313135353a206d696e7420746f20746865207a65726f2061646472657360008201527f7300000000000000000000000000000000000000000000000000000000000000602082015250565b6000614eeb60218361387f565b9150614ef682614e8f565b604082019050919050565b60006020820190508181036000830152614f1a81614ede565b9050919050565b7f455243313135353a2069647320616e6420616d6f756e7473206c656e6774682060008201527f6d69736d61746368000000000000000000000000000000000000000000000000602082015250565b6000614f7d60288361387f565b9150614f8882614f21565b604082019050919050565b60006020820190508181036000830152614fac81614f70565b9050919050565b6000614fbe826136ec565b9150614fc9836136ec565b9250828201905080821115614fe157614fe0614991565b5b92915050565b600060408201905081810360008301526150018185613f8f565b905081810360208301526150158184613f8f565b90509392505050565b7f455243313135353a207472616e7366657220746f20746865207a65726f20616460008201527f6472657373000000000000000000000000000000000000000000000000000000602082015250565b600061507a60258361387f565b91506150858261501e565b604082019050919050565b600060208201905081810360008301526150a98161506d565b9050919050565b7f455243313135353a20696e73756666696369656e742062616c616e636520666f60008201527f72207472616e7366657200000000000000000000000000000000000000000000602082015250565b600061510c602a8361387f565b9150615117826150b0565b604082019050919050565b6000602082019050818103600083015261513b816150ff565b9050919050565b60006040820190506151576000830185613762565b6151646020830184613762565b9392505050565b7f455243313135353a206275726e2066726f6d20746865207a65726f206164647260008201527f6573730000000000000000000000000000000000000000000000000000000000602082015250565b60006151c760238361387f565b91506151d28261516b565b604082019050919050565b600060208201905081810360008301526151f6816151ba565b9050919050565b7f455243313135353a206275726e20616d6f756e7420657863656564732062616c60008201527f616e636500000000000000000000000000000000000000000000000000000000602082015250565b600061525960248361387f565b9150615264826151fd565b604082019050919050565b600060208201905081810360008301526152888161524c565b9050919050565b60008190508160005260206000209050919050565b60006020601f8301049050919050565b600082821b905092915050565b6000600883026152f17fffffffffffffffffffffffffffffffffffffffffffffffffffffffffffffffff826152b4565b6152fb86836152b4565b95508019841693508086168417925050509392505050565b600061532e615329615324846136ec565b613d7a565b6136ec565b9050919050565b6000819050919050565b61534883615313565b61535c61535482615335565b8484546152c1565b825550505050565b600090565b615371615364565b61537c81848461533f565b505050565b5b818110156153a057615395600082615369565b600181019050615382565b5050565b601f8211156153e5576153b68161528f565b6153bf846152a4565b810160208510156153ce578190505b6153e26153da856152a4565b830182615381565b50505b505050565b600082821c905092915050565b6000615408600019846008026153ea565b1980831691505092915050565b600061542183836153f7565b9150826002028217905092915050565b61543a82613874565b67ffffffffffffffff8111156154535761545261392b565b5b61545d8254614657565b6154688282856153a4565b600060209050601f83116001811461549b5760008415615489578287015190505b6154938582615415565b8655506154fb565b601f1984166154a98661528f565b60005b828110156154d1578489015182556001820191506020850194506020810190506154ac565b868310156154ee57848901516154ea601f8916826153f7565b8355505b6001600288020188555050505b505050505050565b7f455243313135353a2073657474696e6720617070726f76616c2073746174757360008201527f20666f722073656c660000000000000000000000000000000000000000000000602082015250565b600061555f60298361387f565b915061556a82615503565b604082019050919050565b6000602082019050818103600083015261558e81615552565b9050919050565b600081519050919050565b600082825260208201905092915050565b60006155bc82615595565b6155c681856155a0565b93506155d6818560208601613890565b6155df816138ba565b840191505092915050565b600060a0820190506155ff60008301886143d6565b61560c60208301876143d6565b818103604083015261561e8186613f8f565b905081810360608301526156328185613f8f565b9050818103608083015261564681846155b1565b90509695505050505050565b600081519050615661816137b8565b92915050565b60006020828403121561567d5761567c613684565b5b600061568b84828501615652565b91505092915050565b60008160e01c9050919050565b600060033d11156156c05760046000803e6156bd600051615694565b90505b90565b600060443d10615750576156d561367a565b60043d036004823e80513d602482011167ffffffffffffffff821117156156fd575050615750565b808201805167ffffffffffffffff81111561571b5750505050615750565b80602083010160043d038501811115615738575050505050615750565b6157478260200185018661395a565b82955050505050505b90565b7f455243313135353a207472616e7366657220746f206e6f6e2d4552433131353560008201527f526563656976657220696d706c656d656e746572000000000000000000000000602082015250565b60006157af60348361387f565b91506157ba82615753565b604082019050919050565b600060208201905081810360008301526157de816157a2565b9050919050565b7f455243313135353a204552433131353552656365697665722072656a6563746560008201527f6420746f6b656e73000000000000000000000000000000000000000000000000602082015250565b600061584160288361387f565b915061584c826157e5565b604082019050919050565b6000602082019050818103600083015261587081615834565b9050919050565b600081905092915050565b7f416363657373436f6e74726f6c3a206163636f756e7420000000000000000000600082015250565b60006158b8601783615877565b91506158c382615882565b601782019050919050565b60006158d982613874565b6158e38185615877565b93506158f3818560208601613890565b80840191505092915050565b7f206973206d697373696e6720726f6c6520000000000000000000000000000000600082015250565b6000615935601183615877565b9150615940826158ff565b601182019050919050565b6000615956826158ab565b915061596282856158ce565b915061596d82615928565b915061597982846158ce565b91508190509392505050565b7f5061757361626c653a206e6f7420706175736564000000000000000000000000600082015250565b60006159bb60148361387f565b91506159c682615985565b602082019050919050565b600060208201905081810360008301526159ea816159ae565b9050919050565b600060a082019050615a0660008301886143d6565b615a1360208301876143d6565b615a206040830186613762565b615a2d6060830185613762565b8181036080830152615a3f81846155b1565b90509695505050505050565b7f5061757361626c653a2070617573656400000000000000000000000000000000600082015250565b6000615a8160108361387f565b9150615a8c82615a4b565b602082019050919050565b60006020820190508181036000830152615ab081615a74565b9050919050565b7f455243313135355061757361626c653a20746f6b656e207472616e736665722060008201527f7768696c65207061757365640000000000000000000000000000000000000000602082015250565b6000615b13602c8361387f565b9150615b1e82615ab7565b604082019050919050565b60006020820190508181036000830152615b4281615b06565b9050919050565b6000615b54826136ec565b915060008203615b6757615b66614991565b5b600182039050919050565b7f537472696e67733a20686578206c656e67746820696e73756666696369656e74600082015250565b6000615ba860208361387f565b9150615bb382615b72565b602082019050919050565b60006020820190508181036000830152615bd781615b9b565b9050919050565b6000615be9826136ec565b9150615bf4836136ec565b9250828203905081811115615c0c57615c0b614991565b5b92915050565b7f4e487b7100000000000000000000000000000000000000000000000000000000600052603160045260246000fdfea2646970667358221220e10634ed0f4cddede44beca624bc918413fa3cdca06098cd042d07e28ba09edd64736f6c63430008110033",
  "devdoc": {
    "author": "crypt0grapher",
    "kind": "dev",
    "methods": {
      "balanceOf(address,uint256)": {
        "details": "See {IERC1155-balanceOf}. Requirements: - `account` cannot be the zero address."
      },
      "balanceOfBatch(address[],uint256[])": {
        "details": "See {IERC1155-balanceOfBatch}. Requirements: - `accounts` and `ids` must have the same length."
      },
      "getRoleAdmin(bytes32)": {
        "details": "Returns the admin role that controls `role`. See {grantRole} and {revokeRole}. To change a role's admin, use {_setRoleAdmin}."
      },
      "getRoleMember(bytes32,uint256)": {
        "details": "Returns one of the accounts that have `role`. `index` must be a value between 0 and {getRoleMemberCount}, non-inclusive. Role bearers are not sorted in any particular way, and their ordering may change at any point. WARNING: When using {getRoleMember} and {getRoleMemberCount}, make sure you perform all queries on the same block. See the following https://forum.openzeppelin.com/t/iterating-over-elements-on-enumerableset-in-openzeppelin-contracts/2296[forum post] for more information."
      },
      "getRoleMemberCount(bytes32)": {
        "details": "Returns the number of accounts that have `role`. Can be used together with {getRoleMember} to enumerate all bearers of a role."
      },
      "grantRole(bytes32,address)": {
        "details": "Grants `role` to `account`. If `account` had not been already granted `role`, emits a {RoleGranted} event. Requirements: - the caller must have ``role``'s admin role. May emit a {RoleGranted} event."
      },
      "hasRole(bytes32,address)": {
        "details": "Returns `true` if `account` has been granted `role`."
      },
      "isApprovedForAll(address,address)": {
        "details": "See {IERC1155-isApprovedForAll}."
      },
      "mint(address,uint256,uint256,bytes)": {
        "details": "Creates `amount` new tokens for `to`, of token type `id`. See {ERC1155-_mint}. Requirements: - the caller must have the `MINTER_ROLE`."
      },
      "mintBatch(address,uint256[],uint256[],bytes)": {
        "details": "xref:ROOT:erc1155.adoc#batch-operations[Batched] variant of {mint}."
      },
      "pause()": {
        "details": "Pauses all token transfers. See {ERC1155Pausable} and {Pausable-_pause}. Requirements: - the caller must have the `PAUSER_ROLE`."
      },
      "paused()": {
        "details": "Returns true if the contract is paused, and false otherwise."
      },
      "renounceRole(bytes32,address)": {
        "details": "Revokes `role` from the calling account. Roles are often managed via {grantRole} and {revokeRole}: this function's purpose is to provide a mechanism for accounts to lose their privileges if they are compromised (such as when a trusted device is misplaced). If the calling account had been revoked `role`, emits a {RoleRevoked} event. Requirements: - the caller must be `account`. May emit a {RoleRevoked} event."
      },
      "revokeRole(bytes32,address)": {
        "details": "Revokes `role` from `account`. If `account` had been granted `role`, emits a {RoleRevoked} event. Requirements: - the caller must have ``role``'s admin role. May emit a {RoleRevoked} event."
      },
      "safeBatchTransferFrom(address,address,uint256[],uint256[],bytes)": {
        "details": "See {IERC1155-safeBatchTransferFrom}."
      },
      "safeTransferFrom(address,address,uint256,uint256,bytes)": {
        "details": "See {IERC1155-safeTransferFrom}."
      },
      "setApprovalForAll(address,bool)": {
        "details": "See {IERC1155-setApprovalForAll}."
      },
      "supportsInterface(bytes4)": {
        "details": "See {IERC165-supportsInterface}."
      },
      "unpause()": {
        "details": "Unpauses all token transfers. See {ERC1155Pausable} and {Pausable-_unpause}. Requirements: - the caller must have the `PAUSER_ROLE`."
      },
      "uri(uint256)": {
        "details": "See {IERC1155MetadataURI-uri}. This implementation returns the same URI for *all* token types. It relies on the token type ID substitution mechanism https://eips.ethereum.org/EIPS/eip-1155#metadata[defined in the EIP]. Clients calling this function must replace the `\\{id\\}` substring with the actual token type ID."
      }
    },
    "stateVariables": {
      "WALLETS": {
        "details": "total wallets on the protocol, see Wallets enum"
      }
    },
    "title": "Safe NFT",
    "version": 1
  },
  "userdoc": {
    "kind": "user",
    "methods": {},
    "notice": "This contract is responsible for $BUSD pool: mainly deposit/withdrawal and farms management",
    "version": 1
  },
  "storageLayout": {
    "storage": [
      {
        "astId": 24,
        "contract": "contracts/SafeNFT.sol:SafeNFT",
        "label": "_roles",
        "offset": 0,
        "slot": "0",
        "type": "t_mapping(t_bytes32,t_struct(RoleData)19_storage)"
      },
      {
        "astId": 334,
        "contract": "contracts/SafeNFT.sol:SafeNFT",
        "label": "_roleMembers",
        "offset": 0,
        "slot": "1",
        "type": "t_mapping(t_bytes32,t_struct(AddressSet)4219_storage)"
      },
      {
        "astId": 672,
        "contract": "contracts/SafeNFT.sol:SafeNFT",
        "label": "_balances",
        "offset": 0,
        "slot": "2",
        "type": "t_mapping(t_uint256,t_mapping(t_address,t_uint256))"
      },
      {
        "astId": 678,
        "contract": "contracts/SafeNFT.sol:SafeNFT",
        "label": "_operatorApprovals",
        "offset": 0,
        "slot": "3",
        "type": "t_mapping(t_address,t_mapping(t_address,t_bool))"
      },
      {
        "astId": 680,
        "contract": "contracts/SafeNFT.sol:SafeNFT",
        "label": "_uri",
        "offset": 0,
        "slot": "4",
        "type": "t_string_storage"
      },
      {
        "astId": 556,
        "contract": "contracts/SafeNFT.sol:SafeNFT",
        "label": "_paused",
        "offset": 0,
        "slot": "5",
        "type": "t_bool"
      },
      {
        "astId": 4529,
        "contract": "contracts/SafeNFT.sol:SafeNFT",
        "label": "tierPrice",
        "offset": 0,
        "slot": "6",
        "type": "t_array(t_uint256)4_storage"
      },
      {
        "astId": 4532,
        "contract": "contracts/SafeNFT.sol:SafeNFT",
        "label": "safeToken",
        "offset": 0,
        "slot": "10",
        "type": "t_contract(ISafeToken)4792"
      },
      {
        "astId": 4540,
        "contract": "contracts/SafeNFT.sol:SafeNFT",
        "label": "priceDistributionOnMint",
        "offset": 0,
        "slot": "11",
        "type": "t_array(t_uint256)4_storage"
      }
    ],
    "types": {
      "t_address": {
        "encoding": "inplace",
        "label": "address",
        "numberOfBytes": "20"
      },
      "t_array(t_bytes32)dyn_storage": {
        "base": "t_bytes32",
        "encoding": "dynamic_array",
        "label": "bytes32[]",
        "numberOfBytes": "32"
      },
      "t_array(t_uint256)4_storage": {
        "base": "t_uint256",
        "encoding": "inplace",
        "label": "uint256[4]",
        "numberOfBytes": "128"
      },
      "t_bool": {
        "encoding": "inplace",
        "label": "bool",
        "numberOfBytes": "1"
      },
      "t_bytes32": {
        "encoding": "inplace",
        "label": "bytes32",
        "numberOfBytes": "32"
      },
      "t_contract(ISafeToken)4792": {
        "encoding": "inplace",
        "label": "contract ISafeToken",
        "numberOfBytes": "20"
      },
      "t_mapping(t_address,t_bool)": {
        "encoding": "mapping",
        "key": "t_address",
        "label": "mapping(address => bool)",
        "numberOfBytes": "32",
        "value": "t_bool"
      },
      "t_mapping(t_address,t_mapping(t_address,t_bool))": {
        "encoding": "mapping",
        "key": "t_address",
        "label": "mapping(address => mapping(address => bool))",
        "numberOfBytes": "32",
        "value": "t_mapping(t_address,t_bool)"
      },
      "t_mapping(t_address,t_uint256)": {
        "encoding": "mapping",
        "key": "t_address",
        "label": "mapping(address => uint256)",
        "numberOfBytes": "32",
        "value": "t_uint256"
      },
      "t_mapping(t_bytes32,t_struct(AddressSet)4219_storage)": {
        "encoding": "mapping",
        "key": "t_bytes32",
        "label": "mapping(bytes32 => struct EnumerableSet.AddressSet)",
        "numberOfBytes": "32",
        "value": "t_struct(AddressSet)4219_storage"
      },
      "t_mapping(t_bytes32,t_struct(RoleData)19_storage)": {
        "encoding": "mapping",
        "key": "t_bytes32",
        "label": "mapping(bytes32 => struct AccessControl.RoleData)",
        "numberOfBytes": "32",
        "value": "t_struct(RoleData)19_storage"
      },
      "t_mapping(t_bytes32,t_uint256)": {
        "encoding": "mapping",
        "key": "t_bytes32",
        "label": "mapping(bytes32 => uint256)",
        "numberOfBytes": "32",
        "value": "t_uint256"
      },
      "t_mapping(t_uint256,t_mapping(t_address,t_uint256))": {
        "encoding": "mapping",
        "key": "t_uint256",
        "label": "mapping(uint256 => mapping(address => uint256))",
        "numberOfBytes": "32",
        "value": "t_mapping(t_address,t_uint256)"
      },
      "t_string_storage": {
        "encoding": "bytes",
        "label": "string",
        "numberOfBytes": "32"
      },
      "t_struct(AddressSet)4219_storage": {
        "encoding": "inplace",
        "label": "struct EnumerableSet.AddressSet",
        "members": [
          {
            "astId": 4218,
            "contract": "contracts/SafeNFT.sol:SafeNFT",
            "label": "_inner",
            "offset": 0,
            "slot": "0",
            "type": "t_struct(Set)3904_storage"
          }
        ],
        "numberOfBytes": "64"
      },
      "t_struct(RoleData)19_storage": {
        "encoding": "inplace",
        "label": "struct AccessControl.RoleData",
        "members": [
          {
            "astId": 16,
            "contract": "contracts/SafeNFT.sol:SafeNFT",
            "label": "members",
            "offset": 0,
            "slot": "0",
            "type": "t_mapping(t_address,t_bool)"
          },
          {
            "astId": 18,
            "contract": "contracts/SafeNFT.sol:SafeNFT",
            "label": "adminRole",
            "offset": 0,
            "slot": "1",
            "type": "t_bytes32"
          }
        ],
        "numberOfBytes": "64"
      },
      "t_struct(Set)3904_storage": {
        "encoding": "inplace",
        "label": "struct EnumerableSet.Set",
        "members": [
          {
            "astId": 3899,
            "contract": "contracts/SafeNFT.sol:SafeNFT",
            "label": "_values",
            "offset": 0,
            "slot": "0",
            "type": "t_array(t_bytes32)dyn_storage"
          },
          {
            "astId": 3903,
            "contract": "contracts/SafeNFT.sol:SafeNFT",
            "label": "_indexes",
            "offset": 0,
            "slot": "1",
            "type": "t_mapping(t_bytes32,t_uint256)"
          }
        ],
        "numberOfBytes": "64"
      },
      "t_uint256": {
        "encoding": "inplace",
        "label": "uint256",
        "numberOfBytes": "32"
      }
    }
  }
}