{
  "address": "0x65e24ee2bCf11580a05A80E63E417188fD7AE055",
  "abi": [
    {
      "inputs": [
        {
          "internalType": "string",
          "name": "_uri",
          "type": "string"
        },
        {
          "internalType": "uint256[4]",
          "name": "_price",
          "type": "uint256[4]"
        },
        {
          "internalType": "uint256[4]",
          "name": "_maxSupply",
          "type": "uint256[4]"
        },
        {
          "internalType": "contract ISafeToken",
          "name": "_safeToken",
          "type": "address"
        },
        {
          "internalType": "uint256[2]",
          "name": "_priceDistributionOnMint",
          "type": "uint256[2]"
        },
        {
          "internalType": "uint256[2]",
          "name": "_profitDistribution",
          "type": "uint256[2]"
        }
      ],
      "stateMutability": "nonpayable",
      "type": "constructor"
    },
    {
      "anonymous": false,
      "inputs": [
        {
          "indexed": true,
          "internalType": "address",
          "name": "account",
          "type": "address"
        },
        {
          "indexed": true,
          "internalType": "address",
          "name": "operator",
          "type": "address"
        },
        {
          "indexed": false,
          "internalType": "bool",
          "name": "approved",
          "type": "bool"
        }
      ],
      "name": "ApprovalForAll",
      "type": "event"
    },
    {
      "anonymous": false,
      "inputs": [
        {
          "indexed": false,
          "internalType": "address",
          "name": "account",
          "type": "address"
        }
      ],
      "name": "Paused",
      "type": "event"
    },
    {
      "anonymous": false,
      "inputs": [
        {
          "indexed": true,
          "internalType": "bytes32",
          "name": "role",
          "type": "bytes32"
        },
        {
          "indexed": true,
          "internalType": "bytes32",
          "name": "previousAdminRole",
          "type": "bytes32"
        },
        {
          "indexed": true,
          "internalType": "bytes32",
          "name": "newAdminRole",
          "type": "bytes32"
        }
      ],
      "name": "RoleAdminChanged",
      "type": "event"
    },
    {
      "anonymous": false,
      "inputs": [
        {
          "indexed": true,
          "internalType": "bytes32",
          "name": "role",
          "type": "bytes32"
        },
        {
          "indexed": true,
          "internalType": "address",
          "name": "account",
          "type": "address"
        },
        {
          "indexed": true,
          "internalType": "address",
          "name": "sender",
          "type": "address"
        }
      ],
      "name": "RoleGranted",
      "type": "event"
    },
    {
      "anonymous": false,
      "inputs": [
        {
          "indexed": true,
          "internalType": "bytes32",
          "name": "role",
          "type": "bytes32"
        },
        {
          "indexed": true,
          "internalType": "address",
          "name": "account",
          "type": "address"
        },
        {
          "indexed": true,
          "internalType": "address",
          "name": "sender",
          "type": "address"
        }
      ],
      "name": "RoleRevoked",
      "type": "event"
    },
    {
      "anonymous": false,
      "inputs": [
        {
          "indexed": true,
          "internalType": "address",
          "name": "operator",
          "type": "address"
        },
        {
          "indexed": true,
          "internalType": "address",
          "name": "from",
          "type": "address"
        },
        {
          "indexed": true,
          "internalType": "address",
          "name": "to",
          "type": "address"
        },
        {
          "indexed": false,
          "internalType": "uint256[]",
          "name": "ids",
          "type": "uint256[]"
        },
        {
          "indexed": false,
          "internalType": "uint256[]",
          "name": "values",
          "type": "uint256[]"
        }
      ],
      "name": "TransferBatch",
      "type": "event"
    },
    {
      "anonymous": false,
      "inputs": [
        {
          "indexed": true,
          "internalType": "address",
          "name": "operator",
          "type": "address"
        },
        {
          "indexed": true,
          "internalType": "address",
          "name": "from",
          "type": "address"
        },
        {
          "indexed": true,
          "internalType": "address",
          "name": "to",
          "type": "address"
        },
        {
          "indexed": false,
          "internalType": "uint256",
          "name": "id",
          "type": "uint256"
        },
        {
          "indexed": false,
          "internalType": "uint256",
          "name": "value",
          "type": "uint256"
        }
      ],
      "name": "TransferSingle",
      "type": "event"
    },
    {
      "anonymous": false,
      "inputs": [
        {
          "indexed": false,
          "internalType": "string",
          "name": "value",
          "type": "string"
        },
        {
          "indexed": true,
          "internalType": "uint256",
          "name": "id",
          "type": "uint256"
        }
      ],
      "name": "URI",
      "type": "event"
    },
    {
      "anonymous": false,
      "inputs": [
        {
          "indexed": false,
          "internalType": "address",
          "name": "account",
          "type": "address"
        }
      ],
      "name": "Unpaused",
      "type": "event"
    },
    {
      "inputs": [],
      "name": "DEFAULT_ADMIN_ROLE",
      "outputs": [
        {
          "internalType": "bytes32",
          "name": "",
          "type": "bytes32"
        }
      ],
      "stateMutability": "view",
      "type": "function"
    },
    {
      "inputs": [],
      "name": "MINTER_ROLE",
      "outputs": [
        {
          "internalType": "bytes32",
          "name": "",
          "type": "bytes32"
        }
      ],
      "stateMutability": "view",
      "type": "function"
    },
    {
      "inputs": [],
      "name": "PAUSER_ROLE",
      "outputs": [
        {
          "internalType": "bytes32",
          "name": "",
          "type": "bytes32"
        }
      ],
      "stateMutability": "view",
      "type": "function"
    },
    {
      "inputs": [],
      "name": "TIERS",
      "outputs": [
        {
          "internalType": "uint256",
          "name": "",
          "type": "uint256"
        }
      ],
      "stateMutability": "view",
      "type": "function"
    },
    {
      "inputs": [],
      "name": "WALLETS",
      "outputs": [
        {
          "internalType": "uint256",
          "name": "",
          "type": "uint256"
        }
      ],
      "stateMutability": "view",
      "type": "function"
    },
    {
      "inputs": [
        {
          "internalType": "uint256",
          "name": "",
          "type": "uint256"
        },
        {
          "internalType": "uint256",
          "name": "",
          "type": "uint256"
        },
        {
          "internalType": "address",
          "name": "",
          "type": "address"
        }
      ],
      "name": "alreadyDistributedAmount",
      "outputs": [
        {
          "internalType": "uint256",
          "name": "",
          "type": "uint256"
        }
      ],
      "stateMutability": "view",
      "type": "function"
    },
    {
      "inputs": [
        {
          "internalType": "uint256",
          "name": "",
          "type": "uint256"
        },
        {
          "internalType": "uint256",
          "name": "",
          "type": "uint256"
        }
      ],
      "name": "alreadyDistributedAmountByTier",
      "outputs": [
        {
          "internalType": "uint256",
          "name": "",
          "type": "uint256"
        }
      ],
      "stateMutability": "view",
      "type": "function"
    },
    {
      "inputs": [
        {
          "internalType": "address",
          "name": "account",
          "type": "address"
        },
        {
          "internalType": "uint256",
          "name": "id",
          "type": "uint256"
        }
      ],
      "name": "balanceOf",
      "outputs": [
        {
          "internalType": "uint256",
          "name": "",
          "type": "uint256"
        }
      ],
      "stateMutability": "view",
      "type": "function"
    },
    {
      "inputs": [
        {
          "internalType": "address[]",
          "name": "accounts",
          "type": "address[]"
        },
        {
          "internalType": "uint256[]",
          "name": "ids",
          "type": "uint256[]"
        }
      ],
      "name": "balanceOfBatch",
      "outputs": [
        {
          "internalType": "uint256[]",
          "name": "",
          "type": "uint256[]"
        }
      ],
      "stateMutability": "view",
      "type": "function"
    },
    {
      "inputs": [
        {
          "internalType": "address",
          "name": "account",
          "type": "address"
        },
        {
          "internalType": "uint256",
          "name": "id",
          "type": "uint256"
        },
        {
          "internalType": "uint256",
          "name": "value",
          "type": "uint256"
        }
      ],
      "name": "burn",
      "outputs": [],
      "stateMutability": "nonpayable",
      "type": "function"
    },
    {
      "inputs": [
        {
          "internalType": "address",
          "name": "account",
          "type": "address"
        },
        {
          "internalType": "uint256[]",
          "name": "ids",
          "type": "uint256[]"
        },
        {
          "internalType": "uint256[]",
          "name": "values",
          "type": "uint256[]"
        }
      ],
      "name": "burnBatch",
      "outputs": [],
      "stateMutability": "nonpayable",
      "type": "function"
    },
    {
      "inputs": [
        {
          "internalType": "enum ISafeNFT.Tiers",
          "name": "_tier",
          "type": "uint8"
        },
        {
          "internalType": "uint256",
          "name": "_amount",
          "type": "uint256"
        }
      ],
      "name": "buy",
      "outputs": [],
      "stateMutability": "nonpayable",
      "type": "function"
    },
    {
      "inputs": [
        {
          "internalType": "enum ISafeNFT.Tiers",
          "name": "_tier",
          "type": "uint8"
        },
        {
          "internalType": "uint256",
          "name": "_distributionId",
          "type": "uint256"
        }
      ],
      "name": "claimReward",
      "outputs": [],
      "stateMutability": "nonpayable",
      "type": "function"
    },
    {
      "inputs": [],
      "name": "claimRewardsTotal",
      "outputs": [],
      "stateMutability": "nonpayable",
      "type": "function"
    },
    {
      "inputs": [],
      "name": "currentDistributionId",
      "outputs": [
        {
          "internalType": "uint256",
          "name": "",
          "type": "uint256"
        }
      ],
      "stateMutability": "view",
      "type": "function"
    },
    {
      "inputs": [
        {
          "internalType": "uint256",
          "name": "_amountUSD",
          "type": "uint256"
        }
      ],
      "name": "distributeProfit",
      "outputs": [],
      "stateMutability": "nonpayable",
      "type": "function"
    },
    {
      "inputs": [
        {
          "internalType": "uint256",
          "name": "",
          "type": "uint256"
        },
        {
          "internalType": "uint256",
          "name": "",
          "type": "uint256"
        }
      ],
      "name": "distributionByTier",
      "outputs": [
        {
          "internalType": "uint256",
          "name": "",
          "type": "uint256"
        }
      ],
      "stateMutability": "view",
      "type": "function"
    },
    {
      "inputs": [
        {
          "internalType": "uint256",
          "name": "",
          "type": "uint256"
        }
      ],
      "name": "distributionOfProfit",
      "outputs": [
        {
          "internalType": "uint256",
          "name": "",
          "type": "uint256"
        }
      ],
      "stateMutability": "view",
      "type": "function"
    },
    {
      "inputs": [
        {
          "internalType": "uint256",
          "name": "",
          "type": "uint256"
        },
        {
          "internalType": "uint256",
          "name": "",
          "type": "uint256"
        }
      ],
      "name": "distributionTotalSupplySnapshot",
      "outputs": [
        {
          "internalType": "uint256",
          "name": "",
          "type": "uint256"
        }
      ],
      "stateMutability": "view",
      "type": "function"
    },
    {
      "inputs": [
        {
          "internalType": "uint256",
          "name": "id",
          "type": "uint256"
        }
      ],
      "name": "exists",
      "outputs": [
        {
          "internalType": "bool",
          "name": "",
          "type": "bool"
        }
      ],
      "stateMutability": "view",
      "type": "function"
    },
    {
      "inputs": [
        {
          "internalType": "enum ISafeNFT.Tiers",
          "name": "_tier",
          "type": "uint8"
        }
      ],
      "name": "getFairPrice",
      "outputs": [
        {
          "internalType": "uint256",
          "name": "",
          "type": "uint256"
        }
      ],
      "stateMutability": "view",
      "type": "function"
    },
    {
      "inputs": [],
      "name": "getFairPriceTable",
      "outputs": [
        {
          "internalType": "uint256[]",
          "name": "",
          "type": "uint256[]"
        }
      ],
      "stateMutability": "view",
      "type": "function"
    },
    {
      "inputs": [],
      "name": "getMyPendingRewardsTotal",
      "outputs": [
        {
          "internalType": "uint256",
          "name": "",
          "type": "uint256"
        }
      ],
      "stateMutability": "nonpayable",
      "type": "function"
    },
    {
      "inputs": [
        {
          "internalType": "address",
          "name": "_user",
          "type": "address"
        },
        {
          "internalType": "enum ISafeNFT.Tiers",
          "name": "_tier",
          "type": "uint8"
        },
        {
          "internalType": "uint256",
          "name": "_distributionId",
          "type": "uint256"
        }
      ],
      "name": "getPendingRewards",
      "outputs": [
        {
          "internalType": "uint256",
          "name": "",
          "type": "uint256"
        }
      ],
      "stateMutability": "nonpayable",
      "type": "function"
    },
    {
      "inputs": [
        {
          "internalType": "enum ISafeNFT.Tiers",
          "name": "_tier",
          "type": "uint8"
        }
      ],
      "name": "getPrice",
      "outputs": [
        {
          "internalType": "uint256",
          "name": "",
          "type": "uint256"
        }
      ],
      "stateMutability": "view",
      "type": "function"
    },
    {
      "inputs": [
        {
          "internalType": "bytes32",
          "name": "role",
          "type": "bytes32"
        }
      ],
      "name": "getRoleAdmin",
      "outputs": [
        {
          "internalType": "bytes32",
          "name": "",
          "type": "bytes32"
        }
      ],
      "stateMutability": "view",
      "type": "function"
    },
    {
      "inputs": [
        {
          "internalType": "bytes32",
          "name": "role",
          "type": "bytes32"
        },
        {
          "internalType": "uint256",
          "name": "index",
          "type": "uint256"
        }
      ],
      "name": "getRoleMember",
      "outputs": [
        {
          "internalType": "address",
          "name": "",
          "type": "address"
        }
      ],
      "stateMutability": "view",
      "type": "function"
    },
    {
      "inputs": [
        {
          "internalType": "bytes32",
          "name": "role",
          "type": "bytes32"
        }
      ],
      "name": "getRoleMemberCount",
      "outputs": [
        {
          "internalType": "uint256",
          "name": "",
          "type": "uint256"
        }
      ],
      "stateMutability": "view",
      "type": "function"
    },
    {
      "inputs": [],
      "name": "getTotalSupplyAllTiers",
      "outputs": [
        {
          "internalType": "uint256",
          "name": "",
          "type": "uint256"
        }
      ],
      "stateMutability": "nonpayable",
      "type": "function"
    },
    {
      "inputs": [],
      "name": "getTreasuryCost",
      "outputs": [
        {
          "internalType": "uint256",
          "name": "",
          "type": "uint256"
        }
      ],
      "stateMutability": "nonpayable",
      "type": "function"
    },
    {
      "inputs": [],
      "name": "getUnclaimedRewards",
      "outputs": [
        {
          "internalType": "uint256",
          "name": "",
          "type": "uint256"
        }
      ],
      "stateMutability": "nonpayable",
      "type": "function"
    },
    {
      "inputs": [
        {
          "internalType": "bytes32",
          "name": "role",
          "type": "bytes32"
        },
        {
          "internalType": "address",
          "name": "account",
          "type": "address"
        }
      ],
      "name": "grantRole",
      "outputs": [],
      "stateMutability": "nonpayable",
      "type": "function"
    },
    {
      "inputs": [
        {
          "internalType": "bytes32",
          "name": "role",
          "type": "bytes32"
        },
        {
          "internalType": "address",
          "name": "account",
          "type": "address"
        }
      ],
      "name": "hasRole",
      "outputs": [
        {
          "internalType": "bool",
          "name": "",
          "type": "bool"
        }
      ],
      "stateMutability": "view",
      "type": "function"
    },
    {
      "inputs": [
        {
          "internalType": "string",
          "name": "_uri",
          "type": "string"
        },
        {
          "internalType": "uint256[4]",
          "name": "_price",
          "type": "uint256[4]"
        },
        {
          "internalType": "uint256[4]",
          "name": "_maxSupply",
          "type": "uint256[4]"
        },
        {
          "internalType": "contract ISafeToken",
          "name": "_safeToken",
          "type": "address"
        },
        {
          "internalType": "uint256[2]",
          "name": "_priceDistributionOnMint",
          "type": "uint256[2]"
        },
        {
          "internalType": "uint256[2]",
          "name": "_profitDistribution",
          "type": "uint256[2]"
        }
      ],
      "name": "initialize",
      "outputs": [],
      "stateMutability": "nonpayable",
      "type": "function"
    },
    {
      "inputs": [
        {
          "internalType": "address",
          "name": "account",
          "type": "address"
        },
        {
          "internalType": "address",
          "name": "operator",
          "type": "address"
        }
      ],
      "name": "isApprovedForAll",
      "outputs": [
        {
          "internalType": "bool",
          "name": "",
          "type": "bool"
        }
      ],
      "stateMutability": "view",
      "type": "function"
    },
    {
      "inputs": [
        {
          "internalType": "uint256",
          "name": "",
          "type": "uint256"
        }
      ],
      "name": "maxSupply",
      "outputs": [
        {
          "internalType": "uint256",
          "name": "",
          "type": "uint256"
        }
      ],
      "stateMutability": "view",
      "type": "function"
    },
    {
      "inputs": [
        {
          "internalType": "address",
          "name": "to",
          "type": "address"
        },
        {
          "internalType": "uint256",
          "name": "id",
          "type": "uint256"
        },
        {
          "internalType": "uint256",
          "name": "amount",
          "type": "uint256"
        },
        {
          "internalType": "bytes",
          "name": "data",
          "type": "bytes"
        }
      ],
      "name": "mint",
      "outputs": [],
      "stateMutability": "nonpayable",
      "type": "function"
    },
    {
      "inputs": [
        {
          "internalType": "address",
          "name": "to",
          "type": "address"
        },
        {
          "internalType": "uint256[]",
          "name": "ids",
          "type": "uint256[]"
        },
        {
          "internalType": "uint256[]",
          "name": "amounts",
          "type": "uint256[]"
        },
        {
          "internalType": "bytes",
          "name": "data",
          "type": "bytes"
        }
      ],
      "name": "mintBatch",
      "outputs": [],
      "stateMutability": "nonpayable",
      "type": "function"
    },
    {
      "inputs": [],
      "name": "name",
      "outputs": [
        {
          "internalType": "string",
          "name": "",
          "type": "string"
        }
      ],
      "stateMutability": "view",
      "type": "function"
    },
    {
      "inputs": [],
      "name": "pause",
      "outputs": [],
      "stateMutability": "nonpayable",
      "type": "function"
    },
    {
      "inputs": [],
      "name": "paused",
      "outputs": [
        {
          "internalType": "bool",
          "name": "",
          "type": "bool"
        }
      ],
      "stateMutability": "view",
      "type": "function"
    },
    {
      "inputs": [],
      "name": "percentOfTreasury",
      "outputs": [
        {
          "internalType": "uint256",
          "name": "",
          "type": "uint256"
        }
      ],
      "stateMutability": "nonpayable",
      "type": "function"
    },
    {
      "inputs": [
        {
          "internalType": "uint256",
          "name": "",
          "type": "uint256"
        }
      ],
      "name": "price",
      "outputs": [
        {
          "internalType": "uint256",
          "name": "",
          "type": "uint256"
        }
      ],
      "stateMutability": "view",
      "type": "function"
    },
    {
      "inputs": [
        {
          "internalType": "uint256",
          "name": "",
          "type": "uint256"
        }
      ],
      "name": "priceDistributionOnMint",
      "outputs": [
        {
          "internalType": "uint256",
          "name": "",
          "type": "uint256"
        }
      ],
      "stateMutability": "view",
      "type": "function"
    },
    {
      "inputs": [
        {
          "internalType": "uint256",
          "name": "",
          "type": "uint256"
        }
      ],
      "name": "profitDistribution",
      "outputs": [
        {
          "internalType": "uint256",
          "name": "",
          "type": "uint256"
        }
      ],
      "stateMutability": "view",
      "type": "function"
    },
    {
      "inputs": [
        {
          "internalType": "bytes32",
          "name": "role",
          "type": "bytes32"
        },
        {
          "internalType": "address",
          "name": "account",
          "type": "address"
        }
      ],
      "name": "renounceRole",
      "outputs": [],
      "stateMutability": "nonpayable",
      "type": "function"
    },
    {
      "inputs": [
        {
          "internalType": "bytes32",
          "name": "role",
          "type": "bytes32"
        },
        {
          "internalType": "address",
          "name": "account",
          "type": "address"
        }
      ],
      "name": "revokeRole",
      "outputs": [],
      "stateMutability": "nonpayable",
      "type": "function"
    },
    {
      "inputs": [
        {
          "internalType": "address",
          "name": "from",
          "type": "address"
        },
        {
          "internalType": "address",
          "name": "to",
          "type": "address"
        },
        {
          "internalType": "uint256[]",
          "name": "ids",
          "type": "uint256[]"
        },
        {
          "internalType": "uint256[]",
          "name": "amounts",
          "type": "uint256[]"
        },
        {
          "internalType": "bytes",
          "name": "data",
          "type": "bytes"
        }
      ],
      "name": "safeBatchTransferFrom",
      "outputs": [],
      "stateMutability": "nonpayable",
      "type": "function"
    },
    {
      "inputs": [],
      "name": "safeToken",
      "outputs": [
        {
          "internalType": "contract ISafeToken",
          "name": "",
          "type": "address"
        }
      ],
      "stateMutability": "view",
      "type": "function"
    },
    {
      "inputs": [
        {
          "internalType": "address",
          "name": "from",
          "type": "address"
        },
        {
          "internalType": "address",
          "name": "to",
          "type": "address"
        },
        {
          "internalType": "uint256",
          "name": "id",
          "type": "uint256"
        },
        {
          "internalType": "uint256",
          "name": "amount",
          "type": "uint256"
        },
        {
          "internalType": "bytes",
          "name": "data",
          "type": "bytes"
        }
      ],
      "name": "safeTransferFrom",
      "outputs": [],
      "stateMutability": "nonpayable",
      "type": "function"
    },
    {
      "inputs": [],
      "name": "safeVault",
      "outputs": [
        {
          "internalType": "contract ISafeVault",
          "name": "",
          "type": "address"
        }
      ],
      "stateMutability": "view",
      "type": "function"
    },
    {
      "inputs": [
        {
          "internalType": "address",
          "name": "operator",
          "type": "address"
        },
        {
          "internalType": "bool",
          "name": "approved",
          "type": "bool"
        }
      ],
      "name": "setApprovalForAll",
      "outputs": [],
      "stateMutability": "nonpayable",
      "type": "function"
    },
    {
      "inputs": [
        {
          "internalType": "bytes4",
          "name": "interfaceId",
          "type": "bytes4"
        }
      ],
      "name": "supportsInterface",
      "outputs": [
        {
          "internalType": "bool",
          "name": "",
          "type": "bool"
        }
      ],
      "stateMutability": "view",
      "type": "function"
    },
    {
      "inputs": [
        {
          "internalType": "uint256",
          "name": "id",
          "type": "uint256"
        }
      ],
      "name": "totalSupply",
      "outputs": [
        {
          "internalType": "uint256",
          "name": "",
          "type": "uint256"
        }
      ],
      "stateMutability": "view",
      "type": "function"
    },
    {
      "inputs": [],
      "name": "unpause",
      "outputs": [],
      "stateMutability": "nonpayable",
      "type": "function"
    },
    {
      "inputs": [
        {
          "internalType": "uint256",
          "name": "",
          "type": "uint256"
        }
      ],
      "name": "uri",
      "outputs": [
        {
          "internalType": "string",
          "name": "",
          "type": "string"
        }
      ],
      "stateMutability": "view",
      "type": "function"
    },
    {
      "inputs": [],
      "name": "usd",
      "outputs": [
        {
          "internalType": "contract IERC20",
          "name": "",
          "type": "address"
        }
      ],
      "stateMutability": "view",
      "type": "function"
    },
    {
      "inputs": [
        {
          "internalType": "uint256",
          "name": "",
          "type": "uint256"
        }
      ],
      "name": "wallets",
      "outputs": [
        {
          "internalType": "address",
          "name": "",
          "type": "address"
        }
      ],
      "stateMutability": "view",
      "type": "function"
    }
  ],
  "transactionHash": "0xb906855d5c4460c362974eb3d219bd96eb1d76d0233fe2616e7ffd519b059e05",
  "args": [
    "",
    [
      "131250000000000000000",
      "262500000000000000000",
      "525000000000000000000",
      "1050000000000000000000"
    ],
    [
      2000,
      1000,
      1000,
      1000
    ],
    "0xF3c420B081422C51533150664Fc8F2fb77E39296",
    [
      7500,
      2000
    ],
    [
      2500,
      2000
    ]
  ],
  "numDeployments": 4,
  "solcInputHash": "7b106b2eacbd16db581f1bd7809e09ae",
  "bytecode": "0x60806040523480156200001157600080fd5b50604051620056ae380380620056ae83398101604081905262000034916200087e565b85806200004181620000ac565b506007805460ff1916905562000059600033620000be565b620000746000805160206200568e83398151915233620000be565b6200008f6000805160206200566e83398151915233620000be565b50620000a0868686868686620000ca565b50505050505062000ba4565b6006620000ba828262000a26565b5050565b620000ba8282620004dd565b6000620000e46000805160206200564e8339815191525490565b90506001600160a01b03811662000114576001600160a01b036000805160206200564e833981519152556200012a565b336001600160a01b038216146200012a57600080fd5b6200013587620000ac565b62000142600033620000be565b6200015d6000805160206200568e83398151915233620000be565b620001786000805160206200566e83398151915233620000be565b62000187600987600462000640565b5062000197600d86600462000640565b50601180546001600160a01b0319166001600160a01b038616179055620001c2601484600262000683565b50620001d2601683600262000683565b506011546040805163db7a460560e01b8152815162000248936001600160a01b03169263db7a460592600480820193918290030181865afa1580156200021c573d6000803e3d6000fd5b505050506040513d601f19601f8201168201806040525081019062000242919062000af2565b62000520565b601160009054906101000a90046001600160a01b03166001600160a01b031663deef94de6040518163ffffffff1660e01b8152600401602060405180830381865afa1580156200029c573d6000803e3d6000fd5b505050506040513d601f19601f82011682018060405250810190620002c2919062000b59565b601280546001600160a01b0319166001600160a01b039283161790556011546040805163d63a6ccd60e01b81529051919092169163d63a6ccd9160048083019260209291908290030181865afa15801562000321573d6000803e3d6000fd5b505050506040513d601f19601f8201168201806040525081019062000347919062000b59565b601380546001600160a01b0319166001600160a01b0392831690811790915560115460405163095ea7b360e01b81529216600483015260001960248301529063095ea7b3906044016020604051808303816000875af1158015620003af573d6000803e3d6000fd5b505050506040513d601f19601f82011682018060405250810190620003d5919062000b80565b5060135460125460405163095ea7b360e01b81526001600160a01b039182166004820152600019602482015291169063095ea7b3906044016020604051808303816000875af11580156200042d573d6000803e3d6000fd5b505050506040513d601f19601f8201168201806040525081019062000453919062000b80565b5060115460405163095ea7b360e01b81526001600160a01b039091166004820181905260001960248301529063095ea7b3906044016020604051808303816000875af1158015620004a8573d6000803e3d6000fd5b505050506040513d601f19601f82011682018060405250810190620004ce919062000b80565b50506000601855505050505050565b620004f482826200052e60201b620020721760201c565b60008281526001602090815260409091206200051b918390620020f6620005ce821b17901c565b505050565b620000ba60028281620006b3565b6000828152602081815260408083206001600160a01b038516845290915290205460ff16620000ba576000828152602081815260408083206001600160a01b03851684529091529020805460ff191660011790556200058a3390565b6001600160a01b0316816001600160a01b0316837f2f8788117e7eff1d82e926ec794901d17c78024a50270940304540a733656f0d60405160405180910390a45050565b6000620005e5836001600160a01b038416620005ee565b90505b92915050565b60008181526001830160205260408120546200063757508154600181810184556000848152602080822090930184905584548482528286019093526040902091909155620005e8565b506000620005e8565b826004810192821562000671579160200282015b828111156200067157825182559160200191906001019062000654565b506200067f929150620006fe565b5090565b82600281019282156200067157916020028201828111156200067157825182559160200191906001019062000654565b826002810192821562000671579160200282015b828111156200067157825182546001600160a01b0319166001600160a01b03909116178255602090920191600190910190620006c7565b5b808211156200067f5760008155600101620006ff565b634e487b7160e01b600052604160045260246000fd5b604080519081016001600160401b038111828210171562000750576200075062000715565b60405290565b604051601f8201601f191681016001600160401b038111828210171562000781576200078162000715565b604052919050565b600082601f8301126200079b57600080fd5b604051608081016001600160401b0381118282101715620007c057620007c062000715565b604052806080840185811115620007d657600080fd5b845b81811015620007f2578051835260209283019201620007d8565b509195945050505050565b6001600160a01b03811681146200081357600080fd5b50565b80516200082381620007fd565b919050565b600082601f8301126200083a57600080fd5b620008446200072b565b8060408401858111156200085757600080fd5b845b818110156200087357805184526020938401930162000859565b509095945050505050565b6000806000806000806101c087890312156200089957600080fd5b86516001600160401b0380821115620008b157600080fd5b818901915089601f830112620008c657600080fd5b815181811115620008db57620008db62000715565b60209150620008f3601f8201601f1916830162000756565b8181528b838386010111156200090857600080fd5b60005b82811015620009285784810184015182820185015283016200090b565b5060008383830101528099505050620009448a828b0162000789565b96505050620009578860a0890162000789565b935062000968610120880162000816565b92506200097a88610140890162000828565b91506200098c88610180890162000828565b90509295509295509295565b600181811c90821680620009ad57607f821691505b602082108103620009ce57634e487b7160e01b600052602260045260246000fd5b50919050565b601f8211156200051b57600081815260208120601f850160051c81016020861015620009fd5750805b601f850160051c820191505b8181101562000a1e5782815560010162000a09565b505050505050565b81516001600160401b0381111562000a425762000a4262000715565b62000a5a8162000a53845462000998565b84620009d4565b602080601f83116001811462000a92576000841562000a795750858301515b600019600386901b1c1916600185901b17855562000a1e565b600085815260208120601f198616915b8281101562000ac35788860151825594840194600190910190840162000aa2565b508582101562000ae25787850151600019600388901b60f8161c191681555b5050505050600190811b01905550565b60006040828403121562000b0557600080fd5b82601f83011262000b1557600080fd5b62000b1f6200072b565b80604084018581111562000b3257600080fd5b845b818110156200087357805162000b4a81620007fd565b84526020938401930162000b34565b60006020828403121562000b6c57600080fd5b815162000b7981620007fd565b9392505050565b60006020828403121562000b9357600080fd5b8151801515811462000b7957600080fd5b614a9a8062000bb46000396000f3fe608060405234801561001057600080fd5b506004361061038d5760003560e01c8063731133e9116101de578063ca7b24471161010f578063deef94de116100ad578063f03f1e511161007c578063f03f1e511461081a578063f0b2df8914610822578063f242432a14610835578063f5298aca1461084857600080fd5b8063deef94de14610791578063df71da76146107a4578063e63ab1e9146107b7578063e985e9c5146107de57600080fd5b8063d36dfac8116100e9578063d36dfac814610731578063d539139314610744578063d547741f1461076b578063d63a6ccd1461077e57600080fd5b8063ca7b2447146106e5578063ced79ce0146106f8578063d36122b81461072957600080fd5b80639010d07c1161017c578063a22cb46511610156578063a22cb4651461068c578063bceef70c1461069f578063bd85b039146106b2578063ca15c873146106d257600080fd5b80639010d07c1461065e57806391d1485414610671578063a217fddf1461068457600080fd5b80637e93391a116101b85780637e93391a146104295780638456cb591461063b578063869f7594146106435780638d3bd55b1461065657600080fd5b8063731133e91461060c578063780069e01461061f5780637ad71f721461062857600080fd5b80632f2ff15d116102c35780634f558e79116102615780635e95b4fe116102305780635e95b4fe146105cb57806362f791c0146105de5780636b20c454146105f15780636e748f971461060457600080fd5b80634f558e791461057857806353f7ffd21461059a578063592fa65e146105ad5780635c975abb146105c057600080fd5b80633f4ba83a1161029d5780633f4ba83a1461051f578063418f7c51146105275780634b3fd05a1461053a5780634e1273f41461056557600080fd5b80632f2ff15d146104e657806336568abe146104f957806337f1e7f21461050c57600080fd5b8063168affdf11610330578063248a9ca31161030a578063248a9ca31461048857806326a49e37146104ab5780632c13f08c146104be5780632eb2c2d6146104d357600080fd5b8063168affdf1461044b5780631a5e85e51461046b5780631f7fdffa1461047357600080fd5b806306fdde031161036c57806306fdde03146103ee578063089f001c146104295780630e89341c14610430578063162302571461044357600080fd5b8062fdd58e1461039257806301ffc9a7146103b857806304ca4c07146103db575b600080fd5b6103a56103a03660046139cc565b61085b565b6040519081526020015b60405180910390f35b6103cb6103c6366004613a0e565b6108f6565b60405190151581526020016103af565b6103a56103e9366004613a2b565b610901565b61041c6040518060400160405280600f81526020016e14d8599948165a595b191cc8139195608a1b81525081565b6040516103af9190613a9d565b60006103a5565b61041c61043e366004613ab0565b610926565b6103a56109ba565b6103a5610459366004613ab0565b60196020526000908152604090205481565b6103a5610a57565b610486610481366004613c41565b610a92565b005b6103a5610496366004613ab0565b60009081526020819052604090206001015490565b6103a56104b9366004613ab0565b610aea565b6104c6610b01565b6040516103af9190613d16565b6104866104e1366004613d29565b610b78565b6104866104f4366004613dd6565b610bc4565b610486610507366004613dd6565b610bee565b6103a561051a366004613e1a565b610c6c565b610486610c9a565b6103a5610535366004613e35565b610d40565b60115461054d906001600160a01b031681565b6040516001600160a01b0390911681526020016103af565b6104c6610573366004613e73565b610df1565b6103cb610586366004613ab0565b600090815260086020526040902054151590565b6104866105a8366004613f3f565b610f1a565b6103a56105bb366004613a2b565b61100f565b60075460ff166103cb565b6103a56105d9366004613a2b565b61102b565b6104866105ec366004613f3f565b611047565b6104866105ff366004613f5b565b6114a3565b6103a5600481565b61048661061a366004613fd0565b6114e6565b6103a560185481565b61054d610636366004613ab0565b611538565b610486611558565b6103a5610651366004613ab0565b6115fc565b6103a5600281565b61054d61066c366004613a2b565b61160c565b6103cb61067f366004613dd6565b61162b565b6103a5600081565b61048661069a366004614034565b611654565b6104866106ad3660046140fe565b61165f565b6103a56106c0366004613ab0565b60009081526008602052604090205490565b6103a56106e0366004613ab0565b611a8e565b6103a56106f3366004613ab0565b611aa5565b6103a56107063660046141aa565b601c60209081526000938452604080852082529284528284209052825290205481565b610486611ab5565b61048661073f366004613ab0565b611b10565b6103a57f9f2df0fed2c77648de5860a4cc508cd0818c85b8b8a1ab4ceeef8d981c8956a681565b610486610779366004613dd6565b611e9e565b60135461054d906001600160a01b031681565b60125461054d906001600160a01b031681565b6103a56107b2366004613ab0565b611ec3565b6103a57f65d7a28e3265b37a6474929f336521b332c1681b933f6cb9f3376673440d862a81565b6103cb6107ec3660046141e3565b6001600160a01b03918216600090815260056020908152604080832093909416825291909152205460ff1690565b6103a5611ed3565b6103a5610830366004613e1a565b611f42565b610486610843366004614211565b611fea565b610486610856366004614279565b61202f565b60006001600160a01b0383166108cb5760405162461bcd60e51b815260206004820152602a60248201527f455243313135353a2061646472657373207a65726f206973206e6f742061207660448201526930b634b21037bbb732b960b11b60648201526084015b60405180910390fd5b5060008181526004602090815260408083206001600160a01b03861684529091529020545b92915050565b60006108f08261210b565b601a602052816000526040600020816004811061091d57600080fd5b01549150829050565b606060068054610935906142ae565b80601f0160208091040260200160405190810160405280929190818152602001828054610961906142ae565b80156109ae5780601f10610983576101008083540402835291602001916109ae565b820191906000526020600020905b81548152906001019060200180831161099157829003601f168201915b50505050509050919050565b600080805b6004811015610a515760005b6018548111610a3e576000818152601d6020526040902082600481106109f3576109f36142e2565b01546000828152601a602052604090208360048110610a1457610a146142e2565b0154610a20919061430e565b610a2a9084614321565b925080610a3681614334565b9150506109cb565b5080610a4981614334565b9150506109bf565b50919050565b600080805b6004811015610a5157600081815260086020526040902054610a7e9083614321565b915080610a8a81614334565b915050610a5c565b610abc7f9f2df0fed2c77648de5860a4cc508cd0818c85b8b8a1ab4ceeef8d981c8956a63361162b565b610ad85760405162461bcd60e51b81526004016108c29061434d565b610ae484848484612116565b50505050565b60098160048110610afa57600080fd5b0154905081565b60408051600480825260a08201909252606091600091906020820160808036833701905050905060005b6004811015610a5157610b49816003811115610830576108306143aa565b828281518110610b5b57610b5b6142e2565b602090810291909101015280610b7081614334565b915050610b2b565b6001600160a01b038516331480610b945750610b9485336107ec565b610bb05760405162461bcd60e51b81526004016108c2906143c0565b610bbd8585858585612280565b5050505050565b600082815260208190526040902060010154610bdf8161243b565b610be98383612445565b505050565b6001600160a01b0381163314610c5e5760405162461bcd60e51b815260206004820152602f60248201527f416363657373436f6e74726f6c3a2063616e206f6e6c792072656e6f756e636560448201526e103937b632b9903337b91039b2b63360891b60648201526084016108c2565b610c688282612467565b5050565b60006009826003811115610c8257610c826143aa565b60048110610c9257610c926142e2565b015492915050565b610cc47f65d7a28e3265b37a6474929f336521b332c1681b933f6cb9f3376673440d862a3361162b565b610d365760405162461bcd60e51b815260206004820152603b60248201527f455243313135355072657365744d696e7465725061757365723a206d7573742060448201527f686176652070617573657220726f6c6520746f20756e7061757365000000000060648201526084016108c2565b610d3e612489565b565b600080836003811115610d5557610d556143aa565b6018546000908152601a60205260408120919250908260048110610d7b57610d7b6142e2565b015460008381526008602052604081205491925090610d9a888561085b565b610da4908461440e565b610dae9190614425565b6000868152601c6020908152604080832087845282528083206001600160a01b038c168452909152902054909150610de6908261430e565b979650505050505050565b60608151835114610e565760405162461bcd60e51b815260206004820152602960248201527f455243313135353a206163636f756e747320616e6420696473206c656e677468604482015268040dad2e6dac2e8c6d60bb1b60648201526084016108c2565b600083516001600160401b03811115610e7157610e71613ac9565b604051908082528060200260200182016040528015610e9a578160200160208202803683370190505b50905060005b8451811015610f1257610ee5858281518110610ebe57610ebe6142e2565b6020026020010151858381518110610ed857610ed86142e2565b602002602001015161085b565b828281518110610ef757610ef76142e2565b6020908102919091010152610f0b81614334565b9050610ea0565b509392505050565b336000610f28828585610d40565b60135460405163a9059cbb60e01b81526001600160a01b0385811660048301526024820184905292935091169063a9059cbb906044016020604051808303816000875af1158015610f7d573d6000803e3d6000fd5b505050506040513d601f19601f82011682018060405250810190610fa19190614447565b506000838152601c602052604081208291866003811115610fc457610fc46143aa565b81526020019081526020016000206000846001600160a01b03166001600160a01b0316815260200190815260200160002060008282546110049190614321565b909155505050505050565b601d602052816000526040600020816004811061091d57600080fd5b601b602052816000526040600020816004811061091d57600080fd5b6110726040518060400160405280600a815260200169189d5e5a5b99c813919560b21b8152506124db565b600081116110e85760405162461bcd60e51b815260206004820152603860248201527f455243313135355072657365744d696e7465725061757365723a20616d6f756e60448201527f74206d7573742062652067726561746572207468616e2030000000000000000060648201526084016108c2565b600060098360038111156110fe576110fe6143aa565b6004811061110e5761110e6142e2565b0154116111835760405162461bcd60e51b815260206004820152603c60248201527f455243313135355072657365744d696e7465725061757365723a20746965722060448201527f7072696365206d7573742062652067726561746572207468616e20300000000060648201526084016108c2565b6000826003811115611197576111976143aa565b905060008260098560038111156111b0576111b06143aa565b600481106111c0576111c06142e2565b01546111cc919061440e565b9050611205604051806040016040528060158152602001747472616e7366657272696e6720757364507269636560581b8152508261251e565b6013546001600160a01b03166323b872dd336040516001600160e01b031960e084901b1681526001600160a01b039091166004820152306024820152604481018490526064016020604051808303816000875af115801561126a573d6000803e3d6000fd5b505050506040513d601f19601f8201168201806040525081019061128e9190614447565b50600061129c826014612563565b90506112dd6040518060400160405280601a81526020017f7472616e7366657272696e6720746f53656c6c466f72536166650000000000008152508261251e565b60115460405163f7e0ba5f60e01b8152600481018390526000916001600160a01b03169063f7e0ba5f906024016020604051808303816000875af1158015611329573d6000803e3d6000fd5b505050506040513d601f19601f8201168201806040525081019061134d9190614464565b905061138a60405180604001604052806019815260200178039b0b332a0b6b7bab73a103932ba3ab93732b210333937b69603d1b8152508261251e565b6011546000906113a5906001600160a01b03168360146125c3565b6013546040516370a0823160e01b81523060048201529192506000916001600160a01b03909116906370a0823190602401602060405180830381865afa1580156113f3573d6000803e3d6000fd5b505050506040513d601f19601f820116820180604052508101906114179190614464565b9050801561147e5760125460405163b6b55f2560e01b8152600481018390526001600160a01b039091169063b6b55f2590602401600060405180830381600087803b15801561146557600080fd5b505af1158015611479573d6000803e3d6000fd5b505050505b611499338789604051806020016040528060008152506127fa565b5050505050505050565b6001600160a01b0383163314806114bf57506114bf83336107ec565b6114db5760405162461bcd60e51b81526004016108c2906143c0565b610be98383836128eb565b6115107f9f2df0fed2c77648de5860a4cc508cd0818c85b8b8a1ab4ceeef8d981c8956a63361162b565b61152c5760405162461bcd60e51b81526004016108c29061434d565b610ae4848484846127fa565b6002816002811061154857600080fd5b01546001600160a01b0316905081565b6115827f65d7a28e3265b37a6474929f336521b332c1681b933f6cb9f3376673440d862a3361162b565b6115f45760405162461bcd60e51b815260206004820152603960248201527f455243313135355072657365744d696e7465725061757365723a206d7573742060448201527f686176652070617573657220726f6c6520746f2070617573650000000000000060648201526084016108c2565b610d3e612a94565b600d8160048110610afa57600080fd5b60008281526001602052604081206116249083612ad1565b9392505050565b6000918252602082815260408084206001600160a01b0393909316845291905290205460ff1690565b610c68338383612add565b60006116897fb53127684a568b3173ae13b9f8a6016e243e63b6e8ee1178d6a717850b5d61035490565b90506001600160a01b0381166116c8576001600160a01b037fb53127684a568b3173ae13b9f8a6016e243e63b6e8ee1178d6a717850b5d6103556116dd565b336001600160a01b038216146116dd57600080fd5b6116e687612bbd565b6116f1600033612bc9565b61171b7f9f2df0fed2c77648de5860a4cc508cd0818c85b8b8a1ab4ceeef8d981c8956a633612bc9565b6117457f65d7a28e3265b37a6474929f336521b332c1681b933f6cb9f3376673440d862a33612bc9565b61175260098760046138ef565b50611760600d8660046138ef565b50601180546001600160a01b0319166001600160a01b038616179055611789601484600261392d565b50611797601683600261392d565b506011546040805163db7a460560e01b81528151611808936001600160a01b03169263db7a460592600480820193918290030181865afa1580156117df573d6000803e3d6000fd5b505050506040513d601f19601f82011682018060405250810190611803919061447d565b612bd3565b601160009054906101000a90046001600160a01b03166001600160a01b031663deef94de6040518163ffffffff1660e01b8152600401602060405180830381865afa15801561185b573d6000803e3d6000fd5b505050506040513d601f19601f8201168201806040525081019061187f91906144df565b601280546001600160a01b0319166001600160a01b039283161790556011546040805163d63a6ccd60e01b81529051919092169163d63a6ccd9160048083019260209291908290030181865afa1580156118dd573d6000803e3d6000fd5b505050506040513d601f19601f8201168201806040525081019061190191906144df565b601380546001600160a01b0319166001600160a01b0392831690811790915560115460405163095ea7b360e01b81529216600483015260001960248301529063095ea7b3906044016020604051808303816000875af1158015611968573d6000803e3d6000fd5b505050506040513d601f19601f8201168201806040525081019061198c9190614447565b5060135460125460405163095ea7b360e01b81526001600160a01b039182166004820152600019602482015291169063095ea7b3906044016020604051808303816000875af11580156119e3573d6000803e3d6000fd5b505050506040513d601f19601f82011682018060405250810190611a079190614447565b5060115460405163095ea7b360e01b81526001600160a01b039091166004820181905260001960248301529063095ea7b3906044016020604051808303816000875af1158015611a5b573d6000803e3d6000fd5b505050506040513d601f19601f82011682018060405250810190611a7f9190614447565b50506000601855505050505050565b60008181526001602052604081206108f090612bdf565b60168160028110610afa57600080fd5b60005b6004811015611b0d5760005b6018548111611afa57611ae8826003811115611ae257611ae26143aa565b82610f1a565b80611af281614334565b915050611ac4565b5080611b0581614334565b915050611ab8565b50565b611b47604051806040016040528060158152602001747472616e7366657272696e6720757364507269636560581b8152508261251e565b6013546001600160a01b03166323b872dd336040516001600160e01b031960e084901b1681526001600160a01b039091166004820152306024820152604481018490526064016020604051808303816000875af1158015611bac573d6000803e3d6000fd5b505050506040513d601f19601f82011682018060405250810190611bd09190614447565b506000611bde600283614425565b90506000611bf6611bef838561430e565b6016612563565b9050611c376040518060400160405280601a81526020017f7472616e7366657272696e6720746f53656c6c466f72536166650000000000008152508261251e565b60115460405163f7e0ba5f60e01b8152600481018390526000916001600160a01b03169063f7e0ba5f906024016020604051808303816000875af1158015611c83573d6000803e3d6000fd5b505050506040513d601f19601f82011682018060405250810190611ca79190614464565b9050611ce460405180604001604052806019815260200178039b0b332a0b6b7bab73a103932ba3ab93732b210333937b69603d1b8152508261251e565b601154600090611cff906001600160a01b03168360166125c3565b601880549192506000611d1183614334565b90915550506018546000908152601960205260408120829055611d32610a57565b905060005b6004811015611dc0576000818152600860209081526040808320546018548452601b90925290912081908360048110611d7257611d726142e2565b015582611d7f828961440e565b611d899190614425565b6018546000908152601a602052604090208360048110611dab57611dab6142e2565b01555080611db881614334565b915050611d37565b506013546040516370a0823160e01b81523060048201526000916001600160a01b0316906370a0823190602401602060405180830381865afa158015611e0a573d6000803e3d6000fd5b505050506040513d601f19601f82011682018060405250810190611e2e9190614464565b90508015611e955760125460405163b6b55f2560e01b8152600481018390526001600160a01b039091169063b6b55f2590602401600060405180830381600087803b158015611e7c57600080fd5b505af1158015611e90573d6000803e3d6000fd5b505050505b50505050505050565b600082815260208190526040902060010154611eb98161243b565b610be98383612467565b60148160028110610afa57600080fd5b60003381805b6004811015611f3b5760005b6018548111611f2857611f0a84836003811115611f0457611f046143aa565b83610d40565b611f149084614321565b925080611f2081614334565b915050611ee5565b5080611f3381614334565b915050611ed9565b5092915050565b6000611f598260038111156106c0576106c06143aa565b15611f7857611f738260038111156106c0576106c06143aa565b611f7b565b60015b6018546000908152601a60205260409020836003811115611f9e57611f9e6143aa565b60048110611fae57611fae6142e2565b0154611fba9190614425565b6009836003811115611fce57611fce6143aa565b60048110611fde57611fde6142e2565b01546108f09190614321565b6001600160a01b038516331480612006575061200685336107ec565b6120225760405162461bcd60e51b81526004016108c2906143c0565b610bbd8585858585612be9565b6001600160a01b03831633148061204b575061204b83336107ec565b6120675760405162461bcd60e51b81526004016108c2906143c0565b610be9838383612d33565b61207c828261162b565b610c68576000828152602081815260408083206001600160a01b03851684529091529020805460ff191660011790556120b23390565b6001600160a01b0316816001600160a01b0316837f2f8788117e7eff1d82e926ec794901d17c78024a50270940304540a733656f0d60405160405180910390a45050565b6000611624836001600160a01b038416612e59565b60006108f082612ea8565b6001600160a01b03841661213c5760405162461bcd60e51b81526004016108c2906144fc565b815183511461215d5760405162461bcd60e51b81526004016108c29061453d565b3361216d81600087878787612ee8565b60005b84518110156122095783818151811061218b5761218b6142e2565b6020026020010151600460008784815181106121a9576121a96142e2565b602002602001015181526020019081526020016000206000886001600160a01b03166001600160a01b0316815260200190815260200160002060008282546121f19190614321565b9091555081905061220181614334565b915050612170565b50846001600160a01b031660006001600160a01b0316826001600160a01b03167f4a39dc06d4c0dbc64b70af90fd698a233a518aa5d07e595d983b8c0526c8f7fb878760405161225a929190614585565b60405180910390a461227181600087878787612ef6565b610bbd81600087878787612fa8565b81518351146122a15760405162461bcd60e51b81526004016108c29061453d565b6001600160a01b0384166122c75760405162461bcd60e51b81526004016108c2906145b3565b336122d6818787878787612ee8565b60005b84518110156123bf5760008582815181106122f6576122f66142e2565b602002602001015190506000858381518110612314576123146142e2565b60209081029190910181015160008481526004835260408082206001600160a01b038e1683529093529190912054909150818110156123655760405162461bcd60e51b81526004016108c2906145f8565b60008381526004602090815260408083206001600160a01b038e8116855292528083208585039055908b168252812080548492906123a4908490614321565b92505081905550505050806123b890614334565b90506122d9565b50846001600160a01b0316866001600160a01b0316826001600160a01b03167f4a39dc06d4c0dbc64b70af90fd698a233a518aa5d07e595d983b8c0526c8f7fb878760405161240f929190614585565b60405180910390a4612425818787878787612ef6565b612433818787878787612fa8565b505050505050565b611b0d8133613103565b61244f8282612072565b6000828152600160205260409020610be990826120f6565b612471828261315c565b6000828152600160205260409020610be990826131c1565b6124916131d6565b6007805460ff191690557f5db9ee0a495bf2e6ff9c91a7834c1ba4fdd244a5e8aa4e537bd38aeae4b073aa335b6040516001600160a01b03909116815260200160405180910390a1565b611b0d816040516024016124ef9190613a9d565b60408051601f198184030181529190526020810180516001600160e01b031663104c13eb60e21b17905261321f565b610c688282604051602401612534929190614642565b60408051601f198184030181529190526020810180516001600160e01b0316632d839cb360e21b17905261321f565b600080805b60028110156125a357838160028110612583576125836142e2565b015461258f9083614321565b91508061259b81614334565b915050612568565b506127106125b1828661440e565b6125bb9190614425565b949350505050565b60006125f66040518060400160405280600f81526020016e446973747269627574696e6720257360881b8152508461251e565b604080518082018252600a81526962616c616e636520257360b01b602082015290516370a0823160e01b815230600482015261268791906001600160a01b038716906370a0823190602401602060405180830381865afa15801561265e573d6000803e3d6000fd5b505050506040513d601f19601f820116820180604052508101906126829190614464565b61251e565b6000805b60028110156127c95760006127108583600281106126ab576126ab6142e2565b01546126b7908861440e565b6126c19190614425565b90506127136040518060400160405280601081526020016f73656e64696e6720257320746f20257360801b8152508460028560028110612703576127036142e2565b01546001600160a01b0316613240565b866001600160a01b031663a9059cbb60028460028110612735576127356142e2565b015460405160e083901b6001600160e01b03191681526001600160a01b039091166004820152602481018490526044016020604051808303816000875af1158015612784573d6000803e3d6000fd5b505050506040513d601f19601f820116820180604052508101906127a89190614447565b506127b38184614321565b92505080806127c190614334565b91505061268b565b506125bb6040518060400160405280600e81526020016d446973747269627574656420257360901b8152508261251e565b6001600160a01b0384166128205760405162461bcd60e51b81526004016108c2906144fc565b33600061282c85613287565b9050600061283985613287565b905061284a83600089858589612ee8565b60008681526004602090815260408083206001600160a01b038b1684529091528120805487929061287c908490614321565b909155505060408051878152602081018790526001600160a01b03808a1692600092918716917fc3d58168c5ae7397731d063d5bbf3d657854427343f4c083240f7aacaa2d0f62910160405180910390a46128dc83600089858589612ef6565b611e95836000898989896132d2565b6001600160a01b0383166129115760405162461bcd60e51b81526004016108c290614664565b80518251146129325760405162461bcd60e51b81526004016108c29061453d565b600033905061295581856000868660405180602001604052806000815250612ee8565b60005b8351811015612a1d576000848281518110612975576129756142e2565b602002602001015190506000848381518110612993576129936142e2565b60209081029190910181015160008481526004835260408082206001600160a01b038c1683529093529190912054909150818110156129e45760405162461bcd60e51b81526004016108c2906146a7565b60009283526004602090815260408085206001600160a01b038b1686529091529092209103905580612a1581614334565b915050612958565b5060006001600160a01b0316846001600160a01b0316826001600160a01b03167f4a39dc06d4c0dbc64b70af90fd698a233a518aa5d07e595d983b8c0526c8f7fb8686604051612a6e929190614585565b60405180910390a4610ae481856000868660405180602001604052806000815250612ef6565b612a9c61338d565b6007805460ff191660011790557f62e78cea01bee320cd4e420270b5ea74000d11b0c9f74754ebdbfc544b05a2586124be3390565b600061162483836133d3565b816001600160a01b0316836001600160a01b031603612b505760405162461bcd60e51b815260206004820152602960248201527f455243313135353a2073657474696e6720617070726f76616c20737461747573604482015268103337b91039b2b63360b91b60648201526084016108c2565b6001600160a01b03838116600081815260056020908152604080832094871680845294825291829020805460ff191686151590811790915591519182527f17307eab39ab6107e8899845ad3d59bd9653f200f220920489ca2b5937696c31910160405180910390a3505050565b6006610c688282614731565b610c688282612445565b610c686002828161395a565b60006108f0825490565b6001600160a01b038416612c0f5760405162461bcd60e51b81526004016108c2906145b3565b336000612c1b85613287565b90506000612c2885613287565b9050612c38838989858589612ee8565b60008681526004602090815260408083206001600160a01b038c16845290915290205485811015612c7b5760405162461bcd60e51b81526004016108c2906145f8565b60008781526004602090815260408083206001600160a01b038d8116855292528083208985039055908a16825281208054889290612cba908490614321565b909155505060408051888152602081018890526001600160a01b03808b16928c821692918816917fc3d58168c5ae7397731d063d5bbf3d657854427343f4c083240f7aacaa2d0f62910160405180910390a4612d1a848a8a86868a612ef6565b612d28848a8a8a8a8a6132d2565b505050505050505050565b6001600160a01b038316612d595760405162461bcd60e51b81526004016108c290614664565b336000612d6584613287565b90506000612d7284613287565b9050612d9283876000858560405180602001604052806000815250612ee8565b60008581526004602090815260408083206001600160a01b038a16845290915290205484811015612dd55760405162461bcd60e51b81526004016108c2906146a7565b60008681526004602090815260408083206001600160a01b038b81168086529184528285208a8703905582518b81529384018a90529092908816917fc3d58168c5ae7397731d063d5bbf3d657854427343f4c083240f7aacaa2d0f62910160405180910390a4611e9584886000868660405180602001604052806000815250612ef6565b6000818152600183016020526040812054612ea0575081546001818101845560008481526020808220909301849055845484825282860190935260409020919091556108f0565b5060006108f0565b60006001600160e01b03198216636cdb3d1360e11b1480612ed957506001600160e01b031982166303a24d0760e21b145b806108f057506108f0826133fd565b612433868686868686613422565b600d83600081518110612f0b57612f0b6142e2565b602002602001015160048110612f2357612f236142e2565b0154612f5584600081518110612f3b57612f3b6142e2565b602002602001015160009081526008602052604090205490565b1115612fa35760405162461bcd60e51b815260206004820152601b60248201527f536166654e46543a206d617820737570706c792072656163686564000000000060448201526064016108c2565b612433565b6001600160a01b0384163b156124335760405163bc197c8160e01b81526001600160a01b0385169063bc197c8190612fec90899089908890889088906004016147f0565b6020604051808303816000875af1925050508015613027575060408051601f3d908101601f191682019092526130249181019061484e565b60015b6130d35761303361486b565b806308c379a00361306c5750613047614887565b80613052575061306e565b8060405162461bcd60e51b81526004016108c29190613a9d565b505b60405162461bcd60e51b815260206004820152603460248201527f455243313135353a207472616e7366657220746f206e6f6e2d455243313135356044820152732932b1b2b4bb32b91034b6b83632b6b2b73a32b960611b60648201526084016108c2565b6001600160e01b0319811663bc197c8160e01b14611e955760405162461bcd60e51b81526004016108c290614910565b61310d828261162b565b610c685761311a816135a9565b6131258360206135bb565b604051602001613136929190614958565b60408051601f198184030181529082905262461bcd60e51b82526108c291600401613a9d565b613166828261162b565b15610c68576000828152602081815260408083206001600160a01b0385168085529252808320805460ff1916905551339285917ff6391f5c32d9c69d2a47ea670b442974b53935d1edc7fd64eb21e047a839171b9190a45050565b6000611624836001600160a01b038416613756565b60075460ff16610d3e5760405162461bcd60e51b815260206004820152601460248201527314185d5cd8589b194e881b9bdd081c185d5cd95960621b60448201526064016108c2565b80516a636f6e736f6c652e6c6f67602083016000808483855afa5050505050565b610be9838383604051602401613258939291906149cd565b60408051601f198184030181529190526020810180516001600160e01b031663038fd88960e31b17905261321f565b604080516001808252818301909252606091600091906020808301908036833701905050905082816000815181106132c1576132c16142e2565b602090810291909101015292915050565b6001600160a01b0384163b156124335760405163f23a6e6160e01b81526001600160a01b0385169063f23a6e619061331690899089908890889088906004016149ff565b6020604051808303816000875af1925050508015613351575060408051601f3d908101601f1916820190925261334e9181019061484e565b60015b61335d5761303361486b565b6001600160e01b0319811663f23a6e6160e01b14611e955760405162461bcd60e51b81526004016108c290614910565b60075460ff1615610d3e5760405162461bcd60e51b815260206004820152601060248201526f14185d5cd8589b194e881c185d5cd95960821b60448201526064016108c2565b60008260000182815481106133ea576133ea6142e2565b9060005260206000200154905092915050565b60006001600160e01b03198216635a05180f60e01b14806108f057506108f082613849565b61343086868686868661387e565b6001600160a01b0385166134b75760005b83518110156134b55782818151811061345c5761345c6142e2565b60200260200101516008600086848151811061347a5761347a6142e2565b60200260200101518152602001908152602001600020600082825461349f9190614321565b909155506134ae905081614334565b9050613441565b505b6001600160a01b0384166124335760005b8351811015611e955760008482815181106134e5576134e56142e2565b602002602001015190506000848381518110613503576135036142e2565b60200260200101519050600060086000848152602001908152602001600020549050818110156135865760405162461bcd60e51b815260206004820152602860248201527f455243313135353a206275726e20616d6f756e74206578636565647320746f74604482015267616c537570706c7960c01b60648201526084016108c2565b600092835260086020526040909220910390556135a281614334565b90506134c8565b60606108f06001600160a01b03831660145b606060006135ca83600261440e565b6135d5906002614321565b6001600160401b038111156135ec576135ec613ac9565b6040519080825280601f01601f191660200182016040528015613616576020820181803683370190505b509050600360fc1b81600081518110613631576136316142e2565b60200101906001600160f81b031916908160001a905350600f60fb1b81600181518110613660576136606142e2565b60200101906001600160f81b031916908160001a905350600061368484600261440e565b61368f906001614321565b90505b6001811115613707576f181899199a1a9b1b9c1cb0b131b232b360811b85600f16601081106136c3576136c36142e2565b1a60f81b8282815181106136d9576136d96142e2565b60200101906001600160f81b031916908160001a90535060049490941c9361370081614a37565b9050613692565b5083156116245760405162461bcd60e51b815260206004820181905260248201527f537472696e67733a20686578206c656e67746820696e73756666696369656e7460448201526064016108c2565b6000818152600183016020526040812054801561383f57600061377a60018361430e565b855490915060009061378e9060019061430e565b90508181146137f35760008660000182815481106137ae576137ae6142e2565b90600052602060002001549050808760000184815481106137d1576137d16142e2565b6000918252602080832090910192909255918252600188019052604090208390555b855486908061380457613804614a4e565b6001900381819060005260206000200160009055905585600101600086815260200190815260200160002060009055600193505050506108f0565b60009150506108f0565b60006001600160e01b03198216637965db0b60e01b14806108f057506301ffc9a760e01b6001600160e01b03198316146108f0565b61243386868686868660075460ff16156124335760405162461bcd60e51b815260206004820152602c60248201527f455243313135355061757361626c653a20746f6b656e207472616e736665722060448201526b1dda1a5b19481c185d5cd95960a21b60648201526084016108c2565b826004810192821561391d579160200282015b8281111561391d578251825591602001919060010190613902565b506139299291506139a2565b5090565b826002810192821561391d579160200282018281111561391d578251825591602001919060010190613902565b826002810192821561391d579160200282015b8281111561391d57825182546001600160a01b0319166001600160a01b0390911617825560209092019160019091019061396d565b5b8082111561392957600081556001016139a3565b6001600160a01b0381168114611b0d57600080fd5b600080604083850312156139df57600080fd5b82356139ea816139b7565b946020939093013593505050565b6001600160e01b031981168114611b0d57600080fd5b600060208284031215613a2057600080fd5b8135611624816139f8565b60008060408385031215613a3e57600080fd5b50508035926020909101359150565b60005b83811015613a68578181015183820152602001613a50565b50506000910152565b60008151808452613a89816020860160208601613a4d565b601f01601f19169290920160200192915050565b6020815260006116246020830184613a71565b600060208284031215613ac257600080fd5b5035919050565b634e487b7160e01b600052604160045260246000fd5b604081018181106001600160401b0382111715613afe57613afe613ac9565b60405250565b601f8201601f191681016001600160401b0381118282101715613b2957613b29613ac9565b6040525050565b60006001600160401b03821115613b4957613b49613ac9565b5060051b60200190565b600082601f830112613b6457600080fd5b81356020613b7182613b30565b604051613b7e8282613b04565b83815260059390931b8501820192828101915086841115613b9e57600080fd5b8286015b84811015613bb95780358352918301918301613ba2565b509695505050505050565b60006001600160401b03831115613bdd57613bdd613ac9565b604051613bf4601f8501601f191660200182613b04565b809150838152848484011115613c0957600080fd5b83836020830137600060208583010152509392505050565b600082601f830112613c3257600080fd5b61162483833560208501613bc4565b60008060008060808587031215613c5757600080fd5b8435613c62816139b7565b935060208501356001600160401b0380821115613c7e57600080fd5b613c8a88838901613b53565b94506040870135915080821115613ca057600080fd5b613cac88838901613b53565b93506060870135915080821115613cc257600080fd5b50613ccf87828801613c21565b91505092959194509250565b600081518084526020808501945080840160005b83811015613d0b57815187529582019590820190600101613cef565b509495945050505050565b6020815260006116246020830184613cdb565b600080600080600060a08688031215613d4157600080fd5b8535613d4c816139b7565b94506020860135613d5c816139b7565b935060408601356001600160401b0380821115613d7857600080fd5b613d8489838a01613b53565b94506060880135915080821115613d9a57600080fd5b613da689838a01613b53565b93506080880135915080821115613dbc57600080fd5b50613dc988828901613c21565b9150509295509295909350565b60008060408385031215613de957600080fd5b823591506020830135613dfb816139b7565b809150509250929050565b803560048110613e1557600080fd5b919050565b600060208284031215613e2c57600080fd5b61162482613e06565b600080600060608486031215613e4a57600080fd5b8335613e55816139b7565b9250613e6360208501613e06565b9150604084013590509250925092565b60008060408385031215613e8657600080fd5b82356001600160401b0380821115613e9d57600080fd5b818501915085601f830112613eb157600080fd5b81356020613ebe82613b30565b604051613ecb8282613b04565b83815260059390931b8501820192828101915089841115613eeb57600080fd5b948201945b83861015613f12578535613f03816139b7565b82529482019490820190613ef0565b96505086013592505080821115613f2857600080fd5b50613f3585828601613b53565b9150509250929050565b60008060408385031215613f5257600080fd5b6139ea83613e06565b600080600060608486031215613f7057600080fd5b8335613f7b816139b7565b925060208401356001600160401b0380821115613f9757600080fd5b613fa387838801613b53565b93506040860135915080821115613fb957600080fd5b50613fc686828701613b53565b9150509250925092565b60008060008060808587031215613fe657600080fd5b8435613ff1816139b7565b9350602085013592506040850135915060608501356001600160401b0381111561401a57600080fd5b613ccf87828801613c21565b8015158114611b0d57600080fd5b6000806040838503121561404757600080fd5b8235614052816139b7565b91506020830135613dfb81614026565b600082601f83011261407357600080fd5b604051608081018181106001600160401b038211171561409557614095613ac9565b6040528060808401858111156140aa57600080fd5b845b818110156140c45780358352602092830192016140ac565b509195945050505050565b600082601f8301126140e057600080fd5b6040516140ec81613adf565b8060408401858111156140aa57600080fd5b6000806000806000806101c0878903121561411857600080fd5b86356001600160401b0381111561412e57600080fd5b8701601f8101891361413f57600080fd5b61414e89823560208401613bc4565b96505061415e8860208901614062565b945061416d8860a08901614062565b935061012087013561417e816139b7565b925061418e8861014089016140cf565b915061419e8861018089016140cf565b90509295509295509295565b6000806000606084860312156141bf57600080fd5b833592506020840135915060408401356141d8816139b7565b809150509250925092565b600080604083850312156141f657600080fd5b8235614201816139b7565b91506020830135613dfb816139b7565b600080600080600060a0868803121561422957600080fd5b8535614234816139b7565b94506020860135614244816139b7565b9350604086013592506060860135915060808601356001600160401b0381111561426d57600080fd5b613dc988828901613c21565b60008060006060848603121561428e57600080fd5b8335614299816139b7565b95602085013595506040909401359392505050565b600181811c908216806142c257607f821691505b602082108103610a5157634e487b7160e01b600052602260045260246000fd5b634e487b7160e01b600052603260045260246000fd5b634e487b7160e01b600052601160045260246000fd5b818103818111156108f0576108f06142f8565b808201808211156108f0576108f06142f8565b600060018201614346576143466142f8565b5060010190565b60208082526038908201527f455243313135355072657365744d696e7465725061757365723a206d7573742060408201527f68617665206d696e74657220726f6c6520746f206d696e740000000000000000606082015260800190565b634e487b7160e01b600052602160045260246000fd5b6020808252602e908201527f455243313135353a2063616c6c6572206973206e6f7420746f6b656e206f776e60408201526d195c881bdc88185c1c1c9bdd995960921b606082015260800190565b80820281158282048414176108f0576108f06142f8565b60008261444257634e487b7160e01b600052601260045260246000fd5b500490565b60006020828403121561445957600080fd5b815161162481614026565b60006020828403121561447657600080fd5b5051919050565b60006040828403121561448f57600080fd5b82601f83011261449e57600080fd5b6040516144aa81613adf565b8060408401858111156144bc57600080fd5b845b818110156140c45780516144d1816139b7565b8352602092830192016144be565b6000602082840312156144f157600080fd5b8151611624816139b7565b60208082526021908201527f455243313135353a206d696e7420746f20746865207a65726f206164647265736040820152607360f81b606082015260800190565b60208082526028908201527f455243313135353a2069647320616e6420616d6f756e7473206c656e677468206040820152670dad2e6dac2e8c6d60c31b606082015260800190565b6040815260006145986040830185613cdb565b82810360208401526145aa8185613cdb565b95945050505050565b60208082526025908201527f455243313135353a207472616e7366657220746f20746865207a65726f206164604082015264647265737360d81b606082015260800190565b6020808252602a908201527f455243313135353a20696e73756666696369656e742062616c616e636520666f60408201526939103a3930b739b332b960b11b606082015260800190565b6040815260006146556040830185613a71565b90508260208301529392505050565b60208082526023908201527f455243313135353a206275726e2066726f6d20746865207a65726f206164647260408201526265737360e81b606082015260800190565b60208082526024908201527f455243313135353a206275726e20616d6f756e7420657863656564732062616c604082015263616e636560e01b606082015260800190565b601f821115610be957600081815260208120601f850160051c810160208610156147125750805b601f850160051c820191505b818110156124335782815560010161471e565b81516001600160401b0381111561474a5761474a613ac9565b61475e8161475884546142ae565b846146eb565b602080601f831160018114614793576000841561477b5750858301515b600019600386901b1c1916600185901b178555612433565b600085815260208120601f198616915b828110156147c2578886015182559484019460019091019084016147a3565b50858210156147e05787850151600019600388901b60f8161c191681555b5050505050600190811b01905550565b60006001600160a01b03808816835280871660208401525060a0604083015261481c60a0830186613cdb565b828103606084015261482e8186613cdb565b905082810360808401526148428185613a71565b98975050505050505050565b60006020828403121561486057600080fd5b8151611624816139f8565b600060033d11156148845760046000803e5060005160e01c5b90565b600060443d10156148955790565b6040516003193d81016004833e81513d6001600160401b0381602484011181841117156148c457505050505090565b82850191508151818111156148dc5750505050505090565b843d87010160208285010111156148f65750505050505090565b61490560208286010187613b04565b509095945050505050565b60208082526028908201527f455243313135353a204552433131353552656365697665722072656a656374656040820152676420746f6b656e7360c01b606082015260800190565b7f416363657373436f6e74726f6c3a206163636f756e7420000000000000000000815260008351614990816017850160208801613a4d565b7001034b99036b4b9b9b4b733903937b6329607d1b60179184019182015283516149c1816028840160208801613a4d565b01602801949350505050565b6060815260006149e06060830186613a71565b90508360208301526001600160a01b0383166040830152949350505050565b60006001600160a01b03808816835280871660208401525084604083015283606083015260a06080830152610de660a0830184613a71565b600081614a4657614a466142f8565b506000190190565b634e487b7160e01b600052603160045260246000fdfea2646970667358221220b1b32caf6fbf544df4c98328a4bf5ec5a366647ddba043c9ed438e7defc1139e64736f6c63430008110033b53127684a568b3173ae13b9f8a6016e243e63b6e8ee1178d6a717850b5d610365d7a28e3265b37a6474929f336521b332c1681b933f6cb9f3376673440d862a9f2df0fed2c77648de5860a4cc508cd0818c85b8b8a1ab4ceeef8d981c8956a6",
  "devdoc": {
    "author": "crypt0grapher",
    "kind": "dev",
    "methods": {
      "balanceOf(address,uint256)": {
        "details": "See {IERC1155-balanceOf}. Requirements: - `account` cannot be the zero address."
      },
      "balanceOfBatch(address[],uint256[])": {
        "details": "See {IERC1155-balanceOfBatch}. Requirements: - `accounts` and `ids` must have the same length."
      },
      "buy(uint8,uint256)": {
        "params": {
          "_amount": "amount of USD to spend",
          "_tier": "tier of the NFT to purchase which stands for ERC1155 token id [0..3]"
        }
      },
      "distributeProfit(uint256)": {
        "params": {
          "_amountUSD": "amount of USD to distribute"
        }
      },
      "exists(uint256)": {
        "details": "Indicates whether any token exist with a given id, or not."
      },
      "getFairPrice(uint8)": {
        "returns": {
          "_0": "counts not only the sale price but also share of the profit for the tier"
        }
      },
      "getPrice(uint8)": {
        "returns": {
          "_0": "returns Rewards set for distribution"
        }
      },
      "getRoleAdmin(bytes32)": {
        "details": "Returns the admin role that controls `role`. See {grantRole} and {revokeRole}. To change a role's admin, use {_setRoleAdmin}."
      },
      "getRoleMember(bytes32,uint256)": {
        "details": "Returns one of the accounts that have `role`. `index` must be a value between 0 and {getRoleMemberCount}, non-inclusive. Role bearers are not sorted in any particular way, and their ordering may change at any point. WARNING: When using {getRoleMember} and {getRoleMemberCount}, make sure you perform all queries on the same block. See the following https://forum.openzeppelin.com/t/iterating-over-elements-on-enumerableset-in-openzeppelin-contracts/2296[forum post] for more information."
      },
      "getRoleMemberCount(bytes32)": {
        "details": "Returns the number of accounts that have `role`. Can be used together with {getRoleMember} to enumerate all bearers of a role."
      },
      "getUnclaimedRewards()": {
        "returns": {
          "_0": "amount of the rewards not yet distributed to NFT holders"
        }
      },
      "grantRole(bytes32,address)": {
        "details": "Grants `role` to `account`. If `account` had not been already granted `role`, emits a {RoleGranted} event. Requirements: - the caller must have ``role``'s admin role. May emit a {RoleGranted} event."
      },
      "hasRole(bytes32,address)": {
        "details": "Returns `true` if `account` has been granted `role`."
      },
      "isApprovedForAll(address,address)": {
        "details": "See {IERC1155-isApprovedForAll}."
      },
      "mint(address,uint256,uint256,bytes)": {
        "details": "Creates `amount` new tokens for `to`, of token type `id`. See {ERC1155-_mint}. Requirements: - the caller must have the `MINTER_ROLE`."
      },
      "mintBatch(address,uint256[],uint256[],bytes)": {
        "details": "xref:ROOT:erc1155.adoc#batch-operations[Batched] variant of {mint}."
      },
      "pause()": {
        "details": "Pauses all token transfers. See {ERC1155Pausable} and {Pausable-_pause}. Requirements: - the caller must have the `PAUSER_ROLE`."
      },
      "paused()": {
        "details": "Returns true if the contract is paused, and false otherwise."
      },
      "renounceRole(bytes32,address)": {
        "details": "Revokes `role` from the calling account. Roles are often managed via {grantRole} and {revokeRole}: this function's purpose is to provide a mechanism for accounts to lose their privileges if they are compromised (such as when a trusted device is misplaced). If the calling account had been revoked `role`, emits a {RoleRevoked} event. Requirements: - the caller must be `account`. May emit a {RoleRevoked} event."
      },
      "revokeRole(bytes32,address)": {
        "details": "Revokes `role` from `account`. If `account` had been granted `role`, emits a {RoleRevoked} event. Requirements: - the caller must have ``role``'s admin role. May emit a {RoleRevoked} event."
      },
      "safeBatchTransferFrom(address,address,uint256[],uint256[],bytes)": {
        "details": "See {IERC1155-safeBatchTransferFrom}."
      },
      "safeTransferFrom(address,address,uint256,uint256,bytes)": {
        "details": "See {IERC1155-safeTransferFrom}."
      },
      "setApprovalForAll(address,bool)": {
        "details": "See {IERC1155-setApprovalForAll}."
      },
      "totalSupply(uint256)": {
        "details": "Total amount of tokens in with a given id."
      },
      "unpause()": {
        "details": "Unpauses all token transfers. See {ERC1155Pausable} and {Pausable-_unpause}. Requirements: - the caller must have the `PAUSER_ROLE`."
      },
      "uri(uint256)": {
        "details": "See {IERC1155MetadataURI-uri}. This implementation returns the same URI for *all* token types. It relies on the token type ID substitution mechanism https://eips.ethereum.org/EIPS/eip-1155#metadata[defined in the EIP]. Clients calling this function must replace the `\\{id\\}` substring with the actual token type ID."
      }
    },
    "stateVariables": {
      "currentDistributionId": {
        "return": "current distribution number, the one that assigned to the latest distribution",
        "returns": {
          "_0": "current distribution number, the one that assigned to the latest distribution"
        }
      }
    },
    "title": "Safe NFT",
    "version": 1
  },
  "userdoc": {
    "kind": "user",
    "methods": {
      "buy(uint8,uint256)": {
        "notice": "purchase Safe NFT for exact amount of USD"
      },
      "claimReward(uint8,uint256)": {
        "notice": "the function calculates the amount of the reward for the NFT holder and transfers it to the NFT holder"
      },
      "claimRewardsTotal()": {
        "notice": "the function calculates the amount of the reward for the NFT holder and transfers it to the NFT holder"
      },
      "currentDistributionId()": {
        "notice": "gets the current distribution number"
      },
      "distributeProfit(uint256)": {
        "notice": "distribute profit among the NFT holders, the function fixes the amount of the reward and the NFT holders and their shares at the moment of the call. It does not transfer the reward to the NFT holders, it just records the amount of the reward for each NFT holder."
      },
      "getFairPrice(uint8)": {
        "notice": "gets NFT fair price in USD"
      },
      "getFairPriceTable()": {
        "notice": "gets NFT price for all tiers in USD"
      },
      "getMyPendingRewardsTotal()": {
        "notice": "returns the amount of the reward share for the NFT holder"
      },
      "getPendingRewards(address,uint8,uint256)": {
        "notice": "returns the amount of the reward share for the NFT holder"
      },
      "getPrice(uint8)": {
        "notice": "gets NFT price in USD"
      },
      "getTreasuryCost()": {
        "notice": "gets the total usd value of the NFT minted"
      },
      "getUnclaimedRewards()": {
        "notice": "undistributed profit amount in USD"
      },
      "percentOfTreasury()": {
        "notice": "gets the share of the NFTs of the caller to the treasury"
      }
    },
    "notice": "Safe Yields NFT token based on ERC1155 standard, id [0..3] represents one of the 4 tiers",
    "version": 1
  },
  "storageLayout": {
    "storage": [
      {
        "astId": 24,
        "contract": "contracts/SafeNFT.sol:SafeNFT",
        "label": "_roles",
        "offset": 0,
        "slot": "0",
        "type": "t_mapping(t_bytes32,t_struct(RoleData)19_storage)"
      },
      {
        "astId": 334,
        "contract": "contracts/SafeNFT.sol:SafeNFT",
        "label": "_roleMembers",
        "offset": 0,
        "slot": "1",
        "type": "t_mapping(t_bytes32,t_struct(AddressSet)4376_storage)"
      },
      {
        "astId": 6892,
        "contract": "contracts/SafeNFT.sol:SafeNFT",
        "label": "wallets",
        "offset": 0,
        "slot": "2",
        "type": "t_array(t_address)2_storage"
      },
      {
        "astId": 672,
        "contract": "contracts/SafeNFT.sol:SafeNFT",
        "label": "_balances",
        "offset": 0,
        "slot": "4",
        "type": "t_mapping(t_uint256,t_mapping(t_address,t_uint256))"
      },
      {
        "astId": 678,
        "contract": "contracts/SafeNFT.sol:SafeNFT",
        "label": "_operatorApprovals",
        "offset": 0,
        "slot": "5",
        "type": "t_mapping(t_address,t_mapping(t_address,t_bool))"
      },
      {
        "astId": 680,
        "contract": "contracts/SafeNFT.sol:SafeNFT",
        "label": "_uri",
        "offset": 0,
        "slot": "6",
        "type": "t_string_storage"
      },
      {
        "astId": 556,
        "contract": "contracts/SafeNFT.sol:SafeNFT",
        "label": "_paused",
        "offset": 0,
        "slot": "7",
        "type": "t_bool"
      },
      {
        "astId": 2159,
        "contract": "contracts/SafeNFT.sol:SafeNFT",
        "label": "_totalSupply",
        "offset": 0,
        "slot": "8",
        "type": "t_mapping(t_uint256,t_uint256)"
      },
      {
        "astId": 4692,
        "contract": "contracts/SafeNFT.sol:SafeNFT",
        "label": "price",
        "offset": 0,
        "slot": "9",
        "type": "t_array(t_uint256)4_storage"
      },
      {
        "astId": 4696,
        "contract": "contracts/SafeNFT.sol:SafeNFT",
        "label": "maxSupply",
        "offset": 0,
        "slot": "13",
        "type": "t_array(t_uint256)4_storage"
      },
      {
        "astId": 4699,
        "contract": "contracts/SafeNFT.sol:SafeNFT",
        "label": "safeToken",
        "offset": 0,
        "slot": "17",
        "type": "t_contract(ISafeToken)7231"
      },
      {
        "astId": 4702,
        "contract": "contracts/SafeNFT.sol:SafeNFT",
        "label": "safeVault",
        "offset": 0,
        "slot": "18",
        "type": "t_contract(ISafeVault)7252"
      },
      {
        "astId": 4705,
        "contract": "contracts/SafeNFT.sol:SafeNFT",
        "label": "usd",
        "offset": 0,
        "slot": "19",
        "type": "t_contract(IERC20)2597"
      },
      {
        "astId": 4712,
        "contract": "contracts/SafeNFT.sol:SafeNFT",
        "label": "priceDistributionOnMint",
        "offset": 0,
        "slot": "20",
        "type": "t_array(t_uint256)2_storage"
      },
      {
        "astId": 4716,
        "contract": "contracts/SafeNFT.sol:SafeNFT",
        "label": "profitDistribution",
        "offset": 0,
        "slot": "22",
        "type": "t_array(t_uint256)2_storage"
      },
      {
        "astId": 4718,
        "contract": "contracts/SafeNFT.sol:SafeNFT",
        "label": "currentDistributionId",
        "offset": 0,
        "slot": "24",
        "type": "t_uint256"
      },
      {
        "astId": 4722,
        "contract": "contracts/SafeNFT.sol:SafeNFT",
        "label": "distributionOfProfit",
        "offset": 0,
        "slot": "25",
        "type": "t_mapping(t_uint256,t_uint256)"
      },
      {
        "astId": 4728,
        "contract": "contracts/SafeNFT.sol:SafeNFT",
        "label": "distributionByTier",
        "offset": 0,
        "slot": "26",
        "type": "t_mapping(t_uint256,t_array(t_uint256)4_storage)"
      },
      {
        "astId": 4734,
        "contract": "contracts/SafeNFT.sol:SafeNFT",
        "label": "distributionTotalSupplySnapshot",
        "offset": 0,
        "slot": "27",
        "type": "t_mapping(t_uint256,t_array(t_uint256)4_storage)"
      },
      {
        "astId": 4742,
        "contract": "contracts/SafeNFT.sol:SafeNFT",
        "label": "alreadyDistributedAmount",
        "offset": 0,
        "slot": "28",
        "type": "t_mapping(t_uint256,t_mapping(t_uint256,t_mapping(t_address,t_uint256)))"
      },
      {
        "astId": 4748,
        "contract": "contracts/SafeNFT.sol:SafeNFT",
        "label": "alreadyDistributedAmountByTier",
        "offset": 0,
        "slot": "29",
        "type": "t_mapping(t_uint256,t_array(t_uint256)4_storage)"
      }
    ],
    "types": {
      "t_address": {
        "encoding": "inplace",
        "label": "address",
        "numberOfBytes": "20"
      },
      "t_array(t_address)2_storage": {
        "base": "t_address",
        "encoding": "inplace",
        "label": "address[2]",
        "numberOfBytes": "64"
      },
      "t_array(t_bytes32)dyn_storage": {
        "base": "t_bytes32",
        "encoding": "dynamic_array",
        "label": "bytes32[]",
        "numberOfBytes": "32"
      },
      "t_array(t_uint256)2_storage": {
        "base": "t_uint256",
        "encoding": "inplace",
        "label": "uint256[2]",
        "numberOfBytes": "64"
      },
      "t_array(t_uint256)4_storage": {
        "base": "t_uint256",
        "encoding": "inplace",
        "label": "uint256[4]",
        "numberOfBytes": "128"
      },
      "t_bool": {
        "encoding": "inplace",
        "label": "bool",
        "numberOfBytes": "1"
      },
      "t_bytes32": {
        "encoding": "inplace",
        "label": "bytes32",
        "numberOfBytes": "32"
      },
      "t_contract(IERC20)2597": {
        "encoding": "inplace",
        "label": "contract IERC20",
        "numberOfBytes": "20"
      },
      "t_contract(ISafeToken)7231": {
        "encoding": "inplace",
        "label": "contract ISafeToken",
        "numberOfBytes": "20"
      },
      "t_contract(ISafeVault)7252": {
        "encoding": "inplace",
        "label": "contract ISafeVault",
        "numberOfBytes": "20"
      },
      "t_mapping(t_address,t_bool)": {
        "encoding": "mapping",
        "key": "t_address",
        "label": "mapping(address => bool)",
        "numberOfBytes": "32",
        "value": "t_bool"
      },
      "t_mapping(t_address,t_mapping(t_address,t_bool))": {
        "encoding": "mapping",
        "key": "t_address",
        "label": "mapping(address => mapping(address => bool))",
        "numberOfBytes": "32",
        "value": "t_mapping(t_address,t_bool)"
      },
      "t_mapping(t_address,t_uint256)": {
        "encoding": "mapping",
        "key": "t_address",
        "label": "mapping(address => uint256)",
        "numberOfBytes": "32",
        "value": "t_uint256"
      },
      "t_mapping(t_bytes32,t_struct(AddressSet)4376_storage)": {
        "encoding": "mapping",
        "key": "t_bytes32",
        "label": "mapping(bytes32 => struct EnumerableSet.AddressSet)",
        "numberOfBytes": "32",
        "value": "t_struct(AddressSet)4376_storage"
      },
      "t_mapping(t_bytes32,t_struct(RoleData)19_storage)": {
        "encoding": "mapping",
        "key": "t_bytes32",
        "label": "mapping(bytes32 => struct AccessControl.RoleData)",
        "numberOfBytes": "32",
        "value": "t_struct(RoleData)19_storage"
      },
      "t_mapping(t_bytes32,t_uint256)": {
        "encoding": "mapping",
        "key": "t_bytes32",
        "label": "mapping(bytes32 => uint256)",
        "numberOfBytes": "32",
        "value": "t_uint256"
      },
      "t_mapping(t_uint256,t_array(t_uint256)4_storage)": {
        "encoding": "mapping",
        "key": "t_uint256",
        "label": "mapping(uint256 => uint256[4])",
        "numberOfBytes": "32",
        "value": "t_array(t_uint256)4_storage"
      },
      "t_mapping(t_uint256,t_mapping(t_address,t_uint256))": {
        "encoding": "mapping",
        "key": "t_uint256",
        "label": "mapping(uint256 => mapping(address => uint256))",
        "numberOfBytes": "32",
        "value": "t_mapping(t_address,t_uint256)"
      },
      "t_mapping(t_uint256,t_mapping(t_uint256,t_mapping(t_address,t_uint256)))": {
        "encoding": "mapping",
        "key": "t_uint256",
        "label": "mapping(uint256 => mapping(uint256 => mapping(address => uint256)))",
        "numberOfBytes": "32",
        "value": "t_mapping(t_uint256,t_mapping(t_address,t_uint256))"
      },
      "t_mapping(t_uint256,t_uint256)": {
        "encoding": "mapping",
        "key": "t_uint256",
        "label": "mapping(uint256 => uint256)",
        "numberOfBytes": "32",
        "value": "t_uint256"
      },
      "t_string_storage": {
        "encoding": "bytes",
        "label": "string",
        "numberOfBytes": "32"
      },
      "t_struct(AddressSet)4376_storage": {
        "encoding": "inplace",
        "label": "struct EnumerableSet.AddressSet",
        "members": [
          {
            "astId": 4375,
            "contract": "contracts/SafeNFT.sol:SafeNFT",
            "label": "_inner",
            "offset": 0,
            "slot": "0",
            "type": "t_struct(Set)4061_storage"
          }
        ],
        "numberOfBytes": "64"
      },
      "t_struct(RoleData)19_storage": {
        "encoding": "inplace",
        "label": "struct AccessControl.RoleData",
        "members": [
          {
            "astId": 16,
            "contract": "contracts/SafeNFT.sol:SafeNFT",
            "label": "members",
            "offset": 0,
            "slot": "0",
            "type": "t_mapping(t_address,t_bool)"
          },
          {
            "astId": 18,
            "contract": "contracts/SafeNFT.sol:SafeNFT",
            "label": "adminRole",
            "offset": 0,
            "slot": "1",
            "type": "t_bytes32"
          }
        ],
        "numberOfBytes": "64"
      },
      "t_struct(Set)4061_storage": {
        "encoding": "inplace",
        "label": "struct EnumerableSet.Set",
        "members": [
          {
            "astId": 4056,
            "contract": "contracts/SafeNFT.sol:SafeNFT",
            "label": "_values",
            "offset": 0,
            "slot": "0",
            "type": "t_array(t_bytes32)dyn_storage"
          },
          {
            "astId": 4060,
            "contract": "contracts/SafeNFT.sol:SafeNFT",
            "label": "_indexes",
            "offset": 0,
            "slot": "1",
            "type": "t_mapping(t_bytes32,t_uint256)"
          }
        ],
        "numberOfBytes": "64"
      },
      "t_uint256": {
        "encoding": "inplace",
        "label": "uint256",
        "numberOfBytes": "32"
      }
    }
  }
}