{
  "address": "0x9b707738949e1642B7CdA4E9Ad071F698DD4A9F2",
  "abi": [
    {
      "inputs": [
        {
          "internalType": "address",
          "name": "_stableCoin",
          "type": "address"
        }
      ],
      "stateMutability": "nonpayable",
      "type": "constructor"
    },
    {
      "inputs": [
        {
          "internalType": "address",
          "name": "",
          "type": "address"
        }
      ],
      "name": "balances",
      "outputs": [
        {
          "internalType": "uint256",
          "name": "",
          "type": "uint256"
        }
      ],
      "stateMutability": "view",
      "type": "function"
    },
    {
      "inputs": [
        {
          "internalType": "uint256",
          "name": "_amount",
          "type": "uint256"
        }
      ],
      "name": "deposit",
      "outputs": [],
      "stateMutability": "nonpayable",
      "type": "function"
    },
    {
      "inputs": [],
      "name": "deposited",
      "outputs": [
        {
          "internalType": "uint256",
          "name": "",
          "type": "uint256"
        }
      ],
      "stateMutability": "view",
      "type": "function"
    },
    {
      "inputs": [
        {
          "internalType": "address",
          "name": "_stableCoin",
          "type": "address"
        }
      ],
      "name": "initialize",
      "outputs": [],
      "stateMutability": "nonpayable",
      "type": "function"
    },
    {
      "inputs": [],
      "name": "totalSupply",
      "outputs": [
        {
          "internalType": "uint256",
          "name": "",
          "type": "uint256"
        }
      ],
      "stateMutability": "view",
      "type": "function"
    },
    {
      "inputs": [
        {
          "internalType": "address",
          "name": "_receiver",
          "type": "address"
        },
        {
          "internalType": "uint256",
          "name": "_amount",
          "type": "uint256"
        }
      ],
      "name": "withdraw",
      "outputs": [],
      "stateMutability": "nonpayable",
      "type": "function"
    }
  ],
  "transactionHash": "0x0ba57390fe8306c54b6d3083a73798df78be007d97cfe1c4842b61358637a568",
  "args": [
    "0x179522635726710Dd7D2035a81d856de4Aa7836c"
  ],
  "numDeployments": 2,
  "solcInputHash": "dffc69b0a18f69d4c8d1fb9e61f113f3",
  "bytecode": "0x608060405234801561001057600080fd5b506040516106de3803806106de83398101604081905261002f916100bb565b6100388161003e565b506100eb565b60006100566000805160206106be8339815191525490565b90506001600160a01b038116610083576001600160a01b036000805160206106be83398151915255610098565b336001600160a01b0382161461009857600080fd5b50600080546001600160a01b0319166001600160a01b0392909216919091179055565b6000602082840312156100cd57600080fd5b81516001600160a01b03811681146100e457600080fd5b9392505050565b6105c4806100fa6000396000f3fe608060405234801561001057600080fd5b50600436106100625760003560e01c806318160ddd1461006757806327e235e314610081578063b6b55f25146100a1578063c4d66de8146100b6578063eef49ee3146100c9578063f3fef3a3146100d2575b600080fd5b61006f6100e5565b60405190815260200160405180910390f35b61006f61008f366004610464565b60026020526000908152604090205481565b6100b46100af366004610486565b610157565b005b6100b46100c4366004610464565b61023c565b61006f60015481565b6100b46100e036600461049f565b6102ea565b600080546040516370a0823160e01b81523060048201526001600160a01b03909116906370a0823190602401602060405180830381865afa15801561012e573d6000803e3d6000fd5b505050506040513d601f19601f8201168201806040525081019061015291906104c9565b905090565b600081116101805760405162461bcd60e51b8152600401610177906104e2565b60405180910390fd5b336000908152600260205260408120805483929061019f908490610540565b9250508190555080600160008282546101b89190610540565b90915550506000546040516323b872dd60e01b8152336004820152306024820152604481018390526001600160a01b03909116906323b872dd906064016020604051808303816000875af1158015610214573d6000803e3d6000fd5b505050506040513d601f19601f820116820180604052508101906102389190610559565b5050565b60006102667fb53127684a568b3173ae13b9f8a6016e243e63b6e8ee1178d6a717850b5d61035490565b90506001600160a01b0381166102a5576001600160a01b037fb53127684a568b3173ae13b9f8a6016e243e63b6e8ee1178d6a717850b5d6103556102ba565b336001600160a01b038216146102ba57600080fd5b506000805473ffffffffffffffffffffffffffffffffffffffff19166001600160a01b0392909216919091179055565b6000811161030a5760405162461bcd60e51b8152600401610177906104e2565b3360009081526002602052604090205481111561038f5760405162461bcd60e51b815260206004820152603760248201527f536166655661756c743a20757365722062616c616e6365206973206c6573732060448201527f7468616e20616d6f756e7420746f2077697468647261770000000000000000006064820152608401610177565b33600090815260026020526040812080548392906103ae90849061057b565b9250508190555080600160008282546103c7919061057b565b909155505060005460405163a9059cbb60e01b81526001600160a01b038481166004830152602482018490529091169063a9059cbb906044016020604051808303816000875af115801561041f573d6000803e3d6000fd5b505050506040513d601f19601f820116820180604052508101906104439190610559565b505050565b80356001600160a01b038116811461045f57600080fd5b919050565b60006020828403121561047657600080fd5b61047f82610448565b9392505050565b60006020828403121561049857600080fd5b5035919050565b600080604083850312156104b257600080fd5b6104bb83610448565b946020939093013593505050565b6000602082840312156104db57600080fd5b5051919050565b60208082526028908201527f536166655661756c743a20616d6f756e74206d75737420626520677265617465604082015267072207468616e20360c41b606082015260800190565b634e487b7160e01b600052601160045260246000fd5b808201808211156105535761055361052a565b92915050565b60006020828403121561056b57600080fd5b8151801515811461047f57600080fd5b818103818111156105535761055361052a56fea2646970667358221220d2b7b1fda38c660a31a7d401e32497c8f9f014ce0fdaa7aa0876e7fbd5754efe64736f6c63430008110033b53127684a568b3173ae13b9f8a6016e243e63b6e8ee1178d6a717850b5d6103",
  "devdoc": {
    "author": "crypt0grapher",
    "kind": "dev",
    "methods": {},
    "title": "Safe Vault",
    "version": 1
  },
  "userdoc": {
    "kind": "user",
    "methods": {},
    "notice": "This contract is responsible for $USDC pool: mainly deposit/withdrawal and farms management",
    "version": 1
  },
  "storageLayout": {
    "storage": [
      {
        "astId": 7315,
        "contract": "contracts/SafeVault.sol:SafeVault",
        "label": "stableCoin",
        "offset": 0,
        "slot": "0",
        "type": "t_contract(IERC20)2651"
      },
      {
        "astId": 7317,
        "contract": "contracts/SafeVault.sol:SafeVault",
        "label": "deposited",
        "offset": 0,
        "slot": "1",
        "type": "t_uint256"
      },
      {
        "astId": 7321,
        "contract": "contracts/SafeVault.sol:SafeVault",
        "label": "balances",
        "offset": 0,
        "slot": "2",
        "type": "t_mapping(t_address,t_uint256)"
      }
    ],
    "types": {
      "t_address": {
        "encoding": "inplace",
        "label": "address",
        "numberOfBytes": "20"
      },
      "t_contract(IERC20)2651": {
        "encoding": "inplace",
        "label": "contract IERC20",
        "numberOfBytes": "20"
      },
      "t_mapping(t_address,t_uint256)": {
        "encoding": "mapping",
        "key": "t_address",
        "label": "mapping(address => uint256)",
        "numberOfBytes": "32",
        "value": "t_uint256"
      },
      "t_uint256": {
        "encoding": "inplace",
        "label": "uint256",
        "numberOfBytes": "32"
      }
    }
  }
}