{
  "address": "0x3a59f1Ccb51bcF63C324bdAc2cC8aaffe46431Ec",
  "abi": [
    {
      "inputs": [
        {
          "internalType": "string",
          "name": "_uri",
          "type": "string"
        },
        {
          "internalType": "uint256[4]",
          "name": "_price",
          "type": "uint256[4]"
        },
        {
          "internalType": "uint256[4]",
          "name": "_maxSupply",
          "type": "uint256[4]"
        },
        {
          "internalType": "contract ISafeToken",
          "name": "_safeToken",
          "type": "address"
        },
        {
          "internalType": "uint256[2]",
          "name": "_priceDistributionOnMint",
          "type": "uint256[2]"
        },
        {
          "internalType": "uint256",
          "name": "_referralShareForNFTPurchase",
          "type": "uint256"
        },
        {
          "internalType": "uint256[2]",
          "name": "_profitDistribution",
          "type": "uint256[2]"
        },
        {
          "internalType": "address",
          "name": "_stabilizerWallet",
          "type": "address"
        }
      ],
      "stateMutability": "nonpayable",
      "type": "constructor"
    },
    {
      "anonymous": false,
      "inputs": [
        {
          "indexed": true,
          "internalType": "address",
          "name": "account",
          "type": "address"
        },
        {
          "indexed": true,
          "internalType": "address",
          "name": "operator",
          "type": "address"
        },
        {
          "indexed": false,
          "internalType": "bool",
          "name": "approved",
          "type": "bool"
        }
      ],
      "name": "ApprovalForAll",
      "type": "event"
    },
    {
      "anonymous": false,
      "inputs": [
        {
          "indexed": false,
          "internalType": "address",
          "name": "account",
          "type": "address"
        }
      ],
      "name": "Paused",
      "type": "event"
    },
    {
      "anonymous": false,
      "inputs": [
        {
          "indexed": true,
          "internalType": "bytes32",
          "name": "role",
          "type": "bytes32"
        },
        {
          "indexed": true,
          "internalType": "bytes32",
          "name": "previousAdminRole",
          "type": "bytes32"
        },
        {
          "indexed": true,
          "internalType": "bytes32",
          "name": "newAdminRole",
          "type": "bytes32"
        }
      ],
      "name": "RoleAdminChanged",
      "type": "event"
    },
    {
      "anonymous": false,
      "inputs": [
        {
          "indexed": true,
          "internalType": "bytes32",
          "name": "role",
          "type": "bytes32"
        },
        {
          "indexed": true,
          "internalType": "address",
          "name": "account",
          "type": "address"
        },
        {
          "indexed": true,
          "internalType": "address",
          "name": "sender",
          "type": "address"
        }
      ],
      "name": "RoleGranted",
      "type": "event"
    },
    {
      "anonymous": false,
      "inputs": [
        {
          "indexed": true,
          "internalType": "bytes32",
          "name": "role",
          "type": "bytes32"
        },
        {
          "indexed": true,
          "internalType": "address",
          "name": "account",
          "type": "address"
        },
        {
          "indexed": true,
          "internalType": "address",
          "name": "sender",
          "type": "address"
        }
      ],
      "name": "RoleRevoked",
      "type": "event"
    },
    {
      "anonymous": false,
      "inputs": [
        {
          "indexed": false,
          "internalType": "bool",
          "name": "_status",
          "type": "bool"
        }
      ],
      "name": "TogglePresale",
      "type": "event"
    },
    {
      "anonymous": false,
      "inputs": [
        {
          "indexed": true,
          "internalType": "address",
          "name": "operator",
          "type": "address"
        },
        {
          "indexed": true,
          "internalType": "address",
          "name": "from",
          "type": "address"
        },
        {
          "indexed": true,
          "internalType": "address",
          "name": "to",
          "type": "address"
        },
        {
          "indexed": false,
          "internalType": "uint256[]",
          "name": "ids",
          "type": "uint256[]"
        },
        {
          "indexed": false,
          "internalType": "uint256[]",
          "name": "values",
          "type": "uint256[]"
        }
      ],
      "name": "TransferBatch",
      "type": "event"
    },
    {
      "anonymous": false,
      "inputs": [
        {
          "indexed": true,
          "internalType": "address",
          "name": "operator",
          "type": "address"
        },
        {
          "indexed": true,
          "internalType": "address",
          "name": "from",
          "type": "address"
        },
        {
          "indexed": true,
          "internalType": "address",
          "name": "to",
          "type": "address"
        },
        {
          "indexed": false,
          "internalType": "uint256",
          "name": "id",
          "type": "uint256"
        },
        {
          "indexed": false,
          "internalType": "uint256",
          "name": "value",
          "type": "uint256"
        }
      ],
      "name": "TransferSingle",
      "type": "event"
    },
    {
      "anonymous": false,
      "inputs": [
        {
          "indexed": false,
          "internalType": "string",
          "name": "value",
          "type": "string"
        },
        {
          "indexed": true,
          "internalType": "uint256",
          "name": "id",
          "type": "uint256"
        }
      ],
      "name": "URI",
      "type": "event"
    },
    {
      "anonymous": false,
      "inputs": [
        {
          "indexed": false,
          "internalType": "address",
          "name": "account",
          "type": "address"
        }
      ],
      "name": "Unpaused",
      "type": "event"
    },
    {
      "inputs": [],
      "name": "DEFAULT_ADMIN_ROLE",
      "outputs": [
        {
          "internalType": "bytes32",
          "name": "",
          "type": "bytes32"
        }
      ],
      "stateMutability": "view",
      "type": "function"
    },
    {
      "inputs": [],
      "name": "MINTER_ROLE",
      "outputs": [
        {
          "internalType": "bytes32",
          "name": "",
          "type": "bytes32"
        }
      ],
      "stateMutability": "view",
      "type": "function"
    },
    {
      "inputs": [],
      "name": "PAUSER_ROLE",
      "outputs": [
        {
          "internalType": "bytes32",
          "name": "",
          "type": "bytes32"
        }
      ],
      "stateMutability": "view",
      "type": "function"
    },
    {
      "inputs": [],
      "name": "TIERS",
      "outputs": [
        {
          "internalType": "uint256",
          "name": "",
          "type": "uint256"
        }
      ],
      "stateMutability": "view",
      "type": "function"
    },
    {
      "inputs": [],
      "name": "WALLETS",
      "outputs": [
        {
          "internalType": "uint256",
          "name": "",
          "type": "uint256"
        }
      ],
      "stateMutability": "view",
      "type": "function"
    },
    {
      "inputs": [],
      "name": "WEEKS",
      "outputs": [
        {
          "internalType": "uint256",
          "name": "",
          "type": "uint256"
        }
      ],
      "stateMutability": "view",
      "type": "function"
    },
    {
      "inputs": [
        {
          "internalType": "uint256",
          "name": "",
          "type": "uint256"
        },
        {
          "internalType": "uint256",
          "name": "",
          "type": "uint256"
        },
        {
          "internalType": "address",
          "name": "",
          "type": "address"
        }
      ],
      "name": "alreadyDistributedAmount",
      "outputs": [
        {
          "internalType": "uint256",
          "name": "",
          "type": "uint256"
        }
      ],
      "stateMutability": "view",
      "type": "function"
    },
    {
      "inputs": [
        {
          "internalType": "uint256",
          "name": "",
          "type": "uint256"
        },
        {
          "internalType": "uint256",
          "name": "",
          "type": "uint256"
        }
      ],
      "name": "alreadyDistributedAmountByTier",
      "outputs": [
        {
          "internalType": "uint256",
          "name": "",
          "type": "uint256"
        }
      ],
      "stateMutability": "view",
      "type": "function"
    },
    {
      "inputs": [
        {
          "internalType": "address",
          "name": "account",
          "type": "address"
        },
        {
          "internalType": "uint256",
          "name": "id",
          "type": "uint256"
        }
      ],
      "name": "balanceOf",
      "outputs": [
        {
          "internalType": "uint256",
          "name": "",
          "type": "uint256"
        }
      ],
      "stateMutability": "view",
      "type": "function"
    },
    {
      "inputs": [
        {
          "internalType": "address[]",
          "name": "accounts",
          "type": "address[]"
        },
        {
          "internalType": "uint256[]",
          "name": "ids",
          "type": "uint256[]"
        }
      ],
      "name": "balanceOfBatch",
      "outputs": [
        {
          "internalType": "uint256[]",
          "name": "",
          "type": "uint256[]"
        }
      ],
      "stateMutability": "view",
      "type": "function"
    },
    {
      "inputs": [
        {
          "internalType": "address",
          "name": "account",
          "type": "address"
        },
        {
          "internalType": "uint256",
          "name": "id",
          "type": "uint256"
        },
        {
          "internalType": "uint256",
          "name": "value",
          "type": "uint256"
        }
      ],
      "name": "burn",
      "outputs": [],
      "stateMutability": "nonpayable",
      "type": "function"
    },
    {
      "inputs": [
        {
          "internalType": "address",
          "name": "account",
          "type": "address"
        },
        {
          "internalType": "uint256[]",
          "name": "ids",
          "type": "uint256[]"
        },
        {
          "internalType": "uint256[]",
          "name": "values",
          "type": "uint256[]"
        }
      ],
      "name": "burnBatch",
      "outputs": [],
      "stateMutability": "nonpayable",
      "type": "function"
    },
    {
      "inputs": [
        {
          "internalType": "enum ISafeNFT.Tiers",
          "name": "_tier",
          "type": "uint8"
        },
        {
          "internalType": "uint256",
          "name": "_amount",
          "type": "uint256"
        },
        {
          "internalType": "address",
          "name": "_referral",
          "type": "address"
        }
      ],
      "name": "buy",
      "outputs": [],
      "stateMutability": "nonpayable",
      "type": "function"
    },
    {
      "inputs": [
        {
          "internalType": "enum ISafeNFT.Tiers",
          "name": "_tier",
          "type": "uint8"
        },
        {
          "internalType": "uint256",
          "name": "_distributionId",
          "type": "uint256"
        }
      ],
      "name": "claimReward",
      "outputs": [],
      "stateMutability": "nonpayable",
      "type": "function"
    },
    {
      "inputs": [],
      "name": "claimRewardsTotal",
      "outputs": [],
      "stateMutability": "nonpayable",
      "type": "function"
    },
    {
      "inputs": [],
      "name": "currentDistributionId",
      "outputs": [
        {
          "internalType": "uint256",
          "name": "",
          "type": "uint256"
        }
      ],
      "stateMutability": "view",
      "type": "function"
    },
    {
      "inputs": [
        {
          "internalType": "uint256",
          "name": "",
          "type": "uint256"
        }
      ],
      "name": "currentlySoldInPresale",
      "outputs": [
        {
          "internalType": "uint256",
          "name": "",
          "type": "uint256"
        }
      ],
      "stateMutability": "view",
      "type": "function"
    },
    {
      "inputs": [
        {
          "internalType": "uint256",
          "name": "_amountUSD",
          "type": "uint256"
        }
      ],
      "name": "distributeProfit",
      "outputs": [],
      "stateMutability": "nonpayable",
      "type": "function"
    },
    {
      "inputs": [
        {
          "internalType": "uint256",
          "name": "",
          "type": "uint256"
        },
        {
          "internalType": "uint256",
          "name": "",
          "type": "uint256"
        }
      ],
      "name": "distributionByTier",
      "outputs": [
        {
          "internalType": "uint256",
          "name": "",
          "type": "uint256"
        }
      ],
      "stateMutability": "view",
      "type": "function"
    },
    {
      "inputs": [
        {
          "internalType": "uint256",
          "name": "",
          "type": "uint256"
        }
      ],
      "name": "distributionOfProfit",
      "outputs": [
        {
          "internalType": "uint256",
          "name": "",
          "type": "uint256"
        }
      ],
      "stateMutability": "view",
      "type": "function"
    },
    {
      "inputs": [
        {
          "internalType": "uint256",
          "name": "",
          "type": "uint256"
        },
        {
          "internalType": "uint256",
          "name": "",
          "type": "uint256"
        }
      ],
      "name": "distributionTotalSupplySnapshot",
      "outputs": [
        {
          "internalType": "uint256",
          "name": "",
          "type": "uint256"
        }
      ],
      "stateMutability": "view",
      "type": "function"
    },
    {
      "inputs": [
        {
          "internalType": "uint256",
          "name": "id",
          "type": "uint256"
        }
      ],
      "name": "exists",
      "outputs": [
        {
          "internalType": "bool",
          "name": "",
          "type": "bool"
        }
      ],
      "stateMutability": "view",
      "type": "function"
    },
    {
      "inputs": [
        {
          "internalType": "address",
          "name": "_user",
          "type": "address"
        }
      ],
      "name": "getBalanceTable",
      "outputs": [
        {
          "internalType": "uint256[]",
          "name": "",
          "type": "uint256[]"
        }
      ],
      "stateMutability": "view",
      "type": "function"
    },
    {
      "inputs": [],
      "name": "getCurrentPresaleWeek",
      "outputs": [
        {
          "internalType": "uint256",
          "name": "",
          "type": "uint256"
        }
      ],
      "stateMutability": "view",
      "type": "function"
    },
    {
      "inputs": [],
      "name": "getDiscountedPriceTable",
      "outputs": [
        {
          "internalType": "uint256[]",
          "name": "",
          "type": "uint256[]"
        }
      ],
      "stateMutability": "view",
      "type": "function"
    },
    {
      "inputs": [
        {
          "internalType": "enum ISafeNFT.Tiers",
          "name": "_tier",
          "type": "uint8"
        }
      ],
      "name": "getFairPrice",
      "outputs": [
        {
          "internalType": "uint256",
          "name": "",
          "type": "uint256"
        }
      ],
      "stateMutability": "view",
      "type": "function"
    },
    {
      "inputs": [],
      "name": "getFairPriceTable",
      "outputs": [
        {
          "internalType": "uint256[]",
          "name": "",
          "type": "uint256[]"
        }
      ],
      "stateMutability": "view",
      "type": "function"
    },
    {
      "inputs": [],
      "name": "getMyBalanceTable",
      "outputs": [
        {
          "internalType": "uint256[]",
          "name": "",
          "type": "uint256[]"
        }
      ],
      "stateMutability": "view",
      "type": "function"
    },
    {
      "inputs": [],
      "name": "getMyPendingRewardsTotal",
      "outputs": [
        {
          "internalType": "uint256",
          "name": "",
          "type": "uint256"
        }
      ],
      "stateMutability": "view",
      "type": "function"
    },
    {
      "inputs": [],
      "name": "getMyShareOfTreasury",
      "outputs": [
        {
          "internalType": "uint256",
          "name": "",
          "type": "uint256"
        }
      ],
      "stateMutability": "view",
      "type": "function"
    },
    {
      "inputs": [
        {
          "internalType": "address",
          "name": "_user",
          "type": "address"
        },
        {
          "internalType": "enum ISafeNFT.Tiers",
          "name": "_tier",
          "type": "uint8"
        },
        {
          "internalType": "uint256",
          "name": "_distributionId",
          "type": "uint256"
        }
      ],
      "name": "getPendingRewards",
      "outputs": [
        {
          "internalType": "uint256",
          "name": "",
          "type": "uint256"
        }
      ],
      "stateMutability": "view",
      "type": "function"
    },
    {
      "inputs": [],
      "name": "getPresaleNFTAvailable",
      "outputs": [
        {
          "internalType": "uint256[]",
          "name": "",
          "type": "uint256[]"
        }
      ],
      "stateMutability": "view",
      "type": "function"
    },
    {
      "inputs": [
        {
          "internalType": "enum ISafeNFT.Tiers",
          "name": "_tier",
          "type": "uint8"
        }
      ],
      "name": "getPrice",
      "outputs": [
        {
          "internalType": "uint256",
          "name": "",
          "type": "uint256"
        }
      ],
      "stateMutability": "view",
      "type": "function"
    },
    {
      "inputs": [],
      "name": "getPriceTable",
      "outputs": [
        {
          "internalType": "uint256[]",
          "name": "",
          "type": "uint256[]"
        }
      ],
      "stateMutability": "view",
      "type": "function"
    },
    {
      "inputs": [
        {
          "internalType": "bytes32",
          "name": "role",
          "type": "bytes32"
        }
      ],
      "name": "getRoleAdmin",
      "outputs": [
        {
          "internalType": "bytes32",
          "name": "",
          "type": "bytes32"
        }
      ],
      "stateMutability": "view",
      "type": "function"
    },
    {
      "inputs": [
        {
          "internalType": "bytes32",
          "name": "role",
          "type": "bytes32"
        },
        {
          "internalType": "uint256",
          "name": "index",
          "type": "uint256"
        }
      ],
      "name": "getRoleMember",
      "outputs": [
        {
          "internalType": "address",
          "name": "",
          "type": "address"
        }
      ],
      "stateMutability": "view",
      "type": "function"
    },
    {
      "inputs": [
        {
          "internalType": "bytes32",
          "name": "role",
          "type": "bytes32"
        }
      ],
      "name": "getRoleMemberCount",
      "outputs": [
        {
          "internalType": "uint256",
          "name": "",
          "type": "uint256"
        }
      ],
      "stateMutability": "view",
      "type": "function"
    },
    {
      "inputs": [],
      "name": "getTotalSupplyAllTiers",
      "outputs": [
        {
          "internalType": "uint256",
          "name": "",
          "type": "uint256"
        }
      ],
      "stateMutability": "view",
      "type": "function"
    },
    {
      "inputs": [],
      "name": "getTreasuryCost",
      "outputs": [
        {
          "internalType": "uint256",
          "name": "",
          "type": "uint256"
        }
      ],
      "stateMutability": "view",
      "type": "function"
    },
    {
      "inputs": [],
      "name": "getUnclaimedRewards",
      "outputs": [
        {
          "internalType": "uint256",
          "name": "",
          "type": "uint256"
        }
      ],
      "stateMutability": "view",
      "type": "function"
    },
    {
      "inputs": [
        {
          "internalType": "bytes32",
          "name": "role",
          "type": "bytes32"
        },
        {
          "internalType": "address",
          "name": "account",
          "type": "address"
        }
      ],
      "name": "grantRole",
      "outputs": [],
      "stateMutability": "nonpayable",
      "type": "function"
    },
    {
      "inputs": [
        {
          "internalType": "bytes32",
          "name": "role",
          "type": "bytes32"
        },
        {
          "internalType": "address",
          "name": "account",
          "type": "address"
        }
      ],
      "name": "hasRole",
      "outputs": [
        {
          "internalType": "bool",
          "name": "",
          "type": "bool"
        }
      ],
      "stateMutability": "view",
      "type": "function"
    },
    {
      "inputs": [
        {
          "internalType": "string",
          "name": "_uri",
          "type": "string"
        },
        {
          "internalType": "uint256[4]",
          "name": "_price",
          "type": "uint256[4]"
        },
        {
          "internalType": "uint256[4]",
          "name": "_maxSupply",
          "type": "uint256[4]"
        },
        {
          "internalType": "contract ISafeToken",
          "name": "_safeToken",
          "type": "address"
        },
        {
          "internalType": "uint256[2]",
          "name": "_priceDistributionOnMint",
          "type": "uint256[2]"
        },
        {
          "internalType": "uint256",
          "name": "_referralShareForNFTPurchase",
          "type": "uint256"
        },
        {
          "internalType": "uint256[2]",
          "name": "_profitDistribution",
          "type": "uint256[2]"
        },
        {
          "internalType": "address",
          "name": "_stabilizerWallet",
          "type": "address"
        }
      ],
      "name": "initialize",
      "outputs": [],
      "stateMutability": "nonpayable",
      "type": "function"
    },
    {
      "inputs": [
        {
          "internalType": "address",
          "name": "account",
          "type": "address"
        },
        {
          "internalType": "address",
          "name": "operator",
          "type": "address"
        }
      ],
      "name": "isApprovedForAll",
      "outputs": [
        {
          "internalType": "bool",
          "name": "",
          "type": "bool"
        }
      ],
      "stateMutability": "view",
      "type": "function"
    },
    {
      "inputs": [
        {
          "internalType": "uint256",
          "name": "",
          "type": "uint256"
        }
      ],
      "name": "maxSupply",
      "outputs": [
        {
          "internalType": "uint256",
          "name": "",
          "type": "uint256"
        }
      ],
      "stateMutability": "view",
      "type": "function"
    },
    {
      "inputs": [
        {
          "internalType": "address",
          "name": "to",
          "type": "address"
        },
        {
          "internalType": "uint256",
          "name": "id",
          "type": "uint256"
        },
        {
          "internalType": "uint256",
          "name": "amount",
          "type": "uint256"
        },
        {
          "internalType": "bytes",
          "name": "data",
          "type": "bytes"
        }
      ],
      "name": "mint",
      "outputs": [],
      "stateMutability": "nonpayable",
      "type": "function"
    },
    {
      "inputs": [
        {
          "internalType": "address",
          "name": "to",
          "type": "address"
        },
        {
          "internalType": "uint256[]",
          "name": "ids",
          "type": "uint256[]"
        },
        {
          "internalType": "uint256[]",
          "name": "amounts",
          "type": "uint256[]"
        },
        {
          "internalType": "bytes",
          "name": "data",
          "type": "bytes"
        }
      ],
      "name": "mintBatch",
      "outputs": [],
      "stateMutability": "nonpayable",
      "type": "function"
    },
    {
      "inputs": [],
      "name": "name",
      "outputs": [
        {
          "internalType": "string",
          "name": "",
          "type": "string"
        }
      ],
      "stateMutability": "view",
      "type": "function"
    },
    {
      "inputs": [],
      "name": "pause",
      "outputs": [],
      "stateMutability": "nonpayable",
      "type": "function"
    },
    {
      "inputs": [],
      "name": "paused",
      "outputs": [
        {
          "internalType": "bool",
          "name": "",
          "type": "bool"
        }
      ],
      "stateMutability": "view",
      "type": "function"
    },
    {
      "inputs": [],
      "name": "presale",
      "outputs": [
        {
          "internalType": "bool",
          "name": "",
          "type": "bool"
        }
      ],
      "stateMutability": "view",
      "type": "function"
    },
    {
      "inputs": [
        {
          "internalType": "uint256",
          "name": "",
          "type": "uint256"
        }
      ],
      "name": "presaleMaxSupply",
      "outputs": [
        {
          "internalType": "uint256",
          "name": "",
          "type": "uint256"
        }
      ],
      "stateMutability": "view",
      "type": "function"
    },
    {
      "inputs": [
        {
          "internalType": "uint256",
          "name": "",
          "type": "uint256"
        },
        {
          "internalType": "uint256",
          "name": "",
          "type": "uint256"
        }
      ],
      "name": "presalePrice",
      "outputs": [
        {
          "internalType": "uint256",
          "name": "",
          "type": "uint256"
        }
      ],
      "stateMutability": "view",
      "type": "function"
    },
    {
      "inputs": [],
      "name": "presaleStartDate",
      "outputs": [
        {
          "internalType": "uint256",
          "name": "",
          "type": "uint256"
        }
      ],
      "stateMutability": "view",
      "type": "function"
    },
    {
      "inputs": [
        {
          "internalType": "uint256",
          "name": "",
          "type": "uint256"
        }
      ],
      "name": "price",
      "outputs": [
        {
          "internalType": "uint256",
          "name": "",
          "type": "uint256"
        }
      ],
      "stateMutability": "view",
      "type": "function"
    },
    {
      "inputs": [
        {
          "internalType": "uint256",
          "name": "",
          "type": "uint256"
        }
      ],
      "name": "priceDistributionOnMint",
      "outputs": [
        {
          "internalType": "uint256",
          "name": "",
          "type": "uint256"
        }
      ],
      "stateMutability": "view",
      "type": "function"
    },
    {
      "inputs": [
        {
          "internalType": "uint256",
          "name": "",
          "type": "uint256"
        }
      ],
      "name": "profitDistribution",
      "outputs": [
        {
          "internalType": "uint256",
          "name": "",
          "type": "uint256"
        }
      ],
      "stateMutability": "view",
      "type": "function"
    },
    {
      "inputs": [],
      "name": "referralShareForNFTPurchase",
      "outputs": [
        {
          "internalType": "uint256",
          "name": "",
          "type": "uint256"
        }
      ],
      "stateMutability": "view",
      "type": "function"
    },
    {
      "inputs": [
        {
          "internalType": "bytes32",
          "name": "role",
          "type": "bytes32"
        },
        {
          "internalType": "address",
          "name": "account",
          "type": "address"
        }
      ],
      "name": "renounceRole",
      "outputs": [],
      "stateMutability": "nonpayable",
      "type": "function"
    },
    {
      "inputs": [
        {
          "internalType": "bytes32",
          "name": "role",
          "type": "bytes32"
        },
        {
          "internalType": "address",
          "name": "account",
          "type": "address"
        }
      ],
      "name": "revokeRole",
      "outputs": [],
      "stateMutability": "nonpayable",
      "type": "function"
    },
    {
      "inputs": [
        {
          "internalType": "address",
          "name": "from",
          "type": "address"
        },
        {
          "internalType": "address",
          "name": "to",
          "type": "address"
        },
        {
          "internalType": "uint256[]",
          "name": "ids",
          "type": "uint256[]"
        },
        {
          "internalType": "uint256[]",
          "name": "amounts",
          "type": "uint256[]"
        },
        {
          "internalType": "bytes",
          "name": "data",
          "type": "bytes"
        }
      ],
      "name": "safeBatchTransferFrom",
      "outputs": [],
      "stateMutability": "nonpayable",
      "type": "function"
    },
    {
      "inputs": [],
      "name": "safeToken",
      "outputs": [
        {
          "internalType": "contract ISafeToken",
          "name": "",
          "type": "address"
        }
      ],
      "stateMutability": "view",
      "type": "function"
    },
    {
      "inputs": [
        {
          "internalType": "address",
          "name": "from",
          "type": "address"
        },
        {
          "internalType": "address",
          "name": "to",
          "type": "address"
        },
        {
          "internalType": "uint256",
          "name": "id",
          "type": "uint256"
        },
        {
          "internalType": "uint256",
          "name": "amount",
          "type": "uint256"
        },
        {
          "internalType": "bytes",
          "name": "data",
          "type": "bytes"
        }
      ],
      "name": "safeTransferFrom",
      "outputs": [],
      "stateMutability": "nonpayable",
      "type": "function"
    },
    {
      "inputs": [],
      "name": "safeVault",
      "outputs": [
        {
          "internalType": "contract ISafeVault",
          "name": "",
          "type": "address"
        }
      ],
      "stateMutability": "view",
      "type": "function"
    },
    {
      "inputs": [
        {
          "internalType": "address",
          "name": "operator",
          "type": "address"
        },
        {
          "internalType": "bool",
          "name": "approved",
          "type": "bool"
        }
      ],
      "name": "setApprovalForAll",
      "outputs": [],
      "stateMutability": "nonpayable",
      "type": "function"
    },
    {
      "inputs": [
        {
          "internalType": "uint256[][]",
          "name": "_presalePrice",
          "type": "uint256[][]"
        }
      ],
      "name": "setDiscountedPriceTable",
      "outputs": [],
      "stateMutability": "nonpayable",
      "type": "function"
    },
    {
      "inputs": [
        {
          "internalType": "uint256[4]",
          "name": "_presaleMaxSupply",
          "type": "uint256[4]"
        }
      ],
      "name": "setPresaleMaxSupply",
      "outputs": [],
      "stateMutability": "nonpayable",
      "type": "function"
    },
    {
      "inputs": [
        {
          "internalType": "uint256",
          "name": "_launchDate",
          "type": "uint256"
        },
        {
          "internalType": "uint256",
          "name": "_weekDuration",
          "type": "uint256"
        }
      ],
      "name": "setPresaleStartDate",
      "outputs": [],
      "stateMutability": "nonpayable",
      "type": "function"
    },
    {
      "inputs": [
        {
          "internalType": "address",
          "name": "",
          "type": "address"
        },
        {
          "internalType": "uint256",
          "name": "",
          "type": "uint256"
        },
        {
          "internalType": "uint256",
          "name": "",
          "type": "uint256"
        }
      ],
      "name": "soldPerPresaleWeek",
      "outputs": [
        {
          "internalType": "uint256",
          "name": "",
          "type": "uint256"
        }
      ],
      "stateMutability": "view",
      "type": "function"
    },
    {
      "inputs": [],
      "name": "stabilizerWallet",
      "outputs": [
        {
          "internalType": "address",
          "name": "",
          "type": "address"
        }
      ],
      "stateMutability": "view",
      "type": "function"
    },
    {
      "inputs": [
        {
          "internalType": "bytes4",
          "name": "interfaceId",
          "type": "bytes4"
        }
      ],
      "name": "supportsInterface",
      "outputs": [
        {
          "internalType": "bool",
          "name": "",
          "type": "bool"
        }
      ],
      "stateMutability": "view",
      "type": "function"
    },
    {
      "inputs": [],
      "name": "togglePresale",
      "outputs": [],
      "stateMutability": "nonpayable",
      "type": "function"
    },
    {
      "inputs": [
        {
          "internalType": "uint256",
          "name": "id",
          "type": "uint256"
        }
      ],
      "name": "totalSupply",
      "outputs": [
        {
          "internalType": "uint256",
          "name": "",
          "type": "uint256"
        }
      ],
      "stateMutability": "view",
      "type": "function"
    },
    {
      "inputs": [],
      "name": "unpause",
      "outputs": [],
      "stateMutability": "nonpayable",
      "type": "function"
    },
    {
      "inputs": [
        {
          "internalType": "uint256",
          "name": "",
          "type": "uint256"
        }
      ],
      "name": "uri",
      "outputs": [
        {
          "internalType": "string",
          "name": "",
          "type": "string"
        }
      ],
      "stateMutability": "view",
      "type": "function"
    },
    {
      "inputs": [],
      "name": "usd",
      "outputs": [
        {
          "internalType": "contract IERC20",
          "name": "",
          "type": "address"
        }
      ],
      "stateMutability": "view",
      "type": "function"
    },
    {
      "inputs": [
        {
          "internalType": "uint256",
          "name": "",
          "type": "uint256"
        }
      ],
      "name": "wallets",
      "outputs": [
        {
          "internalType": "address",
          "name": "",
          "type": "address"
        }
      ],
      "stateMutability": "view",
      "type": "function"
    },
    {
      "inputs": [],
      "name": "weekDuration",
      "outputs": [
        {
          "internalType": "uint256",
          "name": "",
          "type": "uint256"
        }
      ],
      "stateMutability": "view",
      "type": "function"
    }
  ],
  "transactionHash": "0x12410c3de12033ccacff6f8c3cfeb3a2f70dab386fb843ffaca637702c9bb252",
  "args": [
    "",
    [
      "131250000",
      "262500000",
      "525000000",
      "1050000000"
    ],
    [
      2000,
      1000,
      1000,
      1000
    ],
    "0xeeC181F2008b0f719e572000b1F02F120634326C",
    [
      50000000,
      40000000
    ],
    5000000,
    [
      25000000,
      20000000
    ],
    "0xa278581A8238aD22064d7892787F90d46F7E5498"
  ],
  "numDeployments": 1,
  "solcInputHash": "e8766a0772d64a36a2db76ff2692943c",
  "bytecode": "0x60806040523480156200001157600080fd5b50604051620065e7380380620065e78339810160408190526200003491620008ad565b87806200004181620000b5565b506007805460ff1916905562000059600033620000c7565b62000074600080516020620065c783398151915233620000c7565b6200008f600080516020620065a783398151915233620000c7565b506001600955620000a78888888888888888620000d3565b505050505050505062000bf2565b6006620000c3828262000a74565b5050565b620000c382826200050c565b6000620000ed600080516020620065878339815191525490565b90506001600160a01b0381166200011d576001600160a01b03600080516020620065878339815191525562000133565b336001600160a01b038216146200013357600080fd5b6200013e89620000b5565b6200014b600033620000c7565b62000166600080516020620065c783398151915233620000c7565b62000181600080516020620065a783398151915233620000c7565b62000190600a8960046200066f565b50620001a0601e8860046200066f565b50602480546001600160a01b0319166001600160a01b038816179055620001cb6027866002620006b2565b50602b849055620001e06029846002620006b2565b50602c80546001600160a01b0319166001600160a01b03848116919091179091556024546040805163db7a460560e01b815281516200027394939093169263db7a4605926004808401939192918290030181865afa15801562000247573d6000803e3d6000fd5b505050506040513d601f19601f820116820180604052508101906200026d919062000b40565b6200054f565b602460009054906101000a90046001600160a01b03166001600160a01b031663deef94de6040518163ffffffff1660e01b8152600401602060405180830381865afa158015620002c7573d6000803e3d6000fd5b505050506040513d601f19601f82011682018060405250810190620002ed919062000ba7565b602580546001600160a01b0319166001600160a01b039283161790556024546040805163d63a6ccd60e01b81529051919092169163d63a6ccd9160048083019260209291908290030181865afa1580156200034c573d6000803e3d6000fd5b505050506040513d601f19601f8201168201806040525081019062000372919062000ba7565b602680546001600160a01b0319166001600160a01b039283169081179091556024805460405163095ea7b360e01b815293166004840152600019908301529063095ea7b3906044016020604051808303816000875af1158015620003da573d6000803e3d6000fd5b505050506040513d601f19601f8201168201806040525081019062000400919062000bce565b5060265460255460405163095ea7b360e01b81526001600160a01b039182166004820152600019602482015291169063095ea7b3906044016020604051808303816000875af115801562000458573d6000803e3d6000fd5b505050506040513d601f19601f820116820180604052508101906200047e919062000bce565b506024805460405163095ea7b360e01b81526001600160a01b03909116600482018190526000199282019290925263095ea7b3906044016020604051808303816000875af1158015620004d5573d6000803e3d6000fd5b505050506040513d601f19601f82011682018060405250810190620004fb919062000bce565b505060006036555050505050505050565b6200052382826200055d60201b62002e841760201c565b60008281526001602090815260409091206200054a91839062002f08620005fd821b17901c565b505050565b620000c360028281620006e2565b6000828152602081815260408083206001600160a01b038516845290915290205460ff16620000c3576000828152602081815260408083206001600160a01b03851684529091529020805460ff19166001179055620005b93390565b6001600160a01b0316816001600160a01b0316837f2f8788117e7eff1d82e926ec794901d17c78024a50270940304540a733656f0d60405160405180910390a45050565b600062000614836001600160a01b0384166200061d565b90505b92915050565b6000818152600183016020526040812054620006665750815460018181018455600084815260208082209093018490558454848252828601909352604090209190915562000617565b50600062000617565b8260048101928215620006a0579160200282015b82811115620006a057825182559160200191906001019062000683565b50620006ae9291506200072d565b5090565b8260028101928215620006a05791602002820182811115620006a057825182559160200191906001019062000683565b8260028101928215620006a0579160200282015b82811115620006a057825182546001600160a01b0319166001600160a01b03909116178255602090920191600190910190620006f6565b5b80821115620006ae57600081556001016200072e565b634e487b7160e01b600052604160045260246000fd5b604080519081016001600160401b03811182821017156200077f576200077f62000744565b60405290565b604051601f8201601f191681016001600160401b0381118282101715620007b057620007b062000744565b604052919050565b600082601f830112620007ca57600080fd5b604051608081016001600160401b0381118282101715620007ef57620007ef62000744565b6040528060808401858111156200080557600080fd5b845b818110156200082157805183526020928301920162000807565b509195945050505050565b6001600160a01b03811681146200084257600080fd5b50565b805162000852816200082c565b919050565b600082601f8301126200086957600080fd5b620008736200075a565b8060408401858111156200088657600080fd5b845b81811015620008a257805184526020938401930162000888565b509095945050505050565b600080600080600080600080610200898b031215620008cb57600080fd5b88516001600160401b0380821115620008e357600080fd5b818b0191508b601f830112620008f857600080fd5b8151818111156200090d576200090d62000744565b6020915062000925601f8201601f1916830162000785565b8181528d838386010111156200093a57600080fd5b60005b828110156200095a5784810184015182820185015283016200093d565b506000838383010152809b505050620009768c828d01620007b8565b98505050620009898a60a08b01620007b8565b95506200099a6101208a0162000845565b9450620009ac8a6101408b0162000857565b93506101808901519250620009c68a6101a08b0162000857565b9150620009d76101e08a0162000845565b90509295985092959890939650565b600181811c90821680620009fb57607f821691505b60208210810362000a1c57634e487b7160e01b600052602260045260246000fd5b50919050565b601f8211156200054a57600081815260208120601f850160051c8101602086101562000a4b5750805b601f850160051c820191505b8181101562000a6c5782815560010162000a57565b505050505050565b81516001600160401b0381111562000a905762000a9062000744565b62000aa88162000aa18454620009e6565b8462000a22565b602080601f83116001811462000ae0576000841562000ac75750858301515b600019600386901b1c1916600185901b17855562000a6c565b600085815260208120601f198616915b8281101562000b115788860151825594840194600190910190840162000af0565b508582101562000b305787850151600019600388901b60f8161c191681555b5050505050600190811b01905550565b60006040828403121562000b5357600080fd5b82601f83011262000b6357600080fd5b62000b6d6200075a565b80604084018581111562000b8057600080fd5b845b81811015620008a257805162000b98816200082c565b84526020938401930162000b82565b60006020828403121562000bba57600080fd5b815162000bc7816200082c565b9392505050565b60006020828403121562000be157600080fd5b8151801515811462000bc757600080fd5b6159858062000c026000396000f3fe608060405234801561001057600080fd5b50600436106104685760003560e01c80636b20c4541161024c578063ca7b244711610146578063e0adca1b116100c3578063f242432a11610087578063f242432a14610a07578063f3430a1614610a1a578063f5298aca14610a2d578063fd18a25314610a40578063fdea8e0b14610a5357600080fd5b8063e0adca1b14610976578063e63ab1e914610989578063e985e9c5146109b0578063f03f1e51146109ec578063f0b2df89146109f457600080fd5b8063d53913931161010a578063d539139314610903578063d547741f1461092a578063d63a6ccd1461093d578063deef94de14610950578063df71da761461096357600080fd5b8063ca7b244714610891578063ced79ce0146108a4578063d0d5a1ba146108d5578063d36122b8146108e8578063d36dfac8146108f057600080fd5b80638456cb59116101d4578063a1f5c23911610198578063a1f5c2391461083b578063a217fddf14610843578063a22cb4651461084b578063bd85b0391461085e578063ca15c8731461087e57600080fd5b80638456cb59146107f2578063869f7594146107fa5780638d3bd55b1461080d5780639010d07c1461081557806391d148541461082857600080fd5b8063780069e01161021b578063780069e0146107945780637ad71f721461079d5780637dfe5914146107b05780637e93391a146107e157806380a3a783146107e957600080fd5b80636b20c454146107665780636d6689ea146107795780636e748f9714610779578063731133e91461078157600080fd5b80632c13f08c116103685780634b3fd05a116102e557806353f7ffd2116102a957806353f7ffd21461070f578063592fa65e146107225780635c975abb146107355780635e95b4fe146107405780636ac600681461075357600080fd5b80634b3fd05a146106ac5780634e1273f4146106bf5780634f558e79146106d257806351ba5b44146106f457806352a1ad54146106fc57600080fd5b806336568abe1161032c57806336568abe1461065857806337f1e7f21461066b5780633f4ba83a1461067e578063418f7c51146106865780634407a61e1461069957600080fd5b80632c13f08c1461061a5780632e2a31d4146106225780632eb2c2d61461062a5780632f2ff15d1461063d578063343937431461065057600080fd5b80630e89341c116103f65780631a5e85e5116103ba5780631a5e85e5146105b45780631f7fdffa146105bc57806323f77fa9146105d1578063248a9ca3146105e457806326a49e371461060757600080fd5b80630e89341c1461055c578063104304f31461056f5780631623025714610584578063168affdf1461058c5780631729c14f146105ac57600080fd5b806304a3adf71161043d57806304a3adf7146104d257806304ca4c07146104db57806305adca38146104ee57806306fdde03146104f65780630b0b73d21461053157600080fd5b8062a13c4c1461046d578062fdd58e1461048957806301ffc9a71461049c57806303b2add0146104bf575b600080fd5b610476602b5481565b6040519081526020015b60405180910390f35b610476610497366004614786565b610a67565b6104af6104aa3660046147c8565b610b02565b6040519015158152602001610480565b6104766104cd3660046147e5565b610b0d565b61047660235481565b6104766104e93660046147fe565b610b24565b610476610b49565b6105246040518060400160405280600f81526020016e14d8599948165a595b191cc8139195608a1b81525081565b6040516104809190614870565b602c54610544906001600160a01b031681565b6040516001600160a01b039091168152602001610480565b61052461056a3660046147e5565b610ba8565b610577610c3c565b60405161048091906148be565b610476610cb9565b61047661059a3660046147e5565b60376020526000908152604090205481565b610577610d50565b610476610e0e565b6105cf6105ca366004614a3e565b610e49565b005b6105776105df366004614ad8565b610ea1565b6104766105f23660046147e5565b60009081526020819052604090206001015490565b6104766106153660046147e5565b610f0d565b610577610f1d565b610577610f94565b6105cf610638366004614af5565b611051565b6105cf61064b366004614ba2565b61109d565b6105cf6110c7565b6105cf610666366004614ba2565b611154565b610476610679366004614be6565b6111d2565b6105cf611200565b610476610694366004614c01565b6112a6565b6105cf6106a7366004614c3f565b611373565b602454610544906001600160a01b031681565b6105776106cd366004614cfa565b6114ef565b6104af6106e03660046147e5565b600090815260086020526040902054151590565b610476611618565b61047661070a3660046147fe565b61169b565b6105cf61071d366004614dc6565b6116bd565b6104766107303660046147fe565b6117c1565b60075460ff166104af565b61047661074e3660046147fe565b6117dd565b6105cf610761366004614e7e565b6117f9565b6105cf610774366004614f4b565b611c4e565b610476600481565b6105cf61078f366004614fc0565b611c91565b61047660365481565b6105446107ab3660046147e5565b611ce3565b6104766107be366004615016565b602d60209081526000938452604080852082529284528284209052825290205481565b610476611d03565b61047660225481565b6105cf611e9c565b6104766108083660046147e5565b611f40565b610476600281565b6105446108233660046147fe565b611f50565b6104af610836366004614ba2565b611f6f565b610577611f98565b610476600081565b6105cf610859366004615059565b611fa4565b61047661086c3660046147e5565b60009081526008602052604090205490565b61047661088c3660046147e5565b611faf565b61047661089f3660046147e5565b611fc6565b6104766108b2366004615087565b603a60209081526000938452604080852082529284528284209052825290205481565b6105cf6108e33660046150c0565b611fd6565b6105cf6128e2565b6105cf6108fe3660046147e5565b61294d565b6104767f9f2df0fed2c77648de5860a4cc508cd0818c85b8b8a1ab4ceeef8d981c8956a681565b6105cf610938366004614ba2565b612c41565b602654610544906001600160a01b031681565b602554610544906001600160a01b031681565b6104766109713660046147e5565b612c66565b6105cf6109843660046147fe565b612c76565b6104767f65d7a28e3265b37a6474929f336521b332c1681b933f6cb9f3376673440d862a81565b6104af6109be3660046150f5565b6001600160a01b03918216600090815260056020908152604080832093909416825291909152205460ff1690565b610476612ca8565b610476610a02366004614be6565b612d10565b6105cf610a15366004615123565b612db8565b6105cf610a2836600461518b565b612dfd565b6105cf610a3b366004615016565b612e31565b610476610a4e3660046147e5565b612e74565b602c546104af90600160a01b900460ff1681565b60006001600160a01b038316610ad75760405162461bcd60e51b815260206004820152602a60248201527f455243313135353a2061646472657373207a65726f206973206e6f742061207660448201526930b634b21037bbb732b960b11b60648201526084015b60405180910390fd5b5060008181526004602090815260408083206001600160a01b03861684529091529020545b92915050565b6000610afc82612f1d565b60328160048110610b1d57600080fd5b0154905081565b60386020528160005260406000208160048110610b4057600080fd5b01549150829050565b602c54600090600160a01b900460ff168015610b6757506000602254115b8015610b74575042602254105b610b7e5750600090565b602354602254610b8e90426151bd565b610b9891906151d0565b610ba39060016151f2565b905090565b606060068054610bb790615205565b80601f0160208091040260200160405190810160405280929190818152602001828054610be390615205565b8015610c305780601f10610c0557610100808354040283529160200191610c30565b820191906000526020600020905b815481529060010190602001808311610c1357829003601f168201915b50505050509050919050565b60408051600480825260a08201909252606091600091906020820160808036833701905050905060005b6004811015610cb357600a8160048110610c8257610c82615239565b0154828281518110610c9657610c96615239565b602090810291909101015280610cab8161524f565b915050610c66565b50919050565b600080805b6004811015610cb35760005b6036548111610d3d576000818152603b602052604090208260048110610cf257610cf2615239565b015460008281526038602052604090208360048110610d1357610d13615239565b0154610d1f91906151bd565b610d2990846151f2565b925080610d358161524f565b915050610cca565b5080610d488161524f565b915050610cbe565b60606000610d5c610b49565b90506004811115610d7557610d6f610c3c565b91505090565b60408051600480825260a082019092526000916020820160808036833701905050905060005b6004811015610e0757600e610db16001856151bd565b60048110610dc157610dc1615239565b600402018160048110610dd657610dd6615239565b0154828281518110610dea57610dea615239565b602090810291909101015280610dff8161524f565b915050610d9b565b5092915050565b600080805b6004811015610cb357600081815260086020526040902054610e3590836151f2565b915080610e418161524f565b915050610e13565b610e737f9f2df0fed2c77648de5860a4cc508cd0818c85b8b8a1ab4ceeef8d981c8956a633611f6f565b610e8f5760405162461bcd60e51b8152600401610ace90615268565b610e9b84848484612f28565b50505050565b60408051600480825260a08201909252606091600091906020820160808036833701905050905060005b6004811015610e0757610ede8482610a67565b828281518110610ef057610ef0615239565b602090810291909101015280610f058161524f565b915050610ecb565b600a8160048110610b1d57600080fd5b60408051600480825260a08201909252606091600091906020820160808036833701905050905060005b6004811015610cb357610f65816003811115610a0257610a026152c5565b828281518110610f7757610f77615239565b602090810291909101015280610f8c8161524f565b915050610f47565b60606000610fa0610b49565b60408051600480825260a08201909252919250600091906020820160808036833701905050905060005b6004811015610e07576004831161101f5760328160048110610fee57610fee615239565b015483602e836004811061100457611004615239565b015461101091906152db565b61101a91906151bd565b611022565b60005b82828151811061103457611034615239565b6020908102919091010152806110498161524f565b915050610fca565b6001600160a01b03851633148061106d575061106d85336109be565b6110895760405162461bcd60e51b8152600401610ace906152f2565b6110968585858585613092565b5050505050565b6000828152602081905260409020600101546110b88161324d565b6110c28383613257565b505050565b6110d2600033611f6f565b6110ee5760405162461bcd60e51b8152600401610ace90615340565b602c805460ff600160a01b808304821615810260ff60a01b1990931692909217928390556040517f512e257b3133a95bd1fef520dafc0dfb212f406af4f808d030e788c8ff536c049361114a9390049091161515815260200190565b60405180910390a1565b6001600160a01b03811633146111c45760405162461bcd60e51b815260206004820152602f60248201527f416363657373436f6e74726f6c3a2063616e206f6e6c792072656e6f756e636560448201526e103937b632b9903337b91039b2b63360891b6064820152608401610ace565b6111ce8282613279565b5050565b6000600a8260038111156111e8576111e86152c5565b600481106111f8576111f8615239565b015492915050565b61122a7f65d7a28e3265b37a6474929f336521b332c1681b933f6cb9f3376673440d862a33611f6f565b61129c5760405162461bcd60e51b815260206004820152603b60248201527f455243313135355072657365744d696e7465725061757365723a206d7573742060448201527f686176652070617573657220726f6c6520746f20756e706175736500000000006064820152608401610ace565b6112a461329b565b565b6000808360038111156112bb576112bb6152c5565b60365460009081526038602052604081209192509082600481106112e1576112e1615239565b0154600083815260086020526040812054919250901561132d576000838152600860205260409020546113148885610a67565b61131e90846152db565b61132891906151d0565b611330565b60005b6000868152603a6020908152604080832087845282528083206001600160a01b038c16845290915290205490915061136890826151bd565b979650505050505050565b61137e600033611f6f565b61139a5760405162461bcd60e51b8152600401610ace90615340565b60048151146113eb5760405162461bcd60e51b815260206004820152601960248201527f496e636f7272656374206e756d626572206f66207765656b73000000000000006044820152606401610ace565b60005b60048110156111ce57600482828151811061140b5761140b615239565b602002602001015151146114615760405162461bcd60e51b815260206004820152601960248201527f496e636f7272656374206e756d626572206f66207469657273000000000000006044820152606401610ace565b60005b60048110156114dc5782828151811061147f5761147f615239565b6020026020010151818151811061149857611498615239565b6020026020010151600e83600481106114b3576114b3615239565b6004020182600481106114c8576114c8615239565b0155806114d48161524f565b915050611464565b50806114e78161524f565b9150506113ee565b606081518351146115545760405162461bcd60e51b815260206004820152602960248201527f455243313135353a206163636f756e747320616e6420696473206c656e677468604482015268040dad2e6dac2e8c6d60bb1b6064820152608401610ace565b600083516001600160401b0381111561156f5761156f6148d1565b604051908082528060200260200182016040528015611598578160200160208202803683370190505b50905060005b8451811015611610576115e38582815181106115bc576115bc615239565b60200260200101518583815181106115d6576115d6615239565b6020026020010151610a67565b8282815181106115f5576115f5615239565b60209081029190910101526116098161524f565b905061159e565b509392505050565b60003381805b600481101561166e57600a816004811061163a5761163a615239565b01546116468483610a67565b61165091906152db565b61165a90836151f2565b9150806116668161524f565b91505061161e565b506000611679611d03565b905080156116905761168b81836151d0565b611693565b60005b935050505090565b600e82600481106116ab57600080fd5b600402018160048110610b4057600080fd5b6116c56132e8565b3360006116d38285856112a6565b60265460405163a9059cbb60e01b81526001600160a01b0385811660048301526024820184905292935091169063a9059cbb906044016020604051808303816000875af1158015611728573d6000803e3d6000fd5b505050506040513d601f19601f8201168201806040525081019061174c919061538f565b506000838152603a60205260408120829186600381111561176f5761176f6152c5565b81526020019081526020016000206000846001600160a01b03166001600160a01b0316815260200190815260200160002060008282546117af91906151f2565b90915550506001600955506111ce9050565b603b6020528160005260406000208160048110610b4057600080fd5b60396020528160005260406000208160048110610b4057600080fd5b60006118237fb53127684a568b3173ae13b9f8a6016e243e63b6e8ee1178d6a717850b5d61035490565b90506001600160a01b038116611862576001600160a01b037fb53127684a568b3173ae13b9f8a6016e243e63b6e8ee1178d6a717850b5d610355611877565b336001600160a01b0382161461187757600080fd5b61188089613341565b61188b60003361334d565b6118b57f9f2df0fed2c77648de5860a4cc508cd0818c85b8b8a1ab4ceeef8d981c8956a63361334d565b6118df7f65d7a28e3265b37a6474929f336521b332c1681b933f6cb9f3376673440d862a3361334d565b6118ec600a8960046146a9565b506118fa601e8860046146a9565b50602480546001600160a01b0319166001600160a01b03881617905561192360278660026146e7565b50602b84905561193660298460026146e7565b50602c80546001600160a01b0319166001600160a01b03848116919091179091556024546040805163db7a460560e01b815281516119c494939093169263db7a4605926004808401939192918290030181865afa15801561199b573d6000803e3d6000fd5b505050506040513d601f19601f820116820180604052508101906119bf91906153ac565b613357565b602460009054906101000a90046001600160a01b03166001600160a01b031663deef94de6040518163ffffffff1660e01b8152600401602060405180830381865afa158015611a17573d6000803e3d6000fd5b505050506040513d601f19601f82011682018060405250810190611a3b919061540e565b602580546001600160a01b0319166001600160a01b039283161790556024546040805163d63a6ccd60e01b81529051919092169163d63a6ccd9160048083019260209291908290030181865afa158015611a99573d6000803e3d6000fd5b505050506040513d601f19601f82011682018060405250810190611abd919061540e565b602680546001600160a01b0319166001600160a01b039283169081179091556024805460405163095ea7b360e01b815293166004840152600019908301529063095ea7b3906044016020604051808303816000875af1158015611b24573d6000803e3d6000fd5b505050506040513d601f19601f82011682018060405250810190611b48919061538f565b5060265460255460405163095ea7b360e01b81526001600160a01b039182166004820152600019602482015291169063095ea7b3906044016020604051808303816000875af1158015611b9f573d6000803e3d6000fd5b505050506040513d601f19601f82011682018060405250810190611bc3919061538f565b506024805460405163095ea7b360e01b81526001600160a01b03909116600482018190526000199282019290925263095ea7b3906044016020604051808303816000875af1158015611c19573d6000803e3d6000fd5b505050506040513d601f19601f82011682018060405250810190611c3d919061538f565b505060006036555050505050505050565b6001600160a01b038316331480611c6a5750611c6a83336109be565b611c865760405162461bcd60e51b8152600401610ace906152f2565b6110c2838383613363565b611cbb7f9f2df0fed2c77648de5860a4cc508cd0818c85b8b8a1ab4ceeef8d981c8956a633611f6f565b611cd75760405162461bcd60e51b8152600401610ace90615268565b610e9b8484848461350c565b60028160028110611cf357600080fd5b01546001600160a01b0316905081565b6000620f4240602460009054906101000a90046001600160a01b03166001600160a01b031663a035b1fe6040518163ffffffff1660e01b8152600401602060405180830381865afa158015611d5c573d6000803e3d6000fd5b505050506040513d601f19601f82011682018060405250810190611d80919061542b565b6024546001600160a01b03166370a0823160026000015460405160e083901b6001600160e01b03191681526001600160a01b039091166004820152602401602060405180830381865afa158015611ddb573d6000803e3d6000fd5b505050506040513d601f19601f82011682018060405250810190611dff919061542b565b611e0991906152db565b611e1391906151d0565b6026546001600160a01b03166370a0823160026000015460405160e083901b6001600160e01b03191681526001600160a01b039091166004820152602401602060405180830381865afa158015611e6e573d6000803e3d6000fd5b505050506040513d601f19601f82011682018060405250810190611e92919061542b565b610ba391906151f2565b611ec67f65d7a28e3265b37a6474929f336521b332c1681b933f6cb9f3376673440d862a33611f6f565b611f385760405162461bcd60e51b815260206004820152603960248201527f455243313135355072657365744d696e7465725061757365723a206d7573742060448201527f686176652070617573657220726f6c6520746f207061757365000000000000006064820152608401610ace565b6112a4613606565b601e8160048110610b1d57600080fd5b6000828152600160205260408120611f689083613643565b9392505050565b6000918252602082815260408084206001600160a01b0393909316845291905290205460ff1690565b606033610d6f81610ea1565b6111ce33838361364f565b6000818152600160205260408120610afc9061372f565b60298160028110610b1d57600080fd5b611fde6132e8565b600082116120545760405162461bcd60e51b815260206004820152603960248201527f45205243313135355072657365744d696e7465725061757365723a20616d6f7560448201527f6e74206d7573742062652067726561746572207468616e2030000000000000006064820152608401610ace565b6000600a84600381111561206a5761206a6152c5565b6004811061207a5761207a615239565b0154116120ef5760405162461bcd60e51b815260206004820152603c60248201527f455243313135355072657365744d696e7465725061757365723a20746965722060448201527f7072696365206d7573742062652067726561746572207468616e2030000000006064820152608401610ace565b6001600160a01b0381161580159080612119575080801561211957506001600160a01b0382163314155b6121745760405162461bcd60e51b815260206004820152602660248201527f526566657272616c206d75737420626520646966666572656e742066726f6d2060448201526539b2b73232b960d11b6064820152608401610ace565b6000846003811115612188576121886152c5565b602c54909150600160a01b900460ff1661242557600084600a8760038111156121b3576121b36152c5565b600481106121c3576121c3615239565b01546121cf91906152db565b6026549091506001600160a01b03166323b872dd336040516001600160e01b031960e084901b1681526001600160a01b039091166004820152306024820152604481018490526064016020604051808303816000875af1158015612237573d6000803e3d6000fd5b505050506040513d601f19601f8201168201806040525081019061225b919061538f565b50600061227882602786612270576000613739565b602b54613739565b6024805460405163f7e0ba5f60e01b8152600481018490529293506000926001600160a01b039091169163f7e0ba5f91016020604051808303816000875af11580156122c8573d6000803e3d6000fd5b505050506040513d601f19601f820116820180604052508101906122ec919061542b565b60245490915060009061230a906001600160a01b03168360276137a8565b90508515612347576000612337602460009054906101000a90046001600160a01b0316848a602b546138a6565b905061234381836151f2565b9150505b6026546040516370a0823160e01b81523060048201526000916001600160a01b0316906370a0823190602401602060405180830381865afa158015612390573d6000803e3d6000fd5b505050506040513d601f19601f820116820180604052508101906123b4919061542b565b9050801561241b5760255460405163b6b55f2560e01b8152600481018390526001600160a01b039091169063b6b55f2590602401600060405180830381600087803b15801561240257600080fd5b505af1158015612416573d6000803e3d6000fd5b505050505b50505050506128bb565b6022544210156124775760405162461bcd60e51b815260206004820152601a60248201527f50726573616c65206973206e6f742073746172746564207965740000000000006044820152606401610ace565b6000612481610b49565b905060048111156124c65760405162461bcd60e51b815260206004820152600f60248201526e283932b9b0b6329034b99037bb32b960891b6044820152606401610ace565b6000600e6124d56001846151bd565b600481106124e5576124e5615239565b60408051608081019182905292600492830201919082845b8154815260200190600101908083116124fd575050505050905085602d60006125233390565b6001600160a01b03166001600160a01b0316815260200190815260200160002060008481526020019081526020016000206000896003811115612568576125686152c5565b8152602001908152602001600020600082825461258591906151f2565b9091555086905060328860038111156125a0576125a06152c5565b600481106125b0576125b0615239565b0160008282546125c091906151f2565b90915550829050602e8860038111156125db576125db6152c5565b600481106125eb576125eb615239565b01546125f791906152db565b603288600381111561260b5761260b6152c5565b6004811061261b5761261b615239565b015411156126775760405162461bcd60e51b815260206004820152602360248201527f50726573616c65206d617820737570706c7920706572207765656b20726561636044820152621a195960ea1b6064820152608401610ace565b6000868289600381111561268d5761268d6152c5565b6004811061269d5761269d615239565b60200201516126ac91906152db565b6026549091506001600160a01b03166323b872dd336040516001600160e01b031960e084901b1681526001600160a01b039091166004820152306024820152604481018490526064016020604051808303816000875af1158015612714573d6000803e3d6000fd5b505050506040513d601f19601f82011682018060405250810190612738919061538f565b50600085612747576000612764565b602654602b54612764916001600160a01b03169084908a906138a6565b9050600086156127755760006127a0565b6026546127a0906001600160a01b031684600260000154602b546001600160a01b03909116906138a6565b6026549091506000906127be906001600160a01b03168560276137a8565b6026546040516370a0823160e01b81523060048201529192506000916001600160a01b03909116906370a0823190602401602060405180830381865afa15801561280c573d6000803e3d6000fd5b505050506040513d601f19601f82011682018060405250810190612830919061542b565b905080156128b357602654602c5460405163a9059cbb60e01b81526001600160a01b0391821660048201526024810184905291169063a9059cbb906044016020604051808303816000875af115801561288d573d6000803e3d6000fd5b505050506040513d601f19601f820116820180604052508101906128b1919061538f565b505b505050505050505b6128d63382866040518060200160405280600081525061350c565b50506110c26001600955565b6128ea6132e8565b60005b60048110156129425760005b603654811161292f5761291d826003811115612917576129176152c5565b826116bd565b806129278161524f565b9150506128f9565b508061293a8161524f565b9150506128ed565b506112a46001600955565b6129556132e8565b6026546001600160a01b03166323b872dd336040516001600160e01b031960e084901b1681526001600160a01b039091166004820152306024820152604481018490526064016020604051808303816000875af11580156129ba573d6000803e3d6000fd5b505050506040513d601f19601f820116820180604052508101906129de919061538f565b5060006129ec6002836151d0565b90506000612a066129fd83856151bd565b60296000613739565b6024805460405163f7e0ba5f60e01b8152600481018490529293506000926001600160a01b039091169163f7e0ba5f91016020604051808303816000875af1158015612a56573d6000803e3d6000fd5b505050506040513d601f19601f82011682018060405250810190612a7a919061542b565b602454909150600090612a98906001600160a01b03168360296137a8565b603680549192506000612aaa8361524f565b90915550506036546000908152603760205260408120829055612acb610e0e565b905060005b6004811015612b59576000818152600860209081526040808320546036548452603990925290912081908360048110612b0b57612b0b615239565b015582612b1882896152db565b612b2291906151d0565b60365460009081526038602052604090208360048110612b4457612b44615239565b01555080612b518161524f565b915050612ad0565b506026546040516370a0823160e01b81523060048201526000916001600160a01b0316906370a0823190602401602060405180830381865afa158015612ba3573d6000803e3d6000fd5b505050506040513d601f19601f82011682018060405250810190612bc7919061542b565b90508015612c2e5760255460405163b6b55f2560e01b8152600481018390526001600160a01b039091169063b6b55f2590602401600060405180830381600087803b158015612c1557600080fd5b505af1158015612c29573d6000803e3d6000fd5b505050505b505050505050612c3e6001600955565b50565b600082815260208190526040902060010154612c5c8161324d565b6110c28383613279565b60278160028110610b1d57600080fd5b612c81600033611f6f565b612c9d5760405162461bcd60e51b8152600401610ace90615340565b602291909155602355565b60003381805b6004811015610e075760005b6036548111612cfd57612cdf84836003811115612cd957612cd96152c5565b836112a6565b612ce990846151f2565b925080612cf58161524f565b915050612cba565b5080612d088161524f565b915050612cae565b6000612d2782600381111561086c5761086c6152c5565b15612d4657612d4182600381111561086c5761086c6152c5565b612d49565b60015b6036546000908152603860205260409020836003811115612d6c57612d6c6152c5565b60048110612d7c57612d7c615239565b0154612d8891906151d0565b600a836003811115612d9c57612d9c6152c5565b60048110612dac57612dac615239565b0154610afc91906151f2565b6001600160a01b038516331480612dd45750612dd485336109be565b612df05760405162461bcd60e51b8152600401610ace906152f2565b6110968585858585613a0b565b612e08600033611f6f565b612e245760405162461bcd60e51b8152600401610ace90615340565b6111ce602e8260046146a9565b6001600160a01b038316331480612e4d5750612e4d83336109be565b612e695760405162461bcd60e51b8152600401610ace906152f2565b6110c2838383613b55565b602e8160048110610b1d57600080fd5b612e8e8282611f6f565b6111ce576000828152602081815260408083206001600160a01b03851684529091529020805460ff19166001179055612ec43390565b6001600160a01b0316816001600160a01b0316837f2f8788117e7eff1d82e926ec794901d17c78024a50270940304540a733656f0d60405160405180910390a45050565b6000611f68836001600160a01b038416613c7b565b6000610afc82613cca565b6001600160a01b038416612f4e5760405162461bcd60e51b8152600401610ace90615444565b8151835114612f6f5760405162461bcd60e51b8152600401610ace90615485565b33612f7f81600087878787613d0a565b60005b845181101561301b57838181518110612f9d57612f9d615239565b602002602001015160046000878481518110612fbb57612fbb615239565b602002602001015181526020019081526020016000206000886001600160a01b03166001600160a01b03168152602001908152602001600020600082825461300391906151f2565b909155508190506130138161524f565b915050612f82565b50846001600160a01b031660006001600160a01b0316826001600160a01b03167f4a39dc06d4c0dbc64b70af90fd698a233a518aa5d07e595d983b8c0526c8f7fb878760405161306c9291906154cd565b60405180910390a461308381600087878787613d18565b61109681600087878787613dca565b81518351146130b35760405162461bcd60e51b8152600401610ace90615485565b6001600160a01b0384166130d95760405162461bcd60e51b8152600401610ace906154f2565b336130e8818787878787613d0a565b60005b84518110156131d157600085828151811061310857613108615239565b60200260200101519050600085838151811061312657613126615239565b60209081029190910181015160008481526004835260408082206001600160a01b038e1683529093529190912054909150818110156131775760405162461bcd60e51b8152600401610ace90615537565b60008381526004602090815260408083206001600160a01b038e8116855292528083208585039055908b168252812080548492906131b69084906151f2565b92505081905550505050806131ca9061524f565b90506130eb565b50846001600160a01b0316866001600160a01b0316826001600160a01b03167f4a39dc06d4c0dbc64b70af90fd698a233a518aa5d07e595d983b8c0526c8f7fb87876040516132219291906154cd565b60405180910390a4613237818787878787613d18565b613245818787878787613dca565b505050505050565b612c3e8133613f25565b6132618282612e84565b60008281526001602052604090206110c29082612f08565b6132838282613f7e565b60008281526001602052604090206110c29082613fe3565b6132a3613ff8565b6007805460ff191690557f5db9ee0a495bf2e6ff9c91a7834c1ba4fdd244a5e8aa4e537bd38aeae4b073aa335b6040516001600160a01b03909116815260200161114a565b60026009540361333a5760405162461bcd60e51b815260206004820152601f60248201527f5265656e7472616e637947756172643a207265656e7472616e742063616c6c006044820152606401610ace565b6002600955565b60066111ce82826155c7565b6111ce8282613257565b6111ce60028281614714565b6001600160a01b0383166133895760405162461bcd60e51b8152600401610ace90615686565b80518251146133aa5760405162461bcd60e51b8152600401610ace90615485565b60003390506133cd81856000868660405180602001604052806000815250613d0a565b60005b83518110156134955760008482815181106133ed576133ed615239565b60200260200101519050600084838151811061340b5761340b615239565b60209081029190910181015160008481526004835260408082206001600160a01b038c16835290935291909120549091508181101561345c5760405162461bcd60e51b8152600401610ace906156c9565b60009283526004602090815260408085206001600160a01b038b168652909152909220910390558061348d8161524f565b9150506133d0565b5060006001600160a01b0316846001600160a01b0316826001600160a01b03167f4a39dc06d4c0dbc64b70af90fd698a233a518aa5d07e595d983b8c0526c8f7fb86866040516134e69291906154cd565b60405180910390a4610e9b81856000868660405180602001604052806000815250613d18565b6001600160a01b0384166135325760405162461bcd60e51b8152600401610ace90615444565b33600061353e85614041565b9050600061354b85614041565b905061355c83600089858589613d0a565b60008681526004602090815260408083206001600160a01b038b1684529091528120805487929061358e9084906151f2565b909155505060408051878152602081018790526001600160a01b03808a1692600092918716917fc3d58168c5ae7397731d063d5bbf3d657854427343f4c083240f7aacaa2d0f62910160405180910390a46135ee83600089858589613d18565b6135fd8360008989898961408c565b50505050505050565b61360e614147565b6007805460ff191660011790557f62e78cea01bee320cd4e420270b5ea74000d11b0c9f74754ebdbfc544b05a2586132d03390565b6000611f68838361418d565b816001600160a01b0316836001600160a01b0316036136c25760405162461bcd60e51b815260206004820152602960248201527f455243313135353a2073657474696e6720617070726f76616c20737461747573604482015268103337b91039b2b63360b91b6064820152608401610ace565b6001600160a01b03838116600081815260056020908152604080832094871680845294825291829020805460ff191686151590811790915591519182527f17307eab39ab6107e8899845ad3d59bd9653f200f220920489ca2b5937696c31910160405180910390a3505050565b6000610afc825490565b600080805b60028110156137795784816002811061375957613759615239565b015461376590836151f2565b9150806137718161524f565b91505061373e565b5061378483826151f2565b90506305f5e10061379582876152db565b61379f91906151d0565b95945050505050565b600080805b600281101561389d5760006305f5e1008583600281106137cf576137cf615239565b01546137db90886152db565b6137e591906151d0565b9050866001600160a01b031663a9059cbb6002846002811061380957613809615239565b015460405160e083901b6001600160e01b03191681526001600160a01b039091166004820152602481018490526044016020604051808303816000875af1158015613858573d6000803e3d6000fd5b505050506040513d601f19601f8201168201806040525081019061387c919061538f565b5061388781846151f2565b92505080806138959061524f565b9150506137ad565b50949350505050565b6040516370a0823160e01b815230600482015260009081906001600160a01b038716906370a0823190602401602060405180830381865afa1580156138ef573d6000803e3d6000fd5b505050506040513d601f19601f82011682018060405250810190613913919061542b565b905060006305f5e10061392685886152db565b61393091906151d0565b90508082101561398d5760405162461bcd60e51b815260206004820152602260248201527f4e6f7420656e6f7567682062616c616e6365206f6e2074686520636f6e74726160448201526118dd60f21b6064820152608401610ace565b60405163a9059cbb60e01b81526001600160a01b0386811660048301526024820183905288169063a9059cbb906044016020604051808303816000875af11580156139dc573d6000803e3d6000fd5b505050506040513d601f19601f82011682018060405250810190613a00919061538f565b509695505050505050565b6001600160a01b038416613a315760405162461bcd60e51b8152600401610ace906154f2565b336000613a3d85614041565b90506000613a4a85614041565b9050613a5a838989858589613d0a565b60008681526004602090815260408083206001600160a01b038c16845290915290205485811015613a9d5760405162461bcd60e51b8152600401610ace90615537565b60008781526004602090815260408083206001600160a01b038d8116855292528083208985039055908a16825281208054889290613adc9084906151f2565b909155505060408051888152602081018890526001600160a01b03808b16928c821692918816917fc3d58168c5ae7397731d063d5bbf3d657854427343f4c083240f7aacaa2d0f62910160405180910390a4613b3c848a8a86868a613d18565b613b4a848a8a8a8a8a61408c565b505050505050505050565b6001600160a01b038316613b7b5760405162461bcd60e51b8152600401610ace90615686565b336000613b8784614041565b90506000613b9484614041565b9050613bb483876000858560405180602001604052806000815250613d0a565b60008581526004602090815260408083206001600160a01b038a16845290915290205484811015613bf75760405162461bcd60e51b8152600401610ace906156c9565b60008681526004602090815260408083206001600160a01b038b81168086529184528285208a8703905582518b81529384018a90529092908816917fc3d58168c5ae7397731d063d5bbf3d657854427343f4c083240f7aacaa2d0f62910160405180910390a46135fd84886000868660405180602001604052806000815250613d18565b6000818152600183016020526040812054613cc257508154600181810184556000848152602080822090930184905584548482528286019093526040902091909155610afc565b506000610afc565b60006001600160e01b03198216636cdb3d1360e11b1480613cfb57506001600160e01b031982166303a24d0760e21b145b80610afc5750610afc826141b7565b6132458686868686866141dc565b601e83600081518110613d2d57613d2d615239565b602002602001015160048110613d4557613d45615239565b0154613d7784600081518110613d5d57613d5d615239565b602002602001015160009081526008602052604090205490565b1115613dc55760405162461bcd60e51b815260206004820152601b60248201527f536166654e46543a206d617820737570706c79207265616368656400000000006044820152606401610ace565b613245565b6001600160a01b0384163b156132455760405163bc197c8160e01b81526001600160a01b0385169063bc197c8190613e0e908990899088908890889060040161570d565b6020604051808303816000875af1925050508015613e49575060408051601f3d908101601f19168201909252613e469181019061576b565b60015b613ef557613e55615788565b806308c379a003613e8e5750613e696157a4565b80613e745750613e90565b8060405162461bcd60e51b8152600401610ace9190614870565b505b60405162461bcd60e51b815260206004820152603460248201527f455243313135353a207472616e7366657220746f206e6f6e2d455243313135356044820152732932b1b2b4bb32b91034b6b83632b6b2b73a32b960611b6064820152608401610ace565b6001600160e01b0319811663bc197c8160e01b146135fd5760405162461bcd60e51b8152600401610ace9061582d565b613f2f8282611f6f565b6111ce57613f3c81614363565b613f47836020614375565b604051602001613f58929190615875565b60408051601f198184030181529082905262461bcd60e51b8252610ace91600401614870565b613f888282611f6f565b156111ce576000828152602081815260408083206001600160a01b0385168085529252808320805460ff1916905551339285917ff6391f5c32d9c69d2a47ea670b442974b53935d1edc7fd64eb21e047a839171b9190a45050565b6000611f68836001600160a01b038416614510565b60075460ff166112a45760405162461bcd60e51b815260206004820152601460248201527314185d5cd8589b194e881b9bdd081c185d5cd95960621b6044820152606401610ace565b6040805160018082528183019092526060916000919060208083019080368337019050509050828160008151811061407b5761407b615239565b602090810291909101015292915050565b6001600160a01b0384163b156132455760405163f23a6e6160e01b81526001600160a01b0385169063f23a6e61906140d090899089908890889088906004016158ea565b6020604051808303816000875af192505050801561410b575060408051601f3d908101601f191682019092526141089181019061576b565b60015b61411757613e55615788565b6001600160e01b0319811663f23a6e6160e01b146135fd5760405162461bcd60e51b8152600401610ace9061582d565b60075460ff16156112a45760405162461bcd60e51b815260206004820152601060248201526f14185d5cd8589b194e881c185d5cd95960821b6044820152606401610ace565b60008260000182815481106141a4576141a4615239565b9060005260206000200154905092915050565b60006001600160e01b03198216635a05180f60e01b1480610afc5750610afc82614603565b6141ea868686868686614638565b6001600160a01b0385166142715760005b835181101561426f5782818151811061421657614216615239565b60200260200101516008600086848151811061423457614234615239565b60200260200101518152602001908152602001600020600082825461425991906151f2565b9091555061426890508161524f565b90506141fb565b505b6001600160a01b0384166132455760005b83518110156135fd57600084828151811061429f5761429f615239565b6020026020010151905060008483815181106142bd576142bd615239565b60200260200101519050600060086000848152602001908152602001600020549050818110156143405760405162461bcd60e51b815260206004820152602860248201527f455243313135353a206275726e20616d6f756e74206578636565647320746f74604482015267616c537570706c7960c01b6064820152608401610ace565b6000928352600860205260409092209103905561435c8161524f565b9050614282565b6060610afc6001600160a01b03831660145b606060006143848360026152db565b61438f9060026151f2565b6001600160401b038111156143a6576143a66148d1565b6040519080825280601f01601f1916602001820160405280156143d0576020820181803683370190505b509050600360fc1b816000815181106143eb576143eb615239565b60200101906001600160f81b031916908160001a905350600f60fb1b8160018151811061441a5761441a615239565b60200101906001600160f81b031916908160001a905350600061443e8460026152db565b6144499060016151f2565b90505b60018111156144c1576f181899199a1a9b1b9c1cb0b131b232b360811b85600f166010811061447d5761447d615239565b1a60f81b82828151811061449357614493615239565b60200101906001600160f81b031916908160001a90535060049490941c936144ba81615922565b905061444c565b508315611f685760405162461bcd60e51b815260206004820181905260248201527f537472696e67733a20686578206c656e67746820696e73756666696369656e746044820152606401610ace565b600081815260018301602052604081205480156145f95760006145346001836151bd565b8554909150600090614548906001906151bd565b90508181146145ad57600086600001828154811061456857614568615239565b906000526020600020015490508087600001848154811061458b5761458b615239565b6000918252602080832090910192909255918252600188019052604090208390555b85548690806145be576145be615939565b600190038181906000526020600020016000905590558560010160008681526020019081526020016000206000905560019350505050610afc565b6000915050610afc565b60006001600160e01b03198216637965db0b60e01b1480610afc57506301ffc9a760e01b6001600160e01b0319831614610afc565b61324586868686868660075460ff16156132455760405162461bcd60e51b815260206004820152602c60248201527f455243313135355061757361626c653a20746f6b656e207472616e736665722060448201526b1dda1a5b19481c185d5cd95960a21b6064820152608401610ace565b82600481019282156146d7579160200282015b828111156146d75782518255916020019190600101906146bc565b506146e392915061475c565b5090565b82600281019282156146d757916020028201828111156146d75782518255916020019190600101906146bc565b82600281019282156146d7579160200282015b828111156146d757825182546001600160a01b0319166001600160a01b03909116178255602090920191600190910190614727565b5b808211156146e3576000815560010161475d565b6001600160a01b0381168114612c3e57600080fd5b6000806040838503121561479957600080fd5b82356147a481614771565b946020939093013593505050565b6001600160e01b031981168114612c3e57600080fd5b6000602082840312156147da57600080fd5b8135611f68816147b2565b6000602082840312156147f757600080fd5b5035919050565b6000806040838503121561481157600080fd5b50508035926020909101359150565b60005b8381101561483b578181015183820152602001614823565b50506000910152565b6000815180845261485c816020860160208601614820565b601f01601f19169290920160200192915050565b602081526000611f686020830184614844565b600081518084526020808501945080840160005b838110156148b357815187529582019590820190600101614897565b509495945050505050565b602081526000611f686020830184614883565b634e487b7160e01b600052604160045260246000fd5b604081018181106001600160401b0382111715614906576149066148d1565b60405250565b601f8201601f191681016001600160401b0381118282101715614931576149316148d1565b6040525050565b60006001600160401b03821115614951576149516148d1565b5060051b60200190565b600082601f83011261496c57600080fd5b8135602061497982614938565b604051614986828261490c565b83815260059390931b85018201928281019150868411156149a657600080fd5b8286015b84811015613a0057803583529183019183016149aa565b60006001600160401b038311156149da576149da6148d1565b6040516149f1601f8501601f19166020018261490c565b809150838152848484011115614a0657600080fd5b83836020830137600060208583010152509392505050565b600082601f830112614a2f57600080fd5b611f68838335602085016149c1565b60008060008060808587031215614a5457600080fd5b8435614a5f81614771565b935060208501356001600160401b0380821115614a7b57600080fd5b614a878883890161495b565b94506040870135915080821115614a9d57600080fd5b614aa98883890161495b565b93506060870135915080821115614abf57600080fd5b50614acc87828801614a1e565b91505092959194509250565b600060208284031215614aea57600080fd5b8135611f6881614771565b600080600080600060a08688031215614b0d57600080fd5b8535614b1881614771565b94506020860135614b2881614771565b935060408601356001600160401b0380821115614b4457600080fd5b614b5089838a0161495b565b94506060880135915080821115614b6657600080fd5b614b7289838a0161495b565b93506080880135915080821115614b8857600080fd5b50614b9588828901614a1e565b9150509295509295909350565b60008060408385031215614bb557600080fd5b823591506020830135614bc781614771565b809150509250929050565b803560048110614be157600080fd5b919050565b600060208284031215614bf857600080fd5b611f6882614bd2565b600080600060608486031215614c1657600080fd5b8335614c2181614771565b9250614c2f60208501614bd2565b9150604084013590509250925092565b60006020808385031215614c5257600080fd5b82356001600160401b0380821115614c6957600080fd5b818501915085601f830112614c7d57600080fd5b8135614c8881614938565b604051614c95828261490c565b82815260059290921b8401850191858101915088831115614cb557600080fd5b8585015b83811015614ced57803585811115614cd15760008081fd5b614cdf8b89838a010161495b565b845250918601918601614cb9565b5098975050505050505050565b60008060408385031215614d0d57600080fd5b82356001600160401b0380821115614d2457600080fd5b818501915085601f830112614d3857600080fd5b81356020614d4582614938565b604051614d52828261490c565b83815260059390931b8501820192828101915089841115614d7257600080fd5b948201945b83861015614d99578535614d8a81614771565b82529482019490820190614d77565b96505086013592505080821115614daf57600080fd5b50614dbc8582860161495b565b9150509250929050565b60008060408385031215614dd957600080fd5b6147a483614bd2565b600082601f830112614df357600080fd5b604051608081018181106001600160401b0382111715614e1557614e156148d1565b604052806080840185811115614e2a57600080fd5b845b81811015614e44578035835260209283019201614e2c565b509195945050505050565b600082601f830112614e6057600080fd5b604051614e6c816148e7565b806040840185811115614e2a57600080fd5b600080600080600080600080610200898b031215614e9b57600080fd5b88356001600160401b03811115614eb157600080fd5b8901601f81018b13614ec257600080fd5b614ed18b8235602084016149c1565b985050614ee18a60208b01614de2565b9650614ef08a60a08b01614de2565b9550610120890135614f0181614771565b9450614f118a6101408b01614e4f565b93506101808901359250614f298a6101a08b01614e4f565b91506101e0890135614f3a81614771565b809150509295985092959890939650565b600080600060608486031215614f6057600080fd5b8335614f6b81614771565b925060208401356001600160401b0380821115614f8757600080fd5b614f938783880161495b565b93506040860135915080821115614fa957600080fd5b50614fb68682870161495b565b9150509250925092565b60008060008060808587031215614fd657600080fd5b8435614fe181614771565b9350602085013592506040850135915060608501356001600160401b0381111561500a57600080fd5b614acc87828801614a1e565b60008060006060848603121561502b57600080fd5b833561503681614771565b95602085013595506040909401359392505050565b8015158114612c3e57600080fd5b6000806040838503121561506c57600080fd5b823561507781614771565b91506020830135614bc78161504b565b60008060006060848603121561509c57600080fd5b833592506020840135915060408401356150b581614771565b809150509250925092565b6000806000606084860312156150d557600080fd5b6150de84614bd2565b92506020840135915060408401356150b581614771565b6000806040838503121561510857600080fd5b823561511381614771565b91506020830135614bc781614771565b600080600080600060a0868803121561513b57600080fd5b853561514681614771565b9450602086013561515681614771565b9350604086013592506060860135915060808601356001600160401b0381111561517f57600080fd5b614b9588828901614a1e565b60006080828403121561519d57600080fd5b611f688383614de2565b634e487b7160e01b600052601160045260246000fd5b81810381811115610afc57610afc6151a7565b6000826151ed57634e487b7160e01b600052601260045260246000fd5b500490565b80820180821115610afc57610afc6151a7565b600181811c9082168061521957607f821691505b602082108103610cb357634e487b7160e01b600052602260045260246000fd5b634e487b7160e01b600052603260045260246000fd5b600060018201615261576152616151a7565b5060010190565b60208082526038908201527f455243313135355072657365744d696e7465725061757365723a206d7573742060408201527f68617665206d696e74657220726f6c6520746f206d696e740000000000000000606082015260800190565b634e487b7160e01b600052602160045260246000fd5b8082028115828204841417610afc57610afc6151a7565b6020808252602e908201527f455243313135353a2063616c6c6572206973206e6f7420746f6b656e206f776e60408201526d195c881bdc88185c1c1c9bdd995960921b606082015260800190565b6020808252602f908201527f455243313135355072657365744d696e7465725061757365723a206d7573742060408201526e686176652061646d696e20726f6c6560881b606082015260800190565b6000602082840312156153a157600080fd5b8151611f688161504b565b6000604082840312156153be57600080fd5b82601f8301126153cd57600080fd5b6040516153d9816148e7565b8060408401858111156153eb57600080fd5b845b81811015614e4457805161540081614771565b8352602092830192016153ed565b60006020828403121561542057600080fd5b8151611f6881614771565b60006020828403121561543d57600080fd5b5051919050565b60208082526021908201527f455243313135353a206d696e7420746f20746865207a65726f206164647265736040820152607360f81b606082015260800190565b60208082526028908201527f455243313135353a2069647320616e6420616d6f756e7473206c656e677468206040820152670dad2e6dac2e8c6d60c31b606082015260800190565b6040815260006154e06040830185614883565b828103602084015261379f8185614883565b60208082526025908201527f455243313135353a207472616e7366657220746f20746865207a65726f206164604082015264647265737360d81b606082015260800190565b6020808252602a908201527f455243313135353a20696e73756666696369656e742062616c616e636520666f60408201526939103a3930b739b332b960b11b606082015260800190565b601f8211156110c257600081815260208120601f850160051c810160208610156155a85750805b601f850160051c820191505b81811015613245578281556001016155b4565b81516001600160401b038111156155e0576155e06148d1565b6155f4816155ee8454615205565b84615581565b602080601f83116001811461562957600084156156115750858301515b600019600386901b1c1916600185901b178555613245565b600085815260208120601f198616915b8281101561565857888601518255948401946001909101908401615639565b50858210156156765787850151600019600388901b60f8161c191681555b5050505050600190811b01905550565b60208082526023908201527f455243313135353a206275726e2066726f6d20746865207a65726f206164647260408201526265737360e81b606082015260800190565b60208082526024908201527f455243313135353a206275726e20616d6f756e7420657863656564732062616c604082015263616e636560e01b606082015260800190565b60006001600160a01b03808816835280871660208401525060a0604083015261573960a0830186614883565b828103606084015261574b8186614883565b9050828103608084015261575f8185614844565b98975050505050505050565b60006020828403121561577d57600080fd5b8151611f68816147b2565b600060033d11156157a15760046000803e5060005160e01c5b90565b600060443d10156157b25790565b6040516003193d81016004833e81513d6001600160401b0381602484011181841117156157e157505050505090565b82850191508151818111156157f95750505050505090565b843d87010160208285010111156158135750505050505090565b6158226020828601018761490c565b509095945050505050565b60208082526028908201527f455243313135353a204552433131353552656365697665722072656a656374656040820152676420746f6b656e7360c01b606082015260800190565b7f416363657373436f6e74726f6c3a206163636f756e74200000000000000000008152600083516158ad816017850160208801614820565b7001034b99036b4b9b9b4b733903937b6329607d1b60179184019182015283516158de816028840160208801614820565b01602801949350505050565b60006001600160a01b03808816835280871660208401525084604083015283606083015260a0608083015261136860a0830184614844565b600081615931576159316151a7565b506000190190565b634e487b7160e01b600052603160045260246000fdfea26469706673582212201b0a30ef37587cea2695fef53c6e2d0ab00e16f8c094875118673faaafbf64e764736f6c63430008110033b53127684a568b3173ae13b9f8a6016e243e63b6e8ee1178d6a717850b5d610365d7a28e3265b37a6474929f336521b332c1681b933f6cb9f3376673440d862a9f2df0fed2c77648de5860a4cc508cd0818c85b8b8a1ab4ceeef8d981c8956a6",
  "devdoc": {
    "author": "crypt0grapher",
    "kind": "dev",
    "methods": {
      "balanceOf(address,uint256)": {
        "details": "See {IERC1155-balanceOf}. Requirements: - `account` cannot be the zero address."
      },
      "balanceOfBatch(address[],uint256[])": {
        "details": "See {IERC1155-balanceOfBatch}. Requirements: - `accounts` and `ids` must have the same length."
      },
      "buy(uint8,uint256,address)": {
        "params": {
          "_amount": "amount of USD to spend",
          "_referral": "referral getting 5% of the price, should not be the sender, if not specified, goes to treasury",
          "_tier": "tier of the NFT to purchase which stands for ERC1155 token id [0..3]"
        }
      },
      "distributeProfit(uint256)": {
        "params": {
          "_amountUSD": "amount of USD to distribute"
        }
      },
      "exists(uint256)": {
        "details": "Indicates whether any token exist with a given id, or not."
      },
      "getCurrentPresaleWeek()": {
        "returns": {
          "_0": "returns 1-4"
        }
      },
      "getDiscountedPriceTable()": {
        "returns": {
          "_0": "uint256[] containing all NFT prices in one table in USD for the current presale week"
        }
      },
      "getFairPrice(uint8)": {
        "returns": {
          "_0": "counts not only the sale price but also share of the profit for the tier"
        }
      },
      "getPrice(uint8)": {
        "returns": {
          "_0": "NFT price in USD"
        }
      },
      "getPriceTable()": {
        "returns": {
          "_0": "uint256[] containing all NFT prices in one table in USD"
        }
      },
      "getRoleAdmin(bytes32)": {
        "details": "Returns the admin role that controls `role`. See {grantRole} and {revokeRole}. To change a role's admin, use {_setRoleAdmin}."
      },
      "getRoleMember(bytes32,uint256)": {
        "details": "Returns one of the accounts that have `role`. `index` must be a value between 0 and {getRoleMemberCount}, non-inclusive. Role bearers are not sorted in any particular way, and their ordering may change at any point. WARNING: When using {getRoleMember} and {getRoleMemberCount}, make sure you perform all queries on the same block. See the following https://forum.openzeppelin.com/t/iterating-over-elements-on-enumerableset-in-openzeppelin-contracts/2296[forum post] for more information."
      },
      "getRoleMemberCount(bytes32)": {
        "details": "Returns the number of accounts that have `role`. Can be used together with {getRoleMember} to enumerate all bearers of a role."
      },
      "getUnclaimedRewards()": {
        "returns": {
          "_0": "amount of the rewards not yet distributed to NFT holders"
        }
      },
      "grantRole(bytes32,address)": {
        "details": "Grants `role` to `account`. If `account` had not been already granted `role`, emits a {RoleGranted} event. Requirements: - the caller must have ``role``'s admin role. May emit a {RoleGranted} event."
      },
      "hasRole(bytes32,address)": {
        "details": "Returns `true` if `account` has been granted `role`."
      },
      "isApprovedForAll(address,address)": {
        "details": "See {IERC1155-isApprovedForAll}."
      },
      "mint(address,uint256,uint256,bytes)": {
        "details": "Creates `amount` new tokens for `to`, of token type `id`. See {ERC1155-_mint}. Requirements: - the caller must have the `MINTER_ROLE`."
      },
      "mintBatch(address,uint256[],uint256[],bytes)": {
        "details": "xref:ROOT:erc1155.adoc#batch-operations[Batched] variant of {mint}."
      },
      "pause()": {
        "details": "Pauses all token transfers. See {ERC1155Pausable} and {Pausable-_pause}. Requirements: - the caller must have the `PAUSER_ROLE`."
      },
      "paused()": {
        "details": "Returns true if the contract is paused, and false otherwise."
      },
      "renounceRole(bytes32,address)": {
        "details": "Revokes `role` from the calling account. Roles are often managed via {grantRole} and {revokeRole}: this function's purpose is to provide a mechanism for accounts to lose their privileges if they are compromised (such as when a trusted device is misplaced). If the calling account had been revoked `role`, emits a {RoleRevoked} event. Requirements: - the caller must be `account`. May emit a {RoleRevoked} event."
      },
      "revokeRole(bytes32,address)": {
        "details": "Revokes `role` from `account`. If `account` had been granted `role`, emits a {RoleRevoked} event. Requirements: - the caller must have ``role``'s admin role. May emit a {RoleRevoked} event."
      },
      "safeBatchTransferFrom(address,address,uint256[],uint256[],bytes)": {
        "details": "See {IERC1155-safeBatchTransferFrom}."
      },
      "safeTransferFrom(address,address,uint256,uint256,bytes)": {
        "details": "See {IERC1155-safeTransferFrom}."
      },
      "setApprovalForAll(address,bool)": {
        "details": "See {IERC1155-setApprovalForAll}."
      },
      "setDiscountedPriceTable(uint256[][])": {
        "params": {
          "_presalePrice": "4x4 table of the discounted prices for all 4 tiers for all 4 weeks of the presale"
        }
      },
      "totalSupply(uint256)": {
        "details": "Total amount of tokens in with a given id."
      },
      "unpause()": {
        "details": "Unpauses all token transfers. See {ERC1155Pausable} and {Pausable-_unpause}. Requirements: - the caller must have the `PAUSER_ROLE`."
      },
      "uri(uint256)": {
        "details": "See {IERC1155MetadataURI-uri}. This implementation returns the same URI for *all* token types. It relies on the token type ID substitution mechanism https://eips.ethereum.org/EIPS/eip-1155#metadata[defined in the EIP]. Clients calling this function must replace the `\\{id\\}` substring with the actual token type ID."
      }
    },
    "stateVariables": {
      "currentDistributionId": {
        "return": "current distribution number, the one that assigned to the latest distribution",
        "returns": {
          "_0": "current distribution number, the one that assigned to the latest distribution"
        }
      }
    },
    "title": "Safe NFT",
    "version": 1
  },
  "userdoc": {
    "kind": "user",
    "methods": {
      "TIERS()": {
        "notice": "todo a number of tiers should be flexible"
      },
      "buy(uint8,uint256,address)": {
        "notice": "purchase Safe NFT for exact amount of USD"
      },
      "claimReward(uint8,uint256)": {
        "notice": "the function calculates the amount of the reward for the NFT holder and transfers it to the NFT holder"
      },
      "claimRewardsTotal()": {
        "notice": "the function calculates the amount of the reward for the NFT holder and transfers it to the NFT holder"
      },
      "currentDistributionId()": {
        "notice": "gets the current distribution number"
      },
      "distributeProfit(uint256)": {
        "notice": "distribute profit among the NFT holders, the function fixes the amount of the reward and the NFT holders and their shares at the moment of the call. It does not transfer the reward to the NFT holders, it just records the amount of the reward for each NFT holder."
      },
      "getBalanceTable(address)": {
        "notice": "gets NFT balance for all tiers"
      },
      "getCurrentPresaleWeek()": {
        "notice": "gets the current presale week"
      },
      "getDiscountedPriceTable()": {
        "notice": "gets all discounted NFT prices in USD, for presale for all 4 weeks of the presale"
      },
      "getFairPrice(uint8)": {
        "notice": "gets NFT fair price in USD"
      },
      "getFairPriceTable()": {
        "notice": "gets NFT price for all tiers in USD ///todo in SAFE!"
      },
      "getMyBalanceTable()": {
        "notice": "gets NFT balance for all tiers"
      },
      "getMyPendingRewardsTotal()": {
        "notice": "returns the amount of the reward share for the NFT holder"
      },
      "getMyShareOfTreasury()": {
        "notice": "**Your NFTs (% Treasury) **is calculated in $ as a relation of total price of NFTs possessed by the $ amount of Investment Pool - including its SAFE and USDC components."
      },
      "getPendingRewards(address,uint8,uint256)": {
        "notice": "returns the amount of the reward share for the NFT holder"
      },
      "getPrice(uint8)": {
        "notice": "gets NFT price in USD"
      },
      "getPriceTable()": {
        "notice": "gets all NFT prices in USD, the original ones without discounts"
      },
      "getTreasuryCost()": {
        "notice": "gets the total usd value of the NFT minted"
      },
      "getUnclaimedRewards()": {
        "notice": "undistributed profit amount in USD"
      },
      "setDiscountedPriceTable(uint256[][])": {
        "notice": "sets all discounted NFT prices in USD, for presale for all 4 weeks of the presale"
      },
      "togglePresale()": {
        "notice": "toggles presale status"
      }
    },
    "notice": "Safe Yields NFT token based on ERC1155 standard, id [0..3] represents one of the 4 tiers",
    "version": 1
  },
  "storageLayout": {
    "storage": [
      {
        "astId": 24,
        "contract": "contracts/SafeNFT.sol:SafeNFT",
        "label": "_roles",
        "offset": 0,
        "slot": "0",
        "type": "t_mapping(t_bytes32,t_struct(RoleData)19_storage)"
      },
      {
        "astId": 334,
        "contract": "contracts/SafeNFT.sol:SafeNFT",
        "label": "_roleMembers",
        "offset": 0,
        "slot": "1",
        "type": "t_mapping(t_bytes32,t_struct(AddressSet)4430_storage)"
      },
      {
        "astId": 6397,
        "contract": "contracts/SafeNFT.sol:SafeNFT",
        "label": "wallets",
        "offset": 0,
        "slot": "2",
        "type": "t_array(t_address)2_storage"
      },
      {
        "astId": 726,
        "contract": "contracts/SafeNFT.sol:SafeNFT",
        "label": "_balances",
        "offset": 0,
        "slot": "4",
        "type": "t_mapping(t_uint256,t_mapping(t_address,t_uint256))"
      },
      {
        "astId": 732,
        "contract": "contracts/SafeNFT.sol:SafeNFT",
        "label": "_operatorApprovals",
        "offset": 0,
        "slot": "5",
        "type": "t_mapping(t_address,t_mapping(t_address,t_bool))"
      },
      {
        "astId": 734,
        "contract": "contracts/SafeNFT.sol:SafeNFT",
        "label": "_uri",
        "offset": 0,
        "slot": "6",
        "type": "t_string_storage"
      },
      {
        "astId": 556,
        "contract": "contracts/SafeNFT.sol:SafeNFT",
        "label": "_paused",
        "offset": 0,
        "slot": "7",
        "type": "t_bool"
      },
      {
        "astId": 2213,
        "contract": "contracts/SafeNFT.sol:SafeNFT",
        "label": "_totalSupply",
        "offset": 0,
        "slot": "8",
        "type": "t_mapping(t_uint256,t_uint256)"
      },
      {
        "astId": 657,
        "contract": "contracts/SafeNFT.sol:SafeNFT",
        "label": "_status",
        "offset": 0,
        "slot": "9",
        "type": "t_uint256"
      },
      {
        "astId": 4752,
        "contract": "contracts/SafeNFT.sol:SafeNFT",
        "label": "price",
        "offset": 0,
        "slot": "10",
        "type": "t_array(t_uint256)4_storage"
      },
      {
        "astId": 4758,
        "contract": "contracts/SafeNFT.sol:SafeNFT",
        "label": "presalePrice",
        "offset": 0,
        "slot": "14",
        "type": "t_array(t_array(t_uint256)4_storage)4_storage"
      },
      {
        "astId": 4762,
        "contract": "contracts/SafeNFT.sol:SafeNFT",
        "label": "maxSupply",
        "offset": 0,
        "slot": "30",
        "type": "t_array(t_uint256)4_storage"
      },
      {
        "astId": 4764,
        "contract": "contracts/SafeNFT.sol:SafeNFT",
        "label": "presaleStartDate",
        "offset": 0,
        "slot": "34",
        "type": "t_uint256"
      },
      {
        "astId": 4766,
        "contract": "contracts/SafeNFT.sol:SafeNFT",
        "label": "weekDuration",
        "offset": 0,
        "slot": "35",
        "type": "t_uint256"
      },
      {
        "astId": 4769,
        "contract": "contracts/SafeNFT.sol:SafeNFT",
        "label": "safeToken",
        "offset": 0,
        "slot": "36",
        "type": "t_contract(ISafeToken)6817"
      },
      {
        "astId": 4772,
        "contract": "contracts/SafeNFT.sol:SafeNFT",
        "label": "safeVault",
        "offset": 0,
        "slot": "37",
        "type": "t_contract(ISafeVault)6838"
      },
      {
        "astId": 4775,
        "contract": "contracts/SafeNFT.sol:SafeNFT",
        "label": "usd",
        "offset": 0,
        "slot": "38",
        "type": "t_contract(IERC20)2651"
      },
      {
        "astId": 4782,
        "contract": "contracts/SafeNFT.sol:SafeNFT",
        "label": "priceDistributionOnMint",
        "offset": 0,
        "slot": "39",
        "type": "t_array(t_uint256)2_storage"
      },
      {
        "astId": 4786,
        "contract": "contracts/SafeNFT.sol:SafeNFT",
        "label": "profitDistribution",
        "offset": 0,
        "slot": "41",
        "type": "t_array(t_uint256)2_storage"
      },
      {
        "astId": 4788,
        "contract": "contracts/SafeNFT.sol:SafeNFT",
        "label": "referralShareForNFTPurchase",
        "offset": 0,
        "slot": "43",
        "type": "t_uint256"
      },
      {
        "astId": 4790,
        "contract": "contracts/SafeNFT.sol:SafeNFT",
        "label": "stabilizerWallet",
        "offset": 0,
        "slot": "44",
        "type": "t_address"
      },
      {
        "astId": 4792,
        "contract": "contracts/SafeNFT.sol:SafeNFT",
        "label": "presale",
        "offset": 20,
        "slot": "44",
        "type": "t_bool"
      },
      {
        "astId": 4800,
        "contract": "contracts/SafeNFT.sol:SafeNFT",
        "label": "soldPerPresaleWeek",
        "offset": 0,
        "slot": "45",
        "type": "t_mapping(t_address,t_mapping(t_uint256,t_mapping(t_uint256,t_uint256)))"
      },
      {
        "astId": 4804,
        "contract": "contracts/SafeNFT.sol:SafeNFT",
        "label": "presaleMaxSupply",
        "offset": 0,
        "slot": "46",
        "type": "t_array(t_uint256)4_storage"
      },
      {
        "astId": 4808,
        "contract": "contracts/SafeNFT.sol:SafeNFT",
        "label": "currentlySoldInPresale",
        "offset": 0,
        "slot": "50",
        "type": "t_array(t_uint256)4_storage"
      },
      {
        "astId": 4810,
        "contract": "contracts/SafeNFT.sol:SafeNFT",
        "label": "currentDistributionId",
        "offset": 0,
        "slot": "54",
        "type": "t_uint256"
      },
      {
        "astId": 4814,
        "contract": "contracts/SafeNFT.sol:SafeNFT",
        "label": "distributionOfProfit",
        "offset": 0,
        "slot": "55",
        "type": "t_mapping(t_uint256,t_uint256)"
      },
      {
        "astId": 4820,
        "contract": "contracts/SafeNFT.sol:SafeNFT",
        "label": "distributionByTier",
        "offset": 0,
        "slot": "56",
        "type": "t_mapping(t_uint256,t_array(t_uint256)4_storage)"
      },
      {
        "astId": 4826,
        "contract": "contracts/SafeNFT.sol:SafeNFT",
        "label": "distributionTotalSupplySnapshot",
        "offset": 0,
        "slot": "57",
        "type": "t_mapping(t_uint256,t_array(t_uint256)4_storage)"
      },
      {
        "astId": 4834,
        "contract": "contracts/SafeNFT.sol:SafeNFT",
        "label": "alreadyDistributedAmount",
        "offset": 0,
        "slot": "58",
        "type": "t_mapping(t_uint256,t_mapping(t_uint256,t_mapping(t_address,t_uint256)))"
      },
      {
        "astId": 4840,
        "contract": "contracts/SafeNFT.sol:SafeNFT",
        "label": "alreadyDistributedAmountByTier",
        "offset": 0,
        "slot": "59",
        "type": "t_mapping(t_uint256,t_array(t_uint256)4_storage)"
      }
    ],
    "types": {
      "t_address": {
        "encoding": "inplace",
        "label": "address",
        "numberOfBytes": "20"
      },
      "t_array(t_address)2_storage": {
        "base": "t_address",
        "encoding": "inplace",
        "label": "address[2]",
        "numberOfBytes": "64"
      },
      "t_array(t_array(t_uint256)4_storage)4_storage": {
        "base": "t_array(t_uint256)4_storage",
        "encoding": "inplace",
        "label": "uint256[4][4]",
        "numberOfBytes": "512"
      },
      "t_array(t_bytes32)dyn_storage": {
        "base": "t_bytes32",
        "encoding": "dynamic_array",
        "label": "bytes32[]",
        "numberOfBytes": "32"
      },
      "t_array(t_uint256)2_storage": {
        "base": "t_uint256",
        "encoding": "inplace",
        "label": "uint256[2]",
        "numberOfBytes": "64"
      },
      "t_array(t_uint256)4_storage": {
        "base": "t_uint256",
        "encoding": "inplace",
        "label": "uint256[4]",
        "numberOfBytes": "128"
      },
      "t_bool": {
        "encoding": "inplace",
        "label": "bool",
        "numberOfBytes": "1"
      },
      "t_bytes32": {
        "encoding": "inplace",
        "label": "bytes32",
        "numberOfBytes": "32"
      },
      "t_contract(IERC20)2651": {
        "encoding": "inplace",
        "label": "contract IERC20",
        "numberOfBytes": "20"
      },
      "t_contract(ISafeToken)6817": {
        "encoding": "inplace",
        "label": "contract ISafeToken",
        "numberOfBytes": "20"
      },
      "t_contract(ISafeVault)6838": {
        "encoding": "inplace",
        "label": "contract ISafeVault",
        "numberOfBytes": "20"
      },
      "t_mapping(t_address,t_bool)": {
        "encoding": "mapping",
        "key": "t_address",
        "label": "mapping(address => bool)",
        "numberOfBytes": "32",
        "value": "t_bool"
      },
      "t_mapping(t_address,t_mapping(t_address,t_bool))": {
        "encoding": "mapping",
        "key": "t_address",
        "label": "mapping(address => mapping(address => bool))",
        "numberOfBytes": "32",
        "value": "t_mapping(t_address,t_bool)"
      },
      "t_mapping(t_address,t_mapping(t_uint256,t_mapping(t_uint256,t_uint256)))": {
        "encoding": "mapping",
        "key": "t_address",
        "label": "mapping(address => mapping(uint256 => mapping(uint256 => uint256)))",
        "numberOfBytes": "32",
        "value": "t_mapping(t_uint256,t_mapping(t_uint256,t_uint256))"
      },
      "t_mapping(t_address,t_uint256)": {
        "encoding": "mapping",
        "key": "t_address",
        "label": "mapping(address => uint256)",
        "numberOfBytes": "32",
        "value": "t_uint256"
      },
      "t_mapping(t_bytes32,t_struct(AddressSet)4430_storage)": {
        "encoding": "mapping",
        "key": "t_bytes32",
        "label": "mapping(bytes32 => struct EnumerableSet.AddressSet)",
        "numberOfBytes": "32",
        "value": "t_struct(AddressSet)4430_storage"
      },
      "t_mapping(t_bytes32,t_struct(RoleData)19_storage)": {
        "encoding": "mapping",
        "key": "t_bytes32",
        "label": "mapping(bytes32 => struct AccessControl.RoleData)",
        "numberOfBytes": "32",
        "value": "t_struct(RoleData)19_storage"
      },
      "t_mapping(t_bytes32,t_uint256)": {
        "encoding": "mapping",
        "key": "t_bytes32",
        "label": "mapping(bytes32 => uint256)",
        "numberOfBytes": "32",
        "value": "t_uint256"
      },
      "t_mapping(t_uint256,t_array(t_uint256)4_storage)": {
        "encoding": "mapping",
        "key": "t_uint256",
        "label": "mapping(uint256 => uint256[4])",
        "numberOfBytes": "32",
        "value": "t_array(t_uint256)4_storage"
      },
      "t_mapping(t_uint256,t_mapping(t_address,t_uint256))": {
        "encoding": "mapping",
        "key": "t_uint256",
        "label": "mapping(uint256 => mapping(address => uint256))",
        "numberOfBytes": "32",
        "value": "t_mapping(t_address,t_uint256)"
      },
      "t_mapping(t_uint256,t_mapping(t_uint256,t_mapping(t_address,t_uint256)))": {
        "encoding": "mapping",
        "key": "t_uint256",
        "label": "mapping(uint256 => mapping(uint256 => mapping(address => uint256)))",
        "numberOfBytes": "32",
        "value": "t_mapping(t_uint256,t_mapping(t_address,t_uint256))"
      },
      "t_mapping(t_uint256,t_mapping(t_uint256,t_uint256))": {
        "encoding": "mapping",
        "key": "t_uint256",
        "label": "mapping(uint256 => mapping(uint256 => uint256))",
        "numberOfBytes": "32",
        "value": "t_mapping(t_uint256,t_uint256)"
      },
      "t_mapping(t_uint256,t_uint256)": {
        "encoding": "mapping",
        "key": "t_uint256",
        "label": "mapping(uint256 => uint256)",
        "numberOfBytes": "32",
        "value": "t_uint256"
      },
      "t_string_storage": {
        "encoding": "bytes",
        "label": "string",
        "numberOfBytes": "32"
      },
      "t_struct(AddressSet)4430_storage": {
        "encoding": "inplace",
        "label": "struct EnumerableSet.AddressSet",
        "members": [
          {
            "astId": 4429,
            "contract": "contracts/SafeNFT.sol:SafeNFT",
            "label": "_inner",
            "offset": 0,
            "slot": "0",
            "type": "t_struct(Set)4115_storage"
          }
        ],
        "numberOfBytes": "64"
      },
      "t_struct(RoleData)19_storage": {
        "encoding": "inplace",
        "label": "struct AccessControl.RoleData",
        "members": [
          {
            "astId": 16,
            "contract": "contracts/SafeNFT.sol:SafeNFT",
            "label": "members",
            "offset": 0,
            "slot": "0",
            "type": "t_mapping(t_address,t_bool)"
          },
          {
            "astId": 18,
            "contract": "contracts/SafeNFT.sol:SafeNFT",
            "label": "adminRole",
            "offset": 0,
            "slot": "1",
            "type": "t_bytes32"
          }
        ],
        "numberOfBytes": "64"
      },
      "t_struct(Set)4115_storage": {
        "encoding": "inplace",
        "label": "struct EnumerableSet.Set",
        "members": [
          {
            "astId": 4110,
            "contract": "contracts/SafeNFT.sol:SafeNFT",
            "label": "_values",
            "offset": 0,
            "slot": "0",
            "type": "t_array(t_bytes32)dyn_storage"
          },
          {
            "astId": 4114,
            "contract": "contracts/SafeNFT.sol:SafeNFT",
            "label": "_indexes",
            "offset": 0,
            "slot": "1",
            "type": "t_mapping(t_bytes32,t_uint256)"
          }
        ],
        "numberOfBytes": "64"
      },
      "t_uint256": {
        "encoding": "inplace",
        "label": "uint256",
        "numberOfBytes": "32"
      }
    }
  }
}