{
  "address": "0x86a59a91c8295E7Cd29C18Cc2F8752eD05603b56",
  "abi": [
    {
      "inputs": [
        {
          "internalType": "string",
          "name": "_uri",
          "type": "string"
        },
        {
          "internalType": "uint256[4]",
          "name": "_price",
          "type": "uint256[4]"
        },
        {
          "internalType": "uint256[4]",
          "name": "_maxSupply",
          "type": "uint256[4]"
        },
        {
          "internalType": "contract ISafeToken",
          "name": "_safeToken",
          "type": "address"
        },
        {
          "internalType": "uint256[2]",
          "name": "_priceDistributionOnMint",
          "type": "uint256[2]"
        },
        {
          "internalType": "uint256[2]",
          "name": "_profitDistribution",
          "type": "uint256[2]"
        }
      ],
      "stateMutability": "nonpayable",
      "type": "constructor"
    },
    {
      "anonymous": false,
      "inputs": [
        {
          "indexed": true,
          "internalType": "address",
          "name": "account",
          "type": "address"
        },
        {
          "indexed": true,
          "internalType": "address",
          "name": "operator",
          "type": "address"
        },
        {
          "indexed": false,
          "internalType": "bool",
          "name": "approved",
          "type": "bool"
        }
      ],
      "name": "ApprovalForAll",
      "type": "event"
    },
    {
      "anonymous": false,
      "inputs": [
        {
          "indexed": false,
          "internalType": "address",
          "name": "account",
          "type": "address"
        }
      ],
      "name": "Paused",
      "type": "event"
    },
    {
      "anonymous": false,
      "inputs": [
        {
          "indexed": true,
          "internalType": "bytes32",
          "name": "role",
          "type": "bytes32"
        },
        {
          "indexed": true,
          "internalType": "bytes32",
          "name": "previousAdminRole",
          "type": "bytes32"
        },
        {
          "indexed": true,
          "internalType": "bytes32",
          "name": "newAdminRole",
          "type": "bytes32"
        }
      ],
      "name": "RoleAdminChanged",
      "type": "event"
    },
    {
      "anonymous": false,
      "inputs": [
        {
          "indexed": true,
          "internalType": "bytes32",
          "name": "role",
          "type": "bytes32"
        },
        {
          "indexed": true,
          "internalType": "address",
          "name": "account",
          "type": "address"
        },
        {
          "indexed": true,
          "internalType": "address",
          "name": "sender",
          "type": "address"
        }
      ],
      "name": "RoleGranted",
      "type": "event"
    },
    {
      "anonymous": false,
      "inputs": [
        {
          "indexed": true,
          "internalType": "bytes32",
          "name": "role",
          "type": "bytes32"
        },
        {
          "indexed": true,
          "internalType": "address",
          "name": "account",
          "type": "address"
        },
        {
          "indexed": true,
          "internalType": "address",
          "name": "sender",
          "type": "address"
        }
      ],
      "name": "RoleRevoked",
      "type": "event"
    },
    {
      "anonymous": false,
      "inputs": [
        {
          "indexed": true,
          "internalType": "address",
          "name": "operator",
          "type": "address"
        },
        {
          "indexed": true,
          "internalType": "address",
          "name": "from",
          "type": "address"
        },
        {
          "indexed": true,
          "internalType": "address",
          "name": "to",
          "type": "address"
        },
        {
          "indexed": false,
          "internalType": "uint256[]",
          "name": "ids",
          "type": "uint256[]"
        },
        {
          "indexed": false,
          "internalType": "uint256[]",
          "name": "values",
          "type": "uint256[]"
        }
      ],
      "name": "TransferBatch",
      "type": "event"
    },
    {
      "anonymous": false,
      "inputs": [
        {
          "indexed": true,
          "internalType": "address",
          "name": "operator",
          "type": "address"
        },
        {
          "indexed": true,
          "internalType": "address",
          "name": "from",
          "type": "address"
        },
        {
          "indexed": true,
          "internalType": "address",
          "name": "to",
          "type": "address"
        },
        {
          "indexed": false,
          "internalType": "uint256",
          "name": "id",
          "type": "uint256"
        },
        {
          "indexed": false,
          "internalType": "uint256",
          "name": "value",
          "type": "uint256"
        }
      ],
      "name": "TransferSingle",
      "type": "event"
    },
    {
      "anonymous": false,
      "inputs": [
        {
          "indexed": false,
          "internalType": "string",
          "name": "value",
          "type": "string"
        },
        {
          "indexed": true,
          "internalType": "uint256",
          "name": "id",
          "type": "uint256"
        }
      ],
      "name": "URI",
      "type": "event"
    },
    {
      "anonymous": false,
      "inputs": [
        {
          "indexed": false,
          "internalType": "address",
          "name": "account",
          "type": "address"
        }
      ],
      "name": "Unpaused",
      "type": "event"
    },
    {
      "inputs": [],
      "name": "DEFAULT_ADMIN_ROLE",
      "outputs": [
        {
          "internalType": "bytes32",
          "name": "",
          "type": "bytes32"
        }
      ],
      "stateMutability": "view",
      "type": "function"
    },
    {
      "inputs": [],
      "name": "MINTER_ROLE",
      "outputs": [
        {
          "internalType": "bytes32",
          "name": "",
          "type": "bytes32"
        }
      ],
      "stateMutability": "view",
      "type": "function"
    },
    {
      "inputs": [],
      "name": "PAUSER_ROLE",
      "outputs": [
        {
          "internalType": "bytes32",
          "name": "",
          "type": "bytes32"
        }
      ],
      "stateMutability": "view",
      "type": "function"
    },
    {
      "inputs": [],
      "name": "TIERS",
      "outputs": [
        {
          "internalType": "uint256",
          "name": "",
          "type": "uint256"
        }
      ],
      "stateMutability": "view",
      "type": "function"
    },
    {
      "inputs": [],
      "name": "WALLETS",
      "outputs": [
        {
          "internalType": "uint256",
          "name": "",
          "type": "uint256"
        }
      ],
      "stateMutability": "view",
      "type": "function"
    },
    {
      "inputs": [
        {
          "internalType": "uint256",
          "name": "",
          "type": "uint256"
        },
        {
          "internalType": "uint256",
          "name": "",
          "type": "uint256"
        },
        {
          "internalType": "address",
          "name": "",
          "type": "address"
        }
      ],
      "name": "alreadyDistributedAmount",
      "outputs": [
        {
          "internalType": "uint256",
          "name": "",
          "type": "uint256"
        }
      ],
      "stateMutability": "view",
      "type": "function"
    },
    {
      "inputs": [
        {
          "internalType": "uint256",
          "name": "",
          "type": "uint256"
        },
        {
          "internalType": "uint256",
          "name": "",
          "type": "uint256"
        }
      ],
      "name": "alreadyDistributedAmountByTier",
      "outputs": [
        {
          "internalType": "uint256",
          "name": "",
          "type": "uint256"
        }
      ],
      "stateMutability": "view",
      "type": "function"
    },
    {
      "inputs": [
        {
          "internalType": "address",
          "name": "account",
          "type": "address"
        },
        {
          "internalType": "uint256",
          "name": "id",
          "type": "uint256"
        }
      ],
      "name": "balanceOf",
      "outputs": [
        {
          "internalType": "uint256",
          "name": "",
          "type": "uint256"
        }
      ],
      "stateMutability": "view",
      "type": "function"
    },
    {
      "inputs": [
        {
          "internalType": "address[]",
          "name": "accounts",
          "type": "address[]"
        },
        {
          "internalType": "uint256[]",
          "name": "ids",
          "type": "uint256[]"
        }
      ],
      "name": "balanceOfBatch",
      "outputs": [
        {
          "internalType": "uint256[]",
          "name": "",
          "type": "uint256[]"
        }
      ],
      "stateMutability": "view",
      "type": "function"
    },
    {
      "inputs": [
        {
          "internalType": "address",
          "name": "account",
          "type": "address"
        },
        {
          "internalType": "uint256",
          "name": "id",
          "type": "uint256"
        },
        {
          "internalType": "uint256",
          "name": "value",
          "type": "uint256"
        }
      ],
      "name": "burn",
      "outputs": [],
      "stateMutability": "nonpayable",
      "type": "function"
    },
    {
      "inputs": [
        {
          "internalType": "address",
          "name": "account",
          "type": "address"
        },
        {
          "internalType": "uint256[]",
          "name": "ids",
          "type": "uint256[]"
        },
        {
          "internalType": "uint256[]",
          "name": "values",
          "type": "uint256[]"
        }
      ],
      "name": "burnBatch",
      "outputs": [],
      "stateMutability": "nonpayable",
      "type": "function"
    },
    {
      "inputs": [
        {
          "internalType": "enum ISafeNFT.Tiers",
          "name": "_tier",
          "type": "uint8"
        },
        {
          "internalType": "uint256",
          "name": "_amount",
          "type": "uint256"
        }
      ],
      "name": "buy",
      "outputs": [],
      "stateMutability": "nonpayable",
      "type": "function"
    },
    {
      "inputs": [
        {
          "internalType": "enum ISafeNFT.Tiers",
          "name": "_tier",
          "type": "uint8"
        },
        {
          "internalType": "uint256",
          "name": "_distributionId",
          "type": "uint256"
        }
      ],
      "name": "claimReward",
      "outputs": [],
      "stateMutability": "nonpayable",
      "type": "function"
    },
    {
      "inputs": [],
      "name": "claimRewardsTotal",
      "outputs": [],
      "stateMutability": "nonpayable",
      "type": "function"
    },
    {
      "inputs": [],
      "name": "currentDistributionId",
      "outputs": [
        {
          "internalType": "uint256",
          "name": "",
          "type": "uint256"
        }
      ],
      "stateMutability": "view",
      "type": "function"
    },
    {
      "inputs": [
        {
          "internalType": "uint256",
          "name": "_amountUSD",
          "type": "uint256"
        }
      ],
      "name": "distributeProfit",
      "outputs": [],
      "stateMutability": "nonpayable",
      "type": "function"
    },
    {
      "inputs": [
        {
          "internalType": "uint256",
          "name": "",
          "type": "uint256"
        },
        {
          "internalType": "uint256",
          "name": "",
          "type": "uint256"
        }
      ],
      "name": "distributionByTier",
      "outputs": [
        {
          "internalType": "uint256",
          "name": "",
          "type": "uint256"
        }
      ],
      "stateMutability": "view",
      "type": "function"
    },
    {
      "inputs": [
        {
          "internalType": "uint256",
          "name": "",
          "type": "uint256"
        }
      ],
      "name": "distributionOfProfit",
      "outputs": [
        {
          "internalType": "uint256",
          "name": "",
          "type": "uint256"
        }
      ],
      "stateMutability": "view",
      "type": "function"
    },
    {
      "inputs": [
        {
          "internalType": "uint256",
          "name": "",
          "type": "uint256"
        },
        {
          "internalType": "uint256",
          "name": "",
          "type": "uint256"
        }
      ],
      "name": "distributionTotalSupplySnapshot",
      "outputs": [
        {
          "internalType": "uint256",
          "name": "",
          "type": "uint256"
        }
      ],
      "stateMutability": "view",
      "type": "function"
    },
    {
      "inputs": [
        {
          "internalType": "uint256",
          "name": "id",
          "type": "uint256"
        }
      ],
      "name": "exists",
      "outputs": [
        {
          "internalType": "bool",
          "name": "",
          "type": "bool"
        }
      ],
      "stateMutability": "view",
      "type": "function"
    },
    {
      "inputs": [
        {
          "internalType": "enum ISafeNFT.Tiers",
          "name": "_tier",
          "type": "uint8"
        }
      ],
      "name": "getFairPrice",
      "outputs": [
        {
          "internalType": "uint256",
          "name": "",
          "type": "uint256"
        }
      ],
      "stateMutability": "view",
      "type": "function"
    },
    {
      "inputs": [],
      "name": "getFairPriceTable",
      "outputs": [
        {
          "internalType": "uint256[]",
          "name": "",
          "type": "uint256[]"
        }
      ],
      "stateMutability": "view",
      "type": "function"
    },
    {
      "inputs": [],
      "name": "getMyPendingRewardsTotal",
      "outputs": [
        {
          "internalType": "uint256",
          "name": "",
          "type": "uint256"
        }
      ],
      "stateMutability": "view",
      "type": "function"
    },
    {
      "inputs": [],
      "name": "getMyShareOfTreasury",
      "outputs": [
        {
          "internalType": "uint256",
          "name": "",
          "type": "uint256"
        }
      ],
      "stateMutability": "view",
      "type": "function"
    },
    {
      "inputs": [
        {
          "internalType": "address",
          "name": "_user",
          "type": "address"
        },
        {
          "internalType": "enum ISafeNFT.Tiers",
          "name": "_tier",
          "type": "uint8"
        },
        {
          "internalType": "uint256",
          "name": "_distributionId",
          "type": "uint256"
        }
      ],
      "name": "getPendingRewards",
      "outputs": [
        {
          "internalType": "uint256",
          "name": "",
          "type": "uint256"
        }
      ],
      "stateMutability": "view",
      "type": "function"
    },
    {
      "inputs": [
        {
          "internalType": "enum ISafeNFT.Tiers",
          "name": "_tier",
          "type": "uint8"
        }
      ],
      "name": "getPrice",
      "outputs": [
        {
          "internalType": "uint256",
          "name": "",
          "type": "uint256"
        }
      ],
      "stateMutability": "view",
      "type": "function"
    },
    {
      "inputs": [
        {
          "internalType": "bytes32",
          "name": "role",
          "type": "bytes32"
        }
      ],
      "name": "getRoleAdmin",
      "outputs": [
        {
          "internalType": "bytes32",
          "name": "",
          "type": "bytes32"
        }
      ],
      "stateMutability": "view",
      "type": "function"
    },
    {
      "inputs": [
        {
          "internalType": "bytes32",
          "name": "role",
          "type": "bytes32"
        },
        {
          "internalType": "uint256",
          "name": "index",
          "type": "uint256"
        }
      ],
      "name": "getRoleMember",
      "outputs": [
        {
          "internalType": "address",
          "name": "",
          "type": "address"
        }
      ],
      "stateMutability": "view",
      "type": "function"
    },
    {
      "inputs": [
        {
          "internalType": "bytes32",
          "name": "role",
          "type": "bytes32"
        }
      ],
      "name": "getRoleMemberCount",
      "outputs": [
        {
          "internalType": "uint256",
          "name": "",
          "type": "uint256"
        }
      ],
      "stateMutability": "view",
      "type": "function"
    },
    {
      "inputs": [],
      "name": "getTotalSupplyAllTiers",
      "outputs": [
        {
          "internalType": "uint256",
          "name": "",
          "type": "uint256"
        }
      ],
      "stateMutability": "view",
      "type": "function"
    },
    {
      "inputs": [],
      "name": "getTreasuryCost",
      "outputs": [
        {
          "internalType": "uint256",
          "name": "",
          "type": "uint256"
        }
      ],
      "stateMutability": "view",
      "type": "function"
    },
    {
      "inputs": [],
      "name": "getUnclaimedRewards",
      "outputs": [
        {
          "internalType": "uint256",
          "name": "",
          "type": "uint256"
        }
      ],
      "stateMutability": "view",
      "type": "function"
    },
    {
      "inputs": [
        {
          "internalType": "bytes32",
          "name": "role",
          "type": "bytes32"
        },
        {
          "internalType": "address",
          "name": "account",
          "type": "address"
        }
      ],
      "name": "grantRole",
      "outputs": [],
      "stateMutability": "nonpayable",
      "type": "function"
    },
    {
      "inputs": [
        {
          "internalType": "bytes32",
          "name": "role",
          "type": "bytes32"
        },
        {
          "internalType": "address",
          "name": "account",
          "type": "address"
        }
      ],
      "name": "hasRole",
      "outputs": [
        {
          "internalType": "bool",
          "name": "",
          "type": "bool"
        }
      ],
      "stateMutability": "view",
      "type": "function"
    },
    {
      "inputs": [
        {
          "internalType": "string",
          "name": "_uri",
          "type": "string"
        },
        {
          "internalType": "uint256[4]",
          "name": "_price",
          "type": "uint256[4]"
        },
        {
          "internalType": "uint256[4]",
          "name": "_maxSupply",
          "type": "uint256[4]"
        },
        {
          "internalType": "contract ISafeToken",
          "name": "_safeToken",
          "type": "address"
        },
        {
          "internalType": "uint256[2]",
          "name": "_priceDistributionOnMint",
          "type": "uint256[2]"
        },
        {
          "internalType": "uint256[2]",
          "name": "_profitDistribution",
          "type": "uint256[2]"
        }
      ],
      "name": "initialize",
      "outputs": [],
      "stateMutability": "nonpayable",
      "type": "function"
    },
    {
      "inputs": [
        {
          "internalType": "address",
          "name": "account",
          "type": "address"
        },
        {
          "internalType": "address",
          "name": "operator",
          "type": "address"
        }
      ],
      "name": "isApprovedForAll",
      "outputs": [
        {
          "internalType": "bool",
          "name": "",
          "type": "bool"
        }
      ],
      "stateMutability": "view",
      "type": "function"
    },
    {
      "inputs": [
        {
          "internalType": "uint256",
          "name": "",
          "type": "uint256"
        }
      ],
      "name": "maxSupply",
      "outputs": [
        {
          "internalType": "uint256",
          "name": "",
          "type": "uint256"
        }
      ],
      "stateMutability": "view",
      "type": "function"
    },
    {
      "inputs": [
        {
          "internalType": "address",
          "name": "to",
          "type": "address"
        },
        {
          "internalType": "uint256",
          "name": "id",
          "type": "uint256"
        },
        {
          "internalType": "uint256",
          "name": "amount",
          "type": "uint256"
        },
        {
          "internalType": "bytes",
          "name": "data",
          "type": "bytes"
        }
      ],
      "name": "mint",
      "outputs": [],
      "stateMutability": "nonpayable",
      "type": "function"
    },
    {
      "inputs": [
        {
          "internalType": "address",
          "name": "to",
          "type": "address"
        },
        {
          "internalType": "uint256[]",
          "name": "ids",
          "type": "uint256[]"
        },
        {
          "internalType": "uint256[]",
          "name": "amounts",
          "type": "uint256[]"
        },
        {
          "internalType": "bytes",
          "name": "data",
          "type": "bytes"
        }
      ],
      "name": "mintBatch",
      "outputs": [],
      "stateMutability": "nonpayable",
      "type": "function"
    },
    {
      "inputs": [],
      "name": "name",
      "outputs": [
        {
          "internalType": "string",
          "name": "",
          "type": "string"
        }
      ],
      "stateMutability": "view",
      "type": "function"
    },
    {
      "inputs": [],
      "name": "pause",
      "outputs": [],
      "stateMutability": "nonpayable",
      "type": "function"
    },
    {
      "inputs": [],
      "name": "paused",
      "outputs": [
        {
          "internalType": "bool",
          "name": "",
          "type": "bool"
        }
      ],
      "stateMutability": "view",
      "type": "function"
    },
    {
      "inputs": [
        {
          "internalType": "uint256",
          "name": "",
          "type": "uint256"
        }
      ],
      "name": "price",
      "outputs": [
        {
          "internalType": "uint256",
          "name": "",
          "type": "uint256"
        }
      ],
      "stateMutability": "view",
      "type": "function"
    },
    {
      "inputs": [
        {
          "internalType": "uint256",
          "name": "",
          "type": "uint256"
        }
      ],
      "name": "priceDistributionOnMint",
      "outputs": [
        {
          "internalType": "uint256",
          "name": "",
          "type": "uint256"
        }
      ],
      "stateMutability": "view",
      "type": "function"
    },
    {
      "inputs": [
        {
          "internalType": "uint256",
          "name": "",
          "type": "uint256"
        }
      ],
      "name": "profitDistribution",
      "outputs": [
        {
          "internalType": "uint256",
          "name": "",
          "type": "uint256"
        }
      ],
      "stateMutability": "view",
      "type": "function"
    },
    {
      "inputs": [
        {
          "internalType": "bytes32",
          "name": "role",
          "type": "bytes32"
        },
        {
          "internalType": "address",
          "name": "account",
          "type": "address"
        }
      ],
      "name": "renounceRole",
      "outputs": [],
      "stateMutability": "nonpayable",
      "type": "function"
    },
    {
      "inputs": [
        {
          "internalType": "bytes32",
          "name": "role",
          "type": "bytes32"
        },
        {
          "internalType": "address",
          "name": "account",
          "type": "address"
        }
      ],
      "name": "revokeRole",
      "outputs": [],
      "stateMutability": "nonpayable",
      "type": "function"
    },
    {
      "inputs": [
        {
          "internalType": "address",
          "name": "from",
          "type": "address"
        },
        {
          "internalType": "address",
          "name": "to",
          "type": "address"
        },
        {
          "internalType": "uint256[]",
          "name": "ids",
          "type": "uint256[]"
        },
        {
          "internalType": "uint256[]",
          "name": "amounts",
          "type": "uint256[]"
        },
        {
          "internalType": "bytes",
          "name": "data",
          "type": "bytes"
        }
      ],
      "name": "safeBatchTransferFrom",
      "outputs": [],
      "stateMutability": "nonpayable",
      "type": "function"
    },
    {
      "inputs": [],
      "name": "safeToken",
      "outputs": [
        {
          "internalType": "contract ISafeToken",
          "name": "",
          "type": "address"
        }
      ],
      "stateMutability": "view",
      "type": "function"
    },
    {
      "inputs": [
        {
          "internalType": "address",
          "name": "from",
          "type": "address"
        },
        {
          "internalType": "address",
          "name": "to",
          "type": "address"
        },
        {
          "internalType": "uint256",
          "name": "id",
          "type": "uint256"
        },
        {
          "internalType": "uint256",
          "name": "amount",
          "type": "uint256"
        },
        {
          "internalType": "bytes",
          "name": "data",
          "type": "bytes"
        }
      ],
      "name": "safeTransferFrom",
      "outputs": [],
      "stateMutability": "nonpayable",
      "type": "function"
    },
    {
      "inputs": [],
      "name": "safeVault",
      "outputs": [
        {
          "internalType": "contract ISafeVault",
          "name": "",
          "type": "address"
        }
      ],
      "stateMutability": "view",
      "type": "function"
    },
    {
      "inputs": [
        {
          "internalType": "address",
          "name": "operator",
          "type": "address"
        },
        {
          "internalType": "bool",
          "name": "approved",
          "type": "bool"
        }
      ],
      "name": "setApprovalForAll",
      "outputs": [],
      "stateMutability": "nonpayable",
      "type": "function"
    },
    {
      "inputs": [
        {
          "internalType": "bytes4",
          "name": "interfaceId",
          "type": "bytes4"
        }
      ],
      "name": "supportsInterface",
      "outputs": [
        {
          "internalType": "bool",
          "name": "",
          "type": "bool"
        }
      ],
      "stateMutability": "view",
      "type": "function"
    },
    {
      "inputs": [
        {
          "internalType": "uint256",
          "name": "id",
          "type": "uint256"
        }
      ],
      "name": "totalSupply",
      "outputs": [
        {
          "internalType": "uint256",
          "name": "",
          "type": "uint256"
        }
      ],
      "stateMutability": "view",
      "type": "function"
    },
    {
      "inputs": [],
      "name": "unpause",
      "outputs": [],
      "stateMutability": "nonpayable",
      "type": "function"
    },
    {
      "inputs": [
        {
          "internalType": "uint256",
          "name": "",
          "type": "uint256"
        }
      ],
      "name": "uri",
      "outputs": [
        {
          "internalType": "string",
          "name": "",
          "type": "string"
        }
      ],
      "stateMutability": "view",
      "type": "function"
    },
    {
      "inputs": [],
      "name": "usd",
      "outputs": [
        {
          "internalType": "contract IERC20",
          "name": "",
          "type": "address"
        }
      ],
      "stateMutability": "view",
      "type": "function"
    },
    {
      "inputs": [
        {
          "internalType": "uint256",
          "name": "",
          "type": "uint256"
        }
      ],
      "name": "wallets",
      "outputs": [
        {
          "internalType": "address",
          "name": "",
          "type": "address"
        }
      ],
      "stateMutability": "view",
      "type": "function"
    }
  ],
  "transactionHash": "0x06478b83c8bc4bd9b6341956164d7f9813c2bc7d5a385de6e636f863e3962ddb",
  "args": [
    "",
    [
      "131250000000000000000",
      "262500000000000000000",
      "525000000000000000000",
      "1050000000000000000000"
    ],
    [
      2000,
      1000,
      1000,
      1000
    ],
    "0xF3c420B081422C51533150664Fc8F2fb77E39296",
    [
      7500,
      2000
    ],
    [
      2500,
      2000
    ]
  ],
  "numDeployments": 5,
  "solcInputHash": "d2a55450c963843584880caecfe7afd3",
  "bytecode": "0x60806040523480156200001157600080fd5b50604051620058dd380380620058dd83398101604081905262000034916200087e565b85806200004181620000ac565b506007805460ff1916905562000059600033620000be565b62000074600080516020620058bd83398151915233620000be565b6200008f6000805160206200589d83398151915233620000be565b50620000a0868686868686620000ca565b50505050505062000ba4565b6006620000ba828262000a26565b5050565b620000ba8282620004dd565b6000620000e46000805160206200587d8339815191525490565b90506001600160a01b03811662000114576001600160a01b036000805160206200587d833981519152556200012a565b336001600160a01b038216146200012a57600080fd5b6200013587620000ac565b62000142600033620000be565b6200015d600080516020620058bd83398151915233620000be565b620001786000805160206200589d83398151915233620000be565b62000187600987600462000640565b5062000197600d86600462000640565b50601180546001600160a01b0319166001600160a01b038616179055620001c2601484600262000683565b50620001d2601683600262000683565b506011546040805163db7a460560e01b8152815162000248936001600160a01b03169263db7a460592600480820193918290030181865afa1580156200021c573d6000803e3d6000fd5b505050506040513d601f19601f8201168201806040525081019062000242919062000af2565b62000520565b601160009054906101000a90046001600160a01b03166001600160a01b031663deef94de6040518163ffffffff1660e01b8152600401602060405180830381865afa1580156200029c573d6000803e3d6000fd5b505050506040513d601f19601f82011682018060405250810190620002c2919062000b59565b601280546001600160a01b0319166001600160a01b039283161790556011546040805163d63a6ccd60e01b81529051919092169163d63a6ccd9160048083019260209291908290030181865afa15801562000321573d6000803e3d6000fd5b505050506040513d601f19601f8201168201806040525081019062000347919062000b59565b601380546001600160a01b0319166001600160a01b0392831690811790915560115460405163095ea7b360e01b81529216600483015260001960248301529063095ea7b3906044016020604051808303816000875af1158015620003af573d6000803e3d6000fd5b505050506040513d601f19601f82011682018060405250810190620003d5919062000b80565b5060135460125460405163095ea7b360e01b81526001600160a01b039182166004820152600019602482015291169063095ea7b3906044016020604051808303816000875af11580156200042d573d6000803e3d6000fd5b505050506040513d601f19601f8201168201806040525081019062000453919062000b80565b5060115460405163095ea7b360e01b81526001600160a01b039091166004820181905260001960248301529063095ea7b3906044016020604051808303816000875af1158015620004a8573d6000803e3d6000fd5b505050506040513d601f19601f82011682018060405250810190620004ce919062000b80565b50506000601855505050505050565b620004f482826200052e60201b620022a11760201c565b60008281526001602090815260409091206200051b91839062002325620005ce821b17901c565b505050565b620000ba60028281620006b3565b6000828152602081815260408083206001600160a01b038516845290915290205460ff16620000ba576000828152602081815260408083206001600160a01b03851684529091529020805460ff191660011790556200058a3390565b6001600160a01b0316816001600160a01b0316837f2f8788117e7eff1d82e926ec794901d17c78024a50270940304540a733656f0d60405160405180910390a45050565b6000620005e5836001600160a01b038416620005ee565b90505b92915050565b60008181526001830160205260408120546200063757508154600181810184556000848152602080822090930184905584548482528286019093526040902091909155620005e8565b506000620005e8565b826004810192821562000671579160200282015b828111156200067157825182559160200191906001019062000654565b506200067f929150620006fe565b5090565b82600281019282156200067157916020028201828111156200067157825182559160200191906001019062000654565b826002810192821562000671579160200282015b828111156200067157825182546001600160a01b0319166001600160a01b03909116178255602090920191600190910190620006c7565b5b808211156200067f5760008155600101620006ff565b634e487b7160e01b600052604160045260246000fd5b604080519081016001600160401b038111828210171562000750576200075062000715565b60405290565b604051601f8201601f191681016001600160401b038111828210171562000781576200078162000715565b604052919050565b600082601f8301126200079b57600080fd5b604051608081016001600160401b0381118282101715620007c057620007c062000715565b604052806080840185811115620007d657600080fd5b845b81811015620007f2578051835260209283019201620007d8565b509195945050505050565b6001600160a01b03811681146200081357600080fd5b50565b80516200082381620007fd565b919050565b600082601f8301126200083a57600080fd5b620008446200072b565b8060408401858111156200085757600080fd5b845b818110156200087357805184526020938401930162000859565b509095945050505050565b6000806000806000806101c087890312156200089957600080fd5b86516001600160401b0380821115620008b157600080fd5b818901915089601f830112620008c657600080fd5b815181811115620008db57620008db62000715565b60209150620008f3601f8201601f1916830162000756565b8181528b838386010111156200090857600080fd5b60005b82811015620009285784810184015182820185015283016200090b565b5060008383830101528099505050620009448a828b0162000789565b96505050620009578860a0890162000789565b935062000968610120880162000816565b92506200097a88610140890162000828565b91506200098c88610180890162000828565b90509295509295509295565b600181811c90821680620009ad57607f821691505b602082108103620009ce57634e487b7160e01b600052602260045260246000fd5b50919050565b601f8211156200051b57600081815260208120601f850160051c81016020861015620009fd5750805b601f850160051c820191505b8181101562000a1e5782815560010162000a09565b505050505050565b81516001600160401b0381111562000a425762000a4262000715565b62000a5a8162000a53845462000998565b84620009d4565b602080601f83116001811462000a92576000841562000a795750858301515b600019600386901b1c1916600185901b17855562000a1e565b600085815260208120601f198616915b8281101562000ac35788860151825594840194600190910190840162000aa2565b508582101562000ae25787850151600019600388901b60f8161c191681555b5050505050600190811b01905550565b60006040828403121562000b0557600080fd5b82601f83011262000b1557600080fd5b62000b1f6200072b565b80604084018581111562000b3257600080fd5b845b818110156200087357805162000b4a81620007fd565b84526020938401930162000b34565b60006020828403121562000b6c57600080fd5b815162000b7981620007fd565b9392505050565b60006020828403121562000b9357600080fd5b8151801515811462000b7957600080fd5b614cc98062000bb46000396000f3fe608060405234801561001057600080fd5b506004361061038d5760003560e01c8063731133e9116101de578063ca7b24471161010f578063deef94de116100ad578063f03f1e511161007c578063f03f1e5114610823578063f0b2df891461082b578063f242432a1461083e578063f5298aca1461085157600080fd5b8063deef94de1461079a578063df71da76146107ad578063e63ab1e9146107c0578063e985e9c5146107e757600080fd5b8063d36dfac8116100e9578063d36dfac81461073a578063d53913931461074d578063d547741f14610774578063d63a6ccd1461078757600080fd5b8063ca7b2447146106ee578063ced79ce014610701578063d36122b81461073257600080fd5b80639010d07c1161017c578063a22cb46511610156578063a22cb46514610695578063bceef70c146106a8578063bd85b039146106bb578063ca15c873146106db57600080fd5b80639010d07c1461066757806391d148541461067a578063a217fddf1461068d57600080fd5b80637e93391a116101b85780637e93391a1461063c5780638456cb5914610644578063869f75941461064c5780638d3bd55b1461065f57600080fd5b8063731133e91461060d578063780069e0146106205780637ad71f721461062957600080fd5b806336568abe116102c357806351ba5b44116102615780635e95b4fe116102305780635e95b4fe146105cc57806362f791c0146105df5780636b20c454146105f25780636e748f971461060557600080fd5b806351ba5b441461059357806353f7ffd21461059b578063592fa65e146105ae5780635c975abb146105c157600080fd5b8063418f7c511161029d578063418f7c51146105205780634b3fd05a146105335780634e1273f41461055e5780634f558e791461057157600080fd5b806336568abe146104f257806337f1e7f2146105055780633f4ba83a1461051857600080fd5b80631a5e85e51161033057806326a49e371161030a57806326a49e37146104a45780632c13f08c146104b75780632eb2c2d6146104cc5780632f2ff15d146104df57600080fd5b80631a5e85e5146104645780631f7fdffa1461046c578063248a9ca31461048157600080fd5b806306fdde031161036c57806306fdde03146103ee5780630e89341c14610429578063162302571461043c578063168affdf1461044457600080fd5b8062fdd58e1461039257806301ffc9a7146103b857806304ca4c07146103db575b600080fd5b6103a56103a0366004613bfb565b610864565b6040519081526020015b60405180910390f35b6103cb6103c6366004613c3d565b6108ff565b60405190151581526020016103af565b6103a56103e9366004613c5a565b61090a565b61041c6040518060400160405280600f81526020016e14d8599948165a595b191cc8139195608a1b81525081565b6040516103af9190613ccc565b61041c610437366004613cdf565b61092f565b6103a56109c3565b6103a5610452366004613cdf565b60196020526000908152604090205481565b6103a5610a60565b61047f61047a366004613e70565b610a9b565b005b6103a561048f366004613cdf565b60009081526020819052604090206001015490565b6103a56104b2366004613cdf565b610af3565b6104bf610b0a565b6040516103af9190613f45565b61047f6104da366004613f58565b610b81565b61047f6104ed366004614005565b610bcd565b61047f610500366004614005565b610bf7565b6103a5610513366004614049565b610c75565b61047f610ca3565b6103a561052e366004614064565b610d49565b601154610546906001600160a01b031681565b6040516001600160a01b0390911681526020016103af565b6104bf61056c3660046140a2565b610dfa565b6103cb61057f366004613cdf565b600090815260086020526040902054151590565b6103a5610f23565b61047f6105a936600461416e565b610fa6565b6103a56105bc366004613c5a565b61109b565b60075460ff166103cb565b6103a56105da366004613c5a565b6110b7565b61047f6105ed36600461416e565b6110d3565b61047f61060036600461418a565b61152f565b6103a5600481565b61047f61061b3660046141ff565b611572565b6103a560185481565b610546610637366004613cdf565b6115c4565b6103a56115e4565b61047f611787565b6103a561065a366004613cdf565b61182b565b6103a5600281565b610546610675366004613c5a565b61183b565b6103cb610688366004614005565b61185a565b6103a5600081565b61047f6106a3366004614263565b611883565b61047f6106b636600461432d565b61188e565b6103a56106c9366004613cdf565b60009081526008602052604090205490565b6103a56106e9366004613cdf565b611cbd565b6103a56106fc366004613cdf565b611cd4565b6103a561070f3660046143d9565b601c60209081526000938452604080852082529284528284209052825290205481565b61047f611ce4565b61047f610748366004613cdf565b611d3f565b6103a57f9f2df0fed2c77648de5860a4cc508cd0818c85b8b8a1ab4ceeef8d981c8956a681565b61047f610782366004614005565b6120cd565b601354610546906001600160a01b031681565b601254610546906001600160a01b031681565b6103a56107bb366004613cdf565b6120f2565b6103a57f65d7a28e3265b37a6474929f336521b332c1681b933f6cb9f3376673440d862a81565b6103cb6107f5366004614412565b6001600160a01b03918216600090815260056020908152604080832093909416825291909152205460ff1690565b6103a5612102565b6103a5610839366004614049565b612171565b61047f61084c366004614440565b612219565b61047f61085f3660046144a8565b61225e565b60006001600160a01b0383166108d45760405162461bcd60e51b815260206004820152602a60248201527f455243313135353a2061646472657373207a65726f206973206e6f742061207660448201526930b634b21037bbb732b960b11b60648201526084015b60405180910390fd5b5060008181526004602090815260408083206001600160a01b03861684529091529020545b92915050565b60006108f98261233a565b601a602052816000526040600020816004811061092657600080fd5b01549150829050565b60606006805461093e906144dd565b80601f016020809104026020016040519081016040528092919081815260200182805461096a906144dd565b80156109b75780601f1061098c576101008083540402835291602001916109b7565b820191906000526020600020905b81548152906001019060200180831161099a57829003601f168201915b50505050509050919050565b600080805b6004811015610a5a5760005b6018548111610a47576000818152601d6020526040902082600481106109fc576109fc614511565b01546000828152601a602052604090208360048110610a1d57610a1d614511565b0154610a29919061453d565b610a339084614550565b925080610a3f81614563565b9150506109d4565b5080610a5281614563565b9150506109c8565b50919050565b600080805b6004811015610a5a57600081815260086020526040902054610a879083614550565b915080610a9381614563565b915050610a65565b610ac57f9f2df0fed2c77648de5860a4cc508cd0818c85b8b8a1ab4ceeef8d981c8956a63361185a565b610ae15760405162461bcd60e51b81526004016108cb9061457c565b610aed84848484612345565b50505050565b60098160048110610b0357600080fd5b0154905081565b60408051600480825260a08201909252606091600091906020820160808036833701905050905060005b6004811015610a5a57610b52816003811115610839576108396145d9565b828281518110610b6457610b64614511565b602090810291909101015280610b7981614563565b915050610b34565b6001600160a01b038516331480610b9d5750610b9d85336107f5565b610bb95760405162461bcd60e51b81526004016108cb906145ef565b610bc685858585856124af565b5050505050565b600082815260208190526040902060010154610be88161266a565b610bf28383612674565b505050565b6001600160a01b0381163314610c675760405162461bcd60e51b815260206004820152602f60248201527f416363657373436f6e74726f6c3a2063616e206f6e6c792072656e6f756e636560448201526e103937b632b9903337b91039b2b63360891b60648201526084016108cb565b610c718282612696565b5050565b60006009826003811115610c8b57610c8b6145d9565b60048110610c9b57610c9b614511565b015492915050565b610ccd7f65d7a28e3265b37a6474929f336521b332c1681b933f6cb9f3376673440d862a3361185a565b610d3f5760405162461bcd60e51b815260206004820152603b60248201527f455243313135355072657365744d696e7465725061757365723a206d7573742060448201527f686176652070617573657220726f6c6520746f20756e7061757365000000000060648201526084016108cb565b610d476126b8565b565b600080836003811115610d5e57610d5e6145d9565b6018546000908152601a60205260408120919250908260048110610d8457610d84614511565b015460008381526008602052604081205491925090610da38885610864565b610dad908461463d565b610db79190614654565b6000868152601c6020908152604080832087845282528083206001600160a01b038c168452909152902054909150610def908261453d565b979650505050505050565b60608151835114610e5f5760405162461bcd60e51b815260206004820152602960248201527f455243313135353a206163636f756e747320616e6420696473206c656e677468604482015268040dad2e6dac2e8c6d60bb1b60648201526084016108cb565b600083516001600160401b03811115610e7a57610e7a613cf8565b604051908082528060200260200182016040528015610ea3578160200160208202803683370190505b50905060005b8451811015610f1b57610eee858281518110610ec757610ec7614511565b6020026020010151858381518110610ee157610ee1614511565b6020026020010151610864565b828281518110610f0057610f00614511565b6020908102919091010152610f1481614563565b9050610ea9565b509392505050565b60003381805b6004811015610f795760098160048110610f4557610f45614511565b0154610f518483610864565b610f5b919061463d565b610f659083614550565b915080610f7181614563565b915050610f29565b506000610f846115e4565b90508015610f9b57610f968183614654565b610f9e565b60005b935050505090565b336000610fb4828585610d49565b60135460405163a9059cbb60e01b81526001600160a01b0385811660048301526024820184905292935091169063a9059cbb906044016020604051808303816000875af1158015611009573d6000803e3d6000fd5b505050506040513d601f19601f8201168201806040525081019061102d9190614676565b506000838152601c602052604081208291866003811115611050576110506145d9565b81526020019081526020016000206000846001600160a01b03166001600160a01b0316815260200190815260200160002060008282546110909190614550565b909155505050505050565b601d602052816000526040600020816004811061092657600080fd5b601b602052816000526040600020816004811061092657600080fd5b6110fe6040518060400160405280600a815260200169189d5e5a5b99c813919560b21b81525061270a565b600081116111745760405162461bcd60e51b815260206004820152603860248201527f455243313135355072657365744d696e7465725061757365723a20616d6f756e60448201527f74206d7573742062652067726561746572207468616e2030000000000000000060648201526084016108cb565b6000600983600381111561118a5761118a6145d9565b6004811061119a5761119a614511565b01541161120f5760405162461bcd60e51b815260206004820152603c60248201527f455243313135355072657365744d696e7465725061757365723a20746965722060448201527f7072696365206d7573742062652067726561746572207468616e20300000000060648201526084016108cb565b6000826003811115611223576112236145d9565b9050600082600985600381111561123c5761123c6145d9565b6004811061124c5761124c614511565b0154611258919061463d565b9050611291604051806040016040528060158152602001747472616e7366657272696e6720757364507269636560581b8152508261274d565b6013546001600160a01b03166323b872dd336040516001600160e01b031960e084901b1681526001600160a01b039091166004820152306024820152604481018490526064016020604051808303816000875af11580156112f6573d6000803e3d6000fd5b505050506040513d601f19601f8201168201806040525081019061131a9190614676565b506000611328826014612792565b90506113696040518060400160405280601a81526020017f7472616e7366657272696e6720746f53656c6c466f72536166650000000000008152508261274d565b60115460405163f7e0ba5f60e01b8152600481018390526000916001600160a01b03169063f7e0ba5f906024016020604051808303816000875af11580156113b5573d6000803e3d6000fd5b505050506040513d601f19601f820116820180604052508101906113d99190614693565b905061141660405180604001604052806019815260200178039b0b332a0b6b7bab73a103932ba3ab93732b210333937b69603d1b8152508261274d565b601154600090611431906001600160a01b03168360146127f2565b6013546040516370a0823160e01b81523060048201529192506000916001600160a01b03909116906370a0823190602401602060405180830381865afa15801561147f573d6000803e3d6000fd5b505050506040513d601f19601f820116820180604052508101906114a39190614693565b9050801561150a5760125460405163b6b55f2560e01b8152600481018390526001600160a01b039091169063b6b55f2590602401600060405180830381600087803b1580156114f157600080fd5b505af1158015611505573d6000803e3d6000fd5b505050505b61152533878960405180602001604052806000815250612a29565b5050505050505050565b6001600160a01b03831633148061154b575061154b83336107f5565b6115675760405162461bcd60e51b81526004016108cb906145ef565b610bf2838383612b1a565b61159c7f9f2df0fed2c77648de5860a4cc508cd0818c85b8b8a1ab4ceeef8d981c8956a63361185a565b6115b85760405162461bcd60e51b81526004016108cb9061457c565b610aed84848484612a29565b600281600281106115d457600080fd5b01546001600160a01b0316905081565b6000670de0b6b3a7640000601160009054906101000a90046001600160a01b03166001600160a01b031663a035b1fe6040518163ffffffff1660e01b8152600401602060405180830381865afa158015611642573d6000803e3d6000fd5b505050506040513d601f19601f820116820180604052508101906116669190614693565b6011546001600160a01b03166370a0823160026000015460405160e083901b6001600160e01b03191681526001600160a01b039091166004820152602401602060405180830381865afa1580156116c1573d6000803e3d6000fd5b505050506040513d601f19601f820116820180604052508101906116e59190614693565b6116ef919061463d565b6116f99190614654565b6013546001600160a01b03166370a0823160026000015460405160e083901b6001600160e01b03191681526001600160a01b039091166004820152602401602060405180830381865afa158015611754573d6000803e3d6000fd5b505050506040513d601f19601f820116820180604052508101906117789190614693565b6117829190614550565b905090565b6117b17f65d7a28e3265b37a6474929f336521b332c1681b933f6cb9f3376673440d862a3361185a565b6118235760405162461bcd60e51b815260206004820152603960248201527f455243313135355072657365744d696e7465725061757365723a206d7573742060448201527f686176652070617573657220726f6c6520746f2070617573650000000000000060648201526084016108cb565b610d47612cc3565b600d8160048110610b0357600080fd5b60008281526001602052604081206118539083612d00565b9392505050565b6000918252602082815260408084206001600160a01b0393909316845291905290205460ff1690565b610c71338383612d0c565b60006118b87fb53127684a568b3173ae13b9f8a6016e243e63b6e8ee1178d6a717850b5d61035490565b90506001600160a01b0381166118f7576001600160a01b037fb53127684a568b3173ae13b9f8a6016e243e63b6e8ee1178d6a717850b5d61035561190c565b336001600160a01b0382161461190c57600080fd5b61191587612dec565b611920600033612df8565b61194a7f9f2df0fed2c77648de5860a4cc508cd0818c85b8b8a1ab4ceeef8d981c8956a633612df8565b6119747f65d7a28e3265b37a6474929f336521b332c1681b933f6cb9f3376673440d862a33612df8565b6119816009876004613b1e565b5061198f600d866004613b1e565b50601180546001600160a01b0319166001600160a01b0386161790556119b86014846002613b5c565b506119c66016836002613b5c565b506011546040805163db7a460560e01b81528151611a37936001600160a01b03169263db7a460592600480820193918290030181865afa158015611a0e573d6000803e3d6000fd5b505050506040513d601f19601f82011682018060405250810190611a3291906146ac565b612e02565b601160009054906101000a90046001600160a01b03166001600160a01b031663deef94de6040518163ffffffff1660e01b8152600401602060405180830381865afa158015611a8a573d6000803e3d6000fd5b505050506040513d601f19601f82011682018060405250810190611aae919061470e565b601280546001600160a01b0319166001600160a01b039283161790556011546040805163d63a6ccd60e01b81529051919092169163d63a6ccd9160048083019260209291908290030181865afa158015611b0c573d6000803e3d6000fd5b505050506040513d601f19601f82011682018060405250810190611b30919061470e565b601380546001600160a01b0319166001600160a01b0392831690811790915560115460405163095ea7b360e01b81529216600483015260001960248301529063095ea7b3906044016020604051808303816000875af1158015611b97573d6000803e3d6000fd5b505050506040513d601f19601f82011682018060405250810190611bbb9190614676565b5060135460125460405163095ea7b360e01b81526001600160a01b039182166004820152600019602482015291169063095ea7b3906044016020604051808303816000875af1158015611c12573d6000803e3d6000fd5b505050506040513d601f19601f82011682018060405250810190611c369190614676565b5060115460405163095ea7b360e01b81526001600160a01b039091166004820181905260001960248301529063095ea7b3906044016020604051808303816000875af1158015611c8a573d6000803e3d6000fd5b505050506040513d601f19601f82011682018060405250810190611cae9190614676565b50506000601855505050505050565b60008181526001602052604081206108f990612e0e565b60168160028110610b0357600080fd5b60005b6004811015611d3c5760005b6018548111611d2957611d17826003811115611d1157611d116145d9565b82610fa6565b80611d2181614563565b915050611cf3565b5080611d3481614563565b915050611ce7565b50565b611d76604051806040016040528060158152602001747472616e7366657272696e6720757364507269636560581b8152508261274d565b6013546001600160a01b03166323b872dd336040516001600160e01b031960e084901b1681526001600160a01b039091166004820152306024820152604481018490526064016020604051808303816000875af1158015611ddb573d6000803e3d6000fd5b505050506040513d601f19601f82011682018060405250810190611dff9190614676565b506000611e0d600283614654565b90506000611e25611e1e838561453d565b6016612792565b9050611e666040518060400160405280601a81526020017f7472616e7366657272696e6720746f53656c6c466f72536166650000000000008152508261274d565b60115460405163f7e0ba5f60e01b8152600481018390526000916001600160a01b03169063f7e0ba5f906024016020604051808303816000875af1158015611eb2573d6000803e3d6000fd5b505050506040513d601f19601f82011682018060405250810190611ed69190614693565b9050611f1360405180604001604052806019815260200178039b0b332a0b6b7bab73a103932ba3ab93732b210333937b69603d1b8152508261274d565b601154600090611f2e906001600160a01b03168360166127f2565b601880549192506000611f4083614563565b90915550506018546000908152601960205260408120829055611f61610a60565b905060005b6004811015611fef576000818152600860209081526040808320546018548452601b90925290912081908360048110611fa157611fa1614511565b015582611fae828961463d565b611fb89190614654565b6018546000908152601a602052604090208360048110611fda57611fda614511565b01555080611fe781614563565b915050611f66565b506013546040516370a0823160e01b81523060048201526000916001600160a01b0316906370a0823190602401602060405180830381865afa158015612039573d6000803e3d6000fd5b505050506040513d601f19601f8201168201806040525081019061205d9190614693565b905080156120c45760125460405163b6b55f2560e01b8152600481018390526001600160a01b039091169063b6b55f2590602401600060405180830381600087803b1580156120ab57600080fd5b505af11580156120bf573d6000803e3d6000fd5b505050505b50505050505050565b6000828152602081905260409020600101546120e88161266a565b610bf28383612696565b60148160028110610b0357600080fd5b60003381805b600481101561216a5760005b60185481116121575761213984836003811115612133576121336145d9565b83610d49565b6121439084614550565b92508061214f81614563565b915050612114565b508061216281614563565b915050612108565b5092915050565b60006121888260038111156106c9576106c96145d9565b156121a7576121a28260038111156106c9576106c96145d9565b6121aa565b60015b6018546000908152601a602052604090208360038111156121cd576121cd6145d9565b600481106121dd576121dd614511565b01546121e99190614654565b60098360038111156121fd576121fd6145d9565b6004811061220d5761220d614511565b01546108f99190614550565b6001600160a01b038516331480612235575061223585336107f5565b6122515760405162461bcd60e51b81526004016108cb906145ef565b610bc68585858585612e18565b6001600160a01b03831633148061227a575061227a83336107f5565b6122965760405162461bcd60e51b81526004016108cb906145ef565b610bf2838383612f62565b6122ab828261185a565b610c71576000828152602081815260408083206001600160a01b03851684529091529020805460ff191660011790556122e13390565b6001600160a01b0316816001600160a01b0316837f2f8788117e7eff1d82e926ec794901d17c78024a50270940304540a733656f0d60405160405180910390a45050565b6000611853836001600160a01b038416613088565b60006108f9826130d7565b6001600160a01b03841661236b5760405162461bcd60e51b81526004016108cb9061472b565b815183511461238c5760405162461bcd60e51b81526004016108cb9061476c565b3361239c81600087878787613117565b60005b8451811015612438578381815181106123ba576123ba614511565b6020026020010151600460008784815181106123d8576123d8614511565b602002602001015181526020019081526020016000206000886001600160a01b03166001600160a01b0316815260200190815260200160002060008282546124209190614550565b9091555081905061243081614563565b91505061239f565b50846001600160a01b031660006001600160a01b0316826001600160a01b03167f4a39dc06d4c0dbc64b70af90fd698a233a518aa5d07e595d983b8c0526c8f7fb87876040516124899291906147b4565b60405180910390a46124a081600087878787613125565b610bc6816000878787876131d7565b81518351146124d05760405162461bcd60e51b81526004016108cb9061476c565b6001600160a01b0384166124f65760405162461bcd60e51b81526004016108cb906147e2565b33612505818787878787613117565b60005b84518110156125ee57600085828151811061252557612525614511565b60200260200101519050600085838151811061254357612543614511565b60209081029190910181015160008481526004835260408082206001600160a01b038e1683529093529190912054909150818110156125945760405162461bcd60e51b81526004016108cb90614827565b60008381526004602090815260408083206001600160a01b038e8116855292528083208585039055908b168252812080548492906125d3908490614550565b92505081905550505050806125e790614563565b9050612508565b50846001600160a01b0316866001600160a01b0316826001600160a01b03167f4a39dc06d4c0dbc64b70af90fd698a233a518aa5d07e595d983b8c0526c8f7fb878760405161263e9291906147b4565b60405180910390a4612654818787878787613125565b6126628187878787876131d7565b505050505050565b611d3c8133613332565b61267e82826122a1565b6000828152600160205260409020610bf29082612325565b6126a0828261338b565b6000828152600160205260409020610bf290826133f0565b6126c0613405565b6007805460ff191690557f5db9ee0a495bf2e6ff9c91a7834c1ba4fdd244a5e8aa4e537bd38aeae4b073aa335b6040516001600160a01b03909116815260200160405180910390a1565b611d3c8160405160240161271e9190613ccc565b60408051601f198184030181529190526020810180516001600160e01b031663104c13eb60e21b17905261344e565b610c718282604051602401612763929190614871565b60408051601f198184030181529190526020810180516001600160e01b0316632d839cb360e21b17905261344e565b600080805b60028110156127d2578381600281106127b2576127b2614511565b01546127be9083614550565b9150806127ca81614563565b915050612797565b506127106127e0828661463d565b6127ea9190614654565b949350505050565b60006128256040518060400160405280600f81526020016e446973747269627574696e6720257360881b8152508461274d565b604080518082018252600a81526962616c616e636520257360b01b602082015290516370a0823160e01b81523060048201526128b691906001600160a01b038716906370a0823190602401602060405180830381865afa15801561288d573d6000803e3d6000fd5b505050506040513d601f19601f820116820180604052508101906128b19190614693565b61274d565b6000805b60028110156129f85760006127108583600281106128da576128da614511565b01546128e6908861463d565b6128f09190614654565b90506129426040518060400160405280601081526020016f73656e64696e6720257320746f20257360801b815250846002856002811061293257612932614511565b01546001600160a01b031661346f565b866001600160a01b031663a9059cbb6002846002811061296457612964614511565b015460405160e083901b6001600160e01b03191681526001600160a01b039091166004820152602481018490526044016020604051808303816000875af11580156129b3573d6000803e3d6000fd5b505050506040513d601f19601f820116820180604052508101906129d79190614676565b506129e28184614550565b92505080806129f090614563565b9150506128ba565b506127ea6040518060400160405280600e81526020016d446973747269627574656420257360901b8152508261274d565b6001600160a01b038416612a4f5760405162461bcd60e51b81526004016108cb9061472b565b336000612a5b856134b6565b90506000612a68856134b6565b9050612a7983600089858589613117565b60008681526004602090815260408083206001600160a01b038b16845290915281208054879290612aab908490614550565b909155505060408051878152602081018790526001600160a01b03808a1692600092918716917fc3d58168c5ae7397731d063d5bbf3d657854427343f4c083240f7aacaa2d0f62910160405180910390a4612b0b83600089858589613125565b6120c483600089898989613501565b6001600160a01b038316612b405760405162461bcd60e51b81526004016108cb90614893565b8051825114612b615760405162461bcd60e51b81526004016108cb9061476c565b6000339050612b8481856000868660405180602001604052806000815250613117565b60005b8351811015612c4c576000848281518110612ba457612ba4614511565b602002602001015190506000848381518110612bc257612bc2614511565b60209081029190910181015160008481526004835260408082206001600160a01b038c168352909352919091205490915081811015612c135760405162461bcd60e51b81526004016108cb906148d6565b60009283526004602090815260408085206001600160a01b038b1686529091529092209103905580612c4481614563565b915050612b87565b5060006001600160a01b0316846001600160a01b0316826001600160a01b03167f4a39dc06d4c0dbc64b70af90fd698a233a518aa5d07e595d983b8c0526c8f7fb8686604051612c9d9291906147b4565b60405180910390a4610aed81856000868660405180602001604052806000815250613125565b612ccb6135bc565b6007805460ff191660011790557f62e78cea01bee320cd4e420270b5ea74000d11b0c9f74754ebdbfc544b05a2586126ed3390565b60006118538383613602565b816001600160a01b0316836001600160a01b031603612d7f5760405162461bcd60e51b815260206004820152602960248201527f455243313135353a2073657474696e6720617070726f76616c20737461747573604482015268103337b91039b2b63360b91b60648201526084016108cb565b6001600160a01b03838116600081815260056020908152604080832094871680845294825291829020805460ff191686151590811790915591519182527f17307eab39ab6107e8899845ad3d59bd9653f200f220920489ca2b5937696c31910160405180910390a3505050565b6006610c718282614960565b610c718282612674565b610c7160028281613b89565b60006108f9825490565b6001600160a01b038416612e3e5760405162461bcd60e51b81526004016108cb906147e2565b336000612e4a856134b6565b90506000612e57856134b6565b9050612e67838989858589613117565b60008681526004602090815260408083206001600160a01b038c16845290915290205485811015612eaa5760405162461bcd60e51b81526004016108cb90614827565b60008781526004602090815260408083206001600160a01b038d8116855292528083208985039055908a16825281208054889290612ee9908490614550565b909155505060408051888152602081018890526001600160a01b03808b16928c821692918816917fc3d58168c5ae7397731d063d5bbf3d657854427343f4c083240f7aacaa2d0f62910160405180910390a4612f49848a8a86868a613125565b612f57848a8a8a8a8a613501565b505050505050505050565b6001600160a01b038316612f885760405162461bcd60e51b81526004016108cb90614893565b336000612f94846134b6565b90506000612fa1846134b6565b9050612fc183876000858560405180602001604052806000815250613117565b60008581526004602090815260408083206001600160a01b038a168452909152902054848110156130045760405162461bcd60e51b81526004016108cb906148d6565b60008681526004602090815260408083206001600160a01b038b81168086529184528285208a8703905582518b81529384018a90529092908816917fc3d58168c5ae7397731d063d5bbf3d657854427343f4c083240f7aacaa2d0f62910160405180910390a46120c484886000868660405180602001604052806000815250613125565b60008181526001830160205260408120546130cf575081546001818101845560008481526020808220909301849055845484825282860190935260409020919091556108f9565b5060006108f9565b60006001600160e01b03198216636cdb3d1360e11b148061310857506001600160e01b031982166303a24d0760e21b145b806108f957506108f98261362c565b612662868686868686613651565b600d8360008151811061313a5761313a614511565b60200260200101516004811061315257613152614511565b01546131848460008151811061316a5761316a614511565b602002602001015160009081526008602052604090205490565b11156131d25760405162461bcd60e51b815260206004820152601b60248201527f536166654e46543a206d617820737570706c792072656163686564000000000060448201526064016108cb565b612662565b6001600160a01b0384163b156126625760405163bc197c8160e01b81526001600160a01b0385169063bc197c819061321b9089908990889088908890600401614a1f565b6020604051808303816000875af1925050508015613256575060408051601f3d908101601f1916820190925261325391810190614a7d565b60015b61330257613262614a9a565b806308c379a00361329b5750613276614ab6565b80613281575061329d565b8060405162461bcd60e51b81526004016108cb9190613ccc565b505b60405162461bcd60e51b815260206004820152603460248201527f455243313135353a207472616e7366657220746f206e6f6e2d455243313135356044820152732932b1b2b4bb32b91034b6b83632b6b2b73a32b960611b60648201526084016108cb565b6001600160e01b0319811663bc197c8160e01b146120c45760405162461bcd60e51b81526004016108cb90614b3f565b61333c828261185a565b610c7157613349816137d8565b6133548360206137ea565b604051602001613365929190614b87565b60408051601f198184030181529082905262461bcd60e51b82526108cb91600401613ccc565b613395828261185a565b15610c71576000828152602081815260408083206001600160a01b0385168085529252808320805460ff1916905551339285917ff6391f5c32d9c69d2a47ea670b442974b53935d1edc7fd64eb21e047a839171b9190a45050565b6000611853836001600160a01b038416613985565b60075460ff16610d475760405162461bcd60e51b815260206004820152601460248201527314185d5cd8589b194e881b9bdd081c185d5cd95960621b60448201526064016108cb565b80516a636f6e736f6c652e6c6f67602083016000808483855afa5050505050565b610bf283838360405160240161348793929190614bfc565b60408051601f198184030181529190526020810180516001600160e01b031663038fd88960e31b17905261344e565b604080516001808252818301909252606091600091906020808301908036833701905050905082816000815181106134f0576134f0614511565b602090810291909101015292915050565b6001600160a01b0384163b156126625760405163f23a6e6160e01b81526001600160a01b0385169063f23a6e61906135459089908990889088908890600401614c2e565b6020604051808303816000875af1925050508015613580575060408051601f3d908101601f1916820190925261357d91810190614a7d565b60015b61358c57613262614a9a565b6001600160e01b0319811663f23a6e6160e01b146120c45760405162461bcd60e51b81526004016108cb90614b3f565b60075460ff1615610d475760405162461bcd60e51b815260206004820152601060248201526f14185d5cd8589b194e881c185d5cd95960821b60448201526064016108cb565b600082600001828154811061361957613619614511565b9060005260206000200154905092915050565b60006001600160e01b03198216635a05180f60e01b14806108f957506108f982613a78565b61365f868686868686613aad565b6001600160a01b0385166136e65760005b83518110156136e45782818151811061368b5761368b614511565b6020026020010151600860008684815181106136a9576136a9614511565b6020026020010151815260200190815260200160002060008282546136ce9190614550565b909155506136dd905081614563565b9050613670565b505b6001600160a01b0384166126625760005b83518110156120c457600084828151811061371457613714614511565b60200260200101519050600084838151811061373257613732614511565b60200260200101519050600060086000848152602001908152602001600020549050818110156137b55760405162461bcd60e51b815260206004820152602860248201527f455243313135353a206275726e20616d6f756e74206578636565647320746f74604482015267616c537570706c7960c01b60648201526084016108cb565b600092835260086020526040909220910390556137d181614563565b90506136f7565b60606108f96001600160a01b03831660145b606060006137f983600261463d565b613804906002614550565b6001600160401b0381111561381b5761381b613cf8565b6040519080825280601f01601f191660200182016040528015613845576020820181803683370190505b509050600360fc1b8160008151811061386057613860614511565b60200101906001600160f81b031916908160001a905350600f60fb1b8160018151811061388f5761388f614511565b60200101906001600160f81b031916908160001a90535060006138b384600261463d565b6138be906001614550565b90505b6001811115613936576f181899199a1a9b1b9c1cb0b131b232b360811b85600f16601081106138f2576138f2614511565b1a60f81b82828151811061390857613908614511565b60200101906001600160f81b031916908160001a90535060049490941c9361392f81614c66565b90506138c1565b5083156118535760405162461bcd60e51b815260206004820181905260248201527f537472696e67733a20686578206c656e67746820696e73756666696369656e7460448201526064016108cb565b60008181526001830160205260408120548015613a6e5760006139a960018361453d565b85549091506000906139bd9060019061453d565b9050818114613a225760008660000182815481106139dd576139dd614511565b9060005260206000200154905080876000018481548110613a0057613a00614511565b6000918252602080832090910192909255918252600188019052604090208390555b8554869080613a3357613a33614c7d565b6001900381819060005260206000200160009055905585600101600086815260200190815260200160002060009055600193505050506108f9565b60009150506108f9565b60006001600160e01b03198216637965db0b60e01b14806108f957506301ffc9a760e01b6001600160e01b03198316146108f9565b61266286868686868660075460ff16156126625760405162461bcd60e51b815260206004820152602c60248201527f455243313135355061757361626c653a20746f6b656e207472616e736665722060448201526b1dda1a5b19481c185d5cd95960a21b60648201526084016108cb565b8260048101928215613b4c579160200282015b82811115613b4c578251825591602001919060010190613b31565b50613b58929150613bd1565b5090565b8260028101928215613b4c5791602002820182811115613b4c578251825591602001919060010190613b31565b8260028101928215613b4c579160200282015b82811115613b4c57825182546001600160a01b0319166001600160a01b03909116178255602090920191600190910190613b9c565b5b80821115613b585760008155600101613bd2565b6001600160a01b0381168114611d3c57600080fd5b60008060408385031215613c0e57600080fd5b8235613c1981613be6565b946020939093013593505050565b6001600160e01b031981168114611d3c57600080fd5b600060208284031215613c4f57600080fd5b813561185381613c27565b60008060408385031215613c6d57600080fd5b50508035926020909101359150565b60005b83811015613c97578181015183820152602001613c7f565b50506000910152565b60008151808452613cb8816020860160208601613c7c565b601f01601f19169290920160200192915050565b6020815260006118536020830184613ca0565b600060208284031215613cf157600080fd5b5035919050565b634e487b7160e01b600052604160045260246000fd5b604081018181106001600160401b0382111715613d2d57613d2d613cf8565b60405250565b601f8201601f191681016001600160401b0381118282101715613d5857613d58613cf8565b6040525050565b60006001600160401b03821115613d7857613d78613cf8565b5060051b60200190565b600082601f830112613d9357600080fd5b81356020613da082613d5f565b604051613dad8282613d33565b83815260059390931b8501820192828101915086841115613dcd57600080fd5b8286015b84811015613de85780358352918301918301613dd1565b509695505050505050565b60006001600160401b03831115613e0c57613e0c613cf8565b604051613e23601f8501601f191660200182613d33565b809150838152848484011115613e3857600080fd5b83836020830137600060208583010152509392505050565b600082601f830112613e6157600080fd5b61185383833560208501613df3565b60008060008060808587031215613e8657600080fd5b8435613e9181613be6565b935060208501356001600160401b0380821115613ead57600080fd5b613eb988838901613d82565b94506040870135915080821115613ecf57600080fd5b613edb88838901613d82565b93506060870135915080821115613ef157600080fd5b50613efe87828801613e50565b91505092959194509250565b600081518084526020808501945080840160005b83811015613f3a57815187529582019590820190600101613f1e565b509495945050505050565b6020815260006118536020830184613f0a565b600080600080600060a08688031215613f7057600080fd5b8535613f7b81613be6565b94506020860135613f8b81613be6565b935060408601356001600160401b0380821115613fa757600080fd5b613fb389838a01613d82565b94506060880135915080821115613fc957600080fd5b613fd589838a01613d82565b93506080880135915080821115613feb57600080fd5b50613ff888828901613e50565b9150509295509295909350565b6000806040838503121561401857600080fd5b82359150602083013561402a81613be6565b809150509250929050565b80356004811061404457600080fd5b919050565b60006020828403121561405b57600080fd5b61185382614035565b60008060006060848603121561407957600080fd5b833561408481613be6565b925061409260208501614035565b9150604084013590509250925092565b600080604083850312156140b557600080fd5b82356001600160401b03808211156140cc57600080fd5b818501915085601f8301126140e057600080fd5b813560206140ed82613d5f565b6040516140fa8282613d33565b83815260059390931b850182019282810191508984111561411a57600080fd5b948201945b8386101561414157853561413281613be6565b8252948201949082019061411f565b9650508601359250508082111561415757600080fd5b5061416485828601613d82565b9150509250929050565b6000806040838503121561418157600080fd5b613c1983614035565b60008060006060848603121561419f57600080fd5b83356141aa81613be6565b925060208401356001600160401b03808211156141c657600080fd5b6141d287838801613d82565b935060408601359150808211156141e857600080fd5b506141f586828701613d82565b9150509250925092565b6000806000806080858703121561421557600080fd5b843561422081613be6565b9350602085013592506040850135915060608501356001600160401b0381111561424957600080fd5b613efe87828801613e50565b8015158114611d3c57600080fd5b6000806040838503121561427657600080fd5b823561428181613be6565b9150602083013561402a81614255565b600082601f8301126142a257600080fd5b604051608081018181106001600160401b03821117156142c4576142c4613cf8565b6040528060808401858111156142d957600080fd5b845b818110156142f35780358352602092830192016142db565b509195945050505050565b600082601f83011261430f57600080fd5b60405161431b81613d0e565b8060408401858111156142d957600080fd5b6000806000806000806101c0878903121561434757600080fd5b86356001600160401b0381111561435d57600080fd5b8701601f8101891361436e57600080fd5b61437d89823560208401613df3565b96505061438d8860208901614291565b945061439c8860a08901614291565b93506101208701356143ad81613be6565b92506143bd8861014089016142fe565b91506143cd8861018089016142fe565b90509295509295509295565b6000806000606084860312156143ee57600080fd5b8335925060208401359150604084013561440781613be6565b809150509250925092565b6000806040838503121561442557600080fd5b823561443081613be6565b9150602083013561402a81613be6565b600080600080600060a0868803121561445857600080fd5b853561446381613be6565b9450602086013561447381613be6565b9350604086013592506060860135915060808601356001600160401b0381111561449c57600080fd5b613ff888828901613e50565b6000806000606084860312156144bd57600080fd5b83356144c881613be6565b95602085013595506040909401359392505050565b600181811c908216806144f157607f821691505b602082108103610a5a57634e487b7160e01b600052602260045260246000fd5b634e487b7160e01b600052603260045260246000fd5b634e487b7160e01b600052601160045260246000fd5b818103818111156108f9576108f9614527565b808201808211156108f9576108f9614527565b60006001820161457557614575614527565b5060010190565b60208082526038908201527f455243313135355072657365744d696e7465725061757365723a206d7573742060408201527f68617665206d696e74657220726f6c6520746f206d696e740000000000000000606082015260800190565b634e487b7160e01b600052602160045260246000fd5b6020808252602e908201527f455243313135353a2063616c6c6572206973206e6f7420746f6b656e206f776e60408201526d195c881bdc88185c1c1c9bdd995960921b606082015260800190565b80820281158282048414176108f9576108f9614527565b60008261467157634e487b7160e01b600052601260045260246000fd5b500490565b60006020828403121561468857600080fd5b815161185381614255565b6000602082840312156146a557600080fd5b5051919050565b6000604082840312156146be57600080fd5b82601f8301126146cd57600080fd5b6040516146d981613d0e565b8060408401858111156146eb57600080fd5b845b818110156142f357805161470081613be6565b8352602092830192016146ed565b60006020828403121561472057600080fd5b815161185381613be6565b60208082526021908201527f455243313135353a206d696e7420746f20746865207a65726f206164647265736040820152607360f81b606082015260800190565b60208082526028908201527f455243313135353a2069647320616e6420616d6f756e7473206c656e677468206040820152670dad2e6dac2e8c6d60c31b606082015260800190565b6040815260006147c76040830185613f0a565b82810360208401526147d98185613f0a565b95945050505050565b60208082526025908201527f455243313135353a207472616e7366657220746f20746865207a65726f206164604082015264647265737360d81b606082015260800190565b6020808252602a908201527f455243313135353a20696e73756666696369656e742062616c616e636520666f60408201526939103a3930b739b332b960b11b606082015260800190565b6040815260006148846040830185613ca0565b90508260208301529392505050565b60208082526023908201527f455243313135353a206275726e2066726f6d20746865207a65726f206164647260408201526265737360e81b606082015260800190565b60208082526024908201527f455243313135353a206275726e20616d6f756e7420657863656564732062616c604082015263616e636560e01b606082015260800190565b601f821115610bf257600081815260208120601f850160051c810160208610156149415750805b601f850160051c820191505b818110156126625782815560010161494d565b81516001600160401b0381111561497957614979613cf8565b61498d8161498784546144dd565b8461491a565b602080601f8311600181146149c257600084156149aa5750858301515b600019600386901b1c1916600185901b178555612662565b600085815260208120601f198616915b828110156149f1578886015182559484019460019091019084016149d2565b5085821015614a0f5787850151600019600388901b60f8161c191681555b5050505050600190811b01905550565b60006001600160a01b03808816835280871660208401525060a06040830152614a4b60a0830186613f0a565b8281036060840152614a5d8186613f0a565b90508281036080840152614a718185613ca0565b98975050505050505050565b600060208284031215614a8f57600080fd5b815161185381613c27565b600060033d1115614ab35760046000803e5060005160e01c5b90565b600060443d1015614ac45790565b6040516003193d81016004833e81513d6001600160401b038160248401118184111715614af357505050505090565b8285019150815181811115614b0b5750505050505090565b843d8701016020828501011115614b255750505050505090565b614b3460208286010187613d33565b509095945050505050565b60208082526028908201527f455243313135353a204552433131353552656365697665722072656a656374656040820152676420746f6b656e7360c01b606082015260800190565b7f416363657373436f6e74726f6c3a206163636f756e7420000000000000000000815260008351614bbf816017850160208801613c7c565b7001034b99036b4b9b9b4b733903937b6329607d1b6017918401918201528351614bf0816028840160208801613c7c565b01602801949350505050565b606081526000614c0f6060830186613ca0565b90508360208301526001600160a01b0383166040830152949350505050565b60006001600160a01b03808816835280871660208401525084604083015283606083015260a06080830152610def60a0830184613ca0565b600081614c7557614c75614527565b506000190190565b634e487b7160e01b600052603160045260246000fdfea2646970667358221220bf99b612b8fefbfa23815d12e1d6dad16087276392d3097bcd89f8158ae8fae964736f6c63430008110033b53127684a568b3173ae13b9f8a6016e243e63b6e8ee1178d6a717850b5d610365d7a28e3265b37a6474929f336521b332c1681b933f6cb9f3376673440d862a9f2df0fed2c77648de5860a4cc508cd0818c85b8b8a1ab4ceeef8d981c8956a6",
  "devdoc": {
    "author": "crypt0grapher",
    "kind": "dev",
    "methods": {
      "balanceOf(address,uint256)": {
        "details": "See {IERC1155-balanceOf}. Requirements: - `account` cannot be the zero address."
      },
      "balanceOfBatch(address[],uint256[])": {
        "details": "See {IERC1155-balanceOfBatch}. Requirements: - `accounts` and `ids` must have the same length."
      },
      "buy(uint8,uint256)": {
        "params": {
          "_amount": "amount of USD to spend",
          "_tier": "tier of the NFT to purchase which stands for ERC1155 token id [0..3]"
        }
      },
      "distributeProfit(uint256)": {
        "params": {
          "_amountUSD": "amount of USD to distribute"
        }
      },
      "exists(uint256)": {
        "details": "Indicates whether any token exist with a given id, or not."
      },
      "getFairPrice(uint8)": {
        "returns": {
          "_0": "counts not only the sale price but also share of the profit for the tier"
        }
      },
      "getPrice(uint8)": {
        "returns": {
          "_0": "returns Rewards set for distribution"
        }
      },
      "getRoleAdmin(bytes32)": {
        "details": "Returns the admin role that controls `role`. See {grantRole} and {revokeRole}. To change a role's admin, use {_setRoleAdmin}."
      },
      "getRoleMember(bytes32,uint256)": {
        "details": "Returns one of the accounts that have `role`. `index` must be a value between 0 and {getRoleMemberCount}, non-inclusive. Role bearers are not sorted in any particular way, and their ordering may change at any point. WARNING: When using {getRoleMember} and {getRoleMemberCount}, make sure you perform all queries on the same block. See the following https://forum.openzeppelin.com/t/iterating-over-elements-on-enumerableset-in-openzeppelin-contracts/2296[forum post] for more information."
      },
      "getRoleMemberCount(bytes32)": {
        "details": "Returns the number of accounts that have `role`. Can be used together with {getRoleMember} to enumerate all bearers of a role."
      },
      "getUnclaimedRewards()": {
        "returns": {
          "_0": "amount of the rewards not yet distributed to NFT holders"
        }
      },
      "grantRole(bytes32,address)": {
        "details": "Grants `role` to `account`. If `account` had not been already granted `role`, emits a {RoleGranted} event. Requirements: - the caller must have ``role``'s admin role. May emit a {RoleGranted} event."
      },
      "hasRole(bytes32,address)": {
        "details": "Returns `true` if `account` has been granted `role`."
      },
      "isApprovedForAll(address,address)": {
        "details": "See {IERC1155-isApprovedForAll}."
      },
      "mint(address,uint256,uint256,bytes)": {
        "details": "Creates `amount` new tokens for `to`, of token type `id`. See {ERC1155-_mint}. Requirements: - the caller must have the `MINTER_ROLE`."
      },
      "mintBatch(address,uint256[],uint256[],bytes)": {
        "details": "xref:ROOT:erc1155.adoc#batch-operations[Batched] variant of {mint}."
      },
      "pause()": {
        "details": "Pauses all token transfers. See {ERC1155Pausable} and {Pausable-_pause}. Requirements: - the caller must have the `PAUSER_ROLE`."
      },
      "paused()": {
        "details": "Returns true if the contract is paused, and false otherwise."
      },
      "renounceRole(bytes32,address)": {
        "details": "Revokes `role` from the calling account. Roles are often managed via {grantRole} and {revokeRole}: this function's purpose is to provide a mechanism for accounts to lose their privileges if they are compromised (such as when a trusted device is misplaced). If the calling account had been revoked `role`, emits a {RoleRevoked} event. Requirements: - the caller must be `account`. May emit a {RoleRevoked} event."
      },
      "revokeRole(bytes32,address)": {
        "details": "Revokes `role` from `account`. If `account` had been granted `role`, emits a {RoleRevoked} event. Requirements: - the caller must have ``role``'s admin role. May emit a {RoleRevoked} event."
      },
      "safeBatchTransferFrom(address,address,uint256[],uint256[],bytes)": {
        "details": "See {IERC1155-safeBatchTransferFrom}."
      },
      "safeTransferFrom(address,address,uint256,uint256,bytes)": {
        "details": "See {IERC1155-safeTransferFrom}."
      },
      "setApprovalForAll(address,bool)": {
        "details": "See {IERC1155-setApprovalForAll}."
      },
      "totalSupply(uint256)": {
        "details": "Total amount of tokens in with a given id."
      },
      "unpause()": {
        "details": "Unpauses all token transfers. See {ERC1155Pausable} and {Pausable-_unpause}. Requirements: - the caller must have the `PAUSER_ROLE`."
      },
      "uri(uint256)": {
        "details": "See {IERC1155MetadataURI-uri}. This implementation returns the same URI for *all* token types. It relies on the token type ID substitution mechanism https://eips.ethereum.org/EIPS/eip-1155#metadata[defined in the EIP]. Clients calling this function must replace the `\\{id\\}` substring with the actual token type ID."
      }
    },
    "stateVariables": {
      "currentDistributionId": {
        "return": "current distribution number, the one that assigned to the latest distribution",
        "returns": {
          "_0": "current distribution number, the one that assigned to the latest distribution"
        }
      }
    },
    "title": "Safe NFT",
    "version": 1
  },
  "userdoc": {
    "kind": "user",
    "methods": {
      "buy(uint8,uint256)": {
        "notice": "purchase Safe NFT for exact amount of USD"
      },
      "claimReward(uint8,uint256)": {
        "notice": "the function calculates the amount of the reward for the NFT holder and transfers it to the NFT holder"
      },
      "claimRewardsTotal()": {
        "notice": "the function calculates the amount of the reward for the NFT holder and transfers it to the NFT holder"
      },
      "currentDistributionId()": {
        "notice": "gets the current distribution number"
      },
      "distributeProfit(uint256)": {
        "notice": "distribute profit among the NFT holders, the function fixes the amount of the reward and the NFT holders and their shares at the moment of the call. It does not transfer the reward to the NFT holders, it just records the amount of the reward for each NFT holder."
      },
      "getFairPrice(uint8)": {
        "notice": "gets NFT fair price in USD"
      },
      "getFairPriceTable()": {
        "notice": "gets NFT price for all tiers in USD"
      },
      "getMyPendingRewardsTotal()": {
        "notice": "returns the amount of the reward share for the NFT holder"
      },
      "getMyShareOfTreasury()": {
        "notice": "**Your NFTs (% Treasury) **is calculated in $ as a relation of total price of NFTs possessed by the $ amount of Investment Pool - including its SAFE and BUSD components."
      },
      "getPendingRewards(address,uint8,uint256)": {
        "notice": "returns the amount of the reward share for the NFT holder"
      },
      "getPrice(uint8)": {
        "notice": "gets NFT price in USD"
      },
      "getTreasuryCost()": {
        "notice": "gets the total usd value of the NFT minted"
      },
      "getUnclaimedRewards()": {
        "notice": "undistributed profit amount in USD"
      }
    },
    "notice": "Safe Yields NFT token based on ERC1155 standard, id [0..3] represents one of the 4 tiers",
    "version": 1
  },
  "storageLayout": {
    "storage": [
      {
        "astId": 24,
        "contract": "contracts/SafeNFT.sol:SafeNFT",
        "label": "_roles",
        "offset": 0,
        "slot": "0",
        "type": "t_mapping(t_bytes32,t_struct(RoleData)19_storage)"
      },
      {
        "astId": 334,
        "contract": "contracts/SafeNFT.sol:SafeNFT",
        "label": "_roleMembers",
        "offset": 0,
        "slot": "1",
        "type": "t_mapping(t_bytes32,t_struct(AddressSet)4376_storage)"
      },
      {
        "astId": 6962,
        "contract": "contracts/SafeNFT.sol:SafeNFT",
        "label": "wallets",
        "offset": 0,
        "slot": "2",
        "type": "t_array(t_address)2_storage"
      },
      {
        "astId": 672,
        "contract": "contracts/SafeNFT.sol:SafeNFT",
        "label": "_balances",
        "offset": 0,
        "slot": "4",
        "type": "t_mapping(t_uint256,t_mapping(t_address,t_uint256))"
      },
      {
        "astId": 678,
        "contract": "contracts/SafeNFT.sol:SafeNFT",
        "label": "_operatorApprovals",
        "offset": 0,
        "slot": "5",
        "type": "t_mapping(t_address,t_mapping(t_address,t_bool))"
      },
      {
        "astId": 680,
        "contract": "contracts/SafeNFT.sol:SafeNFT",
        "label": "_uri",
        "offset": 0,
        "slot": "6",
        "type": "t_string_storage"
      },
      {
        "astId": 556,
        "contract": "contracts/SafeNFT.sol:SafeNFT",
        "label": "_paused",
        "offset": 0,
        "slot": "7",
        "type": "t_bool"
      },
      {
        "astId": 2159,
        "contract": "contracts/SafeNFT.sol:SafeNFT",
        "label": "_totalSupply",
        "offset": 0,
        "slot": "8",
        "type": "t_mapping(t_uint256,t_uint256)"
      },
      {
        "astId": 4692,
        "contract": "contracts/SafeNFT.sol:SafeNFT",
        "label": "price",
        "offset": 0,
        "slot": "9",
        "type": "t_array(t_uint256)4_storage"
      },
      {
        "astId": 4696,
        "contract": "contracts/SafeNFT.sol:SafeNFT",
        "label": "maxSupply",
        "offset": 0,
        "slot": "13",
        "type": "t_array(t_uint256)4_storage"
      },
      {
        "astId": 4699,
        "contract": "contracts/SafeNFT.sol:SafeNFT",
        "label": "safeToken",
        "offset": 0,
        "slot": "17",
        "type": "t_contract(ISafeToken)7301"
      },
      {
        "astId": 4702,
        "contract": "contracts/SafeNFT.sol:SafeNFT",
        "label": "safeVault",
        "offset": 0,
        "slot": "18",
        "type": "t_contract(ISafeVault)7322"
      },
      {
        "astId": 4705,
        "contract": "contracts/SafeNFT.sol:SafeNFT",
        "label": "usd",
        "offset": 0,
        "slot": "19",
        "type": "t_contract(IERC20)2597"
      },
      {
        "astId": 4712,
        "contract": "contracts/SafeNFT.sol:SafeNFT",
        "label": "priceDistributionOnMint",
        "offset": 0,
        "slot": "20",
        "type": "t_array(t_uint256)2_storage"
      },
      {
        "astId": 4716,
        "contract": "contracts/SafeNFT.sol:SafeNFT",
        "label": "profitDistribution",
        "offset": 0,
        "slot": "22",
        "type": "t_array(t_uint256)2_storage"
      },
      {
        "astId": 4718,
        "contract": "contracts/SafeNFT.sol:SafeNFT",
        "label": "currentDistributionId",
        "offset": 0,
        "slot": "24",
        "type": "t_uint256"
      },
      {
        "astId": 4722,
        "contract": "contracts/SafeNFT.sol:SafeNFT",
        "label": "distributionOfProfit",
        "offset": 0,
        "slot": "25",
        "type": "t_mapping(t_uint256,t_uint256)"
      },
      {
        "astId": 4728,
        "contract": "contracts/SafeNFT.sol:SafeNFT",
        "label": "distributionByTier",
        "offset": 0,
        "slot": "26",
        "type": "t_mapping(t_uint256,t_array(t_uint256)4_storage)"
      },
      {
        "astId": 4734,
        "contract": "contracts/SafeNFT.sol:SafeNFT",
        "label": "distributionTotalSupplySnapshot",
        "offset": 0,
        "slot": "27",
        "type": "t_mapping(t_uint256,t_array(t_uint256)4_storage)"
      },
      {
        "astId": 4742,
        "contract": "contracts/SafeNFT.sol:SafeNFT",
        "label": "alreadyDistributedAmount",
        "offset": 0,
        "slot": "28",
        "type": "t_mapping(t_uint256,t_mapping(t_uint256,t_mapping(t_address,t_uint256)))"
      },
      {
        "astId": 4748,
        "contract": "contracts/SafeNFT.sol:SafeNFT",
        "label": "alreadyDistributedAmountByTier",
        "offset": 0,
        "slot": "29",
        "type": "t_mapping(t_uint256,t_array(t_uint256)4_storage)"
      }
    ],
    "types": {
      "t_address": {
        "encoding": "inplace",
        "label": "address",
        "numberOfBytes": "20"
      },
      "t_array(t_address)2_storage": {
        "base": "t_address",
        "encoding": "inplace",
        "label": "address[2]",
        "numberOfBytes": "64"
      },
      "t_array(t_bytes32)dyn_storage": {
        "base": "t_bytes32",
        "encoding": "dynamic_array",
        "label": "bytes32[]",
        "numberOfBytes": "32"
      },
      "t_array(t_uint256)2_storage": {
        "base": "t_uint256",
        "encoding": "inplace",
        "label": "uint256[2]",
        "numberOfBytes": "64"
      },
      "t_array(t_uint256)4_storage": {
        "base": "t_uint256",
        "encoding": "inplace",
        "label": "uint256[4]",
        "numberOfBytes": "128"
      },
      "t_bool": {
        "encoding": "inplace",
        "label": "bool",
        "numberOfBytes": "1"
      },
      "t_bytes32": {
        "encoding": "inplace",
        "label": "bytes32",
        "numberOfBytes": "32"
      },
      "t_contract(IERC20)2597": {
        "encoding": "inplace",
        "label": "contract IERC20",
        "numberOfBytes": "20"
      },
      "t_contract(ISafeToken)7301": {
        "encoding": "inplace",
        "label": "contract ISafeToken",
        "numberOfBytes": "20"
      },
      "t_contract(ISafeVault)7322": {
        "encoding": "inplace",
        "label": "contract ISafeVault",
        "numberOfBytes": "20"
      },
      "t_mapping(t_address,t_bool)": {
        "encoding": "mapping",
        "key": "t_address",
        "label": "mapping(address => bool)",
        "numberOfBytes": "32",
        "value": "t_bool"
      },
      "t_mapping(t_address,t_mapping(t_address,t_bool))": {
        "encoding": "mapping",
        "key": "t_address",
        "label": "mapping(address => mapping(address => bool))",
        "numberOfBytes": "32",
        "value": "t_mapping(t_address,t_bool)"
      },
      "t_mapping(t_address,t_uint256)": {
        "encoding": "mapping",
        "key": "t_address",
        "label": "mapping(address => uint256)",
        "numberOfBytes": "32",
        "value": "t_uint256"
      },
      "t_mapping(t_bytes32,t_struct(AddressSet)4376_storage)": {
        "encoding": "mapping",
        "key": "t_bytes32",
        "label": "mapping(bytes32 => struct EnumerableSet.AddressSet)",
        "numberOfBytes": "32",
        "value": "t_struct(AddressSet)4376_storage"
      },
      "t_mapping(t_bytes32,t_struct(RoleData)19_storage)": {
        "encoding": "mapping",
        "key": "t_bytes32",
        "label": "mapping(bytes32 => struct AccessControl.RoleData)",
        "numberOfBytes": "32",
        "value": "t_struct(RoleData)19_storage"
      },
      "t_mapping(t_bytes32,t_uint256)": {
        "encoding": "mapping",
        "key": "t_bytes32",
        "label": "mapping(bytes32 => uint256)",
        "numberOfBytes": "32",
        "value": "t_uint256"
      },
      "t_mapping(t_uint256,t_array(t_uint256)4_storage)": {
        "encoding": "mapping",
        "key": "t_uint256",
        "label": "mapping(uint256 => uint256[4])",
        "numberOfBytes": "32",
        "value": "t_array(t_uint256)4_storage"
      },
      "t_mapping(t_uint256,t_mapping(t_address,t_uint256))": {
        "encoding": "mapping",
        "key": "t_uint256",
        "label": "mapping(uint256 => mapping(address => uint256))",
        "numberOfBytes": "32",
        "value": "t_mapping(t_address,t_uint256)"
      },
      "t_mapping(t_uint256,t_mapping(t_uint256,t_mapping(t_address,t_uint256)))": {
        "encoding": "mapping",
        "key": "t_uint256",
        "label": "mapping(uint256 => mapping(uint256 => mapping(address => uint256)))",
        "numberOfBytes": "32",
        "value": "t_mapping(t_uint256,t_mapping(t_address,t_uint256))"
      },
      "t_mapping(t_uint256,t_uint256)": {
        "encoding": "mapping",
        "key": "t_uint256",
        "label": "mapping(uint256 => uint256)",
        "numberOfBytes": "32",
        "value": "t_uint256"
      },
      "t_string_storage": {
        "encoding": "bytes",
        "label": "string",
        "numberOfBytes": "32"
      },
      "t_struct(AddressSet)4376_storage": {
        "encoding": "inplace",
        "label": "struct EnumerableSet.AddressSet",
        "members": [
          {
            "astId": 4375,
            "contract": "contracts/SafeNFT.sol:SafeNFT",
            "label": "_inner",
            "offset": 0,
            "slot": "0",
            "type": "t_struct(Set)4061_storage"
          }
        ],
        "numberOfBytes": "64"
      },
      "t_struct(RoleData)19_storage": {
        "encoding": "inplace",
        "label": "struct AccessControl.RoleData",
        "members": [
          {
            "astId": 16,
            "contract": "contracts/SafeNFT.sol:SafeNFT",
            "label": "members",
            "offset": 0,
            "slot": "0",
            "type": "t_mapping(t_address,t_bool)"
          },
          {
            "astId": 18,
            "contract": "contracts/SafeNFT.sol:SafeNFT",
            "label": "adminRole",
            "offset": 0,
            "slot": "1",
            "type": "t_bytes32"
          }
        ],
        "numberOfBytes": "64"
      },
      "t_struct(Set)4061_storage": {
        "encoding": "inplace",
        "label": "struct EnumerableSet.Set",
        "members": [
          {
            "astId": 4056,
            "contract": "contracts/SafeNFT.sol:SafeNFT",
            "label": "_values",
            "offset": 0,
            "slot": "0",
            "type": "t_array(t_bytes32)dyn_storage"
          },
          {
            "astId": 4060,
            "contract": "contracts/SafeNFT.sol:SafeNFT",
            "label": "_indexes",
            "offset": 0,
            "slot": "1",
            "type": "t_mapping(t_bytes32,t_uint256)"
          }
        ],
        "numberOfBytes": "64"
      },
      "t_uint256": {
        "encoding": "inplace",
        "label": "uint256",
        "numberOfBytes": "32"
      }
    }
  }
}