{
  "address": "0x766892290DDDd42c3aD4B49DC3D2365A1595588a",
  "abi": [
    {
      "inputs": [
        {
          "internalType": "string",
          "name": "_uri",
          "type": "string"
        },
        {
          "internalType": "uint256[4]",
          "name": "_price",
          "type": "uint256[4]"
        },
        {
          "internalType": "uint256[4]",
          "name": "_maxSupply",
          "type": "uint256[4]"
        },
        {
          "internalType": "contract ISafeToken",
          "name": "_safeToken",
          "type": "address"
        },
        {
          "internalType": "uint256[2]",
          "name": "_priceDistributionOnMint",
          "type": "uint256[2]"
        },
        {
          "internalType": "uint256",
          "name": "_referralShareForNFTPurchase",
          "type": "uint256"
        },
        {
          "internalType": "uint256[2]",
          "name": "_profitDistribution",
          "type": "uint256[2]"
        },
        {
          "internalType": "address",
          "name": "_stabilizerWallet",
          "type": "address"
        }
      ],
      "stateMutability": "nonpayable",
      "type": "constructor"
    },
    {
      "anonymous": false,
      "inputs": [
        {
          "indexed": true,
          "internalType": "address",
          "name": "account",
          "type": "address"
        },
        {
          "indexed": true,
          "internalType": "address",
          "name": "operator",
          "type": "address"
        },
        {
          "indexed": false,
          "internalType": "bool",
          "name": "approved",
          "type": "bool"
        }
      ],
      "name": "ApprovalForAll",
      "type": "event"
    },
    {
      "anonymous": false,
      "inputs": [
        {
          "indexed": false,
          "internalType": "address",
          "name": "account",
          "type": "address"
        }
      ],
      "name": "Paused",
      "type": "event"
    },
    {
      "anonymous": false,
      "inputs": [
        {
          "indexed": true,
          "internalType": "bytes32",
          "name": "role",
          "type": "bytes32"
        },
        {
          "indexed": true,
          "internalType": "bytes32",
          "name": "previousAdminRole",
          "type": "bytes32"
        },
        {
          "indexed": true,
          "internalType": "bytes32",
          "name": "newAdminRole",
          "type": "bytes32"
        }
      ],
      "name": "RoleAdminChanged",
      "type": "event"
    },
    {
      "anonymous": false,
      "inputs": [
        {
          "indexed": true,
          "internalType": "bytes32",
          "name": "role",
          "type": "bytes32"
        },
        {
          "indexed": true,
          "internalType": "address",
          "name": "account",
          "type": "address"
        },
        {
          "indexed": true,
          "internalType": "address",
          "name": "sender",
          "type": "address"
        }
      ],
      "name": "RoleGranted",
      "type": "event"
    },
    {
      "anonymous": false,
      "inputs": [
        {
          "indexed": true,
          "internalType": "bytes32",
          "name": "role",
          "type": "bytes32"
        },
        {
          "indexed": true,
          "internalType": "address",
          "name": "account",
          "type": "address"
        },
        {
          "indexed": true,
          "internalType": "address",
          "name": "sender",
          "type": "address"
        }
      ],
      "name": "RoleRevoked",
      "type": "event"
    },
    {
      "anonymous": false,
      "inputs": [
        {
          "indexed": false,
          "internalType": "bool",
          "name": "_status",
          "type": "bool"
        }
      ],
      "name": "TogglePresale",
      "type": "event"
    },
    {
      "anonymous": false,
      "inputs": [
        {
          "indexed": true,
          "internalType": "address",
          "name": "operator",
          "type": "address"
        },
        {
          "indexed": true,
          "internalType": "address",
          "name": "from",
          "type": "address"
        },
        {
          "indexed": true,
          "internalType": "address",
          "name": "to",
          "type": "address"
        },
        {
          "indexed": false,
          "internalType": "uint256[]",
          "name": "ids",
          "type": "uint256[]"
        },
        {
          "indexed": false,
          "internalType": "uint256[]",
          "name": "values",
          "type": "uint256[]"
        }
      ],
      "name": "TransferBatch",
      "type": "event"
    },
    {
      "anonymous": false,
      "inputs": [
        {
          "indexed": true,
          "internalType": "address",
          "name": "operator",
          "type": "address"
        },
        {
          "indexed": true,
          "internalType": "address",
          "name": "from",
          "type": "address"
        },
        {
          "indexed": true,
          "internalType": "address",
          "name": "to",
          "type": "address"
        },
        {
          "indexed": false,
          "internalType": "uint256",
          "name": "id",
          "type": "uint256"
        },
        {
          "indexed": false,
          "internalType": "uint256",
          "name": "value",
          "type": "uint256"
        }
      ],
      "name": "TransferSingle",
      "type": "event"
    },
    {
      "anonymous": false,
      "inputs": [
        {
          "indexed": false,
          "internalType": "string",
          "name": "value",
          "type": "string"
        },
        {
          "indexed": true,
          "internalType": "uint256",
          "name": "id",
          "type": "uint256"
        }
      ],
      "name": "URI",
      "type": "event"
    },
    {
      "anonymous": false,
      "inputs": [
        {
          "indexed": false,
          "internalType": "address",
          "name": "account",
          "type": "address"
        }
      ],
      "name": "Unpaused",
      "type": "event"
    },
    {
      "inputs": [],
      "name": "DEFAULT_ADMIN_ROLE",
      "outputs": [
        {
          "internalType": "bytes32",
          "name": "",
          "type": "bytes32"
        }
      ],
      "stateMutability": "view",
      "type": "function"
    },
    {
      "inputs": [],
      "name": "MINTER_ROLE",
      "outputs": [
        {
          "internalType": "bytes32",
          "name": "",
          "type": "bytes32"
        }
      ],
      "stateMutability": "view",
      "type": "function"
    },
    {
      "inputs": [],
      "name": "PAUSER_ROLE",
      "outputs": [
        {
          "internalType": "bytes32",
          "name": "",
          "type": "bytes32"
        }
      ],
      "stateMutability": "view",
      "type": "function"
    },
    {
      "inputs": [],
      "name": "TIERS",
      "outputs": [
        {
          "internalType": "uint256",
          "name": "",
          "type": "uint256"
        }
      ],
      "stateMutability": "view",
      "type": "function"
    },
    {
      "inputs": [],
      "name": "WALLETS",
      "outputs": [
        {
          "internalType": "uint256",
          "name": "",
          "type": "uint256"
        }
      ],
      "stateMutability": "view",
      "type": "function"
    },
    {
      "inputs": [],
      "name": "WEEKS",
      "outputs": [
        {
          "internalType": "uint256",
          "name": "",
          "type": "uint256"
        }
      ],
      "stateMutability": "view",
      "type": "function"
    },
    {
      "inputs": [
        {
          "internalType": "uint256",
          "name": "",
          "type": "uint256"
        },
        {
          "internalType": "uint256",
          "name": "",
          "type": "uint256"
        },
        {
          "internalType": "address",
          "name": "",
          "type": "address"
        }
      ],
      "name": "alreadyDistributedAmount",
      "outputs": [
        {
          "internalType": "uint256",
          "name": "",
          "type": "uint256"
        }
      ],
      "stateMutability": "view",
      "type": "function"
    },
    {
      "inputs": [
        {
          "internalType": "uint256",
          "name": "",
          "type": "uint256"
        },
        {
          "internalType": "uint256",
          "name": "",
          "type": "uint256"
        }
      ],
      "name": "alreadyDistributedAmountByTier",
      "outputs": [
        {
          "internalType": "uint256",
          "name": "",
          "type": "uint256"
        }
      ],
      "stateMutability": "view",
      "type": "function"
    },
    {
      "inputs": [
        {
          "internalType": "address",
          "name": "account",
          "type": "address"
        },
        {
          "internalType": "uint256",
          "name": "id",
          "type": "uint256"
        }
      ],
      "name": "balanceOf",
      "outputs": [
        {
          "internalType": "uint256",
          "name": "",
          "type": "uint256"
        }
      ],
      "stateMutability": "view",
      "type": "function"
    },
    {
      "inputs": [
        {
          "internalType": "address[]",
          "name": "accounts",
          "type": "address[]"
        },
        {
          "internalType": "uint256[]",
          "name": "ids",
          "type": "uint256[]"
        }
      ],
      "name": "balanceOfBatch",
      "outputs": [
        {
          "internalType": "uint256[]",
          "name": "",
          "type": "uint256[]"
        }
      ],
      "stateMutability": "view",
      "type": "function"
    },
    {
      "inputs": [
        {
          "internalType": "address",
          "name": "account",
          "type": "address"
        },
        {
          "internalType": "uint256",
          "name": "id",
          "type": "uint256"
        },
        {
          "internalType": "uint256",
          "name": "value",
          "type": "uint256"
        }
      ],
      "name": "burn",
      "outputs": [],
      "stateMutability": "nonpayable",
      "type": "function"
    },
    {
      "inputs": [
        {
          "internalType": "address",
          "name": "account",
          "type": "address"
        },
        {
          "internalType": "uint256[]",
          "name": "ids",
          "type": "uint256[]"
        },
        {
          "internalType": "uint256[]",
          "name": "values",
          "type": "uint256[]"
        }
      ],
      "name": "burnBatch",
      "outputs": [],
      "stateMutability": "nonpayable",
      "type": "function"
    },
    {
      "inputs": [
        {
          "internalType": "enum ISafeNFT.Tiers",
          "name": "_tier",
          "type": "uint8"
        },
        {
          "internalType": "uint256",
          "name": "_amount",
          "type": "uint256"
        },
        {
          "internalType": "address",
          "name": "_referral",
          "type": "address"
        }
      ],
      "name": "buy",
      "outputs": [],
      "stateMutability": "nonpayable",
      "type": "function"
    },
    {
      "inputs": [
        {
          "internalType": "enum ISafeNFT.Tiers",
          "name": "_tier",
          "type": "uint8"
        },
        {
          "internalType": "uint256",
          "name": "_distributionId",
          "type": "uint256"
        }
      ],
      "name": "claimReward",
      "outputs": [],
      "stateMutability": "nonpayable",
      "type": "function"
    },
    {
      "inputs": [],
      "name": "claimRewardsTotal",
      "outputs": [],
      "stateMutability": "nonpayable",
      "type": "function"
    },
    {
      "inputs": [],
      "name": "currentDistributionId",
      "outputs": [
        {
          "internalType": "uint256",
          "name": "",
          "type": "uint256"
        }
      ],
      "stateMutability": "view",
      "type": "function"
    },
    {
      "inputs": [
        {
          "internalType": "uint256",
          "name": "",
          "type": "uint256"
        }
      ],
      "name": "currentlySoldInPresale",
      "outputs": [
        {
          "internalType": "uint256",
          "name": "",
          "type": "uint256"
        }
      ],
      "stateMutability": "view",
      "type": "function"
    },
    {
      "inputs": [
        {
          "internalType": "uint256",
          "name": "_amountUSD",
          "type": "uint256"
        }
      ],
      "name": "distributeProfit",
      "outputs": [],
      "stateMutability": "nonpayable",
      "type": "function"
    },
    {
      "inputs": [
        {
          "internalType": "uint256",
          "name": "",
          "type": "uint256"
        },
        {
          "internalType": "uint256",
          "name": "",
          "type": "uint256"
        }
      ],
      "name": "distributionByTier",
      "outputs": [
        {
          "internalType": "uint256",
          "name": "",
          "type": "uint256"
        }
      ],
      "stateMutability": "view",
      "type": "function"
    },
    {
      "inputs": [
        {
          "internalType": "uint256",
          "name": "",
          "type": "uint256"
        }
      ],
      "name": "distributionOfProfit",
      "outputs": [
        {
          "internalType": "uint256",
          "name": "",
          "type": "uint256"
        }
      ],
      "stateMutability": "view",
      "type": "function"
    },
    {
      "inputs": [
        {
          "internalType": "uint256",
          "name": "",
          "type": "uint256"
        },
        {
          "internalType": "uint256",
          "name": "",
          "type": "uint256"
        }
      ],
      "name": "distributionTotalSupplySnapshot",
      "outputs": [
        {
          "internalType": "uint256",
          "name": "",
          "type": "uint256"
        }
      ],
      "stateMutability": "view",
      "type": "function"
    },
    {
      "inputs": [
        {
          "internalType": "uint256",
          "name": "id",
          "type": "uint256"
        }
      ],
      "name": "exists",
      "outputs": [
        {
          "internalType": "bool",
          "name": "",
          "type": "bool"
        }
      ],
      "stateMutability": "view",
      "type": "function"
    },
    {
      "inputs": [
        {
          "internalType": "address",
          "name": "_user",
          "type": "address"
        }
      ],
      "name": "getBalanceTable",
      "outputs": [
        {
          "internalType": "uint256[]",
          "name": "",
          "type": "uint256[]"
        }
      ],
      "stateMutability": "view",
      "type": "function"
    },
    {
      "inputs": [],
      "name": "getCurrentPresaleWeek",
      "outputs": [
        {
          "internalType": "uint256",
          "name": "",
          "type": "uint256"
        }
      ],
      "stateMutability": "view",
      "type": "function"
    },
    {
      "inputs": [],
      "name": "getDiscountedPriceTable",
      "outputs": [
        {
          "internalType": "uint256[]",
          "name": "",
          "type": "uint256[]"
        }
      ],
      "stateMutability": "view",
      "type": "function"
    },
    {
      "inputs": [
        {
          "internalType": "enum ISafeNFT.Tiers",
          "name": "_tier",
          "type": "uint8"
        }
      ],
      "name": "getFairPrice",
      "outputs": [
        {
          "internalType": "uint256",
          "name": "",
          "type": "uint256"
        }
      ],
      "stateMutability": "view",
      "type": "function"
    },
    {
      "inputs": [],
      "name": "getFairPriceTable",
      "outputs": [
        {
          "internalType": "uint256[]",
          "name": "",
          "type": "uint256[]"
        }
      ],
      "stateMutability": "view",
      "type": "function"
    },
    {
      "inputs": [],
      "name": "getMyBalanceTable",
      "outputs": [
        {
          "internalType": "uint256[]",
          "name": "",
          "type": "uint256[]"
        }
      ],
      "stateMutability": "view",
      "type": "function"
    },
    {
      "inputs": [],
      "name": "getMyPendingRewardsTotal",
      "outputs": [
        {
          "internalType": "uint256",
          "name": "",
          "type": "uint256"
        }
      ],
      "stateMutability": "view",
      "type": "function"
    },
    {
      "inputs": [],
      "name": "getMyShareOfTreasury",
      "outputs": [
        {
          "internalType": "uint256",
          "name": "",
          "type": "uint256"
        }
      ],
      "stateMutability": "view",
      "type": "function"
    },
    {
      "inputs": [
        {
          "internalType": "address",
          "name": "_user",
          "type": "address"
        },
        {
          "internalType": "enum ISafeNFT.Tiers",
          "name": "_tier",
          "type": "uint8"
        },
        {
          "internalType": "uint256",
          "name": "_distributionId",
          "type": "uint256"
        }
      ],
      "name": "getPendingRewards",
      "outputs": [
        {
          "internalType": "uint256",
          "name": "",
          "type": "uint256"
        }
      ],
      "stateMutability": "view",
      "type": "function"
    },
    {
      "inputs": [
        {
          "internalType": "enum ISafeNFT.Tiers",
          "name": "_tier",
          "type": "uint8"
        }
      ],
      "name": "getPrice",
      "outputs": [
        {
          "internalType": "uint256",
          "name": "",
          "type": "uint256"
        }
      ],
      "stateMutability": "view",
      "type": "function"
    },
    {
      "inputs": [],
      "name": "getPriceTable",
      "outputs": [
        {
          "internalType": "uint256[]",
          "name": "",
          "type": "uint256[]"
        }
      ],
      "stateMutability": "view",
      "type": "function"
    },
    {
      "inputs": [
        {
          "internalType": "bytes32",
          "name": "role",
          "type": "bytes32"
        }
      ],
      "name": "getRoleAdmin",
      "outputs": [
        {
          "internalType": "bytes32",
          "name": "",
          "type": "bytes32"
        }
      ],
      "stateMutability": "view",
      "type": "function"
    },
    {
      "inputs": [
        {
          "internalType": "bytes32",
          "name": "role",
          "type": "bytes32"
        },
        {
          "internalType": "uint256",
          "name": "index",
          "type": "uint256"
        }
      ],
      "name": "getRoleMember",
      "outputs": [
        {
          "internalType": "address",
          "name": "",
          "type": "address"
        }
      ],
      "stateMutability": "view",
      "type": "function"
    },
    {
      "inputs": [
        {
          "internalType": "bytes32",
          "name": "role",
          "type": "bytes32"
        }
      ],
      "name": "getRoleMemberCount",
      "outputs": [
        {
          "internalType": "uint256",
          "name": "",
          "type": "uint256"
        }
      ],
      "stateMutability": "view",
      "type": "function"
    },
    {
      "inputs": [],
      "name": "getTotalSupplyAllTiers",
      "outputs": [
        {
          "internalType": "uint256",
          "name": "",
          "type": "uint256"
        }
      ],
      "stateMutability": "view",
      "type": "function"
    },
    {
      "inputs": [],
      "name": "getTreasuryCost",
      "outputs": [
        {
          "internalType": "uint256",
          "name": "",
          "type": "uint256"
        }
      ],
      "stateMutability": "view",
      "type": "function"
    },
    {
      "inputs": [],
      "name": "getUnclaimedRewards",
      "outputs": [
        {
          "internalType": "uint256",
          "name": "",
          "type": "uint256"
        }
      ],
      "stateMutability": "view",
      "type": "function"
    },
    {
      "inputs": [
        {
          "internalType": "bytes32",
          "name": "role",
          "type": "bytes32"
        },
        {
          "internalType": "address",
          "name": "account",
          "type": "address"
        }
      ],
      "name": "grantRole",
      "outputs": [],
      "stateMutability": "nonpayable",
      "type": "function"
    },
    {
      "inputs": [
        {
          "internalType": "bytes32",
          "name": "role",
          "type": "bytes32"
        },
        {
          "internalType": "address",
          "name": "account",
          "type": "address"
        }
      ],
      "name": "hasRole",
      "outputs": [
        {
          "internalType": "bool",
          "name": "",
          "type": "bool"
        }
      ],
      "stateMutability": "view",
      "type": "function"
    },
    {
      "inputs": [
        {
          "internalType": "string",
          "name": "_uri",
          "type": "string"
        },
        {
          "internalType": "uint256[4]",
          "name": "_price",
          "type": "uint256[4]"
        },
        {
          "internalType": "uint256[4]",
          "name": "_maxSupply",
          "type": "uint256[4]"
        },
        {
          "internalType": "contract ISafeToken",
          "name": "_safeToken",
          "type": "address"
        },
        {
          "internalType": "uint256[2]",
          "name": "_priceDistributionOnMint",
          "type": "uint256[2]"
        },
        {
          "internalType": "uint256",
          "name": "_referralShareForNFTPurchase",
          "type": "uint256"
        },
        {
          "internalType": "uint256[2]",
          "name": "_profitDistribution",
          "type": "uint256[2]"
        },
        {
          "internalType": "address",
          "name": "_stabilizerWallet",
          "type": "address"
        }
      ],
      "name": "initialize",
      "outputs": [],
      "stateMutability": "nonpayable",
      "type": "function"
    },
    {
      "inputs": [
        {
          "internalType": "address",
          "name": "account",
          "type": "address"
        },
        {
          "internalType": "address",
          "name": "operator",
          "type": "address"
        }
      ],
      "name": "isApprovedForAll",
      "outputs": [
        {
          "internalType": "bool",
          "name": "",
          "type": "bool"
        }
      ],
      "stateMutability": "view",
      "type": "function"
    },
    {
      "inputs": [
        {
          "internalType": "uint256",
          "name": "",
          "type": "uint256"
        }
      ],
      "name": "maxSupply",
      "outputs": [
        {
          "internalType": "uint256",
          "name": "",
          "type": "uint256"
        }
      ],
      "stateMutability": "view",
      "type": "function"
    },
    {
      "inputs": [
        {
          "internalType": "address",
          "name": "to",
          "type": "address"
        },
        {
          "internalType": "uint256",
          "name": "id",
          "type": "uint256"
        },
        {
          "internalType": "uint256",
          "name": "amount",
          "type": "uint256"
        },
        {
          "internalType": "bytes",
          "name": "data",
          "type": "bytes"
        }
      ],
      "name": "mint",
      "outputs": [],
      "stateMutability": "nonpayable",
      "type": "function"
    },
    {
      "inputs": [
        {
          "internalType": "address",
          "name": "to",
          "type": "address"
        },
        {
          "internalType": "uint256[]",
          "name": "ids",
          "type": "uint256[]"
        },
        {
          "internalType": "uint256[]",
          "name": "amounts",
          "type": "uint256[]"
        },
        {
          "internalType": "bytes",
          "name": "data",
          "type": "bytes"
        }
      ],
      "name": "mintBatch",
      "outputs": [],
      "stateMutability": "nonpayable",
      "type": "function"
    },
    {
      "inputs": [],
      "name": "name",
      "outputs": [
        {
          "internalType": "string",
          "name": "",
          "type": "string"
        }
      ],
      "stateMutability": "view",
      "type": "function"
    },
    {
      "inputs": [],
      "name": "pause",
      "outputs": [],
      "stateMutability": "nonpayable",
      "type": "function"
    },
    {
      "inputs": [],
      "name": "paused",
      "outputs": [
        {
          "internalType": "bool",
          "name": "",
          "type": "bool"
        }
      ],
      "stateMutability": "view",
      "type": "function"
    },
    {
      "inputs": [],
      "name": "presale",
      "outputs": [
        {
          "internalType": "bool",
          "name": "",
          "type": "bool"
        }
      ],
      "stateMutability": "view",
      "type": "function"
    },
    {
      "inputs": [
        {
          "internalType": "uint256",
          "name": "",
          "type": "uint256"
        }
      ],
      "name": "presaleMaxSupply",
      "outputs": [
        {
          "internalType": "uint256",
          "name": "",
          "type": "uint256"
        }
      ],
      "stateMutability": "view",
      "type": "function"
    },
    {
      "inputs": [
        {
          "internalType": "uint256",
          "name": "",
          "type": "uint256"
        },
        {
          "internalType": "uint256",
          "name": "",
          "type": "uint256"
        }
      ],
      "name": "presalePrice",
      "outputs": [
        {
          "internalType": "uint256",
          "name": "",
          "type": "uint256"
        }
      ],
      "stateMutability": "view",
      "type": "function"
    },
    {
      "inputs": [],
      "name": "presaleStartDate",
      "outputs": [
        {
          "internalType": "uint256",
          "name": "",
          "type": "uint256"
        }
      ],
      "stateMutability": "view",
      "type": "function"
    },
    {
      "inputs": [
        {
          "internalType": "uint256",
          "name": "",
          "type": "uint256"
        }
      ],
      "name": "price",
      "outputs": [
        {
          "internalType": "uint256",
          "name": "",
          "type": "uint256"
        }
      ],
      "stateMutability": "view",
      "type": "function"
    },
    {
      "inputs": [
        {
          "internalType": "uint256",
          "name": "",
          "type": "uint256"
        }
      ],
      "name": "priceDistributionOnMint",
      "outputs": [
        {
          "internalType": "uint256",
          "name": "",
          "type": "uint256"
        }
      ],
      "stateMutability": "view",
      "type": "function"
    },
    {
      "inputs": [
        {
          "internalType": "uint256",
          "name": "",
          "type": "uint256"
        }
      ],
      "name": "profitDistribution",
      "outputs": [
        {
          "internalType": "uint256",
          "name": "",
          "type": "uint256"
        }
      ],
      "stateMutability": "view",
      "type": "function"
    },
    {
      "inputs": [],
      "name": "referralShareForNFTPurchase",
      "outputs": [
        {
          "internalType": "uint256",
          "name": "",
          "type": "uint256"
        }
      ],
      "stateMutability": "view",
      "type": "function"
    },
    {
      "inputs": [
        {
          "internalType": "bytes32",
          "name": "role",
          "type": "bytes32"
        },
        {
          "internalType": "address",
          "name": "account",
          "type": "address"
        }
      ],
      "name": "renounceRole",
      "outputs": [],
      "stateMutability": "nonpayable",
      "type": "function"
    },
    {
      "inputs": [
        {
          "internalType": "bytes32",
          "name": "role",
          "type": "bytes32"
        },
        {
          "internalType": "address",
          "name": "account",
          "type": "address"
        }
      ],
      "name": "revokeRole",
      "outputs": [],
      "stateMutability": "nonpayable",
      "type": "function"
    },
    {
      "inputs": [
        {
          "internalType": "address",
          "name": "from",
          "type": "address"
        },
        {
          "internalType": "address",
          "name": "to",
          "type": "address"
        },
        {
          "internalType": "uint256[]",
          "name": "ids",
          "type": "uint256[]"
        },
        {
          "internalType": "uint256[]",
          "name": "amounts",
          "type": "uint256[]"
        },
        {
          "internalType": "bytes",
          "name": "data",
          "type": "bytes"
        }
      ],
      "name": "safeBatchTransferFrom",
      "outputs": [],
      "stateMutability": "nonpayable",
      "type": "function"
    },
    {
      "inputs": [],
      "name": "safeToken",
      "outputs": [
        {
          "internalType": "contract ISafeToken",
          "name": "",
          "type": "address"
        }
      ],
      "stateMutability": "view",
      "type": "function"
    },
    {
      "inputs": [
        {
          "internalType": "address",
          "name": "from",
          "type": "address"
        },
        {
          "internalType": "address",
          "name": "to",
          "type": "address"
        },
        {
          "internalType": "uint256",
          "name": "id",
          "type": "uint256"
        },
        {
          "internalType": "uint256",
          "name": "amount",
          "type": "uint256"
        },
        {
          "internalType": "bytes",
          "name": "data",
          "type": "bytes"
        }
      ],
      "name": "safeTransferFrom",
      "outputs": [],
      "stateMutability": "nonpayable",
      "type": "function"
    },
    {
      "inputs": [],
      "name": "safeVault",
      "outputs": [
        {
          "internalType": "contract ISafeVault",
          "name": "",
          "type": "address"
        }
      ],
      "stateMutability": "view",
      "type": "function"
    },
    {
      "inputs": [
        {
          "internalType": "address",
          "name": "operator",
          "type": "address"
        },
        {
          "internalType": "bool",
          "name": "approved",
          "type": "bool"
        }
      ],
      "name": "setApprovalForAll",
      "outputs": [],
      "stateMutability": "nonpayable",
      "type": "function"
    },
    {
      "inputs": [
        {
          "internalType": "uint256[][]",
          "name": "_presalePrice",
          "type": "uint256[][]"
        }
      ],
      "name": "setDiscountedPriceTable",
      "outputs": [],
      "stateMutability": "nonpayable",
      "type": "function"
    },
    {
      "inputs": [
        {
          "internalType": "uint256[4]",
          "name": "_presaleMaxSupply",
          "type": "uint256[4]"
        }
      ],
      "name": "setPresaleMaxSupply",
      "outputs": [],
      "stateMutability": "nonpayable",
      "type": "function"
    },
    {
      "inputs": [
        {
          "internalType": "uint256",
          "name": "_launchDate",
          "type": "uint256"
        }
      ],
      "name": "setPresaleStartDate",
      "outputs": [],
      "stateMutability": "nonpayable",
      "type": "function"
    },
    {
      "inputs": [
        {
          "internalType": "address",
          "name": "",
          "type": "address"
        },
        {
          "internalType": "uint256",
          "name": "",
          "type": "uint256"
        },
        {
          "internalType": "uint256",
          "name": "",
          "type": "uint256"
        }
      ],
      "name": "soldPerPresaleWeek",
      "outputs": [
        {
          "internalType": "uint256",
          "name": "",
          "type": "uint256"
        }
      ],
      "stateMutability": "view",
      "type": "function"
    },
    {
      "inputs": [],
      "name": "stabilizerWallet",
      "outputs": [
        {
          "internalType": "address",
          "name": "",
          "type": "address"
        }
      ],
      "stateMutability": "view",
      "type": "function"
    },
    {
      "inputs": [
        {
          "internalType": "bytes4",
          "name": "interfaceId",
          "type": "bytes4"
        }
      ],
      "name": "supportsInterface",
      "outputs": [
        {
          "internalType": "bool",
          "name": "",
          "type": "bool"
        }
      ],
      "stateMutability": "view",
      "type": "function"
    },
    {
      "inputs": [],
      "name": "togglePresale",
      "outputs": [],
      "stateMutability": "nonpayable",
      "type": "function"
    },
    {
      "inputs": [
        {
          "internalType": "uint256",
          "name": "id",
          "type": "uint256"
        }
      ],
      "name": "totalSupply",
      "outputs": [
        {
          "internalType": "uint256",
          "name": "",
          "type": "uint256"
        }
      ],
      "stateMutability": "view",
      "type": "function"
    },
    {
      "inputs": [],
      "name": "unpause",
      "outputs": [],
      "stateMutability": "nonpayable",
      "type": "function"
    },
    {
      "inputs": [
        {
          "internalType": "uint256",
          "name": "",
          "type": "uint256"
        }
      ],
      "name": "uri",
      "outputs": [
        {
          "internalType": "string",
          "name": "",
          "type": "string"
        }
      ],
      "stateMutability": "view",
      "type": "function"
    },
    {
      "inputs": [],
      "name": "usd",
      "outputs": [
        {
          "internalType": "contract IERC20",
          "name": "",
          "type": "address"
        }
      ],
      "stateMutability": "view",
      "type": "function"
    },
    {
      "inputs": [
        {
          "internalType": "uint256",
          "name": "",
          "type": "uint256"
        }
      ],
      "name": "wallets",
      "outputs": [
        {
          "internalType": "address",
          "name": "",
          "type": "address"
        }
      ],
      "stateMutability": "view",
      "type": "function"
    }
  ],
  "transactionHash": "0x87f530416eb5366a926a640a6cf712227b733027851c1b73c9a1ad8a97427088",
  "args": [
    "",
    [
      "131250000",
      "262500000",
      "525000000",
      "1050000000"
    ],
    [
      2000,
      1000,
      1000,
      1000
    ],
    "0xF3c420B081422C51533150664Fc8F2fb77E39296",
    [
      70000000,
      20000000
    ],
    5000000,
    [
      25000000,
      20000000
    ],
    "0x9F397Baa90A0968E87351Ed7D45797EDF9f9037F"
  ],
  "numDeployments": 8,
  "solcInputHash": "071fee656a9e81dbc08d6d836cbdca5a",
  "bytecode": "0x60806040523480156200001157600080fd5b5060405162006baa38038062006baa8339810160408190526200003491620008af565b87806200004181620000b5565b506007805460ff1916905562000059600033620000c7565b6200007460008051602062006b8a83398151915233620000c7565b6200008f60008051602062006b6a83398151915233620000c7565b506001600955620000a78888888888888888620000d3565b505050505050505062000bf4565b6006620000c3828262000a76565b5050565b620000c382826200050e565b6000620000ed60008051602062006b4a8339815191525490565b90506001600160a01b0381166200011d576001600160a01b0360008051602062006b4a8339815191525562000133565b336001600160a01b038216146200013357600080fd5b6200013e89620000b5565b6200014b600033620000c7565b6200016660008051602062006b8a83398151915233620000c7565b6200018160008051602062006b6a83398151915233620000c7565b62000190600a89600462000671565b50620001a0601e88600462000671565b50602380546001600160a01b0319166001600160a01b038816179055620001cb6026866002620006b4565b50602a849055620001e06028846002620006b4565b50602b80546001600160a01b0319166001600160a01b03848116919091179091556023546040805163db7a460560e01b815281516200027394939093169263db7a4605926004808401939192918290030181865afa15801562000247573d6000803e3d6000fd5b505050506040513d601f19601f820116820180604052508101906200026d919062000b42565b62000551565b602360009054906101000a90046001600160a01b03166001600160a01b031663deef94de6040518163ffffffff1660e01b8152600401602060405180830381865afa158015620002c7573d6000803e3d6000fd5b505050506040513d601f19601f82011682018060405250810190620002ed919062000ba9565b602480546001600160a01b0319166001600160a01b039283161790556023546040805163d63a6ccd60e01b81529051919092169163d63a6ccd9160048083019260209291908290030181865afa1580156200034c573d6000803e3d6000fd5b505050506040513d601f19601f8201168201806040525081019062000372919062000ba9565b602580546001600160a01b0319166001600160a01b0392831690811790915560235460405163095ea7b360e01b81529216600483015260001960248301529063095ea7b3906044016020604051808303816000875af1158015620003da573d6000803e3d6000fd5b505050506040513d601f19601f8201168201806040525081019062000400919062000bd0565b506025546024805460405163095ea7b360e01b81526001600160a01b039182166004820152600019928101929092529091169063095ea7b3906044016020604051808303816000875af11580156200045c573d6000803e3d6000fd5b505050506040513d601f19601f8201168201806040525081019062000482919062000bd0565b5060235460405163095ea7b360e01b81526001600160a01b039091166004820181905260001960248301529063095ea7b3906044016020604051808303816000875af1158015620004d7573d6000803e3d6000fd5b505050506040513d601f19601f82011682018060405250810190620004fd919062000bd0565b505060006035555050505050505050565b6200052582826200055f60201b62002fbe1760201c565b60008281526001602090815260409091206200054c91839062003042620005ff821b17901c565b505050565b620000c360028281620006e4565b6000828152602081815260408083206001600160a01b038516845290915290205460ff16620000c3576000828152602081815260408083206001600160a01b03851684529091529020805460ff19166001179055620005bb3390565b6001600160a01b0316816001600160a01b0316837f2f8788117e7eff1d82e926ec794901d17c78024a50270940304540a733656f0d60405160405180910390a45050565b600062000616836001600160a01b0384166200061f565b90505b92915050565b6000818152600183016020526040812054620006685750815460018181018455600084815260208082209093018490558454848252828601909352604090209190915562000619565b50600062000619565b8260048101928215620006a2579160200282015b82811115620006a257825182559160200191906001019062000685565b50620006b09291506200072f565b5090565b8260028101928215620006a25791602002820182811115620006a257825182559160200191906001019062000685565b8260028101928215620006a2579160200282015b82811115620006a257825182546001600160a01b0319166001600160a01b03909116178255602090920191600190910190620006f8565b5b80821115620006b0576000815560010162000730565b634e487b7160e01b600052604160045260246000fd5b604080519081016001600160401b038111828210171562000781576200078162000746565b60405290565b604051601f8201601f191681016001600160401b0381118282101715620007b257620007b262000746565b604052919050565b600082601f830112620007cc57600080fd5b604051608081016001600160401b0381118282101715620007f157620007f162000746565b6040528060808401858111156200080757600080fd5b845b818110156200082357805183526020928301920162000809565b509195945050505050565b6001600160a01b03811681146200084457600080fd5b50565b805162000854816200082e565b919050565b600082601f8301126200086b57600080fd5b620008756200075c565b8060408401858111156200088857600080fd5b845b81811015620008a45780518452602093840193016200088a565b509095945050505050565b600080600080600080600080610200898b031215620008cd57600080fd5b88516001600160401b0380821115620008e557600080fd5b818b0191508b601f830112620008fa57600080fd5b8151818111156200090f576200090f62000746565b6020915062000927601f8201601f1916830162000787565b8181528d838386010111156200093c57600080fd5b60005b828110156200095c5784810184015182820185015283016200093f565b506000838383010152809b505050620009788c828d01620007ba565b985050506200098b8a60a08b01620007ba565b95506200099c6101208a0162000847565b9450620009ae8a6101408b0162000859565b93506101808901519250620009c88a6101a08b0162000859565b9150620009d96101e08a0162000847565b90509295985092959890939650565b600181811c90821680620009fd57607f821691505b60208210810362000a1e57634e487b7160e01b600052602260045260246000fd5b50919050565b601f8211156200054c57600081815260208120601f850160051c8101602086101562000a4d5750805b601f850160051c820191505b8181101562000a6e5782815560010162000a59565b505050505050565b81516001600160401b0381111562000a925762000a9262000746565b62000aaa8162000aa38454620009e8565b8462000a24565b602080601f83116001811462000ae2576000841562000ac95750858301515b600019600386901b1c1916600185901b17855562000a6e565b600085815260208120601f198616915b8281101562000b135788860151825594840194600190910190840162000af2565b508582101562000b325787850151600019600388901b60f8161c191681555b5050505050600190811b01905550565b60006040828403121562000b5557600080fd5b82601f83011262000b6557600080fd5b62000b6f6200075c565b80604084018581111562000b8257600080fd5b845b81811015620008a457805162000b9a816200082e565b84526020938401930162000b84565b60006020828403121562000bbc57600080fd5b815162000bc9816200082e565b9392505050565b60006020828403121562000be357600080fd5b8151801515811462000bc957600080fd5b615f468062000c046000396000f3fe608060405234801561001057600080fd5b50600436106104525760003560e01c80636b20c45411610241578063ca7b24471161013b578063df71da76116100c3578063f242432a11610087578063f242432a146109e0578063f3430a16146109f3578063f5298aca14610a06578063fd18a25314610a19578063fdea8e0b14610a2c57600080fd5b8063df71da761461094f578063e63ab1e914610962578063e985e9c514610989578063f03f1e51146109c5578063f0b2df89146109cd57600080fd5b8063d36dfac81161010a578063d36dfac8146108dc578063d5391393146108ef578063d547741f14610916578063d63a6ccd14610929578063deef94de1461093c57600080fd5b8063ca7b24471461087d578063ced79ce014610890578063d0d5a1ba146108c1578063d36122b8146108d457600080fd5b80638456cb59116101c9578063a1f5c2391161018d578063a1f5c23914610827578063a217fddf1461082f578063a22cb46514610837578063bd85b0391461084a578063ca15c8731461086a57600080fd5b80638456cb59146107de578063869f7594146107e65780638d3bd55b146107f95780639010d07c1461080157806391d148541461081457600080fd5b8063780069e011610210578063780069e0146107805780637ad71f72146107895780637dfe59141461079c5780637e93391a146107cd57806380a3a783146107d557600080fd5b80636b20c454146107525780636d6689ea146107655780636e748f9714610765578063731133e91461076d57600080fd5b80632eb2c2d6116103525780634b3fd05a116102da57806353f7ffd21161029e57806353f7ffd2146106fb578063592fa65e1461070e5780635c975abb146107215780635e95b4fe1461072c5780636ac600681461073f57600080fd5b80634b3fd05a146106985780634e1273f4146106ab5780634f558e79146106be57806351ba5b44146106e057806352a1ad54146106e857600080fd5b806337f1e7f21161032157806337f1e7f2146106445780633f4ba83a14610657578063418f7c511461065f57806342e0f792146106725780634407a61e1461068557600080fd5b80632eb2c2d6146106035780632f2ff15d14610616578063343937431461062957806336568abe1461063157600080fd5b8063104304f3116103e05780631f7fdffa116103a45780631f7fdffa1461059d57806323f77fa9146105b2578063248a9ca3146105c557806326a49e37146105e85780632c13f08c146105fb57600080fd5b8063104304f3146105505780631623025714610565578063168affdf1461056d5780631729c14f1461058d5780631a5e85e51461059557600080fd5b806304ca4c071161042757806304ca4c07146104bc57806305adca38146104cf57806306fdde03146104d75780630b0b73d2146105125780630e89341c1461053d57600080fd5b8062a13c4c14610457578062fdd58e1461047357806301ffc9a71461048657806303b2add0146104a9575b600080fd5b610460602a5481565b6040519081526020015b60405180910390f35b610460610481366004614ce8565b610a40565b610499610494366004614d2a565b610adb565b604051901515815260200161046a565b6104606104b7366004614d47565b610ae6565b6104606104ca366004614d60565b610afd565b610460610b22565b6105056040518060400160405280600f81526020016e14d8599948165a595b191cc8139195608a1b81525081565b60405161046a9190614dd2565b602b54610525906001600160a01b031681565b6040516001600160a01b03909116815260200161046a565b61050561054b366004614d47565b610ba3565b610558610c37565b60405161046a9190614e20565b610460610cb4565b61046061057b366004614d47565b60366020526000908152604090205481565b610558610d4b565b610460610dea565b6105b06105ab366004614fab565b610e25565b005b6105586105c0366004615045565b610e7d565b6104606105d3366004614d47565b60009081526020819052604090206001015490565b6104606105f6366004614d47565b610ee9565b610558610ef9565b6105b0610611366004615062565b610f70565b6105b061062436600461510f565b610fbc565b6105b0610fe6565b6105b061063f36600461510f565b611073565b610460610652366004615153565b6110f1565b6105b061111f565b61046061066d36600461516e565b6111c5565b6105b0610680366004614d47565b611292565b6105b06106933660046151ac565b6112be565b602354610525906001600160a01b031681565b6105586106b9366004615267565b61143a565b6104996106cc366004614d47565b600090815260086020526040902054151590565b610460611563565b6104606106f6366004614d60565b6115e6565b6105b0610709366004615333565b611608565b61046061071c366004614d60565b61170c565b60075460ff16610499565b61046061073a366004614d60565b611728565b6105b061074d3660046153eb565b611744565b6105b06107603660046154b8565b611b9b565b610460600481565b6105b061077b36600461552d565b611bde565b61046060355481565b610525610797366004614d47565b611c30565b6104606107aa366004615583565b602c60209081526000938452604080852082529284528284209052825290205481565b610460611c50565b61046060225481565b6105b0611de9565b6104606107f4366004614d47565b611e8d565b610460600281565b61052561080f366004614d60565b611e9d565b61049961082236600461510f565b611ebc565b610558611ee5565b610460600081565b6105b06108453660046155c6565b611ef7565b610460610858366004614d47565b60009081526008602052604090205490565b610460610878366004614d47565b611f02565b61046061088b366004614d47565b611f19565b61046061089e3660046155f4565b603960209081526000938452604080852082529284528284209052825290205481565b6105b06108cf36600461562d565b611f29565b6105b06129a1565b6105b06108ea366004614d47565b612a0c565b6104607f9f2df0fed2c77648de5860a4cc508cd0818c85b8b8a1ab4ceeef8d981c8956a681565b6105b061092436600461510f565b612dad565b602554610525906001600160a01b031681565b602454610525906001600160a01b031681565b61046061095d366004614d47565b612dd2565b6104607f65d7a28e3265b37a6474929f336521b332c1681b933f6cb9f3376673440d862a81565b610499610997366004615662565b6001600160a01b03918216600090815260056020908152604080832093909416825291909152205460ff1690565b610460612de2565b6104606109db366004615153565b612e4a565b6105b06109ee366004615690565b612ef2565b6105b0610a013660046156f8565b612f37565b6105b0610a14366004615583565b612f6b565b610460610a27366004614d47565b612fae565b602b5461049990600160a01b900460ff1681565b60006001600160a01b038316610ab05760405162461bcd60e51b815260206004820152602a60248201527f455243313135353a2061646472657373207a65726f206973206e6f742061207660448201526930b634b21037bbb732b960b11b60648201526084015b60405180910390fd5b5060008181526004602090815260408083206001600160a01b03861684529091529020545b92915050565b6000610ad582613057565b60318160048110610af657600080fd5b0154905081565b60376020528160005260406000208160048110610b1957600080fd5b01549150829050565b602b54600090600160a01b900460ff168015610b4057506000602254115b610b825760405162461bcd60e51b8152602060048201526013602482015272141c995cd85b19481b9bdd081cdd185c9d1959606a1b6044820152606401610aa7565b62093a8060225442610b94919061572a565b610b9e919061573d565b905090565b606060068054610bb29061575f565b80601f0160208091040260200160405190810160405280929190818152602001828054610bde9061575f565b8015610c2b5780601f10610c0057610100808354040283529160200191610c2b565b820191906000526020600020905b815481529060010190602001808311610c0e57829003601f168201915b50505050509050919050565b60408051600480825260a08201909252606091600091906020820160808036833701905050905060005b6004811015610cae57600a8160048110610c7d57610c7d615793565b0154828281518110610c9157610c91615793565b602090810291909101015280610ca6816157a9565b915050610c61565b50919050565b600080805b6004811015610cae5760005b6035548111610d38576000818152603a602052604090208260048110610ced57610ced615793565b015460008281526037602052604090208360048110610d0e57610d0e615793565b0154610d1a919061572a565b610d2490846157c2565b925080610d30816157a9565b915050610cc5565b5080610d43816157a9565b915050610cb9565b60606000610d57610b22565b60408051600480825260a08201909252919250600091906020820160808036833701905050905060005b6004811015610de357600e8360048110610d9d57610d9d615793565b600402018160048110610db257610db2615793565b0154828281518110610dc657610dc6615793565b602090810291909101015280610ddb816157a9565b915050610d81565b5092915050565b600080805b6004811015610cae57600081815260086020526040902054610e1190836157c2565b915080610e1d816157a9565b915050610def565b610e4f7f9f2df0fed2c77648de5860a4cc508cd0818c85b8b8a1ab4ceeef8d981c8956a633611ebc565b610e6b5760405162461bcd60e51b8152600401610aa7906157d5565b610e7784848484613062565b50505050565b60408051600480825260a08201909252606091600091906020820160808036833701905050905060005b6004811015610de357610eba8482610a40565b828281518110610ecc57610ecc615793565b602090810291909101015280610ee1816157a9565b915050610ea7565b600a8160048110610af657600080fd5b60408051600480825260a08201909252606091600091906020820160808036833701905050905060005b6004811015610cae57610f418160038111156109db576109db615832565b828281518110610f5357610f53615793565b602090810291909101015280610f68816157a9565b915050610f23565b6001600160a01b038516331480610f8c5750610f8c8533610997565b610fa85760405162461bcd60e51b8152600401610aa790615848565b610fb585858585856131cc565b5050505050565b600082815260208190526040902060010154610fd781613387565b610fe18383613391565b505050565b610ff1600033611ebc565b61100d5760405162461bcd60e51b8152600401610aa790615896565b602b805460ff600160a01b808304821615810260ff60a01b1990931692909217928390556040517f512e257b3133a95bd1fef520dafc0dfb212f406af4f808d030e788c8ff536c04936110699390049091161515815260200190565b60405180910390a1565b6001600160a01b03811633146110e35760405162461bcd60e51b815260206004820152602f60248201527f416363657373436f6e74726f6c3a2063616e206f6e6c792072656e6f756e636560448201526e103937b632b9903337b91039b2b63360891b6064820152608401610aa7565b6110ed82826133b3565b5050565b6000600a82600381111561110757611107615832565b6004811061111757611117615793565b015492915050565b6111497f65d7a28e3265b37a6474929f336521b332c1681b933f6cb9f3376673440d862a33611ebc565b6111bb5760405162461bcd60e51b815260206004820152603b60248201527f455243313135355072657365744d696e7465725061757365723a206d7573742060448201527f686176652070617573657220726f6c6520746f20756e706175736500000000006064820152608401610aa7565b6111c36133d5565b565b6000808360038111156111da576111da615832565b603554600090815260376020526040812091925090826004811061120057611200615793565b0154600083815260086020526040812054919250901561124c576000838152600860205260409020546112338885610a40565b61123d90846158e5565b611247919061573d565b61124f565b60005b600086815260396020908152604080832087845282528083206001600160a01b038c168452909152902054909150611287908261572a565b979650505050505050565b61129d600033611ebc565b6112b95760405162461bcd60e51b8152600401610aa790615896565b602255565b6112c9600033611ebc565b6112e55760405162461bcd60e51b8152600401610aa790615896565b60048151146113365760405162461bcd60e51b815260206004820152601960248201527f496e636f7272656374206e756d626572206f66207765656b73000000000000006044820152606401610aa7565b60005b60048110156110ed57600482828151811061135657611356615793565b602002602001015151146113ac5760405162461bcd60e51b815260206004820152601960248201527f496e636f7272656374206e756d626572206f66207469657273000000000000006044820152606401610aa7565b60005b6004811015611427578282815181106113ca576113ca615793565b602002602001015181815181106113e3576113e3615793565b6020026020010151600e83600481106113fe576113fe615793565b60040201826004811061141357611413615793565b01558061141f816157a9565b9150506113af565b5080611432816157a9565b915050611339565b6060815183511461149f5760405162461bcd60e51b815260206004820152602960248201527f455243313135353a206163636f756e747320616e6420696473206c656e677468604482015268040dad2e6dac2e8c6d60bb1b6064820152608401610aa7565b600083516001600160401b038111156114ba576114ba614e33565b6040519080825280602002602001820160405280156114e3578160200160208202803683370190505b50905060005b845181101561155b5761152e85828151811061150757611507615793565b602002602001015185838151811061152157611521615793565b6020026020010151610a40565b82828151811061154057611540615793565b6020908102919091010152611554816157a9565b90506114e9565b509392505050565b60003381805b60048110156115b957600a816004811061158557611585615793565b01546115918483610a40565b61159b91906158e5565b6115a590836157c2565b9150806115b1816157a9565b915050611569565b5060006115c4611c50565b905080156115db576115d6818361573d565b6115de565b60005b935050505090565b600e82600481106115f657600080fd5b600402018160048110610b1957600080fd5b611610613422565b33600061161e8285856111c5565b60255460405163a9059cbb60e01b81526001600160a01b0385811660048301526024820184905292935091169063a9059cbb906044016020604051808303816000875af1158015611673573d6000803e3d6000fd5b505050506040513d601f19601f8201168201806040525081019061169791906158fc565b50600083815260396020526040812082918660038111156116ba576116ba615832565b81526020019081526020016000206000846001600160a01b03166001600160a01b0316815260200190815260200160002060008282546116fa91906157c2565b90915550506001600955506110ed9050565b603a6020528160005260406000208160048110610b1957600080fd5b60386020528160005260406000208160048110610b1957600080fd5b600061176e7fb53127684a568b3173ae13b9f8a6016e243e63b6e8ee1178d6a717850b5d61035490565b90506001600160a01b0381166117ad576001600160a01b037fb53127684a568b3173ae13b9f8a6016e243e63b6e8ee1178d6a717850b5d6103556117c2565b336001600160a01b038216146117c257600080fd5b6117cb8961347b565b6117d6600033613487565b6118007f9f2df0fed2c77648de5860a4cc508cd0818c85b8b8a1ab4ceeef8d981c8956a633613487565b61182a7f65d7a28e3265b37a6474929f336521b332c1681b933f6cb9f3376673440d862a33613487565b611837600a896004614c0b565b50611845601e886004614c0b565b50602380546001600160a01b0319166001600160a01b03881617905561186e6026866002614c49565b50602a8490556118816028846002614c49565b50602b80546001600160a01b0319166001600160a01b03848116919091179091556023546040805163db7a460560e01b8152815161190f94939093169263db7a4605926004808401939192918290030181865afa1580156118e6573d6000803e3d6000fd5b505050506040513d601f19601f8201168201806040525081019061190a9190615919565b613491565b602360009054906101000a90046001600160a01b03166001600160a01b031663deef94de6040518163ffffffff1660e01b8152600401602060405180830381865afa158015611962573d6000803e3d6000fd5b505050506040513d601f19601f82011682018060405250810190611986919061597b565b602480546001600160a01b0319166001600160a01b039283161790556023546040805163d63a6ccd60e01b81529051919092169163d63a6ccd9160048083019260209291908290030181865afa1580156119e4573d6000803e3d6000fd5b505050506040513d601f19601f82011682018060405250810190611a08919061597b565b602580546001600160a01b0319166001600160a01b0392831690811790915560235460405163095ea7b360e01b81529216600483015260001960248301529063095ea7b3906044016020604051808303816000875af1158015611a6f573d6000803e3d6000fd5b505050506040513d601f19601f82011682018060405250810190611a9391906158fc565b506025546024805460405163095ea7b360e01b81526001600160a01b039182166004820152600019928101929092529091169063095ea7b3906044016020604051808303816000875af1158015611aee573d6000803e3d6000fd5b505050506040513d601f19601f82011682018060405250810190611b1291906158fc565b5060235460405163095ea7b360e01b81526001600160a01b039091166004820181905260001960248301529063095ea7b3906044016020604051808303816000875af1158015611b66573d6000803e3d6000fd5b505050506040513d601f19601f82011682018060405250810190611b8a91906158fc565b505060006035555050505050505050565b6001600160a01b038316331480611bb75750611bb78333610997565b611bd35760405162461bcd60e51b8152600401610aa790615848565b610fe183838361349d565b611c087f9f2df0fed2c77648de5860a4cc508cd0818c85b8b8a1ab4ceeef8d981c8956a633611ebc565b611c245760405162461bcd60e51b8152600401610aa7906157d5565b610e7784848484613646565b60028160028110611c4057600080fd5b01546001600160a01b0316905081565b6000620f4240602360009054906101000a90046001600160a01b03166001600160a01b031663a035b1fe6040518163ffffffff1660e01b8152600401602060405180830381865afa158015611ca9573d6000803e3d6000fd5b505050506040513d601f19601f82011682018060405250810190611ccd9190615998565b6023546001600160a01b03166370a0823160026000015460405160e083901b6001600160e01b03191681526001600160a01b039091166004820152602401602060405180830381865afa158015611d28573d6000803e3d6000fd5b505050506040513d601f19601f82011682018060405250810190611d4c9190615998565b611d5691906158e5565b611d60919061573d565b6025546001600160a01b03166370a0823160026000015460405160e083901b6001600160e01b03191681526001600160a01b039091166004820152602401602060405180830381865afa158015611dbb573d6000803e3d6000fd5b505050506040513d601f19601f82011682018060405250810190611ddf9190615998565b610b9e91906157c2565b611e137f65d7a28e3265b37a6474929f336521b332c1681b933f6cb9f3376673440d862a33611ebc565b611e855760405162461bcd60e51b815260206004820152603960248201527f455243313135355072657365744d696e7465725061757365723a206d7573742060448201527f686176652070617573657220726f6c6520746f207061757365000000000000006064820152608401610aa7565b6111c3613740565b601e8160048110610af657600080fd5b6000828152600160205260408120611eb5908361377d565b9392505050565b6000918252602082815260408084206001600160a01b0393909316845291905290205460ff1690565b606033611ef181610e7d565b91505090565b6110ed338383613789565b6000818152600160205260408120610ad590613869565b60288160028110610af657600080fd5b611f31613422565b611f5c6040518060400160405280600a815260200169189d5e5a5b99c813919560b21b815250613873565b60008211611fd25760405162461bcd60e51b815260206004820152603960248201527f45205243313135355072657365744d696e7465725061757365723a20616d6f7560448201527f6e74206d7573742062652067726561746572207468616e2030000000000000006064820152608401610aa7565b6000600a846003811115611fe857611fe8615832565b60048110611ff857611ff8615793565b01541161206d5760405162461bcd60e51b815260206004820152603c60248201527f455243313135355072657365744d696e7465725061757365723a20746965722060448201527f7072696365206d7573742062652067726561746572207468616e2030000000006064820152608401610aa7565b6001600160a01b0381161580159080612097575080801561209757506001600160a01b0382163314155b6120f25760405162461bcd60e51b815260206004820152602660248201527f526566657272616c206d75737420626520646966666572656e742066726f6d2060448201526539b2b73232b960d11b6064820152608401610aa7565b600084600381111561210657612106615832565b602b54909150600160a01b900460ff166124fb57600084600a87600381111561213157612131615832565b6004811061214157612141615793565b015461214d91906158e5565b9050612186604051806040016040528060158152602001747472616e7366657272696e6720757364507269636560581b815250826138b6565b6025546001600160a01b03166323b872dd336040516001600160e01b031960e084901b1681526001600160a01b039091166004820152306024820152604481018490526064016020604051808303816000875af11580156121eb573d6000803e3d6000fd5b505050506040513d601f19601f8201168201806040525081019061220f91906158fc565b50600061222c826026866122245760006138fb565b602a546138fb565b905061226d6040518060400160405280601a81526020017f7472616e7366657272696e6720746f53656c6c466f7253616665000000000000815250826138b6565b60235460405163f7e0ba5f60e01b8152600481018390526000916001600160a01b03169063f7e0ba5f906024016020604051808303816000875af11580156122b9573d6000803e3d6000fd5b505050506040513d601f19601f820116820180604052508101906122dd9190615998565b905061231a60405180604001604052806019815260200178039b0b332a0b6b7bab73a103932ba3ab93732b210333937b69603d1b815250826138b6565b602354600090612335906001600160a01b031683602661396a565b90506123766040518060400160405280601f81526020017f7472616e7366657272656420746f2070726f746f636f6c2077616c6c65747300815250826138b6565b85156123df5760006123a1602360009054906101000a90046001600160a01b0316848a602a54613c1f565b90506123d16040518060400160405280600c81526020016b726566657272616c2066656560a01b815250826138b6565b6123db81836157c2565b9150505b61241e6040518060400160405280601c81526020017f746f74616c207472616e7366657272656420746f2077616c6c65747300000000815250826138b6565b6025546040516370a0823160e01b81523060048201526000916001600160a01b0316906370a0823190602401602060405180830381865afa158015612467573d6000803e3d6000fd5b505050506040513d601f19601f8201168201806040525081019061248b9190615998565b905080156124f1576024805460405163b6b55f2560e01b8152600481018490526001600160a01b039091169163b6b55f259101600060405180830381600087803b1580156124d857600080fd5b505af11580156124ec573d6000803e3d6000fd5b505050505b505050505061297a565b60225442101561254d5760405162461bcd60e51b815260206004820152601a60248201527f50726573616c65206973206e6f742073746172746564207965740000000000006044820152606401610aa7565b6000612557610b22565b90506000600e826004811061256e5761256e615793565b60408051608081019182905292600492830201919082845b815481526020019060010190808311612586575050505050905085602c60006125ac3390565b6001600160a01b03166001600160a01b03168152602001908152602001600020600084815260200190815260200160002060008960038111156125f1576125f1615832565b8152602001908152602001600020600082825461260e91906157c2565b90915550869050603188600381111561262957612629615832565b6004811061263957612639615793565b01600082825461264991906157c2565b90915550829050602d88600381111561266457612664615832565b6004811061267457612674615793565b015461268091906158e5565b603188600381111561269457612694615832565b600481106126a4576126a4615793565b015411156127005760405162461bcd60e51b815260206004820152602360248201527f50726573616c65206d617820737570706c7920706572207765656b20726561636044820152621a195960ea1b6064820152608401610aa7565b6000868289600381111561271657612716615832565b6004811061272657612726615793565b602002015161273591906158e5565b905061276e604051806040016040528060158152602001747472616e7366657272696e6720757364507269636560581b815250826138b6565b6025546001600160a01b03166323b872dd336040516001600160e01b031960e084901b1681526001600160a01b039091166004820152306024820152604481018490526064016020604051808303816000875af11580156127d3573d6000803e3d6000fd5b505050506040513d601f19601f820116820180604052508101906127f791906158fc565b50600085612806576000612823565b602554602a54612823916001600160a01b03169084908a90613c1f565b90506000861561283457600061285f565b60255461285f906001600160a01b031684600260000154602a546001600160a01b0390911690613c1f565b60255490915060009061287d906001600160a01b031685602661396a565b6025546040516370a0823160e01b81523060048201529192506000916001600160a01b03909116906370a0823190602401602060405180830381865afa1580156128cb573d6000803e3d6000fd5b505050506040513d601f19601f820116820180604052508101906128ef9190615998565b9050801561297257602554602b5460405163a9059cbb60e01b81526001600160a01b0391821660048201526024810184905291169063a9059cbb906044016020604051808303816000875af115801561294c573d6000803e3d6000fd5b505050506040513d601f19601f8201168201806040525081019061297091906158fc565b505b505050505050505b61299533828660405180602001604052806000815250613646565b5050610fe16001600955565b6129a9613422565b60005b6004811015612a015760005b60355481116129ee576129dc8260038111156129d6576129d6615832565b82611608565b806129e6816157a9565b9150506129b8565b50806129f9816157a9565b9150506129ac565b506111c36001600955565b612a14613422565b612a4b604051806040016040528060158152602001747472616e7366657272696e6720757364507269636560581b815250826138b6565b6025546001600160a01b03166323b872dd336040516001600160e01b031960e084901b1681526001600160a01b039091166004820152306024820152604481018490526064016020604051808303816000875af1158015612ab0573d6000803e3d6000fd5b505050506040513d601f19601f82011682018060405250810190612ad491906158fc565b506000612ae260028361573d565b90506000612afc612af3838561572a565b602860006138fb565b9050612b3d6040518060400160405280601a81526020017f7472616e7366657272696e6720746f53656c6c466f7253616665000000000000815250826138b6565b60235460405163f7e0ba5f60e01b8152600481018390526000916001600160a01b03169063f7e0ba5f906024016020604051808303816000875af1158015612b89573d6000803e3d6000fd5b505050506040513d601f19601f82011682018060405250810190612bad9190615998565b9050612bea60405180604001604052806019815260200178039b0b332a0b6b7bab73a103932ba3ab93732b210333937b69603d1b815250826138b6565b602354600090612c05906001600160a01b031683602861396a565b603580549192506000612c17836157a9565b90915550506035546000908152603660205260408120829055612c38610dea565b905060005b6004811015612cc6576000818152600860209081526040808320546035548452603890925290912081908360048110612c7857612c78615793565b015582612c8582896158e5565b612c8f919061573d565b60355460009081526037602052604090208360048110612cb157612cb1615793565b01555080612cbe816157a9565b915050612c3d565b506025546040516370a0823160e01b81523060048201526000916001600160a01b0316906370a0823190602401602060405180830381865afa158015612d10573d6000803e3d6000fd5b505050506040513d601f19601f82011682018060405250810190612d349190615998565b90508015612d9a576024805460405163b6b55f2560e01b8152600481018490526001600160a01b039091169163b6b55f259101600060405180830381600087803b158015612d8157600080fd5b505af1158015612d95573d6000803e3d6000fd5b505050505b505050505050612daa6001600955565b50565b600082815260208190526040902060010154612dc881613387565b610fe183836133b3565b60268160028110610af657600080fd5b60003381805b6004811015610de35760005b6035548111612e3757612e1984836003811115612e1357612e13615832565b836111c5565b612e2390846157c2565b925080612e2f816157a9565b915050612df4565b5080612e42816157a9565b915050612de8565b6000612e6182600381111561085857610858615832565b15612e8057612e7b82600381111561085857610858615832565b612e83565b60015b6035546000908152603760205260409020836003811115612ea657612ea6615832565b60048110612eb657612eb6615793565b0154612ec2919061573d565b600a836003811115612ed657612ed6615832565b60048110612ee657612ee6615793565b0154610ad591906157c2565b6001600160a01b038516331480612f0e5750612f0e8533610997565b612f2a5760405162461bcd60e51b8152600401610aa790615848565b610fb58585858585613f05565b612f42600033611ebc565b612f5e5760405162461bcd60e51b8152600401610aa790615896565b6110ed602d826004614c0b565b6001600160a01b038316331480612f875750612f878333610997565b612fa35760405162461bcd60e51b8152600401610aa790615848565b610fe183838361404f565b602d8160048110610af657600080fd5b612fc88282611ebc565b6110ed576000828152602081815260408083206001600160a01b03851684529091529020805460ff19166001179055612ffe3390565b6001600160a01b0316816001600160a01b0316837f2f8788117e7eff1d82e926ec794901d17c78024a50270940304540a733656f0d60405160405180910390a45050565b6000611eb5836001600160a01b038416614175565b6000610ad5826141c4565b6001600160a01b0384166130885760405162461bcd60e51b8152600401610aa7906159b1565b81518351146130a95760405162461bcd60e51b8152600401610aa7906159f2565b336130b981600087878787614204565b60005b8451811015613155578381815181106130d7576130d7615793565b6020026020010151600460008784815181106130f5576130f5615793565b602002602001015181526020019081526020016000206000886001600160a01b03166001600160a01b03168152602001908152602001600020600082825461313d91906157c2565b9091555081905061314d816157a9565b9150506130bc565b50846001600160a01b031660006001600160a01b0316826001600160a01b03167f4a39dc06d4c0dbc64b70af90fd698a233a518aa5d07e595d983b8c0526c8f7fb87876040516131a6929190615a3a565b60405180910390a46131bd81600087878787614212565b610fb5816000878787876142c4565b81518351146131ed5760405162461bcd60e51b8152600401610aa7906159f2565b6001600160a01b0384166132135760405162461bcd60e51b8152600401610aa790615a5f565b33613222818787878787614204565b60005b845181101561330b57600085828151811061324257613242615793565b60200260200101519050600085838151811061326057613260615793565b60209081029190910181015160008481526004835260408082206001600160a01b038e1683529093529190912054909150818110156132b15760405162461bcd60e51b8152600401610aa790615aa4565b60008381526004602090815260408083206001600160a01b038e8116855292528083208585039055908b168252812080548492906132f09084906157c2565b9250508190555050505080613304906157a9565b9050613225565b50846001600160a01b0316866001600160a01b0316826001600160a01b03167f4a39dc06d4c0dbc64b70af90fd698a233a518aa5d07e595d983b8c0526c8f7fb878760405161335b929190615a3a565b60405180910390a4613371818787878787614212565b61337f8187878787876142c4565b505050505050565b612daa813361441f565b61339b8282612fbe565b6000828152600160205260409020610fe19082613042565b6133bd8282614478565b6000828152600160205260409020610fe190826144dd565b6133dd6144f2565b6007805460ff191690557f5db9ee0a495bf2e6ff9c91a7834c1ba4fdd244a5e8aa4e537bd38aeae4b073aa335b6040516001600160a01b039091168152602001611069565b6002600954036134745760405162461bcd60e51b815260206004820152601f60248201527f5265656e7472616e637947756172643a207265656e7472616e742063616c6c006044820152606401610aa7565b6002600955565b60066110ed8282615b34565b6110ed8282613391565b6110ed60028281614c76565b6001600160a01b0383166134c35760405162461bcd60e51b8152600401610aa790615bf3565b80518251146134e45760405162461bcd60e51b8152600401610aa7906159f2565b600033905061350781856000868660405180602001604052806000815250614204565b60005b83518110156135cf57600084828151811061352757613527615793565b60200260200101519050600084838151811061354557613545615793565b60209081029190910181015160008481526004835260408082206001600160a01b038c1683529093529190912054909150818110156135965760405162461bcd60e51b8152600401610aa790615c36565b60009283526004602090815260408085206001600160a01b038b16865290915290922091039055806135c7816157a9565b91505061350a565b5060006001600160a01b0316846001600160a01b0316826001600160a01b03167f4a39dc06d4c0dbc64b70af90fd698a233a518aa5d07e595d983b8c0526c8f7fb8686604051613620929190615a3a565b60405180910390a4610e7781856000868660405180602001604052806000815250614212565b6001600160a01b03841661366c5760405162461bcd60e51b8152600401610aa7906159b1565b3360006136788561453b565b905060006136858561453b565b905061369683600089858589614204565b60008681526004602090815260408083206001600160a01b038b168452909152812080548792906136c89084906157c2565b909155505060408051878152602081018790526001600160a01b03808a1692600092918716917fc3d58168c5ae7397731d063d5bbf3d657854427343f4c083240f7aacaa2d0f62910160405180910390a461372883600089858589614212565b61373783600089898989614586565b50505050505050565b613748614641565b6007805460ff191660011790557f62e78cea01bee320cd4e420270b5ea74000d11b0c9f74754ebdbfc544b05a25861340a3390565b6000611eb58383614687565b816001600160a01b0316836001600160a01b0316036137fc5760405162461bcd60e51b815260206004820152602960248201527f455243313135353a2073657474696e6720617070726f76616c20737461747573604482015268103337b91039b2b63360b91b6064820152608401610aa7565b6001600160a01b03838116600081815260056020908152604080832094871680845294825291829020805460ff191686151590811790915591519182527f17307eab39ab6107e8899845ad3d59bd9653f200f220920489ca2b5937696c31910160405180910390a3505050565b6000610ad5825490565b612daa816040516024016138879190614dd2565b60408051601f198184030181529190526020810180516001600160e01b031663104c13eb60e21b1790526146b1565b6110ed82826040516024016138cc929190615c7a565b60408051601f198184030181529190526020810180516001600160e01b0316632d839cb360e21b1790526146b1565b600080805b600281101561393b5784816002811061391b5761391b615793565b015461392790836157c2565b915080613933816157a9565b915050613900565b5061394683826157c2565b90506305f5e10061395782876158e5565b613961919061573d565b95945050505050565b60006139aa6040518060400160405280601781526020017f2d2d205f64697374726962757465207374617274202d2d000000000000000000815250613873565b6139db6040518060400160405280600f81526020016e446973747269627574696e6720257360881b815250846138b6565b604080518082018252600a81526962616c616e636520257360b01b602082015290516370a0823160e01b8152306004820152613a6c91906001600160a01b038716906370a0823190602401602060405180830381865afa158015613a43573d6000803e3d6000fd5b505050506040513d601f19601f82011682018060405250810190613a679190615998565b6138b6565b6000805b6002811015613bb05760006305f5e100858360028110613a9257613a92615793565b0154613a9e90886158e5565b613aa8919061573d565b9050613afa6040518060400160405280601081526020016f73656e64696e6720257320746f20257360801b8152508260028560028110613aea57613aea615793565b01546001600160a01b03166146d2565b866001600160a01b031663a9059cbb60028460028110613b1c57613b1c615793565b015460405160e083901b6001600160e01b03191681526001600160a01b039091166004820152602481018490526044016020604051808303816000875af1158015613b6b573d6000803e3d6000fd5b505050506040513d601f19601f82011682018060405250810190613b8f91906158fc565b50613b9a81846157c2565b9250508080613ba8906157a9565b915050613a70565b50613be16040518060400160405280600e81526020016d446973747269627574656420257360901b815250826138b6565b613c17604051806040016040528060158152602001742d2d205f6469737472696275746520656e64202d2d60581b815250613873565b949350505050565b6000613c5f6040518060400160405280601c81526020017f2d2d205f7472616e7366657250657263656e74207374617274202d2d00000000815250613873565b6040516370a0823160e01b81523060048201526000906001600160a01b038716906370a0823190602401602060405180830381865afa158015613ca6573d6000803e3d6000fd5b505050506040513d601f19601f82011682018060405250810190613cca9190615998565b9050613d0b6040518060400160405280601881526020017f7472616e7366657272696e67207368617265206f662025730000000000000000815250866138b6565b613d376040518060400160405280600a81526020016962616c616e636520257360b01b815250826138b6565b60006305f5e100613d4885886158e5565b613d52919061573d565b9050613d8b60405180604001604052806015815260200174616d6f756e7420746f207472616e7366657220257360581b815250826138b6565b80821015613de65760405162461bcd60e51b815260206004820152602260248201527f4e6f7420656e6f7567682062616c616e6365206f6e2074686520636f6e74726160448201526118dd60f21b6064820152608401610aa7565b613e196040518060400160405280601081526020016f73656e64696e6720257320746f20257360801b81525082876146d2565b60405163a9059cbb60e01b81526001600160a01b0386811660048301526024820183905288169063a9059cbb906044016020604051808303816000875af1158015613e68573d6000803e3d6000fd5b505050506040513d601f19601f82011682018060405250810190613e8c91906158fc565b50613ebd6040518060400160405280600e81526020016d446973747269627574656420257360901b815250826138b6565b613efb6040518060400160405280601a81526020017f2d2d205f7472616e7366657250657263656e7420656e64202d2d000000000000815250613873565b9695505050505050565b6001600160a01b038416613f2b5760405162461bcd60e51b8152600401610aa790615a5f565b336000613f378561453b565b90506000613f448561453b565b9050613f54838989858589614204565b60008681526004602090815260408083206001600160a01b038c16845290915290205485811015613f975760405162461bcd60e51b8152600401610aa790615aa4565b60008781526004602090815260408083206001600160a01b038d8116855292528083208985039055908a16825281208054889290613fd69084906157c2565b909155505060408051888152602081018890526001600160a01b03808b16928c821692918816917fc3d58168c5ae7397731d063d5bbf3d657854427343f4c083240f7aacaa2d0f62910160405180910390a4614036848a8a86868a614212565b614044848a8a8a8a8a614586565b505050505050505050565b6001600160a01b0383166140755760405162461bcd60e51b8152600401610aa790615bf3565b3360006140818461453b565b9050600061408e8461453b565b90506140ae83876000858560405180602001604052806000815250614204565b60008581526004602090815260408083206001600160a01b038a168452909152902054848110156140f15760405162461bcd60e51b8152600401610aa790615c36565b60008681526004602090815260408083206001600160a01b038b81168086529184528285208a8703905582518b81529384018a90529092908816917fc3d58168c5ae7397731d063d5bbf3d657854427343f4c083240f7aacaa2d0f62910160405180910390a461373784886000868660405180602001604052806000815250614212565b60008181526001830160205260408120546141bc57508154600181810184556000848152602080822090930184905584548482528286019093526040902091909155610ad5565b506000610ad5565b60006001600160e01b03198216636cdb3d1360e11b14806141f557506001600160e01b031982166303a24d0760e21b145b80610ad55750610ad582614719565b61337f86868686868661473e565b601e8360008151811061422757614227615793565b60200260200101516004811061423f5761423f615793565b01546142718460008151811061425757614257615793565b602002602001015160009081526008602052604090205490565b11156142bf5760405162461bcd60e51b815260206004820152601b60248201527f536166654e46543a206d617820737570706c79207265616368656400000000006044820152606401610aa7565b61337f565b6001600160a01b0384163b1561337f5760405163bc197c8160e01b81526001600160a01b0385169063bc197c81906143089089908990889088908890600401615c9c565b6020604051808303816000875af1925050508015614343575060408051601f3d908101601f1916820190925261434091810190615cfa565b60015b6143ef5761434f615d17565b806308c379a0036143885750614363615d33565b8061436e575061438a565b8060405162461bcd60e51b8152600401610aa79190614dd2565b505b60405162461bcd60e51b815260206004820152603460248201527f455243313135353a207472616e7366657220746f206e6f6e2d455243313135356044820152732932b1b2b4bb32b91034b6b83632b6b2b73a32b960611b6064820152608401610aa7565b6001600160e01b0319811663bc197c8160e01b146137375760405162461bcd60e51b8152600401610aa790615dbc565b6144298282611ebc565b6110ed57614436816148c5565b6144418360206148d7565b604051602001614452929190615e04565b60408051601f198184030181529082905262461bcd60e51b8252610aa791600401614dd2565b6144828282611ebc565b156110ed576000828152602081815260408083206001600160a01b0385168085529252808320805460ff1916905551339285917ff6391f5c32d9c69d2a47ea670b442974b53935d1edc7fd64eb21e047a839171b9190a45050565b6000611eb5836001600160a01b038416614a72565b60075460ff166111c35760405162461bcd60e51b815260206004820152601460248201527314185d5cd8589b194e881b9bdd081c185d5cd95960621b6044820152606401610aa7565b6040805160018082528183019092526060916000919060208083019080368337019050509050828160008151811061457557614575615793565b602090810291909101015292915050565b6001600160a01b0384163b1561337f5760405163f23a6e6160e01b81526001600160a01b0385169063f23a6e61906145ca9089908990889088908890600401615e79565b6020604051808303816000875af1925050508015614605575060408051601f3d908101601f1916820190925261460291810190615cfa565b60015b6146115761434f615d17565b6001600160e01b0319811663f23a6e6160e01b146137375760405162461bcd60e51b8152600401610aa790615dbc565b60075460ff16156111c35760405162461bcd60e51b815260206004820152601060248201526f14185d5cd8589b194e881c185d5cd95960821b6044820152606401610aa7565b600082600001828154811061469e5761469e615793565b9060005260206000200154905092915050565b80516a636f6e736f6c652e6c6f67602083016000808483855afa5050505050565b610fe18383836040516024016146ea93929190615eb1565b60408051601f198184030181529190526020810180516001600160e01b031663038fd88960e31b1790526146b1565b60006001600160e01b03198216635a05180f60e01b1480610ad55750610ad582614b65565b61474c868686868686614b9a565b6001600160a01b0385166147d35760005b83518110156147d15782818151811061477857614778615793565b60200260200101516008600086848151811061479657614796615793565b6020026020010151815260200190815260200160002060008282546147bb91906157c2565b909155506147ca9050816157a9565b905061475d565b505b6001600160a01b03841661337f5760005b835181101561373757600084828151811061480157614801615793565b60200260200101519050600084838151811061481f5761481f615793565b60200260200101519050600060086000848152602001908152602001600020549050818110156148a25760405162461bcd60e51b815260206004820152602860248201527f455243313135353a206275726e20616d6f756e74206578636565647320746f74604482015267616c537570706c7960c01b6064820152608401610aa7565b600092835260086020526040909220910390556148be816157a9565b90506147e4565b6060610ad56001600160a01b03831660145b606060006148e68360026158e5565b6148f19060026157c2565b6001600160401b0381111561490857614908614e33565b6040519080825280601f01601f191660200182016040528015614932576020820181803683370190505b509050600360fc1b8160008151811061494d5761494d615793565b60200101906001600160f81b031916908160001a905350600f60fb1b8160018151811061497c5761497c615793565b60200101906001600160f81b031916908160001a90535060006149a08460026158e5565b6149ab9060016157c2565b90505b6001811115614a23576f181899199a1a9b1b9c1cb0b131b232b360811b85600f16601081106149df576149df615793565b1a60f81b8282815181106149f5576149f5615793565b60200101906001600160f81b031916908160001a90535060049490941c93614a1c81615ee3565b90506149ae565b508315611eb55760405162461bcd60e51b815260206004820181905260248201527f537472696e67733a20686578206c656e67746820696e73756666696369656e746044820152606401610aa7565b60008181526001830160205260408120548015614b5b576000614a9660018361572a565b8554909150600090614aaa9060019061572a565b9050818114614b0f576000866000018281548110614aca57614aca615793565b9060005260206000200154905080876000018481548110614aed57614aed615793565b6000918252602080832090910192909255918252600188019052604090208390555b8554869080614b2057614b20615efa565b600190038181906000526020600020016000905590558560010160008681526020019081526020016000206000905560019350505050610ad5565b6000915050610ad5565b60006001600160e01b03198216637965db0b60e01b1480610ad557506301ffc9a760e01b6001600160e01b0319831614610ad5565b61337f86868686868660075460ff161561337f5760405162461bcd60e51b815260206004820152602c60248201527f455243313135355061757361626c653a20746f6b656e207472616e736665722060448201526b1dda1a5b19481c185d5cd95960a21b6064820152608401610aa7565b8260048101928215614c39579160200282015b82811115614c39578251825591602001919060010190614c1e565b50614c45929150614cbe565b5090565b8260028101928215614c395791602002820182811115614c39578251825591602001919060010190614c1e565b8260028101928215614c39579160200282015b82811115614c3957825182546001600160a01b0319166001600160a01b03909116178255602090920191600190910190614c89565b5b80821115614c455760008155600101614cbf565b6001600160a01b0381168114612daa57600080fd5b60008060408385031215614cfb57600080fd5b8235614d0681614cd3565b946020939093013593505050565b6001600160e01b031981168114612daa57600080fd5b600060208284031215614d3c57600080fd5b8135611eb581614d14565b600060208284031215614d5957600080fd5b5035919050565b60008060408385031215614d7357600080fd5b50508035926020909101359150565b60005b83811015614d9d578181015183820152602001614d85565b50506000910152565b60008151808452614dbe816020860160208601614d82565b601f01601f19169290920160200192915050565b602081526000611eb56020830184614da6565b600081518084526020808501945080840160005b83811015614e1557815187529582019590820190600101614df9565b509495945050505050565b602081526000611eb56020830184614de5565b634e487b7160e01b600052604160045260246000fd5b604081018181106001600160401b0382111715614e6857614e68614e33565b60405250565b601f8201601f191681016001600160401b0381118282101715614e9357614e93614e33565b6040525050565b60006001600160401b03821115614eb357614eb3614e33565b5060051b60200190565b600082601f830112614ece57600080fd5b81356020614edb82614e9a565b604051614ee88282614e6e565b83815260059390931b8501820192828101915086841115614f0857600080fd5b8286015b84811015614f235780358352918301918301614f0c565b509695505050505050565b60006001600160401b03831115614f4757614f47614e33565b604051614f5e601f8501601f191660200182614e6e565b809150838152848484011115614f7357600080fd5b83836020830137600060208583010152509392505050565b600082601f830112614f9c57600080fd5b611eb583833560208501614f2e565b60008060008060808587031215614fc157600080fd5b8435614fcc81614cd3565b935060208501356001600160401b0380821115614fe857600080fd5b614ff488838901614ebd565b9450604087013591508082111561500a57600080fd5b61501688838901614ebd565b9350606087013591508082111561502c57600080fd5b5061503987828801614f8b565b91505092959194509250565b60006020828403121561505757600080fd5b8135611eb581614cd3565b600080600080600060a0868803121561507a57600080fd5b853561508581614cd3565b9450602086013561509581614cd3565b935060408601356001600160401b03808211156150b157600080fd5b6150bd89838a01614ebd565b945060608801359150808211156150d357600080fd5b6150df89838a01614ebd565b935060808801359150808211156150f557600080fd5b5061510288828901614f8b565b9150509295509295909350565b6000806040838503121561512257600080fd5b82359150602083013561513481614cd3565b809150509250929050565b80356004811061514e57600080fd5b919050565b60006020828403121561516557600080fd5b611eb58261513f565b60008060006060848603121561518357600080fd5b833561518e81614cd3565b925061519c6020850161513f565b9150604084013590509250925092565b600060208083850312156151bf57600080fd5b82356001600160401b03808211156151d657600080fd5b818501915085601f8301126151ea57600080fd5b81356151f581614e9a565b6040516152028282614e6e565b82815260059290921b840185019185810191508883111561522257600080fd5b8585015b8381101561525a5780358581111561523e5760008081fd5b61524c8b89838a0101614ebd565b845250918601918601615226565b5098975050505050505050565b6000806040838503121561527a57600080fd5b82356001600160401b038082111561529157600080fd5b818501915085601f8301126152a557600080fd5b813560206152b282614e9a565b6040516152bf8282614e6e565b83815260059390931b85018201928281019150898411156152df57600080fd5b948201945b838610156153065785356152f781614cd3565b825294820194908201906152e4565b9650508601359250508082111561531c57600080fd5b5061532985828601614ebd565b9150509250929050565b6000806040838503121561534657600080fd5b614d068361513f565b600082601f83011261536057600080fd5b604051608081018181106001600160401b038211171561538257615382614e33565b60405280608084018581111561539757600080fd5b845b818110156153b1578035835260209283019201615399565b509195945050505050565b600082601f8301126153cd57600080fd5b6040516153d981614e49565b80604084018581111561539757600080fd5b600080600080600080600080610200898b03121561540857600080fd5b88356001600160401b0381111561541e57600080fd5b8901601f81018b1361542f57600080fd5b61543e8b823560208401614f2e565b98505061544e8a60208b0161534f565b965061545d8a60a08b0161534f565b955061012089013561546e81614cd3565b945061547e8a6101408b016153bc565b935061018089013592506154968a6101a08b016153bc565b91506101e08901356154a781614cd3565b809150509295985092959890939650565b6000806000606084860312156154cd57600080fd5b83356154d881614cd3565b925060208401356001600160401b03808211156154f457600080fd5b61550087838801614ebd565b9350604086013591508082111561551657600080fd5b5061552386828701614ebd565b9150509250925092565b6000806000806080858703121561554357600080fd5b843561554e81614cd3565b9350602085013592506040850135915060608501356001600160401b0381111561557757600080fd5b61503987828801614f8b565b60008060006060848603121561559857600080fd5b83356155a381614cd3565b95602085013595506040909401359392505050565b8015158114612daa57600080fd5b600080604083850312156155d957600080fd5b82356155e481614cd3565b91506020830135615134816155b8565b60008060006060848603121561560957600080fd5b8335925060208401359150604084013561562281614cd3565b809150509250925092565b60008060006060848603121561564257600080fd5b61564b8461513f565b925060208401359150604084013561562281614cd3565b6000806040838503121561567557600080fd5b823561568081614cd3565b9150602083013561513481614cd3565b600080600080600060a086880312156156a857600080fd5b85356156b381614cd3565b945060208601356156c381614cd3565b9350604086013592506060860135915060808601356001600160401b038111156156ec57600080fd5b61510288828901614f8b565b60006080828403121561570a57600080fd5b611eb5838361534f565b634e487b7160e01b600052601160045260246000fd5b81810381811115610ad557610ad5615714565b60008261575a57634e487b7160e01b600052601260045260246000fd5b500490565b600181811c9082168061577357607f821691505b602082108103610cae57634e487b7160e01b600052602260045260246000fd5b634e487b7160e01b600052603260045260246000fd5b6000600182016157bb576157bb615714565b5060010190565b80820180821115610ad557610ad5615714565b60208082526038908201527f455243313135355072657365744d696e7465725061757365723a206d7573742060408201527f68617665206d696e74657220726f6c6520746f206d696e740000000000000000606082015260800190565b634e487b7160e01b600052602160045260246000fd5b6020808252602e908201527f455243313135353a2063616c6c6572206973206e6f7420746f6b656e206f776e60408201526d195c881bdc88185c1c1c9bdd995960921b606082015260800190565b6020808252602f908201527f455243313135355072657365744d696e7465725061757365723a206d7573742060408201526e686176652061646d696e20726f6c6560881b606082015260800190565b8082028115828204841417610ad557610ad5615714565b60006020828403121561590e57600080fd5b8151611eb5816155b8565b60006040828403121561592b57600080fd5b82601f83011261593a57600080fd5b60405161594681614e49565b80604084018581111561595857600080fd5b845b818110156153b157805161596d81614cd3565b83526020928301920161595a565b60006020828403121561598d57600080fd5b8151611eb581614cd3565b6000602082840312156159aa57600080fd5b5051919050565b60208082526021908201527f455243313135353a206d696e7420746f20746865207a65726f206164647265736040820152607360f81b606082015260800190565b60208082526028908201527f455243313135353a2069647320616e6420616d6f756e7473206c656e677468206040820152670dad2e6dac2e8c6d60c31b606082015260800190565b604081526000615a4d6040830185614de5565b82810360208401526139618185614de5565b60208082526025908201527f455243313135353a207472616e7366657220746f20746865207a65726f206164604082015264647265737360d81b606082015260800190565b6020808252602a908201527f455243313135353a20696e73756666696369656e742062616c616e636520666f60408201526939103a3930b739b332b960b11b606082015260800190565b601f821115610fe157600081815260208120601f850160051c81016020861015615b155750805b601f850160051c820191505b8181101561337f57828155600101615b21565b81516001600160401b03811115615b4d57615b4d614e33565b615b6181615b5b845461575f565b84615aee565b602080601f831160018114615b965760008415615b7e5750858301515b600019600386901b1c1916600185901b17855561337f565b600085815260208120601f198616915b82811015615bc557888601518255948401946001909101908401615ba6565b5085821015615be35787850151600019600388901b60f8161c191681555b5050505050600190811b01905550565b60208082526023908201527f455243313135353a206275726e2066726f6d20746865207a65726f206164647260408201526265737360e81b606082015260800190565b60208082526024908201527f455243313135353a206275726e20616d6f756e7420657863656564732062616c604082015263616e636560e01b606082015260800190565b604081526000615c8d6040830185614da6565b90508260208301529392505050565b60006001600160a01b03808816835280871660208401525060a06040830152615cc860a0830186614de5565b8281036060840152615cda8186614de5565b90508281036080840152615cee8185614da6565b98975050505050505050565b600060208284031215615d0c57600080fd5b8151611eb581614d14565b600060033d1115615d305760046000803e5060005160e01c5b90565b600060443d1015615d415790565b6040516003193d81016004833e81513d6001600160401b038160248401118184111715615d7057505050505090565b8285019150815181811115615d885750505050505090565b843d8701016020828501011115615da25750505050505090565b615db160208286010187614e6e565b509095945050505050565b60208082526028908201527f455243313135353a204552433131353552656365697665722072656a656374656040820152676420746f6b656e7360c01b606082015260800190565b7f416363657373436f6e74726f6c3a206163636f756e7420000000000000000000815260008351615e3c816017850160208801614d82565b7001034b99036b4b9b9b4b733903937b6329607d1b6017918401918201528351615e6d816028840160208801614d82565b01602801949350505050565b60006001600160a01b03808816835280871660208401525084604083015283606083015260a0608083015261128760a0830184614da6565b606081526000615ec46060830186614da6565b90508360208301526001600160a01b0383166040830152949350505050565b600081615ef257615ef2615714565b506000190190565b634e487b7160e01b600052603160045260246000fdfea2646970667358221220f6a72e7629484124cbc1356f87c6cff133ff250f89d25dedb0fb7e870edfbca864736f6c63430008110033b53127684a568b3173ae13b9f8a6016e243e63b6e8ee1178d6a717850b5d610365d7a28e3265b37a6474929f336521b332c1681b933f6cb9f3376673440d862a9f2df0fed2c77648de5860a4cc508cd0818c85b8b8a1ab4ceeef8d981c8956a6",
  "devdoc": {
    "author": "crypt0grapher",
    "kind": "dev",
    "methods": {
      "balanceOf(address,uint256)": {
        "details": "See {IERC1155-balanceOf}. Requirements: - `account` cannot be the zero address."
      },
      "balanceOfBatch(address[],uint256[])": {
        "details": "See {IERC1155-balanceOfBatch}. Requirements: - `accounts` and `ids` must have the same length."
      },
      "buy(uint8,uint256,address)": {
        "params": {
          "_amount": "amount of USD to spend",
          "_referral": "referral getting 5% of the price, should not be the sender, if not specified, goes to treasury",
          "_tier": "tier of the NFT to purchase which stands for ERC1155 token id [0..3]"
        }
      },
      "distributeProfit(uint256)": {
        "params": {
          "_amountUSD": "amount of USD to distribute"
        }
      },
      "exists(uint256)": {
        "details": "Indicates whether any token exist with a given id, or not."
      },
      "getCurrentPresaleWeek()": {
        "returns": {
          "_0": "returns 1-4"
        }
      },
      "getDiscountedPriceTable()": {
        "returns": {
          "_0": "uint256[] containing all NFT prices in one table in USD for the current presale week"
        }
      },
      "getFairPrice(uint8)": {
        "returns": {
          "_0": "counts not only the sale price but also share of the profit for the tier"
        }
      },
      "getPrice(uint8)": {
        "returns": {
          "_0": "NFT price in USD"
        }
      },
      "getPriceTable()": {
        "returns": {
          "_0": "uint256[] containing all NFT prices in one table in USD"
        }
      },
      "getRoleAdmin(bytes32)": {
        "details": "Returns the admin role that controls `role`. See {grantRole} and {revokeRole}. To change a role's admin, use {_setRoleAdmin}."
      },
      "getRoleMember(bytes32,uint256)": {
        "details": "Returns one of the accounts that have `role`. `index` must be a value between 0 and {getRoleMemberCount}, non-inclusive. Role bearers are not sorted in any particular way, and their ordering may change at any point. WARNING: When using {getRoleMember} and {getRoleMemberCount}, make sure you perform all queries on the same block. See the following https://forum.openzeppelin.com/t/iterating-over-elements-on-enumerableset-in-openzeppelin-contracts/2296[forum post] for more information."
      },
      "getRoleMemberCount(bytes32)": {
        "details": "Returns the number of accounts that have `role`. Can be used together with {getRoleMember} to enumerate all bearers of a role."
      },
      "getUnclaimedRewards()": {
        "returns": {
          "_0": "amount of the rewards not yet distributed to NFT holders"
        }
      },
      "grantRole(bytes32,address)": {
        "details": "Grants `role` to `account`. If `account` had not been already granted `role`, emits a {RoleGranted} event. Requirements: - the caller must have ``role``'s admin role. May emit a {RoleGranted} event."
      },
      "hasRole(bytes32,address)": {
        "details": "Returns `true` if `account` has been granted `role`."
      },
      "isApprovedForAll(address,address)": {
        "details": "See {IERC1155-isApprovedForAll}."
      },
      "mint(address,uint256,uint256,bytes)": {
        "details": "Creates `amount` new tokens for `to`, of token type `id`. See {ERC1155-_mint}. Requirements: - the caller must have the `MINTER_ROLE`."
      },
      "mintBatch(address,uint256[],uint256[],bytes)": {
        "details": "xref:ROOT:erc1155.adoc#batch-operations[Batched] variant of {mint}."
      },
      "pause()": {
        "details": "Pauses all token transfers. See {ERC1155Pausable} and {Pausable-_pause}. Requirements: - the caller must have the `PAUSER_ROLE`."
      },
      "paused()": {
        "details": "Returns true if the contract is paused, and false otherwise."
      },
      "renounceRole(bytes32,address)": {
        "details": "Revokes `role` from the calling account. Roles are often managed via {grantRole} and {revokeRole}: this function's purpose is to provide a mechanism for accounts to lose their privileges if they are compromised (such as when a trusted device is misplaced). If the calling account had been revoked `role`, emits a {RoleRevoked} event. Requirements: - the caller must be `account`. May emit a {RoleRevoked} event."
      },
      "revokeRole(bytes32,address)": {
        "details": "Revokes `role` from `account`. If `account` had been granted `role`, emits a {RoleRevoked} event. Requirements: - the caller must have ``role``'s admin role. May emit a {RoleRevoked} event."
      },
      "safeBatchTransferFrom(address,address,uint256[],uint256[],bytes)": {
        "details": "See {IERC1155-safeBatchTransferFrom}."
      },
      "safeTransferFrom(address,address,uint256,uint256,bytes)": {
        "details": "See {IERC1155-safeTransferFrom}."
      },
      "setApprovalForAll(address,bool)": {
        "details": "See {IERC1155-setApprovalForAll}."
      },
      "setDiscountedPriceTable(uint256[][])": {
        "params": {
          "_presalePrice": "4x4 table of the discounted prices for all 4 tiers for all 4 weeks of the presale"
        }
      },
      "totalSupply(uint256)": {
        "details": "Total amount of tokens in with a given id."
      },
      "unpause()": {
        "details": "Unpauses all token transfers. See {ERC1155Pausable} and {Pausable-_unpause}. Requirements: - the caller must have the `PAUSER_ROLE`."
      },
      "uri(uint256)": {
        "details": "See {IERC1155MetadataURI-uri}. This implementation returns the same URI for *all* token types. It relies on the token type ID substitution mechanism https://eips.ethereum.org/EIPS/eip-1155#metadata[defined in the EIP]. Clients calling this function must replace the `\\{id\\}` substring with the actual token type ID."
      }
    },
    "stateVariables": {
      "currentDistributionId": {
        "return": "current distribution number, the one that assigned to the latest distribution",
        "returns": {
          "_0": "current distribution number, the one that assigned to the latest distribution"
        }
      }
    },
    "title": "Safe NFT",
    "version": 1
  },
  "userdoc": {
    "kind": "user",
    "methods": {
      "TIERS()": {
        "notice": "todo a number of tiers should be flexible"
      },
      "buy(uint8,uint256,address)": {
        "notice": "purchase Safe NFT for exact amount of USD"
      },
      "claimReward(uint8,uint256)": {
        "notice": "the function calculates the amount of the reward for the NFT holder and transfers it to the NFT holder"
      },
      "claimRewardsTotal()": {
        "notice": "the function calculates the amount of the reward for the NFT holder and transfers it to the NFT holder"
      },
      "currentDistributionId()": {
        "notice": "gets the current distribution number"
      },
      "distributeProfit(uint256)": {
        "notice": "distribute profit among the NFT holders, the function fixes the amount of the reward and the NFT holders and their shares at the moment of the call. It does not transfer the reward to the NFT holders, it just records the amount of the reward for each NFT holder."
      },
      "getBalanceTable(address)": {
        "notice": "gets NFT balance for all tiers"
      },
      "getCurrentPresaleWeek()": {
        "notice": "gets the current presale week"
      },
      "getDiscountedPriceTable()": {
        "notice": "gets all discounted NFT prices in USD, for presale for all 4 weeks of the presale"
      },
      "getFairPrice(uint8)": {
        "notice": "gets NFT fair price in USD"
      },
      "getFairPriceTable()": {
        "notice": "gets NFT price for all tiers in USD ///todo in SAFE!"
      },
      "getMyBalanceTable()": {
        "notice": "gets NFT balance for all tiers"
      },
      "getMyPendingRewardsTotal()": {
        "notice": "returns the amount of the reward share for the NFT holder"
      },
      "getMyShareOfTreasury()": {
        "notice": "**Your NFTs (% Treasury) **is calculated in $ as a relation of total price of NFTs possessed by the $ amount of Investment Pool - including its SAFE and USDC components."
      },
      "getPendingRewards(address,uint8,uint256)": {
        "notice": "returns the amount of the reward share for the NFT holder"
      },
      "getPrice(uint8)": {
        "notice": "gets NFT price in USD"
      },
      "getPriceTable()": {
        "notice": "gets all NFT prices in USD, the original ones without discounts"
      },
      "getTreasuryCost()": {
        "notice": "gets the total usd value of the NFT minted"
      },
      "getUnclaimedRewards()": {
        "notice": "undistributed profit amount in USD"
      },
      "setDiscountedPriceTable(uint256[][])": {
        "notice": "sets all discounted NFT prices in USD, for presale for all 4 weeks of the presale"
      },
      "togglePresale()": {
        "notice": "toggles presale status"
      }
    },
    "notice": "Safe Yields NFT token based on ERC1155 standard, id [0..3] represents one of the 4 tiers",
    "version": 1
  },
  "storageLayout": {
    "storage": [
      {
        "astId": 24,
        "contract": "contracts/SafeNFT.sol:SafeNFT",
        "label": "_roles",
        "offset": 0,
        "slot": "0",
        "type": "t_mapping(t_bytes32,t_struct(RoleData)19_storage)"
      },
      {
        "astId": 334,
        "contract": "contracts/SafeNFT.sol:SafeNFT",
        "label": "_roleMembers",
        "offset": 0,
        "slot": "1",
        "type": "t_mapping(t_bytes32,t_struct(AddressSet)4430_storage)"
      },
      {
        "astId": 6387,
        "contract": "contracts/SafeNFT.sol:SafeNFT",
        "label": "wallets",
        "offset": 0,
        "slot": "2",
        "type": "t_array(t_address)2_storage"
      },
      {
        "astId": 726,
        "contract": "contracts/SafeNFT.sol:SafeNFT",
        "label": "_balances",
        "offset": 0,
        "slot": "4",
        "type": "t_mapping(t_uint256,t_mapping(t_address,t_uint256))"
      },
      {
        "astId": 732,
        "contract": "contracts/SafeNFT.sol:SafeNFT",
        "label": "_operatorApprovals",
        "offset": 0,
        "slot": "5",
        "type": "t_mapping(t_address,t_mapping(t_address,t_bool))"
      },
      {
        "astId": 734,
        "contract": "contracts/SafeNFT.sol:SafeNFT",
        "label": "_uri",
        "offset": 0,
        "slot": "6",
        "type": "t_string_storage"
      },
      {
        "astId": 556,
        "contract": "contracts/SafeNFT.sol:SafeNFT",
        "label": "_paused",
        "offset": 0,
        "slot": "7",
        "type": "t_bool"
      },
      {
        "astId": 2213,
        "contract": "contracts/SafeNFT.sol:SafeNFT",
        "label": "_totalSupply",
        "offset": 0,
        "slot": "8",
        "type": "t_mapping(t_uint256,t_uint256)"
      },
      {
        "astId": 657,
        "contract": "contracts/SafeNFT.sol:SafeNFT",
        "label": "_status",
        "offset": 0,
        "slot": "9",
        "type": "t_uint256"
      },
      {
        "astId": 4753,
        "contract": "contracts/SafeNFT.sol:SafeNFT",
        "label": "price",
        "offset": 0,
        "slot": "10",
        "type": "t_array(t_uint256)4_storage"
      },
      {
        "astId": 4759,
        "contract": "contracts/SafeNFT.sol:SafeNFT",
        "label": "presalePrice",
        "offset": 0,
        "slot": "14",
        "type": "t_array(t_array(t_uint256)4_storage)4_storage"
      },
      {
        "astId": 4763,
        "contract": "contracts/SafeNFT.sol:SafeNFT",
        "label": "maxSupply",
        "offset": 0,
        "slot": "30",
        "type": "t_array(t_uint256)4_storage"
      },
      {
        "astId": 4765,
        "contract": "contracts/SafeNFT.sol:SafeNFT",
        "label": "presaleStartDate",
        "offset": 0,
        "slot": "34",
        "type": "t_uint256"
      },
      {
        "astId": 4768,
        "contract": "contracts/SafeNFT.sol:SafeNFT",
        "label": "safeToken",
        "offset": 0,
        "slot": "35",
        "type": "t_contract(ISafeToken)6902"
      },
      {
        "astId": 4771,
        "contract": "contracts/SafeNFT.sol:SafeNFT",
        "label": "safeVault",
        "offset": 0,
        "slot": "36",
        "type": "t_contract(ISafeVault)6923"
      },
      {
        "astId": 4774,
        "contract": "contracts/SafeNFT.sol:SafeNFT",
        "label": "usd",
        "offset": 0,
        "slot": "37",
        "type": "t_contract(IERC20)2651"
      },
      {
        "astId": 4781,
        "contract": "contracts/SafeNFT.sol:SafeNFT",
        "label": "priceDistributionOnMint",
        "offset": 0,
        "slot": "38",
        "type": "t_array(t_uint256)2_storage"
      },
      {
        "astId": 4785,
        "contract": "contracts/SafeNFT.sol:SafeNFT",
        "label": "profitDistribution",
        "offset": 0,
        "slot": "40",
        "type": "t_array(t_uint256)2_storage"
      },
      {
        "astId": 4787,
        "contract": "contracts/SafeNFT.sol:SafeNFT",
        "label": "referralShareForNFTPurchase",
        "offset": 0,
        "slot": "42",
        "type": "t_uint256"
      },
      {
        "astId": 4789,
        "contract": "contracts/SafeNFT.sol:SafeNFT",
        "label": "stabilizerWallet",
        "offset": 0,
        "slot": "43",
        "type": "t_address"
      },
      {
        "astId": 4791,
        "contract": "contracts/SafeNFT.sol:SafeNFT",
        "label": "presale",
        "offset": 20,
        "slot": "43",
        "type": "t_bool"
      },
      {
        "astId": 4799,
        "contract": "contracts/SafeNFT.sol:SafeNFT",
        "label": "soldPerPresaleWeek",
        "offset": 0,
        "slot": "44",
        "type": "t_mapping(t_address,t_mapping(t_uint256,t_mapping(t_uint256,t_uint256)))"
      },
      {
        "astId": 4803,
        "contract": "contracts/SafeNFT.sol:SafeNFT",
        "label": "presaleMaxSupply",
        "offset": 0,
        "slot": "45",
        "type": "t_array(t_uint256)4_storage"
      },
      {
        "astId": 4807,
        "contract": "contracts/SafeNFT.sol:SafeNFT",
        "label": "currentlySoldInPresale",
        "offset": 0,
        "slot": "49",
        "type": "t_array(t_uint256)4_storage"
      },
      {
        "astId": 4809,
        "contract": "contracts/SafeNFT.sol:SafeNFT",
        "label": "currentDistributionId",
        "offset": 0,
        "slot": "53",
        "type": "t_uint256"
      },
      {
        "astId": 4813,
        "contract": "contracts/SafeNFT.sol:SafeNFT",
        "label": "distributionOfProfit",
        "offset": 0,
        "slot": "54",
        "type": "t_mapping(t_uint256,t_uint256)"
      },
      {
        "astId": 4819,
        "contract": "contracts/SafeNFT.sol:SafeNFT",
        "label": "distributionByTier",
        "offset": 0,
        "slot": "55",
        "type": "t_mapping(t_uint256,t_array(t_uint256)4_storage)"
      },
      {
        "astId": 4825,
        "contract": "contracts/SafeNFT.sol:SafeNFT",
        "label": "distributionTotalSupplySnapshot",
        "offset": 0,
        "slot": "56",
        "type": "t_mapping(t_uint256,t_array(t_uint256)4_storage)"
      },
      {
        "astId": 4833,
        "contract": "contracts/SafeNFT.sol:SafeNFT",
        "label": "alreadyDistributedAmount",
        "offset": 0,
        "slot": "57",
        "type": "t_mapping(t_uint256,t_mapping(t_uint256,t_mapping(t_address,t_uint256)))"
      },
      {
        "astId": 4839,
        "contract": "contracts/SafeNFT.sol:SafeNFT",
        "label": "alreadyDistributedAmountByTier",
        "offset": 0,
        "slot": "58",
        "type": "t_mapping(t_uint256,t_array(t_uint256)4_storage)"
      }
    ],
    "types": {
      "t_address": {
        "encoding": "inplace",
        "label": "address",
        "numberOfBytes": "20"
      },
      "t_array(t_address)2_storage": {
        "base": "t_address",
        "encoding": "inplace",
        "label": "address[2]",
        "numberOfBytes": "64"
      },
      "t_array(t_array(t_uint256)4_storage)4_storage": {
        "base": "t_array(t_uint256)4_storage",
        "encoding": "inplace",
        "label": "uint256[4][4]",
        "numberOfBytes": "512"
      },
      "t_array(t_bytes32)dyn_storage": {
        "base": "t_bytes32",
        "encoding": "dynamic_array",
        "label": "bytes32[]",
        "numberOfBytes": "32"
      },
      "t_array(t_uint256)2_storage": {
        "base": "t_uint256",
        "encoding": "inplace",
        "label": "uint256[2]",
        "numberOfBytes": "64"
      },
      "t_array(t_uint256)4_storage": {
        "base": "t_uint256",
        "encoding": "inplace",
        "label": "uint256[4]",
        "numberOfBytes": "128"
      },
      "t_bool": {
        "encoding": "inplace",
        "label": "bool",
        "numberOfBytes": "1"
      },
      "t_bytes32": {
        "encoding": "inplace",
        "label": "bytes32",
        "numberOfBytes": "32"
      },
      "t_contract(IERC20)2651": {
        "encoding": "inplace",
        "label": "contract IERC20",
        "numberOfBytes": "20"
      },
      "t_contract(ISafeToken)6902": {
        "encoding": "inplace",
        "label": "contract ISafeToken",
        "numberOfBytes": "20"
      },
      "t_contract(ISafeVault)6923": {
        "encoding": "inplace",
        "label": "contract ISafeVault",
        "numberOfBytes": "20"
      },
      "t_mapping(t_address,t_bool)": {
        "encoding": "mapping",
        "key": "t_address",
        "label": "mapping(address => bool)",
        "numberOfBytes": "32",
        "value": "t_bool"
      },
      "t_mapping(t_address,t_mapping(t_address,t_bool))": {
        "encoding": "mapping",
        "key": "t_address",
        "label": "mapping(address => mapping(address => bool))",
        "numberOfBytes": "32",
        "value": "t_mapping(t_address,t_bool)"
      },
      "t_mapping(t_address,t_mapping(t_uint256,t_mapping(t_uint256,t_uint256)))": {
        "encoding": "mapping",
        "key": "t_address",
        "label": "mapping(address => mapping(uint256 => mapping(uint256 => uint256)))",
        "numberOfBytes": "32",
        "value": "t_mapping(t_uint256,t_mapping(t_uint256,t_uint256))"
      },
      "t_mapping(t_address,t_uint256)": {
        "encoding": "mapping",
        "key": "t_address",
        "label": "mapping(address => uint256)",
        "numberOfBytes": "32",
        "value": "t_uint256"
      },
      "t_mapping(t_bytes32,t_struct(AddressSet)4430_storage)": {
        "encoding": "mapping",
        "key": "t_bytes32",
        "label": "mapping(bytes32 => struct EnumerableSet.AddressSet)",
        "numberOfBytes": "32",
        "value": "t_struct(AddressSet)4430_storage"
      },
      "t_mapping(t_bytes32,t_struct(RoleData)19_storage)": {
        "encoding": "mapping",
        "key": "t_bytes32",
        "label": "mapping(bytes32 => struct AccessControl.RoleData)",
        "numberOfBytes": "32",
        "value": "t_struct(RoleData)19_storage"
      },
      "t_mapping(t_bytes32,t_uint256)": {
        "encoding": "mapping",
        "key": "t_bytes32",
        "label": "mapping(bytes32 => uint256)",
        "numberOfBytes": "32",
        "value": "t_uint256"
      },
      "t_mapping(t_uint256,t_array(t_uint256)4_storage)": {
        "encoding": "mapping",
        "key": "t_uint256",
        "label": "mapping(uint256 => uint256[4])",
        "numberOfBytes": "32",
        "value": "t_array(t_uint256)4_storage"
      },
      "t_mapping(t_uint256,t_mapping(t_address,t_uint256))": {
        "encoding": "mapping",
        "key": "t_uint256",
        "label": "mapping(uint256 => mapping(address => uint256))",
        "numberOfBytes": "32",
        "value": "t_mapping(t_address,t_uint256)"
      },
      "t_mapping(t_uint256,t_mapping(t_uint256,t_mapping(t_address,t_uint256)))": {
        "encoding": "mapping",
        "key": "t_uint256",
        "label": "mapping(uint256 => mapping(uint256 => mapping(address => uint256)))",
        "numberOfBytes": "32",
        "value": "t_mapping(t_uint256,t_mapping(t_address,t_uint256))"
      },
      "t_mapping(t_uint256,t_mapping(t_uint256,t_uint256))": {
        "encoding": "mapping",
        "key": "t_uint256",
        "label": "mapping(uint256 => mapping(uint256 => uint256))",
        "numberOfBytes": "32",
        "value": "t_mapping(t_uint256,t_uint256)"
      },
      "t_mapping(t_uint256,t_uint256)": {
        "encoding": "mapping",
        "key": "t_uint256",
        "label": "mapping(uint256 => uint256)",
        "numberOfBytes": "32",
        "value": "t_uint256"
      },
      "t_string_storage": {
        "encoding": "bytes",
        "label": "string",
        "numberOfBytes": "32"
      },
      "t_struct(AddressSet)4430_storage": {
        "encoding": "inplace",
        "label": "struct EnumerableSet.AddressSet",
        "members": [
          {
            "astId": 4429,
            "contract": "contracts/SafeNFT.sol:SafeNFT",
            "label": "_inner",
            "offset": 0,
            "slot": "0",
            "type": "t_struct(Set)4115_storage"
          }
        ],
        "numberOfBytes": "64"
      },
      "t_struct(RoleData)19_storage": {
        "encoding": "inplace",
        "label": "struct AccessControl.RoleData",
        "members": [
          {
            "astId": 16,
            "contract": "contracts/SafeNFT.sol:SafeNFT",
            "label": "members",
            "offset": 0,
            "slot": "0",
            "type": "t_mapping(t_address,t_bool)"
          },
          {
            "astId": 18,
            "contract": "contracts/SafeNFT.sol:SafeNFT",
            "label": "adminRole",
            "offset": 0,
            "slot": "1",
            "type": "t_bytes32"
          }
        ],
        "numberOfBytes": "64"
      },
      "t_struct(Set)4115_storage": {
        "encoding": "inplace",
        "label": "struct EnumerableSet.Set",
        "members": [
          {
            "astId": 4110,
            "contract": "contracts/SafeNFT.sol:SafeNFT",
            "label": "_values",
            "offset": 0,
            "slot": "0",
            "type": "t_array(t_bytes32)dyn_storage"
          },
          {
            "astId": 4114,
            "contract": "contracts/SafeNFT.sol:SafeNFT",
            "label": "_indexes",
            "offset": 0,
            "slot": "1",
            "type": "t_mapping(t_bytes32,t_uint256)"
          }
        ],
        "numberOfBytes": "64"
      },
      "t_uint256": {
        "encoding": "inplace",
        "label": "uint256",
        "numberOfBytes": "32"
      }
    }
  }
}