{
  "address": "0xD8b4C37DFFfe49AF06A4E700040e948DD7fADa9B",
  "abi": [
    {
      "inputs": [
        {
          "internalType": "string",
          "name": "_uri",
          "type": "string"
        },
        {
          "internalType": "uint256[4]",
          "name": "_price",
          "type": "uint256[4]"
        },
        {
          "internalType": "uint256[4]",
          "name": "_maxSupply",
          "type": "uint256[4]"
        },
        {
          "internalType": "contract ISafeToken",
          "name": "_safeToken",
          "type": "address"
        },
        {
          "internalType": "uint256[2]",
          "name": "_priceDistributionOnMint",
          "type": "uint256[2]"
        },
        {
          "internalType": "uint256[2]",
          "name": "_profitDistribution",
          "type": "uint256[2]"
        }
      ],
      "stateMutability": "nonpayable",
      "type": "constructor"
    },
    {
      "anonymous": false,
      "inputs": [
        {
          "indexed": true,
          "internalType": "address",
          "name": "account",
          "type": "address"
        },
        {
          "indexed": true,
          "internalType": "address",
          "name": "operator",
          "type": "address"
        },
        {
          "indexed": false,
          "internalType": "bool",
          "name": "approved",
          "type": "bool"
        }
      ],
      "name": "ApprovalForAll",
      "type": "event"
    },
    {
      "anonymous": false,
      "inputs": [
        {
          "indexed": false,
          "internalType": "address",
          "name": "account",
          "type": "address"
        }
      ],
      "name": "Paused",
      "type": "event"
    },
    {
      "anonymous": false,
      "inputs": [
        {
          "indexed": true,
          "internalType": "bytes32",
          "name": "role",
          "type": "bytes32"
        },
        {
          "indexed": true,
          "internalType": "bytes32",
          "name": "previousAdminRole",
          "type": "bytes32"
        },
        {
          "indexed": true,
          "internalType": "bytes32",
          "name": "newAdminRole",
          "type": "bytes32"
        }
      ],
      "name": "RoleAdminChanged",
      "type": "event"
    },
    {
      "anonymous": false,
      "inputs": [
        {
          "indexed": true,
          "internalType": "bytes32",
          "name": "role",
          "type": "bytes32"
        },
        {
          "indexed": true,
          "internalType": "address",
          "name": "account",
          "type": "address"
        },
        {
          "indexed": true,
          "internalType": "address",
          "name": "sender",
          "type": "address"
        }
      ],
      "name": "RoleGranted",
      "type": "event"
    },
    {
      "anonymous": false,
      "inputs": [
        {
          "indexed": true,
          "internalType": "bytes32",
          "name": "role",
          "type": "bytes32"
        },
        {
          "indexed": true,
          "internalType": "address",
          "name": "account",
          "type": "address"
        },
        {
          "indexed": true,
          "internalType": "address",
          "name": "sender",
          "type": "address"
        }
      ],
      "name": "RoleRevoked",
      "type": "event"
    },
    {
      "anonymous": false,
      "inputs": [
        {
          "indexed": true,
          "internalType": "address",
          "name": "operator",
          "type": "address"
        },
        {
          "indexed": true,
          "internalType": "address",
          "name": "from",
          "type": "address"
        },
        {
          "indexed": true,
          "internalType": "address",
          "name": "to",
          "type": "address"
        },
        {
          "indexed": false,
          "internalType": "uint256[]",
          "name": "ids",
          "type": "uint256[]"
        },
        {
          "indexed": false,
          "internalType": "uint256[]",
          "name": "values",
          "type": "uint256[]"
        }
      ],
      "name": "TransferBatch",
      "type": "event"
    },
    {
      "anonymous": false,
      "inputs": [
        {
          "indexed": true,
          "internalType": "address",
          "name": "operator",
          "type": "address"
        },
        {
          "indexed": true,
          "internalType": "address",
          "name": "from",
          "type": "address"
        },
        {
          "indexed": true,
          "internalType": "address",
          "name": "to",
          "type": "address"
        },
        {
          "indexed": false,
          "internalType": "uint256",
          "name": "id",
          "type": "uint256"
        },
        {
          "indexed": false,
          "internalType": "uint256",
          "name": "value",
          "type": "uint256"
        }
      ],
      "name": "TransferSingle",
      "type": "event"
    },
    {
      "anonymous": false,
      "inputs": [
        {
          "indexed": false,
          "internalType": "string",
          "name": "value",
          "type": "string"
        },
        {
          "indexed": true,
          "internalType": "uint256",
          "name": "id",
          "type": "uint256"
        }
      ],
      "name": "URI",
      "type": "event"
    },
    {
      "anonymous": false,
      "inputs": [
        {
          "indexed": false,
          "internalType": "address",
          "name": "account",
          "type": "address"
        }
      ],
      "name": "Unpaused",
      "type": "event"
    },
    {
      "inputs": [],
      "name": "DEFAULT_ADMIN_ROLE",
      "outputs": [
        {
          "internalType": "bytes32",
          "name": "",
          "type": "bytes32"
        }
      ],
      "stateMutability": "view",
      "type": "function"
    },
    {
      "inputs": [],
      "name": "MINTER_ROLE",
      "outputs": [
        {
          "internalType": "bytes32",
          "name": "",
          "type": "bytes32"
        }
      ],
      "stateMutability": "view",
      "type": "function"
    },
    {
      "inputs": [],
      "name": "PAUSER_ROLE",
      "outputs": [
        {
          "internalType": "bytes32",
          "name": "",
          "type": "bytes32"
        }
      ],
      "stateMutability": "view",
      "type": "function"
    },
    {
      "inputs": [],
      "name": "TIERS",
      "outputs": [
        {
          "internalType": "uint256",
          "name": "",
          "type": "uint256"
        }
      ],
      "stateMutability": "view",
      "type": "function"
    },
    {
      "inputs": [],
      "name": "WALLETS",
      "outputs": [
        {
          "internalType": "uint256",
          "name": "",
          "type": "uint256"
        }
      ],
      "stateMutability": "view",
      "type": "function"
    },
    {
      "inputs": [
        {
          "internalType": "uint256",
          "name": "",
          "type": "uint256"
        },
        {
          "internalType": "uint256",
          "name": "",
          "type": "uint256"
        },
        {
          "internalType": "address",
          "name": "",
          "type": "address"
        }
      ],
      "name": "alreadyDistributedAmount",
      "outputs": [
        {
          "internalType": "uint256",
          "name": "",
          "type": "uint256"
        }
      ],
      "stateMutability": "view",
      "type": "function"
    },
    {
      "inputs": [
        {
          "internalType": "uint256",
          "name": "",
          "type": "uint256"
        },
        {
          "internalType": "uint256",
          "name": "",
          "type": "uint256"
        }
      ],
      "name": "alreadyDistributedAmountByTier",
      "outputs": [
        {
          "internalType": "uint256",
          "name": "",
          "type": "uint256"
        }
      ],
      "stateMutability": "view",
      "type": "function"
    },
    {
      "inputs": [
        {
          "internalType": "address",
          "name": "account",
          "type": "address"
        },
        {
          "internalType": "uint256",
          "name": "id",
          "type": "uint256"
        }
      ],
      "name": "balanceOf",
      "outputs": [
        {
          "internalType": "uint256",
          "name": "",
          "type": "uint256"
        }
      ],
      "stateMutability": "view",
      "type": "function"
    },
    {
      "inputs": [
        {
          "internalType": "address[]",
          "name": "accounts",
          "type": "address[]"
        },
        {
          "internalType": "uint256[]",
          "name": "ids",
          "type": "uint256[]"
        }
      ],
      "name": "balanceOfBatch",
      "outputs": [
        {
          "internalType": "uint256[]",
          "name": "",
          "type": "uint256[]"
        }
      ],
      "stateMutability": "view",
      "type": "function"
    },
    {
      "inputs": [
        {
          "internalType": "address",
          "name": "account",
          "type": "address"
        },
        {
          "internalType": "uint256",
          "name": "id",
          "type": "uint256"
        },
        {
          "internalType": "uint256",
          "name": "value",
          "type": "uint256"
        }
      ],
      "name": "burn",
      "outputs": [],
      "stateMutability": "nonpayable",
      "type": "function"
    },
    {
      "inputs": [
        {
          "internalType": "address",
          "name": "account",
          "type": "address"
        },
        {
          "internalType": "uint256[]",
          "name": "ids",
          "type": "uint256[]"
        },
        {
          "internalType": "uint256[]",
          "name": "values",
          "type": "uint256[]"
        }
      ],
      "name": "burnBatch",
      "outputs": [],
      "stateMutability": "nonpayable",
      "type": "function"
    },
    {
      "inputs": [
        {
          "internalType": "enum ISafeNFT.Tiers",
          "name": "_tier",
          "type": "uint8"
        },
        {
          "internalType": "uint256",
          "name": "_amount",
          "type": "uint256"
        }
      ],
      "name": "buy",
      "outputs": [],
      "stateMutability": "nonpayable",
      "type": "function"
    },
    {
      "inputs": [
        {
          "internalType": "enum ISafeNFT.Tiers",
          "name": "_tier",
          "type": "uint8"
        },
        {
          "internalType": "uint256",
          "name": "_distributionId",
          "type": "uint256"
        }
      ],
      "name": "claimReward",
      "outputs": [],
      "stateMutability": "nonpayable",
      "type": "function"
    },
    {
      "inputs": [],
      "name": "claimRewardsTotal",
      "outputs": [],
      "stateMutability": "nonpayable",
      "type": "function"
    },
    {
      "inputs": [],
      "name": "currentDistributionId",
      "outputs": [
        {
          "internalType": "uint256",
          "name": "",
          "type": "uint256"
        }
      ],
      "stateMutability": "view",
      "type": "function"
    },
    {
      "inputs": [
        {
          "internalType": "uint256",
          "name": "_amountUSD",
          "type": "uint256"
        }
      ],
      "name": "distributeProfit",
      "outputs": [],
      "stateMutability": "nonpayable",
      "type": "function"
    },
    {
      "inputs": [
        {
          "internalType": "uint256",
          "name": "",
          "type": "uint256"
        },
        {
          "internalType": "uint256",
          "name": "",
          "type": "uint256"
        }
      ],
      "name": "distributionByTier",
      "outputs": [
        {
          "internalType": "uint256",
          "name": "",
          "type": "uint256"
        }
      ],
      "stateMutability": "view",
      "type": "function"
    },
    {
      "inputs": [
        {
          "internalType": "uint256",
          "name": "",
          "type": "uint256"
        }
      ],
      "name": "distributionOfProfit",
      "outputs": [
        {
          "internalType": "uint256",
          "name": "",
          "type": "uint256"
        }
      ],
      "stateMutability": "view",
      "type": "function"
    },
    {
      "inputs": [
        {
          "internalType": "uint256",
          "name": "",
          "type": "uint256"
        },
        {
          "internalType": "uint256",
          "name": "",
          "type": "uint256"
        }
      ],
      "name": "distributionTotalSupplySnapshot",
      "outputs": [
        {
          "internalType": "uint256",
          "name": "",
          "type": "uint256"
        }
      ],
      "stateMutability": "view",
      "type": "function"
    },
    {
      "inputs": [
        {
          "internalType": "uint256",
          "name": "id",
          "type": "uint256"
        }
      ],
      "name": "exists",
      "outputs": [
        {
          "internalType": "bool",
          "name": "",
          "type": "bool"
        }
      ],
      "stateMutability": "view",
      "type": "function"
    },
    {
      "inputs": [
        {
          "internalType": "enum ISafeNFT.Tiers",
          "name": "_tier",
          "type": "uint8"
        }
      ],
      "name": "getFairPrice",
      "outputs": [
        {
          "internalType": "uint256",
          "name": "",
          "type": "uint256"
        }
      ],
      "stateMutability": "view",
      "type": "function"
    },
    {
      "inputs": [],
      "name": "getMyPendingRewardsTotal",
      "outputs": [
        {
          "internalType": "uint256",
          "name": "",
          "type": "uint256"
        }
      ],
      "stateMutability": "nonpayable",
      "type": "function"
    },
    {
      "inputs": [
        {
          "internalType": "address",
          "name": "_user",
          "type": "address"
        },
        {
          "internalType": "enum ISafeNFT.Tiers",
          "name": "_tier",
          "type": "uint8"
        },
        {
          "internalType": "uint256",
          "name": "_distributionId",
          "type": "uint256"
        }
      ],
      "name": "getPendingRewards",
      "outputs": [
        {
          "internalType": "uint256",
          "name": "",
          "type": "uint256"
        }
      ],
      "stateMutability": "nonpayable",
      "type": "function"
    },
    {
      "inputs": [
        {
          "internalType": "enum ISafeNFT.Tiers",
          "name": "_tier",
          "type": "uint8"
        }
      ],
      "name": "getPrice",
      "outputs": [
        {
          "internalType": "uint256",
          "name": "",
          "type": "uint256"
        }
      ],
      "stateMutability": "view",
      "type": "function"
    },
    {
      "inputs": [
        {
          "internalType": "bytes32",
          "name": "role",
          "type": "bytes32"
        }
      ],
      "name": "getRoleAdmin",
      "outputs": [
        {
          "internalType": "bytes32",
          "name": "",
          "type": "bytes32"
        }
      ],
      "stateMutability": "view",
      "type": "function"
    },
    {
      "inputs": [
        {
          "internalType": "bytes32",
          "name": "role",
          "type": "bytes32"
        },
        {
          "internalType": "uint256",
          "name": "index",
          "type": "uint256"
        }
      ],
      "name": "getRoleMember",
      "outputs": [
        {
          "internalType": "address",
          "name": "",
          "type": "address"
        }
      ],
      "stateMutability": "view",
      "type": "function"
    },
    {
      "inputs": [
        {
          "internalType": "bytes32",
          "name": "role",
          "type": "bytes32"
        }
      ],
      "name": "getRoleMemberCount",
      "outputs": [
        {
          "internalType": "uint256",
          "name": "",
          "type": "uint256"
        }
      ],
      "stateMutability": "view",
      "type": "function"
    },
    {
      "inputs": [],
      "name": "getTotalSupplyAllTiers",
      "outputs": [
        {
          "internalType": "uint256",
          "name": "",
          "type": "uint256"
        }
      ],
      "stateMutability": "nonpayable",
      "type": "function"
    },
    {
      "inputs": [],
      "name": "getTreasuryCost",
      "outputs": [
        {
          "internalType": "uint256",
          "name": "",
          "type": "uint256"
        }
      ],
      "stateMutability": "nonpayable",
      "type": "function"
    },
    {
      "inputs": [],
      "name": "getUnclaimedRewards",
      "outputs": [
        {
          "internalType": "uint256",
          "name": "",
          "type": "uint256"
        }
      ],
      "stateMutability": "nonpayable",
      "type": "function"
    },
    {
      "inputs": [
        {
          "internalType": "bytes32",
          "name": "role",
          "type": "bytes32"
        },
        {
          "internalType": "address",
          "name": "account",
          "type": "address"
        }
      ],
      "name": "grantRole",
      "outputs": [],
      "stateMutability": "nonpayable",
      "type": "function"
    },
    {
      "inputs": [
        {
          "internalType": "bytes32",
          "name": "role",
          "type": "bytes32"
        },
        {
          "internalType": "address",
          "name": "account",
          "type": "address"
        }
      ],
      "name": "hasRole",
      "outputs": [
        {
          "internalType": "bool",
          "name": "",
          "type": "bool"
        }
      ],
      "stateMutability": "view",
      "type": "function"
    },
    {
      "inputs": [
        {
          "internalType": "string",
          "name": "_uri",
          "type": "string"
        },
        {
          "internalType": "uint256[4]",
          "name": "_price",
          "type": "uint256[4]"
        },
        {
          "internalType": "uint256[4]",
          "name": "_maxSupply",
          "type": "uint256[4]"
        },
        {
          "internalType": "contract ISafeToken",
          "name": "_safeToken",
          "type": "address"
        },
        {
          "internalType": "uint256[2]",
          "name": "_priceDistributionOnMint",
          "type": "uint256[2]"
        },
        {
          "internalType": "uint256[2]",
          "name": "_profitDistribution",
          "type": "uint256[2]"
        }
      ],
      "name": "initialize",
      "outputs": [],
      "stateMutability": "nonpayable",
      "type": "function"
    },
    {
      "inputs": [
        {
          "internalType": "address",
          "name": "account",
          "type": "address"
        },
        {
          "internalType": "address",
          "name": "operator",
          "type": "address"
        }
      ],
      "name": "isApprovedForAll",
      "outputs": [
        {
          "internalType": "bool",
          "name": "",
          "type": "bool"
        }
      ],
      "stateMutability": "view",
      "type": "function"
    },
    {
      "inputs": [
        {
          "internalType": "uint256",
          "name": "",
          "type": "uint256"
        }
      ],
      "name": "maxSupply",
      "outputs": [
        {
          "internalType": "uint256",
          "name": "",
          "type": "uint256"
        }
      ],
      "stateMutability": "view",
      "type": "function"
    },
    {
      "inputs": [
        {
          "internalType": "address",
          "name": "to",
          "type": "address"
        },
        {
          "internalType": "uint256",
          "name": "id",
          "type": "uint256"
        },
        {
          "internalType": "uint256",
          "name": "amount",
          "type": "uint256"
        },
        {
          "internalType": "bytes",
          "name": "data",
          "type": "bytes"
        }
      ],
      "name": "mint",
      "outputs": [],
      "stateMutability": "nonpayable",
      "type": "function"
    },
    {
      "inputs": [
        {
          "internalType": "address",
          "name": "to",
          "type": "address"
        },
        {
          "internalType": "uint256[]",
          "name": "ids",
          "type": "uint256[]"
        },
        {
          "internalType": "uint256[]",
          "name": "amounts",
          "type": "uint256[]"
        },
        {
          "internalType": "bytes",
          "name": "data",
          "type": "bytes"
        }
      ],
      "name": "mintBatch",
      "outputs": [],
      "stateMutability": "nonpayable",
      "type": "function"
    },
    {
      "inputs": [],
      "name": "name",
      "outputs": [
        {
          "internalType": "string",
          "name": "",
          "type": "string"
        }
      ],
      "stateMutability": "view",
      "type": "function"
    },
    {
      "inputs": [],
      "name": "pause",
      "outputs": [],
      "stateMutability": "nonpayable",
      "type": "function"
    },
    {
      "inputs": [],
      "name": "paused",
      "outputs": [
        {
          "internalType": "bool",
          "name": "",
          "type": "bool"
        }
      ],
      "stateMutability": "view",
      "type": "function"
    },
    {
      "inputs": [],
      "name": "percentOfTreasury",
      "outputs": [
        {
          "internalType": "uint256",
          "name": "",
          "type": "uint256"
        }
      ],
      "stateMutability": "nonpayable",
      "type": "function"
    },
    {
      "inputs": [
        {
          "internalType": "uint256",
          "name": "",
          "type": "uint256"
        }
      ],
      "name": "price",
      "outputs": [
        {
          "internalType": "uint256",
          "name": "",
          "type": "uint256"
        }
      ],
      "stateMutability": "view",
      "type": "function"
    },
    {
      "inputs": [
        {
          "internalType": "uint256",
          "name": "",
          "type": "uint256"
        }
      ],
      "name": "priceDistributionOnMint",
      "outputs": [
        {
          "internalType": "uint256",
          "name": "",
          "type": "uint256"
        }
      ],
      "stateMutability": "view",
      "type": "function"
    },
    {
      "inputs": [
        {
          "internalType": "uint256",
          "name": "",
          "type": "uint256"
        }
      ],
      "name": "profitDistribution",
      "outputs": [
        {
          "internalType": "uint256",
          "name": "",
          "type": "uint256"
        }
      ],
      "stateMutability": "view",
      "type": "function"
    },
    {
      "inputs": [
        {
          "internalType": "bytes32",
          "name": "role",
          "type": "bytes32"
        },
        {
          "internalType": "address",
          "name": "account",
          "type": "address"
        }
      ],
      "name": "renounceRole",
      "outputs": [],
      "stateMutability": "nonpayable",
      "type": "function"
    },
    {
      "inputs": [
        {
          "internalType": "bytes32",
          "name": "role",
          "type": "bytes32"
        },
        {
          "internalType": "address",
          "name": "account",
          "type": "address"
        }
      ],
      "name": "revokeRole",
      "outputs": [],
      "stateMutability": "nonpayable",
      "type": "function"
    },
    {
      "inputs": [
        {
          "internalType": "address",
          "name": "from",
          "type": "address"
        },
        {
          "internalType": "address",
          "name": "to",
          "type": "address"
        },
        {
          "internalType": "uint256[]",
          "name": "ids",
          "type": "uint256[]"
        },
        {
          "internalType": "uint256[]",
          "name": "amounts",
          "type": "uint256[]"
        },
        {
          "internalType": "bytes",
          "name": "data",
          "type": "bytes"
        }
      ],
      "name": "safeBatchTransferFrom",
      "outputs": [],
      "stateMutability": "nonpayable",
      "type": "function"
    },
    {
      "inputs": [],
      "name": "safeToken",
      "outputs": [
        {
          "internalType": "contract ISafeToken",
          "name": "",
          "type": "address"
        }
      ],
      "stateMutability": "view",
      "type": "function"
    },
    {
      "inputs": [
        {
          "internalType": "address",
          "name": "from",
          "type": "address"
        },
        {
          "internalType": "address",
          "name": "to",
          "type": "address"
        },
        {
          "internalType": "uint256",
          "name": "id",
          "type": "uint256"
        },
        {
          "internalType": "uint256",
          "name": "amount",
          "type": "uint256"
        },
        {
          "internalType": "bytes",
          "name": "data",
          "type": "bytes"
        }
      ],
      "name": "safeTransferFrom",
      "outputs": [],
      "stateMutability": "nonpayable",
      "type": "function"
    },
    {
      "inputs": [],
      "name": "safeVault",
      "outputs": [
        {
          "internalType": "contract ISafeVault",
          "name": "",
          "type": "address"
        }
      ],
      "stateMutability": "view",
      "type": "function"
    },
    {
      "inputs": [
        {
          "internalType": "address",
          "name": "operator",
          "type": "address"
        },
        {
          "internalType": "bool",
          "name": "approved",
          "type": "bool"
        }
      ],
      "name": "setApprovalForAll",
      "outputs": [],
      "stateMutability": "nonpayable",
      "type": "function"
    },
    {
      "inputs": [
        {
          "internalType": "bytes4",
          "name": "interfaceId",
          "type": "bytes4"
        }
      ],
      "name": "supportsInterface",
      "outputs": [
        {
          "internalType": "bool",
          "name": "",
          "type": "bool"
        }
      ],
      "stateMutability": "view",
      "type": "function"
    },
    {
      "inputs": [
        {
          "internalType": "uint256",
          "name": "id",
          "type": "uint256"
        }
      ],
      "name": "totalSupply",
      "outputs": [
        {
          "internalType": "uint256",
          "name": "",
          "type": "uint256"
        }
      ],
      "stateMutability": "view",
      "type": "function"
    },
    {
      "inputs": [],
      "name": "unpause",
      "outputs": [],
      "stateMutability": "nonpayable",
      "type": "function"
    },
    {
      "inputs": [
        {
          "internalType": "uint256",
          "name": "",
          "type": "uint256"
        }
      ],
      "name": "uri",
      "outputs": [
        {
          "internalType": "string",
          "name": "",
          "type": "string"
        }
      ],
      "stateMutability": "view",
      "type": "function"
    },
    {
      "inputs": [],
      "name": "usd",
      "outputs": [
        {
          "internalType": "contract IERC20",
          "name": "",
          "type": "address"
        }
      ],
      "stateMutability": "view",
      "type": "function"
    },
    {
      "inputs": [
        {
          "internalType": "uint256",
          "name": "",
          "type": "uint256"
        }
      ],
      "name": "wallets",
      "outputs": [
        {
          "internalType": "address",
          "name": "",
          "type": "address"
        }
      ],
      "stateMutability": "view",
      "type": "function"
    }
  ],
  "transactionHash": "0xa1d1c4b1faec0b83219ebda7a6a087502dfe8e3b56e562eb34946511ae2472db",
  "args": [
    "",
    [
      "131250000000000000000",
      "262500000000000000000",
      "525000000000000000000",
      "1050000000000000000000"
    ],
    [
      2000,
      1000,
      1000,
      1000
    ],
    "0xF3c420B081422C51533150664Fc8F2fb77E39296",
    [
      7500,
      2000
    ],
    [
      2500,
      2000
    ]
  ],
  "numDeployments": 3,
  "solcInputHash": "7a89434d53a2f0f8c2a2faaefbf2bedc",
  "bytecode": "0x60806040523480156200001157600080fd5b50604051620056023803806200560283398101604081905262000034916200087e565b85806200004181620000ac565b506007805460ff1916905562000059600033620000be565b62000074600080516020620055e283398151915233620000be565b6200008f600080516020620055c283398151915233620000be565b50620000a0868686868686620000ca565b50505050505062000ba4565b6006620000ba828262000a26565b5050565b620000ba8282620004dd565b6000620000e4600080516020620055a28339815191525490565b90506001600160a01b03811662000114576001600160a01b03600080516020620055a2833981519152556200012a565b336001600160a01b038216146200012a57600080fd5b6200013587620000ac565b62000142600033620000be565b6200015d600080516020620055e283398151915233620000be565b62000178600080516020620055c283398151915233620000be565b62000187600987600462000640565b5062000197600d86600462000640565b50601180546001600160a01b0319166001600160a01b038616179055620001c2601484600262000683565b50620001d2601683600262000683565b506011546040805163db7a460560e01b8152815162000248936001600160a01b03169263db7a460592600480820193918290030181865afa1580156200021c573d6000803e3d6000fd5b505050506040513d601f19601f8201168201806040525081019062000242919062000af2565b62000520565b601160009054906101000a90046001600160a01b03166001600160a01b031663deef94de6040518163ffffffff1660e01b8152600401602060405180830381865afa1580156200029c573d6000803e3d6000fd5b505050506040513d601f19601f82011682018060405250810190620002c2919062000b59565b601280546001600160a01b0319166001600160a01b039283161790556011546040805163d63a6ccd60e01b81529051919092169163d63a6ccd9160048083019260209291908290030181865afa15801562000321573d6000803e3d6000fd5b505050506040513d601f19601f8201168201806040525081019062000347919062000b59565b601380546001600160a01b0319166001600160a01b0392831690811790915560115460405163095ea7b360e01b81529216600483015260001960248301529063095ea7b3906044016020604051808303816000875af1158015620003af573d6000803e3d6000fd5b505050506040513d601f19601f82011682018060405250810190620003d5919062000b80565b5060135460125460405163095ea7b360e01b81526001600160a01b039182166004820152600019602482015291169063095ea7b3906044016020604051808303816000875af11580156200042d573d6000803e3d6000fd5b505050506040513d601f19601f8201168201806040525081019062000453919062000b80565b5060115460405163095ea7b360e01b81526001600160a01b039091166004820181905260001960248301529063095ea7b3906044016020604051808303816000875af1158015620004a8573d6000803e3d6000fd5b505050506040513d601f19601f82011682018060405250810190620004ce919062000b80565b50506000601855505050505050565b620004f482826200052e60201b62001fc61760201c565b60008281526001602090815260409091206200051b9183906200204a620005ce821b17901c565b505050565b620000ba60028281620006b3565b6000828152602081815260408083206001600160a01b038516845290915290205460ff16620000ba576000828152602081815260408083206001600160a01b03851684529091529020805460ff191660011790556200058a3390565b6001600160a01b0316816001600160a01b0316837f2f8788117e7eff1d82e926ec794901d17c78024a50270940304540a733656f0d60405160405180910390a45050565b6000620005e5836001600160a01b038416620005ee565b90505b92915050565b60008181526001830160205260408120546200063757508154600181810184556000848152602080822090930184905584548482528286019093526040902091909155620005e8565b506000620005e8565b826004810192821562000671579160200282015b828111156200067157825182559160200191906001019062000654565b506200067f929150620006fe565b5090565b82600281019282156200067157916020028201828111156200067157825182559160200191906001019062000654565b826002810192821562000671579160200282015b828111156200067157825182546001600160a01b0319166001600160a01b03909116178255602090920191600190910190620006c7565b5b808211156200067f5760008155600101620006ff565b634e487b7160e01b600052604160045260246000fd5b604080519081016001600160401b038111828210171562000750576200075062000715565b60405290565b604051601f8201601f191681016001600160401b038111828210171562000781576200078162000715565b604052919050565b600082601f8301126200079b57600080fd5b604051608081016001600160401b0381118282101715620007c057620007c062000715565b604052806080840185811115620007d657600080fd5b845b81811015620007f2578051835260209283019201620007d8565b509195945050505050565b6001600160a01b03811681146200081357600080fd5b50565b80516200082381620007fd565b919050565b600082601f8301126200083a57600080fd5b620008446200072b565b8060408401858111156200085757600080fd5b845b818110156200087357805184526020938401930162000859565b509095945050505050565b6000806000806000806101c087890312156200089957600080fd5b86516001600160401b0380821115620008b157600080fd5b818901915089601f830112620008c657600080fd5b815181811115620008db57620008db62000715565b60209150620008f3601f8201601f1916830162000756565b8181528b838386010111156200090857600080fd5b60005b82811015620009285784810184015182820185015283016200090b565b5060008383830101528099505050620009448a828b0162000789565b96505050620009578860a0890162000789565b935062000968610120880162000816565b92506200097a88610140890162000828565b91506200098c88610180890162000828565b90509295509295509295565b600181811c90821680620009ad57607f821691505b602082108103620009ce57634e487b7160e01b600052602260045260246000fd5b50919050565b601f8211156200051b57600081815260208120601f850160051c81016020861015620009fd5750805b601f850160051c820191505b8181101562000a1e5782815560010162000a09565b505050505050565b81516001600160401b0381111562000a425762000a4262000715565b62000a5a8162000a53845462000998565b84620009d4565b602080601f83116001811462000a92576000841562000a795750858301515b600019600386901b1c1916600185901b17855562000a1e565b600085815260208120601f198616915b8281101562000ac35788860151825594840194600190910190840162000aa2565b508582101562000ae25787850151600019600388901b60f8161c191681555b5050505050600190811b01905550565b60006040828403121562000b0557600080fd5b82601f83011262000b1557600080fd5b62000b1f6200072b565b80604084018581111562000b3257600080fd5b845b818110156200087357805162000b4a81620007fd565b84526020938401930162000b34565b60006020828403121562000b6c57600080fd5b815162000b7981620007fd565b9392505050565b60006020828403121562000b9357600080fd5b8151801515811462000b7957600080fd5b6149ee8062000bb46000396000f3fe608060405234801561001057600080fd5b50600436106103825760003560e01c8063731133e9116101de578063ca7b24471161010f578063deef94de116100ad578063f03f1e511161007c578063f03f1e5114610807578063f0b2df891461080f578063f242432a14610822578063f5298aca1461083557600080fd5b8063deef94de1461077e578063df71da7614610791578063e63ab1e9146107a4578063e985e9c5146107cb57600080fd5b8063d36dfac8116100e9578063d36dfac81461071e578063d539139314610731578063d547741f14610758578063d63a6ccd1461076b57600080fd5b8063ca7b2447146106d2578063ced79ce0146106e5578063d36122b81461071657600080fd5b80639010d07c1161017c578063a22cb46511610156578063a22cb46514610679578063bceef70c1461068c578063bd85b0391461069f578063ca15c873146106bf57600080fd5b80639010d07c1461064b57806391d148541461065e578063a217fddf1461067157600080fd5b80637e93391a116101b85780637e93391a1461041e5780638456cb5914610628578063869f7594146106305780638d3bd55b1461064357600080fd5b8063731133e9146105f9578063780069e01461060c5780637ad71f721461061557600080fd5b806336568abe116102b857806353f7ffd2116102565780635e95b4fe116102305780635e95b4fe146105b857806362f791c0146105cb5780636b20c454146105de5780636e748f97146105f157600080fd5b806353f7ffd214610587578063592fa65e1461059a5780635c975abb146105ad57600080fd5b8063418f7c5111610292578063418f7c51146105075780634b3fd05a1461051a5780634e1273f4146105455780634f558e791461056557600080fd5b806336568abe146104d957806337f1e7f2146104ec5780633f4ba83a146104ff57600080fd5b8063168affdf11610325578063248a9ca3116102ff578063248a9ca31461047d57806326a49e37146104a05780632eb2c2d6146104b35780632f2ff15d146104c657600080fd5b8063168affdf146104405780631a5e85e5146104605780631f7fdffa1461046857600080fd5b806306fdde031161036157806306fdde03146103e3578063089f001c1461041e5780630e89341c14610425578063162302571461043857600080fd5b8062fdd58e1461038757806301ffc9a7146103ad57806304ca4c07146103d0575b600080fd5b61039a610395366004613920565b610848565b6040519081526020015b60405180910390f35b6103c06103bb366004613962565b6108e3565b60405190151581526020016103a4565b61039a6103de36600461397f565b6108ee565b6104116040518060400160405280600f81526020016e14d8599948165a595b191cc8139195608a1b81525081565b6040516103a491906139f1565b600061039a565b610411610433366004613a04565b610913565b61039a6109a7565b61039a61044e366004613a04565b60196020526000908152604090205481565b61039a610a44565b61047b610476366004613b95565b610a7f565b005b61039a61048b366004613a04565b60009081526020819052604090206001015490565b61039a6104ae366004613a04565b610ad7565b61047b6104c1366004613c2f565b610aee565b61047b6104d4366004613cdc565b610b3a565b61047b6104e7366004613cdc565b610b64565b61039a6104fa366004613d20565b610be2565b61047b610c10565b61039a610515366004613d3b565b610cb6565b60115461052d906001600160a01b031681565b6040516001600160a01b0390911681526020016103a4565b610558610553366004613d79565b610d67565b6040516103a49190613e80565b6103c0610573366004613a04565b600090815260086020526040902054151590565b61047b610595366004613e93565b610e90565b61039a6105a836600461397f565b610f85565b60075460ff166103c0565b61039a6105c636600461397f565b610fa1565b61047b6105d9366004613e93565b610fbd565b61047b6105ec366004613eaf565b611419565b61039a600481565b61047b610607366004613f24565b61145c565b61039a60185481565b61052d610623366004613a04565b6114ae565b61047b6114ce565b61039a61063e366004613a04565b611572565b61039a600281565b61052d61065936600461397f565b611582565b6103c061066c366004613cdc565b6115a1565b61039a600081565b61047b610687366004613f88565b6115ca565b61047b61069a366004614052565b6115d5565b61039a6106ad366004613a04565b60009081526008602052604090205490565b61039a6106cd366004613a04565b611a04565b61039a6106e0366004613a04565b611a1b565b61039a6106f33660046140fe565b601c60209081526000938452604080852082529284528284209052825290205481565b61047b611a2b565b61047b61072c366004613a04565b611a86565b61039a7f9f2df0fed2c77648de5860a4cc508cd0818c85b8b8a1ab4ceeef8d981c8956a681565b61047b610766366004613cdc565b611e14565b60135461052d906001600160a01b031681565b60125461052d906001600160a01b031681565b61039a61079f366004613a04565b611e39565b61039a7f65d7a28e3265b37a6474929f336521b332c1681b933f6cb9f3376673440d862a81565b6103c06107d9366004614137565b6001600160a01b03918216600090815260056020908152604080832093909416825291909152205460ff1690565b61039a611e49565b61039a61081d366004613d20565b611eb8565b61047b610830366004614165565b611f3e565b61047b6108433660046141cd565b611f83565b60006001600160a01b0383166108b85760405162461bcd60e51b815260206004820152602a60248201527f455243313135353a2061646472657373207a65726f206973206e6f742061207660448201526930b634b21037bbb732b960b11b60648201526084015b60405180910390fd5b5060008181526004602090815260408083206001600160a01b03861684529091529020545b92915050565b60006108dd8261205f565b601a602052816000526040600020816004811061090a57600080fd5b01549150829050565b60606006805461092290614202565b80601f016020809104026020016040519081016040528092919081815260200182805461094e90614202565b801561099b5780601f106109705761010080835404028352916020019161099b565b820191906000526020600020905b81548152906001019060200180831161097e57829003601f168201915b50505050509050919050565b600080805b6004811015610a3e5760005b6018548111610a2b576000818152601d6020526040902082600481106109e0576109e0614236565b01546000828152601a602052604090208360048110610a0157610a01614236565b0154610a0d9190614262565b610a179084614275565b925080610a2381614288565b9150506109b8565b5080610a3681614288565b9150506109ac565b50919050565b600080805b6004811015610a3e57600081815260086020526040902054610a6b9083614275565b915080610a7781614288565b915050610a49565b610aa97f9f2df0fed2c77648de5860a4cc508cd0818c85b8b8a1ab4ceeef8d981c8956a6336115a1565b610ac55760405162461bcd60e51b81526004016108af906142a1565b610ad18484848461206a565b50505050565b60098160048110610ae757600080fd5b0154905081565b6001600160a01b038516331480610b0a5750610b0a85336107d9565b610b265760405162461bcd60e51b81526004016108af906142fe565b610b3385858585856121d4565b5050505050565b600082815260208190526040902060010154610b558161238f565b610b5f8383612399565b505050565b6001600160a01b0381163314610bd45760405162461bcd60e51b815260206004820152602f60248201527f416363657373436f6e74726f6c3a2063616e206f6e6c792072656e6f756e636560448201526e103937b632b9903337b91039b2b63360891b60648201526084016108af565b610bde82826123bb565b5050565b60006009826003811115610bf857610bf861434c565b60048110610c0857610c08614236565b015492915050565b610c3a7f65d7a28e3265b37a6474929f336521b332c1681b933f6cb9f3376673440d862a336115a1565b610cac5760405162461bcd60e51b815260206004820152603b60248201527f455243313135355072657365744d696e7465725061757365723a206d7573742060448201527f686176652070617573657220726f6c6520746f20756e7061757365000000000060648201526084016108af565b610cb46123dd565b565b600080836003811115610ccb57610ccb61434c565b6018546000908152601a60205260408120919250908260048110610cf157610cf1614236565b015460008381526008602052604081205491925090610d108885610848565b610d1a9084614362565b610d249190614379565b6000868152601c6020908152604080832087845282528083206001600160a01b038c168452909152902054909150610d5c9082614262565b979650505050505050565b60608151835114610dcc5760405162461bcd60e51b815260206004820152602960248201527f455243313135353a206163636f756e747320616e6420696473206c656e677468604482015268040dad2e6dac2e8c6d60bb1b60648201526084016108af565b600083516001600160401b03811115610de757610de7613a1d565b604051908082528060200260200182016040528015610e10578160200160208202803683370190505b50905060005b8451811015610e8857610e5b858281518110610e3457610e34614236565b6020026020010151858381518110610e4e57610e4e614236565b6020026020010151610848565b828281518110610e6d57610e6d614236565b6020908102919091010152610e8181614288565b9050610e16565b509392505050565b336000610e9e828585610cb6565b60135460405163a9059cbb60e01b81526001600160a01b0385811660048301526024820184905292935091169063a9059cbb906044016020604051808303816000875af1158015610ef3573d6000803e3d6000fd5b505050506040513d601f19601f82011682018060405250810190610f17919061439b565b506000838152601c602052604081208291866003811115610f3a57610f3a61434c565b81526020019081526020016000206000846001600160a01b03166001600160a01b031681526020019081526020016000206000828254610f7a9190614275565b909155505050505050565b601d602052816000526040600020816004811061090a57600080fd5b601b602052816000526040600020816004811061090a57600080fd5b610fe86040518060400160405280600a815260200169189d5e5a5b99c813919560b21b81525061242f565b6000811161105e5760405162461bcd60e51b815260206004820152603860248201527f455243313135355072657365744d696e7465725061757365723a20616d6f756e60448201527f74206d7573742062652067726561746572207468616e2030000000000000000060648201526084016108af565b600060098360038111156110745761107461434c565b6004811061108457611084614236565b0154116110f95760405162461bcd60e51b815260206004820152603c60248201527f455243313135355072657365744d696e7465725061757365723a20746965722060448201527f7072696365206d7573742062652067726561746572207468616e20300000000060648201526084016108af565b600082600381111561110d5761110d61434c565b905060008260098560038111156111265761112661434c565b6004811061113657611136614236565b01546111429190614362565b905061117b604051806040016040528060158152602001747472616e7366657272696e6720757364507269636560581b81525082612472565b6013546001600160a01b03166323b872dd336040516001600160e01b031960e084901b1681526001600160a01b039091166004820152306024820152604481018490526064016020604051808303816000875af11580156111e0573d6000803e3d6000fd5b505050506040513d601f19601f82011682018060405250810190611204919061439b565b5060006112128260146124b7565b90506112536040518060400160405280601a81526020017f7472616e7366657272696e6720746f53656c6c466f725361666500000000000081525082612472565b60115460405163f7e0ba5f60e01b8152600481018390526000916001600160a01b03169063f7e0ba5f906024016020604051808303816000875af115801561129f573d6000803e3d6000fd5b505050506040513d601f19601f820116820180604052508101906112c391906143b8565b905061130060405180604001604052806019815260200178039b0b332a0b6b7bab73a103932ba3ab93732b210333937b69603d1b81525082612472565b60115460009061131b906001600160a01b0316836014612517565b6013546040516370a0823160e01b81523060048201529192506000916001600160a01b03909116906370a0823190602401602060405180830381865afa158015611369573d6000803e3d6000fd5b505050506040513d601f19601f8201168201806040525081019061138d91906143b8565b905080156113f45760125460405163b6b55f2560e01b8152600481018390526001600160a01b039091169063b6b55f2590602401600060405180830381600087803b1580156113db57600080fd5b505af11580156113ef573d6000803e3d6000fd5b505050505b61140f3387896040518060200160405280600081525061274e565b5050505050505050565b6001600160a01b038316331480611435575061143583336107d9565b6114515760405162461bcd60e51b81526004016108af906142fe565b610b5f83838361283f565b6114867f9f2df0fed2c77648de5860a4cc508cd0818c85b8b8a1ab4ceeef8d981c8956a6336115a1565b6114a25760405162461bcd60e51b81526004016108af906142a1565b610ad18484848461274e565b600281600281106114be57600080fd5b01546001600160a01b0316905081565b6114f87f65d7a28e3265b37a6474929f336521b332c1681b933f6cb9f3376673440d862a336115a1565b61156a5760405162461bcd60e51b815260206004820152603960248201527f455243313135355072657365744d696e7465725061757365723a206d7573742060448201527f686176652070617573657220726f6c6520746f2070617573650000000000000060648201526084016108af565b610cb46129e8565b600d8160048110610ae757600080fd5b600082815260016020526040812061159a9083612a25565b9392505050565b6000918252602082815260408084206001600160a01b0393909316845291905290205460ff1690565b610bde338383612a31565b60006115ff7fb53127684a568b3173ae13b9f8a6016e243e63b6e8ee1178d6a717850b5d61035490565b90506001600160a01b03811661163e576001600160a01b037fb53127684a568b3173ae13b9f8a6016e243e63b6e8ee1178d6a717850b5d610355611653565b336001600160a01b0382161461165357600080fd5b61165c87612b11565b611667600033612b1d565b6116917f9f2df0fed2c77648de5860a4cc508cd0818c85b8b8a1ab4ceeef8d981c8956a633612b1d565b6116bb7f65d7a28e3265b37a6474929f336521b332c1681b933f6cb9f3376673440d862a33612b1d565b6116c86009876004613843565b506116d6600d866004613843565b50601180546001600160a01b0319166001600160a01b0386161790556116ff6014846002613881565b5061170d6016836002613881565b506011546040805163db7a460560e01b8152815161177e936001600160a01b03169263db7a460592600480820193918290030181865afa158015611755573d6000803e3d6000fd5b505050506040513d601f19601f8201168201806040525081019061177991906143d1565b612b27565b601160009054906101000a90046001600160a01b03166001600160a01b031663deef94de6040518163ffffffff1660e01b8152600401602060405180830381865afa1580156117d1573d6000803e3d6000fd5b505050506040513d601f19601f820116820180604052508101906117f59190614433565b601280546001600160a01b0319166001600160a01b039283161790556011546040805163d63a6ccd60e01b81529051919092169163d63a6ccd9160048083019260209291908290030181865afa158015611853573d6000803e3d6000fd5b505050506040513d601f19601f820116820180604052508101906118779190614433565b601380546001600160a01b0319166001600160a01b0392831690811790915560115460405163095ea7b360e01b81529216600483015260001960248301529063095ea7b3906044016020604051808303816000875af11580156118de573d6000803e3d6000fd5b505050506040513d601f19601f82011682018060405250810190611902919061439b565b5060135460125460405163095ea7b360e01b81526001600160a01b039182166004820152600019602482015291169063095ea7b3906044016020604051808303816000875af1158015611959573d6000803e3d6000fd5b505050506040513d601f19601f8201168201806040525081019061197d919061439b565b5060115460405163095ea7b360e01b81526001600160a01b039091166004820181905260001960248301529063095ea7b3906044016020604051808303816000875af11580156119d1573d6000803e3d6000fd5b505050506040513d601f19601f820116820180604052508101906119f5919061439b565b50506000601855505050505050565b60008181526001602052604081206108dd90612b33565b60168160028110610ae757600080fd5b60005b6004811015611a835760005b6018548111611a7057611a5e826003811115611a5857611a5861434c565b82610e90565b80611a6881614288565b915050611a3a565b5080611a7b81614288565b915050611a2e565b50565b611abd604051806040016040528060158152602001747472616e7366657272696e6720757364507269636560581b81525082612472565b6013546001600160a01b03166323b872dd336040516001600160e01b031960e084901b1681526001600160a01b039091166004820152306024820152604481018490526064016020604051808303816000875af1158015611b22573d6000803e3d6000fd5b505050506040513d601f19601f82011682018060405250810190611b46919061439b565b506000611b54600283614379565b90506000611b6c611b658385614262565b60166124b7565b9050611bad6040518060400160405280601a81526020017f7472616e7366657272696e6720746f53656c6c466f725361666500000000000081525082612472565b60115460405163f7e0ba5f60e01b8152600481018390526000916001600160a01b03169063f7e0ba5f906024016020604051808303816000875af1158015611bf9573d6000803e3d6000fd5b505050506040513d601f19601f82011682018060405250810190611c1d91906143b8565b9050611c5a60405180604001604052806019815260200178039b0b332a0b6b7bab73a103932ba3ab93732b210333937b69603d1b81525082612472565b601154600090611c75906001600160a01b0316836016612517565b601880549192506000611c8783614288565b90915550506018546000908152601960205260408120829055611ca8610a44565b905060005b6004811015611d36576000818152600860209081526040808320546018548452601b90925290912081908360048110611ce857611ce8614236565b015582611cf58289614362565b611cff9190614379565b6018546000908152601a602052604090208360048110611d2157611d21614236565b01555080611d2e81614288565b915050611cad565b506013546040516370a0823160e01b81523060048201526000916001600160a01b0316906370a0823190602401602060405180830381865afa158015611d80573d6000803e3d6000fd5b505050506040513d601f19601f82011682018060405250810190611da491906143b8565b90508015611e0b5760125460405163b6b55f2560e01b8152600481018390526001600160a01b039091169063b6b55f2590602401600060405180830381600087803b158015611df257600080fd5b505af1158015611e06573d6000803e3d6000fd5b505050505b50505050505050565b600082815260208190526040902060010154611e2f8161238f565b610b5f83836123bb565b60148160028110610ae757600080fd5b60003381805b6004811015611eb15760005b6018548111611e9e57611e8084836003811115611e7a57611e7a61434c565b83610cb6565b611e8a9084614275565b925080611e9681614288565b915050611e5b565b5080611ea981614288565b915050611e4f565b5092915050565b6000611ecf8260038111156106ad576106ad61434c565b6018546000908152601a60205260409020836003811115611ef257611ef261434c565b60048110611f0257611f02614236565b0154611f0e9190614379565b6009836003811115611f2257611f2261434c565b60048110611f3257611f32614236565b01546108dd9190614275565b6001600160a01b038516331480611f5a5750611f5a85336107d9565b611f765760405162461bcd60e51b81526004016108af906142fe565b610b338585858585612b3d565b6001600160a01b038316331480611f9f5750611f9f83336107d9565b611fbb5760405162461bcd60e51b81526004016108af906142fe565b610b5f838383612c87565b611fd082826115a1565b610bde576000828152602081815260408083206001600160a01b03851684529091529020805460ff191660011790556120063390565b6001600160a01b0316816001600160a01b0316837f2f8788117e7eff1d82e926ec794901d17c78024a50270940304540a733656f0d60405160405180910390a45050565b600061159a836001600160a01b038416612dad565b60006108dd82612dfc565b6001600160a01b0384166120905760405162461bcd60e51b81526004016108af90614450565b81518351146120b15760405162461bcd60e51b81526004016108af90614491565b336120c181600087878787612e3c565b60005b845181101561215d578381815181106120df576120df614236565b6020026020010151600460008784815181106120fd576120fd614236565b602002602001015181526020019081526020016000206000886001600160a01b03166001600160a01b0316815260200190815260200160002060008282546121459190614275565b9091555081905061215581614288565b9150506120c4565b50846001600160a01b031660006001600160a01b0316826001600160a01b03167f4a39dc06d4c0dbc64b70af90fd698a233a518aa5d07e595d983b8c0526c8f7fb87876040516121ae9291906144d9565b60405180910390a46121c581600087878787612e4a565b610b3381600087878787612efc565b81518351146121f55760405162461bcd60e51b81526004016108af90614491565b6001600160a01b03841661221b5760405162461bcd60e51b81526004016108af90614507565b3361222a818787878787612e3c565b60005b845181101561231357600085828151811061224a5761224a614236565b60200260200101519050600085838151811061226857612268614236565b60209081029190910181015160008481526004835260408082206001600160a01b038e1683529093529190912054909150818110156122b95760405162461bcd60e51b81526004016108af9061454c565b60008381526004602090815260408083206001600160a01b038e8116855292528083208585039055908b168252812080548492906122f8908490614275565b925050819055505050508061230c90614288565b905061222d565b50846001600160a01b0316866001600160a01b0316826001600160a01b03167f4a39dc06d4c0dbc64b70af90fd698a233a518aa5d07e595d983b8c0526c8f7fb87876040516123639291906144d9565b60405180910390a4612379818787878787612e4a565b612387818787878787612efc565b505050505050565b611a838133613057565b6123a38282611fc6565b6000828152600160205260409020610b5f908261204a565b6123c582826130b0565b6000828152600160205260409020610b5f9082613115565b6123e561312a565b6007805460ff191690557f5db9ee0a495bf2e6ff9c91a7834c1ba4fdd244a5e8aa4e537bd38aeae4b073aa335b6040516001600160a01b03909116815260200160405180910390a1565b611a838160405160240161244391906139f1565b60408051601f198184030181529190526020810180516001600160e01b031663104c13eb60e21b179052613173565b610bde8282604051602401612488929190614596565b60408051601f198184030181529190526020810180516001600160e01b0316632d839cb360e21b179052613173565b600080805b60028110156124f7578381600281106124d7576124d7614236565b01546124e39083614275565b9150806124ef81614288565b9150506124bc565b506127106125058286614362565b61250f9190614379565b949350505050565b600061254a6040518060400160405280600f81526020016e446973747269627574696e6720257360881b81525084612472565b604080518082018252600a81526962616c616e636520257360b01b602082015290516370a0823160e01b81523060048201526125db91906001600160a01b038716906370a0823190602401602060405180830381865afa1580156125b2573d6000803e3d6000fd5b505050506040513d601f19601f820116820180604052508101906125d691906143b8565b612472565b6000805b600281101561271d5760006127108583600281106125ff576125ff614236565b015461260b9088614362565b6126159190614379565b90506126676040518060400160405280601081526020016f73656e64696e6720257320746f20257360801b815250846002856002811061265757612657614236565b01546001600160a01b0316613194565b866001600160a01b031663a9059cbb6002846002811061268957612689614236565b015460405160e083901b6001600160e01b03191681526001600160a01b039091166004820152602481018490526044016020604051808303816000875af11580156126d8573d6000803e3d6000fd5b505050506040513d601f19601f820116820180604052508101906126fc919061439b565b506127078184614275565b925050808061271590614288565b9150506125df565b5061250f6040518060400160405280600e81526020016d446973747269627574656420257360901b81525082612472565b6001600160a01b0384166127745760405162461bcd60e51b81526004016108af90614450565b336000612780856131db565b9050600061278d856131db565b905061279e83600089858589612e3c565b60008681526004602090815260408083206001600160a01b038b168452909152812080548792906127d0908490614275565b909155505060408051878152602081018790526001600160a01b03808a1692600092918716917fc3d58168c5ae7397731d063d5bbf3d657854427343f4c083240f7aacaa2d0f62910160405180910390a461283083600089858589612e4a565b611e0b83600089898989613226565b6001600160a01b0383166128655760405162461bcd60e51b81526004016108af906145b8565b80518251146128865760405162461bcd60e51b81526004016108af90614491565b60003390506128a981856000868660405180602001604052806000815250612e3c565b60005b83518110156129715760008482815181106128c9576128c9614236565b6020026020010151905060008483815181106128e7576128e7614236565b60209081029190910181015160008481526004835260408082206001600160a01b038c1683529093529190912054909150818110156129385760405162461bcd60e51b81526004016108af906145fb565b60009283526004602090815260408085206001600160a01b038b168652909152909220910390558061296981614288565b9150506128ac565b5060006001600160a01b0316846001600160a01b0316826001600160a01b03167f4a39dc06d4c0dbc64b70af90fd698a233a518aa5d07e595d983b8c0526c8f7fb86866040516129c29291906144d9565b60405180910390a4610ad181856000868660405180602001604052806000815250612e4a565b6129f06132e1565b6007805460ff191660011790557f62e78cea01bee320cd4e420270b5ea74000d11b0c9f74754ebdbfc544b05a2586124123390565b600061159a8383613327565b816001600160a01b0316836001600160a01b031603612aa45760405162461bcd60e51b815260206004820152602960248201527f455243313135353a2073657474696e6720617070726f76616c20737461747573604482015268103337b91039b2b63360b91b60648201526084016108af565b6001600160a01b03838116600081815260056020908152604080832094871680845294825291829020805460ff191686151590811790915591519182527f17307eab39ab6107e8899845ad3d59bd9653f200f220920489ca2b5937696c31910160405180910390a3505050565b6006610bde8282614685565b610bde8282612399565b610bde600282816138ae565b60006108dd825490565b6001600160a01b038416612b635760405162461bcd60e51b81526004016108af90614507565b336000612b6f856131db565b90506000612b7c856131db565b9050612b8c838989858589612e3c565b60008681526004602090815260408083206001600160a01b038c16845290915290205485811015612bcf5760405162461bcd60e51b81526004016108af9061454c565b60008781526004602090815260408083206001600160a01b038d8116855292528083208985039055908a16825281208054889290612c0e908490614275565b909155505060408051888152602081018890526001600160a01b03808b16928c821692918816917fc3d58168c5ae7397731d063d5bbf3d657854427343f4c083240f7aacaa2d0f62910160405180910390a4612c6e848a8a86868a612e4a565b612c7c848a8a8a8a8a613226565b505050505050505050565b6001600160a01b038316612cad5760405162461bcd60e51b81526004016108af906145b8565b336000612cb9846131db565b90506000612cc6846131db565b9050612ce683876000858560405180602001604052806000815250612e3c565b60008581526004602090815260408083206001600160a01b038a16845290915290205484811015612d295760405162461bcd60e51b81526004016108af906145fb565b60008681526004602090815260408083206001600160a01b038b81168086529184528285208a8703905582518b81529384018a90529092908816917fc3d58168c5ae7397731d063d5bbf3d657854427343f4c083240f7aacaa2d0f62910160405180910390a4611e0b84886000868660405180602001604052806000815250612e4a565b6000818152600183016020526040812054612df4575081546001818101845560008481526020808220909301849055845484825282860190935260409020919091556108dd565b5060006108dd565b60006001600160e01b03198216636cdb3d1360e11b1480612e2d57506001600160e01b031982166303a24d0760e21b145b806108dd57506108dd82613351565b612387868686868686613376565b600d83600081518110612e5f57612e5f614236565b602002602001015160048110612e7757612e77614236565b0154612ea984600081518110612e8f57612e8f614236565b602002602001015160009081526008602052604090205490565b1115612ef75760405162461bcd60e51b815260206004820152601b60248201527f536166654e46543a206d617820737570706c792072656163686564000000000060448201526064016108af565b612387565b6001600160a01b0384163b156123875760405163bc197c8160e01b81526001600160a01b0385169063bc197c8190612f409089908990889088908890600401614744565b6020604051808303816000875af1925050508015612f7b575060408051601f3d908101601f19168201909252612f78918101906147a2565b60015b61302757612f876147bf565b806308c379a003612fc05750612f9b6147db565b80612fa65750612fc2565b8060405162461bcd60e51b81526004016108af91906139f1565b505b60405162461bcd60e51b815260206004820152603460248201527f455243313135353a207472616e7366657220746f206e6f6e2d455243313135356044820152732932b1b2b4bb32b91034b6b83632b6b2b73a32b960611b60648201526084016108af565b6001600160e01b0319811663bc197c8160e01b14611e0b5760405162461bcd60e51b81526004016108af90614864565b61306182826115a1565b610bde5761306e816134fd565b61307983602061350f565b60405160200161308a9291906148ac565b60408051601f198184030181529082905262461bcd60e51b82526108af916004016139f1565b6130ba82826115a1565b15610bde576000828152602081815260408083206001600160a01b0385168085529252808320805460ff1916905551339285917ff6391f5c32d9c69d2a47ea670b442974b53935d1edc7fd64eb21e047a839171b9190a45050565b600061159a836001600160a01b0384166136aa565b60075460ff16610cb45760405162461bcd60e51b815260206004820152601460248201527314185d5cd8589b194e881b9bdd081c185d5cd95960621b60448201526064016108af565b80516a636f6e736f6c652e6c6f67602083016000808483855afa5050505050565b610b5f8383836040516024016131ac93929190614921565b60408051601f198184030181529190526020810180516001600160e01b031663038fd88960e31b179052613173565b6040805160018082528183019092526060916000919060208083019080368337019050509050828160008151811061321557613215614236565b602090810291909101015292915050565b6001600160a01b0384163b156123875760405163f23a6e6160e01b81526001600160a01b0385169063f23a6e619061326a9089908990889088908890600401614953565b6020604051808303816000875af19250505080156132a5575060408051601f3d908101601f191682019092526132a2918101906147a2565b60015b6132b157612f876147bf565b6001600160e01b0319811663f23a6e6160e01b14611e0b5760405162461bcd60e51b81526004016108af90614864565b60075460ff1615610cb45760405162461bcd60e51b815260206004820152601060248201526f14185d5cd8589b194e881c185d5cd95960821b60448201526064016108af565b600082600001828154811061333e5761333e614236565b9060005260206000200154905092915050565b60006001600160e01b03198216635a05180f60e01b14806108dd57506108dd8261379d565b6133848686868686866137d2565b6001600160a01b03851661340b5760005b8351811015613409578281815181106133b0576133b0614236565b6020026020010151600860008684815181106133ce576133ce614236565b6020026020010151815260200190815260200160002060008282546133f39190614275565b90915550613402905081614288565b9050613395565b505b6001600160a01b0384166123875760005b8351811015611e0b57600084828151811061343957613439614236565b60200260200101519050600084838151811061345757613457614236565b60200260200101519050600060086000848152602001908152602001600020549050818110156134da5760405162461bcd60e51b815260206004820152602860248201527f455243313135353a206275726e20616d6f756e74206578636565647320746f74604482015267616c537570706c7960c01b60648201526084016108af565b600092835260086020526040909220910390556134f681614288565b905061341c565b60606108dd6001600160a01b03831660145b6060600061351e836002614362565b613529906002614275565b6001600160401b0381111561354057613540613a1d565b6040519080825280601f01601f19166020018201604052801561356a576020820181803683370190505b509050600360fc1b8160008151811061358557613585614236565b60200101906001600160f81b031916908160001a905350600f60fb1b816001815181106135b4576135b4614236565b60200101906001600160f81b031916908160001a90535060006135d8846002614362565b6135e3906001614275565b90505b600181111561365b576f181899199a1a9b1b9c1cb0b131b232b360811b85600f166010811061361757613617614236565b1a60f81b82828151811061362d5761362d614236565b60200101906001600160f81b031916908160001a90535060049490941c936136548161498b565b90506135e6565b50831561159a5760405162461bcd60e51b815260206004820181905260248201527f537472696e67733a20686578206c656e67746820696e73756666696369656e7460448201526064016108af565b600081815260018301602052604081205480156137935760006136ce600183614262565b85549091506000906136e290600190614262565b905081811461374757600086600001828154811061370257613702614236565b906000526020600020015490508087600001848154811061372557613725614236565b6000918252602080832090910192909255918252600188019052604090208390555b8554869080613758576137586149a2565b6001900381819060005260206000200160009055905585600101600086815260200190815260200160002060009055600193505050506108dd565b60009150506108dd565b60006001600160e01b03198216637965db0b60e01b14806108dd57506301ffc9a760e01b6001600160e01b03198316146108dd565b61238786868686868660075460ff16156123875760405162461bcd60e51b815260206004820152602c60248201527f455243313135355061757361626c653a20746f6b656e207472616e736665722060448201526b1dda1a5b19481c185d5cd95960a21b60648201526084016108af565b8260048101928215613871579160200282015b82811115613871578251825591602001919060010190613856565b5061387d9291506138f6565b5090565b82600281019282156138715791602002820182811115613871578251825591602001919060010190613856565b8260028101928215613871579160200282015b8281111561387157825182546001600160a01b0319166001600160a01b039091161782556020909201916001909101906138c1565b5b8082111561387d57600081556001016138f7565b6001600160a01b0381168114611a8357600080fd5b6000806040838503121561393357600080fd5b823561393e8161390b565b946020939093013593505050565b6001600160e01b031981168114611a8357600080fd5b60006020828403121561397457600080fd5b813561159a8161394c565b6000806040838503121561399257600080fd5b50508035926020909101359150565b60005b838110156139bc5781810151838201526020016139a4565b50506000910152565b600081518084526139dd8160208601602086016139a1565b601f01601f19169290920160200192915050565b60208152600061159a60208301846139c5565b600060208284031215613a1657600080fd5b5035919050565b634e487b7160e01b600052604160045260246000fd5b604081018181106001600160401b0382111715613a5257613a52613a1d565b60405250565b601f8201601f191681016001600160401b0381118282101715613a7d57613a7d613a1d565b6040525050565b60006001600160401b03821115613a9d57613a9d613a1d565b5060051b60200190565b600082601f830112613ab857600080fd5b81356020613ac582613a84565b604051613ad28282613a58565b83815260059390931b8501820192828101915086841115613af257600080fd5b8286015b84811015613b0d5780358352918301918301613af6565b509695505050505050565b60006001600160401b03831115613b3157613b31613a1d565b604051613b48601f8501601f191660200182613a58565b809150838152848484011115613b5d57600080fd5b83836020830137600060208583010152509392505050565b600082601f830112613b8657600080fd5b61159a83833560208501613b18565b60008060008060808587031215613bab57600080fd5b8435613bb68161390b565b935060208501356001600160401b0380821115613bd257600080fd5b613bde88838901613aa7565b94506040870135915080821115613bf457600080fd5b613c0088838901613aa7565b93506060870135915080821115613c1657600080fd5b50613c2387828801613b75565b91505092959194509250565b600080600080600060a08688031215613c4757600080fd5b8535613c528161390b565b94506020860135613c628161390b565b935060408601356001600160401b0380821115613c7e57600080fd5b613c8a89838a01613aa7565b94506060880135915080821115613ca057600080fd5b613cac89838a01613aa7565b93506080880135915080821115613cc257600080fd5b50613ccf88828901613b75565b9150509295509295909350565b60008060408385031215613cef57600080fd5b823591506020830135613d018161390b565b809150509250929050565b803560048110613d1b57600080fd5b919050565b600060208284031215613d3257600080fd5b61159a82613d0c565b600080600060608486031215613d5057600080fd5b8335613d5b8161390b565b9250613d6960208501613d0c565b9150604084013590509250925092565b60008060408385031215613d8c57600080fd5b82356001600160401b0380821115613da357600080fd5b818501915085601f830112613db757600080fd5b81356020613dc482613a84565b604051613dd18282613a58565b83815260059390931b8501820192828101915089841115613df157600080fd5b948201945b83861015613e18578535613e098161390b565b82529482019490820190613df6565b96505086013592505080821115613e2e57600080fd5b50613e3b85828601613aa7565b9150509250929050565b600081518084526020808501945080840160005b83811015613e7557815187529582019590820190600101613e59565b509495945050505050565b60208152600061159a6020830184613e45565b60008060408385031215613ea657600080fd5b61393e83613d0c565b600080600060608486031215613ec457600080fd5b8335613ecf8161390b565b925060208401356001600160401b0380821115613eeb57600080fd5b613ef787838801613aa7565b93506040860135915080821115613f0d57600080fd5b50613f1a86828701613aa7565b9150509250925092565b60008060008060808587031215613f3a57600080fd5b8435613f458161390b565b9350602085013592506040850135915060608501356001600160401b03811115613f6e57600080fd5b613c2387828801613b75565b8015158114611a8357600080fd5b60008060408385031215613f9b57600080fd5b8235613fa68161390b565b91506020830135613d0181613f7a565b600082601f830112613fc757600080fd5b604051608081018181106001600160401b0382111715613fe957613fe9613a1d565b604052806080840185811115613ffe57600080fd5b845b81811015614018578035835260209283019201614000565b509195945050505050565b600082601f83011261403457600080fd5b60405161404081613a33565b806040840185811115613ffe57600080fd5b6000806000806000806101c0878903121561406c57600080fd5b86356001600160401b0381111561408257600080fd5b8701601f8101891361409357600080fd5b6140a289823560208401613b18565b9650506140b28860208901613fb6565b94506140c18860a08901613fb6565b93506101208701356140d28161390b565b92506140e2886101408901614023565b91506140f2886101808901614023565b90509295509295509295565b60008060006060848603121561411357600080fd5b8335925060208401359150604084013561412c8161390b565b809150509250925092565b6000806040838503121561414a57600080fd5b82356141558161390b565b91506020830135613d018161390b565b600080600080600060a0868803121561417d57600080fd5b85356141888161390b565b945060208601356141988161390b565b9350604086013592506060860135915060808601356001600160401b038111156141c157600080fd5b613ccf88828901613b75565b6000806000606084860312156141e257600080fd5b83356141ed8161390b565b95602085013595506040909401359392505050565b600181811c9082168061421657607f821691505b602082108103610a3e57634e487b7160e01b600052602260045260246000fd5b634e487b7160e01b600052603260045260246000fd5b634e487b7160e01b600052601160045260246000fd5b818103818111156108dd576108dd61424c565b808201808211156108dd576108dd61424c565b60006001820161429a5761429a61424c565b5060010190565b60208082526038908201527f455243313135355072657365744d696e7465725061757365723a206d7573742060408201527f68617665206d696e74657220726f6c6520746f206d696e740000000000000000606082015260800190565b6020808252602e908201527f455243313135353a2063616c6c6572206973206e6f7420746f6b656e206f776e60408201526d195c881bdc88185c1c1c9bdd995960921b606082015260800190565b634e487b7160e01b600052602160045260246000fd5b80820281158282048414176108dd576108dd61424c565b60008261439657634e487b7160e01b600052601260045260246000fd5b500490565b6000602082840312156143ad57600080fd5b815161159a81613f7a565b6000602082840312156143ca57600080fd5b5051919050565b6000604082840312156143e357600080fd5b82601f8301126143f257600080fd5b6040516143fe81613a33565b80604084018581111561441057600080fd5b845b818110156140185780516144258161390b565b835260209283019201614412565b60006020828403121561444557600080fd5b815161159a8161390b565b60208082526021908201527f455243313135353a206d696e7420746f20746865207a65726f206164647265736040820152607360f81b606082015260800190565b60208082526028908201527f455243313135353a2069647320616e6420616d6f756e7473206c656e677468206040820152670dad2e6dac2e8c6d60c31b606082015260800190565b6040815260006144ec6040830185613e45565b82810360208401526144fe8185613e45565b95945050505050565b60208082526025908201527f455243313135353a207472616e7366657220746f20746865207a65726f206164604082015264647265737360d81b606082015260800190565b6020808252602a908201527f455243313135353a20696e73756666696369656e742062616c616e636520666f60408201526939103a3930b739b332b960b11b606082015260800190565b6040815260006145a960408301856139c5565b90508260208301529392505050565b60208082526023908201527f455243313135353a206275726e2066726f6d20746865207a65726f206164647260408201526265737360e81b606082015260800190565b60208082526024908201527f455243313135353a206275726e20616d6f756e7420657863656564732062616c604082015263616e636560e01b606082015260800190565b601f821115610b5f57600081815260208120601f850160051c810160208610156146665750805b601f850160051c820191505b8181101561238757828155600101614672565b81516001600160401b0381111561469e5761469e613a1d565b6146b2816146ac8454614202565b8461463f565b602080601f8311600181146146e757600084156146cf5750858301515b600019600386901b1c1916600185901b178555612387565b600085815260208120601f198616915b82811015614716578886015182559484019460019091019084016146f7565b50858210156147345787850151600019600388901b60f8161c191681555b5050505050600190811b01905550565b60006001600160a01b03808816835280871660208401525060a0604083015261477060a0830186613e45565b82810360608401526147828186613e45565b9050828103608084015261479681856139c5565b98975050505050505050565b6000602082840312156147b457600080fd5b815161159a8161394c565b600060033d11156147d85760046000803e5060005160e01c5b90565b600060443d10156147e95790565b6040516003193d81016004833e81513d6001600160401b03816024840111818411171561481857505050505090565b82850191508151818111156148305750505050505090565b843d870101602082850101111561484a5750505050505090565b61485960208286010187613a58565b509095945050505050565b60208082526028908201527f455243313135353a204552433131353552656365697665722072656a656374656040820152676420746f6b656e7360c01b606082015260800190565b7f416363657373436f6e74726f6c3a206163636f756e74200000000000000000008152600083516148e48160178501602088016139a1565b7001034b99036b4b9b9b4b733903937b6329607d1b60179184019182015283516149158160288401602088016139a1565b01602801949350505050565b60608152600061493460608301866139c5565b90508360208301526001600160a01b0383166040830152949350505050565b60006001600160a01b03808816835280871660208401525084604083015283606083015260a06080830152610d5c60a08301846139c5565b60008161499a5761499a61424c565b506000190190565b634e487b7160e01b600052603160045260246000fdfea264697066735822122055061a0423da309f13cddc2e0d9116d21a283d2084d2257b7c2df1fa83064b3164736f6c63430008110033b53127684a568b3173ae13b9f8a6016e243e63b6e8ee1178d6a717850b5d610365d7a28e3265b37a6474929f336521b332c1681b933f6cb9f3376673440d862a9f2df0fed2c77648de5860a4cc508cd0818c85b8b8a1ab4ceeef8d981c8956a6",
  "devdoc": {
    "author": "crypt0grapher",
    "kind": "dev",
    "methods": {
      "balanceOf(address,uint256)": {
        "details": "See {IERC1155-balanceOf}. Requirements: - `account` cannot be the zero address."
      },
      "balanceOfBatch(address[],uint256[])": {
        "details": "See {IERC1155-balanceOfBatch}. Requirements: - `accounts` and `ids` must have the same length."
      },
      "buy(uint8,uint256)": {
        "params": {
          "_amount": "amount of USD to spend",
          "_tier": "tier of the NFT to purchase which stands for ERC1155 token id [0..3]"
        }
      },
      "distributeProfit(uint256)": {
        "params": {
          "_amountUSD": "amount of USD to distribute"
        }
      },
      "exists(uint256)": {
        "details": "Indicates whether any token exist with a given id, or not."
      },
      "getFairPrice(uint8)": {
        "returns": {
          "_0": "counts not only the sale price but also share of the profit for the tier"
        }
      },
      "getPrice(uint8)": {
        "returns": {
          "_0": "returns Rewards set for distribution"
        }
      },
      "getRoleAdmin(bytes32)": {
        "details": "Returns the admin role that controls `role`. See {grantRole} and {revokeRole}. To change a role's admin, use {_setRoleAdmin}."
      },
      "getRoleMember(bytes32,uint256)": {
        "details": "Returns one of the accounts that have `role`. `index` must be a value between 0 and {getRoleMemberCount}, non-inclusive. Role bearers are not sorted in any particular way, and their ordering may change at any point. WARNING: When using {getRoleMember} and {getRoleMemberCount}, make sure you perform all queries on the same block. See the following https://forum.openzeppelin.com/t/iterating-over-elements-on-enumerableset-in-openzeppelin-contracts/2296[forum post] for more information."
      },
      "getRoleMemberCount(bytes32)": {
        "details": "Returns the number of accounts that have `role`. Can be used together with {getRoleMember} to enumerate all bearers of a role."
      },
      "getUnclaimedRewards()": {
        "returns": {
          "_0": "amount of the rewards not yet distributed to NFT holders"
        }
      },
      "grantRole(bytes32,address)": {
        "details": "Grants `role` to `account`. If `account` had not been already granted `role`, emits a {RoleGranted} event. Requirements: - the caller must have ``role``'s admin role. May emit a {RoleGranted} event."
      },
      "hasRole(bytes32,address)": {
        "details": "Returns `true` if `account` has been granted `role`."
      },
      "isApprovedForAll(address,address)": {
        "details": "See {IERC1155-isApprovedForAll}."
      },
      "mint(address,uint256,uint256,bytes)": {
        "details": "Creates `amount` new tokens for `to`, of token type `id`. See {ERC1155-_mint}. Requirements: - the caller must have the `MINTER_ROLE`."
      },
      "mintBatch(address,uint256[],uint256[],bytes)": {
        "details": "xref:ROOT:erc1155.adoc#batch-operations[Batched] variant of {mint}."
      },
      "pause()": {
        "details": "Pauses all token transfers. See {ERC1155Pausable} and {Pausable-_pause}. Requirements: - the caller must have the `PAUSER_ROLE`."
      },
      "paused()": {
        "details": "Returns true if the contract is paused, and false otherwise."
      },
      "renounceRole(bytes32,address)": {
        "details": "Revokes `role` from the calling account. Roles are often managed via {grantRole} and {revokeRole}: this function's purpose is to provide a mechanism for accounts to lose their privileges if they are compromised (such as when a trusted device is misplaced). If the calling account had been revoked `role`, emits a {RoleRevoked} event. Requirements: - the caller must be `account`. May emit a {RoleRevoked} event."
      },
      "revokeRole(bytes32,address)": {
        "details": "Revokes `role` from `account`. If `account` had been granted `role`, emits a {RoleRevoked} event. Requirements: - the caller must have ``role``'s admin role. May emit a {RoleRevoked} event."
      },
      "safeBatchTransferFrom(address,address,uint256[],uint256[],bytes)": {
        "details": "See {IERC1155-safeBatchTransferFrom}."
      },
      "safeTransferFrom(address,address,uint256,uint256,bytes)": {
        "details": "See {IERC1155-safeTransferFrom}."
      },
      "setApprovalForAll(address,bool)": {
        "details": "See {IERC1155-setApprovalForAll}."
      },
      "totalSupply(uint256)": {
        "details": "Total amount of tokens in with a given id."
      },
      "unpause()": {
        "details": "Unpauses all token transfers. See {ERC1155Pausable} and {Pausable-_unpause}. Requirements: - the caller must have the `PAUSER_ROLE`."
      },
      "uri(uint256)": {
        "details": "See {IERC1155MetadataURI-uri}. This implementation returns the same URI for *all* token types. It relies on the token type ID substitution mechanism https://eips.ethereum.org/EIPS/eip-1155#metadata[defined in the EIP]. Clients calling this function must replace the `\\{id\\}` substring with the actual token type ID."
      }
    },
    "stateVariables": {
      "currentDistributionId": {
        "return": "current distribution number, the one that assigned to the latest distribution",
        "returns": {
          "_0": "current distribution number, the one that assigned to the latest distribution"
        }
      }
    },
    "title": "Safe NFT",
    "version": 1
  },
  "userdoc": {
    "kind": "user",
    "methods": {
      "buy(uint8,uint256)": {
        "notice": "purchase Safe NFT for exact amount of USD"
      },
      "claimReward(uint8,uint256)": {
        "notice": "the function calculates the amount of the reward for the NFT holder and transfers it to the NFT holder"
      },
      "claimRewardsTotal()": {
        "notice": "the function calculates the amount of the reward for the NFT holder and transfers it to the NFT holder"
      },
      "currentDistributionId()": {
        "notice": "gets the current distribution number"
      },
      "distributeProfit(uint256)": {
        "notice": "distribute profit among the NFT holders, the function fixes the amount of the reward and the NFT holders and their shares at the moment of the call. It does not transfer the reward to the NFT holders, it just records the amount of the reward for each NFT holder."
      },
      "getFairPrice(uint8)": {
        "notice": "gets NFT fair price in USD"
      },
      "getMyPendingRewardsTotal()": {
        "notice": "returns the amount of the reward share for the NFT holder"
      },
      "getPendingRewards(address,uint8,uint256)": {
        "notice": "returns the amount of the reward share for the NFT holder"
      },
      "getPrice(uint8)": {
        "notice": "gets NFT price in USD"
      },
      "getTreasuryCost()": {
        "notice": "gets the total usd value of the NFT minted"
      },
      "getUnclaimedRewards()": {
        "notice": "undistributed profit amount in USD"
      },
      "percentOfTreasury()": {
        "notice": "gets the share of the NFTs of the caller to the treasury"
      }
    },
    "notice": "Safe Yields NFT token based on ERC1155 standard, id [0..3] represents one of the 4 tiers",
    "version": 1
  },
  "storageLayout": {
    "storage": [
      {
        "astId": 24,
        "contract": "contracts/SafeNFT.sol:SafeNFT",
        "label": "_roles",
        "offset": 0,
        "slot": "0",
        "type": "t_mapping(t_bytes32,t_struct(RoleData)19_storage)"
      },
      {
        "astId": 334,
        "contract": "contracts/SafeNFT.sol:SafeNFT",
        "label": "_roleMembers",
        "offset": 0,
        "slot": "1",
        "type": "t_mapping(t_bytes32,t_struct(AddressSet)4376_storage)"
      },
      {
        "astId": 6839,
        "contract": "contracts/SafeNFT.sol:SafeNFT",
        "label": "wallets",
        "offset": 0,
        "slot": "2",
        "type": "t_array(t_address)2_storage"
      },
      {
        "astId": 672,
        "contract": "contracts/SafeNFT.sol:SafeNFT",
        "label": "_balances",
        "offset": 0,
        "slot": "4",
        "type": "t_mapping(t_uint256,t_mapping(t_address,t_uint256))"
      },
      {
        "astId": 678,
        "contract": "contracts/SafeNFT.sol:SafeNFT",
        "label": "_operatorApprovals",
        "offset": 0,
        "slot": "5",
        "type": "t_mapping(t_address,t_mapping(t_address,t_bool))"
      },
      {
        "astId": 680,
        "contract": "contracts/SafeNFT.sol:SafeNFT",
        "label": "_uri",
        "offset": 0,
        "slot": "6",
        "type": "t_string_storage"
      },
      {
        "astId": 556,
        "contract": "contracts/SafeNFT.sol:SafeNFT",
        "label": "_paused",
        "offset": 0,
        "slot": "7",
        "type": "t_bool"
      },
      {
        "astId": 2159,
        "contract": "contracts/SafeNFT.sol:SafeNFT",
        "label": "_totalSupply",
        "offset": 0,
        "slot": "8",
        "type": "t_mapping(t_uint256,t_uint256)"
      },
      {
        "astId": 4692,
        "contract": "contracts/SafeNFT.sol:SafeNFT",
        "label": "price",
        "offset": 0,
        "slot": "9",
        "type": "t_array(t_uint256)4_storage"
      },
      {
        "astId": 4696,
        "contract": "contracts/SafeNFT.sol:SafeNFT",
        "label": "maxSupply",
        "offset": 0,
        "slot": "13",
        "type": "t_array(t_uint256)4_storage"
      },
      {
        "astId": 4699,
        "contract": "contracts/SafeNFT.sol:SafeNFT",
        "label": "safeToken",
        "offset": 0,
        "slot": "17",
        "type": "t_contract(ISafeToken)7171"
      },
      {
        "astId": 4702,
        "contract": "contracts/SafeNFT.sol:SafeNFT",
        "label": "safeVault",
        "offset": 0,
        "slot": "18",
        "type": "t_contract(ISafeVault)7192"
      },
      {
        "astId": 4705,
        "contract": "contracts/SafeNFT.sol:SafeNFT",
        "label": "usd",
        "offset": 0,
        "slot": "19",
        "type": "t_contract(IERC20)2597"
      },
      {
        "astId": 4712,
        "contract": "contracts/SafeNFT.sol:SafeNFT",
        "label": "priceDistributionOnMint",
        "offset": 0,
        "slot": "20",
        "type": "t_array(t_uint256)2_storage"
      },
      {
        "astId": 4716,
        "contract": "contracts/SafeNFT.sol:SafeNFT",
        "label": "profitDistribution",
        "offset": 0,
        "slot": "22",
        "type": "t_array(t_uint256)2_storage"
      },
      {
        "astId": 4718,
        "contract": "contracts/SafeNFT.sol:SafeNFT",
        "label": "currentDistributionId",
        "offset": 0,
        "slot": "24",
        "type": "t_uint256"
      },
      {
        "astId": 4722,
        "contract": "contracts/SafeNFT.sol:SafeNFT",
        "label": "distributionOfProfit",
        "offset": 0,
        "slot": "25",
        "type": "t_mapping(t_uint256,t_uint256)"
      },
      {
        "astId": 4728,
        "contract": "contracts/SafeNFT.sol:SafeNFT",
        "label": "distributionByTier",
        "offset": 0,
        "slot": "26",
        "type": "t_mapping(t_uint256,t_array(t_uint256)4_storage)"
      },
      {
        "astId": 4734,
        "contract": "contracts/SafeNFT.sol:SafeNFT",
        "label": "distributionTotalSupplySnapshot",
        "offset": 0,
        "slot": "27",
        "type": "t_mapping(t_uint256,t_array(t_uint256)4_storage)"
      },
      {
        "astId": 4742,
        "contract": "contracts/SafeNFT.sol:SafeNFT",
        "label": "alreadyDistributedAmount",
        "offset": 0,
        "slot": "28",
        "type": "t_mapping(t_uint256,t_mapping(t_uint256,t_mapping(t_address,t_uint256)))"
      },
      {
        "astId": 4748,
        "contract": "contracts/SafeNFT.sol:SafeNFT",
        "label": "alreadyDistributedAmountByTier",
        "offset": 0,
        "slot": "29",
        "type": "t_mapping(t_uint256,t_array(t_uint256)4_storage)"
      }
    ],
    "types": {
      "t_address": {
        "encoding": "inplace",
        "label": "address",
        "numberOfBytes": "20"
      },
      "t_array(t_address)2_storage": {
        "base": "t_address",
        "encoding": "inplace",
        "label": "address[2]",
        "numberOfBytes": "64"
      },
      "t_array(t_bytes32)dyn_storage": {
        "base": "t_bytes32",
        "encoding": "dynamic_array",
        "label": "bytes32[]",
        "numberOfBytes": "32"
      },
      "t_array(t_uint256)2_storage": {
        "base": "t_uint256",
        "encoding": "inplace",
        "label": "uint256[2]",
        "numberOfBytes": "64"
      },
      "t_array(t_uint256)4_storage": {
        "base": "t_uint256",
        "encoding": "inplace",
        "label": "uint256[4]",
        "numberOfBytes": "128"
      },
      "t_bool": {
        "encoding": "inplace",
        "label": "bool",
        "numberOfBytes": "1"
      },
      "t_bytes32": {
        "encoding": "inplace",
        "label": "bytes32",
        "numberOfBytes": "32"
      },
      "t_contract(IERC20)2597": {
        "encoding": "inplace",
        "label": "contract IERC20",
        "numberOfBytes": "20"
      },
      "t_contract(ISafeToken)7171": {
        "encoding": "inplace",
        "label": "contract ISafeToken",
        "numberOfBytes": "20"
      },
      "t_contract(ISafeVault)7192": {
        "encoding": "inplace",
        "label": "contract ISafeVault",
        "numberOfBytes": "20"
      },
      "t_mapping(t_address,t_bool)": {
        "encoding": "mapping",
        "key": "t_address",
        "label": "mapping(address => bool)",
        "numberOfBytes": "32",
        "value": "t_bool"
      },
      "t_mapping(t_address,t_mapping(t_address,t_bool))": {
        "encoding": "mapping",
        "key": "t_address",
        "label": "mapping(address => mapping(address => bool))",
        "numberOfBytes": "32",
        "value": "t_mapping(t_address,t_bool)"
      },
      "t_mapping(t_address,t_uint256)": {
        "encoding": "mapping",
        "key": "t_address",
        "label": "mapping(address => uint256)",
        "numberOfBytes": "32",
        "value": "t_uint256"
      },
      "t_mapping(t_bytes32,t_struct(AddressSet)4376_storage)": {
        "encoding": "mapping",
        "key": "t_bytes32",
        "label": "mapping(bytes32 => struct EnumerableSet.AddressSet)",
        "numberOfBytes": "32",
        "value": "t_struct(AddressSet)4376_storage"
      },
      "t_mapping(t_bytes32,t_struct(RoleData)19_storage)": {
        "encoding": "mapping",
        "key": "t_bytes32",
        "label": "mapping(bytes32 => struct AccessControl.RoleData)",
        "numberOfBytes": "32",
        "value": "t_struct(RoleData)19_storage"
      },
      "t_mapping(t_bytes32,t_uint256)": {
        "encoding": "mapping",
        "key": "t_bytes32",
        "label": "mapping(bytes32 => uint256)",
        "numberOfBytes": "32",
        "value": "t_uint256"
      },
      "t_mapping(t_uint256,t_array(t_uint256)4_storage)": {
        "encoding": "mapping",
        "key": "t_uint256",
        "label": "mapping(uint256 => uint256[4])",
        "numberOfBytes": "32",
        "value": "t_array(t_uint256)4_storage"
      },
      "t_mapping(t_uint256,t_mapping(t_address,t_uint256))": {
        "encoding": "mapping",
        "key": "t_uint256",
        "label": "mapping(uint256 => mapping(address => uint256))",
        "numberOfBytes": "32",
        "value": "t_mapping(t_address,t_uint256)"
      },
      "t_mapping(t_uint256,t_mapping(t_uint256,t_mapping(t_address,t_uint256)))": {
        "encoding": "mapping",
        "key": "t_uint256",
        "label": "mapping(uint256 => mapping(uint256 => mapping(address => uint256)))",
        "numberOfBytes": "32",
        "value": "t_mapping(t_uint256,t_mapping(t_address,t_uint256))"
      },
      "t_mapping(t_uint256,t_uint256)": {
        "encoding": "mapping",
        "key": "t_uint256",
        "label": "mapping(uint256 => uint256)",
        "numberOfBytes": "32",
        "value": "t_uint256"
      },
      "t_string_storage": {
        "encoding": "bytes",
        "label": "string",
        "numberOfBytes": "32"
      },
      "t_struct(AddressSet)4376_storage": {
        "encoding": "inplace",
        "label": "struct EnumerableSet.AddressSet",
        "members": [
          {
            "astId": 4375,
            "contract": "contracts/SafeNFT.sol:SafeNFT",
            "label": "_inner",
            "offset": 0,
            "slot": "0",
            "type": "t_struct(Set)4061_storage"
          }
        ],
        "numberOfBytes": "64"
      },
      "t_struct(RoleData)19_storage": {
        "encoding": "inplace",
        "label": "struct AccessControl.RoleData",
        "members": [
          {
            "astId": 16,
            "contract": "contracts/SafeNFT.sol:SafeNFT",
            "label": "members",
            "offset": 0,
            "slot": "0",
            "type": "t_mapping(t_address,t_bool)"
          },
          {
            "astId": 18,
            "contract": "contracts/SafeNFT.sol:SafeNFT",
            "label": "adminRole",
            "offset": 0,
            "slot": "1",
            "type": "t_bytes32"
          }
        ],
        "numberOfBytes": "64"
      },
      "t_struct(Set)4061_storage": {
        "encoding": "inplace",
        "label": "struct EnumerableSet.Set",
        "members": [
          {
            "astId": 4056,
            "contract": "contracts/SafeNFT.sol:SafeNFT",
            "label": "_values",
            "offset": 0,
            "slot": "0",
            "type": "t_array(t_bytes32)dyn_storage"
          },
          {
            "astId": 4060,
            "contract": "contracts/SafeNFT.sol:SafeNFT",
            "label": "_indexes",
            "offset": 0,
            "slot": "1",
            "type": "t_mapping(t_bytes32,t_uint256)"
          }
        ],
        "numberOfBytes": "64"
      },
      "t_uint256": {
        "encoding": "inplace",
        "label": "uint256",
        "numberOfBytes": "32"
      }
    }
  }
}