{
  "address": "0x180Ba72B899c84eEe4E084bf1A8C99097B697103",
  "abi": [
    {
      "inputs": [
        {
          "internalType": "string",
          "name": "_uri",
          "type": "string"
        },
        {
          "internalType": "uint256[4]",
          "name": "_price",
          "type": "uint256[4]"
        },
        {
          "internalType": "uint256[4]",
          "name": "_maxSupply",
          "type": "uint256[4]"
        },
        {
          "internalType": "contract ISafeToken",
          "name": "_safeToken",
          "type": "address"
        },
        {
          "internalType": "uint256[2]",
          "name": "_priceDistributionOnMint",
          "type": "uint256[2]"
        },
        {
          "internalType": "uint256",
          "name": "_referralShareForNFTPurchase",
          "type": "uint256"
        },
        {
          "internalType": "uint256[2]",
          "name": "_profitDistribution",
          "type": "uint256[2]"
        },
        {
          "internalType": "address",
          "name": "_stabilizerWallet",
          "type": "address"
        }
      ],
      "stateMutability": "nonpayable",
      "type": "constructor"
    },
    {
      "anonymous": false,
      "inputs": [
        {
          "indexed": true,
          "internalType": "address",
          "name": "account",
          "type": "address"
        },
        {
          "indexed": true,
          "internalType": "address",
          "name": "operator",
          "type": "address"
        },
        {
          "indexed": false,
          "internalType": "bool",
          "name": "approved",
          "type": "bool"
        }
      ],
      "name": "ApprovalForAll",
      "type": "event"
    },
    {
      "anonymous": false,
      "inputs": [
        {
          "indexed": false,
          "internalType": "address",
          "name": "account",
          "type": "address"
        }
      ],
      "name": "Paused",
      "type": "event"
    },
    {
      "anonymous": false,
      "inputs": [
        {
          "indexed": true,
          "internalType": "bytes32",
          "name": "role",
          "type": "bytes32"
        },
        {
          "indexed": true,
          "internalType": "bytes32",
          "name": "previousAdminRole",
          "type": "bytes32"
        },
        {
          "indexed": true,
          "internalType": "bytes32",
          "name": "newAdminRole",
          "type": "bytes32"
        }
      ],
      "name": "RoleAdminChanged",
      "type": "event"
    },
    {
      "anonymous": false,
      "inputs": [
        {
          "indexed": true,
          "internalType": "bytes32",
          "name": "role",
          "type": "bytes32"
        },
        {
          "indexed": true,
          "internalType": "address",
          "name": "account",
          "type": "address"
        },
        {
          "indexed": true,
          "internalType": "address",
          "name": "sender",
          "type": "address"
        }
      ],
      "name": "RoleGranted",
      "type": "event"
    },
    {
      "anonymous": false,
      "inputs": [
        {
          "indexed": true,
          "internalType": "bytes32",
          "name": "role",
          "type": "bytes32"
        },
        {
          "indexed": true,
          "internalType": "address",
          "name": "account",
          "type": "address"
        },
        {
          "indexed": true,
          "internalType": "address",
          "name": "sender",
          "type": "address"
        }
      ],
      "name": "RoleRevoked",
      "type": "event"
    },
    {
      "anonymous": false,
      "inputs": [
        {
          "indexed": false,
          "internalType": "bool",
          "name": "_status",
          "type": "bool"
        }
      ],
      "name": "TogglePresale",
      "type": "event"
    },
    {
      "anonymous": false,
      "inputs": [
        {
          "indexed": true,
          "internalType": "address",
          "name": "operator",
          "type": "address"
        },
        {
          "indexed": true,
          "internalType": "address",
          "name": "from",
          "type": "address"
        },
        {
          "indexed": true,
          "internalType": "address",
          "name": "to",
          "type": "address"
        },
        {
          "indexed": false,
          "internalType": "uint256[]",
          "name": "ids",
          "type": "uint256[]"
        },
        {
          "indexed": false,
          "internalType": "uint256[]",
          "name": "values",
          "type": "uint256[]"
        }
      ],
      "name": "TransferBatch",
      "type": "event"
    },
    {
      "anonymous": false,
      "inputs": [
        {
          "indexed": true,
          "internalType": "address",
          "name": "operator",
          "type": "address"
        },
        {
          "indexed": true,
          "internalType": "address",
          "name": "from",
          "type": "address"
        },
        {
          "indexed": true,
          "internalType": "address",
          "name": "to",
          "type": "address"
        },
        {
          "indexed": false,
          "internalType": "uint256",
          "name": "id",
          "type": "uint256"
        },
        {
          "indexed": false,
          "internalType": "uint256",
          "name": "value",
          "type": "uint256"
        }
      ],
      "name": "TransferSingle",
      "type": "event"
    },
    {
      "anonymous": false,
      "inputs": [
        {
          "indexed": false,
          "internalType": "string",
          "name": "value",
          "type": "string"
        },
        {
          "indexed": true,
          "internalType": "uint256",
          "name": "id",
          "type": "uint256"
        }
      ],
      "name": "URI",
      "type": "event"
    },
    {
      "anonymous": false,
      "inputs": [
        {
          "indexed": false,
          "internalType": "address",
          "name": "account",
          "type": "address"
        }
      ],
      "name": "Unpaused",
      "type": "event"
    },
    {
      "inputs": [],
      "name": "DEFAULT_ADMIN_ROLE",
      "outputs": [
        {
          "internalType": "bytes32",
          "name": "",
          "type": "bytes32"
        }
      ],
      "stateMutability": "view",
      "type": "function"
    },
    {
      "inputs": [],
      "name": "MINTER_ROLE",
      "outputs": [
        {
          "internalType": "bytes32",
          "name": "",
          "type": "bytes32"
        }
      ],
      "stateMutability": "view",
      "type": "function"
    },
    {
      "inputs": [],
      "name": "PAUSER_ROLE",
      "outputs": [
        {
          "internalType": "bytes32",
          "name": "",
          "type": "bytes32"
        }
      ],
      "stateMutability": "view",
      "type": "function"
    },
    {
      "inputs": [],
      "name": "TIERS",
      "outputs": [
        {
          "internalType": "uint256",
          "name": "",
          "type": "uint256"
        }
      ],
      "stateMutability": "view",
      "type": "function"
    },
    {
      "inputs": [],
      "name": "WALLETS",
      "outputs": [
        {
          "internalType": "uint256",
          "name": "",
          "type": "uint256"
        }
      ],
      "stateMutability": "view",
      "type": "function"
    },
    {
      "inputs": [],
      "name": "WEEKS",
      "outputs": [
        {
          "internalType": "uint256",
          "name": "",
          "type": "uint256"
        }
      ],
      "stateMutability": "view",
      "type": "function"
    },
    {
      "inputs": [
        {
          "internalType": "uint256",
          "name": "",
          "type": "uint256"
        },
        {
          "internalType": "uint256",
          "name": "",
          "type": "uint256"
        },
        {
          "internalType": "address",
          "name": "",
          "type": "address"
        }
      ],
      "name": "alreadyDistributedAmount",
      "outputs": [
        {
          "internalType": "uint256",
          "name": "",
          "type": "uint256"
        }
      ],
      "stateMutability": "view",
      "type": "function"
    },
    {
      "inputs": [
        {
          "internalType": "uint256",
          "name": "",
          "type": "uint256"
        },
        {
          "internalType": "uint256",
          "name": "",
          "type": "uint256"
        }
      ],
      "name": "alreadyDistributedAmountByTier",
      "outputs": [
        {
          "internalType": "uint256",
          "name": "",
          "type": "uint256"
        }
      ],
      "stateMutability": "view",
      "type": "function"
    },
    {
      "inputs": [
        {
          "internalType": "address",
          "name": "account",
          "type": "address"
        },
        {
          "internalType": "uint256",
          "name": "id",
          "type": "uint256"
        }
      ],
      "name": "balanceOf",
      "outputs": [
        {
          "internalType": "uint256",
          "name": "",
          "type": "uint256"
        }
      ],
      "stateMutability": "view",
      "type": "function"
    },
    {
      "inputs": [
        {
          "internalType": "address[]",
          "name": "accounts",
          "type": "address[]"
        },
        {
          "internalType": "uint256[]",
          "name": "ids",
          "type": "uint256[]"
        }
      ],
      "name": "balanceOfBatch",
      "outputs": [
        {
          "internalType": "uint256[]",
          "name": "",
          "type": "uint256[]"
        }
      ],
      "stateMutability": "view",
      "type": "function"
    },
    {
      "inputs": [
        {
          "internalType": "address",
          "name": "account",
          "type": "address"
        },
        {
          "internalType": "uint256",
          "name": "id",
          "type": "uint256"
        },
        {
          "internalType": "uint256",
          "name": "value",
          "type": "uint256"
        }
      ],
      "name": "burn",
      "outputs": [],
      "stateMutability": "nonpayable",
      "type": "function"
    },
    {
      "inputs": [
        {
          "internalType": "address",
          "name": "account",
          "type": "address"
        },
        {
          "internalType": "uint256[]",
          "name": "ids",
          "type": "uint256[]"
        },
        {
          "internalType": "uint256[]",
          "name": "values",
          "type": "uint256[]"
        }
      ],
      "name": "burnBatch",
      "outputs": [],
      "stateMutability": "nonpayable",
      "type": "function"
    },
    {
      "inputs": [
        {
          "internalType": "enum ISafeNFT.Tiers",
          "name": "_tier",
          "type": "uint8"
        },
        {
          "internalType": "uint256",
          "name": "_amount",
          "type": "uint256"
        },
        {
          "internalType": "address",
          "name": "_referral",
          "type": "address"
        }
      ],
      "name": "buy",
      "outputs": [],
      "stateMutability": "nonpayable",
      "type": "function"
    },
    {
      "inputs": [
        {
          "internalType": "enum ISafeNFT.Tiers",
          "name": "_tier",
          "type": "uint8"
        },
        {
          "internalType": "uint256",
          "name": "_distributionId",
          "type": "uint256"
        }
      ],
      "name": "claimReward",
      "outputs": [],
      "stateMutability": "nonpayable",
      "type": "function"
    },
    {
      "inputs": [],
      "name": "claimRewardsTotal",
      "outputs": [],
      "stateMutability": "nonpayable",
      "type": "function"
    },
    {
      "inputs": [],
      "name": "currentDistributionId",
      "outputs": [
        {
          "internalType": "uint256",
          "name": "",
          "type": "uint256"
        }
      ],
      "stateMutability": "view",
      "type": "function"
    },
    {
      "inputs": [
        {
          "internalType": "uint256",
          "name": "",
          "type": "uint256"
        }
      ],
      "name": "currentlySoldInPresale",
      "outputs": [
        {
          "internalType": "uint256",
          "name": "",
          "type": "uint256"
        }
      ],
      "stateMutability": "view",
      "type": "function"
    },
    {
      "inputs": [
        {
          "internalType": "uint256",
          "name": "_amountUSD",
          "type": "uint256"
        }
      ],
      "name": "distributeProfit",
      "outputs": [],
      "stateMutability": "nonpayable",
      "type": "function"
    },
    {
      "inputs": [
        {
          "internalType": "uint256",
          "name": "",
          "type": "uint256"
        },
        {
          "internalType": "uint256",
          "name": "",
          "type": "uint256"
        }
      ],
      "name": "distributionByTier",
      "outputs": [
        {
          "internalType": "uint256",
          "name": "",
          "type": "uint256"
        }
      ],
      "stateMutability": "view",
      "type": "function"
    },
    {
      "inputs": [
        {
          "internalType": "uint256",
          "name": "",
          "type": "uint256"
        }
      ],
      "name": "distributionOfProfit",
      "outputs": [
        {
          "internalType": "uint256",
          "name": "",
          "type": "uint256"
        }
      ],
      "stateMutability": "view",
      "type": "function"
    },
    {
      "inputs": [
        {
          "internalType": "uint256",
          "name": "",
          "type": "uint256"
        },
        {
          "internalType": "uint256",
          "name": "",
          "type": "uint256"
        }
      ],
      "name": "distributionTotalSupplySnapshot",
      "outputs": [
        {
          "internalType": "uint256",
          "name": "",
          "type": "uint256"
        }
      ],
      "stateMutability": "view",
      "type": "function"
    },
    {
      "inputs": [
        {
          "internalType": "uint256",
          "name": "id",
          "type": "uint256"
        }
      ],
      "name": "exists",
      "outputs": [
        {
          "internalType": "bool",
          "name": "",
          "type": "bool"
        }
      ],
      "stateMutability": "view",
      "type": "function"
    },
    {
      "inputs": [
        {
          "internalType": "address",
          "name": "_user",
          "type": "address"
        }
      ],
      "name": "getBalanceTable",
      "outputs": [
        {
          "internalType": "uint256[]",
          "name": "",
          "type": "uint256[]"
        }
      ],
      "stateMutability": "view",
      "type": "function"
    },
    {
      "inputs": [],
      "name": "getCurrentPresaleWeek",
      "outputs": [
        {
          "internalType": "uint256",
          "name": "",
          "type": "uint256"
        }
      ],
      "stateMutability": "view",
      "type": "function"
    },
    {
      "inputs": [],
      "name": "getDiscountedPriceTable",
      "outputs": [
        {
          "internalType": "uint256[]",
          "name": "",
          "type": "uint256[]"
        }
      ],
      "stateMutability": "view",
      "type": "function"
    },
    {
      "inputs": [
        {
          "internalType": "enum ISafeNFT.Tiers",
          "name": "_tier",
          "type": "uint8"
        }
      ],
      "name": "getFairPrice",
      "outputs": [
        {
          "internalType": "uint256",
          "name": "",
          "type": "uint256"
        }
      ],
      "stateMutability": "view",
      "type": "function"
    },
    {
      "inputs": [],
      "name": "getFairPriceTable",
      "outputs": [
        {
          "internalType": "uint256[]",
          "name": "",
          "type": "uint256[]"
        }
      ],
      "stateMutability": "view",
      "type": "function"
    },
    {
      "inputs": [],
      "name": "getMyBalanceTable",
      "outputs": [
        {
          "internalType": "uint256[]",
          "name": "",
          "type": "uint256[]"
        }
      ],
      "stateMutability": "view",
      "type": "function"
    },
    {
      "inputs": [],
      "name": "getMyPendingRewardsTotal",
      "outputs": [
        {
          "internalType": "uint256",
          "name": "",
          "type": "uint256"
        }
      ],
      "stateMutability": "view",
      "type": "function"
    },
    {
      "inputs": [],
      "name": "getMyShareOfTreasury",
      "outputs": [
        {
          "internalType": "uint256",
          "name": "",
          "type": "uint256"
        }
      ],
      "stateMutability": "view",
      "type": "function"
    },
    {
      "inputs": [
        {
          "internalType": "address",
          "name": "_user",
          "type": "address"
        },
        {
          "internalType": "enum ISafeNFT.Tiers",
          "name": "_tier",
          "type": "uint8"
        },
        {
          "internalType": "uint256",
          "name": "_distributionId",
          "type": "uint256"
        }
      ],
      "name": "getPendingRewards",
      "outputs": [
        {
          "internalType": "uint256",
          "name": "",
          "type": "uint256"
        }
      ],
      "stateMutability": "view",
      "type": "function"
    },
    {
      "inputs": [],
      "name": "getPresaleNFTAvailable",
      "outputs": [
        {
          "internalType": "uint256[]",
          "name": "",
          "type": "uint256[]"
        }
      ],
      "stateMutability": "view",
      "type": "function"
    },
    {
      "inputs": [
        {
          "internalType": "enum ISafeNFT.Tiers",
          "name": "_tier",
          "type": "uint8"
        }
      ],
      "name": "getPrice",
      "outputs": [
        {
          "internalType": "uint256",
          "name": "",
          "type": "uint256"
        }
      ],
      "stateMutability": "view",
      "type": "function"
    },
    {
      "inputs": [],
      "name": "getPriceTable",
      "outputs": [
        {
          "internalType": "uint256[]",
          "name": "",
          "type": "uint256[]"
        }
      ],
      "stateMutability": "view",
      "type": "function"
    },
    {
      "inputs": [
        {
          "internalType": "bytes32",
          "name": "role",
          "type": "bytes32"
        }
      ],
      "name": "getRoleAdmin",
      "outputs": [
        {
          "internalType": "bytes32",
          "name": "",
          "type": "bytes32"
        }
      ],
      "stateMutability": "view",
      "type": "function"
    },
    {
      "inputs": [
        {
          "internalType": "bytes32",
          "name": "role",
          "type": "bytes32"
        },
        {
          "internalType": "uint256",
          "name": "index",
          "type": "uint256"
        }
      ],
      "name": "getRoleMember",
      "outputs": [
        {
          "internalType": "address",
          "name": "",
          "type": "address"
        }
      ],
      "stateMutability": "view",
      "type": "function"
    },
    {
      "inputs": [
        {
          "internalType": "bytes32",
          "name": "role",
          "type": "bytes32"
        }
      ],
      "name": "getRoleMemberCount",
      "outputs": [
        {
          "internalType": "uint256",
          "name": "",
          "type": "uint256"
        }
      ],
      "stateMutability": "view",
      "type": "function"
    },
    {
      "inputs": [],
      "name": "getTotalSupplyAllTiers",
      "outputs": [
        {
          "internalType": "uint256",
          "name": "",
          "type": "uint256"
        }
      ],
      "stateMutability": "view",
      "type": "function"
    },
    {
      "inputs": [],
      "name": "getTreasuryCost",
      "outputs": [
        {
          "internalType": "uint256",
          "name": "",
          "type": "uint256"
        }
      ],
      "stateMutability": "view",
      "type": "function"
    },
    {
      "inputs": [],
      "name": "getUnclaimedRewards",
      "outputs": [
        {
          "internalType": "uint256",
          "name": "",
          "type": "uint256"
        }
      ],
      "stateMutability": "view",
      "type": "function"
    },
    {
      "inputs": [
        {
          "internalType": "bytes32",
          "name": "role",
          "type": "bytes32"
        },
        {
          "internalType": "address",
          "name": "account",
          "type": "address"
        }
      ],
      "name": "grantRole",
      "outputs": [],
      "stateMutability": "nonpayable",
      "type": "function"
    },
    {
      "inputs": [
        {
          "internalType": "bytes32",
          "name": "role",
          "type": "bytes32"
        },
        {
          "internalType": "address",
          "name": "account",
          "type": "address"
        }
      ],
      "name": "hasRole",
      "outputs": [
        {
          "internalType": "bool",
          "name": "",
          "type": "bool"
        }
      ],
      "stateMutability": "view",
      "type": "function"
    },
    {
      "inputs": [
        {
          "internalType": "string",
          "name": "_uri",
          "type": "string"
        },
        {
          "internalType": "uint256[4]",
          "name": "_price",
          "type": "uint256[4]"
        },
        {
          "internalType": "uint256[4]",
          "name": "_maxSupply",
          "type": "uint256[4]"
        },
        {
          "internalType": "contract ISafeToken",
          "name": "_safeToken",
          "type": "address"
        },
        {
          "internalType": "uint256[2]",
          "name": "_priceDistributionOnMint",
          "type": "uint256[2]"
        },
        {
          "internalType": "uint256",
          "name": "_referralShareForNFTPurchase",
          "type": "uint256"
        },
        {
          "internalType": "uint256[2]",
          "name": "_profitDistribution",
          "type": "uint256[2]"
        },
        {
          "internalType": "address",
          "name": "_stabilizerWallet",
          "type": "address"
        }
      ],
      "name": "initialize",
      "outputs": [],
      "stateMutability": "nonpayable",
      "type": "function"
    },
    {
      "inputs": [
        {
          "internalType": "address",
          "name": "account",
          "type": "address"
        },
        {
          "internalType": "address",
          "name": "operator",
          "type": "address"
        }
      ],
      "name": "isApprovedForAll",
      "outputs": [
        {
          "internalType": "bool",
          "name": "",
          "type": "bool"
        }
      ],
      "stateMutability": "view",
      "type": "function"
    },
    {
      "inputs": [
        {
          "internalType": "uint256",
          "name": "",
          "type": "uint256"
        }
      ],
      "name": "maxSupply",
      "outputs": [
        {
          "internalType": "uint256",
          "name": "",
          "type": "uint256"
        }
      ],
      "stateMutability": "view",
      "type": "function"
    },
    {
      "inputs": [
        {
          "internalType": "address",
          "name": "to",
          "type": "address"
        },
        {
          "internalType": "uint256",
          "name": "id",
          "type": "uint256"
        },
        {
          "internalType": "uint256",
          "name": "amount",
          "type": "uint256"
        },
        {
          "internalType": "bytes",
          "name": "data",
          "type": "bytes"
        }
      ],
      "name": "mint",
      "outputs": [],
      "stateMutability": "nonpayable",
      "type": "function"
    },
    {
      "inputs": [
        {
          "internalType": "address",
          "name": "to",
          "type": "address"
        },
        {
          "internalType": "uint256[]",
          "name": "ids",
          "type": "uint256[]"
        },
        {
          "internalType": "uint256[]",
          "name": "amounts",
          "type": "uint256[]"
        },
        {
          "internalType": "bytes",
          "name": "data",
          "type": "bytes"
        }
      ],
      "name": "mintBatch",
      "outputs": [],
      "stateMutability": "nonpayable",
      "type": "function"
    },
    {
      "inputs": [],
      "name": "name",
      "outputs": [
        {
          "internalType": "string",
          "name": "",
          "type": "string"
        }
      ],
      "stateMutability": "view",
      "type": "function"
    },
    {
      "inputs": [],
      "name": "pause",
      "outputs": [],
      "stateMutability": "nonpayable",
      "type": "function"
    },
    {
      "inputs": [],
      "name": "paused",
      "outputs": [
        {
          "internalType": "bool",
          "name": "",
          "type": "bool"
        }
      ],
      "stateMutability": "view",
      "type": "function"
    },
    {
      "inputs": [],
      "name": "presale",
      "outputs": [
        {
          "internalType": "bool",
          "name": "",
          "type": "bool"
        }
      ],
      "stateMutability": "view",
      "type": "function"
    },
    {
      "inputs": [
        {
          "internalType": "uint256",
          "name": "",
          "type": "uint256"
        }
      ],
      "name": "presaleMaxSupply",
      "outputs": [
        {
          "internalType": "uint256",
          "name": "",
          "type": "uint256"
        }
      ],
      "stateMutability": "view",
      "type": "function"
    },
    {
      "inputs": [
        {
          "internalType": "uint256",
          "name": "",
          "type": "uint256"
        },
        {
          "internalType": "uint256",
          "name": "",
          "type": "uint256"
        }
      ],
      "name": "presalePrice",
      "outputs": [
        {
          "internalType": "uint256",
          "name": "",
          "type": "uint256"
        }
      ],
      "stateMutability": "view",
      "type": "function"
    },
    {
      "inputs": [],
      "name": "presaleStartDate",
      "outputs": [
        {
          "internalType": "uint256",
          "name": "",
          "type": "uint256"
        }
      ],
      "stateMutability": "view",
      "type": "function"
    },
    {
      "inputs": [
        {
          "internalType": "uint256",
          "name": "",
          "type": "uint256"
        }
      ],
      "name": "price",
      "outputs": [
        {
          "internalType": "uint256",
          "name": "",
          "type": "uint256"
        }
      ],
      "stateMutability": "view",
      "type": "function"
    },
    {
      "inputs": [
        {
          "internalType": "uint256",
          "name": "",
          "type": "uint256"
        }
      ],
      "name": "priceDistributionOnMint",
      "outputs": [
        {
          "internalType": "uint256",
          "name": "",
          "type": "uint256"
        }
      ],
      "stateMutability": "view",
      "type": "function"
    },
    {
      "inputs": [
        {
          "internalType": "uint256",
          "name": "",
          "type": "uint256"
        }
      ],
      "name": "profitDistribution",
      "outputs": [
        {
          "internalType": "uint256",
          "name": "",
          "type": "uint256"
        }
      ],
      "stateMutability": "view",
      "type": "function"
    },
    {
      "inputs": [],
      "name": "referralShareForNFTPurchase",
      "outputs": [
        {
          "internalType": "uint256",
          "name": "",
          "type": "uint256"
        }
      ],
      "stateMutability": "view",
      "type": "function"
    },
    {
      "inputs": [
        {
          "internalType": "bytes32",
          "name": "role",
          "type": "bytes32"
        },
        {
          "internalType": "address",
          "name": "account",
          "type": "address"
        }
      ],
      "name": "renounceRole",
      "outputs": [],
      "stateMutability": "nonpayable",
      "type": "function"
    },
    {
      "inputs": [
        {
          "internalType": "bytes32",
          "name": "role",
          "type": "bytes32"
        },
        {
          "internalType": "address",
          "name": "account",
          "type": "address"
        }
      ],
      "name": "revokeRole",
      "outputs": [],
      "stateMutability": "nonpayable",
      "type": "function"
    },
    {
      "inputs": [
        {
          "internalType": "address",
          "name": "from",
          "type": "address"
        },
        {
          "internalType": "address",
          "name": "to",
          "type": "address"
        },
        {
          "internalType": "uint256[]",
          "name": "ids",
          "type": "uint256[]"
        },
        {
          "internalType": "uint256[]",
          "name": "amounts",
          "type": "uint256[]"
        },
        {
          "internalType": "bytes",
          "name": "data",
          "type": "bytes"
        }
      ],
      "name": "safeBatchTransferFrom",
      "outputs": [],
      "stateMutability": "nonpayable",
      "type": "function"
    },
    {
      "inputs": [],
      "name": "safeToken",
      "outputs": [
        {
          "internalType": "contract ISafeToken",
          "name": "",
          "type": "address"
        }
      ],
      "stateMutability": "view",
      "type": "function"
    },
    {
      "inputs": [
        {
          "internalType": "address",
          "name": "from",
          "type": "address"
        },
        {
          "internalType": "address",
          "name": "to",
          "type": "address"
        },
        {
          "internalType": "uint256",
          "name": "id",
          "type": "uint256"
        },
        {
          "internalType": "uint256",
          "name": "amount",
          "type": "uint256"
        },
        {
          "internalType": "bytes",
          "name": "data",
          "type": "bytes"
        }
      ],
      "name": "safeTransferFrom",
      "outputs": [],
      "stateMutability": "nonpayable",
      "type": "function"
    },
    {
      "inputs": [],
      "name": "safeVault",
      "outputs": [
        {
          "internalType": "contract ISafeVault",
          "name": "",
          "type": "address"
        }
      ],
      "stateMutability": "view",
      "type": "function"
    },
    {
      "inputs": [
        {
          "internalType": "address",
          "name": "operator",
          "type": "address"
        },
        {
          "internalType": "bool",
          "name": "approved",
          "type": "bool"
        }
      ],
      "name": "setApprovalForAll",
      "outputs": [],
      "stateMutability": "nonpayable",
      "type": "function"
    },
    {
      "inputs": [
        {
          "internalType": "uint256[][]",
          "name": "_presalePrice",
          "type": "uint256[][]"
        }
      ],
      "name": "setDiscountedPriceTable",
      "outputs": [],
      "stateMutability": "nonpayable",
      "type": "function"
    },
    {
      "inputs": [
        {
          "internalType": "uint256[4]",
          "name": "_presaleMaxSupply",
          "type": "uint256[4]"
        }
      ],
      "name": "setPresaleMaxSupply",
      "outputs": [],
      "stateMutability": "nonpayable",
      "type": "function"
    },
    {
      "inputs": [
        {
          "internalType": "uint256",
          "name": "_launchDate",
          "type": "uint256"
        },
        {
          "internalType": "uint256",
          "name": "_weekDuration",
          "type": "uint256"
        }
      ],
      "name": "setPresaleStartDate",
      "outputs": [],
      "stateMutability": "nonpayable",
      "type": "function"
    },
    {
      "inputs": [
        {
          "internalType": "address",
          "name": "",
          "type": "address"
        },
        {
          "internalType": "uint256",
          "name": "",
          "type": "uint256"
        },
        {
          "internalType": "uint256",
          "name": "",
          "type": "uint256"
        }
      ],
      "name": "soldPerPresaleWeek",
      "outputs": [
        {
          "internalType": "uint256",
          "name": "",
          "type": "uint256"
        }
      ],
      "stateMutability": "view",
      "type": "function"
    },
    {
      "inputs": [],
      "name": "stabilizerWallet",
      "outputs": [
        {
          "internalType": "address",
          "name": "",
          "type": "address"
        }
      ],
      "stateMutability": "view",
      "type": "function"
    },
    {
      "inputs": [
        {
          "internalType": "bytes4",
          "name": "interfaceId",
          "type": "bytes4"
        }
      ],
      "name": "supportsInterface",
      "outputs": [
        {
          "internalType": "bool",
          "name": "",
          "type": "bool"
        }
      ],
      "stateMutability": "view",
      "type": "function"
    },
    {
      "inputs": [],
      "name": "togglePresale",
      "outputs": [],
      "stateMutability": "nonpayable",
      "type": "function"
    },
    {
      "inputs": [
        {
          "internalType": "uint256",
          "name": "id",
          "type": "uint256"
        }
      ],
      "name": "totalSupply",
      "outputs": [
        {
          "internalType": "uint256",
          "name": "",
          "type": "uint256"
        }
      ],
      "stateMutability": "view",
      "type": "function"
    },
    {
      "inputs": [],
      "name": "unpause",
      "outputs": [],
      "stateMutability": "nonpayable",
      "type": "function"
    },
    {
      "inputs": [
        {
          "internalType": "uint256",
          "name": "",
          "type": "uint256"
        }
      ],
      "name": "uri",
      "outputs": [
        {
          "internalType": "string",
          "name": "",
          "type": "string"
        }
      ],
      "stateMutability": "view",
      "type": "function"
    },
    {
      "inputs": [],
      "name": "usd",
      "outputs": [
        {
          "internalType": "contract IERC20",
          "name": "",
          "type": "address"
        }
      ],
      "stateMutability": "view",
      "type": "function"
    },
    {
      "inputs": [
        {
          "internalType": "uint256",
          "name": "",
          "type": "uint256"
        }
      ],
      "name": "wallets",
      "outputs": [
        {
          "internalType": "address",
          "name": "",
          "type": "address"
        }
      ],
      "stateMutability": "view",
      "type": "function"
    },
    {
      "inputs": [],
      "name": "weekDuration",
      "outputs": [
        {
          "internalType": "uint256",
          "name": "",
          "type": "uint256"
        }
      ],
      "stateMutability": "view",
      "type": "function"
    }
  ],
  "transactionHash": "0x4b0ee2695de42bcdcaa35d6cb00ce5bda68908898c92cec787d91198483157cf",
  "args": [
    "",
    [
      "131250000",
      "262500000",
      "525000000",
      "1050000000"
    ],
    [
      2000,
      1000,
      1000,
      1000
    ],
    "0x85eB18C439b34ab08785Bb309CA94EADBC1bC07F",
    [
      70000000,
      20000000
    ],
    5000000,
    [
      25000000,
      20000000
    ],
    "0xe97BDb5600d711C38854d603a4748f98063314AB"
  ],
  "numDeployments": 1,
  "solcInputHash": "36490c9b90e958259aa20700fde261c9",
  "bytecode": "0x60806040523480156200001157600080fd5b5060405162006564380380620065648339810160408190526200003491620008ad565b87806200004181620000b5565b506007805460ff1916905562000059600033620000c7565b620000746000805160206200654483398151915233620000c7565b6200008f6000805160206200652483398151915233620000c7565b506001600955620000a78888888888888888620000d3565b505050505050505062000bf2565b6006620000c3828262000a74565b5050565b620000c382826200050c565b6000620000ed600080516020620065048339815191525490565b90506001600160a01b0381166200011d576001600160a01b03600080516020620065048339815191525562000133565b336001600160a01b038216146200013357600080fd5b6200013e89620000b5565b6200014b600033620000c7565b620001666000805160206200654483398151915233620000c7565b620001816000805160206200652483398151915233620000c7565b62000190600a8960046200066f565b50620001a0601e8860046200066f565b50602480546001600160a01b0319166001600160a01b038816179055620001cb6027866002620006b2565b50602b849055620001e06029846002620006b2565b50602c80546001600160a01b0319166001600160a01b03848116919091179091556024546040805163db7a460560e01b815281516200027394939093169263db7a4605926004808401939192918290030181865afa15801562000247573d6000803e3d6000fd5b505050506040513d601f19601f820116820180604052508101906200026d919062000b40565b6200054f565b602460009054906101000a90046001600160a01b03166001600160a01b031663deef94de6040518163ffffffff1660e01b8152600401602060405180830381865afa158015620002c7573d6000803e3d6000fd5b505050506040513d601f19601f82011682018060405250810190620002ed919062000ba7565b602580546001600160a01b0319166001600160a01b039283161790556024546040805163d63a6ccd60e01b81529051919092169163d63a6ccd9160048083019260209291908290030181865afa1580156200034c573d6000803e3d6000fd5b505050506040513d601f19601f8201168201806040525081019062000372919062000ba7565b602680546001600160a01b0319166001600160a01b039283169081179091556024805460405163095ea7b360e01b815293166004840152600019908301529063095ea7b3906044016020604051808303816000875af1158015620003da573d6000803e3d6000fd5b505050506040513d601f19601f8201168201806040525081019062000400919062000bce565b5060265460255460405163095ea7b360e01b81526001600160a01b039182166004820152600019602482015291169063095ea7b3906044016020604051808303816000875af115801562000458573d6000803e3d6000fd5b505050506040513d601f19601f820116820180604052508101906200047e919062000bce565b506024805460405163095ea7b360e01b81526001600160a01b03909116600482018190526000199282019290925263095ea7b3906044016020604051808303816000875af1158015620004d5573d6000803e3d6000fd5b505050506040513d601f19601f82011682018060405250810190620004fb919062000bce565b505060006036555050505050505050565b6200052382826200055d60201b62002e011760201c565b60008281526001602090815260409091206200054a91839062002e85620005fd821b17901c565b505050565b620000c360028281620006e2565b6000828152602081815260408083206001600160a01b038516845290915290205460ff16620000c3576000828152602081815260408083206001600160a01b03851684529091529020805460ff19166001179055620005b93390565b6001600160a01b0316816001600160a01b0316837f2f8788117e7eff1d82e926ec794901d17c78024a50270940304540a733656f0d60405160405180910390a45050565b600062000614836001600160a01b0384166200061d565b90505b92915050565b6000818152600183016020526040812054620006665750815460018181018455600084815260208082209093018490558454848252828601909352604090209190915562000617565b50600062000617565b8260048101928215620006a0579160200282015b82811115620006a057825182559160200191906001019062000683565b50620006ae9291506200072d565b5090565b8260028101928215620006a05791602002820182811115620006a057825182559160200191906001019062000683565b8260028101928215620006a0579160200282015b82811115620006a057825182546001600160a01b0319166001600160a01b03909116178255602090920191600190910190620006f6565b5b80821115620006ae57600081556001016200072e565b634e487b7160e01b600052604160045260246000fd5b604080519081016001600160401b03811182821017156200077f576200077f62000744565b60405290565b604051601f8201601f191681016001600160401b0381118282101715620007b057620007b062000744565b604052919050565b600082601f830112620007ca57600080fd5b604051608081016001600160401b0381118282101715620007ef57620007ef62000744565b6040528060808401858111156200080557600080fd5b845b818110156200082157805183526020928301920162000807565b509195945050505050565b6001600160a01b03811681146200084257600080fd5b50565b805162000852816200082c565b919050565b600082601f8301126200086957600080fd5b620008736200075a565b8060408401858111156200088657600080fd5b845b81811015620008a257805184526020938401930162000888565b509095945050505050565b600080600080600080600080610200898b031215620008cb57600080fd5b88516001600160401b0380821115620008e357600080fd5b818b0191508b601f830112620008f857600080fd5b8151818111156200090d576200090d62000744565b6020915062000925601f8201601f1916830162000785565b8181528d838386010111156200093a57600080fd5b60005b828110156200095a5784810184015182820185015283016200093d565b506000838383010152809b505050620009768c828d01620007b8565b98505050620009898a60a08b01620007b8565b95506200099a6101208a0162000845565b9450620009ac8a6101408b0162000857565b93506101808901519250620009c68a6101a08b0162000857565b9150620009d76101e08a0162000845565b90509295985092959890939650565b600181811c90821680620009fb57607f821691505b60208210810362000a1c57634e487b7160e01b600052602260045260246000fd5b50919050565b601f8211156200054a57600081815260208120601f850160051c8101602086101562000a4b5750805b601f850160051c820191505b8181101562000a6c5782815560010162000a57565b505050505050565b81516001600160401b0381111562000a905762000a9062000744565b62000aa88162000aa18454620009e6565b8462000a22565b602080601f83116001811462000ae0576000841562000ac75750858301515b600019600386901b1c1916600185901b17855562000a6c565b600085815260208120601f198616915b8281101562000b115788860151825594840194600190910190840162000af0565b508582101562000b305787850151600019600388901b60f8161c191681555b5050505050600190811b01905550565b60006040828403121562000b5357600080fd5b82601f83011262000b6357600080fd5b62000b6d6200075a565b80604084018581111562000b8057600080fd5b845b81811015620008a257805162000b98816200082c565b84526020938401930162000b82565b60006020828403121562000bba57600080fd5b815162000bc7816200082c565b9392505050565b60006020828403121562000be157600080fd5b8151801515811462000bc757600080fd5b6159028062000c026000396000f3fe608060405234801561001057600080fd5b50600436106104685760003560e01c80636b20c4541161024c578063ca7b244711610146578063e0adca1b116100c3578063f242432a11610087578063f242432a14610a07578063f3430a1614610a1a578063f5298aca14610a2d578063fd18a25314610a40578063fdea8e0b14610a5357600080fd5b8063e0adca1b14610976578063e63ab1e914610989578063e985e9c5146109b0578063f03f1e51146109ec578063f0b2df89146109f457600080fd5b8063d53913931161010a578063d539139314610903578063d547741f1461092a578063d63a6ccd1461093d578063deef94de14610950578063df71da761461096357600080fd5b8063ca7b244714610891578063ced79ce0146108a4578063d0d5a1ba146108d5578063d36122b8146108e8578063d36dfac8146108f057600080fd5b80638456cb59116101d4578063a1f5c23911610198578063a1f5c2391461083b578063a217fddf14610843578063a22cb4651461084b578063bd85b0391461085e578063ca15c8731461087e57600080fd5b80638456cb59146107f2578063869f7594146107fa5780638d3bd55b1461080d5780639010d07c1461081557806391d148541461082857600080fd5b8063780069e01161021b578063780069e0146107945780637ad71f721461079d5780637dfe5914146107b05780637e93391a146107e157806380a3a783146107e957600080fd5b80636b20c454146107665780636d6689ea146107795780636e748f9714610779578063731133e91461078157600080fd5b80632c13f08c116103685780634b3fd05a116102e557806353f7ffd2116102a957806353f7ffd21461070f578063592fa65e146107225780635c975abb146107355780635e95b4fe146107405780636ac600681461075357600080fd5b80634b3fd05a146106ac5780634e1273f4146106bf5780634f558e79146106d257806351ba5b44146106f457806352a1ad54146106fc57600080fd5b806336568abe1161032c57806336568abe1461065857806337f1e7f21461066b5780633f4ba83a1461067e578063418f7c51146106865780634407a61e1461069957600080fd5b80632c13f08c1461061a5780632e2a31d4146106225780632eb2c2d61461062a5780632f2ff15d1461063d578063343937431461065057600080fd5b80630e89341c116103f65780631a5e85e5116103ba5780631a5e85e5146105b45780631f7fdffa146105bc57806323f77fa9146105d1578063248a9ca3146105e457806326a49e371461060757600080fd5b80630e89341c1461055c578063104304f31461056f5780631623025714610584578063168affdf1461058c5780631729c14f146105ac57600080fd5b806304a3adf71161043d57806304a3adf7146104d257806304ca4c07146104db57806305adca38146104ee57806306fdde03146104f65780630b0b73d21461053157600080fd5b8062a13c4c1461046d578062fdd58e1461048957806301ffc9a71461049c57806303b2add0146104bf575b600080fd5b610476602b5481565b6040519081526020015b60405180910390f35b610476610497366004614703565b610a67565b6104af6104aa366004614745565b610b02565b6040519015158152602001610480565b6104766104cd366004614762565b610b0d565b61047660235481565b6104766104e936600461477b565b610b24565b610476610b49565b6105246040518060400160405280600f81526020016e14d8599948165a595b191cc8139195608a1b81525081565b60405161048091906147ed565b602c54610544906001600160a01b031681565b6040516001600160a01b039091168152602001610480565b61052461056a366004614762565b610b9b565b610577610c2f565b604051610480919061483b565b610476610cac565b61047661059a366004614762565b60376020526000908152604090205481565b610577610d43565b610476610de2565b6105cf6105ca3660046149bb565b610e1d565b005b6105776105df366004614a55565b610e75565b6104766105f2366004614762565b60009081526020819052604090206001015490565b610476610615366004614762565b610ee1565b610577610ef1565b610577610f68565b6105cf610638366004614a72565b611015565b6105cf61064b366004614b1f565b611061565b6105cf61108b565b6105cf610666366004614b1f565b611118565b610476610679366004614b63565b611196565b6105cf6111c4565b610476610694366004614b7e565b61126a565b6105cf6106a7366004614bbc565b611337565b602454610544906001600160a01b031681565b6105776106cd366004614c77565b6114b3565b6104af6106e0366004614762565b600090815260086020526040902054151590565b6104766115dc565b61047661070a36600461477b565b61165f565b6105cf61071d366004614d43565b611681565b61047661073036600461477b565b611785565b60075460ff166104af565b61047661074e36600461477b565b6117a1565b6105cf610761366004614dfb565b6117bd565b6105cf610774366004614ec8565b611c12565b610476600481565b6105cf61078f366004614f3d565b611c55565b61047660365481565b6105446107ab366004614762565b611ca7565b6104766107be366004614f93565b602d60209081526000938452604080852082529284528284209052825290205481565b610476611cc7565b61047660225481565b6105cf611e60565b610476610808366004614762565b611f04565b610476600281565b61054461082336600461477b565b611f14565b6104af610836366004614b1f565b611f33565b610577611f5c565b610476600081565b6105cf610859366004614fd6565b611f6e565b61047661086c366004614762565b60009081526008602052604090205490565b61047661088c366004614762565b611f79565b61047661089f366004614762565b611f90565b6104766108b2366004615004565b603a60209081526000938452604080852082529284528284209052825290205481565b6105cf6108e336600461503d565b611fa0565b6105cf61285f565b6105cf6108fe366004614762565b6128ca565b6104767f9f2df0fed2c77648de5860a4cc508cd0818c85b8b8a1ab4ceeef8d981c8956a681565b6105cf610938366004614b1f565b612bbe565b602654610544906001600160a01b031681565b602554610544906001600160a01b031681565b610476610971366004614762565b612be3565b6105cf61098436600461477b565b612bf3565b6104767f65d7a28e3265b37a6474929f336521b332c1681b933f6cb9f3376673440d862a81565b6104af6109be366004615072565b6001600160a01b03918216600090815260056020908152604080832093909416825291909152205460ff1690565b610476612c25565b610476610a02366004614b63565b612c8d565b6105cf610a153660046150a0565b612d35565b6105cf610a28366004615108565b612d7a565b6105cf610a3b366004614f93565b612dae565b610476610a4e366004614762565b612df1565b602c546104af90600160a01b900460ff1681565b60006001600160a01b038316610ad75760405162461bcd60e51b815260206004820152602a60248201527f455243313135353a2061646472657373207a65726f206973206e6f742061207660448201526930b634b21037bbb732b960b11b60648201526084015b60405180910390fd5b5060008181526004602090815260408083206001600160a01b03861684529091529020545b92915050565b6000610afc82612e9a565b60328160048110610b1d57600080fd5b0154905081565b60386020528160005260406000208160048110610b4057600080fd5b01549150829050565b602c54600090600160a01b900460ff168015610b6757506000602254115b610b715750600090565b602354602254610b81904261513a565b610b8b919061514d565b610b9690600161516f565b905090565b606060068054610baa90615182565b80601f0160208091040260200160405190810160405280929190818152602001828054610bd690615182565b8015610c235780601f10610bf857610100808354040283529160200191610c23565b820191906000526020600020905b815481529060010190602001808311610c0657829003601f168201915b50505050509050919050565b60408051600480825260a08201909252606091600091906020820160808036833701905050905060005b6004811015610ca657600a8160048110610c7557610c756151b6565b0154828281518110610c8957610c896151b6565b602090810291909101015280610c9e816151cc565b915050610c59565b50919050565b600080805b6004811015610ca65760005b6036548111610d30576000818152603b602052604090208260048110610ce557610ce56151b6565b015460008281526038602052604090208360048110610d0657610d066151b6565b0154610d12919061513a565b610d1c908461516f565b925080610d28816151cc565b915050610cbd565b5080610d3b816151cc565b915050610cb1565b60606000610d4f610b49565b60408051600480825260a08201909252919250600091906020820160808036833701905050905060005b6004811015610ddb57600e8360048110610d9557610d956151b6565b600402018160048110610daa57610daa6151b6565b0154828281518110610dbe57610dbe6151b6565b602090810291909101015280610dd3816151cc565b915050610d79565b5092915050565b600080805b6004811015610ca657600081815260086020526040902054610e09908361516f565b915080610e15816151cc565b915050610de7565b610e477f9f2df0fed2c77648de5860a4cc508cd0818c85b8b8a1ab4ceeef8d981c8956a633611f33565b610e635760405162461bcd60e51b8152600401610ace906151e5565b610e6f84848484612ea5565b50505050565b60408051600480825260a08201909252606091600091906020820160808036833701905050905060005b6004811015610ddb57610eb28482610a67565b828281518110610ec457610ec46151b6565b602090810291909101015280610ed9816151cc565b915050610e9f565b600a8160048110610b1d57600080fd5b60408051600480825260a08201909252606091600091906020820160808036833701905050905060005b6004811015610ca657610f39816003811115610a0257610a02615242565b828281518110610f4b57610f4b6151b6565b602090810291909101015280610f60816151cc565b915050610f1b565b60606000610f74610b49565b60408051600480825260a08201909252919250600091906020820160808036833701905050905060005b6004811015610ddb5760328160048110610fba57610fba6151b6565b015483602e8360048110610fd057610fd06151b6565b0154610fdc9190615258565b610fe6919061513a565b828281518110610ff857610ff86151b6565b60209081029190910101528061100d816151cc565b915050610f9e565b6001600160a01b038516331480611031575061103185336109be565b61104d5760405162461bcd60e51b8152600401610ace9061526f565b61105a858585858561300f565b5050505050565b60008281526020819052604090206001015461107c816131ca565b61108683836131d4565b505050565b611096600033611f33565b6110b25760405162461bcd60e51b8152600401610ace906152bd565b602c805460ff600160a01b808304821615810260ff60a01b1990931692909217928390556040517f512e257b3133a95bd1fef520dafc0dfb212f406af4f808d030e788c8ff536c049361110e9390049091161515815260200190565b60405180910390a1565b6001600160a01b03811633146111885760405162461bcd60e51b815260206004820152602f60248201527f416363657373436f6e74726f6c3a2063616e206f6e6c792072656e6f756e636560448201526e103937b632b9903337b91039b2b63360891b6064820152608401610ace565b61119282826131f6565b5050565b6000600a8260038111156111ac576111ac615242565b600481106111bc576111bc6151b6565b015492915050565b6111ee7f65d7a28e3265b37a6474929f336521b332c1681b933f6cb9f3376673440d862a33611f33565b6112605760405162461bcd60e51b815260206004820152603b60248201527f455243313135355072657365744d696e7465725061757365723a206d7573742060448201527f686176652070617573657220726f6c6520746f20756e706175736500000000006064820152608401610ace565b611268613218565b565b60008083600381111561127f5761127f615242565b60365460009081526038602052604081209192509082600481106112a5576112a56151b6565b015460008381526008602052604081205491925090156112f1576000838152600860205260409020546112d88885610a67565b6112e29084615258565b6112ec919061514d565b6112f4565b60005b6000868152603a6020908152604080832087845282528083206001600160a01b038c16845290915290205490915061132c908261513a565b979650505050505050565b611342600033611f33565b61135e5760405162461bcd60e51b8152600401610ace906152bd565b60048151146113af5760405162461bcd60e51b815260206004820152601960248201527f496e636f7272656374206e756d626572206f66207765656b73000000000000006044820152606401610ace565b60005b60048110156111925760048282815181106113cf576113cf6151b6565b602002602001015151146114255760405162461bcd60e51b815260206004820152601960248201527f496e636f7272656374206e756d626572206f66207469657273000000000000006044820152606401610ace565b60005b60048110156114a057828281518110611443576114436151b6565b6020026020010151818151811061145c5761145c6151b6565b6020026020010151600e8360048110611477576114776151b6565b60040201826004811061148c5761148c6151b6565b015580611498816151cc565b915050611428565b50806114ab816151cc565b9150506113b2565b606081518351146115185760405162461bcd60e51b815260206004820152602960248201527f455243313135353a206163636f756e747320616e6420696473206c656e677468604482015268040dad2e6dac2e8c6d60bb1b6064820152608401610ace565b600083516001600160401b038111156115335761153361484e565b60405190808252806020026020018201604052801561155c578160200160208202803683370190505b50905060005b84518110156115d4576115a7858281518110611580576115806151b6565b602002602001015185838151811061159a5761159a6151b6565b6020026020010151610a67565b8282815181106115b9576115b96151b6565b60209081029190910101526115cd816151cc565b9050611562565b509392505050565b60003381805b600481101561163257600a81600481106115fe576115fe6151b6565b015461160a8483610a67565b6116149190615258565b61161e908361516f565b91508061162a816151cc565b9150506115e2565b50600061163d611cc7565b905080156116545761164f818361514d565b611657565b60005b935050505090565b600e826004811061166f57600080fd5b600402018160048110610b4057600080fd5b611689613265565b33600061169782858561126a565b60265460405163a9059cbb60e01b81526001600160a01b0385811660048301526024820184905292935091169063a9059cbb906044016020604051808303816000875af11580156116ec573d6000803e3d6000fd5b505050506040513d601f19601f82011682018060405250810190611710919061530c565b506000838152603a60205260408120829186600381111561173357611733615242565b81526020019081526020016000206000846001600160a01b03166001600160a01b031681526020019081526020016000206000828254611773919061516f565b90915550506001600955506111929050565b603b6020528160005260406000208160048110610b4057600080fd5b60396020528160005260406000208160048110610b4057600080fd5b60006117e77fb53127684a568b3173ae13b9f8a6016e243e63b6e8ee1178d6a717850b5d61035490565b90506001600160a01b038116611826576001600160a01b037fb53127684a568b3173ae13b9f8a6016e243e63b6e8ee1178d6a717850b5d61035561183b565b336001600160a01b0382161461183b57600080fd5b611844896132be565b61184f6000336132ca565b6118797f9f2df0fed2c77648de5860a4cc508cd0818c85b8b8a1ab4ceeef8d981c8956a6336132ca565b6118a37f65d7a28e3265b37a6474929f336521b332c1681b933f6cb9f3376673440d862a336132ca565b6118b0600a896004614626565b506118be601e886004614626565b50602480546001600160a01b0319166001600160a01b0388161790556118e76027866002614664565b50602b8490556118fa6029846002614664565b50602c80546001600160a01b0319166001600160a01b03848116919091179091556024546040805163db7a460560e01b8152815161198894939093169263db7a4605926004808401939192918290030181865afa15801561195f573d6000803e3d6000fd5b505050506040513d601f19601f820116820180604052508101906119839190615329565b6132d4565b602460009054906101000a90046001600160a01b03166001600160a01b031663deef94de6040518163ffffffff1660e01b8152600401602060405180830381865afa1580156119db573d6000803e3d6000fd5b505050506040513d601f19601f820116820180604052508101906119ff919061538b565b602580546001600160a01b0319166001600160a01b039283161790556024546040805163d63a6ccd60e01b81529051919092169163d63a6ccd9160048083019260209291908290030181865afa158015611a5d573d6000803e3d6000fd5b505050506040513d601f19601f82011682018060405250810190611a81919061538b565b602680546001600160a01b0319166001600160a01b039283169081179091556024805460405163095ea7b360e01b815293166004840152600019908301529063095ea7b3906044016020604051808303816000875af1158015611ae8573d6000803e3d6000fd5b505050506040513d601f19601f82011682018060405250810190611b0c919061530c565b5060265460255460405163095ea7b360e01b81526001600160a01b039182166004820152600019602482015291169063095ea7b3906044016020604051808303816000875af1158015611b63573d6000803e3d6000fd5b505050506040513d601f19601f82011682018060405250810190611b87919061530c565b506024805460405163095ea7b360e01b81526001600160a01b03909116600482018190526000199282019290925263095ea7b3906044016020604051808303816000875af1158015611bdd573d6000803e3d6000fd5b505050506040513d601f19601f82011682018060405250810190611c01919061530c565b505060006036555050505050505050565b6001600160a01b038316331480611c2e5750611c2e83336109be565b611c4a5760405162461bcd60e51b8152600401610ace9061526f565b6110868383836132e0565b611c7f7f9f2df0fed2c77648de5860a4cc508cd0818c85b8b8a1ab4ceeef8d981c8956a633611f33565b611c9b5760405162461bcd60e51b8152600401610ace906151e5565b610e6f84848484613489565b60028160028110611cb757600080fd5b01546001600160a01b0316905081565b6000620f4240602460009054906101000a90046001600160a01b03166001600160a01b031663a035b1fe6040518163ffffffff1660e01b8152600401602060405180830381865afa158015611d20573d6000803e3d6000fd5b505050506040513d601f19601f82011682018060405250810190611d4491906153a8565b6024546001600160a01b03166370a0823160026000015460405160e083901b6001600160e01b03191681526001600160a01b039091166004820152602401602060405180830381865afa158015611d9f573d6000803e3d6000fd5b505050506040513d601f19601f82011682018060405250810190611dc391906153a8565b611dcd9190615258565b611dd7919061514d565b6026546001600160a01b03166370a0823160026000015460405160e083901b6001600160e01b03191681526001600160a01b039091166004820152602401602060405180830381865afa158015611e32573d6000803e3d6000fd5b505050506040513d601f19601f82011682018060405250810190611e5691906153a8565b610b96919061516f565b611e8a7f65d7a28e3265b37a6474929f336521b332c1681b933f6cb9f3376673440d862a33611f33565b611efc5760405162461bcd60e51b815260206004820152603960248201527f455243313135355072657365744d696e7465725061757365723a206d7573742060448201527f686176652070617573657220726f6c6520746f207061757365000000000000006064820152608401610ace565b611268613583565b601e8160048110610b1d57600080fd5b6000828152600160205260408120611f2c90836135c0565b9392505050565b6000918252602082815260408084206001600160a01b0393909316845291905290205460ff1690565b606033611f6881610e75565b91505090565b6111923383836135cc565b6000818152600160205260408120610afc906136ac565b60298160028110610b1d57600080fd5b611fa8613265565b6000821161201e5760405162461bcd60e51b815260206004820152603960248201527f45205243313135355072657365744d696e7465725061757365723a20616d6f7560448201527f6e74206d7573742062652067726561746572207468616e2030000000000000006064820152608401610ace565b6000600a84600381111561203457612034615242565b60048110612044576120446151b6565b0154116120b95760405162461bcd60e51b815260206004820152603c60248201527f455243313135355072657365744d696e7465725061757365723a20746965722060448201527f7072696365206d7573742062652067726561746572207468616e2030000000006064820152608401610ace565b6001600160a01b03811615801590806120e357508080156120e357506001600160a01b0382163314155b61213e5760405162461bcd60e51b815260206004820152602660248201527f526566657272616c206d75737420626520646966666572656e742066726f6d2060448201526539b2b73232b960d11b6064820152608401610ace565b600084600381111561215257612152615242565b602c54909150600160a01b900460ff166123ef57600084600a87600381111561217d5761217d615242565b6004811061218d5761218d6151b6565b01546121999190615258565b6026549091506001600160a01b03166323b872dd336040516001600160e01b031960e084901b1681526001600160a01b039091166004820152306024820152604481018490526064016020604051808303816000875af1158015612201573d6000803e3d6000fd5b505050506040513d601f19601f82011682018060405250810190612225919061530c565b5060006122428260278661223a5760006136b6565b602b546136b6565b6024805460405163f7e0ba5f60e01b8152600481018490529293506000926001600160a01b039091169163f7e0ba5f91016020604051808303816000875af1158015612292573d6000803e3d6000fd5b505050506040513d601f19601f820116820180604052508101906122b691906153a8565b6024549091506000906122d4906001600160a01b0316836027613725565b90508515612311576000612301602460009054906101000a90046001600160a01b0316848a602b54613823565b905061230d818361516f565b9150505b6026546040516370a0823160e01b81523060048201526000916001600160a01b0316906370a0823190602401602060405180830381865afa15801561235a573d6000803e3d6000fd5b505050506040513d601f19601f8201168201806040525081019061237e91906153a8565b905080156123e55760255460405163b6b55f2560e01b8152600481018390526001600160a01b039091169063b6b55f2590602401600060405180830381600087803b1580156123cc57600080fd5b505af11580156123e0573d6000803e3d6000fd5b505050505b5050505050612838565b6022544210156124415760405162461bcd60e51b815260206004820152601a60248201527f50726573616c65206973206e6f742073746172746564207965740000000000006044820152606401610ace565b600061244b610b49565b90506000600e8260048110612462576124626151b6565b60408051608081019182905292600492830201919082845b81548152602001906001019080831161247a575050505050905085602d60006124a03390565b6001600160a01b03166001600160a01b03168152602001908152602001600020600084815260200190815260200160002060008960038111156124e5576124e5615242565b81526020019081526020016000206000828254612502919061516f565b90915550869050603288600381111561251d5761251d615242565b6004811061252d5761252d6151b6565b01600082825461253d919061516f565b90915550829050602e88600381111561255857612558615242565b60048110612568576125686151b6565b01546125749190615258565b603288600381111561258857612588615242565b60048110612598576125986151b6565b015411156125f45760405162461bcd60e51b815260206004820152602360248201527f50726573616c65206d617820737570706c7920706572207765656b20726561636044820152621a195960ea1b6064820152608401610ace565b6000868289600381111561260a5761260a615242565b6004811061261a5761261a6151b6565b60200201516126299190615258565b6026549091506001600160a01b03166323b872dd336040516001600160e01b031960e084901b1681526001600160a01b039091166004820152306024820152604481018490526064016020604051808303816000875af1158015612691573d6000803e3d6000fd5b505050506040513d601f19601f820116820180604052508101906126b5919061530c565b506000856126c45760006126e1565b602654602b546126e1916001600160a01b03169084908a90613823565b9050600086156126f257600061271d565b60265461271d906001600160a01b031684600260000154602b546001600160a01b0390911690613823565b60265490915060009061273b906001600160a01b0316856027613725565b6026546040516370a0823160e01b81523060048201529192506000916001600160a01b03909116906370a0823190602401602060405180830381865afa158015612789573d6000803e3d6000fd5b505050506040513d601f19601f820116820180604052508101906127ad91906153a8565b9050801561283057602654602c5460405163a9059cbb60e01b81526001600160a01b0391821660048201526024810184905291169063a9059cbb906044016020604051808303816000875af115801561280a573d6000803e3d6000fd5b505050506040513d601f19601f8201168201806040525081019061282e919061530c565b505b505050505050505b61285333828660405180602001604052806000815250613489565b50506110866001600955565b612867613265565b60005b60048110156128bf5760005b60365481116128ac5761289a82600381111561289457612894615242565b82611681565b806128a4816151cc565b915050612876565b50806128b7816151cc565b91505061286a565b506112686001600955565b6128d2613265565b6026546001600160a01b03166323b872dd336040516001600160e01b031960e084901b1681526001600160a01b039091166004820152306024820152604481018490526064016020604051808303816000875af1158015612937573d6000803e3d6000fd5b505050506040513d601f19601f8201168201806040525081019061295b919061530c565b50600061296960028361514d565b9050600061298361297a838561513a565b602960006136b6565b6024805460405163f7e0ba5f60e01b8152600481018490529293506000926001600160a01b039091169163f7e0ba5f91016020604051808303816000875af11580156129d3573d6000803e3d6000fd5b505050506040513d601f19601f820116820180604052508101906129f791906153a8565b602454909150600090612a15906001600160a01b0316836029613725565b603680549192506000612a27836151cc565b90915550506036546000908152603760205260408120829055612a48610de2565b905060005b6004811015612ad6576000818152600860209081526040808320546036548452603990925290912081908360048110612a8857612a886151b6565b015582612a958289615258565b612a9f919061514d565b60365460009081526038602052604090208360048110612ac157612ac16151b6565b01555080612ace816151cc565b915050612a4d565b506026546040516370a0823160e01b81523060048201526000916001600160a01b0316906370a0823190602401602060405180830381865afa158015612b20573d6000803e3d6000fd5b505050506040513d601f19601f82011682018060405250810190612b4491906153a8565b90508015612bab5760255460405163b6b55f2560e01b8152600481018390526001600160a01b039091169063b6b55f2590602401600060405180830381600087803b158015612b9257600080fd5b505af1158015612ba6573d6000803e3d6000fd5b505050505b505050505050612bbb6001600955565b50565b600082815260208190526040902060010154612bd9816131ca565b61108683836131f6565b60278160028110610b1d57600080fd5b612bfe600033611f33565b612c1a5760405162461bcd60e51b8152600401610ace906152bd565b602291909155602355565b60003381805b6004811015610ddb5760005b6036548111612c7a57612c5c84836003811115612c5657612c56615242565b8361126a565b612c66908461516f565b925080612c72816151cc565b915050612c37565b5080612c85816151cc565b915050612c2b565b6000612ca482600381111561086c5761086c615242565b15612cc357612cbe82600381111561086c5761086c615242565b612cc6565b60015b6036546000908152603860205260409020836003811115612ce957612ce9615242565b60048110612cf957612cf96151b6565b0154612d05919061514d565b600a836003811115612d1957612d19615242565b60048110612d2957612d296151b6565b0154610afc919061516f565b6001600160a01b038516331480612d515750612d5185336109be565b612d6d5760405162461bcd60e51b8152600401610ace9061526f565b61105a8585858585613988565b612d85600033611f33565b612da15760405162461bcd60e51b8152600401610ace906152bd565b611192602e826004614626565b6001600160a01b038316331480612dca5750612dca83336109be565b612de65760405162461bcd60e51b8152600401610ace9061526f565b611086838383613ad2565b602e8160048110610b1d57600080fd5b612e0b8282611f33565b611192576000828152602081815260408083206001600160a01b03851684529091529020805460ff19166001179055612e413390565b6001600160a01b0316816001600160a01b0316837f2f8788117e7eff1d82e926ec794901d17c78024a50270940304540a733656f0d60405160405180910390a45050565b6000611f2c836001600160a01b038416613bf8565b6000610afc82613c47565b6001600160a01b038416612ecb5760405162461bcd60e51b8152600401610ace906153c1565b8151835114612eec5760405162461bcd60e51b8152600401610ace90615402565b33612efc81600087878787613c87565b60005b8451811015612f9857838181518110612f1a57612f1a6151b6565b602002602001015160046000878481518110612f3857612f386151b6565b602002602001015181526020019081526020016000206000886001600160a01b03166001600160a01b031681526020019081526020016000206000828254612f80919061516f565b90915550819050612f90816151cc565b915050612eff565b50846001600160a01b031660006001600160a01b0316826001600160a01b03167f4a39dc06d4c0dbc64b70af90fd698a233a518aa5d07e595d983b8c0526c8f7fb8787604051612fe992919061544a565b60405180910390a461300081600087878787613c95565b61105a81600087878787613d47565b81518351146130305760405162461bcd60e51b8152600401610ace90615402565b6001600160a01b0384166130565760405162461bcd60e51b8152600401610ace9061546f565b33613065818787878787613c87565b60005b845181101561314e576000858281518110613085576130856151b6565b6020026020010151905060008583815181106130a3576130a36151b6565b60209081029190910181015160008481526004835260408082206001600160a01b038e1683529093529190912054909150818110156130f45760405162461bcd60e51b8152600401610ace906154b4565b60008381526004602090815260408083206001600160a01b038e8116855292528083208585039055908b1682528120805484929061313390849061516f565b9250508190555050505080613147906151cc565b9050613068565b50846001600160a01b0316866001600160a01b0316826001600160a01b03167f4a39dc06d4c0dbc64b70af90fd698a233a518aa5d07e595d983b8c0526c8f7fb878760405161319e92919061544a565b60405180910390a46131b4818787878787613c95565b6131c2818787878787613d47565b505050505050565b612bbb8133613ea2565b6131de8282612e01565b60008281526001602052604090206110869082612e85565b6132008282613efb565b60008281526001602052604090206110869082613f60565b613220613f75565b6007805460ff191690557f5db9ee0a495bf2e6ff9c91a7834c1ba4fdd244a5e8aa4e537bd38aeae4b073aa335b6040516001600160a01b03909116815260200161110e565b6002600954036132b75760405162461bcd60e51b815260206004820152601f60248201527f5265656e7472616e637947756172643a207265656e7472616e742063616c6c006044820152606401610ace565b6002600955565b60066111928282615544565b61119282826131d4565b61119260028281614691565b6001600160a01b0383166133065760405162461bcd60e51b8152600401610ace90615603565b80518251146133275760405162461bcd60e51b8152600401610ace90615402565b600033905061334a81856000868660405180602001604052806000815250613c87565b60005b835181101561341257600084828151811061336a5761336a6151b6565b602002602001015190506000848381518110613388576133886151b6565b60209081029190910181015160008481526004835260408082206001600160a01b038c1683529093529190912054909150818110156133d95760405162461bcd60e51b8152600401610ace90615646565b60009283526004602090815260408085206001600160a01b038b168652909152909220910390558061340a816151cc565b91505061334d565b5060006001600160a01b0316846001600160a01b0316826001600160a01b03167f4a39dc06d4c0dbc64b70af90fd698a233a518aa5d07e595d983b8c0526c8f7fb868660405161346392919061544a565b60405180910390a4610e6f81856000868660405180602001604052806000815250613c95565b6001600160a01b0384166134af5760405162461bcd60e51b8152600401610ace906153c1565b3360006134bb85613fbe565b905060006134c885613fbe565b90506134d983600089858589613c87565b60008681526004602090815260408083206001600160a01b038b1684529091528120805487929061350b90849061516f565b909155505060408051878152602081018790526001600160a01b03808a1692600092918716917fc3d58168c5ae7397731d063d5bbf3d657854427343f4c083240f7aacaa2d0f62910160405180910390a461356b83600089858589613c95565b61357a83600089898989614009565b50505050505050565b61358b6140c4565b6007805460ff191660011790557f62e78cea01bee320cd4e420270b5ea74000d11b0c9f74754ebdbfc544b05a25861324d3390565b6000611f2c838361410a565b816001600160a01b0316836001600160a01b03160361363f5760405162461bcd60e51b815260206004820152602960248201527f455243313135353a2073657474696e6720617070726f76616c20737461747573604482015268103337b91039b2b63360b91b6064820152608401610ace565b6001600160a01b03838116600081815260056020908152604080832094871680845294825291829020805460ff191686151590811790915591519182527f17307eab39ab6107e8899845ad3d59bd9653f200f220920489ca2b5937696c31910160405180910390a3505050565b6000610afc825490565b600080805b60028110156136f6578481600281106136d6576136d66151b6565b01546136e2908361516f565b9150806136ee816151cc565b9150506136bb565b50613701838261516f565b90506305f5e1006137128287615258565b61371c919061514d565b95945050505050565b600080805b600281101561381a5760006305f5e10085836002811061374c5761374c6151b6565b01546137589088615258565b613762919061514d565b9050866001600160a01b031663a9059cbb60028460028110613786576137866151b6565b015460405160e083901b6001600160e01b03191681526001600160a01b039091166004820152602481018490526044016020604051808303816000875af11580156137d5573d6000803e3d6000fd5b505050506040513d601f19601f820116820180604052508101906137f9919061530c565b50613804818461516f565b9250508080613812906151cc565b91505061372a565b50949350505050565b6040516370a0823160e01b815230600482015260009081906001600160a01b038716906370a0823190602401602060405180830381865afa15801561386c573d6000803e3d6000fd5b505050506040513d601f19601f8201168201806040525081019061389091906153a8565b905060006305f5e1006138a38588615258565b6138ad919061514d565b90508082101561390a5760405162461bcd60e51b815260206004820152602260248201527f4e6f7420656e6f7567682062616c616e6365206f6e2074686520636f6e74726160448201526118dd60f21b6064820152608401610ace565b60405163a9059cbb60e01b81526001600160a01b0386811660048301526024820183905288169063a9059cbb906044016020604051808303816000875af1158015613959573d6000803e3d6000fd5b505050506040513d601f19601f8201168201806040525081019061397d919061530c565b509695505050505050565b6001600160a01b0384166139ae5760405162461bcd60e51b8152600401610ace9061546f565b3360006139ba85613fbe565b905060006139c785613fbe565b90506139d7838989858589613c87565b60008681526004602090815260408083206001600160a01b038c16845290915290205485811015613a1a5760405162461bcd60e51b8152600401610ace906154b4565b60008781526004602090815260408083206001600160a01b038d8116855292528083208985039055908a16825281208054889290613a5990849061516f565b909155505060408051888152602081018890526001600160a01b03808b16928c821692918816917fc3d58168c5ae7397731d063d5bbf3d657854427343f4c083240f7aacaa2d0f62910160405180910390a4613ab9848a8a86868a613c95565b613ac7848a8a8a8a8a614009565b505050505050505050565b6001600160a01b038316613af85760405162461bcd60e51b8152600401610ace90615603565b336000613b0484613fbe565b90506000613b1184613fbe565b9050613b3183876000858560405180602001604052806000815250613c87565b60008581526004602090815260408083206001600160a01b038a16845290915290205484811015613b745760405162461bcd60e51b8152600401610ace90615646565b60008681526004602090815260408083206001600160a01b038b81168086529184528285208a8703905582518b81529384018a90529092908816917fc3d58168c5ae7397731d063d5bbf3d657854427343f4c083240f7aacaa2d0f62910160405180910390a461357a84886000868660405180602001604052806000815250613c95565b6000818152600183016020526040812054613c3f57508154600181810184556000848152602080822090930184905584548482528286019093526040902091909155610afc565b506000610afc565b60006001600160e01b03198216636cdb3d1360e11b1480613c7857506001600160e01b031982166303a24d0760e21b145b80610afc5750610afc82614134565b6131c2868686868686614159565b601e83600081518110613caa57613caa6151b6565b602002602001015160048110613cc257613cc26151b6565b0154613cf484600081518110613cda57613cda6151b6565b602002602001015160009081526008602052604090205490565b1115613d425760405162461bcd60e51b815260206004820152601b60248201527f536166654e46543a206d617820737570706c79207265616368656400000000006044820152606401610ace565b6131c2565b6001600160a01b0384163b156131c25760405163bc197c8160e01b81526001600160a01b0385169063bc197c8190613d8b908990899088908890889060040161568a565b6020604051808303816000875af1925050508015613dc6575060408051601f3d908101601f19168201909252613dc3918101906156e8565b60015b613e7257613dd2615705565b806308c379a003613e0b5750613de6615721565b80613df15750613e0d565b8060405162461bcd60e51b8152600401610ace91906147ed565b505b60405162461bcd60e51b815260206004820152603460248201527f455243313135353a207472616e7366657220746f206e6f6e2d455243313135356044820152732932b1b2b4bb32b91034b6b83632b6b2b73a32b960611b6064820152608401610ace565b6001600160e01b0319811663bc197c8160e01b1461357a5760405162461bcd60e51b8152600401610ace906157aa565b613eac8282611f33565b61119257613eb9816142e0565b613ec48360206142f2565b604051602001613ed59291906157f2565b60408051601f198184030181529082905262461bcd60e51b8252610ace916004016147ed565b613f058282611f33565b15611192576000828152602081815260408083206001600160a01b0385168085529252808320805460ff1916905551339285917ff6391f5c32d9c69d2a47ea670b442974b53935d1edc7fd64eb21e047a839171b9190a45050565b6000611f2c836001600160a01b03841661448d565b60075460ff166112685760405162461bcd60e51b815260206004820152601460248201527314185d5cd8589b194e881b9bdd081c185d5cd95960621b6044820152606401610ace565b60408051600180825281830190925260609160009190602080830190803683370190505090508281600081518110613ff857613ff86151b6565b602090810291909101015292915050565b6001600160a01b0384163b156131c25760405163f23a6e6160e01b81526001600160a01b0385169063f23a6e619061404d9089908990889088908890600401615867565b6020604051808303816000875af1925050508015614088575060408051601f3d908101601f19168201909252614085918101906156e8565b60015b61409457613dd2615705565b6001600160e01b0319811663f23a6e6160e01b1461357a5760405162461bcd60e51b8152600401610ace906157aa565b60075460ff16156112685760405162461bcd60e51b815260206004820152601060248201526f14185d5cd8589b194e881c185d5cd95960821b6044820152606401610ace565b6000826000018281548110614121576141216151b6565b9060005260206000200154905092915050565b60006001600160e01b03198216635a05180f60e01b1480610afc5750610afc82614580565b6141678686868686866145b5565b6001600160a01b0385166141ee5760005b83518110156141ec57828181518110614193576141936151b6565b6020026020010151600860008684815181106141b1576141b16151b6565b6020026020010151815260200190815260200160002060008282546141d6919061516f565b909155506141e59050816151cc565b9050614178565b505b6001600160a01b0384166131c25760005b835181101561357a57600084828151811061421c5761421c6151b6565b60200260200101519050600084838151811061423a5761423a6151b6565b60200260200101519050600060086000848152602001908152602001600020549050818110156142bd5760405162461bcd60e51b815260206004820152602860248201527f455243313135353a206275726e20616d6f756e74206578636565647320746f74604482015267616c537570706c7960c01b6064820152608401610ace565b600092835260086020526040909220910390556142d9816151cc565b90506141ff565b6060610afc6001600160a01b03831660145b60606000614301836002615258565b61430c90600261516f565b6001600160401b038111156143235761432361484e565b6040519080825280601f01601f19166020018201604052801561434d576020820181803683370190505b509050600360fc1b81600081518110614368576143686151b6565b60200101906001600160f81b031916908160001a905350600f60fb1b81600181518110614397576143976151b6565b60200101906001600160f81b031916908160001a90535060006143bb846002615258565b6143c690600161516f565b90505b600181111561443e576f181899199a1a9b1b9c1cb0b131b232b360811b85600f16601081106143fa576143fa6151b6565b1a60f81b828281518110614410576144106151b6565b60200101906001600160f81b031916908160001a90535060049490941c936144378161589f565b90506143c9565b508315611f2c5760405162461bcd60e51b815260206004820181905260248201527f537472696e67733a20686578206c656e67746820696e73756666696369656e746044820152606401610ace565b600081815260018301602052604081205480156145765760006144b160018361513a565b85549091506000906144c59060019061513a565b905081811461452a5760008660000182815481106144e5576144e56151b6565b9060005260206000200154905080876000018481548110614508576145086151b6565b6000918252602080832090910192909255918252600188019052604090208390555b855486908061453b5761453b6158b6565b600190038181906000526020600020016000905590558560010160008681526020019081526020016000206000905560019350505050610afc565b6000915050610afc565b60006001600160e01b03198216637965db0b60e01b1480610afc57506301ffc9a760e01b6001600160e01b0319831614610afc565b6131c286868686868660075460ff16156131c25760405162461bcd60e51b815260206004820152602c60248201527f455243313135355061757361626c653a20746f6b656e207472616e736665722060448201526b1dda1a5b19481c185d5cd95960a21b6064820152608401610ace565b8260048101928215614654579160200282015b82811115614654578251825591602001919060010190614639565b506146609291506146d9565b5090565b82600281019282156146545791602002820182811115614654578251825591602001919060010190614639565b8260028101928215614654579160200282015b8281111561465457825182546001600160a01b0319166001600160a01b039091161782556020909201916001909101906146a4565b5b8082111561466057600081556001016146da565b6001600160a01b0381168114612bbb57600080fd5b6000806040838503121561471657600080fd5b8235614721816146ee565b946020939093013593505050565b6001600160e01b031981168114612bbb57600080fd5b60006020828403121561475757600080fd5b8135611f2c8161472f565b60006020828403121561477457600080fd5b5035919050565b6000806040838503121561478e57600080fd5b50508035926020909101359150565b60005b838110156147b85781810151838201526020016147a0565b50506000910152565b600081518084526147d981602086016020860161479d565b601f01601f19169290920160200192915050565b602081526000611f2c60208301846147c1565b600081518084526020808501945080840160005b8381101561483057815187529582019590820190600101614814565b509495945050505050565b602081526000611f2c6020830184614800565b634e487b7160e01b600052604160045260246000fd5b604081018181106001600160401b03821117156148835761488361484e565b60405250565b601f8201601f191681016001600160401b03811182821017156148ae576148ae61484e565b6040525050565b60006001600160401b038211156148ce576148ce61484e565b5060051b60200190565b600082601f8301126148e957600080fd5b813560206148f6826148b5565b6040516149038282614889565b83815260059390931b850182019282810191508684111561492357600080fd5b8286015b8481101561397d5780358352918301918301614927565b60006001600160401b038311156149575761495761484e565b60405161496e601f8501601f191660200182614889565b80915083815284848401111561498357600080fd5b83836020830137600060208583010152509392505050565b600082601f8301126149ac57600080fd5b611f2c8383356020850161493e565b600080600080608085870312156149d157600080fd5b84356149dc816146ee565b935060208501356001600160401b03808211156149f857600080fd5b614a04888389016148d8565b94506040870135915080821115614a1a57600080fd5b614a26888389016148d8565b93506060870135915080821115614a3c57600080fd5b50614a498782880161499b565b91505092959194509250565b600060208284031215614a6757600080fd5b8135611f2c816146ee565b600080600080600060a08688031215614a8a57600080fd5b8535614a95816146ee565b94506020860135614aa5816146ee565b935060408601356001600160401b0380821115614ac157600080fd5b614acd89838a016148d8565b94506060880135915080821115614ae357600080fd5b614aef89838a016148d8565b93506080880135915080821115614b0557600080fd5b50614b128882890161499b565b9150509295509295909350565b60008060408385031215614b3257600080fd5b823591506020830135614b44816146ee565b809150509250929050565b803560048110614b5e57600080fd5b919050565b600060208284031215614b7557600080fd5b611f2c82614b4f565b600080600060608486031215614b9357600080fd5b8335614b9e816146ee565b9250614bac60208501614b4f565b9150604084013590509250925092565b60006020808385031215614bcf57600080fd5b82356001600160401b0380821115614be657600080fd5b818501915085601f830112614bfa57600080fd5b8135614c05816148b5565b604051614c128282614889565b82815260059290921b8401850191858101915088831115614c3257600080fd5b8585015b83811015614c6a57803585811115614c4e5760008081fd5b614c5c8b89838a01016148d8565b845250918601918601614c36565b5098975050505050505050565b60008060408385031215614c8a57600080fd5b82356001600160401b0380821115614ca157600080fd5b818501915085601f830112614cb557600080fd5b81356020614cc2826148b5565b604051614ccf8282614889565b83815260059390931b8501820192828101915089841115614cef57600080fd5b948201945b83861015614d16578535614d07816146ee565b82529482019490820190614cf4565b96505086013592505080821115614d2c57600080fd5b50614d39858286016148d8565b9150509250929050565b60008060408385031215614d5657600080fd5b61472183614b4f565b600082601f830112614d7057600080fd5b604051608081018181106001600160401b0382111715614d9257614d9261484e565b604052806080840185811115614da757600080fd5b845b81811015614dc1578035835260209283019201614da9565b509195945050505050565b600082601f830112614ddd57600080fd5b604051614de981614864565b806040840185811115614da757600080fd5b600080600080600080600080610200898b031215614e1857600080fd5b88356001600160401b03811115614e2e57600080fd5b8901601f81018b13614e3f57600080fd5b614e4e8b82356020840161493e565b985050614e5e8a60208b01614d5f565b9650614e6d8a60a08b01614d5f565b9550610120890135614e7e816146ee565b9450614e8e8a6101408b01614dcc565b93506101808901359250614ea68a6101a08b01614dcc565b91506101e0890135614eb7816146ee565b809150509295985092959890939650565b600080600060608486031215614edd57600080fd5b8335614ee8816146ee565b925060208401356001600160401b0380821115614f0457600080fd5b614f10878388016148d8565b93506040860135915080821115614f2657600080fd5b50614f33868287016148d8565b9150509250925092565b60008060008060808587031215614f5357600080fd5b8435614f5e816146ee565b9350602085013592506040850135915060608501356001600160401b03811115614f8757600080fd5b614a498782880161499b565b600080600060608486031215614fa857600080fd5b8335614fb3816146ee565b95602085013595506040909401359392505050565b8015158114612bbb57600080fd5b60008060408385031215614fe957600080fd5b8235614ff4816146ee565b91506020830135614b4481614fc8565b60008060006060848603121561501957600080fd5b83359250602084013591506040840135615032816146ee565b809150509250925092565b60008060006060848603121561505257600080fd5b61505b84614b4f565b9250602084013591506040840135615032816146ee565b6000806040838503121561508557600080fd5b8235615090816146ee565b91506020830135614b44816146ee565b600080600080600060a086880312156150b857600080fd5b85356150c3816146ee565b945060208601356150d3816146ee565b9350604086013592506060860135915060808601356001600160401b038111156150fc57600080fd5b614b128882890161499b565b60006080828403121561511a57600080fd5b611f2c8383614d5f565b634e487b7160e01b600052601160045260246000fd5b81810381811115610afc57610afc615124565b60008261516a57634e487b7160e01b600052601260045260246000fd5b500490565b80820180821115610afc57610afc615124565b600181811c9082168061519657607f821691505b602082108103610ca657634e487b7160e01b600052602260045260246000fd5b634e487b7160e01b600052603260045260246000fd5b6000600182016151de576151de615124565b5060010190565b60208082526038908201527f455243313135355072657365744d696e7465725061757365723a206d7573742060408201527f68617665206d696e74657220726f6c6520746f206d696e740000000000000000606082015260800190565b634e487b7160e01b600052602160045260246000fd5b8082028115828204841417610afc57610afc615124565b6020808252602e908201527f455243313135353a2063616c6c6572206973206e6f7420746f6b656e206f776e60408201526d195c881bdc88185c1c1c9bdd995960921b606082015260800190565b6020808252602f908201527f455243313135355072657365744d696e7465725061757365723a206d7573742060408201526e686176652061646d696e20726f6c6560881b606082015260800190565b60006020828403121561531e57600080fd5b8151611f2c81614fc8565b60006040828403121561533b57600080fd5b82601f83011261534a57600080fd5b60405161535681614864565b80604084018581111561536857600080fd5b845b81811015614dc157805161537d816146ee565b83526020928301920161536a565b60006020828403121561539d57600080fd5b8151611f2c816146ee565b6000602082840312156153ba57600080fd5b5051919050565b60208082526021908201527f455243313135353a206d696e7420746f20746865207a65726f206164647265736040820152607360f81b606082015260800190565b60208082526028908201527f455243313135353a2069647320616e6420616d6f756e7473206c656e677468206040820152670dad2e6dac2e8c6d60c31b606082015260800190565b60408152600061545d6040830185614800565b828103602084015261371c8185614800565b60208082526025908201527f455243313135353a207472616e7366657220746f20746865207a65726f206164604082015264647265737360d81b606082015260800190565b6020808252602a908201527f455243313135353a20696e73756666696369656e742062616c616e636520666f60408201526939103a3930b739b332b960b11b606082015260800190565b601f82111561108657600081815260208120601f850160051c810160208610156155255750805b601f850160051c820191505b818110156131c257828155600101615531565b81516001600160401b0381111561555d5761555d61484e565b6155718161556b8454615182565b846154fe565b602080601f8311600181146155a6576000841561558e5750858301515b600019600386901b1c1916600185901b1785556131c2565b600085815260208120601f198616915b828110156155d5578886015182559484019460019091019084016155b6565b50858210156155f35787850151600019600388901b60f8161c191681555b5050505050600190811b01905550565b60208082526023908201527f455243313135353a206275726e2066726f6d20746865207a65726f206164647260408201526265737360e81b606082015260800190565b60208082526024908201527f455243313135353a206275726e20616d6f756e7420657863656564732062616c604082015263616e636560e01b606082015260800190565b60006001600160a01b03808816835280871660208401525060a060408301526156b660a0830186614800565b82810360608401526156c88186614800565b905082810360808401526156dc81856147c1565b98975050505050505050565b6000602082840312156156fa57600080fd5b8151611f2c8161472f565b600060033d111561571e5760046000803e5060005160e01c5b90565b600060443d101561572f5790565b6040516003193d81016004833e81513d6001600160401b03816024840111818411171561575e57505050505090565b82850191508151818111156157765750505050505090565b843d87010160208285010111156157905750505050505090565b61579f60208286010187614889565b509095945050505050565b60208082526028908201527f455243313135353a204552433131353552656365697665722072656a656374656040820152676420746f6b656e7360c01b606082015260800190565b7f416363657373436f6e74726f6c3a206163636f756e742000000000000000000081526000835161582a81601785016020880161479d565b7001034b99036b4b9b9b4b733903937b6329607d1b601791840191820152835161585b81602884016020880161479d565b01602801949350505050565b60006001600160a01b03808816835280871660208401525084604083015283606083015260a0608083015261132c60a08301846147c1565b6000816158ae576158ae615124565b506000190190565b634e487b7160e01b600052603160045260246000fdfea264697066735822122097cf71a2c3f46d118910858c45ffab4c85e72b0eb7543e268a627e782fbf8b3064736f6c63430008110033b53127684a568b3173ae13b9f8a6016e243e63b6e8ee1178d6a717850b5d610365d7a28e3265b37a6474929f336521b332c1681b933f6cb9f3376673440d862a9f2df0fed2c77648de5860a4cc508cd0818c85b8b8a1ab4ceeef8d981c8956a6",
  "devdoc": {
    "author": "crypt0grapher",
    "kind": "dev",
    "methods": {
      "balanceOf(address,uint256)": {
        "details": "See {IERC1155-balanceOf}. Requirements: - `account` cannot be the zero address."
      },
      "balanceOfBatch(address[],uint256[])": {
        "details": "See {IERC1155-balanceOfBatch}. Requirements: - `accounts` and `ids` must have the same length."
      },
      "buy(uint8,uint256,address)": {
        "params": {
          "_amount": "amount of USD to spend",
          "_referral": "referral getting 5% of the price, should not be the sender, if not specified, goes to treasury",
          "_tier": "tier of the NFT to purchase which stands for ERC1155 token id [0..3]"
        }
      },
      "distributeProfit(uint256)": {
        "params": {
          "_amountUSD": "amount of USD to distribute"
        }
      },
      "exists(uint256)": {
        "details": "Indicates whether any token exist with a given id, or not."
      },
      "getCurrentPresaleWeek()": {
        "returns": {
          "_0": "returns 1-4"
        }
      },
      "getDiscountedPriceTable()": {
        "returns": {
          "_0": "uint256[] containing all NFT prices in one table in USD for the current presale week"
        }
      },
      "getFairPrice(uint8)": {
        "returns": {
          "_0": "counts not only the sale price but also share of the profit for the tier"
        }
      },
      "getPrice(uint8)": {
        "returns": {
          "_0": "NFT price in USD"
        }
      },
      "getPriceTable()": {
        "returns": {
          "_0": "uint256[] containing all NFT prices in one table in USD"
        }
      },
      "getRoleAdmin(bytes32)": {
        "details": "Returns the admin role that controls `role`. See {grantRole} and {revokeRole}. To change a role's admin, use {_setRoleAdmin}."
      },
      "getRoleMember(bytes32,uint256)": {
        "details": "Returns one of the accounts that have `role`. `index` must be a value between 0 and {getRoleMemberCount}, non-inclusive. Role bearers are not sorted in any particular way, and their ordering may change at any point. WARNING: When using {getRoleMember} and {getRoleMemberCount}, make sure you perform all queries on the same block. See the following https://forum.openzeppelin.com/t/iterating-over-elements-on-enumerableset-in-openzeppelin-contracts/2296[forum post] for more information."
      },
      "getRoleMemberCount(bytes32)": {
        "details": "Returns the number of accounts that have `role`. Can be used together with {getRoleMember} to enumerate all bearers of a role."
      },
      "getUnclaimedRewards()": {
        "returns": {
          "_0": "amount of the rewards not yet distributed to NFT holders"
        }
      },
      "grantRole(bytes32,address)": {
        "details": "Grants `role` to `account`. If `account` had not been already granted `role`, emits a {RoleGranted} event. Requirements: - the caller must have ``role``'s admin role. May emit a {RoleGranted} event."
      },
      "hasRole(bytes32,address)": {
        "details": "Returns `true` if `account` has been granted `role`."
      },
      "isApprovedForAll(address,address)": {
        "details": "See {IERC1155-isApprovedForAll}."
      },
      "mint(address,uint256,uint256,bytes)": {
        "details": "Creates `amount` new tokens for `to`, of token type `id`. See {ERC1155-_mint}. Requirements: - the caller must have the `MINTER_ROLE`."
      },
      "mintBatch(address,uint256[],uint256[],bytes)": {
        "details": "xref:ROOT:erc1155.adoc#batch-operations[Batched] variant of {mint}."
      },
      "pause()": {
        "details": "Pauses all token transfers. See {ERC1155Pausable} and {Pausable-_pause}. Requirements: - the caller must have the `PAUSER_ROLE`."
      },
      "paused()": {
        "details": "Returns true if the contract is paused, and false otherwise."
      },
      "renounceRole(bytes32,address)": {
        "details": "Revokes `role` from the calling account. Roles are often managed via {grantRole} and {revokeRole}: this function's purpose is to provide a mechanism for accounts to lose their privileges if they are compromised (such as when a trusted device is misplaced). If the calling account had been revoked `role`, emits a {RoleRevoked} event. Requirements: - the caller must be `account`. May emit a {RoleRevoked} event."
      },
      "revokeRole(bytes32,address)": {
        "details": "Revokes `role` from `account`. If `account` had been granted `role`, emits a {RoleRevoked} event. Requirements: - the caller must have ``role``'s admin role. May emit a {RoleRevoked} event."
      },
      "safeBatchTransferFrom(address,address,uint256[],uint256[],bytes)": {
        "details": "See {IERC1155-safeBatchTransferFrom}."
      },
      "safeTransferFrom(address,address,uint256,uint256,bytes)": {
        "details": "See {IERC1155-safeTransferFrom}."
      },
      "setApprovalForAll(address,bool)": {
        "details": "See {IERC1155-setApprovalForAll}."
      },
      "setDiscountedPriceTable(uint256[][])": {
        "params": {
          "_presalePrice": "4x4 table of the discounted prices for all 4 tiers for all 4 weeks of the presale"
        }
      },
      "totalSupply(uint256)": {
        "details": "Total amount of tokens in with a given id."
      },
      "unpause()": {
        "details": "Unpauses all token transfers. See {ERC1155Pausable} and {Pausable-_unpause}. Requirements: - the caller must have the `PAUSER_ROLE`."
      },
      "uri(uint256)": {
        "details": "See {IERC1155MetadataURI-uri}. This implementation returns the same URI for *all* token types. It relies on the token type ID substitution mechanism https://eips.ethereum.org/EIPS/eip-1155#metadata[defined in the EIP]. Clients calling this function must replace the `\\{id\\}` substring with the actual token type ID."
      }
    },
    "stateVariables": {
      "currentDistributionId": {
        "return": "current distribution number, the one that assigned to the latest distribution",
        "returns": {
          "_0": "current distribution number, the one that assigned to the latest distribution"
        }
      }
    },
    "title": "Safe NFT",
    "version": 1
  },
  "userdoc": {
    "kind": "user",
    "methods": {
      "TIERS()": {
        "notice": "todo a number of tiers should be flexible"
      },
      "buy(uint8,uint256,address)": {
        "notice": "purchase Safe NFT for exact amount of USD"
      },
      "claimReward(uint8,uint256)": {
        "notice": "the function calculates the amount of the reward for the NFT holder and transfers it to the NFT holder"
      },
      "claimRewardsTotal()": {
        "notice": "the function calculates the amount of the reward for the NFT holder and transfers it to the NFT holder"
      },
      "currentDistributionId()": {
        "notice": "gets the current distribution number"
      },
      "distributeProfit(uint256)": {
        "notice": "distribute profit among the NFT holders, the function fixes the amount of the reward and the NFT holders and their shares at the moment of the call. It does not transfer the reward to the NFT holders, it just records the amount of the reward for each NFT holder."
      },
      "getBalanceTable(address)": {
        "notice": "gets NFT balance for all tiers"
      },
      "getCurrentPresaleWeek()": {
        "notice": "gets the current presale week"
      },
      "getDiscountedPriceTable()": {
        "notice": "gets all discounted NFT prices in USD, for presale for all 4 weeks of the presale"
      },
      "getFairPrice(uint8)": {
        "notice": "gets NFT fair price in USD"
      },
      "getFairPriceTable()": {
        "notice": "gets NFT price for all tiers in USD ///todo in SAFE!"
      },
      "getMyBalanceTable()": {
        "notice": "gets NFT balance for all tiers"
      },
      "getMyPendingRewardsTotal()": {
        "notice": "returns the amount of the reward share for the NFT holder"
      },
      "getMyShareOfTreasury()": {
        "notice": "**Your NFTs (% Treasury) **is calculated in $ as a relation of total price of NFTs possessed by the $ amount of Investment Pool - including its SAFE and USDC components."
      },
      "getPendingRewards(address,uint8,uint256)": {
        "notice": "returns the amount of the reward share for the NFT holder"
      },
      "getPrice(uint8)": {
        "notice": "gets NFT price in USD"
      },
      "getPriceTable()": {
        "notice": "gets all NFT prices in USD, the original ones without discounts"
      },
      "getTreasuryCost()": {
        "notice": "gets the total usd value of the NFT minted"
      },
      "getUnclaimedRewards()": {
        "notice": "undistributed profit amount in USD"
      },
      "setDiscountedPriceTable(uint256[][])": {
        "notice": "sets all discounted NFT prices in USD, for presale for all 4 weeks of the presale"
      },
      "togglePresale()": {
        "notice": "toggles presale status"
      }
    },
    "notice": "Safe Yields NFT token based on ERC1155 standard, id [0..3] represents one of the 4 tiers",
    "version": 1
  },
  "storageLayout": {
    "storage": [
      {
        "astId": 24,
        "contract": "contracts/SafeNFT.sol:SafeNFT",
        "label": "_roles",
        "offset": 0,
        "slot": "0",
        "type": "t_mapping(t_bytes32,t_struct(RoleData)19_storage)"
      },
      {
        "astId": 334,
        "contract": "contracts/SafeNFT.sol:SafeNFT",
        "label": "_roleMembers",
        "offset": 0,
        "slot": "1",
        "type": "t_mapping(t_bytes32,t_struct(AddressSet)4430_storage)"
      },
      {
        "astId": 6368,
        "contract": "contracts/SafeNFT.sol:SafeNFT",
        "label": "wallets",
        "offset": 0,
        "slot": "2",
        "type": "t_array(t_address)2_storage"
      },
      {
        "astId": 726,
        "contract": "contracts/SafeNFT.sol:SafeNFT",
        "label": "_balances",
        "offset": 0,
        "slot": "4",
        "type": "t_mapping(t_uint256,t_mapping(t_address,t_uint256))"
      },
      {
        "astId": 732,
        "contract": "contracts/SafeNFT.sol:SafeNFT",
        "label": "_operatorApprovals",
        "offset": 0,
        "slot": "5",
        "type": "t_mapping(t_address,t_mapping(t_address,t_bool))"
      },
      {
        "astId": 734,
        "contract": "contracts/SafeNFT.sol:SafeNFT",
        "label": "_uri",
        "offset": 0,
        "slot": "6",
        "type": "t_string_storage"
      },
      {
        "astId": 556,
        "contract": "contracts/SafeNFT.sol:SafeNFT",
        "label": "_paused",
        "offset": 0,
        "slot": "7",
        "type": "t_bool"
      },
      {
        "astId": 2213,
        "contract": "contracts/SafeNFT.sol:SafeNFT",
        "label": "_totalSupply",
        "offset": 0,
        "slot": "8",
        "type": "t_mapping(t_uint256,t_uint256)"
      },
      {
        "astId": 657,
        "contract": "contracts/SafeNFT.sol:SafeNFT",
        "label": "_status",
        "offset": 0,
        "slot": "9",
        "type": "t_uint256"
      },
      {
        "astId": 4752,
        "contract": "contracts/SafeNFT.sol:SafeNFT",
        "label": "price",
        "offset": 0,
        "slot": "10",
        "type": "t_array(t_uint256)4_storage"
      },
      {
        "astId": 4758,
        "contract": "contracts/SafeNFT.sol:SafeNFT",
        "label": "presalePrice",
        "offset": 0,
        "slot": "14",
        "type": "t_array(t_array(t_uint256)4_storage)4_storage"
      },
      {
        "astId": 4762,
        "contract": "contracts/SafeNFT.sol:SafeNFT",
        "label": "maxSupply",
        "offset": 0,
        "slot": "30",
        "type": "t_array(t_uint256)4_storage"
      },
      {
        "astId": 4764,
        "contract": "contracts/SafeNFT.sol:SafeNFT",
        "label": "presaleStartDate",
        "offset": 0,
        "slot": "34",
        "type": "t_uint256"
      },
      {
        "astId": 4766,
        "contract": "contracts/SafeNFT.sol:SafeNFT",
        "label": "weekDuration",
        "offset": 0,
        "slot": "35",
        "type": "t_uint256"
      },
      {
        "astId": 4769,
        "contract": "contracts/SafeNFT.sol:SafeNFT",
        "label": "safeToken",
        "offset": 0,
        "slot": "36",
        "type": "t_contract(ISafeToken)6788"
      },
      {
        "astId": 4772,
        "contract": "contracts/SafeNFT.sol:SafeNFT",
        "label": "safeVault",
        "offset": 0,
        "slot": "37",
        "type": "t_contract(ISafeVault)6809"
      },
      {
        "astId": 4775,
        "contract": "contracts/SafeNFT.sol:SafeNFT",
        "label": "usd",
        "offset": 0,
        "slot": "38",
        "type": "t_contract(IERC20)2651"
      },
      {
        "astId": 4782,
        "contract": "contracts/SafeNFT.sol:SafeNFT",
        "label": "priceDistributionOnMint",
        "offset": 0,
        "slot": "39",
        "type": "t_array(t_uint256)2_storage"
      },
      {
        "astId": 4786,
        "contract": "contracts/SafeNFT.sol:SafeNFT",
        "label": "profitDistribution",
        "offset": 0,
        "slot": "41",
        "type": "t_array(t_uint256)2_storage"
      },
      {
        "astId": 4788,
        "contract": "contracts/SafeNFT.sol:SafeNFT",
        "label": "referralShareForNFTPurchase",
        "offset": 0,
        "slot": "43",
        "type": "t_uint256"
      },
      {
        "astId": 4790,
        "contract": "contracts/SafeNFT.sol:SafeNFT",
        "label": "stabilizerWallet",
        "offset": 0,
        "slot": "44",
        "type": "t_address"
      },
      {
        "astId": 4792,
        "contract": "contracts/SafeNFT.sol:SafeNFT",
        "label": "presale",
        "offset": 20,
        "slot": "44",
        "type": "t_bool"
      },
      {
        "astId": 4800,
        "contract": "contracts/SafeNFT.sol:SafeNFT",
        "label": "soldPerPresaleWeek",
        "offset": 0,
        "slot": "45",
        "type": "t_mapping(t_address,t_mapping(t_uint256,t_mapping(t_uint256,t_uint256)))"
      },
      {
        "astId": 4804,
        "contract": "contracts/SafeNFT.sol:SafeNFT",
        "label": "presaleMaxSupply",
        "offset": 0,
        "slot": "46",
        "type": "t_array(t_uint256)4_storage"
      },
      {
        "astId": 4808,
        "contract": "contracts/SafeNFT.sol:SafeNFT",
        "label": "currentlySoldInPresale",
        "offset": 0,
        "slot": "50",
        "type": "t_array(t_uint256)4_storage"
      },
      {
        "astId": 4810,
        "contract": "contracts/SafeNFT.sol:SafeNFT",
        "label": "currentDistributionId",
        "offset": 0,
        "slot": "54",
        "type": "t_uint256"
      },
      {
        "astId": 4814,
        "contract": "contracts/SafeNFT.sol:SafeNFT",
        "label": "distributionOfProfit",
        "offset": 0,
        "slot": "55",
        "type": "t_mapping(t_uint256,t_uint256)"
      },
      {
        "astId": 4820,
        "contract": "contracts/SafeNFT.sol:SafeNFT",
        "label": "distributionByTier",
        "offset": 0,
        "slot": "56",
        "type": "t_mapping(t_uint256,t_array(t_uint256)4_storage)"
      },
      {
        "astId": 4826,
        "contract": "contracts/SafeNFT.sol:SafeNFT",
        "label": "distributionTotalSupplySnapshot",
        "offset": 0,
        "slot": "57",
        "type": "t_mapping(t_uint256,t_array(t_uint256)4_storage)"
      },
      {
        "astId": 4834,
        "contract": "contracts/SafeNFT.sol:SafeNFT",
        "label": "alreadyDistributedAmount",
        "offset": 0,
        "slot": "58",
        "type": "t_mapping(t_uint256,t_mapping(t_uint256,t_mapping(t_address,t_uint256)))"
      },
      {
        "astId": 4840,
        "contract": "contracts/SafeNFT.sol:SafeNFT",
        "label": "alreadyDistributedAmountByTier",
        "offset": 0,
        "slot": "59",
        "type": "t_mapping(t_uint256,t_array(t_uint256)4_storage)"
      }
    ],
    "types": {
      "t_address": {
        "encoding": "inplace",
        "label": "address",
        "numberOfBytes": "20"
      },
      "t_array(t_address)2_storage": {
        "base": "t_address",
        "encoding": "inplace",
        "label": "address[2]",
        "numberOfBytes": "64"
      },
      "t_array(t_array(t_uint256)4_storage)4_storage": {
        "base": "t_array(t_uint256)4_storage",
        "encoding": "inplace",
        "label": "uint256[4][4]",
        "numberOfBytes": "512"
      },
      "t_array(t_bytes32)dyn_storage": {
        "base": "t_bytes32",
        "encoding": "dynamic_array",
        "label": "bytes32[]",
        "numberOfBytes": "32"
      },
      "t_array(t_uint256)2_storage": {
        "base": "t_uint256",
        "encoding": "inplace",
        "label": "uint256[2]",
        "numberOfBytes": "64"
      },
      "t_array(t_uint256)4_storage": {
        "base": "t_uint256",
        "encoding": "inplace",
        "label": "uint256[4]",
        "numberOfBytes": "128"
      },
      "t_bool": {
        "encoding": "inplace",
        "label": "bool",
        "numberOfBytes": "1"
      },
      "t_bytes32": {
        "encoding": "inplace",
        "label": "bytes32",
        "numberOfBytes": "32"
      },
      "t_contract(IERC20)2651": {
        "encoding": "inplace",
        "label": "contract IERC20",
        "numberOfBytes": "20"
      },
      "t_contract(ISafeToken)6788": {
        "encoding": "inplace",
        "label": "contract ISafeToken",
        "numberOfBytes": "20"
      },
      "t_contract(ISafeVault)6809": {
        "encoding": "inplace",
        "label": "contract ISafeVault",
        "numberOfBytes": "20"
      },
      "t_mapping(t_address,t_bool)": {
        "encoding": "mapping",
        "key": "t_address",
        "label": "mapping(address => bool)",
        "numberOfBytes": "32",
        "value": "t_bool"
      },
      "t_mapping(t_address,t_mapping(t_address,t_bool))": {
        "encoding": "mapping",
        "key": "t_address",
        "label": "mapping(address => mapping(address => bool))",
        "numberOfBytes": "32",
        "value": "t_mapping(t_address,t_bool)"
      },
      "t_mapping(t_address,t_mapping(t_uint256,t_mapping(t_uint256,t_uint256)))": {
        "encoding": "mapping",
        "key": "t_address",
        "label": "mapping(address => mapping(uint256 => mapping(uint256 => uint256)))",
        "numberOfBytes": "32",
        "value": "t_mapping(t_uint256,t_mapping(t_uint256,t_uint256))"
      },
      "t_mapping(t_address,t_uint256)": {
        "encoding": "mapping",
        "key": "t_address",
        "label": "mapping(address => uint256)",
        "numberOfBytes": "32",
        "value": "t_uint256"
      },
      "t_mapping(t_bytes32,t_struct(AddressSet)4430_storage)": {
        "encoding": "mapping",
        "key": "t_bytes32",
        "label": "mapping(bytes32 => struct EnumerableSet.AddressSet)",
        "numberOfBytes": "32",
        "value": "t_struct(AddressSet)4430_storage"
      },
      "t_mapping(t_bytes32,t_struct(RoleData)19_storage)": {
        "encoding": "mapping",
        "key": "t_bytes32",
        "label": "mapping(bytes32 => struct AccessControl.RoleData)",
        "numberOfBytes": "32",
        "value": "t_struct(RoleData)19_storage"
      },
      "t_mapping(t_bytes32,t_uint256)": {
        "encoding": "mapping",
        "key": "t_bytes32",
        "label": "mapping(bytes32 => uint256)",
        "numberOfBytes": "32",
        "value": "t_uint256"
      },
      "t_mapping(t_uint256,t_array(t_uint256)4_storage)": {
        "encoding": "mapping",
        "key": "t_uint256",
        "label": "mapping(uint256 => uint256[4])",
        "numberOfBytes": "32",
        "value": "t_array(t_uint256)4_storage"
      },
      "t_mapping(t_uint256,t_mapping(t_address,t_uint256))": {
        "encoding": "mapping",
        "key": "t_uint256",
        "label": "mapping(uint256 => mapping(address => uint256))",
        "numberOfBytes": "32",
        "value": "t_mapping(t_address,t_uint256)"
      },
      "t_mapping(t_uint256,t_mapping(t_uint256,t_mapping(t_address,t_uint256)))": {
        "encoding": "mapping",
        "key": "t_uint256",
        "label": "mapping(uint256 => mapping(uint256 => mapping(address => uint256)))",
        "numberOfBytes": "32",
        "value": "t_mapping(t_uint256,t_mapping(t_address,t_uint256))"
      },
      "t_mapping(t_uint256,t_mapping(t_uint256,t_uint256))": {
        "encoding": "mapping",
        "key": "t_uint256",
        "label": "mapping(uint256 => mapping(uint256 => uint256))",
        "numberOfBytes": "32",
        "value": "t_mapping(t_uint256,t_uint256)"
      },
      "t_mapping(t_uint256,t_uint256)": {
        "encoding": "mapping",
        "key": "t_uint256",
        "label": "mapping(uint256 => uint256)",
        "numberOfBytes": "32",
        "value": "t_uint256"
      },
      "t_string_storage": {
        "encoding": "bytes",
        "label": "string",
        "numberOfBytes": "32"
      },
      "t_struct(AddressSet)4430_storage": {
        "encoding": "inplace",
        "label": "struct EnumerableSet.AddressSet",
        "members": [
          {
            "astId": 4429,
            "contract": "contracts/SafeNFT.sol:SafeNFT",
            "label": "_inner",
            "offset": 0,
            "slot": "0",
            "type": "t_struct(Set)4115_storage"
          }
        ],
        "numberOfBytes": "64"
      },
      "t_struct(RoleData)19_storage": {
        "encoding": "inplace",
        "label": "struct AccessControl.RoleData",
        "members": [
          {
            "astId": 16,
            "contract": "contracts/SafeNFT.sol:SafeNFT",
            "label": "members",
            "offset": 0,
            "slot": "0",
            "type": "t_mapping(t_address,t_bool)"
          },
          {
            "astId": 18,
            "contract": "contracts/SafeNFT.sol:SafeNFT",
            "label": "adminRole",
            "offset": 0,
            "slot": "1",
            "type": "t_bytes32"
          }
        ],
        "numberOfBytes": "64"
      },
      "t_struct(Set)4115_storage": {
        "encoding": "inplace",
        "label": "struct EnumerableSet.Set",
        "members": [
          {
            "astId": 4110,
            "contract": "contracts/SafeNFT.sol:SafeNFT",
            "label": "_values",
            "offset": 0,
            "slot": "0",
            "type": "t_array(t_bytes32)dyn_storage"
          },
          {
            "astId": 4114,
            "contract": "contracts/SafeNFT.sol:SafeNFT",
            "label": "_indexes",
            "offset": 0,
            "slot": "1",
            "type": "t_mapping(t_bytes32,t_uint256)"
          }
        ],
        "numberOfBytes": "64"
      },
      "t_uint256": {
        "encoding": "inplace",
        "label": "uint256",
        "numberOfBytes": "32"
      }
    }
  }
}