{
  "address": "0xC2102804977ddE8F0F49102A4952135D2fb1052E",
  "abi": [
    {
      "inputs": [
        {
          "internalType": "string",
          "name": "_uri",
          "type": "string"
        },
        {
          "internalType": "uint256[4]",
          "name": "_price",
          "type": "uint256[4]"
        },
        {
          "internalType": "uint256[4]",
          "name": "_maxSupply",
          "type": "uint256[4]"
        },
        {
          "internalType": "contract ISafeToken",
          "name": "_safeToken",
          "type": "address"
        },
        {
          "internalType": "uint256[2]",
          "name": "_priceDistributionOnMint",
          "type": "uint256[2]"
        },
        {
          "internalType": "uint256",
          "name": "_referralShareForNFTPurchase",
          "type": "uint256"
        },
        {
          "internalType": "uint256[2]",
          "name": "_profitDistribution",
          "type": "uint256[2]"
        },
        {
          "internalType": "address",
          "name": "_stabilizerWallet",
          "type": "address"
        }
      ],
      "stateMutability": "nonpayable",
      "type": "constructor"
    },
    {
      "anonymous": false,
      "inputs": [
        {
          "indexed": true,
          "internalType": "address",
          "name": "account",
          "type": "address"
        },
        {
          "indexed": true,
          "internalType": "address",
          "name": "operator",
          "type": "address"
        },
        {
          "indexed": false,
          "internalType": "bool",
          "name": "approved",
          "type": "bool"
        }
      ],
      "name": "ApprovalForAll",
      "type": "event"
    },
    {
      "anonymous": false,
      "inputs": [
        {
          "indexed": false,
          "internalType": "address",
          "name": "account",
          "type": "address"
        }
      ],
      "name": "Paused",
      "type": "event"
    },
    {
      "anonymous": false,
      "inputs": [
        {
          "indexed": true,
          "internalType": "bytes32",
          "name": "role",
          "type": "bytes32"
        },
        {
          "indexed": true,
          "internalType": "bytes32",
          "name": "previousAdminRole",
          "type": "bytes32"
        },
        {
          "indexed": true,
          "internalType": "bytes32",
          "name": "newAdminRole",
          "type": "bytes32"
        }
      ],
      "name": "RoleAdminChanged",
      "type": "event"
    },
    {
      "anonymous": false,
      "inputs": [
        {
          "indexed": true,
          "internalType": "bytes32",
          "name": "role",
          "type": "bytes32"
        },
        {
          "indexed": true,
          "internalType": "address",
          "name": "account",
          "type": "address"
        },
        {
          "indexed": true,
          "internalType": "address",
          "name": "sender",
          "type": "address"
        }
      ],
      "name": "RoleGranted",
      "type": "event"
    },
    {
      "anonymous": false,
      "inputs": [
        {
          "indexed": true,
          "internalType": "bytes32",
          "name": "role",
          "type": "bytes32"
        },
        {
          "indexed": true,
          "internalType": "address",
          "name": "account",
          "type": "address"
        },
        {
          "indexed": true,
          "internalType": "address",
          "name": "sender",
          "type": "address"
        }
      ],
      "name": "RoleRevoked",
      "type": "event"
    },
    {
      "anonymous": false,
      "inputs": [
        {
          "indexed": false,
          "internalType": "bool",
          "name": "_status",
          "type": "bool"
        }
      ],
      "name": "TogglePresale",
      "type": "event"
    },
    {
      "anonymous": false,
      "inputs": [
        {
          "indexed": true,
          "internalType": "address",
          "name": "operator",
          "type": "address"
        },
        {
          "indexed": true,
          "internalType": "address",
          "name": "from",
          "type": "address"
        },
        {
          "indexed": true,
          "internalType": "address",
          "name": "to",
          "type": "address"
        },
        {
          "indexed": false,
          "internalType": "uint256[]",
          "name": "ids",
          "type": "uint256[]"
        },
        {
          "indexed": false,
          "internalType": "uint256[]",
          "name": "values",
          "type": "uint256[]"
        }
      ],
      "name": "TransferBatch",
      "type": "event"
    },
    {
      "anonymous": false,
      "inputs": [
        {
          "indexed": true,
          "internalType": "address",
          "name": "operator",
          "type": "address"
        },
        {
          "indexed": true,
          "internalType": "address",
          "name": "from",
          "type": "address"
        },
        {
          "indexed": true,
          "internalType": "address",
          "name": "to",
          "type": "address"
        },
        {
          "indexed": false,
          "internalType": "uint256",
          "name": "id",
          "type": "uint256"
        },
        {
          "indexed": false,
          "internalType": "uint256",
          "name": "value",
          "type": "uint256"
        }
      ],
      "name": "TransferSingle",
      "type": "event"
    },
    {
      "anonymous": false,
      "inputs": [
        {
          "indexed": false,
          "internalType": "string",
          "name": "value",
          "type": "string"
        },
        {
          "indexed": true,
          "internalType": "uint256",
          "name": "id",
          "type": "uint256"
        }
      ],
      "name": "URI",
      "type": "event"
    },
    {
      "anonymous": false,
      "inputs": [
        {
          "indexed": false,
          "internalType": "address",
          "name": "account",
          "type": "address"
        }
      ],
      "name": "Unpaused",
      "type": "event"
    },
    {
      "inputs": [],
      "name": "DEFAULT_ADMIN_ROLE",
      "outputs": [
        {
          "internalType": "bytes32",
          "name": "",
          "type": "bytes32"
        }
      ],
      "stateMutability": "view",
      "type": "function"
    },
    {
      "inputs": [],
      "name": "MINTER_ROLE",
      "outputs": [
        {
          "internalType": "bytes32",
          "name": "",
          "type": "bytes32"
        }
      ],
      "stateMutability": "view",
      "type": "function"
    },
    {
      "inputs": [],
      "name": "PAUSER_ROLE",
      "outputs": [
        {
          "internalType": "bytes32",
          "name": "",
          "type": "bytes32"
        }
      ],
      "stateMutability": "view",
      "type": "function"
    },
    {
      "inputs": [],
      "name": "TIERS",
      "outputs": [
        {
          "internalType": "uint256",
          "name": "",
          "type": "uint256"
        }
      ],
      "stateMutability": "view",
      "type": "function"
    },
    {
      "inputs": [],
      "name": "WALLETS",
      "outputs": [
        {
          "internalType": "uint256",
          "name": "",
          "type": "uint256"
        }
      ],
      "stateMutability": "view",
      "type": "function"
    },
    {
      "inputs": [
        {
          "internalType": "uint256",
          "name": "",
          "type": "uint256"
        },
        {
          "internalType": "uint256",
          "name": "",
          "type": "uint256"
        },
        {
          "internalType": "address",
          "name": "",
          "type": "address"
        }
      ],
      "name": "alreadyDistributedAmount",
      "outputs": [
        {
          "internalType": "uint256",
          "name": "",
          "type": "uint256"
        }
      ],
      "stateMutability": "view",
      "type": "function"
    },
    {
      "inputs": [
        {
          "internalType": "uint256",
          "name": "",
          "type": "uint256"
        },
        {
          "internalType": "uint256",
          "name": "",
          "type": "uint256"
        }
      ],
      "name": "alreadyDistributedAmountByTier",
      "outputs": [
        {
          "internalType": "uint256",
          "name": "",
          "type": "uint256"
        }
      ],
      "stateMutability": "view",
      "type": "function"
    },
    {
      "inputs": [
        {
          "internalType": "address",
          "name": "account",
          "type": "address"
        },
        {
          "internalType": "uint256",
          "name": "id",
          "type": "uint256"
        }
      ],
      "name": "balanceOf",
      "outputs": [
        {
          "internalType": "uint256",
          "name": "",
          "type": "uint256"
        }
      ],
      "stateMutability": "view",
      "type": "function"
    },
    {
      "inputs": [
        {
          "internalType": "address[]",
          "name": "accounts",
          "type": "address[]"
        },
        {
          "internalType": "uint256[]",
          "name": "ids",
          "type": "uint256[]"
        }
      ],
      "name": "balanceOfBatch",
      "outputs": [
        {
          "internalType": "uint256[]",
          "name": "",
          "type": "uint256[]"
        }
      ],
      "stateMutability": "view",
      "type": "function"
    },
    {
      "inputs": [
        {
          "internalType": "address",
          "name": "account",
          "type": "address"
        },
        {
          "internalType": "uint256",
          "name": "id",
          "type": "uint256"
        },
        {
          "internalType": "uint256",
          "name": "value",
          "type": "uint256"
        }
      ],
      "name": "burn",
      "outputs": [],
      "stateMutability": "nonpayable",
      "type": "function"
    },
    {
      "inputs": [
        {
          "internalType": "address",
          "name": "account",
          "type": "address"
        },
        {
          "internalType": "uint256[]",
          "name": "ids",
          "type": "uint256[]"
        },
        {
          "internalType": "uint256[]",
          "name": "values",
          "type": "uint256[]"
        }
      ],
      "name": "burnBatch",
      "outputs": [],
      "stateMutability": "nonpayable",
      "type": "function"
    },
    {
      "inputs": [
        {
          "internalType": "enum ISafeNFT.Tiers",
          "name": "_tier",
          "type": "uint8"
        },
        {
          "internalType": "uint256",
          "name": "_amount",
          "type": "uint256"
        },
        {
          "internalType": "address",
          "name": "_referral",
          "type": "address"
        }
      ],
      "name": "buy",
      "outputs": [],
      "stateMutability": "nonpayable",
      "type": "function"
    },
    {
      "inputs": [
        {
          "internalType": "enum ISafeNFT.Tiers",
          "name": "_tier",
          "type": "uint8"
        },
        {
          "internalType": "uint256",
          "name": "_distributionId",
          "type": "uint256"
        }
      ],
      "name": "claimReward",
      "outputs": [],
      "stateMutability": "nonpayable",
      "type": "function"
    },
    {
      "inputs": [],
      "name": "claimRewardsTotal",
      "outputs": [],
      "stateMutability": "nonpayable",
      "type": "function"
    },
    {
      "inputs": [],
      "name": "currentDistributionId",
      "outputs": [
        {
          "internalType": "uint256",
          "name": "",
          "type": "uint256"
        }
      ],
      "stateMutability": "view",
      "type": "function"
    },
    {
      "inputs": [
        {
          "internalType": "uint256",
          "name": "_amountUSD",
          "type": "uint256"
        }
      ],
      "name": "distributeProfit",
      "outputs": [],
      "stateMutability": "nonpayable",
      "type": "function"
    },
    {
      "inputs": [
        {
          "internalType": "uint256",
          "name": "",
          "type": "uint256"
        },
        {
          "internalType": "uint256",
          "name": "",
          "type": "uint256"
        }
      ],
      "name": "distributionByTier",
      "outputs": [
        {
          "internalType": "uint256",
          "name": "",
          "type": "uint256"
        }
      ],
      "stateMutability": "view",
      "type": "function"
    },
    {
      "inputs": [
        {
          "internalType": "uint256",
          "name": "",
          "type": "uint256"
        }
      ],
      "name": "distributionOfProfit",
      "outputs": [
        {
          "internalType": "uint256",
          "name": "",
          "type": "uint256"
        }
      ],
      "stateMutability": "view",
      "type": "function"
    },
    {
      "inputs": [
        {
          "internalType": "uint256",
          "name": "",
          "type": "uint256"
        },
        {
          "internalType": "uint256",
          "name": "",
          "type": "uint256"
        }
      ],
      "name": "distributionTotalSupplySnapshot",
      "outputs": [
        {
          "internalType": "uint256",
          "name": "",
          "type": "uint256"
        }
      ],
      "stateMutability": "view",
      "type": "function"
    },
    {
      "inputs": [
        {
          "internalType": "uint256",
          "name": "id",
          "type": "uint256"
        }
      ],
      "name": "exists",
      "outputs": [
        {
          "internalType": "bool",
          "name": "",
          "type": "bool"
        }
      ],
      "stateMutability": "view",
      "type": "function"
    },
    {
      "inputs": [
        {
          "internalType": "address",
          "name": "_user",
          "type": "address"
        }
      ],
      "name": "getBalanceTable",
      "outputs": [
        {
          "internalType": "uint256[]",
          "name": "",
          "type": "uint256[]"
        }
      ],
      "stateMutability": "view",
      "type": "function"
    },
    {
      "inputs": [
        {
          "internalType": "enum ISafeNFT.Tiers",
          "name": "_tier",
          "type": "uint8"
        }
      ],
      "name": "getFairPrice",
      "outputs": [
        {
          "internalType": "uint256",
          "name": "",
          "type": "uint256"
        }
      ],
      "stateMutability": "view",
      "type": "function"
    },
    {
      "inputs": [],
      "name": "getFairPriceTable",
      "outputs": [
        {
          "internalType": "uint256[]",
          "name": "",
          "type": "uint256[]"
        }
      ],
      "stateMutability": "view",
      "type": "function"
    },
    {
      "inputs": [],
      "name": "getMyBalanceTable",
      "outputs": [
        {
          "internalType": "uint256[]",
          "name": "",
          "type": "uint256[]"
        }
      ],
      "stateMutability": "view",
      "type": "function"
    },
    {
      "inputs": [],
      "name": "getMyPendingRewardsTotal",
      "outputs": [
        {
          "internalType": "uint256",
          "name": "",
          "type": "uint256"
        }
      ],
      "stateMutability": "view",
      "type": "function"
    },
    {
      "inputs": [],
      "name": "getMyShareOfTreasury",
      "outputs": [
        {
          "internalType": "uint256",
          "name": "",
          "type": "uint256"
        }
      ],
      "stateMutability": "view",
      "type": "function"
    },
    {
      "inputs": [
        {
          "internalType": "address",
          "name": "_user",
          "type": "address"
        },
        {
          "internalType": "enum ISafeNFT.Tiers",
          "name": "_tier",
          "type": "uint8"
        },
        {
          "internalType": "uint256",
          "name": "_distributionId",
          "type": "uint256"
        }
      ],
      "name": "getPendingRewards",
      "outputs": [
        {
          "internalType": "uint256",
          "name": "",
          "type": "uint256"
        }
      ],
      "stateMutability": "view",
      "type": "function"
    },
    {
      "inputs": [
        {
          "internalType": "enum ISafeNFT.Tiers",
          "name": "_tier",
          "type": "uint8"
        }
      ],
      "name": "getPrice",
      "outputs": [
        {
          "internalType": "uint256",
          "name": "",
          "type": "uint256"
        }
      ],
      "stateMutability": "view",
      "type": "function"
    },
    {
      "inputs": [],
      "name": "getPriceTable",
      "outputs": [
        {
          "internalType": "uint256[]",
          "name": "",
          "type": "uint256[]"
        }
      ],
      "stateMutability": "view",
      "type": "function"
    },
    {
      "inputs": [
        {
          "internalType": "bytes32",
          "name": "role",
          "type": "bytes32"
        }
      ],
      "name": "getRoleAdmin",
      "outputs": [
        {
          "internalType": "bytes32",
          "name": "",
          "type": "bytes32"
        }
      ],
      "stateMutability": "view",
      "type": "function"
    },
    {
      "inputs": [
        {
          "internalType": "bytes32",
          "name": "role",
          "type": "bytes32"
        },
        {
          "internalType": "uint256",
          "name": "index",
          "type": "uint256"
        }
      ],
      "name": "getRoleMember",
      "outputs": [
        {
          "internalType": "address",
          "name": "",
          "type": "address"
        }
      ],
      "stateMutability": "view",
      "type": "function"
    },
    {
      "inputs": [
        {
          "internalType": "bytes32",
          "name": "role",
          "type": "bytes32"
        }
      ],
      "name": "getRoleMemberCount",
      "outputs": [
        {
          "internalType": "uint256",
          "name": "",
          "type": "uint256"
        }
      ],
      "stateMutability": "view",
      "type": "function"
    },
    {
      "inputs": [],
      "name": "getTotalSupplyAllTiers",
      "outputs": [
        {
          "internalType": "uint256",
          "name": "",
          "type": "uint256"
        }
      ],
      "stateMutability": "view",
      "type": "function"
    },
    {
      "inputs": [],
      "name": "getTreasuryCost",
      "outputs": [
        {
          "internalType": "uint256",
          "name": "",
          "type": "uint256"
        }
      ],
      "stateMutability": "view",
      "type": "function"
    },
    {
      "inputs": [],
      "name": "getUnclaimedRewards",
      "outputs": [
        {
          "internalType": "uint256",
          "name": "",
          "type": "uint256"
        }
      ],
      "stateMutability": "view",
      "type": "function"
    },
    {
      "inputs": [
        {
          "internalType": "bytes32",
          "name": "role",
          "type": "bytes32"
        },
        {
          "internalType": "address",
          "name": "account",
          "type": "address"
        }
      ],
      "name": "grantRole",
      "outputs": [],
      "stateMutability": "nonpayable",
      "type": "function"
    },
    {
      "inputs": [
        {
          "internalType": "bytes32",
          "name": "role",
          "type": "bytes32"
        },
        {
          "internalType": "address",
          "name": "account",
          "type": "address"
        }
      ],
      "name": "hasRole",
      "outputs": [
        {
          "internalType": "bool",
          "name": "",
          "type": "bool"
        }
      ],
      "stateMutability": "view",
      "type": "function"
    },
    {
      "inputs": [
        {
          "internalType": "string",
          "name": "_uri",
          "type": "string"
        },
        {
          "internalType": "uint256[4]",
          "name": "_price",
          "type": "uint256[4]"
        },
        {
          "internalType": "uint256[4]",
          "name": "_maxSupply",
          "type": "uint256[4]"
        },
        {
          "internalType": "contract ISafeToken",
          "name": "_safeToken",
          "type": "address"
        },
        {
          "internalType": "uint256[2]",
          "name": "_priceDistributionOnMint",
          "type": "uint256[2]"
        },
        {
          "internalType": "uint256",
          "name": "_referralShareForNFTPurchase",
          "type": "uint256"
        },
        {
          "internalType": "uint256[2]",
          "name": "_profitDistribution",
          "type": "uint256[2]"
        },
        {
          "internalType": "address",
          "name": "_stabilizerWallet",
          "type": "address"
        }
      ],
      "name": "initialize",
      "outputs": [],
      "stateMutability": "nonpayable",
      "type": "function"
    },
    {
      "inputs": [
        {
          "internalType": "address",
          "name": "account",
          "type": "address"
        },
        {
          "internalType": "address",
          "name": "operator",
          "type": "address"
        }
      ],
      "name": "isApprovedForAll",
      "outputs": [
        {
          "internalType": "bool",
          "name": "",
          "type": "bool"
        }
      ],
      "stateMutability": "view",
      "type": "function"
    },
    {
      "inputs": [
        {
          "internalType": "uint256",
          "name": "",
          "type": "uint256"
        }
      ],
      "name": "maxSupply",
      "outputs": [
        {
          "internalType": "uint256",
          "name": "",
          "type": "uint256"
        }
      ],
      "stateMutability": "view",
      "type": "function"
    },
    {
      "inputs": [
        {
          "internalType": "address",
          "name": "to",
          "type": "address"
        },
        {
          "internalType": "uint256",
          "name": "id",
          "type": "uint256"
        },
        {
          "internalType": "uint256",
          "name": "amount",
          "type": "uint256"
        },
        {
          "internalType": "bytes",
          "name": "data",
          "type": "bytes"
        }
      ],
      "name": "mint",
      "outputs": [],
      "stateMutability": "nonpayable",
      "type": "function"
    },
    {
      "inputs": [
        {
          "internalType": "address",
          "name": "to",
          "type": "address"
        },
        {
          "internalType": "uint256[]",
          "name": "ids",
          "type": "uint256[]"
        },
        {
          "internalType": "uint256[]",
          "name": "amounts",
          "type": "uint256[]"
        },
        {
          "internalType": "bytes",
          "name": "data",
          "type": "bytes"
        }
      ],
      "name": "mintBatch",
      "outputs": [],
      "stateMutability": "nonpayable",
      "type": "function"
    },
    {
      "inputs": [],
      "name": "name",
      "outputs": [
        {
          "internalType": "string",
          "name": "",
          "type": "string"
        }
      ],
      "stateMutability": "view",
      "type": "function"
    },
    {
      "inputs": [],
      "name": "pause",
      "outputs": [],
      "stateMutability": "nonpayable",
      "type": "function"
    },
    {
      "inputs": [],
      "name": "paused",
      "outputs": [
        {
          "internalType": "bool",
          "name": "",
          "type": "bool"
        }
      ],
      "stateMutability": "view",
      "type": "function"
    },
    {
      "inputs": [],
      "name": "presale",
      "outputs": [
        {
          "internalType": "bool",
          "name": "",
          "type": "bool"
        }
      ],
      "stateMutability": "view",
      "type": "function"
    },
    {
      "inputs": [
        {
          "internalType": "uint256",
          "name": "",
          "type": "uint256"
        }
      ],
      "name": "price",
      "outputs": [
        {
          "internalType": "uint256",
          "name": "",
          "type": "uint256"
        }
      ],
      "stateMutability": "view",
      "type": "function"
    },
    {
      "inputs": [
        {
          "internalType": "uint256",
          "name": "",
          "type": "uint256"
        }
      ],
      "name": "priceDistributionOnMint",
      "outputs": [
        {
          "internalType": "uint256",
          "name": "",
          "type": "uint256"
        }
      ],
      "stateMutability": "view",
      "type": "function"
    },
    {
      "inputs": [
        {
          "internalType": "uint256",
          "name": "",
          "type": "uint256"
        }
      ],
      "name": "profitDistribution",
      "outputs": [
        {
          "internalType": "uint256",
          "name": "",
          "type": "uint256"
        }
      ],
      "stateMutability": "view",
      "type": "function"
    },
    {
      "inputs": [],
      "name": "referralShareForNFTPurchase",
      "outputs": [
        {
          "internalType": "uint256",
          "name": "",
          "type": "uint256"
        }
      ],
      "stateMutability": "view",
      "type": "function"
    },
    {
      "inputs": [
        {
          "internalType": "bytes32",
          "name": "role",
          "type": "bytes32"
        },
        {
          "internalType": "address",
          "name": "account",
          "type": "address"
        }
      ],
      "name": "renounceRole",
      "outputs": [],
      "stateMutability": "nonpayable",
      "type": "function"
    },
    {
      "inputs": [
        {
          "internalType": "bytes32",
          "name": "role",
          "type": "bytes32"
        },
        {
          "internalType": "address",
          "name": "account",
          "type": "address"
        }
      ],
      "name": "revokeRole",
      "outputs": [],
      "stateMutability": "nonpayable",
      "type": "function"
    },
    {
      "inputs": [
        {
          "internalType": "address",
          "name": "from",
          "type": "address"
        },
        {
          "internalType": "address",
          "name": "to",
          "type": "address"
        },
        {
          "internalType": "uint256[]",
          "name": "ids",
          "type": "uint256[]"
        },
        {
          "internalType": "uint256[]",
          "name": "amounts",
          "type": "uint256[]"
        },
        {
          "internalType": "bytes",
          "name": "data",
          "type": "bytes"
        }
      ],
      "name": "safeBatchTransferFrom",
      "outputs": [],
      "stateMutability": "nonpayable",
      "type": "function"
    },
    {
      "inputs": [],
      "name": "safeToken",
      "outputs": [
        {
          "internalType": "contract ISafeToken",
          "name": "",
          "type": "address"
        }
      ],
      "stateMutability": "view",
      "type": "function"
    },
    {
      "inputs": [
        {
          "internalType": "address",
          "name": "from",
          "type": "address"
        },
        {
          "internalType": "address",
          "name": "to",
          "type": "address"
        },
        {
          "internalType": "uint256",
          "name": "id",
          "type": "uint256"
        },
        {
          "internalType": "uint256",
          "name": "amount",
          "type": "uint256"
        },
        {
          "internalType": "bytes",
          "name": "data",
          "type": "bytes"
        }
      ],
      "name": "safeTransferFrom",
      "outputs": [],
      "stateMutability": "nonpayable",
      "type": "function"
    },
    {
      "inputs": [],
      "name": "safeVault",
      "outputs": [
        {
          "internalType": "contract ISafeVault",
          "name": "",
          "type": "address"
        }
      ],
      "stateMutability": "view",
      "type": "function"
    },
    {
      "inputs": [
        {
          "internalType": "address",
          "name": "operator",
          "type": "address"
        },
        {
          "internalType": "bool",
          "name": "approved",
          "type": "bool"
        }
      ],
      "name": "setApprovalForAll",
      "outputs": [],
      "stateMutability": "nonpayable",
      "type": "function"
    },
    {
      "inputs": [],
      "name": "stabilizerWallet",
      "outputs": [
        {
          "internalType": "address",
          "name": "",
          "type": "address"
        }
      ],
      "stateMutability": "view",
      "type": "function"
    },
    {
      "inputs": [
        {
          "internalType": "bytes4",
          "name": "interfaceId",
          "type": "bytes4"
        }
      ],
      "name": "supportsInterface",
      "outputs": [
        {
          "internalType": "bool",
          "name": "",
          "type": "bool"
        }
      ],
      "stateMutability": "view",
      "type": "function"
    },
    {
      "inputs": [],
      "name": "togglePresale",
      "outputs": [],
      "stateMutability": "nonpayable",
      "type": "function"
    },
    {
      "inputs": [
        {
          "internalType": "uint256",
          "name": "id",
          "type": "uint256"
        }
      ],
      "name": "totalSupply",
      "outputs": [
        {
          "internalType": "uint256",
          "name": "",
          "type": "uint256"
        }
      ],
      "stateMutability": "view",
      "type": "function"
    },
    {
      "inputs": [],
      "name": "unpause",
      "outputs": [],
      "stateMutability": "nonpayable",
      "type": "function"
    },
    {
      "inputs": [
        {
          "internalType": "uint256",
          "name": "",
          "type": "uint256"
        }
      ],
      "name": "uri",
      "outputs": [
        {
          "internalType": "string",
          "name": "",
          "type": "string"
        }
      ],
      "stateMutability": "view",
      "type": "function"
    },
    {
      "inputs": [],
      "name": "usd",
      "outputs": [
        {
          "internalType": "contract IERC20",
          "name": "",
          "type": "address"
        }
      ],
      "stateMutability": "view",
      "type": "function"
    },
    {
      "inputs": [
        {
          "internalType": "uint256",
          "name": "",
          "type": "uint256"
        }
      ],
      "name": "wallets",
      "outputs": [
        {
          "internalType": "address",
          "name": "",
          "type": "address"
        }
      ],
      "stateMutability": "view",
      "type": "function"
    }
  ],
  "transactionHash": "0xc249b515bec50f6ba1e8d84d5be4bd8a880a8bfba905466cf9cd49cf5d0d9813",
  "args": [
    "",
    [
      "131250000",
      "262500000",
      "525000000",
      "1050000000"
    ],
    [
      2000,
      1000,
      1000,
      1000
    ],
    "0xF3c420B081422C51533150664Fc8F2fb77E39296",
    [
      70000000,
      20000000
    ],
    5000000,
    [
      25000000,
      20000000
    ],
    "0x9F397Baa90A0968E87351Ed7D45797EDF9f9037F"
  ],
  "numDeployments": 5,
  "solcInputHash": "49968d5f2097b2be6432d640650c613f",
  "bytecode": "0x60806040523480156200001157600080fd5b506040516200635c3803806200635c8339810160408190526200003491620008ab565b87806200004181620000b5565b506007805460ff1916905562000059600033620000c7565b620000746000805160206200633c83398151915233620000c7565b6200008f6000805160206200631c83398151915233620000c7565b506001600955620000a78888888888888888620000d3565b505050505050505062000bf0565b6006620000c3828262000a72565b5050565b620000c382826200050a565b6000620000ed600080516020620062fc8339815191525490565b90506001600160a01b0381166200011d576001600160a01b03600080516020620062fc8339815191525562000133565b336001600160a01b038216146200013357600080fd5b6200013e89620000b5565b6200014b600033620000c7565b620001666000805160206200633c83398151915233620000c7565b620001816000805160206200631c83398151915233620000c7565b62000190600a8960046200066d565b50620001a0600e8860046200066d565b50601280546001600160a01b0319166001600160a01b038816179055620001cb6015866002620006b0565b506019849055620001e06017846002620006b0565b50601a80546001600160a01b0319166001600160a01b03848116919091179091556012546040805163db7a460560e01b815281516200027394939093169263db7a4605926004808401939192918290030181865afa15801562000247573d6000803e3d6000fd5b505050506040513d601f19601f820116820180604052508101906200026d919062000b3e565b6200054d565b601260009054906101000a90046001600160a01b03166001600160a01b031663deef94de6040518163ffffffff1660e01b8152600401602060405180830381865afa158015620002c7573d6000803e3d6000fd5b505050506040513d601f19601f82011682018060405250810190620002ed919062000ba5565b601380546001600160a01b0319166001600160a01b039283161790556012546040805163d63a6ccd60e01b81529051919092169163d63a6ccd9160048083019260209291908290030181865afa1580156200034c573d6000803e3d6000fd5b505050506040513d601f19601f8201168201806040525081019062000372919062000ba5565b601480546001600160a01b0319166001600160a01b0392831690811790915560125460405163095ea7b360e01b81529216600483015260001960248301529063095ea7b3906044016020604051808303816000875af1158015620003da573d6000803e3d6000fd5b505050506040513d601f19601f8201168201806040525081019062000400919062000bcc565b5060145460135460405163095ea7b360e01b81526001600160a01b039182166004820152600019602482015291169063095ea7b3906044016020604051808303816000875af115801562000458573d6000803e3d6000fd5b505050506040513d601f19601f820116820180604052508101906200047e919062000bcc565b5060125460405163095ea7b360e01b81526001600160a01b039091166004820181905260001960248301529063095ea7b3906044016020604051808303816000875af1158015620004d3573d6000803e3d6000fd5b505050506040513d601f19601f82011682018060405250810190620004f9919062000bcc565b50506000601b555050505050505050565b6200052182826200055b60201b6200289a1760201c565b6000828152600160209081526040909120620005489183906200291e620005fb821b17901c565b505050565b620000c360028281620006e0565b6000828152602081815260408083206001600160a01b038516845290915290205460ff16620000c3576000828152602081815260408083206001600160a01b03851684529091529020805460ff19166001179055620005b73390565b6001600160a01b0316816001600160a01b0316837f2f8788117e7eff1d82e926ec794901d17c78024a50270940304540a733656f0d60405160405180910390a45050565b600062000612836001600160a01b0384166200061b565b90505b92915050565b6000818152600183016020526040812054620006645750815460018181018455600084815260208082209093018490558454848252828601909352604090209190915562000615565b50600062000615565b82600481019282156200069e579160200282015b828111156200069e57825182559160200191906001019062000681565b50620006ac9291506200072b565b5090565b82600281019282156200069e57916020028201828111156200069e57825182559160200191906001019062000681565b82600281019282156200069e579160200282015b828111156200069e57825182546001600160a01b0319166001600160a01b03909116178255602090920191600190910190620006f4565b5b80821115620006ac57600081556001016200072c565b634e487b7160e01b600052604160045260246000fd5b604080519081016001600160401b03811182821017156200077d576200077d62000742565b60405290565b604051601f8201601f191681016001600160401b0381118282101715620007ae57620007ae62000742565b604052919050565b600082601f830112620007c857600080fd5b604051608081016001600160401b0381118282101715620007ed57620007ed62000742565b6040528060808401858111156200080357600080fd5b845b818110156200081f57805183526020928301920162000805565b509195945050505050565b6001600160a01b03811681146200084057600080fd5b50565b805162000850816200082a565b919050565b600082601f8301126200086757600080fd5b6200087162000758565b8060408401858111156200088457600080fd5b845b81811015620008a057805184526020938401930162000886565b509095945050505050565b600080600080600080600080610200898b031215620008c957600080fd5b88516001600160401b0380821115620008e157600080fd5b818b0191508b601f830112620008f657600080fd5b8151818111156200090b576200090b62000742565b6020915062000923601f8201601f1916830162000783565b8181528d838386010111156200093857600080fd5b60005b82811015620009585784810184015182820185015283016200093b565b506000838383010152809b505050620009748c828d01620007b6565b98505050620009878a60a08b01620007b6565b9550620009986101208a0162000843565b9450620009aa8a6101408b0162000855565b93506101808901519250620009c48a6101a08b0162000855565b9150620009d56101e08a0162000843565b90509295985092959890939650565b600181811c90821680620009f957607f821691505b60208210810362000a1a57634e487b7160e01b600052602260045260246000fd5b50919050565b601f8211156200054857600081815260208120601f850160051c8101602086101562000a495750805b601f850160051c820191505b8181101562000a6a5782815560010162000a55565b505050505050565b81516001600160401b0381111562000a8e5762000a8e62000742565b62000aa68162000a9f8454620009e4565b8462000a20565b602080601f83116001811462000ade576000841562000ac55750858301515b600019600386901b1c1916600185901b17855562000a6a565b600085815260208120601f198616915b8281101562000b0f5788860151825594840194600190910190840162000aee565b508582101562000b2e5787850151600019600388901b60f8161c191681555b5050505050600190811b01905550565b60006040828403121562000b5157600080fd5b82601f83011262000b6157600080fd5b62000b6b62000758565b80604084018581111562000b7e57600080fd5b845b81811015620008a057805162000b96816200082a565b84526020938401930162000b80565b60006020828403121562000bb857600080fd5b815162000bc5816200082a565b9392505050565b60006020828403121562000bdf57600080fd5b8151801515811462000bc557600080fd5b6156fc8062000c006000396000f3fe608060405234801561001057600080fd5b50600436106103d95760003560e01c80636b20c4541161020a578063ca7b244711610125578063deef94de116100b8578063f03f1e5111610087578063f03f1e51146108b6578063f0b2df89146108be578063f242432a146108d1578063f5298aca146108e4578063fdea8e0b146108f757600080fd5b8063deef94de1461082d578063df71da7614610840578063e63ab1e914610853578063e985e9c51461087a57600080fd5b8063d36dfac8116100f4578063d36dfac8146107cd578063d5391393146107e0578063d547741f14610807578063d63a6ccd1461081a57600080fd5b8063ca7b24471461076e578063ced79ce014610781578063d0d5a1ba146107b2578063d36122b8146107c557600080fd5b80638d3bd55b1161019d578063a217fddf1161016c578063a217fddf14610720578063a22cb46514610728578063bd85b0391461073b578063ca15c8731461075b57600080fd5b80638d3bd55b146106ea5780639010d07c146106f257806391d1485414610705578063a1f5c2391461071857600080fd5b80637ad71f72116101d95780637ad71f72146106b45780637e93391a146106c75780638456cb59146106cf578063869f7594146106d757600080fd5b80636b20c4541461067d5780636e748f9714610690578063731133e914610698578063780069e0146106ab57600080fd5b80632eb2c2d6116102fa5780634e1273f41161028d578063592fa65e1161025c578063592fa65e146106395780635c975abb1461064c5780635e95b4fe146106575780636ac600681461066a57600080fd5b80634e1273f4146105e95780634f558e79146105fc57806351ba5b441461061e57806353f7ffd21461062657600080fd5b806337f1e7f2116102c957806337f1e7f2146105a85780633f4ba83a146105bb578063418f7c51146105c35780634b3fd05a146105d657600080fd5b80632eb2c2d6146105675780632f2ff15d1461057a578063343937431461058d57806336568abe1461059557600080fd5b8063162302571161037257806323f77fa91161034157806323f77fa914610516578063248a9ca31461052957806326a49e371461054c5780632c13f08c1461055f57600080fd5b806316230257146104d1578063168affdf146104d95780631a5e85e5146104f95780631f7fdffa1461050157600080fd5b806306fdde03116103ae57806306fdde03146104435780630b0b73d21461047e5780630e89341c146104a9578063104304f3146104bc57600080fd5b8062a13c4c146103de578062fdd58e146103fa57806301ffc9a71461040d57806304ca4c0714610430575b600080fd5b6103e760195481565b6040519081526020015b60405180910390f35b6103e76104083660046145c4565b61090b565b61042061041b366004614606565b6109a6565b60405190151581526020016103f1565b6103e761043e366004614623565b6109b1565b6104716040518060400160405280600f81526020016e14d8599948165a595b191cc8139195608a1b81525081565b6040516103f19190614695565b601a54610491906001600160a01b031681565b6040516001600160a01b0390911681526020016103f1565b6104716104b73660046146a8565b6109d6565b6104c4610a6a565b6040516103f191906146fc565b6103e7610ae7565b6103e76104e73660046146a8565b601c6020526000908152604090205481565b6103e7610b7d565b61051461050f366004614887565b610bb8565b005b6104c4610524366004614921565b610c10565b6103e76105373660046146a8565b60009081526020819052604090206001015490565b6103e761055a3660046146a8565b610c83565b6104c4610c9a565b61051461057536600461493e565b610d11565b6105146105883660046149eb565b610d5d565b610514610d87565b6105146105a33660046149eb565b610e5c565b6103e76105b6366004614a2f565b610eda565b610514610f08565b6103e76105d1366004614a4a565b610fae565b601254610491906001600160a01b031681565b6104c46105f7366004614a88565b61107b565b61042061060a3660046146a8565b600090815260086020526040902054151590565b6103e76111a4565b610514610634366004614b54565b611227565b6103e7610647366004614623565b61132b565b60075460ff16610420565b6103e7610665366004614623565b611346565b610514610678366004614c0c565b611362565b61051461068b366004614cd9565b6117b5565b6103e7600481565b6105146106a6366004614d4e565b6117f8565b6103e7601b5481565b6104916106c23660046146a8565b61184a565b6103e761186a565b610514611a08565b6103e76106e53660046146a8565b611aac565b6103e7600281565b610491610700366004614623565b611abc565b6104206107133660046149eb565b611adb565b6104c4611b04565b6103e7600081565b610514610736366004614db2565b611b16565b6103e76107493660046146a8565b60009081526008602052604090205490565b6103e76107693660046146a8565b611b21565b6103e761077c3660046146a8565b611b38565b6103e761078f366004614de0565b601f60209081526000938452604080852082529284528284209052825290205481565b6105146107c0366004614e19565b611b48565b6105146122c0565b6105146107db3660046146a8565b61232b565b6103e77f9f2df0fed2c77648de5860a4cc508cd0818c85b8b8a1ab4ceeef8d981c8956a681565b6105146108153660046149eb565b6126cd565b601454610491906001600160a01b031681565b601354610491906001600160a01b031681565b6103e761084e3660046146a8565b6126f2565b6103e77f65d7a28e3265b37a6474929f336521b332c1681b933f6cb9f3376673440d862a81565b610420610888366004614e4e565b6001600160a01b03918216600090815260056020908152604080832093909416825291909152205460ff1690565b6103e7612702565b6103e76108cc366004614a2f565b61276a565b6105146108df366004614e7c565b612812565b6105146108f2366004614ee4565b612857565b601a5461042090600160a01b900460ff1681565b60006001600160a01b03831661097b5760405162461bcd60e51b815260206004820152602a60248201527f455243313135353a2061646472657373207a65726f206973206e6f742061207660448201526930b634b21037bbb732b960b11b60648201526084015b60405180910390fd5b5060008181526004602090815260408083206001600160a01b03861684529091529020545b92915050565b60006109a082612933565b601d60205281600052604060002081600481106109cd57600080fd5b01549150829050565b6060600680546109e590614f19565b80601f0160208091040260200160405190810160405280929190818152602001828054610a1190614f19565b8015610a5e5780601f10610a3357610100808354040283529160200191610a5e565b820191906000526020600020905b815481529060010190602001808311610a4157829003601f168201915b50505050509050919050565b60408051600480825260a08201909252606091600091906020820160808036833701905050905060005b6004811015610ae157600a8160048110610ab057610ab0614f4d565b0154828281518110610ac457610ac4614f4d565b602090810291909101015280610ad981614f79565b915050610a94565b50919050565b600080805b6004811015610ae15760005b601b548111610b6a57600081815260208052604090208260048110610b1f57610b1f614f4d565b01546000828152601d602052604090208360048110610b4057610b40614f4d565b0154610b4c9190614f92565b610b569084614fa5565b925080610b6281614f79565b915050610af8565b5080610b7581614f79565b915050610aec565b600080805b6004811015610ae157600081815260086020526040902054610ba49083614fa5565b915080610bb081614f79565b915050610b82565b610be27f9f2df0fed2c77648de5860a4cc508cd0818c85b8b8a1ab4ceeef8d981c8956a633611adb565b610bfe5760405162461bcd60e51b815260040161097290614fb8565b610c0a8484848461293e565b50505050565b60408051600480825260a08201909252606091600091906020820160808036833701905050905060005b6004811015610c7c57610c4d848261090b565b828281518110610c5f57610c5f614f4d565b602090810291909101015280610c7481614f79565b915050610c3a565b5092915050565b600a8160048110610c9357600080fd5b0154905081565b60408051600480825260a08201909252606091600091906020820160808036833701905050905060005b6004811015610ae157610ce28160038111156108cc576108cc615015565b828281518110610cf457610cf4614f4d565b602090810291909101015280610d0981614f79565b915050610cc4565b6001600160a01b038516331480610d2d5750610d2d8533610888565b610d495760405162461bcd60e51b81526004016109729061502b565b610d568585858585612aa8565b5050505050565b600082815260208190526040902060010154610d7881612c63565b610d828383612c6d565b505050565b610d92600033611adb565b610df65760405162461bcd60e51b815260206004820152602f60248201527f455243313135355072657365744d696e7465725061757365723a206d7573742060448201526e686176652061646d696e20726f6c6560881b6064820152608401610972565b601a805460ff600160a01b808304821615810260ff60a01b1990931692909217928390556040517f512e257b3133a95bd1fef520dafc0dfb212f406af4f808d030e788c8ff536c0493610e529390049091161515815260200190565b60405180910390a1565b6001600160a01b0381163314610ecc5760405162461bcd60e51b815260206004820152602f60248201527f416363657373436f6e74726f6c3a2063616e206f6e6c792072656e6f756e636560448201526e103937b632b9903337b91039b2b63360891b6064820152608401610972565b610ed68282612c8f565b5050565b6000600a826003811115610ef057610ef0615015565b60048110610f0057610f00614f4d565b015492915050565b610f327f65d7a28e3265b37a6474929f336521b332c1681b933f6cb9f3376673440d862a33611adb565b610fa45760405162461bcd60e51b815260206004820152603b60248201527f455243313135355072657365744d696e7465725061757365723a206d7573742060448201527f686176652070617573657220726f6c6520746f20756e706175736500000000006064820152608401610972565b610fac612cb1565b565b600080836003811115610fc357610fc3615015565b601b546000908152601d60205260408120919250908260048110610fe957610fe9614f4d565b015460008381526008602052604081205491925090156110355760008381526008602052604090205461101c888561090b565b6110269084615079565b6110309190615090565b611038565b60005b6000868152601f6020908152604080832087845282528083206001600160a01b038c1684529091529020549091506110709082614f92565b979650505050505050565b606081518351146110e05760405162461bcd60e51b815260206004820152602960248201527f455243313135353a206163636f756e747320616e6420696473206c656e677468604482015268040dad2e6dac2e8c6d60bb1b6064820152608401610972565b600083516001600160401b038111156110fb576110fb61470f565b604051908082528060200260200182016040528015611124578160200160208202803683370190505b50905060005b845181101561119c5761116f85828151811061114857611148614f4d565b602002602001015185838151811061116257611162614f4d565b602002602001015161090b565b82828151811061118157611181614f4d565b602090810291909101015261119581614f79565b905061112a565b509392505050565b60003381805b60048110156111fa57600a81600481106111c6576111c6614f4d565b01546111d2848361090b565b6111dc9190615079565b6111e69083614fa5565b9150806111f281614f79565b9150506111aa565b50600061120561186a565b9050801561121c576112178183615090565b61121f565b60005b935050505090565b61122f612cfe565b33600061123d828585610fae565b60145460405163a9059cbb60e01b81526001600160a01b0385811660048301526024820184905292935091169063a9059cbb906044016020604051808303816000875af1158015611292573d6000803e3d6000fd5b505050506040513d601f19601f820116820180604052508101906112b691906150b2565b506000838152601f6020526040812082918660038111156112d9576112d9615015565b81526020019081526020016000206000846001600160a01b03166001600160a01b0316815260200190815260200160002060008282546113199190614fa5565b9091555050600160095550610ed69050565b6020805281600052604060002081600481106109cd57600080fd5b601e60205281600052604060002081600481106109cd57600080fd5b600061138c7fb53127684a568b3173ae13b9f8a6016e243e63b6e8ee1178d6a717850b5d61035490565b90506001600160a01b0381166113cb576001600160a01b037fb53127684a568b3173ae13b9f8a6016e243e63b6e8ee1178d6a717850b5d6103556113e0565b336001600160a01b038216146113e057600080fd5b6113e989612d57565b6113f4600033612d63565b61141e7f9f2df0fed2c77648de5860a4cc508cd0818c85b8b8a1ab4ceeef8d981c8956a633612d63565b6114487f65d7a28e3265b37a6474929f336521b332c1681b933f6cb9f3376673440d862a33612d63565b611455600a8960046144e7565b50611463600e8860046144e7565b50601280546001600160a01b0319166001600160a01b03881617905561148c6015866002614525565b50601984905561149f6017846002614525565b50601a80546001600160a01b0319166001600160a01b03848116919091179091556012546040805163db7a460560e01b8152815161152d94939093169263db7a4605926004808401939192918290030181865afa158015611504573d6000803e3d6000fd5b505050506040513d601f19601f8201168201806040525081019061152891906150cf565b612d6d565b601260009054906101000a90046001600160a01b03166001600160a01b031663deef94de6040518163ffffffff1660e01b8152600401602060405180830381865afa158015611580573d6000803e3d6000fd5b505050506040513d601f19601f820116820180604052508101906115a49190615131565b601380546001600160a01b0319166001600160a01b039283161790556012546040805163d63a6ccd60e01b81529051919092169163d63a6ccd9160048083019260209291908290030181865afa158015611602573d6000803e3d6000fd5b505050506040513d601f19601f820116820180604052508101906116269190615131565b601480546001600160a01b0319166001600160a01b0392831690811790915560125460405163095ea7b360e01b81529216600483015260001960248301529063095ea7b3906044016020604051808303816000875af115801561168d573d6000803e3d6000fd5b505050506040513d601f19601f820116820180604052508101906116b191906150b2565b5060145460135460405163095ea7b360e01b81526001600160a01b039182166004820152600019602482015291169063095ea7b3906044016020604051808303816000875af1158015611708573d6000803e3d6000fd5b505050506040513d601f19601f8201168201806040525081019061172c91906150b2565b5060125460405163095ea7b360e01b81526001600160a01b039091166004820181905260001960248301529063095ea7b3906044016020604051808303816000875af1158015611780573d6000803e3d6000fd5b505050506040513d601f19601f820116820180604052508101906117a491906150b2565b50506000601b555050505050505050565b6001600160a01b0383163314806117d157506117d18333610888565b6117ed5760405162461bcd60e51b81526004016109729061502b565b610d82838383612d79565b6118227f9f2df0fed2c77648de5860a4cc508cd0818c85b8b8a1ab4ceeef8d981c8956a633611adb565b61183e5760405162461bcd60e51b815260040161097290614fb8565b610c0a84848484612f22565b6002816002811061185a57600080fd5b01546001600160a01b0316905081565b6000620f4240601260009054906101000a90046001600160a01b03166001600160a01b031663a035b1fe6040518163ffffffff1660e01b8152600401602060405180830381865afa1580156118c3573d6000803e3d6000fd5b505050506040513d601f19601f820116820180604052508101906118e7919061514e565b6012546001600160a01b03166370a0823160026000015460405160e083901b6001600160e01b03191681526001600160a01b039091166004820152602401602060405180830381865afa158015611942573d6000803e3d6000fd5b505050506040513d601f19601f82011682018060405250810190611966919061514e565b6119709190615079565b61197a9190615090565b6014546001600160a01b03166370a0823160026000015460405160e083901b6001600160e01b03191681526001600160a01b039091166004820152602401602060405180830381865afa1580156119d5573d6000803e3d6000fd5b505050506040513d601f19601f820116820180604052508101906119f9919061514e565b611a039190614fa5565b905090565b611a327f65d7a28e3265b37a6474929f336521b332c1681b933f6cb9f3376673440d862a33611adb565b611aa45760405162461bcd60e51b815260206004820152603960248201527f455243313135355072657365744d696e7465725061757365723a206d7573742060448201527f686176652070617573657220726f6c6520746f207061757365000000000000006064820152608401610972565b610fac61301c565b600e8160048110610c9357600080fd5b6000828152600160205260408120611ad49083613059565b9392505050565b6000918252602082815260408084206001600160a01b0393909316845291905290205460ff1690565b606033611b1081610c10565b91505090565b610ed6338383613065565b60008181526001602052604081206109a090613145565b60178160028110610c9357600080fd5b611b50612cfe565b611b7b6040518060400160405280600a815260200169189d5e5a5b99c813919560b21b81525061314f565b60008211611bf15760405162461bcd60e51b815260206004820152603860248201527f455243313135355072657365744d696e7465725061757365723a20616d6f756e60448201527f74206d7573742062652067726561746572207468616e203000000000000000006064820152608401610972565b6000600a846003811115611c0757611c07615015565b60048110611c1757611c17614f4d565b015411611c8c5760405162461bcd60e51b815260206004820152603c60248201527f455243313135355072657365744d696e7465725061757365723a20746965722060448201527f7072696365206d7573742062652067726561746572207468616e2030000000006064820152608401610972565b6001600160a01b0381161580159080611cb65750808015611cb657506001600160a01b0382163314155b611d115760405162461bcd60e51b815260206004820152602660248201527f526566657272616c206d75737420626520646966666572656e742066726f6d2060448201526539b2b73232b960d11b6064820152608401610972565b6000846003811115611d2557611d25615015565b9050600084600a876003811115611d3e57611d3e615015565b60048110611d4e57611d4e614f4d565b0154611d5a9190615079565b9050611d93604051806040016040528060158152602001747472616e7366657272696e6720757364507269636560581b81525082613192565b6014546001600160a01b03166323b872dd336040516001600160e01b031960e084901b1681526001600160a01b039091166004820152306024820152604481018490526064016020604051808303816000875af1158015611df8573d6000803e3d6000fd5b505050506040513d601f19601f82011682018060405250810190611e1c91906150b2565b50601a54600160a01b900460ff16612119576000611e4a82601586611e425760006131d7565b6019546131d7565b9050611e8b6040518060400160405280601a81526020017f7472616e7366657272696e6720746f53656c6c466f725361666500000000000081525082613192565b60125460405163f7e0ba5f60e01b8152600481018390526000916001600160a01b03169063f7e0ba5f906024016020604051808303816000875af1158015611ed7573d6000803e3d6000fd5b505050506040513d601f19601f82011682018060405250810190611efb919061514e565b9050611f3860405180604001604052806019815260200178039b0b332a0b6b7bab73a103932ba3ab93732b210333937b69603d1b81525082613192565b601254600090611f53906001600160a01b0316836015613246565b9050611f946040518060400160405280601f81526020017f7472616e7366657272656420746f2070726f746f636f6c2077616c6c6574730081525082613192565b8515611ffd576000611fbf601260009054906101000a90046001600160a01b0316848a6019546134fb565b9050611fef6040518060400160405280600c81526020016b726566657272616c2066656560a01b81525082613192565b611ff98183614fa5565b9150505b61203c6040518060400160405280601c81526020017f746f74616c207472616e7366657272656420746f2077616c6c6574730000000081525082613192565b6014546040516370a0823160e01b81523060048201526000916001600160a01b0316906370a0823190602401602060405180830381865afa158015612085573d6000803e3d6000fd5b505050506040513d601f19601f820116820180604052508101906120a9919061514e565b905080156121105760135460405163b6b55f2560e01b8152600481018390526001600160a01b039091169063b6b55f2590602401600060405180830381600087803b1580156120f757600080fd5b505af115801561210b573d6000803e3d6000fd5b505050505b50505050612298565b600083612127576000612144565b601454601954612144916001600160a01b031690849088906134fb565b905060008415612155576000612180565b601454612180906001600160a01b0316846002600001546019546001600160a01b03909116906134fb565b60145490915060009061219e906001600160a01b0316856015613246565b6014546040516370a0823160e01b81523060048201529192506000916001600160a01b03909116906370a0823190602401602060405180830381865afa1580156121ec573d6000803e3d6000fd5b505050506040513d601f19601f82011682018060405250810190612210919061514e565b9050801561229357601454601a5460405163a9059cbb60e01b81526001600160a01b0391821660048201526024810184905291169063a9059cbb906044016020604051808303816000875af115801561226d573d6000803e3d6000fd5b505050506040513d601f19601f8201168201806040525081019061229191906150b2565b505b505050505b6122b333838760405180602001604052806000815250612f22565b505050610d826001600955565b6122c8612cfe565b60005b60048110156123205760005b601b54811161230d576122fb8260038111156122f5576122f5615015565b82611227565b8061230581614f79565b9150506122d7565b508061231881614f79565b9150506122cb565b50610fac6001600955565b612333612cfe565b61236a604051806040016040528060158152602001747472616e7366657272696e6720757364507269636560581b81525082613192565b6014546001600160a01b03166323b872dd336040516001600160e01b031960e084901b1681526001600160a01b039091166004820152306024820152604481018490526064016020604051808303816000875af11580156123cf573d6000803e3d6000fd5b505050506040513d601f19601f820116820180604052508101906123f391906150b2565b506000612401600283615090565b9050600061241b6124128385614f92565b601760006131d7565b905061245c6040518060400160405280601a81526020017f7472616e7366657272696e6720746f53656c6c466f725361666500000000000081525082613192565b60125460405163f7e0ba5f60e01b8152600481018390526000916001600160a01b03169063f7e0ba5f906024016020604051808303816000875af11580156124a8573d6000803e3d6000fd5b505050506040513d601f19601f820116820180604052508101906124cc919061514e565b905061250960405180604001604052806019815260200178039b0b332a0b6b7bab73a103932ba3ab93732b210333937b69603d1b81525082613192565b601254600090612524906001600160a01b0316836017613246565b601b8054919250600061253683614f79565b9091555050601b546000908152601c60205260408120829055612557610b7d565b905060005b60048110156125e557600081815260086020908152604080832054601b548452601e9092529091208190836004811061259757612597614f4d565b0155826125a48289615079565b6125ae9190615090565b601b546000908152601d6020526040902083600481106125d0576125d0614f4d565b015550806125dd81614f79565b91505061255c565b506014546040516370a0823160e01b81523060048201526000916001600160a01b0316906370a0823190602401602060405180830381865afa15801561262f573d6000803e3d6000fd5b505050506040513d601f19601f82011682018060405250810190612653919061514e565b905080156126ba5760135460405163b6b55f2560e01b8152600481018390526001600160a01b039091169063b6b55f2590602401600060405180830381600087803b1580156126a157600080fd5b505af11580156126b5573d6000803e3d6000fd5b505050505b5050505050506126ca6001600955565b50565b6000828152602081905260409020600101546126e881612c63565b610d828383612c8f565b60158160028110610c9357600080fd5b60003381805b6004811015610c7c5760005b601b548111612757576127398483600381111561273357612733615015565b83610fae565b6127439084614fa5565b92508061274f81614f79565b915050612714565b508061276281614f79565b915050612708565b600061278182600381111561074957610749615015565b156127a05761279b82600381111561074957610749615015565b6127a3565b60015b601b546000908152601d602052604090208360038111156127c6576127c6615015565b600481106127d6576127d6614f4d565b01546127e29190615090565b600a8360038111156127f6576127f6615015565b6004811061280657612806614f4d565b01546109a09190614fa5565b6001600160a01b03851633148061282e575061282e8533610888565b61284a5760405162461bcd60e51b81526004016109729061502b565b610d5685858585856137e1565b6001600160a01b03831633148061287357506128738333610888565b61288f5760405162461bcd60e51b81526004016109729061502b565b610d8283838361392b565b6128a48282611adb565b610ed6576000828152602081815260408083206001600160a01b03851684529091529020805460ff191660011790556128da3390565b6001600160a01b0316816001600160a01b0316837f2f8788117e7eff1d82e926ec794901d17c78024a50270940304540a733656f0d60405160405180910390a45050565b6000611ad4836001600160a01b038416613a51565b60006109a082613aa0565b6001600160a01b0384166129645760405162461bcd60e51b815260040161097290615167565b81518351146129855760405162461bcd60e51b8152600401610972906151a8565b3361299581600087878787613ae0565b60005b8451811015612a31578381815181106129b3576129b3614f4d565b6020026020010151600460008784815181106129d1576129d1614f4d565b602002602001015181526020019081526020016000206000886001600160a01b03166001600160a01b031681526020019081526020016000206000828254612a199190614fa5565b90915550819050612a2981614f79565b915050612998565b50846001600160a01b031660006001600160a01b0316826001600160a01b03167f4a39dc06d4c0dbc64b70af90fd698a233a518aa5d07e595d983b8c0526c8f7fb8787604051612a829291906151f0565b60405180910390a4612a9981600087878787613aee565b610d5681600087878787613ba0565b8151835114612ac95760405162461bcd60e51b8152600401610972906151a8565b6001600160a01b038416612aef5760405162461bcd60e51b815260040161097290615215565b33612afe818787878787613ae0565b60005b8451811015612be7576000858281518110612b1e57612b1e614f4d565b602002602001015190506000858381518110612b3c57612b3c614f4d565b60209081029190910181015160008481526004835260408082206001600160a01b038e168352909352919091205490915081811015612b8d5760405162461bcd60e51b81526004016109729061525a565b60008381526004602090815260408083206001600160a01b038e8116855292528083208585039055908b16825281208054849290612bcc908490614fa5565b9250508190555050505080612be090614f79565b9050612b01565b50846001600160a01b0316866001600160a01b0316826001600160a01b03167f4a39dc06d4c0dbc64b70af90fd698a233a518aa5d07e595d983b8c0526c8f7fb8787604051612c379291906151f0565b60405180910390a4612c4d818787878787613aee565b612c5b818787878787613ba0565b505050505050565b6126ca8133613cfb565b612c77828261289a565b6000828152600160205260409020610d82908261291e565b612c998282613d54565b6000828152600160205260409020610d829082613db9565b612cb9613dce565b6007805460ff191690557f5db9ee0a495bf2e6ff9c91a7834c1ba4fdd244a5e8aa4e537bd38aeae4b073aa335b6040516001600160a01b039091168152602001610e52565b600260095403612d505760405162461bcd60e51b815260206004820152601f60248201527f5265656e7472616e637947756172643a207265656e7472616e742063616c6c006044820152606401610972565b6002600955565b6006610ed682826152ea565b610ed68282612c6d565b610ed660028281614552565b6001600160a01b038316612d9f5760405162461bcd60e51b8152600401610972906153a9565b8051825114612dc05760405162461bcd60e51b8152600401610972906151a8565b6000339050612de381856000868660405180602001604052806000815250613ae0565b60005b8351811015612eab576000848281518110612e0357612e03614f4d565b602002602001015190506000848381518110612e2157612e21614f4d565b60209081029190910181015160008481526004835260408082206001600160a01b038c168352909352919091205490915081811015612e725760405162461bcd60e51b8152600401610972906153ec565b60009283526004602090815260408085206001600160a01b038b1686529091529092209103905580612ea381614f79565b915050612de6565b5060006001600160a01b0316846001600160a01b0316826001600160a01b03167f4a39dc06d4c0dbc64b70af90fd698a233a518aa5d07e595d983b8c0526c8f7fb8686604051612efc9291906151f0565b60405180910390a4610c0a81856000868660405180602001604052806000815250613aee565b6001600160a01b038416612f485760405162461bcd60e51b815260040161097290615167565b336000612f5485613e17565b90506000612f6185613e17565b9050612f7283600089858589613ae0565b60008681526004602090815260408083206001600160a01b038b16845290915281208054879290612fa4908490614fa5565b909155505060408051878152602081018790526001600160a01b03808a1692600092918716917fc3d58168c5ae7397731d063d5bbf3d657854427343f4c083240f7aacaa2d0f62910160405180910390a461300483600089858589613aee565b61301383600089898989613e62565b50505050505050565b613024613f1d565b6007805460ff191660011790557f62e78cea01bee320cd4e420270b5ea74000d11b0c9f74754ebdbfc544b05a258612ce63390565b6000611ad48383613f63565b816001600160a01b0316836001600160a01b0316036130d85760405162461bcd60e51b815260206004820152602960248201527f455243313135353a2073657474696e6720617070726f76616c20737461747573604482015268103337b91039b2b63360b91b6064820152608401610972565b6001600160a01b03838116600081815260056020908152604080832094871680845294825291829020805460ff191686151590811790915591519182527f17307eab39ab6107e8899845ad3d59bd9653f200f220920489ca2b5937696c31910160405180910390a3505050565b60006109a0825490565b6126ca816040516024016131639190614695565b60408051601f198184030181529190526020810180516001600160e01b031663104c13eb60e21b179052613f8d565b610ed682826040516024016131a8929190615430565b60408051601f198184030181529190526020810180516001600160e01b0316632d839cb360e21b179052613f8d565b600080805b6002811015613217578481600281106131f7576131f7614f4d565b01546132039083614fa5565b91508061320f81614f79565b9150506131dc565b506132228382614fa5565b90506305f5e1006132338287615079565b61323d9190615090565b95945050505050565b60006132866040518060400160405280601781526020017f2d2d205f64697374726962757465207374617274202d2d00000000000000000081525061314f565b6132b76040518060400160405280600f81526020016e446973747269627574696e6720257360881b81525084613192565b604080518082018252600a81526962616c616e636520257360b01b602082015290516370a0823160e01b815230600482015261334891906001600160a01b038716906370a0823190602401602060405180830381865afa15801561331f573d6000803e3d6000fd5b505050506040513d601f19601f82011682018060405250810190613343919061514e565b613192565b6000805b600281101561348c5760006305f5e10085836002811061336e5761336e614f4d565b015461337a9088615079565b6133849190615090565b90506133d66040518060400160405280601081526020016f73656e64696e6720257320746f20257360801b81525082600285600281106133c6576133c6614f4d565b01546001600160a01b0316613fae565b866001600160a01b031663a9059cbb600284600281106133f8576133f8614f4d565b015460405160e083901b6001600160e01b03191681526001600160a01b039091166004820152602481018490526044016020604051808303816000875af1158015613447573d6000803e3d6000fd5b505050506040513d601f19601f8201168201806040525081019061346b91906150b2565b506134768184614fa5565b925050808061348490614f79565b91505061334c565b506134bd6040518060400160405280600e81526020016d446973747269627574656420257360901b81525082613192565b6134f3604051806040016040528060158152602001742d2d205f6469737472696275746520656e64202d2d60581b81525061314f565b949350505050565b600061353b6040518060400160405280601c81526020017f2d2d205f7472616e7366657250657263656e74207374617274202d2d0000000081525061314f565b6040516370a0823160e01b81523060048201526000906001600160a01b038716906370a0823190602401602060405180830381865afa158015613582573d6000803e3d6000fd5b505050506040513d601f19601f820116820180604052508101906135a6919061514e565b90506135e76040518060400160405280601881526020017f7472616e7366657272696e67207368617265206f66202573000000000000000081525086613192565b6136136040518060400160405280600a81526020016962616c616e636520257360b01b81525082613192565b60006305f5e1006136248588615079565b61362e9190615090565b905061366760405180604001604052806015815260200174616d6f756e7420746f207472616e7366657220257360581b81525082613192565b808210156136c25760405162461bcd60e51b815260206004820152602260248201527f4e6f7420656e6f7567682062616c616e6365206f6e2074686520636f6e74726160448201526118dd60f21b6064820152608401610972565b6136f56040518060400160405280601081526020016f73656e64696e6720257320746f20257360801b8152508287613fae565b60405163a9059cbb60e01b81526001600160a01b0386811660048301526024820183905288169063a9059cbb906044016020604051808303816000875af1158015613744573d6000803e3d6000fd5b505050506040513d601f19601f8201168201806040525081019061376891906150b2565b506137996040518060400160405280600e81526020016d446973747269627574656420257360901b81525082613192565b6137d76040518060400160405280601a81526020017f2d2d205f7472616e7366657250657263656e7420656e64202d2d00000000000081525061314f565b9695505050505050565b6001600160a01b0384166138075760405162461bcd60e51b815260040161097290615215565b33600061381385613e17565b9050600061382085613e17565b9050613830838989858589613ae0565b60008681526004602090815260408083206001600160a01b038c168452909152902054858110156138735760405162461bcd60e51b81526004016109729061525a565b60008781526004602090815260408083206001600160a01b038d8116855292528083208985039055908a168252812080548892906138b2908490614fa5565b909155505060408051888152602081018890526001600160a01b03808b16928c821692918816917fc3d58168c5ae7397731d063d5bbf3d657854427343f4c083240f7aacaa2d0f62910160405180910390a4613912848a8a86868a613aee565b613920848a8a8a8a8a613e62565b505050505050505050565b6001600160a01b0383166139515760405162461bcd60e51b8152600401610972906153a9565b33600061395d84613e17565b9050600061396a84613e17565b905061398a83876000858560405180602001604052806000815250613ae0565b60008581526004602090815260408083206001600160a01b038a168452909152902054848110156139cd5760405162461bcd60e51b8152600401610972906153ec565b60008681526004602090815260408083206001600160a01b038b81168086529184528285208a8703905582518b81529384018a90529092908816917fc3d58168c5ae7397731d063d5bbf3d657854427343f4c083240f7aacaa2d0f62910160405180910390a461301384886000868660405180602001604052806000815250613aee565b6000818152600183016020526040812054613a98575081546001818101845560008481526020808220909301849055845484825282860190935260409020919091556109a0565b5060006109a0565b60006001600160e01b03198216636cdb3d1360e11b1480613ad157506001600160e01b031982166303a24d0760e21b145b806109a057506109a082613ff5565b612c5b86868686868661401a565b600e83600081518110613b0357613b03614f4d565b602002602001015160048110613b1b57613b1b614f4d565b0154613b4d84600081518110613b3357613b33614f4d565b602002602001015160009081526008602052604090205490565b1115613b9b5760405162461bcd60e51b815260206004820152601b60248201527f536166654e46543a206d617820737570706c79207265616368656400000000006044820152606401610972565b612c5b565b6001600160a01b0384163b15612c5b5760405163bc197c8160e01b81526001600160a01b0385169063bc197c8190613be49089908990889088908890600401615452565b6020604051808303816000875af1925050508015613c1f575060408051601f3d908101601f19168201909252613c1c918101906154b0565b60015b613ccb57613c2b6154cd565b806308c379a003613c645750613c3f6154e9565b80613c4a5750613c66565b8060405162461bcd60e51b81526004016109729190614695565b505b60405162461bcd60e51b815260206004820152603460248201527f455243313135353a207472616e7366657220746f206e6f6e2d455243313135356044820152732932b1b2b4bb32b91034b6b83632b6b2b73a32b960611b6064820152608401610972565b6001600160e01b0319811663bc197c8160e01b146130135760405162461bcd60e51b815260040161097290615572565b613d058282611adb565b610ed657613d12816141a1565b613d1d8360206141b3565b604051602001613d2e9291906155ba565b60408051601f198184030181529082905262461bcd60e51b825261097291600401614695565b613d5e8282611adb565b15610ed6576000828152602081815260408083206001600160a01b0385168085529252808320805460ff1916905551339285917ff6391f5c32d9c69d2a47ea670b442974b53935d1edc7fd64eb21e047a839171b9190a45050565b6000611ad4836001600160a01b03841661434e565b60075460ff16610fac5760405162461bcd60e51b815260206004820152601460248201527314185d5cd8589b194e881b9bdd081c185d5cd95960621b6044820152606401610972565b60408051600180825281830190925260609160009190602080830190803683370190505090508281600081518110613e5157613e51614f4d565b602090810291909101015292915050565b6001600160a01b0384163b15612c5b5760405163f23a6e6160e01b81526001600160a01b0385169063f23a6e6190613ea6908990899088908890889060040161562f565b6020604051808303816000875af1925050508015613ee1575060408051601f3d908101601f19168201909252613ede918101906154b0565b60015b613eed57613c2b6154cd565b6001600160e01b0319811663f23a6e6160e01b146130135760405162461bcd60e51b815260040161097290615572565b60075460ff1615610fac5760405162461bcd60e51b815260206004820152601060248201526f14185d5cd8589b194e881c185d5cd95960821b6044820152606401610972565b6000826000018281548110613f7a57613f7a614f4d565b9060005260206000200154905092915050565b80516a636f6e736f6c652e6c6f67602083016000808483855afa5050505050565b610d82838383604051602401613fc693929190615667565b60408051601f198184030181529190526020810180516001600160e01b031663038fd88960e31b179052613f8d565b60006001600160e01b03198216635a05180f60e01b14806109a057506109a082614441565b614028868686868686614476565b6001600160a01b0385166140af5760005b83518110156140ad5782818151811061405457614054614f4d565b60200260200101516008600086848151811061407257614072614f4d565b6020026020010151815260200190815260200160002060008282546140979190614fa5565b909155506140a6905081614f79565b9050614039565b505b6001600160a01b038416612c5b5760005b83518110156130135760008482815181106140dd576140dd614f4d565b6020026020010151905060008483815181106140fb576140fb614f4d565b602002602001015190506000600860008481526020019081526020016000205490508181101561417e5760405162461bcd60e51b815260206004820152602860248201527f455243313135353a206275726e20616d6f756e74206578636565647320746f74604482015267616c537570706c7960c01b6064820152608401610972565b6000928352600860205260409092209103905561419a81614f79565b90506140c0565b60606109a06001600160a01b03831660145b606060006141c2836002615079565b6141cd906002614fa5565b6001600160401b038111156141e4576141e461470f565b6040519080825280601f01601f19166020018201604052801561420e576020820181803683370190505b509050600360fc1b8160008151811061422957614229614f4d565b60200101906001600160f81b031916908160001a905350600f60fb1b8160018151811061425857614258614f4d565b60200101906001600160f81b031916908160001a905350600061427c846002615079565b614287906001614fa5565b90505b60018111156142ff576f181899199a1a9b1b9c1cb0b131b232b360811b85600f16601081106142bb576142bb614f4d565b1a60f81b8282815181106142d1576142d1614f4d565b60200101906001600160f81b031916908160001a90535060049490941c936142f881615699565b905061428a565b508315611ad45760405162461bcd60e51b815260206004820181905260248201527f537472696e67733a20686578206c656e67746820696e73756666696369656e746044820152606401610972565b60008181526001830160205260408120548015614437576000614372600183614f92565b855490915060009061438690600190614f92565b90508181146143eb5760008660000182815481106143a6576143a6614f4d565b90600052602060002001549050808760000184815481106143c9576143c9614f4d565b6000918252602080832090910192909255918252600188019052604090208390555b85548690806143fc576143fc6156b0565b6001900381819060005260206000200160009055905585600101600086815260200190815260200160002060009055600193505050506109a0565b60009150506109a0565b60006001600160e01b03198216637965db0b60e01b14806109a057506301ffc9a760e01b6001600160e01b03198316146109a0565b612c5b86868686868660075460ff1615612c5b5760405162461bcd60e51b815260206004820152602c60248201527f455243313135355061757361626c653a20746f6b656e207472616e736665722060448201526b1dda1a5b19481c185d5cd95960a21b6064820152608401610972565b8260048101928215614515579160200282015b828111156145155782518255916020019190600101906144fa565b5061452192915061459a565b5090565b826002810192821561451557916020028201828111156145155782518255916020019190600101906144fa565b8260028101928215614515579160200282015b8281111561451557825182546001600160a01b0319166001600160a01b03909116178255602090920191600190910190614565565b5b80821115614521576000815560010161459b565b6001600160a01b03811681146126ca57600080fd5b600080604083850312156145d757600080fd5b82356145e2816145af565b946020939093013593505050565b6001600160e01b0319811681146126ca57600080fd5b60006020828403121561461857600080fd5b8135611ad4816145f0565b6000806040838503121561463657600080fd5b50508035926020909101359150565b60005b83811015614660578181015183820152602001614648565b50506000910152565b60008151808452614681816020860160208601614645565b601f01601f19169290920160200192915050565b602081526000611ad46020830184614669565b6000602082840312156146ba57600080fd5b5035919050565b600081518084526020808501945080840160005b838110156146f1578151875295820195908201906001016146d5565b509495945050505050565b602081526000611ad460208301846146c1565b634e487b7160e01b600052604160045260246000fd5b604081018181106001600160401b03821117156147445761474461470f565b60405250565b601f8201601f191681016001600160401b038111828210171561476f5761476f61470f565b6040525050565b60006001600160401b0382111561478f5761478f61470f565b5060051b60200190565b600082601f8301126147aa57600080fd5b813560206147b782614776565b6040516147c4828261474a565b83815260059390931b85018201928281019150868411156147e457600080fd5b8286015b848110156147ff57803583529183019183016147e8565b509695505050505050565b60006001600160401b038311156148235761482361470f565b60405161483a601f8501601f19166020018261474a565b80915083815284848401111561484f57600080fd5b83836020830137600060208583010152509392505050565b600082601f83011261487857600080fd5b611ad48383356020850161480a565b6000806000806080858703121561489d57600080fd5b84356148a8816145af565b935060208501356001600160401b03808211156148c457600080fd5b6148d088838901614799565b945060408701359150808211156148e657600080fd5b6148f288838901614799565b9350606087013591508082111561490857600080fd5b5061491587828801614867565b91505092959194509250565b60006020828403121561493357600080fd5b8135611ad4816145af565b600080600080600060a0868803121561495657600080fd5b8535614961816145af565b94506020860135614971816145af565b935060408601356001600160401b038082111561498d57600080fd5b61499989838a01614799565b945060608801359150808211156149af57600080fd5b6149bb89838a01614799565b935060808801359150808211156149d157600080fd5b506149de88828901614867565b9150509295509295909350565b600080604083850312156149fe57600080fd5b823591506020830135614a10816145af565b809150509250929050565b803560048110614a2a57600080fd5b919050565b600060208284031215614a4157600080fd5b611ad482614a1b565b600080600060608486031215614a5f57600080fd5b8335614a6a816145af565b9250614a7860208501614a1b565b9150604084013590509250925092565b60008060408385031215614a9b57600080fd5b82356001600160401b0380821115614ab257600080fd5b818501915085601f830112614ac657600080fd5b81356020614ad382614776565b604051614ae0828261474a565b83815260059390931b8501820192828101915089841115614b0057600080fd5b948201945b83861015614b27578535614b18816145af565b82529482019490820190614b05565b96505086013592505080821115614b3d57600080fd5b50614b4a85828601614799565b9150509250929050565b60008060408385031215614b6757600080fd5b6145e283614a1b565b600082601f830112614b8157600080fd5b604051608081018181106001600160401b0382111715614ba357614ba361470f565b604052806080840185811115614bb857600080fd5b845b81811015614bd2578035835260209283019201614bba565b509195945050505050565b600082601f830112614bee57600080fd5b604051614bfa81614725565b806040840185811115614bb857600080fd5b600080600080600080600080610200898b031215614c2957600080fd5b88356001600160401b03811115614c3f57600080fd5b8901601f81018b13614c5057600080fd5b614c5f8b82356020840161480a565b985050614c6f8a60208b01614b70565b9650614c7e8a60a08b01614b70565b9550610120890135614c8f816145af565b9450614c9f8a6101408b01614bdd565b93506101808901359250614cb78a6101a08b01614bdd565b91506101e0890135614cc8816145af565b809150509295985092959890939650565b600080600060608486031215614cee57600080fd5b8335614cf9816145af565b925060208401356001600160401b0380821115614d1557600080fd5b614d2187838801614799565b93506040860135915080821115614d3757600080fd5b50614d4486828701614799565b9150509250925092565b60008060008060808587031215614d6457600080fd5b8435614d6f816145af565b9350602085013592506040850135915060608501356001600160401b03811115614d9857600080fd5b61491587828801614867565b80151581146126ca57600080fd5b60008060408385031215614dc557600080fd5b8235614dd0816145af565b91506020830135614a1081614da4565b600080600060608486031215614df557600080fd5b83359250602084013591506040840135614e0e816145af565b809150509250925092565b600080600060608486031215614e2e57600080fd5b614e3784614a1b565b9250602084013591506040840135614e0e816145af565b60008060408385031215614e6157600080fd5b8235614e6c816145af565b91506020830135614a10816145af565b600080600080600060a08688031215614e9457600080fd5b8535614e9f816145af565b94506020860135614eaf816145af565b9350604086013592506060860135915060808601356001600160401b03811115614ed857600080fd5b6149de88828901614867565b600080600060608486031215614ef957600080fd5b8335614f04816145af565b95602085013595506040909401359392505050565b600181811c90821680614f2d57607f821691505b602082108103610ae157634e487b7160e01b600052602260045260246000fd5b634e487b7160e01b600052603260045260246000fd5b634e487b7160e01b600052601160045260246000fd5b600060018201614f8b57614f8b614f63565b5060010190565b818103818111156109a0576109a0614f63565b808201808211156109a0576109a0614f63565b60208082526038908201527f455243313135355072657365744d696e7465725061757365723a206d7573742060408201527f68617665206d696e74657220726f6c6520746f206d696e740000000000000000606082015260800190565b634e487b7160e01b600052602160045260246000fd5b6020808252602e908201527f455243313135353a2063616c6c6572206973206e6f7420746f6b656e206f776e60408201526d195c881bdc88185c1c1c9bdd995960921b606082015260800190565b80820281158282048414176109a0576109a0614f63565b6000826150ad57634e487b7160e01b600052601260045260246000fd5b500490565b6000602082840312156150c457600080fd5b8151611ad481614da4565b6000604082840312156150e157600080fd5b82601f8301126150f057600080fd5b6040516150fc81614725565b80604084018581111561510e57600080fd5b845b81811015614bd2578051615123816145af565b835260209283019201615110565b60006020828403121561514357600080fd5b8151611ad4816145af565b60006020828403121561516057600080fd5b5051919050565b60208082526021908201527f455243313135353a206d696e7420746f20746865207a65726f206164647265736040820152607360f81b606082015260800190565b60208082526028908201527f455243313135353a2069647320616e6420616d6f756e7473206c656e677468206040820152670dad2e6dac2e8c6d60c31b606082015260800190565b60408152600061520360408301856146c1565b828103602084015261323d81856146c1565b60208082526025908201527f455243313135353a207472616e7366657220746f20746865207a65726f206164604082015264647265737360d81b606082015260800190565b6020808252602a908201527f455243313135353a20696e73756666696369656e742062616c616e636520666f60408201526939103a3930b739b332b960b11b606082015260800190565b601f821115610d8257600081815260208120601f850160051c810160208610156152cb5750805b601f850160051c820191505b81811015612c5b578281556001016152d7565b81516001600160401b038111156153035761530361470f565b615317816153118454614f19565b846152a4565b602080601f83116001811461534c57600084156153345750858301515b600019600386901b1c1916600185901b178555612c5b565b600085815260208120601f198616915b8281101561537b5788860151825594840194600190910190840161535c565b50858210156153995787850151600019600388901b60f8161c191681555b5050505050600190811b01905550565b60208082526023908201527f455243313135353a206275726e2066726f6d20746865207a65726f206164647260408201526265737360e81b606082015260800190565b60208082526024908201527f455243313135353a206275726e20616d6f756e7420657863656564732062616c604082015263616e636560e01b606082015260800190565b6040815260006154436040830185614669565b90508260208301529392505050565b60006001600160a01b03808816835280871660208401525060a0604083015261547e60a08301866146c1565b828103606084015261549081866146c1565b905082810360808401526154a48185614669565b98975050505050505050565b6000602082840312156154c257600080fd5b8151611ad4816145f0565b600060033d11156154e65760046000803e5060005160e01c5b90565b600060443d10156154f75790565b6040516003193d81016004833e81513d6001600160401b03816024840111818411171561552657505050505090565b828501915081518181111561553e5750505050505090565b843d87010160208285010111156155585750505050505090565b6155676020828601018761474a565b509095945050505050565b60208082526028908201527f455243313135353a204552433131353552656365697665722072656a656374656040820152676420746f6b656e7360c01b606082015260800190565b7f416363657373436f6e74726f6c3a206163636f756e74200000000000000000008152600083516155f2816017850160208801614645565b7001034b99036b4b9b9b4b733903937b6329607d1b6017918401918201528351615623816028840160208801614645565b01602801949350505050565b60006001600160a01b03808816835280871660208401525084604083015283606083015260a0608083015261107060a0830184614669565b60608152600061567a6060830186614669565b90508360208301526001600160a01b0383166040830152949350505050565b6000816156a8576156a8614f63565b506000190190565b634e487b7160e01b600052603160045260246000fdfea2646970667358221220e07762188adf746c140290c7cc725d6698d7746600797f52a2ff0531c86d498464736f6c63430008110033b53127684a568b3173ae13b9f8a6016e243e63b6e8ee1178d6a717850b5d610365d7a28e3265b37a6474929f336521b332c1681b933f6cb9f3376673440d862a9f2df0fed2c77648de5860a4cc508cd0818c85b8b8a1ab4ceeef8d981c8956a6",
  "devdoc": {
    "author": "crypt0grapher",
    "kind": "dev",
    "methods": {
      "balanceOf(address,uint256)": {
        "details": "See {IERC1155-balanceOf}. Requirements: - `account` cannot be the zero address."
      },
      "balanceOfBatch(address[],uint256[])": {
        "details": "See {IERC1155-balanceOfBatch}. Requirements: - `accounts` and `ids` must have the same length."
      },
      "buy(uint8,uint256,address)": {
        "params": {
          "_amount": "amount of USD to spend",
          "_referral": "referral getting 5% of the price, should not be the sender, if not specified, goes to treasury",
          "_tier": "tier of the NFT to purchase which stands for ERC1155 token id [0..3]"
        }
      },
      "distributeProfit(uint256)": {
        "params": {
          "_amountUSD": "amount of USD to distribute"
        }
      },
      "exists(uint256)": {
        "details": "Indicates whether any token exist with a given id, or not."
      },
      "getFairPrice(uint8)": {
        "returns": {
          "_0": "counts not only the sale price but also share of the profit for the tier"
        }
      },
      "getPrice(uint8)": {
        "returns": {
          "_0": "NFT price in USD"
        }
      },
      "getPriceTable()": {
        "returns": {
          "_0": "returns all NFT prices in one table in USD"
        }
      },
      "getRoleAdmin(bytes32)": {
        "details": "Returns the admin role that controls `role`. See {grantRole} and {revokeRole}. To change a role's admin, use {_setRoleAdmin}."
      },
      "getRoleMember(bytes32,uint256)": {
        "details": "Returns one of the accounts that have `role`. `index` must be a value between 0 and {getRoleMemberCount}, non-inclusive. Role bearers are not sorted in any particular way, and their ordering may change at any point. WARNING: When using {getRoleMember} and {getRoleMemberCount}, make sure you perform all queries on the same block. See the following https://forum.openzeppelin.com/t/iterating-over-elements-on-enumerableset-in-openzeppelin-contracts/2296[forum post] for more information."
      },
      "getRoleMemberCount(bytes32)": {
        "details": "Returns the number of accounts that have `role`. Can be used together with {getRoleMember} to enumerate all bearers of a role."
      },
      "getUnclaimedRewards()": {
        "returns": {
          "_0": "amount of the rewards not yet distributed to NFT holders"
        }
      },
      "grantRole(bytes32,address)": {
        "details": "Grants `role` to `account`. If `account` had not been already granted `role`, emits a {RoleGranted} event. Requirements: - the caller must have ``role``'s admin role. May emit a {RoleGranted} event."
      },
      "hasRole(bytes32,address)": {
        "details": "Returns `true` if `account` has been granted `role`."
      },
      "isApprovedForAll(address,address)": {
        "details": "See {IERC1155-isApprovedForAll}."
      },
      "mint(address,uint256,uint256,bytes)": {
        "details": "Creates `amount` new tokens for `to`, of token type `id`. See {ERC1155-_mint}. Requirements: - the caller must have the `MINTER_ROLE`."
      },
      "mintBatch(address,uint256[],uint256[],bytes)": {
        "details": "xref:ROOT:erc1155.adoc#batch-operations[Batched] variant of {mint}."
      },
      "pause()": {
        "details": "Pauses all token transfers. See {ERC1155Pausable} and {Pausable-_pause}. Requirements: - the caller must have the `PAUSER_ROLE`."
      },
      "paused()": {
        "details": "Returns true if the contract is paused, and false otherwise."
      },
      "renounceRole(bytes32,address)": {
        "details": "Revokes `role` from the calling account. Roles are often managed via {grantRole} and {revokeRole}: this function's purpose is to provide a mechanism for accounts to lose their privileges if they are compromised (such as when a trusted device is misplaced). If the calling account had been revoked `role`, emits a {RoleRevoked} event. Requirements: - the caller must be `account`. May emit a {RoleRevoked} event."
      },
      "revokeRole(bytes32,address)": {
        "details": "Revokes `role` from `account`. If `account` had been granted `role`, emits a {RoleRevoked} event. Requirements: - the caller must have ``role``'s admin role. May emit a {RoleRevoked} event."
      },
      "safeBatchTransferFrom(address,address,uint256[],uint256[],bytes)": {
        "details": "See {IERC1155-safeBatchTransferFrom}."
      },
      "safeTransferFrom(address,address,uint256,uint256,bytes)": {
        "details": "See {IERC1155-safeTransferFrom}."
      },
      "setApprovalForAll(address,bool)": {
        "details": "See {IERC1155-setApprovalForAll}."
      },
      "totalSupply(uint256)": {
        "details": "Total amount of tokens in with a given id."
      },
      "unpause()": {
        "details": "Unpauses all token transfers. See {ERC1155Pausable} and {Pausable-_unpause}. Requirements: - the caller must have the `PAUSER_ROLE`."
      },
      "uri(uint256)": {
        "details": "See {IERC1155MetadataURI-uri}. This implementation returns the same URI for *all* token types. It relies on the token type ID substitution mechanism https://eips.ethereum.org/EIPS/eip-1155#metadata[defined in the EIP]. Clients calling this function must replace the `\\{id\\}` substring with the actual token type ID."
      }
    },
    "stateVariables": {
      "currentDistributionId": {
        "return": "current distribution number, the one that assigned to the latest distribution",
        "returns": {
          "_0": "current distribution number, the one that assigned to the latest distribution"
        }
      }
    },
    "title": "Safe NFT",
    "version": 1
  },
  "userdoc": {
    "kind": "user",
    "methods": {
      "buy(uint8,uint256,address)": {
        "notice": "purchase Safe NFT for exact amount of USD"
      },
      "claimReward(uint8,uint256)": {
        "notice": "the function calculates the amount of the reward for the NFT holder and transfers it to the NFT holder"
      },
      "claimRewardsTotal()": {
        "notice": "the function calculates the amount of the reward for the NFT holder and transfers it to the NFT holder"
      },
      "currentDistributionId()": {
        "notice": "gets the current distribution number"
      },
      "distributeProfit(uint256)": {
        "notice": "distribute profit among the NFT holders, the function fixes the amount of the reward and the NFT holders and their shares at the moment of the call. It does not transfer the reward to the NFT holders, it just records the amount of the reward for each NFT holder."
      },
      "getBalanceTable(address)": {
        "notice": "gets NFT balance for all tiers"
      },
      "getFairPrice(uint8)": {
        "notice": "gets NFT fair price in USD"
      },
      "getFairPriceTable()": {
        "notice": "gets NFT price for all tiers in USD ///todo in SAFE!"
      },
      "getMyBalanceTable()": {
        "notice": "gets NFT balance for all tiers"
      },
      "getMyPendingRewardsTotal()": {
        "notice": "returns the amount of the reward share for the NFT holder"
      },
      "getMyShareOfTreasury()": {
        "notice": "**Your NFTs (% Treasury) **is calculated in $ as a relation of total price of NFTs possessed by the $ amount of Investment Pool - including its SAFE and USDC components."
      },
      "getPendingRewards(address,uint8,uint256)": {
        "notice": "returns the amount of the reward share for the NFT holder"
      },
      "getPrice(uint8)": {
        "notice": "gets NFT price in USD"
      },
      "getPriceTable()": {
        "notice": "gets all NFT prices in USD"
      },
      "getTreasuryCost()": {
        "notice": "gets the total usd value of the NFT minted"
      },
      "getUnclaimedRewards()": {
        "notice": "undistributed profit amount in USD"
      }
    },
    "notice": "Safe Yields NFT token based on ERC1155 standard, id [0..3] represents one of the 4 tiers",
    "version": 1
  },
  "storageLayout": {
    "storage": [
      {
        "astId": 24,
        "contract": "contracts/SafeNFT.sol:SafeNFT",
        "label": "_roles",
        "offset": 0,
        "slot": "0",
        "type": "t_mapping(t_bytes32,t_struct(RoleData)19_storage)"
      },
      {
        "astId": 334,
        "contract": "contracts/SafeNFT.sol:SafeNFT",
        "label": "_roleMembers",
        "offset": 0,
        "slot": "1",
        "type": "t_mapping(t_bytes32,t_struct(AddressSet)4430_storage)"
      },
      {
        "astId": 6102,
        "contract": "contracts/SafeNFT.sol:SafeNFT",
        "label": "wallets",
        "offset": 0,
        "slot": "2",
        "type": "t_array(t_address)2_storage"
      },
      {
        "astId": 726,
        "contract": "contracts/SafeNFT.sol:SafeNFT",
        "label": "_balances",
        "offset": 0,
        "slot": "4",
        "type": "t_mapping(t_uint256,t_mapping(t_address,t_uint256))"
      },
      {
        "astId": 732,
        "contract": "contracts/SafeNFT.sol:SafeNFT",
        "label": "_operatorApprovals",
        "offset": 0,
        "slot": "5",
        "type": "t_mapping(t_address,t_mapping(t_address,t_bool))"
      },
      {
        "astId": 734,
        "contract": "contracts/SafeNFT.sol:SafeNFT",
        "label": "_uri",
        "offset": 0,
        "slot": "6",
        "type": "t_string_storage"
      },
      {
        "astId": 556,
        "contract": "contracts/SafeNFT.sol:SafeNFT",
        "label": "_paused",
        "offset": 0,
        "slot": "7",
        "type": "t_bool"
      },
      {
        "astId": 2213,
        "contract": "contracts/SafeNFT.sol:SafeNFT",
        "label": "_totalSupply",
        "offset": 0,
        "slot": "8",
        "type": "t_mapping(t_uint256,t_uint256)"
      },
      {
        "astId": 657,
        "contract": "contracts/SafeNFT.sol:SafeNFT",
        "label": "_status",
        "offset": 0,
        "slot": "9",
        "type": "t_uint256"
      },
      {
        "astId": 4749,
        "contract": "contracts/SafeNFT.sol:SafeNFT",
        "label": "price",
        "offset": 0,
        "slot": "10",
        "type": "t_array(t_uint256)4_storage"
      },
      {
        "astId": 4753,
        "contract": "contracts/SafeNFT.sol:SafeNFT",
        "label": "maxSupply",
        "offset": 0,
        "slot": "14",
        "type": "t_array(t_uint256)4_storage"
      },
      {
        "astId": 4756,
        "contract": "contracts/SafeNFT.sol:SafeNFT",
        "label": "safeToken",
        "offset": 0,
        "slot": "18",
        "type": "t_contract(ISafeToken)6586"
      },
      {
        "astId": 4759,
        "contract": "contracts/SafeNFT.sol:SafeNFT",
        "label": "safeVault",
        "offset": 0,
        "slot": "19",
        "type": "t_contract(ISafeVault)6607"
      },
      {
        "astId": 4762,
        "contract": "contracts/SafeNFT.sol:SafeNFT",
        "label": "usd",
        "offset": 0,
        "slot": "20",
        "type": "t_contract(IERC20)2651"
      },
      {
        "astId": 4769,
        "contract": "contracts/SafeNFT.sol:SafeNFT",
        "label": "priceDistributionOnMint",
        "offset": 0,
        "slot": "21",
        "type": "t_array(t_uint256)2_storage"
      },
      {
        "astId": 4773,
        "contract": "contracts/SafeNFT.sol:SafeNFT",
        "label": "profitDistribution",
        "offset": 0,
        "slot": "23",
        "type": "t_array(t_uint256)2_storage"
      },
      {
        "astId": 4775,
        "contract": "contracts/SafeNFT.sol:SafeNFT",
        "label": "referralShareForNFTPurchase",
        "offset": 0,
        "slot": "25",
        "type": "t_uint256"
      },
      {
        "astId": 4777,
        "contract": "contracts/SafeNFT.sol:SafeNFT",
        "label": "stabilizerWallet",
        "offset": 0,
        "slot": "26",
        "type": "t_address"
      },
      {
        "astId": 4779,
        "contract": "contracts/SafeNFT.sol:SafeNFT",
        "label": "presale",
        "offset": 20,
        "slot": "26",
        "type": "t_bool"
      },
      {
        "astId": 4781,
        "contract": "contracts/SafeNFT.sol:SafeNFT",
        "label": "currentDistributionId",
        "offset": 0,
        "slot": "27",
        "type": "t_uint256"
      },
      {
        "astId": 4785,
        "contract": "contracts/SafeNFT.sol:SafeNFT",
        "label": "distributionOfProfit",
        "offset": 0,
        "slot": "28",
        "type": "t_mapping(t_uint256,t_uint256)"
      },
      {
        "astId": 4791,
        "contract": "contracts/SafeNFT.sol:SafeNFT",
        "label": "distributionByTier",
        "offset": 0,
        "slot": "29",
        "type": "t_mapping(t_uint256,t_array(t_uint256)4_storage)"
      },
      {
        "astId": 4797,
        "contract": "contracts/SafeNFT.sol:SafeNFT",
        "label": "distributionTotalSupplySnapshot",
        "offset": 0,
        "slot": "30",
        "type": "t_mapping(t_uint256,t_array(t_uint256)4_storage)"
      },
      {
        "astId": 4805,
        "contract": "contracts/SafeNFT.sol:SafeNFT",
        "label": "alreadyDistributedAmount",
        "offset": 0,
        "slot": "31",
        "type": "t_mapping(t_uint256,t_mapping(t_uint256,t_mapping(t_address,t_uint256)))"
      },
      {
        "astId": 4811,
        "contract": "contracts/SafeNFT.sol:SafeNFT",
        "label": "alreadyDistributedAmountByTier",
        "offset": 0,
        "slot": "32",
        "type": "t_mapping(t_uint256,t_array(t_uint256)4_storage)"
      }
    ],
    "types": {
      "t_address": {
        "encoding": "inplace",
        "label": "address",
        "numberOfBytes": "20"
      },
      "t_array(t_address)2_storage": {
        "base": "t_address",
        "encoding": "inplace",
        "label": "address[2]",
        "numberOfBytes": "64"
      },
      "t_array(t_bytes32)dyn_storage": {
        "base": "t_bytes32",
        "encoding": "dynamic_array",
        "label": "bytes32[]",
        "numberOfBytes": "32"
      },
      "t_array(t_uint256)2_storage": {
        "base": "t_uint256",
        "encoding": "inplace",
        "label": "uint256[2]",
        "numberOfBytes": "64"
      },
      "t_array(t_uint256)4_storage": {
        "base": "t_uint256",
        "encoding": "inplace",
        "label": "uint256[4]",
        "numberOfBytes": "128"
      },
      "t_bool": {
        "encoding": "inplace",
        "label": "bool",
        "numberOfBytes": "1"
      },
      "t_bytes32": {
        "encoding": "inplace",
        "label": "bytes32",
        "numberOfBytes": "32"
      },
      "t_contract(IERC20)2651": {
        "encoding": "inplace",
        "label": "contract IERC20",
        "numberOfBytes": "20"
      },
      "t_contract(ISafeToken)6586": {
        "encoding": "inplace",
        "label": "contract ISafeToken",
        "numberOfBytes": "20"
      },
      "t_contract(ISafeVault)6607": {
        "encoding": "inplace",
        "label": "contract ISafeVault",
        "numberOfBytes": "20"
      },
      "t_mapping(t_address,t_bool)": {
        "encoding": "mapping",
        "key": "t_address",
        "label": "mapping(address => bool)",
        "numberOfBytes": "32",
        "value": "t_bool"
      },
      "t_mapping(t_address,t_mapping(t_address,t_bool))": {
        "encoding": "mapping",
        "key": "t_address",
        "label": "mapping(address => mapping(address => bool))",
        "numberOfBytes": "32",
        "value": "t_mapping(t_address,t_bool)"
      },
      "t_mapping(t_address,t_uint256)": {
        "encoding": "mapping",
        "key": "t_address",
        "label": "mapping(address => uint256)",
        "numberOfBytes": "32",
        "value": "t_uint256"
      },
      "t_mapping(t_bytes32,t_struct(AddressSet)4430_storage)": {
        "encoding": "mapping",
        "key": "t_bytes32",
        "label": "mapping(bytes32 => struct EnumerableSet.AddressSet)",
        "numberOfBytes": "32",
        "value": "t_struct(AddressSet)4430_storage"
      },
      "t_mapping(t_bytes32,t_struct(RoleData)19_storage)": {
        "encoding": "mapping",
        "key": "t_bytes32",
        "label": "mapping(bytes32 => struct AccessControl.RoleData)",
        "numberOfBytes": "32",
        "value": "t_struct(RoleData)19_storage"
      },
      "t_mapping(t_bytes32,t_uint256)": {
        "encoding": "mapping",
        "key": "t_bytes32",
        "label": "mapping(bytes32 => uint256)",
        "numberOfBytes": "32",
        "value": "t_uint256"
      },
      "t_mapping(t_uint256,t_array(t_uint256)4_storage)": {
        "encoding": "mapping",
        "key": "t_uint256",
        "label": "mapping(uint256 => uint256[4])",
        "numberOfBytes": "32",
        "value": "t_array(t_uint256)4_storage"
      },
      "t_mapping(t_uint256,t_mapping(t_address,t_uint256))": {
        "encoding": "mapping",
        "key": "t_uint256",
        "label": "mapping(uint256 => mapping(address => uint256))",
        "numberOfBytes": "32",
        "value": "t_mapping(t_address,t_uint256)"
      },
      "t_mapping(t_uint256,t_mapping(t_uint256,t_mapping(t_address,t_uint256)))": {
        "encoding": "mapping",
        "key": "t_uint256",
        "label": "mapping(uint256 => mapping(uint256 => mapping(address => uint256)))",
        "numberOfBytes": "32",
        "value": "t_mapping(t_uint256,t_mapping(t_address,t_uint256))"
      },
      "t_mapping(t_uint256,t_uint256)": {
        "encoding": "mapping",
        "key": "t_uint256",
        "label": "mapping(uint256 => uint256)",
        "numberOfBytes": "32",
        "value": "t_uint256"
      },
      "t_string_storage": {
        "encoding": "bytes",
        "label": "string",
        "numberOfBytes": "32"
      },
      "t_struct(AddressSet)4430_storage": {
        "encoding": "inplace",
        "label": "struct EnumerableSet.AddressSet",
        "members": [
          {
            "astId": 4429,
            "contract": "contracts/SafeNFT.sol:SafeNFT",
            "label": "_inner",
            "offset": 0,
            "slot": "0",
            "type": "t_struct(Set)4115_storage"
          }
        ],
        "numberOfBytes": "64"
      },
      "t_struct(RoleData)19_storage": {
        "encoding": "inplace",
        "label": "struct AccessControl.RoleData",
        "members": [
          {
            "astId": 16,
            "contract": "contracts/SafeNFT.sol:SafeNFT",
            "label": "members",
            "offset": 0,
            "slot": "0",
            "type": "t_mapping(t_address,t_bool)"
          },
          {
            "astId": 18,
            "contract": "contracts/SafeNFT.sol:SafeNFT",
            "label": "adminRole",
            "offset": 0,
            "slot": "1",
            "type": "t_bytes32"
          }
        ],
        "numberOfBytes": "64"
      },
      "t_struct(Set)4115_storage": {
        "encoding": "inplace",
        "label": "struct EnumerableSet.Set",
        "members": [
          {
            "astId": 4110,
            "contract": "contracts/SafeNFT.sol:SafeNFT",
            "label": "_values",
            "offset": 0,
            "slot": "0",
            "type": "t_array(t_bytes32)dyn_storage"
          },
          {
            "astId": 4114,
            "contract": "contracts/SafeNFT.sol:SafeNFT",
            "label": "_indexes",
            "offset": 0,
            "slot": "1",
            "type": "t_mapping(t_bytes32,t_uint256)"
          }
        ],
        "numberOfBytes": "64"
      },
      "t_uint256": {
        "encoding": "inplace",
        "label": "uint256",
        "numberOfBytes": "32"
      }
    }
  }
}