{
  "address": "0x83F19fd7Bd2f23dAEc5F3B613CfDFBC47fC60B1b",
  "abi": [
    {
      "inputs": [
        {
          "internalType": "address",
          "name": "_usdToken",
          "type": "address"
        },
        {
          "internalType": "address",
          "name": "_safeVault",
          "type": "address"
        },
        {
          "internalType": "address[4]",
          "name": "_wallets",
          "type": "address[4]"
        },
        {
          "internalType": "uint256[4]",
          "name": "_taxDistributionOnMint",
          "type": "uint256[4]"
        }
      ],
      "stateMutability": "nonpayable",
      "type": "constructor"
    },
    {
      "anonymous": false,
      "inputs": [
        {
          "indexed": true,
          "internalType": "address",
          "name": "owner",
          "type": "address"
        },
        {
          "indexed": true,
          "internalType": "address",
          "name": "spender",
          "type": "address"
        },
        {
          "indexed": false,
          "internalType": "uint256",
          "name": "value",
          "type": "uint256"
        }
      ],
      "name": "Approval",
      "type": "event"
    },
    {
      "anonymous": false,
      "inputs": [
        {
          "indexed": false,
          "internalType": "address",
          "name": "account",
          "type": "address"
        }
      ],
      "name": "Paused",
      "type": "event"
    },
    {
      "anonymous": false,
      "inputs": [
        {
          "indexed": true,
          "internalType": "address",
          "name": "from",
          "type": "address"
        },
        {
          "indexed": true,
          "internalType": "address",
          "name": "to",
          "type": "address"
        },
        {
          "indexed": false,
          "internalType": "uint256",
          "name": "value",
          "type": "uint256"
        }
      ],
      "name": "Transfer",
      "type": "event"
    },
    {
      "anonymous": false,
      "inputs": [
        {
          "indexed": false,
          "internalType": "address",
          "name": "account",
          "type": "address"
        }
      ],
      "name": "Unpaused",
      "type": "event"
    },
    {
      "inputs": [],
      "name": "BUY_TAX_PERCENT",
      "outputs": [
        {
          "internalType": "uint256",
          "name": "",
          "type": "uint256"
        }
      ],
      "stateMutability": "view",
      "type": "function"
    },
    {
      "inputs": [],
      "name": "SELL_TAX_PERCENT",
      "outputs": [
        {
          "internalType": "uint256",
          "name": "",
          "type": "uint256"
        }
      ],
      "stateMutability": "view",
      "type": "function"
    },
    {
      "inputs": [],
      "name": "WALLETS",
      "outputs": [
        {
          "internalType": "uint256",
          "name": "",
          "type": "uint256"
        }
      ],
      "stateMutability": "view",
      "type": "function"
    },
    {
      "inputs": [
        {
          "internalType": "address",
          "name": "",
          "type": "address"
        }
      ],
      "name": "admin",
      "outputs": [
        {
          "internalType": "uint256",
          "name": "",
          "type": "uint256"
        }
      ],
      "stateMutability": "view",
      "type": "function"
    },
    {
      "inputs": [
        {
          "internalType": "address",
          "name": "",
          "type": "address"
        },
        {
          "internalType": "address",
          "name": "",
          "type": "address"
        }
      ],
      "name": "allowance",
      "outputs": [
        {
          "internalType": "uint256",
          "name": "",
          "type": "uint256"
        }
      ],
      "stateMutability": "view",
      "type": "function"
    },
    {
      "inputs": [
        {
          "internalType": "address",
          "name": "usr",
          "type": "address"
        },
        {
          "internalType": "uint256",
          "name": "wad",
          "type": "uint256"
        }
      ],
      "name": "approve",
      "outputs": [
        {
          "internalType": "bool",
          "name": "",
          "type": "bool"
        }
      ],
      "stateMutability": "nonpayable",
      "type": "function"
    },
    {
      "inputs": [
        {
          "internalType": "address",
          "name": "",
          "type": "address"
        }
      ],
      "name": "balanceOf",
      "outputs": [
        {
          "internalType": "uint256",
          "name": "",
          "type": "uint256"
        }
      ],
      "stateMutability": "view",
      "type": "function"
    },
    {
      "inputs": [
        {
          "internalType": "address",
          "name": "",
          "type": "address"
        }
      ],
      "name": "blacklist",
      "outputs": [
        {
          "internalType": "bool",
          "name": "",
          "type": "bool"
        }
      ],
      "stateMutability": "view",
      "type": "function"
    },
    {
      "inputs": [
        {
          "internalType": "address",
          "name": "_user",
          "type": "address"
        },
        {
          "internalType": "uint256",
          "name": "_amount",
          "type": "uint256"
        }
      ],
      "name": "burn",
      "outputs": [],
      "stateMutability": "nonpayable",
      "type": "function"
    },
    {
      "inputs": [
        {
          "internalType": "uint256",
          "name": "_safeTokensToBuy",
          "type": "uint256"
        }
      ],
      "name": "buy",
      "outputs": [],
      "stateMutability": "nonpayable",
      "type": "function"
    },
    {
      "inputs": [],
      "name": "decimals",
      "outputs": [
        {
          "internalType": "uint8",
          "name": "",
          "type": "uint8"
        }
      ],
      "stateMutability": "view",
      "type": "function"
    },
    {
      "inputs": [
        {
          "internalType": "address",
          "name": "guy",
          "type": "address"
        }
      ],
      "name": "deny",
      "outputs": [],
      "stateMutability": "nonpayable",
      "type": "function"
    },
    {
      "inputs": [],
      "name": "getUsdReserves",
      "outputs": [
        {
          "internalType": "uint256",
          "name": "",
          "type": "uint256"
        }
      ],
      "stateMutability": "view",
      "type": "function"
    },
    {
      "inputs": [],
      "name": "getWallets",
      "outputs": [
        {
          "internalType": "address[4]",
          "name": "",
          "type": "address[4]"
        }
      ],
      "stateMutability": "view",
      "type": "function"
    },
    {
      "inputs": [
        {
          "internalType": "address",
          "name": "_usdToken",
          "type": "address"
        },
        {
          "internalType": "address",
          "name": "_safeVault",
          "type": "address"
        },
        {
          "internalType": "address[4]",
          "name": "_wallets",
          "type": "address[4]"
        },
        {
          "internalType": "uint256[4]",
          "name": "_taxDistributionOnMint",
          "type": "uint256[4]"
        }
      ],
      "name": "initialize",
      "outputs": [],
      "stateMutability": "nonpayable",
      "type": "function"
    },
    {
      "inputs": [
        {
          "internalType": "address",
          "name": "_user",
          "type": "address"
        },
        {
          "internalType": "uint256",
          "name": "_amount",
          "type": "uint256"
        }
      ],
      "name": "mint",
      "outputs": [],
      "stateMutability": "nonpayable",
      "type": "function"
    },
    {
      "inputs": [],
      "name": "name",
      "outputs": [
        {
          "internalType": "string",
          "name": "",
          "type": "string"
        }
      ],
      "stateMutability": "view",
      "type": "function"
    },
    {
      "inputs": [],
      "name": "paused",
      "outputs": [
        {
          "internalType": "bool",
          "name": "",
          "type": "bool"
        }
      ],
      "stateMutability": "view",
      "type": "function"
    },
    {
      "inputs": [],
      "name": "price",
      "outputs": [
        {
          "internalType": "uint256",
          "name": "",
          "type": "uint256"
        }
      ],
      "stateMutability": "view",
      "type": "function"
    },
    {
      "inputs": [
        {
          "internalType": "address",
          "name": "guy",
          "type": "address"
        }
      ],
      "name": "rely",
      "outputs": [],
      "stateMutability": "nonpayable",
      "type": "function"
    },
    {
      "inputs": [],
      "name": "safeVault",
      "outputs": [
        {
          "internalType": "contract ISafeVault",
          "name": "",
          "type": "address"
        }
      ],
      "stateMutability": "view",
      "type": "function"
    },
    {
      "inputs": [
        {
          "internalType": "uint256",
          "name": "_safeTokensToSell",
          "type": "uint256"
        }
      ],
      "name": "sell",
      "outputs": [],
      "stateMutability": "nonpayable",
      "type": "function"
    },
    {
      "inputs": [],
      "name": "symbol",
      "outputs": [
        {
          "internalType": "string",
          "name": "",
          "type": "string"
        }
      ],
      "stateMutability": "view",
      "type": "function"
    },
    {
      "inputs": [
        {
          "internalType": "uint256",
          "name": "",
          "type": "uint256"
        }
      ],
      "name": "taxDistributionOnMint",
      "outputs": [
        {
          "internalType": "uint256",
          "name": "",
          "type": "uint256"
        }
      ],
      "stateMutability": "view",
      "type": "function"
    },
    {
      "inputs": [],
      "name": "totalSupply",
      "outputs": [
        {
          "internalType": "uint256",
          "name": "",
          "type": "uint256"
        }
      ],
      "stateMutability": "view",
      "type": "function"
    },
    {
      "inputs": [
        {
          "internalType": "address",
          "name": "dst",
          "type": "address"
        },
        {
          "internalType": "uint256",
          "name": "wad",
          "type": "uint256"
        }
      ],
      "name": "transfer",
      "outputs": [
        {
          "internalType": "bool",
          "name": "",
          "type": "bool"
        }
      ],
      "stateMutability": "nonpayable",
      "type": "function"
    },
    {
      "inputs": [
        {
          "internalType": "address",
          "name": "src",
          "type": "address"
        },
        {
          "internalType": "address",
          "name": "dst",
          "type": "address"
        },
        {
          "internalType": "uint256",
          "name": "wad",
          "type": "uint256"
        }
      ],
      "name": "transferFrom",
      "outputs": [
        {
          "internalType": "bool",
          "name": "",
          "type": "bool"
        }
      ],
      "stateMutability": "nonpayable",
      "type": "function"
    },
    {
      "inputs": [],
      "name": "usd",
      "outputs": [
        {
          "internalType": "contract IERC20",
          "name": "",
          "type": "address"
        }
      ],
      "stateMutability": "view",
      "type": "function"
    },
    {
      "inputs": [],
      "name": "version",
      "outputs": [
        {
          "internalType": "string",
          "name": "",
          "type": "string"
        }
      ],
      "stateMutability": "view",
      "type": "function"
    }
  ],
  "transactionHash": "0xf7dbccf788405c25d038950358bb1b6d98d7b730572ea3a506dc6649c4bfdbc7",
  "args": [
    "0xeD24FC36d5Ee211Ea25A80239Fb8C4Cfd80f12Ee",
    "0x3Eca9FeB89C04F5B75bDAf72961f97B4D66fE68e",
    [
      "0xBF89e2e63e471cC29Da80bcD661342A9935982A8",
      "0xf2c1FE530d9c1686950F33d1B47d8B9474D92965",
      "0x9F397Baa90A0968E87351Ed7D45797EDF9f9037F",
      "0xC21faFFBCA8Db73E1c0dB4a8B31fa6162DB22fd8"
    ],
    [
      5000,
      2950,
      200,
      50
    ]
  ],
  "numDeployments": 1,
  "solcInputHash": "1038d65937ed1b548f30367c3b682cf6",
  "bytecode": "0x60806040523480156200001157600080fd5b5060405162003b8438038062003b84833981810160405281019062000037919062000709565b60008060006101000a81548160ff02191690831515021790555062000065848484846200006f60201b60201c565b505050506200083a565b6000620000816200031c60201b60201c565b9050600073ffffffffffffffffffffffffffffffffffffffff168173ffffffffffffffffffffffffffffffffffffffff1603620000f55773ffffffffffffffffffffffffffffffffffffffff7fb53127684a568b3173ae13b9f8a6016e243e63b6e8ee1178d6a717850b5d6103556200012f565b8073ffffffffffffffffffffffffffffffffffffffff163373ffffffffffffffffffffffffffffffffffffffff16146200012e57600080fd5b5b600160036000620001456200034560201b60201c565b73ffffffffffffffffffffffffffffffffffffffff1673ffffffffffffffffffffffffffffffffffffffff1681526020019081526020016000208190555083600f60006101000a81548173ffffffffffffffffffffffffffffffffffffffff021916908373ffffffffffffffffffffffffffffffffffffffff16021790555084600e60006101000a81548173ffffffffffffffffffffffffffffffffffffffff021916908373ffffffffffffffffffffffffffffffffffffffff160217905550826006906004620002189291906200034d565b5081600a9060046200022c929190620003cf565b50600e60009054906101000a900473ffffffffffffffffffffffffffffffffffffffff1673ffffffffffffffffffffffffffffffffffffffff1663095ea7b3600f60009054906101000a900473ffffffffffffffffffffffffffffffffffffffff167fffffffffffffffffffffffffffffffffffffffffffffffffffffffffffffffff6040518363ffffffff1660e01b8152600401620002ce9291906200079e565b6020604051808303816000875af1158015620002ee573d6000803e3d6000fd5b505050506040513d601f19601f8201168201806040525081019062000314919062000808565b505050505050565b60007fb53127684a568b3173ae13b9f8a6016e243e63b6e8ee1178d6a717850b5d610354905090565b600033905090565b8260048101928215620003bc579160200282015b82811115620003bb5782518260006101000a81548173ffffffffffffffffffffffffffffffffffffffff021916908373ffffffffffffffffffffffffffffffffffffffff1602179055509160200191906001019062000361565b5b509050620003cb919062000414565b5090565b826004810192821562000401579160200282015b8281111562000400578251825591602001919060010190620003e3565b5b50905062000410919062000414565b5090565b5b808211156200042f57600081600090555060010162000415565b5090565b6000604051905090565b600080fd5b600073ffffffffffffffffffffffffffffffffffffffff82169050919050565b60006200046f8262000442565b9050919050565b620004818162000462565b81146200048d57600080fd5b50565b600081519050620004a18162000476565b92915050565b600080fd5b6000601f19601f8301169050919050565b7f4e487b7100000000000000000000000000000000000000000000000000000000600052604160045260246000fd5b620004f782620004ac565b810181811067ffffffffffffffff82111715620005195762000518620004bd565b5b80604052505050565b60006200052e62000433565b90506200053c8282620004ec565b919050565b600067ffffffffffffffff8211156200055f576200055e620004bd565b5b602082029050919050565b600080fd5b600062000586620005808462000541565b62000522565b90508060208402830185811115620005a357620005a26200056a565b5b835b81811015620005d05780620005bb888262000490565b845260208401935050602081019050620005a5565b5050509392505050565b600082601f830112620005f257620005f1620004a7565b5b6004620006018482856200056f565b91505092915050565b600067ffffffffffffffff821115620006285762000627620004bd565b5b602082029050919050565b6000819050919050565b620006488162000633565b81146200065457600080fd5b50565b60008151905062000668816200063d565b92915050565b6000620006856200067f846200060a565b62000522565b90508060208402830185811115620006a257620006a16200056a565b5b835b81811015620006cf5780620006ba888262000657565b845260208401935050602081019050620006a4565b5050509392505050565b600082601f830112620006f157620006f0620004a7565b5b6004620007008482856200066e565b91505092915050565b60008060008061014085870312156200072757620007266200043d565b5b6000620007378782880162000490565b94505060206200074a8782880162000490565b93505060406200075d87828801620005da565b92505060c06200077087828801620006d9565b91505092959194509250565b620007878162000462565b82525050565b620007988162000633565b82525050565b6000604082019050620007b560008301856200077c565b620007c460208301846200078d565b9392505050565b60008115159050919050565b620007e281620007cb565b8114620007ee57600080fd5b50565b6000815190506200080281620007d7565b92915050565b6000602082840312156200082157620008206200043d565b5b60006200083184828501620007f1565b91505092915050565b61333a806200084a6000396000f3fe608060405234801561001057600080fd5b50600436106101cf5760003560e01c80638d3bd55b11610104578063b416d1a3116100a2578063dd62ed3e11610071578063dd62ed3e14610522578063deef94de14610552578063e4849b3214610570578063f9f92be41461058c576101cf565b8063b416d1a3146104ac578063d63a6ccd146104ca578063d96a094a146104e8578063db7a460514610504576101cf565b80639c52a7f1116100de5780639c52a7f1146104265780639dc29fac14610442578063a035b1fe1461045e578063a9059cbb1461047c576101cf565b80638d3bd55b146103cc57806395d89b41146103ea5780639baaa20f14610408576101cf565b80634aa615641161017157806363a846f81161014b57806363a846f81461033257806365fae35e1461036257806370a082311461037e5780638ce8e9d7146103ae576101cf565b80634aa61564146102da57806354fd4d50146102f65780635c975abb14610314576101cf565b806318160ddd116101ad57806318160ddd1461025257806323b872dd14610270578063313ce567146102a057806340c10f19146102be576101cf565b806306fdde03146101d4578063095ea7b3146101f2578063102fd7ec14610222575b600080fd5b6101dc6105bc565b6040516101e991906126f3565b60405180910390f35b61020c600480360381019061020791906127b8565b6105f5565b6040516102199190612813565b60405180910390f35b61023c6004803603810190610237919061282e565b6106f5565b604051610249919061286a565b60405180910390f35b61025a610710565b604051610267919061286a565b60405180910390f35b61028a60048036038101906102859190612885565b610716565b6040516102979190612813565b60405180910390f35b6102a8610d08565b6040516102b591906128f4565b60405180910390f35b6102d860048036038101906102d391906127b8565b610d0d565b005b6102f460048036038101906102ef9190612af6565b610da4565b005b6102fe611035565b60405161030b91906126f3565b60405180910390f35b61031c61106e565b6040516103299190612813565b60405180910390f35b61034c60048036038101906103479190612b5e565b611084565b604051610359919061286a565b60405180910390f35b61037c60048036038101906103779190612b5e565b61109c565b005b61039860048036038101906103939190612b5e565b61116d565b6040516103a5919061286a565b60405180910390f35b6103b6611185565b6040516103c3919061286a565b60405180910390f35b6103d461118a565b6040516103e1919061286a565b60405180910390f35b6103f261118f565b6040516103ff91906126f3565b60405180910390f35b6104106111c8565b60405161041d919061286a565b60405180910390f35b610440600480360381019061043b9190612b5e565b611306565b005b61045c600480360381019061045791906127b8565b6113d7565b005b61046661146e565b604051610473919061286a565b60405180910390f35b610496600480360381019061049191906127b8565b6114b5565b6040516104a39190612813565b60405180910390f35b6104b46114d1565b6040516104c1919061286a565b60405180910390f35b6104d26114d6565b6040516104df9190612bea565b60405180910390f35b61050260048036038101906104fd919061282e565b6114fc565b005b61050c6119fb565b6040516105199190612cb0565b60405180910390f35b61053c60048036038101906105379190612ccb565b611a7c565b604051610549919061286a565b60405180910390f35b61055a611aa1565b6040516105679190612d2c565b60405180910390f35b61058a6004803603810190610585919061282e565b611ac7565b005b6105a660048036038101906105a19190612b5e565b611d7e565b6040516105b39190612813565b60405180910390f35b6040518060400160405280601181526020017f53616665205969656c647320546f6b656e00000000000000000000000000000081525081565b60008160056000610604611d9e565b73ffffffffffffffffffffffffffffffffffffffff1673ffffffffffffffffffffffffffffffffffffffff16815260200190815260200160002060008573ffffffffffffffffffffffffffffffffffffffff1673ffffffffffffffffffffffffffffffffffffffff168152602001908152602001600020819055508273ffffffffffffffffffffffffffffffffffffffff1661069e611d9e565b73ffffffffffffffffffffffffffffffffffffffff167f8c5be1e5ebec7d5bd14f71427d1e84f3dd0314c0f7b2291e5b200ac8c7c3b925846040516106e3919061286a565b60405180910390a36001905092915050565b600a816004811061070557600080fd5b016000915090505481565b60015481565b600061072061106e565b15610760576040517f08c379a000000000000000000000000000000000000000000000000000000000815260040161075790612d93565b60405180910390fd5b600073ffffffffffffffffffffffffffffffffffffffff168473ffffffffffffffffffffffffffffffffffffffff1614806107c75750600073ffffffffffffffffffffffffffffffffffffffff168373ffffffffffffffffffffffffffffffffffffffff16145b610806576040517f08c379a00000000000000000000000000000000000000000000000000000000081526004016107fd90612dff565b60405180910390fd5b81600460008673ffffffffffffffffffffffffffffffffffffffff1673ffffffffffffffffffffffffffffffffffffffff168152602001908152602001600020541015610888576040517f08c379a000000000000000000000000000000000000000000000000000000000815260040161087f90612e6b565b60405180910390fd5b600260008573ffffffffffffffffffffffffffffffffffffffff1673ffffffffffffffffffffffffffffffffffffffff16815260200190815260200160002060009054906101000a900460ff1615801561092c5750600260008473ffffffffffffffffffffffffffffffffffffffff1673ffffffffffffffffffffffffffffffffffffffff16815260200190815260200160002060009054906101000a900460ff16155b61096b576040517f08c379a000000000000000000000000000000000000000000000000000000000815260040161096290612ed7565b60405180910390fd5b610973611d9e565b73ffffffffffffffffffffffffffffffffffffffff168473ffffffffffffffffffffffffffffffffffffffff1614610b805781600560008673ffffffffffffffffffffffffffffffffffffffff1673ffffffffffffffffffffffffffffffffffffffff16815260200190815260200160002060006109ef611d9e565b73ffffffffffffffffffffffffffffffffffffffff1673ffffffffffffffffffffffffffffffffffffffff168152602001908152602001600020541015610a6b576040517f08c379a0000000000000000000000000000000000000000000000000000000008152600401610a6290612f43565b60405180910390fd5b610af8600560008673ffffffffffffffffffffffffffffffffffffffff1673ffffffffffffffffffffffffffffffffffffffff1681526020019081526020016000206000610ab7611d9e565b73ffffffffffffffffffffffffffffffffffffffff1673ffffffffffffffffffffffffffffffffffffffff1681526020019081526020016000205483611da6565b600560008673ffffffffffffffffffffffffffffffffffffffff1673ffffffffffffffffffffffffffffffffffffffff1681526020019081526020016000206000610b41611d9e565b73ffffffffffffffffffffffffffffffffffffffff1673ffffffffffffffffffffffffffffffffffffffff168152602001908152602001600020819055505b610bc9600460008673ffffffffffffffffffffffffffffffffffffffff1673ffffffffffffffffffffffffffffffffffffffff1681526020019081526020016000205483611da6565b600460008673ffffffffffffffffffffffffffffffffffffffff1673ffffffffffffffffffffffffffffffffffffffff16815260200190815260200160002081905550610c55600460008573ffffffffffffffffffffffffffffffffffffffff1673ffffffffffffffffffffffffffffffffffffffff1681526020019081526020016000205483611dc9565b600460008573ffffffffffffffffffffffffffffffffffffffff1673ffffffffffffffffffffffffffffffffffffffff168152602001908152602001600020819055508273ffffffffffffffffffffffffffffffffffffffff168473ffffffffffffffffffffffffffffffffffffffff167fddf252ad1be2c89b69c2b068fc378daa952ba7f163c4a11628f55a4df523b3ef84604051610cf5919061286a565b60405180910390a3600190509392505050565b601281565b600160036000610d1b611d9e565b73ffffffffffffffffffffffffffffffffffffffff1673ffffffffffffffffffffffffffffffffffffffff1681526020019081526020016000205414610d96576040517f08c379a0000000000000000000000000000000000000000000000000000000008152600401610d8d90612faf565b60405180910390fd5b610da08282611dec565b5050565b6000610dae611ef4565b9050600073ffffffffffffffffffffffffffffffffffffffff168173ffffffffffffffffffffffffffffffffffffffff1603610e205773ffffffffffffffffffffffffffffffffffffffff7fb53127684a568b3173ae13b9f8a6016e243e63b6e8ee1178d6a717850b5d610355610e59565b8073ffffffffffffffffffffffffffffffffffffffff163373ffffffffffffffffffffffffffffffffffffffff1614610e5857600080fd5b5b600160036000610e67611d9e565b73ffffffffffffffffffffffffffffffffffffffff1673ffffffffffffffffffffffffffffffffffffffff1681526020019081526020016000208190555083600f60006101000a81548173ffffffffffffffffffffffffffffffffffffffff021916908373ffffffffffffffffffffffffffffffffffffffff16021790555084600e60006101000a81548173ffffffffffffffffffffffffffffffffffffffff021916908373ffffffffffffffffffffffffffffffffffffffff160217905550826006906004610f38929190612567565b5081600a906004610f4a9291906125e4565b50600e60009054906101000a900473ffffffffffffffffffffffffffffffffffffffff1673ffffffffffffffffffffffffffffffffffffffff1663095ea7b3600f60009054906101000a900473ffffffffffffffffffffffffffffffffffffffff167fffffffffffffffffffffffffffffffffffffffffffffffffffffffffffffffff6040518363ffffffff1660e01b8152600401610fea929190612fde565b6020604051808303816000875af1158015611009573d6000803e3d6000fd5b505050506040513d601f19601f8201168201806040525081019061102d9190613033565b505050505050565b6040518060400160405280600181526020017f310000000000000000000000000000000000000000000000000000000000000081525081565b60008060009054906101000a900460ff16905090565b60036020528060005260406000206000915090505481565b6001600360006110aa611d9e565b73ffffffffffffffffffffffffffffffffffffffff1673ffffffffffffffffffffffffffffffffffffffff1681526020019081526020016000205414611125576040517f08c379a000000000000000000000000000000000000000000000000000000000815260040161111c90612faf565b60405180910390fd5b6001600360008373ffffffffffffffffffffffffffffffffffffffff1673ffffffffffffffffffffffffffffffffffffffff1681526020019081526020016000208190555050565b60046020528060005260406000206000915090505481565b601981565b600481565b6040518060400160405280600481526020017f534146450000000000000000000000000000000000000000000000000000000081525081565b6000600f60009054906101000a900473ffffffffffffffffffffffffffffffffffffffff1673ffffffffffffffffffffffffffffffffffffffff166318160ddd6040518163ffffffff1660e01b8152600401602060405180830381865afa158015611237573d6000803e3d6000fd5b505050506040513d601f19601f8201168201806040525081019061125b9190613075565b600e60009054906101000a900473ffffffffffffffffffffffffffffffffffffffff1673ffffffffffffffffffffffffffffffffffffffff166370a08231306040518263ffffffff1660e01b81526004016112b691906130a2565b602060405180830381865afa1580156112d3573d6000803e3d6000fd5b505050506040513d601f19601f820116820180604052508101906112f79190613075565b61130191906130ec565b905090565b600160036000611314611d9e565b73ffffffffffffffffffffffffffffffffffffffff1673ffffffffffffffffffffffffffffffffffffffff168152602001908152602001600020541461138f576040517f08c379a000000000000000000000000000000000000000000000000000000000815260040161138690612faf565b60405180910390fd5b6000600360008373ffffffffffffffffffffffffffffffffffffffff1673ffffffffffffffffffffffffffffffffffffffff1681526020019081526020016000208190555050565b6001600360006113e5611d9e565b73ffffffffffffffffffffffffffffffffffffffff1673ffffffffffffffffffffffffffffffffffffffff1681526020019081526020016000205414611460576040517f08c379a000000000000000000000000000000000000000000000000000000000815260040161145790612faf565b60405180910390fd5b61146a8282611f1d565b5050565b600080600154146114a657600154670de0b6b3a764000061148d6111c8565b6114979190613120565b6114a19190613191565b6114b0565b670de0b6b3a76400005b905090565b60006114c96114c2611d9e565b8484610716565b905092915050565b601981565b600e60009054906101000a900473ffffffffffffffffffffffffffffffffffffffff1681565b61153b6040518060400160405280601581526020017f627579696e67202573205341464520746f6b656e7300000000000000000000008152508261236d565b6000670de0b6b3a764000061154e61146e565b836115599190613120565b6115639190613191565b90506115a46040518060400160405280601881526020017f75736450726963654f66546f6b656e73546f42757920257300000000000000008152508261236d565b60006127106019836115b69190613120565b6115c09190613191565b90506116016040518060400160405280600981526020017f75736454617820257300000000000000000000000000000000000000000000008152508261236d565b6000818361160f91906130ec565b90506116506040518060400160405280600d81526020017f757364546f5370656e64202573000000000000000000000000000000000000008152508261236d565b61166161165b611d9e565b85611dec565b61169f6040518060400160405280600681526020017f6d696e7465640000000000000000000000000000000000000000000000000000815250612409565b6116de6040518060400160405280601081526020017f6164647265737328746869732920257300000000000000000000000000000000815250306124a2565b600e60009054906101000a900473ffffffffffffffffffffffffffffffffffffffff1673ffffffffffffffffffffffffffffffffffffffff166323b872dd611724611d9e565b30846040518463ffffffff1660e01b8152600401611744939291906131c2565b6020604051808303816000875af1158015611763573d6000803e3d6000fd5b505050506040513d601f19601f820116820180604052508101906117879190613033565b506117c66040518060400160405280600f81526020017f757364207472616e736665727265640000000000000000000000000000000000815250612409565b600f60009054906101000a900473ffffffffffffffffffffffffffffffffffffffff1673ffffffffffffffffffffffffffffffffffffffff166347e7ef2430856040518363ffffffff1660e01b8152600401611823929190612fde565b600060405180830381600087803b15801561183d57600080fd5b505af1158015611851573d6000803e3d6000fd5b505050506118936040518060400160405280601681526020017f6465706f736974656420746f20746865207661756c7400000000000000000000815250612409565b60005b60048110156119f4576118de6040518060400160405280601981526020017f7472616e7366657272696e6720746f2077616c6c6574202573000000000000008152508261236d565b600e60009054906101000a900473ffffffffffffffffffffffffffffffffffffffff1673ffffffffffffffffffffffffffffffffffffffff1663a9059cbb600683600481106119305761192f6131f9565b5b0160009054906101000a900473ffffffffffffffffffffffffffffffffffffffff16612710600a8560048110611969576119686131f9565b5b0154876119769190613120565b6119809190613191565b6040518363ffffffff1660e01b815260040161199d929190612fde565b6020604051808303816000875af11580156119bc573d6000803e3d6000fd5b505050506040513d601f19601f820116820180604052508101906119e09190613033565b5080806119ec90613228565b915050611896565b5050505050565b611a03612624565b6006600480602002604051908101604052809291908260048015611a72576020028201915b8160009054906101000a900473ffffffffffffffffffffffffffffffffffffffff1673ffffffffffffffffffffffffffffffffffffffff1681526020019060010190808311611a28575b5050505050905090565b6005602052816000526040600020602052806000526040600020600091509150505481565b600f60009054906101000a900473ffffffffffffffffffffffffffffffffffffffff1681565b6000670de0b6b3a7640000611ada61146e565b83611ae59190613120565b611aef9190613191565b90506000612710601983611b039190613120565b611b0d9190613191565b905060008183611b1d91906130ec565b9050611b30611b2a611d9e565b85611f1d565b600f60009054906101000a900473ffffffffffffffffffffffffffffffffffffffff1673ffffffffffffffffffffffffffffffffffffffff1663f3fef3a3611b76611d9e565b856040518363ffffffff1660e01b8152600401611b94929190612fde565b600060405180830381600087803b158015611bae57600080fd5b505af1158015611bc2573d6000803e3d6000fd5b50505050600f60009054906101000a900473ffffffffffffffffffffffffffffffffffffffff1673ffffffffffffffffffffffffffffffffffffffff1663f3fef3a330846040518363ffffffff1660e01b8152600401611c23929190612fde565b600060405180830381600087803b158015611c3d57600080fd5b505af1158015611c51573d6000803e3d6000fd5b5050505060005b6004811015611d7757600e60009054906101000a900473ffffffffffffffffffffffffffffffffffffffff1673ffffffffffffffffffffffffffffffffffffffff1663a9059cbb60068360048110611cb357611cb26131f9565b5b0160009054906101000a900473ffffffffffffffffffffffffffffffffffffffff16612710600a8560048110611cec57611ceb6131f9565b5b015487611cf99190613120565b611d039190613191565b6040518363ffffffff1660e01b8152600401611d20929190612fde565b6020604051808303816000875af1158015611d3f573d6000803e3d6000fd5b505050506040513d601f19601f82011682018060405250810190611d639190613033565b508080611d6f90613228565b915050611c58565b5050505050565b60026020528060005260406000206000915054906101000a900460ff1681565b600033905090565b6000828284611db59190613270565b9150811115611dc357600080fd5b92915050565b6000828284611dd891906130ec565b9150811015611de657600080fd5b92915050565b611e35600460008473ffffffffffffffffffffffffffffffffffffffff1673ffffffffffffffffffffffffffffffffffffffff1681526020019081526020016000205482611dc9565b600460008473ffffffffffffffffffffffffffffffffffffffff1673ffffffffffffffffffffffffffffffffffffffff16815260200190815260200160002081905550611e8460015482611dc9565b6001819055508173ffffffffffffffffffffffffffffffffffffffff16600073ffffffffffffffffffffffffffffffffffffffff167fddf252ad1be2c89b69c2b068fc378daa952ba7f163c4a11628f55a4df523b3ef83604051611ee8919061286a565b60405180910390a35050565b60007fb53127684a568b3173ae13b9f8a6016e243e63b6e8ee1178d6a717850b5d610354905090565b80600460008473ffffffffffffffffffffffffffffffffffffffff1673ffffffffffffffffffffffffffffffffffffffff168152602001908152602001600020541015611f9f576040517f08c379a0000000000000000000000000000000000000000000000000000000008152600401611f9690612e6b565b60405180910390fd5b611fa7611d9e565b73ffffffffffffffffffffffffffffffffffffffff168273ffffffffffffffffffffffffffffffffffffffff161415801561208557507fffffffffffffffffffffffffffffffffffffffffffffffffffffffffffffffff600560008473ffffffffffffffffffffffffffffffffffffffff1673ffffffffffffffffffffffffffffffffffffffff1681526020019081526020016000206000612047611d9e565b73ffffffffffffffffffffffffffffffffffffffff1673ffffffffffffffffffffffffffffffffffffffff1681526020019081526020016000205414155b156122655780600560008473ffffffffffffffffffffffffffffffffffffffff1673ffffffffffffffffffffffffffffffffffffffff16815260200190815260200160002060006120d4611d9e565b73ffffffffffffffffffffffffffffffffffffffff1673ffffffffffffffffffffffffffffffffffffffff168152602001908152602001600020541015612150576040517f08c379a000000000000000000000000000000000000000000000000000000000815260040161214790612f43565b60405180910390fd5b6121dd600560008473ffffffffffffffffffffffffffffffffffffffff1673ffffffffffffffffffffffffffffffffffffffff168152602001908152602001600020600061219c611d9e565b73ffffffffffffffffffffffffffffffffffffffff1673ffffffffffffffffffffffffffffffffffffffff1681526020019081526020016000205482611da6565b600560008473ffffffffffffffffffffffffffffffffffffffff1673ffffffffffffffffffffffffffffffffffffffff1681526020019081526020016000206000612226611d9e565b73ffffffffffffffffffffffffffffffffffffffff1673ffffffffffffffffffffffffffffffffffffffff168152602001908152602001600020819055505b6122ae600460008473ffffffffffffffffffffffffffffffffffffffff1673ffffffffffffffffffffffffffffffffffffffff1681526020019081526020016000205482611da6565b600460008473ffffffffffffffffffffffffffffffffffffffff1673ffffffffffffffffffffffffffffffffffffffff168152602001908152602001600020819055506122fd60015482611da6565b600181905550600073ffffffffffffffffffffffffffffffffffffffff168273ffffffffffffffffffffffffffffffffffffffff167fddf252ad1be2c89b69c2b068fc378daa952ba7f163c4a11628f55a4df523b3ef83604051612361919061286a565b60405180910390a35050565b61240582826040516024016123839291906132a4565b6040516020818303038152906040527fb60e72cc000000000000000000000000000000000000000000000000000000007bffffffffffffffffffffffffffffffffffffffffffffffffffffffff19166020820180517bffffffffffffffffffffffffffffffffffffffffffffffffffffffff838183161783525050505061253e565b5050565b61249f8160405160240161241d91906126f3565b6040516020818303038152906040527f41304fac000000000000000000000000000000000000000000000000000000007bffffffffffffffffffffffffffffffffffffffffffffffffffffffff19166020820180517bffffffffffffffffffffffffffffffffffffffffffffffffffffffff838183161783525050505061253e565b50565b61253a82826040516024016124b89291906132d4565b6040516020818303038152906040527f319af333000000000000000000000000000000000000000000000000000000007bffffffffffffffffffffffffffffffffffffffffffffffffffffffff19166020820180517bffffffffffffffffffffffffffffffffffffffffffffffffffffffff838183161783525050505061253e565b5050565b60008151905060006a636f6e736f6c652e6c6f679050602083016000808483855afa5050505050565b82600481019282156125d3579160200282015b828111156125d25782518260006101000a81548173ffffffffffffffffffffffffffffffffffffffff021916908373ffffffffffffffffffffffffffffffffffffffff1602179055509160200191906001019061257a565b5b5090506125e09190612646565b5090565b8260048101928215612613579160200282015b828111156126125782518255916020019190600101906125f7565b5b5090506126209190612646565b5090565b6040518060800160405280600490602082028036833780820191505090505090565b5b8082111561265f576000816000905550600101612647565b5090565b600081519050919050565b600082825260208201905092915050565b60005b8381101561269d578082015181840152602081019050612682565b60008484015250505050565b6000601f19601f8301169050919050565b60006126c582612663565b6126cf818561266e565b93506126df81856020860161267f565b6126e8816126a9565b840191505092915050565b6000602082019050818103600083015261270d81846126ba565b905092915050565b6000604051905090565b600080fd5b600073ffffffffffffffffffffffffffffffffffffffff82169050919050565b600061274f82612724565b9050919050565b61275f81612744565b811461276a57600080fd5b50565b60008135905061277c81612756565b92915050565b6000819050919050565b61279581612782565b81146127a057600080fd5b50565b6000813590506127b28161278c565b92915050565b600080604083850312156127cf576127ce61271f565b5b60006127dd8582860161276d565b92505060206127ee858286016127a3565b9150509250929050565b60008115159050919050565b61280d816127f8565b82525050565b60006020820190506128286000830184612804565b92915050565b6000602082840312156128445761284361271f565b5b6000612852848285016127a3565b91505092915050565b61286481612782565b82525050565b600060208201905061287f600083018461285b565b92915050565b60008060006060848603121561289e5761289d61271f565b5b60006128ac8682870161276d565b93505060206128bd8682870161276d565b92505060406128ce868287016127a3565b9150509250925092565b600060ff82169050919050565b6128ee816128d8565b82525050565b600060208201905061290960008301846128e5565b92915050565b600080fd5b7f4e487b7100000000000000000000000000000000000000000000000000000000600052604160045260246000fd5b61294c826126a9565b810181811067ffffffffffffffff8211171561296b5761296a612914565b5b80604052505050565b600061297e612715565b905061298a8282612943565b919050565b600067ffffffffffffffff8211156129aa576129a9612914565b5b602082029050919050565b600080fd5b60006129cd6129c88461298f565b612974565b905080602084028301858111156129e7576129e66129b5565b5b835b81811015612a1057806129fc888261276d565b8452602084019350506020810190506129e9565b5050509392505050565b600082601f830112612a2f57612a2e61290f565b5b6004612a3c8482856129ba565b91505092915050565b600067ffffffffffffffff821115612a6057612a5f612914565b5b602082029050919050565b6000612a7e612a7984612a45565b612974565b90508060208402830185811115612a9857612a976129b5565b5b835b81811015612ac15780612aad88826127a3565b845260208401935050602081019050612a9a565b5050509392505050565b600082601f830112612ae057612adf61290f565b5b6004612aed848285612a6b565b91505092915050565b6000806000806101408587031215612b1157612b1061271f565b5b6000612b1f8782880161276d565b9450506020612b308782880161276d565b9350506040612b4187828801612a1a565b92505060c0612b5287828801612acb565b91505092959194509250565b600060208284031215612b7457612b7361271f565b5b6000612b828482850161276d565b91505092915050565b6000819050919050565b6000612bb0612bab612ba684612724565b612b8b565b612724565b9050919050565b6000612bc282612b95565b9050919050565b6000612bd482612bb7565b9050919050565b612be481612bc9565b82525050565b6000602082019050612bff6000830184612bdb565b92915050565b600060049050919050565b600081905092915050565b6000819050919050565b612c2e81612744565b82525050565b6000612c408383612c25565b60208301905092915050565b6000602082019050919050565b612c6281612c05565b612c6c8184612c10565b9250612c7782612c1b565b8060005b83811015612ca8578151612c8f8782612c34565b9650612c9a83612c4c565b925050600181019050612c7b565b505050505050565b6000608082019050612cc56000830184612c59565b92915050565b60008060408385031215612ce257612ce161271f565b5b6000612cf08582860161276d565b9250506020612d018582860161276d565b9150509250929050565b6000612d1682612bb7565b9050919050565b612d2681612d0b565b82525050565b6000602082019050612d416000830184612d1d565b92915050565b7f53616665546f6b656e3a70617573656400000000000000000000000000000000600082015250565b6000612d7d60108361266e565b9150612d8882612d47565b602082019050919050565b60006020820190508181036000830152612dac81612d70565b9050919050565b7f53616665546f6b656e3a7472616e736665722d70726f68696269746564000000600082015250565b6000612de9601d8361266e565b9150612df482612db3565b602082019050919050565b60006020820190508181036000830152612e1881612ddc565b9050919050565b7f53616665546f6b656e3a696e73756666696369656e742d62616c616e63650000600082015250565b6000612e55601e8361266e565b9150612e6082612e1f565b602082019050919050565b60006020820190508181036000830152612e8481612e48565b9050919050565b7f53616665546f6b656e3a626c61636b6c69737465640000000000000000000000600082015250565b6000612ec160158361266e565b9150612ecc82612e8b565b602082019050919050565b60006020820190508181036000830152612ef081612eb4565b9050919050565b7f53616665546f6b656e3a696e73756666696369656e742d616c6c6f77616e6365600082015250565b6000612f2d60208361266e565b9150612f3882612ef7565b602082019050919050565b60006020820190508181036000830152612f5c81612f20565b9050919050565b7f53616665546f6b656e3a6e6f742d617574686f72697a65640000000000000000600082015250565b6000612f9960188361266e565b9150612fa482612f63565b602082019050919050565b60006020820190508181036000830152612fc881612f8c565b9050919050565b612fd881612744565b82525050565b6000604082019050612ff36000830185612fcf565b613000602083018461285b565b9392505050565b613010816127f8565b811461301b57600080fd5b50565b60008151905061302d81613007565b92915050565b6000602082840312156130495761304861271f565b5b60006130578482850161301e565b91505092915050565b60008151905061306f8161278c565b92915050565b60006020828403121561308b5761308a61271f565b5b600061309984828501613060565b91505092915050565b60006020820190506130b76000830184612fcf565b92915050565b7f4e487b7100000000000000000000000000000000000000000000000000000000600052601160045260246000fd5b60006130f782612782565b915061310283612782565b925082820190508082111561311a576131196130bd565b5b92915050565b600061312b82612782565b915061313683612782565b925082820261314481612782565b9150828204841483151761315b5761315a6130bd565b5b5092915050565b7f4e487b7100000000000000000000000000000000000000000000000000000000600052601260045260246000fd5b600061319c82612782565b91506131a783612782565b9250826131b7576131b6613162565b5b828204905092915050565b60006060820190506131d76000830186612fcf565b6131e46020830185612fcf565b6131f1604083018461285b565b949350505050565b7f4e487b7100000000000000000000000000000000000000000000000000000000600052603260045260246000fd5b600061323382612782565b91507fffffffffffffffffffffffffffffffffffffffffffffffffffffffffffffffff8203613265576132646130bd565b5b600182019050919050565b600061327b82612782565b915061328683612782565b925082820390508181111561329e5761329d6130bd565b5b92915050565b600060408201905081810360008301526132be81856126ba565b90506132cd602083018461285b565b9392505050565b600060408201905081810360008301526132ee81856126ba565b90506132fd6020830184612fcf565b939250505056fea264697066735822122094bf8b29acc714625a7dc1be86f31f8e09aa639c2382b643c046c3f08eab67a664736f6c63430008110033",
  "devdoc": {
    "author": "crypt0grapher",
    "kind": "dev",
    "methods": {
      "buy(uint256)": {
        "params": {
          "_safeTokensToBuy": "number of tokens to buy, the respective amount of BUSD will be deducted from the user, Safe Yield token will be minted"
        }
      },
      "paused()": {
        "details": "Returns true if the contract is paused, and false otherwise."
      },
      "sell(uint256)": {
        "params": {
          "_safeTokensToSell": "number of tokens to sell, the respective amount of BUSD will be returned from the user, Safe Yield token will be burned"
        }
      }
    },
    "stateVariables": {
      "WALLETS": {
        "details": "total wallets on the protocol, see Wallets enum"
      },
      "allowance": {
        "details": "Returns the remaining number of tokens that `spender` will be allowed to spend on behalf of `owner` through {transferFrom}. This is zero by default. This value changes when {approve} or {transferFrom} are called."
      },
      "balanceOf": {
        "details": "Returns the amount of tokens owned by `account`."
      },
      "decimals": {
        "details": "Returns the decimals places of the token."
      },
      "name": {
        "details": "Returns the name of the token."
      },
      "symbol": {
        "details": "Returns the symbol of the token."
      },
      "totalSupply": {
        "details": "Returns the amount of tokens in existence."
      }
    },
    "title": "SafeToken",
    "version": 1
  },
  "userdoc": {
    "kind": "user",
    "methods": {
      "buy(uint256)": {
        "notice": "buy Safe Yield tokens with BUSD"
      },
      "price()": {
        "notice": "price of 1 Safe Yield token in StableCoin"
      },
      "sell(uint256)": {
        "notice": "sell Safe Yield tokens for BUSD"
      },
      "usd()": {
        "notice": "price of 1 Safe Yield token in StableCoin"
      }
    },
    "notice": "This contract is used as a token",
    "version": 1
  },
  "storageLayout": {
    "storage": [
      {
        "astId": 17,
        "contract": "contracts/SafeToken.sol:SafeToken",
        "label": "_paused",
        "offset": 0,
        "slot": "0",
        "type": "t_bool"
      },
      {
        "astId": 261,
        "contract": "contracts/SafeToken.sol:SafeToken",
        "label": "totalSupply",
        "offset": 0,
        "slot": "1",
        "type": "t_uint256"
      },
      {
        "astId": 265,
        "contract": "contracts/SafeToken.sol:SafeToken",
        "label": "blacklist",
        "offset": 0,
        "slot": "2",
        "type": "t_mapping(t_address,t_bool)"
      },
      {
        "astId": 269,
        "contract": "contracts/SafeToken.sol:SafeToken",
        "label": "admin",
        "offset": 0,
        "slot": "3",
        "type": "t_mapping(t_address,t_uint256)"
      },
      {
        "astId": 273,
        "contract": "contracts/SafeToken.sol:SafeToken",
        "label": "balanceOf",
        "offset": 0,
        "slot": "4",
        "type": "t_mapping(t_address,t_uint256)"
      },
      {
        "astId": 279,
        "contract": "contracts/SafeToken.sol:SafeToken",
        "label": "allowance",
        "offset": 0,
        "slot": "5",
        "type": "t_mapping(t_address,t_mapping(t_address,t_uint256))"
      },
      {
        "astId": 298,
        "contract": "contracts/SafeToken.sol:SafeToken",
        "label": "wallets",
        "offset": 0,
        "slot": "6",
        "type": "t_array(t_address)4_storage"
      },
      {
        "astId": 302,
        "contract": "contracts/SafeToken.sol:SafeToken",
        "label": "taxDistributionOnMint",
        "offset": 0,
        "slot": "10",
        "type": "t_array(t_uint256)4_storage"
      },
      {
        "astId": 308,
        "contract": "contracts/SafeToken.sol:SafeToken",
        "label": "usd",
        "offset": 0,
        "slot": "14",
        "type": "t_contract(IERC20)185"
      },
      {
        "astId": 311,
        "contract": "contracts/SafeToken.sol:SafeToken",
        "label": "safeVault",
        "offset": 0,
        "slot": "15",
        "type": "t_contract(ISafeVault)1156"
      }
    ],
    "types": {
      "t_address": {
        "encoding": "inplace",
        "label": "address",
        "numberOfBytes": "20"
      },
      "t_array(t_address)4_storage": {
        "base": "t_address",
        "encoding": "inplace",
        "label": "address[4]",
        "numberOfBytes": "128"
      },
      "t_array(t_uint256)4_storage": {
        "base": "t_uint256",
        "encoding": "inplace",
        "label": "uint256[4]",
        "numberOfBytes": "128"
      },
      "t_bool": {
        "encoding": "inplace",
        "label": "bool",
        "numberOfBytes": "1"
      },
      "t_contract(IERC20)185": {
        "encoding": "inplace",
        "label": "contract IERC20",
        "numberOfBytes": "20"
      },
      "t_contract(ISafeVault)1156": {
        "encoding": "inplace",
        "label": "contract ISafeVault",
        "numberOfBytes": "20"
      },
      "t_mapping(t_address,t_bool)": {
        "encoding": "mapping",
        "key": "t_address",
        "label": "mapping(address => bool)",
        "numberOfBytes": "32",
        "value": "t_bool"
      },
      "t_mapping(t_address,t_mapping(t_address,t_uint256))": {
        "encoding": "mapping",
        "key": "t_address",
        "label": "mapping(address => mapping(address => uint256))",
        "numberOfBytes": "32",
        "value": "t_mapping(t_address,t_uint256)"
      },
      "t_mapping(t_address,t_uint256)": {
        "encoding": "mapping",
        "key": "t_address",
        "label": "mapping(address => uint256)",
        "numberOfBytes": "32",
        "value": "t_uint256"
      },
      "t_uint256": {
        "encoding": "inplace",
        "label": "uint256",
        "numberOfBytes": "32"
      }
    }
  }
}