{
  "address": "0x80ACEf89c16fc9842EC00B363eFe5D2c3aF21128",
  "abi": [
    {
      "inputs": [
        {
          "internalType": "string",
          "name": "_uri",
          "type": "string"
        },
        {
          "internalType": "uint256[4]",
          "name": "_price",
          "type": "uint256[4]"
        },
        {
          "internalType": "uint256[4]",
          "name": "_maxSupply",
          "type": "uint256[4]"
        },
        {
          "internalType": "contract ISafeToken",
          "name": "_safeToken",
          "type": "address"
        },
        {
          "internalType": "uint256[2]",
          "name": "_priceDistributionOnMint",
          "type": "uint256[2]"
        },
        {
          "internalType": "uint256",
          "name": "_referralShareForNFTPurchase",
          "type": "uint256"
        },
        {
          "internalType": "uint256[2]",
          "name": "_profitDistribution",
          "type": "uint256[2]"
        },
        {
          "internalType": "address",
          "name": "_preVaultWallet",
          "type": "address"
        }
      ],
      "stateMutability": "nonpayable",
      "type": "constructor"
    },
    {
      "anonymous": false,
      "inputs": [
        {
          "indexed": true,
          "internalType": "address",
          "name": "account",
          "type": "address"
        },
        {
          "indexed": true,
          "internalType": "address",
          "name": "operator",
          "type": "address"
        },
        {
          "indexed": false,
          "internalType": "bool",
          "name": "approved",
          "type": "bool"
        }
      ],
      "name": "ApprovalForAll",
      "type": "event"
    },
    {
      "anonymous": false,
      "inputs": [
        {
          "indexed": false,
          "internalType": "address",
          "name": "account",
          "type": "address"
        }
      ],
      "name": "Paused",
      "type": "event"
    },
    {
      "anonymous": false,
      "inputs": [
        {
          "indexed": true,
          "internalType": "bytes32",
          "name": "role",
          "type": "bytes32"
        },
        {
          "indexed": true,
          "internalType": "bytes32",
          "name": "previousAdminRole",
          "type": "bytes32"
        },
        {
          "indexed": true,
          "internalType": "bytes32",
          "name": "newAdminRole",
          "type": "bytes32"
        }
      ],
      "name": "RoleAdminChanged",
      "type": "event"
    },
    {
      "anonymous": false,
      "inputs": [
        {
          "indexed": true,
          "internalType": "bytes32",
          "name": "role",
          "type": "bytes32"
        },
        {
          "indexed": true,
          "internalType": "address",
          "name": "account",
          "type": "address"
        },
        {
          "indexed": true,
          "internalType": "address",
          "name": "sender",
          "type": "address"
        }
      ],
      "name": "RoleGranted",
      "type": "event"
    },
    {
      "anonymous": false,
      "inputs": [
        {
          "indexed": true,
          "internalType": "bytes32",
          "name": "role",
          "type": "bytes32"
        },
        {
          "indexed": true,
          "internalType": "address",
          "name": "account",
          "type": "address"
        },
        {
          "indexed": true,
          "internalType": "address",
          "name": "sender",
          "type": "address"
        }
      ],
      "name": "RoleRevoked",
      "type": "event"
    },
    {
      "anonymous": false,
      "inputs": [
        {
          "indexed": false,
          "internalType": "bool",
          "name": "_status",
          "type": "bool"
        }
      ],
      "name": "TogglePresale",
      "type": "event"
    },
    {
      "anonymous": false,
      "inputs": [
        {
          "indexed": true,
          "internalType": "address",
          "name": "operator",
          "type": "address"
        },
        {
          "indexed": true,
          "internalType": "address",
          "name": "from",
          "type": "address"
        },
        {
          "indexed": true,
          "internalType": "address",
          "name": "to",
          "type": "address"
        },
        {
          "indexed": false,
          "internalType": "uint256[]",
          "name": "ids",
          "type": "uint256[]"
        },
        {
          "indexed": false,
          "internalType": "uint256[]",
          "name": "values",
          "type": "uint256[]"
        }
      ],
      "name": "TransferBatch",
      "type": "event"
    },
    {
      "anonymous": false,
      "inputs": [
        {
          "indexed": true,
          "internalType": "address",
          "name": "operator",
          "type": "address"
        },
        {
          "indexed": true,
          "internalType": "address",
          "name": "from",
          "type": "address"
        },
        {
          "indexed": true,
          "internalType": "address",
          "name": "to",
          "type": "address"
        },
        {
          "indexed": false,
          "internalType": "uint256",
          "name": "id",
          "type": "uint256"
        },
        {
          "indexed": false,
          "internalType": "uint256",
          "name": "value",
          "type": "uint256"
        }
      ],
      "name": "TransferSingle",
      "type": "event"
    },
    {
      "anonymous": false,
      "inputs": [
        {
          "indexed": false,
          "internalType": "string",
          "name": "value",
          "type": "string"
        },
        {
          "indexed": true,
          "internalType": "uint256",
          "name": "id",
          "type": "uint256"
        }
      ],
      "name": "URI",
      "type": "event"
    },
    {
      "anonymous": false,
      "inputs": [
        {
          "indexed": false,
          "internalType": "address",
          "name": "account",
          "type": "address"
        }
      ],
      "name": "Unpaused",
      "type": "event"
    },
    {
      "inputs": [],
      "name": "DEFAULT_ADMIN_ROLE",
      "outputs": [
        {
          "internalType": "bytes32",
          "name": "",
          "type": "bytes32"
        }
      ],
      "stateMutability": "view",
      "type": "function"
    },
    {
      "inputs": [],
      "name": "HUNDRED_PERCENT",
      "outputs": [
        {
          "internalType": "uint256",
          "name": "",
          "type": "uint256"
        }
      ],
      "stateMutability": "view",
      "type": "function"
    },
    {
      "inputs": [],
      "name": "MINTER_ROLE",
      "outputs": [
        {
          "internalType": "bytes32",
          "name": "",
          "type": "bytes32"
        }
      ],
      "stateMutability": "view",
      "type": "function"
    },
    {
      "inputs": [],
      "name": "PAUSER_ROLE",
      "outputs": [
        {
          "internalType": "bytes32",
          "name": "",
          "type": "bytes32"
        }
      ],
      "stateMutability": "view",
      "type": "function"
    },
    {
      "inputs": [],
      "name": "TIERS",
      "outputs": [
        {
          "internalType": "uint256",
          "name": "",
          "type": "uint256"
        }
      ],
      "stateMutability": "view",
      "type": "function"
    },
    {
      "inputs": [],
      "name": "WALLETS",
      "outputs": [
        {
          "internalType": "uint256",
          "name": "",
          "type": "uint256"
        }
      ],
      "stateMutability": "view",
      "type": "function"
    },
    {
      "inputs": [],
      "name": "WEEKS",
      "outputs": [
        {
          "internalType": "uint256",
          "name": "",
          "type": "uint256"
        }
      ],
      "stateMutability": "view",
      "type": "function"
    },
    {
      "inputs": [
        {
          "internalType": "uint256",
          "name": "",
          "type": "uint256"
        },
        {
          "internalType": "uint256",
          "name": "",
          "type": "uint256"
        },
        {
          "internalType": "address",
          "name": "",
          "type": "address"
        }
      ],
      "name": "alreadyDistributedAmount",
      "outputs": [
        {
          "internalType": "uint256",
          "name": "",
          "type": "uint256"
        }
      ],
      "stateMutability": "view",
      "type": "function"
    },
    {
      "inputs": [
        {
          "internalType": "uint256",
          "name": "",
          "type": "uint256"
        },
        {
          "internalType": "uint256",
          "name": "",
          "type": "uint256"
        }
      ],
      "name": "alreadyDistributedAmountByTier",
      "outputs": [
        {
          "internalType": "uint256",
          "name": "",
          "type": "uint256"
        }
      ],
      "stateMutability": "view",
      "type": "function"
    },
    {
      "inputs": [
        {
          "internalType": "address",
          "name": "account",
          "type": "address"
        },
        {
          "internalType": "uint256",
          "name": "id",
          "type": "uint256"
        }
      ],
      "name": "balanceOf",
      "outputs": [
        {
          "internalType": "uint256",
          "name": "",
          "type": "uint256"
        }
      ],
      "stateMutability": "view",
      "type": "function"
    },
    {
      "inputs": [
        {
          "internalType": "address[]",
          "name": "accounts",
          "type": "address[]"
        },
        {
          "internalType": "uint256[]",
          "name": "ids",
          "type": "uint256[]"
        }
      ],
      "name": "balanceOfBatch",
      "outputs": [
        {
          "internalType": "uint256[]",
          "name": "",
          "type": "uint256[]"
        }
      ],
      "stateMutability": "view",
      "type": "function"
    },
    {
      "inputs": [
        {
          "internalType": "address",
          "name": "account",
          "type": "address"
        },
        {
          "internalType": "uint256",
          "name": "id",
          "type": "uint256"
        },
        {
          "internalType": "uint256",
          "name": "value",
          "type": "uint256"
        }
      ],
      "name": "burn",
      "outputs": [],
      "stateMutability": "nonpayable",
      "type": "function"
    },
    {
      "inputs": [
        {
          "internalType": "address",
          "name": "account",
          "type": "address"
        },
        {
          "internalType": "uint256[]",
          "name": "ids",
          "type": "uint256[]"
        },
        {
          "internalType": "uint256[]",
          "name": "values",
          "type": "uint256[]"
        }
      ],
      "name": "burnBatch",
      "outputs": [],
      "stateMutability": "nonpayable",
      "type": "function"
    },
    {
      "inputs": [
        {
          "internalType": "enum ISafeNFT.Tiers",
          "name": "_tier",
          "type": "uint8"
        },
        {
          "internalType": "uint256",
          "name": "_amount",
          "type": "uint256"
        },
        {
          "internalType": "address",
          "name": "_referral",
          "type": "address"
        }
      ],
      "name": "buy",
      "outputs": [],
      "stateMutability": "nonpayable",
      "type": "function"
    },
    {
      "inputs": [
        {
          "internalType": "enum ISafeNFT.Tiers",
          "name": "_tier",
          "type": "uint8"
        },
        {
          "internalType": "uint256",
          "name": "_distributionId",
          "type": "uint256"
        }
      ],
      "name": "claimReward",
      "outputs": [],
      "stateMutability": "nonpayable",
      "type": "function"
    },
    {
      "inputs": [],
      "name": "claimRewardsTotal",
      "outputs": [],
      "stateMutability": "nonpayable",
      "type": "function"
    },
    {
      "inputs": [],
      "name": "currentDistributionId",
      "outputs": [
        {
          "internalType": "uint256",
          "name": "",
          "type": "uint256"
        }
      ],
      "stateMutability": "view",
      "type": "function"
    },
    {
      "inputs": [
        {
          "internalType": "uint256",
          "name": "",
          "type": "uint256"
        }
      ],
      "name": "currentlySoldInPresale",
      "outputs": [
        {
          "internalType": "uint256",
          "name": "",
          "type": "uint256"
        }
      ],
      "stateMutability": "view",
      "type": "function"
    },
    {
      "inputs": [
        {
          "internalType": "uint256",
          "name": "_amountUSD",
          "type": "uint256"
        }
      ],
      "name": "distributeProfit",
      "outputs": [],
      "stateMutability": "nonpayable",
      "type": "function"
    },
    {
      "inputs": [
        {
          "internalType": "uint256",
          "name": "",
          "type": "uint256"
        },
        {
          "internalType": "uint256",
          "name": "",
          "type": "uint256"
        }
      ],
      "name": "distributionByTier",
      "outputs": [
        {
          "internalType": "uint256",
          "name": "",
          "type": "uint256"
        }
      ],
      "stateMutability": "view",
      "type": "function"
    },
    {
      "inputs": [
        {
          "internalType": "uint256",
          "name": "",
          "type": "uint256"
        }
      ],
      "name": "distributionOfProfit",
      "outputs": [
        {
          "internalType": "uint256",
          "name": "",
          "type": "uint256"
        }
      ],
      "stateMutability": "view",
      "type": "function"
    },
    {
      "inputs": [
        {
          "internalType": "uint256",
          "name": "",
          "type": "uint256"
        },
        {
          "internalType": "uint256",
          "name": "",
          "type": "uint256"
        }
      ],
      "name": "distributionTotalSupplySnapshot",
      "outputs": [
        {
          "internalType": "uint256",
          "name": "",
          "type": "uint256"
        }
      ],
      "stateMutability": "view",
      "type": "function"
    },
    {
      "inputs": [
        {
          "internalType": "uint256",
          "name": "id",
          "type": "uint256"
        }
      ],
      "name": "exists",
      "outputs": [
        {
          "internalType": "bool",
          "name": "",
          "type": "bool"
        }
      ],
      "stateMutability": "view",
      "type": "function"
    },
    {
      "inputs": [
        {
          "internalType": "address",
          "name": "_user",
          "type": "address"
        }
      ],
      "name": "getBalanceTable",
      "outputs": [
        {
          "internalType": "uint256[]",
          "name": "",
          "type": "uint256[]"
        }
      ],
      "stateMutability": "view",
      "type": "function"
    },
    {
      "inputs": [],
      "name": "getCurrentPresaleWeek",
      "outputs": [
        {
          "internalType": "uint256",
          "name": "",
          "type": "uint256"
        }
      ],
      "stateMutability": "view",
      "type": "function"
    },
    {
      "inputs": [],
      "name": "getDiscountedPriceTable",
      "outputs": [
        {
          "internalType": "uint256[]",
          "name": "",
          "type": "uint256[]"
        }
      ],
      "stateMutability": "view",
      "type": "function"
    },
    {
      "inputs": [
        {
          "internalType": "enum ISafeNFT.Tiers",
          "name": "_tier",
          "type": "uint8"
        }
      ],
      "name": "getFairPrice",
      "outputs": [
        {
          "internalType": "uint256",
          "name": "",
          "type": "uint256"
        }
      ],
      "stateMutability": "view",
      "type": "function"
    },
    {
      "inputs": [],
      "name": "getFairPriceTable",
      "outputs": [
        {
          "internalType": "uint256[]",
          "name": "",
          "type": "uint256[]"
        }
      ],
      "stateMutability": "view",
      "type": "function"
    },
    {
      "inputs": [],
      "name": "getMyBalanceTable",
      "outputs": [
        {
          "internalType": "uint256[]",
          "name": "",
          "type": "uint256[]"
        }
      ],
      "stateMutability": "view",
      "type": "function"
    },
    {
      "inputs": [],
      "name": "getMyPendingRewardsTotal",
      "outputs": [
        {
          "internalType": "uint256",
          "name": "",
          "type": "uint256"
        }
      ],
      "stateMutability": "view",
      "type": "function"
    },
    {
      "inputs": [],
      "name": "getMyShareOfTreasury",
      "outputs": [
        {
          "internalType": "uint256",
          "name": "",
          "type": "uint256"
        }
      ],
      "stateMutability": "view",
      "type": "function"
    },
    {
      "inputs": [
        {
          "internalType": "address",
          "name": "_user",
          "type": "address"
        },
        {
          "internalType": "enum ISafeNFT.Tiers",
          "name": "_tier",
          "type": "uint8"
        },
        {
          "internalType": "uint256",
          "name": "_distributionId",
          "type": "uint256"
        }
      ],
      "name": "getPendingRewards",
      "outputs": [
        {
          "internalType": "uint256",
          "name": "",
          "type": "uint256"
        }
      ],
      "stateMutability": "view",
      "type": "function"
    },
    {
      "inputs": [],
      "name": "getPresaleNFTAvailable",
      "outputs": [
        {
          "internalType": "uint256[]",
          "name": "",
          "type": "uint256[]"
        }
      ],
      "stateMutability": "view",
      "type": "function"
    },
    {
      "inputs": [
        {
          "internalType": "enum ISafeNFT.Tiers",
          "name": "_tier",
          "type": "uint8"
        }
      ],
      "name": "getPrice",
      "outputs": [
        {
          "internalType": "uint256",
          "name": "",
          "type": "uint256"
        }
      ],
      "stateMutability": "view",
      "type": "function"
    },
    {
      "inputs": [],
      "name": "getPriceTable",
      "outputs": [
        {
          "internalType": "uint256[]",
          "name": "",
          "type": "uint256[]"
        }
      ],
      "stateMutability": "view",
      "type": "function"
    },
    {
      "inputs": [
        {
          "internalType": "bytes32",
          "name": "role",
          "type": "bytes32"
        }
      ],
      "name": "getRoleAdmin",
      "outputs": [
        {
          "internalType": "bytes32",
          "name": "",
          "type": "bytes32"
        }
      ],
      "stateMutability": "view",
      "type": "function"
    },
    {
      "inputs": [
        {
          "internalType": "bytes32",
          "name": "role",
          "type": "bytes32"
        },
        {
          "internalType": "uint256",
          "name": "index",
          "type": "uint256"
        }
      ],
      "name": "getRoleMember",
      "outputs": [
        {
          "internalType": "address",
          "name": "",
          "type": "address"
        }
      ],
      "stateMutability": "view",
      "type": "function"
    },
    {
      "inputs": [
        {
          "internalType": "bytes32",
          "name": "role",
          "type": "bytes32"
        }
      ],
      "name": "getRoleMemberCount",
      "outputs": [
        {
          "internalType": "uint256",
          "name": "",
          "type": "uint256"
        }
      ],
      "stateMutability": "view",
      "type": "function"
    },
    {
      "inputs": [],
      "name": "getTotalSupplyAllTiers",
      "outputs": [
        {
          "internalType": "uint256",
          "name": "",
          "type": "uint256"
        }
      ],
      "stateMutability": "view",
      "type": "function"
    },
    {
      "inputs": [],
      "name": "getTreasuryCost",
      "outputs": [
        {
          "internalType": "uint256",
          "name": "",
          "type": "uint256"
        }
      ],
      "stateMutability": "view",
      "type": "function"
    },
    {
      "inputs": [],
      "name": "getUnclaimedRewards",
      "outputs": [
        {
          "internalType": "uint256",
          "name": "",
          "type": "uint256"
        }
      ],
      "stateMutability": "view",
      "type": "function"
    },
    {
      "inputs": [
        {
          "internalType": "bytes32",
          "name": "role",
          "type": "bytes32"
        },
        {
          "internalType": "address",
          "name": "account",
          "type": "address"
        }
      ],
      "name": "grantRole",
      "outputs": [],
      "stateMutability": "nonpayable",
      "type": "function"
    },
    {
      "inputs": [
        {
          "internalType": "bytes32",
          "name": "role",
          "type": "bytes32"
        },
        {
          "internalType": "address",
          "name": "account",
          "type": "address"
        }
      ],
      "name": "hasRole",
      "outputs": [
        {
          "internalType": "bool",
          "name": "",
          "type": "bool"
        }
      ],
      "stateMutability": "view",
      "type": "function"
    },
    {
      "inputs": [
        {
          "internalType": "string",
          "name": "_uri",
          "type": "string"
        },
        {
          "internalType": "uint256[4]",
          "name": "_price",
          "type": "uint256[4]"
        },
        {
          "internalType": "uint256[4]",
          "name": "_maxSupply",
          "type": "uint256[4]"
        },
        {
          "internalType": "contract ISafeToken",
          "name": "_safeToken",
          "type": "address"
        },
        {
          "internalType": "uint256[2]",
          "name": "_priceDistributionOnMint",
          "type": "uint256[2]"
        },
        {
          "internalType": "uint256",
          "name": "_referralShareForNFTPurchase",
          "type": "uint256"
        },
        {
          "internalType": "uint256[2]",
          "name": "_profitDistribution",
          "type": "uint256[2]"
        },
        {
          "internalType": "address",
          "name": "_preVaultWallet",
          "type": "address"
        }
      ],
      "name": "initialize",
      "outputs": [],
      "stateMutability": "nonpayable",
      "type": "function"
    },
    {
      "inputs": [
        {
          "internalType": "address",
          "name": "account",
          "type": "address"
        },
        {
          "internalType": "address",
          "name": "operator",
          "type": "address"
        }
      ],
      "name": "isApprovedForAll",
      "outputs": [
        {
          "internalType": "bool",
          "name": "",
          "type": "bool"
        }
      ],
      "stateMutability": "view",
      "type": "function"
    },
    {
      "inputs": [
        {
          "internalType": "uint256",
          "name": "",
          "type": "uint256"
        }
      ],
      "name": "maxSupply",
      "outputs": [
        {
          "internalType": "uint256",
          "name": "",
          "type": "uint256"
        }
      ],
      "stateMutability": "view",
      "type": "function"
    },
    {
      "inputs": [
        {
          "internalType": "address",
          "name": "to",
          "type": "address"
        },
        {
          "internalType": "uint256",
          "name": "id",
          "type": "uint256"
        },
        {
          "internalType": "uint256",
          "name": "amount",
          "type": "uint256"
        },
        {
          "internalType": "bytes",
          "name": "data",
          "type": "bytes"
        }
      ],
      "name": "mint",
      "outputs": [],
      "stateMutability": "nonpayable",
      "type": "function"
    },
    {
      "inputs": [
        {
          "internalType": "address",
          "name": "to",
          "type": "address"
        },
        {
          "internalType": "uint256[]",
          "name": "ids",
          "type": "uint256[]"
        },
        {
          "internalType": "uint256[]",
          "name": "amounts",
          "type": "uint256[]"
        },
        {
          "internalType": "bytes",
          "name": "data",
          "type": "bytes"
        }
      ],
      "name": "mintBatch",
      "outputs": [],
      "stateMutability": "nonpayable",
      "type": "function"
    },
    {
      "inputs": [],
      "name": "name",
      "outputs": [
        {
          "internalType": "string",
          "name": "",
          "type": "string"
        }
      ],
      "stateMutability": "view",
      "type": "function"
    },
    {
      "inputs": [],
      "name": "pause",
      "outputs": [],
      "stateMutability": "nonpayable",
      "type": "function"
    },
    {
      "inputs": [],
      "name": "paused",
      "outputs": [
        {
          "internalType": "bool",
          "name": "",
          "type": "bool"
        }
      ],
      "stateMutability": "view",
      "type": "function"
    },
    {
      "inputs": [],
      "name": "preVaultWallet",
      "outputs": [
        {
          "internalType": "address",
          "name": "",
          "type": "address"
        }
      ],
      "stateMutability": "view",
      "type": "function"
    },
    {
      "inputs": [],
      "name": "presale",
      "outputs": [
        {
          "internalType": "bool",
          "name": "",
          "type": "bool"
        }
      ],
      "stateMutability": "view",
      "type": "function"
    },
    {
      "inputs": [
        {
          "internalType": "uint256",
          "name": "",
          "type": "uint256"
        }
      ],
      "name": "presaleMaxSupply",
      "outputs": [
        {
          "internalType": "uint256",
          "name": "",
          "type": "uint256"
        }
      ],
      "stateMutability": "view",
      "type": "function"
    },
    {
      "inputs": [
        {
          "internalType": "uint256",
          "name": "",
          "type": "uint256"
        },
        {
          "internalType": "uint256",
          "name": "",
          "type": "uint256"
        }
      ],
      "name": "presalePrice",
      "outputs": [
        {
          "internalType": "uint256",
          "name": "",
          "type": "uint256"
        }
      ],
      "stateMutability": "view",
      "type": "function"
    },
    {
      "inputs": [],
      "name": "presaleStartDate",
      "outputs": [
        {
          "internalType": "uint256",
          "name": "",
          "type": "uint256"
        }
      ],
      "stateMutability": "view",
      "type": "function"
    },
    {
      "inputs": [
        {
          "internalType": "uint256",
          "name": "",
          "type": "uint256"
        }
      ],
      "name": "price",
      "outputs": [
        {
          "internalType": "uint256",
          "name": "",
          "type": "uint256"
        }
      ],
      "stateMutability": "view",
      "type": "function"
    },
    {
      "inputs": [
        {
          "internalType": "uint256",
          "name": "",
          "type": "uint256"
        }
      ],
      "name": "priceDistributionOnMint",
      "outputs": [
        {
          "internalType": "uint256",
          "name": "",
          "type": "uint256"
        }
      ],
      "stateMutability": "view",
      "type": "function"
    },
    {
      "inputs": [
        {
          "internalType": "uint256",
          "name": "",
          "type": "uint256"
        }
      ],
      "name": "profitDistribution",
      "outputs": [
        {
          "internalType": "uint256",
          "name": "",
          "type": "uint256"
        }
      ],
      "stateMutability": "view",
      "type": "function"
    },
    {
      "inputs": [],
      "name": "referralShareForNFTPurchase",
      "outputs": [
        {
          "internalType": "uint256",
          "name": "",
          "type": "uint256"
        }
      ],
      "stateMutability": "view",
      "type": "function"
    },
    {
      "inputs": [
        {
          "internalType": "bytes32",
          "name": "role",
          "type": "bytes32"
        },
        {
          "internalType": "address",
          "name": "account",
          "type": "address"
        }
      ],
      "name": "renounceRole",
      "outputs": [],
      "stateMutability": "nonpayable",
      "type": "function"
    },
    {
      "inputs": [
        {
          "internalType": "bytes32",
          "name": "role",
          "type": "bytes32"
        },
        {
          "internalType": "address",
          "name": "account",
          "type": "address"
        }
      ],
      "name": "revokeRole",
      "outputs": [],
      "stateMutability": "nonpayable",
      "type": "function"
    },
    {
      "inputs": [
        {
          "internalType": "address",
          "name": "from",
          "type": "address"
        },
        {
          "internalType": "address",
          "name": "to",
          "type": "address"
        },
        {
          "internalType": "uint256[]",
          "name": "ids",
          "type": "uint256[]"
        },
        {
          "internalType": "uint256[]",
          "name": "amounts",
          "type": "uint256[]"
        },
        {
          "internalType": "bytes",
          "name": "data",
          "type": "bytes"
        }
      ],
      "name": "safeBatchTransferFrom",
      "outputs": [],
      "stateMutability": "nonpayable",
      "type": "function"
    },
    {
      "inputs": [],
      "name": "safeToken",
      "outputs": [
        {
          "internalType": "contract ISafeToken",
          "name": "",
          "type": "address"
        }
      ],
      "stateMutability": "view",
      "type": "function"
    },
    {
      "inputs": [
        {
          "internalType": "address",
          "name": "from",
          "type": "address"
        },
        {
          "internalType": "address",
          "name": "to",
          "type": "address"
        },
        {
          "internalType": "uint256",
          "name": "id",
          "type": "uint256"
        },
        {
          "internalType": "uint256",
          "name": "amount",
          "type": "uint256"
        },
        {
          "internalType": "bytes",
          "name": "data",
          "type": "bytes"
        }
      ],
      "name": "safeTransferFrom",
      "outputs": [],
      "stateMutability": "nonpayable",
      "type": "function"
    },
    {
      "inputs": [],
      "name": "safeVault",
      "outputs": [
        {
          "internalType": "contract ISafeVault",
          "name": "",
          "type": "address"
        }
      ],
      "stateMutability": "view",
      "type": "function"
    },
    {
      "inputs": [
        {
          "internalType": "address",
          "name": "operator",
          "type": "address"
        },
        {
          "internalType": "bool",
          "name": "approved",
          "type": "bool"
        }
      ],
      "name": "setApprovalForAll",
      "outputs": [],
      "stateMutability": "nonpayable",
      "type": "function"
    },
    {
      "inputs": [
        {
          "internalType": "uint256[][]",
          "name": "_presalePrice",
          "type": "uint256[][]"
        }
      ],
      "name": "setDiscountedPriceTable",
      "outputs": [],
      "stateMutability": "nonpayable",
      "type": "function"
    },
    {
      "inputs": [
        {
          "internalType": "uint256[4]",
          "name": "_presaleMaxSupply",
          "type": "uint256[4]"
        }
      ],
      "name": "setPresaleMaxSupply",
      "outputs": [],
      "stateMutability": "nonpayable",
      "type": "function"
    },
    {
      "inputs": [
        {
          "internalType": "uint256",
          "name": "_launchDate",
          "type": "uint256"
        },
        {
          "internalType": "uint256",
          "name": "_weekDuration",
          "type": "uint256"
        }
      ],
      "name": "setPresaleStartDate",
      "outputs": [],
      "stateMutability": "nonpayable",
      "type": "function"
    },
    {
      "inputs": [
        {
          "internalType": "address",
          "name": "",
          "type": "address"
        },
        {
          "internalType": "uint256",
          "name": "",
          "type": "uint256"
        },
        {
          "internalType": "uint256",
          "name": "",
          "type": "uint256"
        }
      ],
      "name": "soldPerPresaleWeek",
      "outputs": [
        {
          "internalType": "uint256",
          "name": "",
          "type": "uint256"
        }
      ],
      "stateMutability": "view",
      "type": "function"
    },
    {
      "inputs": [
        {
          "internalType": "bytes4",
          "name": "interfaceId",
          "type": "bytes4"
        }
      ],
      "name": "supportsInterface",
      "outputs": [
        {
          "internalType": "bool",
          "name": "",
          "type": "bool"
        }
      ],
      "stateMutability": "view",
      "type": "function"
    },
    {
      "inputs": [],
      "name": "togglePresale",
      "outputs": [],
      "stateMutability": "nonpayable",
      "type": "function"
    },
    {
      "inputs": [
        {
          "internalType": "uint256",
          "name": "id",
          "type": "uint256"
        }
      ],
      "name": "totalSupply",
      "outputs": [
        {
          "internalType": "uint256",
          "name": "",
          "type": "uint256"
        }
      ],
      "stateMutability": "view",
      "type": "function"
    },
    {
      "inputs": [],
      "name": "unpause",
      "outputs": [],
      "stateMutability": "nonpayable",
      "type": "function"
    },
    {
      "inputs": [
        {
          "internalType": "uint256",
          "name": "",
          "type": "uint256"
        }
      ],
      "name": "uri",
      "outputs": [
        {
          "internalType": "string",
          "name": "",
          "type": "string"
        }
      ],
      "stateMutability": "view",
      "type": "function"
    },
    {
      "inputs": [],
      "name": "usd",
      "outputs": [
        {
          "internalType": "contract IERC20",
          "name": "",
          "type": "address"
        }
      ],
      "stateMutability": "view",
      "type": "function"
    },
    {
      "inputs": [
        {
          "internalType": "uint256",
          "name": "",
          "type": "uint256"
        }
      ],
      "name": "wallets",
      "outputs": [
        {
          "internalType": "address",
          "name": "",
          "type": "address"
        }
      ],
      "stateMutability": "view",
      "type": "function"
    },
    {
      "inputs": [],
      "name": "weekDuration",
      "outputs": [
        {
          "internalType": "uint256",
          "name": "",
          "type": "uint256"
        }
      ],
      "stateMutability": "view",
      "type": "function"
    }
  ],
  "transactionHash": "0xc7464ae9830504d59405e16fc84565eb27e036ff26d9fb21f88cb1dcf617f831",
  "args": [
    "",
    [
      "131250000",
      "262500000",
      "525000000",
      "1050000000"
    ],
    [
      2000,
      1000,
      1000,
      1000
    ],
    "0xeeC181F2008b0f719e572000b1F02F120634326C",
    [
      50000000,
      40000000
    ],
    5000000,
    [
      25000000,
      20000000
    ],
    "0xa278581A8238aD22064d7892787F90d46F7E5498"
  ],
  "numDeployments": 3,
  "solcInputHash": "28da21aeed90d0970cc6a2e95d192e7d",
  "bytecode": "0x60806040523480156200001157600080fd5b50604051620066bf380380620066bf8339810160408190526200003491620008ad565b87806200004181620000b5565b506007805460ff1916905562000059600033620000c7565b620000746000805160206200669f83398151915233620000c7565b6200008f6000805160206200667f83398151915233620000c7565b506001600955620000a78888888888888888620000d3565b505050505050505062000bf2565b6006620000c3828262000a74565b5050565b620000c382826200050c565b6000620000ed6000805160206200665f8339815191525490565b90506001600160a01b0381166200011d576001600160a01b036000805160206200665f8339815191525562000133565b336001600160a01b038216146200013357600080fd5b6200013e89620000b5565b6200014b600033620000c7565b620001666000805160206200669f83398151915233620000c7565b620001816000805160206200667f83398151915233620000c7565b62000190600a8960046200066f565b50620001a0601e8860046200066f565b50602480546001600160a01b0319166001600160a01b038816179055620001cb6027866002620006b2565b50602b849055620001e06029846002620006b2565b50602c80546001600160a01b0319166001600160a01b03848116919091179091556024546040805163db7a460560e01b815281516200027394939093169263db7a4605926004808401939192918290030181865afa15801562000247573d6000803e3d6000fd5b505050506040513d601f19601f820116820180604052508101906200026d919062000b40565b6200054f565b602460009054906101000a90046001600160a01b03166001600160a01b031663deef94de6040518163ffffffff1660e01b8152600401602060405180830381865afa158015620002c7573d6000803e3d6000fd5b505050506040513d601f19601f82011682018060405250810190620002ed919062000ba7565b602580546001600160a01b0319166001600160a01b039283161790556024546040805163d63a6ccd60e01b81529051919092169163d63a6ccd9160048083019260209291908290030181865afa1580156200034c573d6000803e3d6000fd5b505050506040513d601f19601f8201168201806040525081019062000372919062000ba7565b602680546001600160a01b0319166001600160a01b039283169081179091556024805460405163095ea7b360e01b815293166004840152600019908301529063095ea7b3906044016020604051808303816000875af1158015620003da573d6000803e3d6000fd5b505050506040513d601f19601f8201168201806040525081019062000400919062000bce565b5060265460255460405163095ea7b360e01b81526001600160a01b039182166004820152600019602482015291169063095ea7b3906044016020604051808303816000875af115801562000458573d6000803e3d6000fd5b505050506040513d601f19601f820116820180604052508101906200047e919062000bce565b506024805460405163095ea7b360e01b81526001600160a01b03909116600482018190526000199282019290925263095ea7b3906044016020604051808303816000875af1158015620004d5573d6000803e3d6000fd5b505050506040513d601f19601f82011682018060405250810190620004fb919062000bce565b505060006036555050505050505050565b6200052382826200055d60201b62002f221760201c565b60008281526001602090815260409091206200054a91839062002fa6620005fd821b17901c565b505050565b620000c360028281620006e2565b6000828152602081815260408083206001600160a01b038516845290915290205460ff16620000c3576000828152602081815260408083206001600160a01b03851684529091529020805460ff19166001179055620005b93390565b6001600160a01b0316816001600160a01b0316837f2f8788117e7eff1d82e926ec794901d17c78024a50270940304540a733656f0d60405160405180910390a45050565b600062000614836001600160a01b0384166200061d565b90505b92915050565b6000818152600183016020526040812054620006665750815460018181018455600084815260208082209093018490558454848252828601909352604090209190915562000617565b50600062000617565b8260048101928215620006a0579160200282015b82811115620006a057825182559160200191906001019062000683565b50620006ae9291506200072d565b5090565b8260028101928215620006a05791602002820182811115620006a057825182559160200191906001019062000683565b8260028101928215620006a0579160200282015b82811115620006a057825182546001600160a01b0319166001600160a01b03909116178255602090920191600190910190620006f6565b5b80821115620006ae57600081556001016200072e565b634e487b7160e01b600052604160045260246000fd5b604080519081016001600160401b03811182821017156200077f576200077f62000744565b60405290565b604051601f8201601f191681016001600160401b0381118282101715620007b057620007b062000744565b604052919050565b600082601f830112620007ca57600080fd5b604051608081016001600160401b0381118282101715620007ef57620007ef62000744565b6040528060808401858111156200080557600080fd5b845b818110156200082157805183526020928301920162000807565b509195945050505050565b6001600160a01b03811681146200084257600080fd5b50565b805162000852816200082c565b919050565b600082601f8301126200086957600080fd5b620008736200075a565b8060408401858111156200088657600080fd5b845b81811015620008a257805184526020938401930162000888565b509095945050505050565b600080600080600080600080610200898b031215620008cb57600080fd5b88516001600160401b0380821115620008e357600080fd5b818b0191508b601f830112620008f857600080fd5b8151818111156200090d576200090d62000744565b6020915062000925601f8201601f1916830162000785565b8181528d838386010111156200093a57600080fd5b60005b828110156200095a5784810184015182820185015283016200093d565b506000838383010152809b505050620009768c828d01620007b8565b98505050620009898a60a08b01620007b8565b95506200099a6101208a0162000845565b9450620009ac8a6101408b0162000857565b93506101808901519250620009c68a6101a08b0162000857565b9150620009d76101e08a0162000845565b90509295985092959890939650565b600181811c90821680620009fb57607f821691505b60208210810362000a1c57634e487b7160e01b600052602260045260246000fd5b50919050565b601f8211156200054a57600081815260208120601f850160051c8101602086101562000a4b5750805b601f850160051c820191505b8181101562000a6c5782815560010162000a57565b505050505050565b81516001600160401b0381111562000a905762000a9062000744565b62000aa88162000aa18454620009e6565b8462000a22565b602080601f83116001811462000ae0576000841562000ac75750858301515b600019600386901b1c1916600185901b17855562000a6c565b600085815260208120601f198616915b8281101562000b115788860151825594840194600190910190840162000af0565b508582101562000b305787850151600019600388901b60f8161c191681555b5050505050600190811b01905550565b60006040828403121562000b5357600080fd5b82601f83011262000b6357600080fd5b62000b6d6200075a565b80604084018581111562000b8057600080fd5b845b81811015620008a257805162000b98816200082c565b84526020938401930162000b82565b60006020828403121562000bba57600080fd5b815162000bc7816200082c565b9392505050565b60006020828403121562000be157600080fd5b8151801515811462000bc757600080fd5b615a5d8062000c026000396000f3fe608060405234801561001057600080fd5b50600436106104735760003560e01c80636b20c45411610257578063ca7b244711610146578063e0adca1b116100c3578063f242432a11610087578063f242432a14610a1d578063f3430a1614610a30578063f5298aca14610a43578063fd18a25314610a56578063fdea8e0b14610a6957600080fd5b8063e0adca1b1461098c578063e63ab1e91461099f578063e985e9c5146109c6578063f03f1e5114610a02578063f0b2df8914610a0a57600080fd5b8063d53913931161010a578063d539139314610919578063d547741f14610940578063d63a6ccd14610953578063deef94de14610966578063df71da761461097957600080fd5b8063ca7b2447146108a7578063ced79ce0146108ba578063d0d5a1ba146108eb578063d36122b8146108fe578063d36dfac81461090657600080fd5b80638456cb59116101d4578063a1f5c23911610198578063a1f5c23914610851578063a217fddf14610859578063a22cb46514610861578063bd85b03914610874578063ca15c8731461089457600080fd5b80638456cb5914610808578063869f7594146108105780638d3bd55b146108235780639010d07c1461082b57806391d148541461083e57600080fd5b8063780069e01161021b578063780069e0146107aa5780637ad71f72146107b35780637dfe5914146107c65780637e93391a146107f757806380a3a783146107ff57600080fd5b80636b20c454146107715780636d6689ea146107845780636e748f97146107845780636ed93dd01461078c578063731133e91461079757600080fd5b80632e2a31d4116103735780634e1273f4116102f0578063592fa65e116102b4578063592fa65e1461071a5780635c975abb1461072d5780635e95b4fe1461073857806365011c101461074b5780636ac600681461075e57600080fd5b80634e1273f4146106b75780634f558e79146106ca57806351ba5b44146106ec57806352a1ad54146106f457806353f7ffd21461070757600080fd5b806337f1e7f21161033757806337f1e7f21461064b5780633f4ba83a1461065e578063418f7c51146106665780634407a61e146106795780634b3fd05a1461068c57600080fd5b80632e2a31d4146106025780632eb2c2d61461060a5780632f2ff15d1461061d578063343937431461063057806336568abe1461063857600080fd5b8063104304f3116104015780631f7fdffa116103c55780631f7fdffa1461059c57806323f77fa9146105b1578063248a9ca3146105c457806326a49e37146105e75780632c13f08c146105fa57600080fd5b8063104304f31461054f5780631623025714610564578063168affdf1461056c5780631729c14f1461058c5780631a5e85e51461059457600080fd5b806304a3adf71161044857806304a3adf7146104dd57806304ca4c07146104e657806305adca38146104f957806306fdde03146105015780630e89341c1461053c57600080fd5b8062a13c4c14610478578062fdd58e1461049457806301ffc9a7146104a757806303b2add0146104ca575b600080fd5b610481602b5481565b6040519081526020015b60405180910390f35b6104816104a2366004614826565b610a7d565b6104ba6104b5366004614868565b610b18565b604051901515815260200161048b565b6104816104d8366004614885565b610b23565b61048160235481565b6104816104f436600461489e565b610b3a565b610481610b5f565b61052f6040518060400160405280600f81526020016e14d8599948165a595b191cc8139195608a1b81525081565b60405161048b9190614910565b61052f61054a366004614885565b610bbe565b610557610c52565b60405161048b919061495e565b610481610ccf565b61048161057a366004614885565b60376020526000908152604090205481565b610557610d66565b610481610e24565b6105af6105aa366004614ade565b610e5f565b005b6105576105bf366004614b78565b610eb7565b6104816105d2366004614885565b60009081526020819052604090206001015490565b6104816105f5366004614885565b610f23565b610557610f33565b610557610faa565b6105af610618366004614b95565b611067565b6105af61062b366004614c42565b6110b3565b6105af6110dd565b6105af610646366004614c42565b61116a565b610481610659366004614c86565b6111e8565b6105af611216565b610481610674366004614ca1565b6112bc565b6105af610687366004614cdf565b611389565b60245461069f906001600160a01b031681565b6040516001600160a01b03909116815260200161048b565b6105576106c5366004614d9a565b611505565b6104ba6106d8366004614885565b600090815260086020526040902054151590565b61048161162e565b61048161070236600461489e565b6116b1565b6105af610715366004614e66565b6116d3565b61048161072836600461489e565b6117fa565b60075460ff166104ba565b61048161074636600461489e565b611816565b602c5461069f906001600160a01b031681565b6105af61076c366004614f1e565b611832565b6105af61077f366004614feb565b611c87565b610481600481565b6104816305f5e10081565b6105af6107a5366004615060565b611cca565b61048160365481565b61069f6107c1366004614885565b611d1c565b6104816107d43660046150b6565b602d60209081526000938452604080852082529284528284209052825290205481565b610481611d3c565b61048160225481565b6105af611ed5565b61048161081e366004614885565b611f79565b610481600281565b61069f61083936600461489e565b611f89565b6104ba61084c366004614c42565b611fa8565b610557611fd1565b610481600081565b6105af61086f3660046150f9565b611fdd565b610481610882366004614885565b60009081526008602052604090205490565b6104816108a2366004614885565b611fe8565b6104816108b5366004614885565b611fff565b6104816108c8366004615127565b603a60209081526000938452604080852082529284528284209052825290205481565b6105af6108f9366004615160565b61200f565b6105af61295e565b6105af610914366004614885565b6129c9565b6104817f9f2df0fed2c77648de5860a4cc508cd0818c85b8b8a1ab4ceeef8d981c8956a681565b6105af61094e366004614c42565b612cdf565b60265461069f906001600160a01b031681565b60255461069f906001600160a01b031681565b610481610987366004614885565b612d04565b6105af61099a36600461489e565b612d14565b6104817f65d7a28e3265b37a6474929f336521b332c1681b933f6cb9f3376673440d862a81565b6104ba6109d4366004615195565b6001600160a01b03918216600090815260056020908152604080832093909416825291909152205460ff1690565b610481612d46565b610481610a18366004614c86565b612dae565b6105af610a2b3660046151c3565b612e56565b6105af610a3e36600461522b565b612e9b565b6105af610a513660046150b6565b612ecf565b610481610a64366004614885565b612f12565b602c546104ba90600160a01b900460ff1681565b60006001600160a01b038316610aed5760405162461bcd60e51b815260206004820152602a60248201527f455243313135353a2061646472657373207a65726f206973206e6f742061207660448201526930b634b21037bbb732b960b11b60648201526084015b60405180910390fd5b5060008181526004602090815260408083206001600160a01b03861684529091529020545b92915050565b6000610b1282612fbb565b60328160048110610b3357600080fd5b0154905081565b60386020528160005260406000208160048110610b5657600080fd5b01549150829050565b602c54600090600160a01b900460ff168015610b7d57506000602254115b8015610b8a575042602254105b610b945750600090565b602354602254610ba4904261525d565b610bae9190615270565b610bb9906001615292565b905090565b606060068054610bcd906152a5565b80601f0160208091040260200160405190810160405280929190818152602001828054610bf9906152a5565b8015610c465780601f10610c1b57610100808354040283529160200191610c46565b820191906000526020600020905b815481529060010190602001808311610c2957829003601f168201915b50505050509050919050565b60408051600480825260a08201909252606091600091906020820160808036833701905050905060005b6004811015610cc957600a8160048110610c9857610c986152d9565b0154828281518110610cac57610cac6152d9565b602090810291909101015280610cc1816152ef565b915050610c7c565b50919050565b600080805b6004811015610cc95760005b6036548111610d53576000818152603b602052604090208260048110610d0857610d086152d9565b015460008281526038602052604090208360048110610d2957610d296152d9565b0154610d35919061525d565b610d3f9084615292565b925080610d4b816152ef565b915050610ce0565b5080610d5e816152ef565b915050610cd4565b60606000610d72610b5f565b90506004811115610d8b57610d85610c52565b91505090565b60408051600480825260a082019092526000916020820160808036833701905050905060005b6004811015610e1d57600e610dc760018561525d565b60048110610dd757610dd76152d9565b600402018160048110610dec57610dec6152d9565b0154828281518110610e0057610e006152d9565b602090810291909101015280610e15816152ef565b915050610db1565b5092915050565b600080805b6004811015610cc957600081815260086020526040902054610e4b9083615292565b915080610e57816152ef565b915050610e29565b610e897f9f2df0fed2c77648de5860a4cc508cd0818c85b8b8a1ab4ceeef8d981c8956a633611fa8565b610ea55760405162461bcd60e51b8152600401610ae490615308565b610eb184848484612fc6565b50505050565b60408051600480825260a08201909252606091600091906020820160808036833701905050905060005b6004811015610e1d57610ef48482610a7d565b828281518110610f0657610f066152d9565b602090810291909101015280610f1b816152ef565b915050610ee1565b600a8160048110610b3357600080fd5b60408051600480825260a08201909252606091600091906020820160808036833701905050905060005b6004811015610cc957610f7b816003811115610a1857610a18615365565b828281518110610f8d57610f8d6152d9565b602090810291909101015280610fa2816152ef565b915050610f5d565b60606000610fb6610b5f565b60408051600480825260a08201909252919250600091906020820160808036833701905050905060005b6004811015610e1d57600483116110355760328160048110611004576110046152d9565b015483602e836004811061101a5761101a6152d9565b0154611026919061537b565b611030919061525d565b611038565b60005b82828151811061104a5761104a6152d9565b60209081029190910101528061105f816152ef565b915050610fe0565b6001600160a01b038516331480611083575061108385336109d4565b61109f5760405162461bcd60e51b8152600401610ae490615392565b6110ac8585858585613130565b5050505050565b6000828152602081905260409020600101546110ce816132eb565b6110d883836132f5565b505050565b6110e8600033611fa8565b6111045760405162461bcd60e51b8152600401610ae4906153e0565b602c805460ff600160a01b808304821615810260ff60a01b1990931692909217928390556040517f512e257b3133a95bd1fef520dafc0dfb212f406af4f808d030e788c8ff536c04936111609390049091161515815260200190565b60405180910390a1565b6001600160a01b03811633146111da5760405162461bcd60e51b815260206004820152602f60248201527f416363657373436f6e74726f6c3a2063616e206f6e6c792072656e6f756e636560448201526e103937b632b9903337b91039b2b63360891b6064820152608401610ae4565b6111e48282613317565b5050565b6000600a8260038111156111fe576111fe615365565b6004811061120e5761120e6152d9565b015492915050565b6112407f65d7a28e3265b37a6474929f336521b332c1681b933f6cb9f3376673440d862a33611fa8565b6112b25760405162461bcd60e51b815260206004820152603b60248201527f455243313135355072657365744d696e7465725061757365723a206d7573742060448201527f686176652070617573657220726f6c6520746f20756e706175736500000000006064820152608401610ae4565b6112ba613339565b565b6000808360038111156112d1576112d1615365565b60365460009081526038602052604081209192509082600481106112f7576112f76152d9565b015460008381526008602052604081205491925090156113435760008381526008602052604090205461132a8885610a7d565b611334908461537b565b61133e9190615270565b611346565b60005b6000868152603a6020908152604080832087845282528083206001600160a01b038c16845290915290205490915061137e908261525d565b979650505050505050565b611394600033611fa8565b6113b05760405162461bcd60e51b8152600401610ae4906153e0565b60048151146114015760405162461bcd60e51b815260206004820152601960248201527f496e636f7272656374206e756d626572206f66207765656b73000000000000006044820152606401610ae4565b60005b60048110156111e4576004828281518110611421576114216152d9565b602002602001015151146114775760405162461bcd60e51b815260206004820152601960248201527f496e636f7272656374206e756d626572206f66207469657273000000000000006044820152606401610ae4565b60005b60048110156114f257828281518110611495576114956152d9565b602002602001015181815181106114ae576114ae6152d9565b6020026020010151600e83600481106114c9576114c96152d9565b6004020182600481106114de576114de6152d9565b0155806114ea816152ef565b91505061147a565b50806114fd816152ef565b915050611404565b6060815183511461156a5760405162461bcd60e51b815260206004820152602960248201527f455243313135353a206163636f756e747320616e6420696473206c656e677468604482015268040dad2e6dac2e8c6d60bb1b6064820152608401610ae4565b600083516001600160401b0381111561158557611585614971565b6040519080825280602002602001820160405280156115ae578160200160208202803683370190505b50905060005b8451811015611626576115f98582815181106115d2576115d26152d9565b60200260200101518583815181106115ec576115ec6152d9565b6020026020010151610a7d565b82828151811061160b5761160b6152d9565b602090810291909101015261161f816152ef565b90506115b4565b509392505050565b60003381805b600481101561168457600a8160048110611650576116506152d9565b015461165c8483610a7d565b611666919061537b565b6116709083615292565b91508061167c816152ef565b915050611634565b50600061168f611d3c565b905080156116a6576116a18183615270565b6116a9565b60005b935050505090565b600e82600481106116c157600080fd5b600402018160048110610b5657600080fd5b6116db613386565b3360006116e98285856112bc565b60265460405163a9059cbb60e01b81526001600160a01b038581166004830152602482018490529293506000929091169063a9059cbb906044016020604051808303816000875af1158015611742573d6000803e3d6000fd5b505050506040513d601f19601f82011682018060405250810190611766919061542f565b9050806117855760405162461bcd60e51b8152600401610ae49061544c565b6000848152603a6020526040812083918760038111156117a7576117a7615365565b81526020019081526020016000206000856001600160a01b03166001600160a01b0316815260200190815260200160002060008282546117e79190615292565b90915550506001600955506111e4915050565b603b6020528160005260406000208160048110610b5657600080fd5b60396020528160005260406000208160048110610b5657600080fd5b600061185c7fb53127684a568b3173ae13b9f8a6016e243e63b6e8ee1178d6a717850b5d61035490565b90506001600160a01b03811661189b576001600160a01b037fb53127684a568b3173ae13b9f8a6016e243e63b6e8ee1178d6a717850b5d6103556118b0565b336001600160a01b038216146118b057600080fd5b6118b9896133df565b6118c46000336133eb565b6118ee7f9f2df0fed2c77648de5860a4cc508cd0818c85b8b8a1ab4ceeef8d981c8956a6336133eb565b6119187f65d7a28e3265b37a6474929f336521b332c1681b933f6cb9f3376673440d862a336133eb565b611925600a896004614749565b50611933601e886004614749565b50602480546001600160a01b0319166001600160a01b03881617905561195c6027866002614787565b50602b84905561196f6029846002614787565b50602c80546001600160a01b0319166001600160a01b03848116919091179091556024546040805163db7a460560e01b815281516119fd94939093169263db7a4605926004808401939192918290030181865afa1580156119d4573d6000803e3d6000fd5b505050506040513d601f19601f820116820180604052508101906119f8919061547b565b6133f5565b602460009054906101000a90046001600160a01b03166001600160a01b031663deef94de6040518163ffffffff1660e01b8152600401602060405180830381865afa158015611a50573d6000803e3d6000fd5b505050506040513d601f19601f82011682018060405250810190611a7491906154dd565b602580546001600160a01b0319166001600160a01b039283161790556024546040805163d63a6ccd60e01b81529051919092169163d63a6ccd9160048083019260209291908290030181865afa158015611ad2573d6000803e3d6000fd5b505050506040513d601f19601f82011682018060405250810190611af691906154dd565b602680546001600160a01b0319166001600160a01b039283169081179091556024805460405163095ea7b360e01b815293166004840152600019908301529063095ea7b3906044016020604051808303816000875af1158015611b5d573d6000803e3d6000fd5b505050506040513d601f19601f82011682018060405250810190611b81919061542f565b5060265460255460405163095ea7b360e01b81526001600160a01b039182166004820152600019602482015291169063095ea7b3906044016020604051808303816000875af1158015611bd8573d6000803e3d6000fd5b505050506040513d601f19601f82011682018060405250810190611bfc919061542f565b506024805460405163095ea7b360e01b81526001600160a01b03909116600482018190526000199282019290925263095ea7b3906044016020604051808303816000875af1158015611c52573d6000803e3d6000fd5b505050506040513d601f19601f82011682018060405250810190611c76919061542f565b505060006036555050505050505050565b6001600160a01b038316331480611ca35750611ca383336109d4565b611cbf5760405162461bcd60e51b8152600401610ae490615392565b6110d8838383613401565b611cf47f9f2df0fed2c77648de5860a4cc508cd0818c85b8b8a1ab4ceeef8d981c8956a633611fa8565b611d105760405162461bcd60e51b8152600401610ae490615308565b610eb1848484846135aa565b60028160028110611d2c57600080fd5b01546001600160a01b0316905081565b6000620f4240602460009054906101000a90046001600160a01b03166001600160a01b031663a035b1fe6040518163ffffffff1660e01b8152600401602060405180830381865afa158015611d95573d6000803e3d6000fd5b505050506040513d601f19601f82011682018060405250810190611db991906154fa565b6024546001600160a01b03166370a0823160026000015460405160e083901b6001600160e01b03191681526001600160a01b039091166004820152602401602060405180830381865afa158015611e14573d6000803e3d6000fd5b505050506040513d601f19601f82011682018060405250810190611e3891906154fa565b611e42919061537b565b611e4c9190615270565b6026546001600160a01b03166370a0823160026000015460405160e083901b6001600160e01b03191681526001600160a01b039091166004820152602401602060405180830381865afa158015611ea7573d6000803e3d6000fd5b505050506040513d601f19601f82011682018060405250810190611ecb91906154fa565b610bb99190615292565b611eff7f65d7a28e3265b37a6474929f336521b332c1681b933f6cb9f3376673440d862a33611fa8565b611f715760405162461bcd60e51b815260206004820152603960248201527f455243313135355072657365744d696e7465725061757365723a206d7573742060448201527f686176652070617573657220726f6c6520746f207061757365000000000000006064820152608401610ae4565b6112ba6136a4565b601e8160048110610b3357600080fd5b6000828152600160205260408120611fa190836136e1565b9392505050565b6000918252602082815260408084206001600160a01b0393909316845291905290205460ff1690565b606033610d8581610eb7565b6111e43383836136ed565b6000818152600160205260408120610b12906137cd565b60298160028110610b3357600080fd5b612017613386565b6000821161208d5760405162461bcd60e51b815260206004820152603960248201527f45205243313135355072657365744d696e7465725061757365723a20616d6f7560448201527f6e74206d7573742062652067726561746572207468616e2030000000000000006064820152608401610ae4565b6000600a8460038111156120a3576120a3615365565b600481106120b3576120b36152d9565b0154116121285760405162461bcd60e51b815260206004820152603c60248201527f455243313135355072657365744d696e7465725061757365723a20746965722060448201527f7072696365206d7573742062652067726561746572207468616e2030000000006064820152608401610ae4565b6001600160a01b0381161580159080612152575080801561215257506001600160a01b0382163314155b6121ad5760405162461bcd60e51b815260206004820152602660248201527f526566657272616c206d75737420626520646966666572656e742066726f6d2060448201526539b2b73232b960d11b6064820152608401610ae4565b60008460038111156121c1576121c1615365565b602c54909150600160a01b900460ff1661248057600084600a8760038111156121ec576121ec615365565b600481106121fc576121fc6152d9565b0154612208919061537b565b6026549091506000906001600160a01b03166323b872dd336040516001600160e01b031960e084901b1681526001600160a01b039091166004820152306024820152604481018590526064016020604051808303816000875af1158015612273573d6000803e3d6000fd5b505050506040513d601f19601f82011682018060405250810190612297919061542f565b9050806122b65760405162461bcd60e51b8152600401610ae49061544c565b60006122d2836027876122ca5760006137d7565b602b546137d7565b6024805460405163f7e0ba5f60e01b8152600481018490529293506000926001600160a01b039091169163f7e0ba5f91016020604051808303816000875af1158015612322573d6000803e3d6000fd5b505050506040513d601f19601f8201168201806040525081019061234691906154fa565b602454909150600090612364906001600160a01b0316836027613848565b905086156123a1576000612391602460009054906101000a90046001600160a01b0316848b602b54613946565b905061239d8183615292565b9150505b6026546040516370a0823160e01b81523060048201526000916001600160a01b0316906370a0823190602401602060405180830381865afa1580156123ea573d6000803e3d6000fd5b505050506040513d601f19601f8201168201806040525081019061240e91906154fa565b905080156124755760255460405163b6b55f2560e01b8152600481018390526001600160a01b039091169063b6b55f2590602401600060405180830381600087803b15801561245c57600080fd5b505af1158015612470573d6000803e3d6000fd5b505050505b505050505050612937565b6022544210156124d25760405162461bcd60e51b815260206004820152601a60248201527f50726573616c65206973206e6f742073746172746564207965740000000000006044820152606401610ae4565b60006124dc610b5f565b905060048111156125215760405162461bcd60e51b815260206004820152600f60248201526e283932b9b0b6329034b99037bb32b960891b6044820152606401610ae4565b6000600e61253060018461525d565b60048110612540576125406152d9565b60408051608081019182905292600492830201919082845b815481526020019060010190808311612558575050505050905085602d600061257e3390565b6001600160a01b03166001600160a01b03168152602001908152602001600020600084815260200190815260200160002060008960038111156125c3576125c3615365565b815260200190815260200160002060008282546125e09190615292565b9091555086905060328860038111156125fb576125fb615365565b6004811061260b5761260b6152d9565b01600082825461261b9190615292565b90915550829050602e88600381111561263657612636615365565b60048110612646576126466152d9565b0154612652919061537b565b603288600381111561266657612666615365565b60048110612676576126766152d9565b015411156126d25760405162461bcd60e51b815260206004820152602360248201527f50726573616c65206d617820737570706c7920706572207765656b20726561636044820152621a195960ea1b6064820152608401610ae4565b600086828960038111156126e8576126e8615365565b600481106126f8576126f86152d9565b6020020151612707919061537b565b6026549091506000906001600160a01b03166323b872dd336040516001600160e01b031960e084901b1681526001600160a01b039091166004820152306024820152604481018590526064016020604051808303816000875af1158015612772573d6000803e3d6000fd5b505050506040513d601f19601f82011682018060405250810190612796919061542f565b9050806127b55760405162461bcd60e51b8152600401610ae49061544c565b85156127de57602654602b546127d8916001600160a01b03169084908a90613946565b5061280b565b602654612809906001600160a01b031683600260000154602b546001600160a01b0390911690613946565b505b602654612823906001600160a01b0316836027613848565b506026546040516370a0823160e01b81523060048201526000916001600160a01b0316906370a0823190602401602060405180830381865afa15801561286d573d6000803e3d6000fd5b505050506040513d601f19601f8201168201806040525081019061289191906154fa565b9050801561293157602654602c5460405163a9059cbb60e01b81526001600160a01b0391821660048201526024810184905291169063a9059cbb906044016020604051808303816000875af11580156128ee573d6000803e3d6000fd5b505050506040513d601f19601f82011682018060405250810190612912919061542f565b9150816129315760405162461bcd60e51b8152600401610ae49061544c565b50505050505b612952338286604051806020016040528060008152506135aa565b50506110d86001600955565b612966613386565b60005b60048110156129be5760005b60365481116129ab5761299982600381111561299357612993615365565b826116d3565b806129a3816152ef565b915050612975565b50806129b6816152ef565b915050612969565b506112ba6001600955565b6129d1613386565b6026546000906001600160a01b03166323b872dd336040516001600160e01b031960e084901b1681526001600160a01b039091166004820152306024820152604481018590526064016020604051808303816000875af1158015612a39573d6000803e3d6000fd5b505050506040513d601f19601f82011682018060405250810190612a5d919061542f565b905080612a7c5760405162461bcd60e51b8152600401610ae49061544c565b6000612a89600284615270565b90506000612aa3612a9a838661525d565b602960006137d7565b6024805460405163f7e0ba5f60e01b8152600481018490529293506000926001600160a01b039091169163f7e0ba5f91016020604051808303816000875af1158015612af3573d6000803e3d6000fd5b505050506040513d601f19601f82011682018060405250810190612b1791906154fa565b602454909150600090612b35906001600160a01b0316836029613848565b603680549192506000612b47836152ef565b90915550506036546000908152603760205260408120829055612b68610e24565b905060005b6004811015612bf6576000818152600860209081526040808320546036548452603990925290912081908360048110612ba857612ba86152d9565b015582612bb5828961537b565b612bbf9190615270565b60365460009081526038602052604090208360048110612be157612be16152d9565b01555080612bee816152ef565b915050612b6d565b506026546040516370a0823160e01b81523060048201526000916001600160a01b0316906370a0823190602401602060405180830381865afa158015612c40573d6000803e3d6000fd5b505050506040513d601f19601f82011682018060405250810190612c6491906154fa565b90508015612ccb5760255460405163b6b55f2560e01b8152600481018390526001600160a01b039091169063b6b55f2590602401600060405180830381600087803b158015612cb257600080fd5b505af1158015612cc6573d6000803e3d6000fd5b505050505b50505050505050612cdc6001600955565b50565b600082815260208190526040902060010154612cfa816132eb565b6110d88383613317565b60278160028110610b3357600080fd5b612d1f600033611fa8565b612d3b5760405162461bcd60e51b8152600401610ae4906153e0565b602291909155602355565b60003381805b6004811015610e1d5760005b6036548111612d9b57612d7d84836003811115612d7757612d77615365565b836112bc565b612d879084615292565b925080612d93816152ef565b915050612d58565b5080612da6816152ef565b915050612d4c565b6000612dc582600381111561088257610882615365565b15612de457612ddf82600381111561088257610882615365565b612de7565b60015b6036546000908152603860205260409020836003811115612e0a57612e0a615365565b60048110612e1a57612e1a6152d9565b0154612e269190615270565b600a836003811115612e3a57612e3a615365565b60048110612e4a57612e4a6152d9565b0154610b129190615292565b6001600160a01b038516331480612e725750612e7285336109d4565b612e8e5760405162461bcd60e51b8152600401610ae490615392565b6110ac8585858585613aab565b612ea6600033611fa8565b612ec25760405162461bcd60e51b8152600401610ae4906153e0565b6111e4602e826004614749565b6001600160a01b038316331480612eeb5750612eeb83336109d4565b612f075760405162461bcd60e51b8152600401610ae490615392565b6110d8838383613bf5565b602e8160048110610b3357600080fd5b612f2c8282611fa8565b6111e4576000828152602081815260408083206001600160a01b03851684529091529020805460ff19166001179055612f623390565b6001600160a01b0316816001600160a01b0316837f2f8788117e7eff1d82e926ec794901d17c78024a50270940304540a733656f0d60405160405180910390a45050565b6000611fa1836001600160a01b038416613d1b565b6000610b1282613d6a565b6001600160a01b038416612fec5760405162461bcd60e51b8152600401610ae490615513565b815183511461300d5760405162461bcd60e51b8152600401610ae490615554565b3361301d81600087878787613daa565b60005b84518110156130b95783818151811061303b5761303b6152d9565b602002602001015160046000878481518110613059576130596152d9565b602002602001015181526020019081526020016000206000886001600160a01b03166001600160a01b0316815260200190815260200160002060008282546130a19190615292565b909155508190506130b1816152ef565b915050613020565b50846001600160a01b031660006001600160a01b0316826001600160a01b03167f4a39dc06d4c0dbc64b70af90fd698a233a518aa5d07e595d983b8c0526c8f7fb878760405161310a92919061559c565b60405180910390a461312181600087878787613db8565b6110ac81600087878787613e6a565b81518351146131515760405162461bcd60e51b8152600401610ae490615554565b6001600160a01b0384166131775760405162461bcd60e51b8152600401610ae4906155ca565b33613186818787878787613daa565b60005b845181101561326f5760008582815181106131a6576131a66152d9565b6020026020010151905060008583815181106131c4576131c46152d9565b60209081029190910181015160008481526004835260408082206001600160a01b038e1683529093529190912054909150818110156132155760405162461bcd60e51b8152600401610ae49061560f565b60008381526004602090815260408083206001600160a01b038e8116855292528083208585039055908b16825281208054849290613254908490615292565b9250508190555050505080613268906152ef565b9050613189565b50846001600160a01b0316866001600160a01b0316826001600160a01b03167f4a39dc06d4c0dbc64b70af90fd698a233a518aa5d07e595d983b8c0526c8f7fb87876040516132bf92919061559c565b60405180910390a46132d5818787878787613db8565b6132e3818787878787613e6a565b505050505050565b612cdc8133613fc5565b6132ff8282612f22565b60008281526001602052604090206110d89082612fa6565b613321828261401e565b60008281526001602052604090206110d89082614083565b613341614098565b6007805460ff191690557f5db9ee0a495bf2e6ff9c91a7834c1ba4fdd244a5e8aa4e537bd38aeae4b073aa335b6040516001600160a01b039091168152602001611160565b6002600954036133d85760405162461bcd60e51b815260206004820152601f60248201527f5265656e7472616e637947756172643a207265656e7472616e742063616c6c006044820152606401610ae4565b6002600955565b60066111e4828261569f565b6111e482826132f5565b6111e4600282816147b4565b6001600160a01b0383166134275760405162461bcd60e51b8152600401610ae49061575e565b80518251146134485760405162461bcd60e51b8152600401610ae490615554565b600033905061346b81856000868660405180602001604052806000815250613daa565b60005b835181101561353357600084828151811061348b5761348b6152d9565b6020026020010151905060008483815181106134a9576134a96152d9565b60209081029190910181015160008481526004835260408082206001600160a01b038c1683529093529190912054909150818110156134fa5760405162461bcd60e51b8152600401610ae4906157a1565b60009283526004602090815260408085206001600160a01b038b168652909152909220910390558061352b816152ef565b91505061346e565b5060006001600160a01b0316846001600160a01b0316826001600160a01b03167f4a39dc06d4c0dbc64b70af90fd698a233a518aa5d07e595d983b8c0526c8f7fb868660405161358492919061559c565b60405180910390a4610eb181856000868660405180602001604052806000815250613db8565b6001600160a01b0384166135d05760405162461bcd60e51b8152600401610ae490615513565b3360006135dc856140e1565b905060006135e9856140e1565b90506135fa83600089858589613daa565b60008681526004602090815260408083206001600160a01b038b1684529091528120805487929061362c908490615292565b909155505060408051878152602081018790526001600160a01b03808a1692600092918716917fc3d58168c5ae7397731d063d5bbf3d657854427343f4c083240f7aacaa2d0f62910160405180910390a461368c83600089858589613db8565b61369b8360008989898961412c565b50505050505050565b6136ac6141e7565b6007805460ff191660011790557f62e78cea01bee320cd4e420270b5ea74000d11b0c9f74754ebdbfc544b05a25861336e3390565b6000611fa1838361422d565b816001600160a01b0316836001600160a01b0316036137605760405162461bcd60e51b815260206004820152602960248201527f455243313135353a2073657474696e6720617070726f76616c20737461747573604482015268103337b91039b2b63360b91b6064820152608401610ae4565b6001600160a01b03838116600081815260056020908152604080832094871680845294825291829020805460ff191686151590811790915591519182527f17307eab39ab6107e8899845ad3d59bd9653f200f220920489ca2b5937696c31910160405180910390a3505050565b6000610b12825490565b6000806002815b81811015613818578581600281106137f8576137f86152d9565b01546138049084615292565b925080613810816152ef565b9150506137de565b506138238483615292565b91506305f5e100613834838861537b565b61383e9190615270565b9695505050505050565b600080805b600281101561393d5760006305f5e10085836002811061386f5761386f6152d9565b015461387b908861537b565b6138859190615270565b9050866001600160a01b031663a9059cbb600284600281106138a9576138a96152d9565b015460405160e083901b6001600160e01b03191681526001600160a01b039091166004820152602481018490526044016020604051808303816000875af11580156138f8573d6000803e3d6000fd5b505050506040513d601f19601f8201168201806040525081019061391c919061542f565b506139278184615292565b9250508080613935906152ef565b91505061384d565b50949350505050565b6040516370a0823160e01b815230600482015260009081906001600160a01b038716906370a0823190602401602060405180830381865afa15801561398f573d6000803e3d6000fd5b505050506040513d601f19601f820116820180604052508101906139b391906154fa565b905060006305f5e1006139c6858861537b565b6139d09190615270565b905080821015613a2d5760405162461bcd60e51b815260206004820152602260248201527f4e6f7420656e6f7567682062616c616e6365206f6e2074686520636f6e74726160448201526118dd60f21b6064820152608401610ae4565b60405163a9059cbb60e01b81526001600160a01b0386811660048301526024820183905288169063a9059cbb906044016020604051808303816000875af1158015613a7c573d6000803e3d6000fd5b505050506040513d601f19601f82011682018060405250810190613aa0919061542f565b509695505050505050565b6001600160a01b038416613ad15760405162461bcd60e51b8152600401610ae4906155ca565b336000613add856140e1565b90506000613aea856140e1565b9050613afa838989858589613daa565b60008681526004602090815260408083206001600160a01b038c16845290915290205485811015613b3d5760405162461bcd60e51b8152600401610ae49061560f565b60008781526004602090815260408083206001600160a01b038d8116855292528083208985039055908a16825281208054889290613b7c908490615292565b909155505060408051888152602081018890526001600160a01b03808b16928c821692918816917fc3d58168c5ae7397731d063d5bbf3d657854427343f4c083240f7aacaa2d0f62910160405180910390a4613bdc848a8a86868a613db8565b613bea848a8a8a8a8a61412c565b505050505050505050565b6001600160a01b038316613c1b5760405162461bcd60e51b8152600401610ae49061575e565b336000613c27846140e1565b90506000613c34846140e1565b9050613c5483876000858560405180602001604052806000815250613daa565b60008581526004602090815260408083206001600160a01b038a16845290915290205484811015613c975760405162461bcd60e51b8152600401610ae4906157a1565b60008681526004602090815260408083206001600160a01b038b81168086529184528285208a8703905582518b81529384018a90529092908816917fc3d58168c5ae7397731d063d5bbf3d657854427343f4c083240f7aacaa2d0f62910160405180910390a461369b84886000868660405180602001604052806000815250613db8565b6000818152600183016020526040812054613d6257508154600181810184556000848152602080822090930184905584548482528286019093526040902091909155610b12565b506000610b12565b60006001600160e01b03198216636cdb3d1360e11b1480613d9b57506001600160e01b031982166303a24d0760e21b145b80610b125750610b1282614257565b6132e386868686868661427c565b601e83600081518110613dcd57613dcd6152d9565b602002602001015160048110613de557613de56152d9565b0154613e1784600081518110613dfd57613dfd6152d9565b602002602001015160009081526008602052604090205490565b1115613e655760405162461bcd60e51b815260206004820152601b60248201527f536166654e46543a206d617820737570706c79207265616368656400000000006044820152606401610ae4565b6132e3565b6001600160a01b0384163b156132e35760405163bc197c8160e01b81526001600160a01b0385169063bc197c8190613eae90899089908890889088906004016157e5565b6020604051808303816000875af1925050508015613ee9575060408051601f3d908101601f19168201909252613ee691810190615843565b60015b613f9557613ef5615860565b806308c379a003613f2e5750613f0961587c565b80613f145750613f30565b8060405162461bcd60e51b8152600401610ae49190614910565b505b60405162461bcd60e51b815260206004820152603460248201527f455243313135353a207472616e7366657220746f206e6f6e2d455243313135356044820152732932b1b2b4bb32b91034b6b83632b6b2b73a32b960611b6064820152608401610ae4565b6001600160e01b0319811663bc197c8160e01b1461369b5760405162461bcd60e51b8152600401610ae490615905565b613fcf8282611fa8565b6111e457613fdc81614403565b613fe7836020614415565b604051602001613ff892919061594d565b60408051601f198184030181529082905262461bcd60e51b8252610ae491600401614910565b6140288282611fa8565b156111e4576000828152602081815260408083206001600160a01b0385168085529252808320805460ff1916905551339285917ff6391f5c32d9c69d2a47ea670b442974b53935d1edc7fd64eb21e047a839171b9190a45050565b6000611fa1836001600160a01b0384166145b0565b60075460ff166112ba5760405162461bcd60e51b815260206004820152601460248201527314185d5cd8589b194e881b9bdd081c185d5cd95960621b6044820152606401610ae4565b6040805160018082528183019092526060916000919060208083019080368337019050509050828160008151811061411b5761411b6152d9565b602090810291909101015292915050565b6001600160a01b0384163b156132e35760405163f23a6e6160e01b81526001600160a01b0385169063f23a6e619061417090899089908890889088906004016159c2565b6020604051808303816000875af19250505080156141ab575060408051601f3d908101601f191682019092526141a891810190615843565b60015b6141b757613ef5615860565b6001600160e01b0319811663f23a6e6160e01b1461369b5760405162461bcd60e51b8152600401610ae490615905565b60075460ff16156112ba5760405162461bcd60e51b815260206004820152601060248201526f14185d5cd8589b194e881c185d5cd95960821b6044820152606401610ae4565b6000826000018281548110614244576142446152d9565b9060005260206000200154905092915050565b60006001600160e01b03198216635a05180f60e01b1480610b125750610b12826146a3565b61428a8686868686866146d8565b6001600160a01b0385166143115760005b835181101561430f578281815181106142b6576142b66152d9565b6020026020010151600860008684815181106142d4576142d46152d9565b6020026020010151815260200190815260200160002060008282546142f99190615292565b909155506143089050816152ef565b905061429b565b505b6001600160a01b0384166132e35760005b835181101561369b57600084828151811061433f5761433f6152d9565b60200260200101519050600084838151811061435d5761435d6152d9565b60200260200101519050600060086000848152602001908152602001600020549050818110156143e05760405162461bcd60e51b815260206004820152602860248201527f455243313135353a206275726e20616d6f756e74206578636565647320746f74604482015267616c537570706c7960c01b6064820152608401610ae4565b600092835260086020526040909220910390556143fc816152ef565b9050614322565b6060610b126001600160a01b03831660145b6060600061442483600261537b565b61442f906002615292565b6001600160401b0381111561444657614446614971565b6040519080825280601f01601f191660200182016040528015614470576020820181803683370190505b509050600360fc1b8160008151811061448b5761448b6152d9565b60200101906001600160f81b031916908160001a905350600f60fb1b816001815181106144ba576144ba6152d9565b60200101906001600160f81b031916908160001a90535060006144de84600261537b565b6144e9906001615292565b90505b6001811115614561576f181899199a1a9b1b9c1cb0b131b232b360811b85600f166010811061451d5761451d6152d9565b1a60f81b828281518110614533576145336152d9565b60200101906001600160f81b031916908160001a90535060049490941c9361455a816159fa565b90506144ec565b508315611fa15760405162461bcd60e51b815260206004820181905260248201527f537472696e67733a20686578206c656e67746820696e73756666696369656e746044820152606401610ae4565b600081815260018301602052604081205480156146995760006145d460018361525d565b85549091506000906145e89060019061525d565b905081811461464d576000866000018281548110614608576146086152d9565b906000526020600020015490508087600001848154811061462b5761462b6152d9565b6000918252602080832090910192909255918252600188019052604090208390555b855486908061465e5761465e615a11565b600190038181906000526020600020016000905590558560010160008681526020019081526020016000206000905560019350505050610b12565b6000915050610b12565b60006001600160e01b03198216637965db0b60e01b1480610b1257506301ffc9a760e01b6001600160e01b0319831614610b12565b6132e386868686868660075460ff16156132e35760405162461bcd60e51b815260206004820152602c60248201527f455243313135355061757361626c653a20746f6b656e207472616e736665722060448201526b1dda1a5b19481c185d5cd95960a21b6064820152608401610ae4565b8260048101928215614777579160200282015b8281111561477757825182559160200191906001019061475c565b506147839291506147fc565b5090565b8260028101928215614777579160200282018281111561477757825182559160200191906001019061475c565b8260028101928215614777579160200282015b8281111561477757825182546001600160a01b0319166001600160a01b039091161782556020909201916001909101906147c7565b5b8082111561478357600081556001016147fd565b6001600160a01b0381168114612cdc57600080fd5b6000806040838503121561483957600080fd5b823561484481614811565b946020939093013593505050565b6001600160e01b031981168114612cdc57600080fd5b60006020828403121561487a57600080fd5b8135611fa181614852565b60006020828403121561489757600080fd5b5035919050565b600080604083850312156148b157600080fd5b50508035926020909101359150565b60005b838110156148db5781810151838201526020016148c3565b50506000910152565b600081518084526148fc8160208601602086016148c0565b601f01601f19169290920160200192915050565b602081526000611fa160208301846148e4565b600081518084526020808501945080840160005b8381101561495357815187529582019590820190600101614937565b509495945050505050565b602081526000611fa16020830184614923565b634e487b7160e01b600052604160045260246000fd5b604081018181106001600160401b03821117156149a6576149a6614971565b60405250565b601f8201601f191681016001600160401b03811182821017156149d1576149d1614971565b6040525050565b60006001600160401b038211156149f1576149f1614971565b5060051b60200190565b600082601f830112614a0c57600080fd5b81356020614a19826149d8565b604051614a2682826149ac565b83815260059390931b8501820192828101915086841115614a4657600080fd5b8286015b84811015613aa05780358352918301918301614a4a565b60006001600160401b03831115614a7a57614a7a614971565b604051614a91601f8501601f1916602001826149ac565b809150838152848484011115614aa657600080fd5b83836020830137600060208583010152509392505050565b600082601f830112614acf57600080fd5b611fa183833560208501614a61565b60008060008060808587031215614af457600080fd5b8435614aff81614811565b935060208501356001600160401b0380821115614b1b57600080fd5b614b27888389016149fb565b94506040870135915080821115614b3d57600080fd5b614b49888389016149fb565b93506060870135915080821115614b5f57600080fd5b50614b6c87828801614abe565b91505092959194509250565b600060208284031215614b8a57600080fd5b8135611fa181614811565b600080600080600060a08688031215614bad57600080fd5b8535614bb881614811565b94506020860135614bc881614811565b935060408601356001600160401b0380821115614be457600080fd5b614bf089838a016149fb565b94506060880135915080821115614c0657600080fd5b614c1289838a016149fb565b93506080880135915080821115614c2857600080fd5b50614c3588828901614abe565b9150509295509295909350565b60008060408385031215614c5557600080fd5b823591506020830135614c6781614811565b809150509250929050565b803560048110614c8157600080fd5b919050565b600060208284031215614c9857600080fd5b611fa182614c72565b600080600060608486031215614cb657600080fd5b8335614cc181614811565b9250614ccf60208501614c72565b9150604084013590509250925092565b60006020808385031215614cf257600080fd5b82356001600160401b0380821115614d0957600080fd5b818501915085601f830112614d1d57600080fd5b8135614d28816149d8565b604051614d3582826149ac565b82815260059290921b8401850191858101915088831115614d5557600080fd5b8585015b83811015614d8d57803585811115614d715760008081fd5b614d7f8b89838a01016149fb565b845250918601918601614d59565b5098975050505050505050565b60008060408385031215614dad57600080fd5b82356001600160401b0380821115614dc457600080fd5b818501915085601f830112614dd857600080fd5b81356020614de5826149d8565b604051614df282826149ac565b83815260059390931b8501820192828101915089841115614e1257600080fd5b948201945b83861015614e39578535614e2a81614811565b82529482019490820190614e17565b96505086013592505080821115614e4f57600080fd5b50614e5c858286016149fb565b9150509250929050565b60008060408385031215614e7957600080fd5b61484483614c72565b600082601f830112614e9357600080fd5b604051608081018181106001600160401b0382111715614eb557614eb5614971565b604052806080840185811115614eca57600080fd5b845b81811015614ee4578035835260209283019201614ecc565b509195945050505050565b600082601f830112614f0057600080fd5b604051614f0c81614987565b806040840185811115614eca57600080fd5b600080600080600080600080610200898b031215614f3b57600080fd5b88356001600160401b03811115614f5157600080fd5b8901601f81018b13614f6257600080fd5b614f718b823560208401614a61565b985050614f818a60208b01614e82565b9650614f908a60a08b01614e82565b9550610120890135614fa181614811565b9450614fb18a6101408b01614eef565b93506101808901359250614fc98a6101a08b01614eef565b91506101e0890135614fda81614811565b809150509295985092959890939650565b60008060006060848603121561500057600080fd5b833561500b81614811565b925060208401356001600160401b038082111561502757600080fd5b615033878388016149fb565b9350604086013591508082111561504957600080fd5b50615056868287016149fb565b9150509250925092565b6000806000806080858703121561507657600080fd5b843561508181614811565b9350602085013592506040850135915060608501356001600160401b038111156150aa57600080fd5b614b6c87828801614abe565b6000806000606084860312156150cb57600080fd5b83356150d681614811565b95602085013595506040909401359392505050565b8015158114612cdc57600080fd5b6000806040838503121561510c57600080fd5b823561511781614811565b91506020830135614c67816150eb565b60008060006060848603121561513c57600080fd5b8335925060208401359150604084013561515581614811565b809150509250925092565b60008060006060848603121561517557600080fd5b61517e84614c72565b925060208401359150604084013561515581614811565b600080604083850312156151a857600080fd5b82356151b381614811565b91506020830135614c6781614811565b600080600080600060a086880312156151db57600080fd5b85356151e681614811565b945060208601356151f681614811565b9350604086013592506060860135915060808601356001600160401b0381111561521f57600080fd5b614c3588828901614abe565b60006080828403121561523d57600080fd5b611fa18383614e82565b634e487b7160e01b600052601160045260246000fd5b81810381811115610b1257610b12615247565b60008261528d57634e487b7160e01b600052601260045260246000fd5b500490565b80820180821115610b1257610b12615247565b600181811c908216806152b957607f821691505b602082108103610cc957634e487b7160e01b600052602260045260246000fd5b634e487b7160e01b600052603260045260246000fd5b60006001820161530157615301615247565b5060010190565b60208082526038908201527f455243313135355072657365744d696e7465725061757365723a206d7573742060408201527f68617665206d696e74657220726f6c6520746f206d696e740000000000000000606082015260800190565b634e487b7160e01b600052602160045260246000fd5b8082028115828204841417610b1257610b12615247565b6020808252602e908201527f455243313135353a2063616c6c6572206973206e6f7420746f6b656e206f776e60408201526d195c881bdc88185c1c1c9bdd995960921b606082015260800190565b6020808252602f908201527f455243313135355072657365744d696e7465725061757365723a206d7573742060408201526e686176652061646d696e20726f6c6560881b606082015260800190565b60006020828403121561544157600080fd5b8151611fa1816150eb565b602080825260159082015274151bdad95b881d1c985b9cd9995c8819985a5b1959605a1b604082015260600190565b60006040828403121561548d57600080fd5b82601f83011261549c57600080fd5b6040516154a881614987565b8060408401858111156154ba57600080fd5b845b81811015614ee45780516154cf81614811565b8352602092830192016154bc565b6000602082840312156154ef57600080fd5b8151611fa181614811565b60006020828403121561550c57600080fd5b5051919050565b60208082526021908201527f455243313135353a206d696e7420746f20746865207a65726f206164647265736040820152607360f81b606082015260800190565b60208082526028908201527f455243313135353a2069647320616e6420616d6f756e7473206c656e677468206040820152670dad2e6dac2e8c6d60c31b606082015260800190565b6040815260006155af6040830185614923565b82810360208401526155c18185614923565b95945050505050565b60208082526025908201527f455243313135353a207472616e7366657220746f20746865207a65726f206164604082015264647265737360d81b606082015260800190565b6020808252602a908201527f455243313135353a20696e73756666696369656e742062616c616e636520666f60408201526939103a3930b739b332b960b11b606082015260800190565b601f8211156110d857600081815260208120601f850160051c810160208610156156805750805b601f850160051c820191505b818110156132e35782815560010161568c565b81516001600160401b038111156156b8576156b8614971565b6156cc816156c684546152a5565b84615659565b602080601f83116001811461570157600084156156e95750858301515b600019600386901b1c1916600185901b1785556132e3565b600085815260208120601f198616915b8281101561573057888601518255948401946001909101908401615711565b508582101561574e5787850151600019600388901b60f8161c191681555b5050505050600190811b01905550565b60208082526023908201527f455243313135353a206275726e2066726f6d20746865207a65726f206164647260408201526265737360e81b606082015260800190565b60208082526024908201527f455243313135353a206275726e20616d6f756e7420657863656564732062616c604082015263616e636560e01b606082015260800190565b60006001600160a01b03808816835280871660208401525060a0604083015261581160a0830186614923565b82810360608401526158238186614923565b9050828103608084015261583781856148e4565b98975050505050505050565b60006020828403121561585557600080fd5b8151611fa181614852565b600060033d11156158795760046000803e5060005160e01c5b90565b600060443d101561588a5790565b6040516003193d81016004833e81513d6001600160401b0381602484011181841117156158b957505050505090565b82850191508151818111156158d15750505050505090565b843d87010160208285010111156158eb5750505050505090565b6158fa602082860101876149ac565b509095945050505050565b60208082526028908201527f455243313135353a204552433131353552656365697665722072656a656374656040820152676420746f6b656e7360c01b606082015260800190565b7f416363657373436f6e74726f6c3a206163636f756e74200000000000000000008152600083516159858160178501602088016148c0565b7001034b99036b4b9b9b4b733903937b6329607d1b60179184019182015283516159b68160288401602088016148c0565b01602801949350505050565b60006001600160a01b03808816835280871660208401525084604083015283606083015260a0608083015261137e60a08301846148e4565b600081615a0957615a09615247565b506000190190565b634e487b7160e01b600052603160045260246000fdfea264697066735822122027900880800c8fb20ecfc60eaf56c63ed418281a2b973dd7e5e7ca2dde1d419164736f6c63430008110033b53127684a568b3173ae13b9f8a6016e243e63b6e8ee1178d6a717850b5d610365d7a28e3265b37a6474929f336521b332c1681b933f6cb9f3376673440d862a9f2df0fed2c77648de5860a4cc508cd0818c85b8b8a1ab4ceeef8d981c8956a6",
  "devdoc": {
    "author": "crypt0grapher",
    "kind": "dev",
    "methods": {
      "balanceOf(address,uint256)": {
        "details": "See {IERC1155-balanceOf}. Requirements: - `account` cannot be the zero address."
      },
      "balanceOfBatch(address[],uint256[])": {
        "details": "See {IERC1155-balanceOfBatch}. Requirements: - `accounts` and `ids` must have the same length."
      },
      "buy(uint8,uint256,address)": {
        "params": {
          "_amount": "amount of USD to spend",
          "_referral": "referral getting 5% of the price, should not be the sender, if not specified, goes to treasury",
          "_tier": "tier of the NFT to purchase which stands for ERC1155 token id [0..3]"
        }
      },
      "distributeProfit(uint256)": {
        "params": {
          "_amountUSD": "amount of USD to distribute"
        }
      },
      "exists(uint256)": {
        "details": "Indicates whether any token exist with a given id, or not."
      },
      "getCurrentPresaleWeek()": {
        "returns": {
          "_0": "returns 1-4"
        }
      },
      "getDiscountedPriceTable()": {
        "returns": {
          "_0": "uint256[] containing all NFT prices in one table in USD for the current presale week"
        }
      },
      "getFairPrice(uint8)": {
        "returns": {
          "_0": "counts not only the sale price but also share of the profit for the tier"
        }
      },
      "getPrice(uint8)": {
        "returns": {
          "_0": "NFT price in USD"
        }
      },
      "getPriceTable()": {
        "returns": {
          "_0": "uint256[] containing all NFT prices in one table in USD"
        }
      },
      "getRoleAdmin(bytes32)": {
        "details": "Returns the admin role that controls `role`. See {grantRole} and {revokeRole}. To change a role's admin, use {_setRoleAdmin}."
      },
      "getRoleMember(bytes32,uint256)": {
        "details": "Returns one of the accounts that have `role`. `index` must be a value between 0 and {getRoleMemberCount}, non-inclusive. Role bearers are not sorted in any particular way, and their ordering may change at any point. WARNING: When using {getRoleMember} and {getRoleMemberCount}, make sure you perform all queries on the same block. See the following https://forum.openzeppelin.com/t/iterating-over-elements-on-enumerableset-in-openzeppelin-contracts/2296[forum post] for more information."
      },
      "getRoleMemberCount(bytes32)": {
        "details": "Returns the number of accounts that have `role`. Can be used together with {getRoleMember} to enumerate all bearers of a role."
      },
      "getUnclaimedRewards()": {
        "returns": {
          "_0": "amount of the rewards not yet distributed to NFT holders"
        }
      },
      "grantRole(bytes32,address)": {
        "details": "Grants `role` to `account`. If `account` had not been already granted `role`, emits a {RoleGranted} event. Requirements: - the caller must have ``role``'s admin role. May emit a {RoleGranted} event."
      },
      "hasRole(bytes32,address)": {
        "details": "Returns `true` if `account` has been granted `role`."
      },
      "isApprovedForAll(address,address)": {
        "details": "See {IERC1155-isApprovedForAll}."
      },
      "mint(address,uint256,uint256,bytes)": {
        "details": "Creates `amount` new tokens for `to`, of token type `id`. See {ERC1155-_mint}. Requirements: - the caller must have the `MINTER_ROLE`."
      },
      "mintBatch(address,uint256[],uint256[],bytes)": {
        "details": "xref:ROOT:erc1155.adoc#batch-operations[Batched] variant of {mint}."
      },
      "pause()": {
        "details": "Pauses all token transfers. See {ERC1155Pausable} and {Pausable-_pause}. Requirements: - the caller must have the `PAUSER_ROLE`."
      },
      "paused()": {
        "details": "Returns true if the contract is paused, and false otherwise."
      },
      "renounceRole(bytes32,address)": {
        "details": "Revokes `role` from the calling account. Roles are often managed via {grantRole} and {revokeRole}: this function's purpose is to provide a mechanism for accounts to lose their privileges if they are compromised (such as when a trusted device is misplaced). If the calling account had been revoked `role`, emits a {RoleRevoked} event. Requirements: - the caller must be `account`. May emit a {RoleRevoked} event."
      },
      "revokeRole(bytes32,address)": {
        "details": "Revokes `role` from `account`. If `account` had been granted `role`, emits a {RoleRevoked} event. Requirements: - the caller must have ``role``'s admin role. May emit a {RoleRevoked} event."
      },
      "safeBatchTransferFrom(address,address,uint256[],uint256[],bytes)": {
        "details": "See {IERC1155-safeBatchTransferFrom}."
      },
      "safeTransferFrom(address,address,uint256,uint256,bytes)": {
        "details": "See {IERC1155-safeTransferFrom}."
      },
      "setApprovalForAll(address,bool)": {
        "details": "See {IERC1155-setApprovalForAll}."
      },
      "setDiscountedPriceTable(uint256[][])": {
        "params": {
          "_presalePrice": "4x4 table of the discounted prices for all 4 tiers for all 4 weeks of the presale"
        }
      },
      "totalSupply(uint256)": {
        "details": "Total amount of tokens in with a given id."
      },
      "unpause()": {
        "details": "Unpauses all token transfers. See {ERC1155Pausable} and {Pausable-_unpause}. Requirements: - the caller must have the `PAUSER_ROLE`."
      },
      "uri(uint256)": {
        "details": "See {IERC1155MetadataURI-uri}. This implementation returns the same URI for *all* token types. It relies on the token type ID substitution mechanism https://eips.ethereum.org/EIPS/eip-1155#metadata[defined in the EIP]. Clients calling this function must replace the `\\{id\\}` substring with the actual token type ID."
      }
    },
    "stateVariables": {
      "currentDistributionId": {
        "return": "current distribution number, the one that assigned to the latest distribution",
        "returns": {
          "_0": "current distribution number, the one that assigned to the latest distribution"
        }
      }
    },
    "title": "Safe NFT",
    "version": 1
  },
  "userdoc": {
    "kind": "user",
    "methods": {
      "WALLETS()": {
        "notice": "total wallets on the protocol less vault, see Wallets enum, this can be basically any number"
      },
      "buy(uint8,uint256,address)": {
        "notice": "purchase Safe NFT for exact amount of USD"
      },
      "claimReward(uint8,uint256)": {
        "notice": "the function calculates the amount of the reward for the NFT holder and transfers it to the NFT holder"
      },
      "claimRewardsTotal()": {
        "notice": "the function calculates the amount of the reward for the NFT holder and transfers it to the NFT holder"
      },
      "currentDistributionId()": {
        "notice": "gets the current distribution number"
      },
      "distributeProfit(uint256)": {
        "notice": "distribute profit among the NFT holders, the function fixes the amount of the reward and the NFT holders and their shares at the moment of the call. It does not transfer the reward to the NFT holders, it just records the amount of the reward for each NFT holder."
      },
      "getBalanceTable(address)": {
        "notice": "gets NFT balance for all tiers"
      },
      "getCurrentPresaleWeek()": {
        "notice": "gets the current presale week"
      },
      "getDiscountedPriceTable()": {
        "notice": "gets all discounted NFT prices in USD, for presale for all 4 weeks of the presale"
      },
      "getFairPrice(uint8)": {
        "notice": "gets NFT fair price in USD"
      },
      "getFairPriceTable()": {
        "notice": "gets NFT price for all tiers in USD ///todo in SAFE!"
      },
      "getMyBalanceTable()": {
        "notice": "gets NFT balance for all tiers"
      },
      "getMyPendingRewardsTotal()": {
        "notice": "returns the amount of the reward share for the NFT holder"
      },
      "getMyShareOfTreasury()": {
        "notice": "**Your NFTs (% Treasury) **is calculated in $ as a relation of total price of NFTs possessed by the $ amount of Investment Pool - including its SAFE and stable coin  components."
      },
      "getPendingRewards(address,uint8,uint256)": {
        "notice": "returns the amount of the reward share for the NFT holder"
      },
      "getPrice(uint8)": {
        "notice": "gets NFT price in USD"
      },
      "getPriceTable()": {
        "notice": "gets all NFT prices in USD, the original ones without discounts"
      },
      "getTreasuryCost()": {
        "notice": "gets the total usd value of the NFT minted"
      },
      "getUnclaimedRewards()": {
        "notice": "undistributed profit amount in USD"
      },
      "setDiscountedPriceTable(uint256[][])": {
        "notice": "sets all discounted NFT prices in USD, for presale for all 4 weeks of the presale"
      },
      "togglePresale()": {
        "notice": "toggles presale status"
      }
    },
    "notice": "Safe Yields NFT token based on ERC1155 standard, id [0..3] represents one of the 4 tiers",
    "version": 1
  },
  "storageLayout": {
    "storage": [
      {
        "astId": 24,
        "contract": "contracts/SafeNFT.sol:SafeNFT",
        "label": "_roles",
        "offset": 0,
        "slot": "0",
        "type": "t_mapping(t_bytes32,t_struct(RoleData)19_storage)"
      },
      {
        "astId": 334,
        "contract": "contracts/SafeNFT.sol:SafeNFT",
        "label": "_roleMembers",
        "offset": 0,
        "slot": "1",
        "type": "t_mapping(t_bytes32,t_struct(AddressSet)4430_storage)"
      },
      {
        "astId": 6416,
        "contract": "contracts/SafeNFT.sol:SafeNFT",
        "label": "wallets",
        "offset": 0,
        "slot": "2",
        "type": "t_array(t_address)2_storage"
      },
      {
        "astId": 726,
        "contract": "contracts/SafeNFT.sol:SafeNFT",
        "label": "_balances",
        "offset": 0,
        "slot": "4",
        "type": "t_mapping(t_uint256,t_mapping(t_address,t_uint256))"
      },
      {
        "astId": 732,
        "contract": "contracts/SafeNFT.sol:SafeNFT",
        "label": "_operatorApprovals",
        "offset": 0,
        "slot": "5",
        "type": "t_mapping(t_address,t_mapping(t_address,t_bool))"
      },
      {
        "astId": 734,
        "contract": "contracts/SafeNFT.sol:SafeNFT",
        "label": "_uri",
        "offset": 0,
        "slot": "6",
        "type": "t_string_storage"
      },
      {
        "astId": 556,
        "contract": "contracts/SafeNFT.sol:SafeNFT",
        "label": "_paused",
        "offset": 0,
        "slot": "7",
        "type": "t_bool"
      },
      {
        "astId": 2213,
        "contract": "contracts/SafeNFT.sol:SafeNFT",
        "label": "_totalSupply",
        "offset": 0,
        "slot": "8",
        "type": "t_mapping(t_uint256,t_uint256)"
      },
      {
        "astId": 657,
        "contract": "contracts/SafeNFT.sol:SafeNFT",
        "label": "_status",
        "offset": 0,
        "slot": "9",
        "type": "t_uint256"
      },
      {
        "astId": 4751,
        "contract": "contracts/SafeNFT.sol:SafeNFT",
        "label": "price",
        "offset": 0,
        "slot": "10",
        "type": "t_array(t_uint256)4_storage"
      },
      {
        "astId": 4757,
        "contract": "contracts/SafeNFT.sol:SafeNFT",
        "label": "presalePrice",
        "offset": 0,
        "slot": "14",
        "type": "t_array(t_array(t_uint256)4_storage)4_storage"
      },
      {
        "astId": 4761,
        "contract": "contracts/SafeNFT.sol:SafeNFT",
        "label": "maxSupply",
        "offset": 0,
        "slot": "30",
        "type": "t_array(t_uint256)4_storage"
      },
      {
        "astId": 4763,
        "contract": "contracts/SafeNFT.sol:SafeNFT",
        "label": "presaleStartDate",
        "offset": 0,
        "slot": "34",
        "type": "t_uint256"
      },
      {
        "astId": 4765,
        "contract": "contracts/SafeNFT.sol:SafeNFT",
        "label": "weekDuration",
        "offset": 0,
        "slot": "35",
        "type": "t_uint256"
      },
      {
        "astId": 4768,
        "contract": "contracts/SafeNFT.sol:SafeNFT",
        "label": "safeToken",
        "offset": 0,
        "slot": "36",
        "type": "t_contract(ISafeToken)6841"
      },
      {
        "astId": 4771,
        "contract": "contracts/SafeNFT.sol:SafeNFT",
        "label": "safeVault",
        "offset": 0,
        "slot": "37",
        "type": "t_contract(ISafeVault)6879"
      },
      {
        "astId": 4774,
        "contract": "contracts/SafeNFT.sol:SafeNFT",
        "label": "usd",
        "offset": 0,
        "slot": "38",
        "type": "t_contract(IERC20)2651"
      },
      {
        "astId": 4781,
        "contract": "contracts/SafeNFT.sol:SafeNFT",
        "label": "priceDistributionOnMint",
        "offset": 0,
        "slot": "39",
        "type": "t_array(t_uint256)2_storage"
      },
      {
        "astId": 4785,
        "contract": "contracts/SafeNFT.sol:SafeNFT",
        "label": "profitDistribution",
        "offset": 0,
        "slot": "41",
        "type": "t_array(t_uint256)2_storage"
      },
      {
        "astId": 4787,
        "contract": "contracts/SafeNFT.sol:SafeNFT",
        "label": "referralShareForNFTPurchase",
        "offset": 0,
        "slot": "43",
        "type": "t_uint256"
      },
      {
        "astId": 4789,
        "contract": "contracts/SafeNFT.sol:SafeNFT",
        "label": "preVaultWallet",
        "offset": 0,
        "slot": "44",
        "type": "t_address"
      },
      {
        "astId": 4791,
        "contract": "contracts/SafeNFT.sol:SafeNFT",
        "label": "presale",
        "offset": 20,
        "slot": "44",
        "type": "t_bool"
      },
      {
        "astId": 4799,
        "contract": "contracts/SafeNFT.sol:SafeNFT",
        "label": "soldPerPresaleWeek",
        "offset": 0,
        "slot": "45",
        "type": "t_mapping(t_address,t_mapping(t_uint256,t_mapping(t_uint256,t_uint256)))"
      },
      {
        "astId": 4803,
        "contract": "contracts/SafeNFT.sol:SafeNFT",
        "label": "presaleMaxSupply",
        "offset": 0,
        "slot": "46",
        "type": "t_array(t_uint256)4_storage"
      },
      {
        "astId": 4807,
        "contract": "contracts/SafeNFT.sol:SafeNFT",
        "label": "currentlySoldInPresale",
        "offset": 0,
        "slot": "50",
        "type": "t_array(t_uint256)4_storage"
      },
      {
        "astId": 4809,
        "contract": "contracts/SafeNFT.sol:SafeNFT",
        "label": "currentDistributionId",
        "offset": 0,
        "slot": "54",
        "type": "t_uint256"
      },
      {
        "astId": 4813,
        "contract": "contracts/SafeNFT.sol:SafeNFT",
        "label": "distributionOfProfit",
        "offset": 0,
        "slot": "55",
        "type": "t_mapping(t_uint256,t_uint256)"
      },
      {
        "astId": 4819,
        "contract": "contracts/SafeNFT.sol:SafeNFT",
        "label": "distributionByTier",
        "offset": 0,
        "slot": "56",
        "type": "t_mapping(t_uint256,t_array(t_uint256)4_storage)"
      },
      {
        "astId": 4825,
        "contract": "contracts/SafeNFT.sol:SafeNFT",
        "label": "distributionTotalSupplySnapshot",
        "offset": 0,
        "slot": "57",
        "type": "t_mapping(t_uint256,t_array(t_uint256)4_storage)"
      },
      {
        "astId": 4833,
        "contract": "contracts/SafeNFT.sol:SafeNFT",
        "label": "alreadyDistributedAmount",
        "offset": 0,
        "slot": "58",
        "type": "t_mapping(t_uint256,t_mapping(t_uint256,t_mapping(t_address,t_uint256)))"
      },
      {
        "astId": 4839,
        "contract": "contracts/SafeNFT.sol:SafeNFT",
        "label": "alreadyDistributedAmountByTier",
        "offset": 0,
        "slot": "59",
        "type": "t_mapping(t_uint256,t_array(t_uint256)4_storage)"
      }
    ],
    "types": {
      "t_address": {
        "encoding": "inplace",
        "label": "address",
        "numberOfBytes": "20"
      },
      "t_array(t_address)2_storage": {
        "base": "t_address",
        "encoding": "inplace",
        "label": "address[2]",
        "numberOfBytes": "64"
      },
      "t_array(t_array(t_uint256)4_storage)4_storage": {
        "base": "t_array(t_uint256)4_storage",
        "encoding": "inplace",
        "label": "uint256[4][4]",
        "numberOfBytes": "512"
      },
      "t_array(t_bytes32)dyn_storage": {
        "base": "t_bytes32",
        "encoding": "dynamic_array",
        "label": "bytes32[]",
        "numberOfBytes": "32"
      },
      "t_array(t_uint256)2_storage": {
        "base": "t_uint256",
        "encoding": "inplace",
        "label": "uint256[2]",
        "numberOfBytes": "64"
      },
      "t_array(t_uint256)4_storage": {
        "base": "t_uint256",
        "encoding": "inplace",
        "label": "uint256[4]",
        "numberOfBytes": "128"
      },
      "t_bool": {
        "encoding": "inplace",
        "label": "bool",
        "numberOfBytes": "1"
      },
      "t_bytes32": {
        "encoding": "inplace",
        "label": "bytes32",
        "numberOfBytes": "32"
      },
      "t_contract(IERC20)2651": {
        "encoding": "inplace",
        "label": "contract IERC20",
        "numberOfBytes": "20"
      },
      "t_contract(ISafeToken)6841": {
        "encoding": "inplace",
        "label": "contract ISafeToken",
        "numberOfBytes": "20"
      },
      "t_contract(ISafeVault)6879": {
        "encoding": "inplace",
        "label": "contract ISafeVault",
        "numberOfBytes": "20"
      },
      "t_mapping(t_address,t_bool)": {
        "encoding": "mapping",
        "key": "t_address",
        "label": "mapping(address => bool)",
        "numberOfBytes": "32",
        "value": "t_bool"
      },
      "t_mapping(t_address,t_mapping(t_address,t_bool))": {
        "encoding": "mapping",
        "key": "t_address",
        "label": "mapping(address => mapping(address => bool))",
        "numberOfBytes": "32",
        "value": "t_mapping(t_address,t_bool)"
      },
      "t_mapping(t_address,t_mapping(t_uint256,t_mapping(t_uint256,t_uint256)))": {
        "encoding": "mapping",
        "key": "t_address",
        "label": "mapping(address => mapping(uint256 => mapping(uint256 => uint256)))",
        "numberOfBytes": "32",
        "value": "t_mapping(t_uint256,t_mapping(t_uint256,t_uint256))"
      },
      "t_mapping(t_address,t_uint256)": {
        "encoding": "mapping",
        "key": "t_address",
        "label": "mapping(address => uint256)",
        "numberOfBytes": "32",
        "value": "t_uint256"
      },
      "t_mapping(t_bytes32,t_struct(AddressSet)4430_storage)": {
        "encoding": "mapping",
        "key": "t_bytes32",
        "label": "mapping(bytes32 => struct EnumerableSet.AddressSet)",
        "numberOfBytes": "32",
        "value": "t_struct(AddressSet)4430_storage"
      },
      "t_mapping(t_bytes32,t_struct(RoleData)19_storage)": {
        "encoding": "mapping",
        "key": "t_bytes32",
        "label": "mapping(bytes32 => struct AccessControl.RoleData)",
        "numberOfBytes": "32",
        "value": "t_struct(RoleData)19_storage"
      },
      "t_mapping(t_bytes32,t_uint256)": {
        "encoding": "mapping",
        "key": "t_bytes32",
        "label": "mapping(bytes32 => uint256)",
        "numberOfBytes": "32",
        "value": "t_uint256"
      },
      "t_mapping(t_uint256,t_array(t_uint256)4_storage)": {
        "encoding": "mapping",
        "key": "t_uint256",
        "label": "mapping(uint256 => uint256[4])",
        "numberOfBytes": "32",
        "value": "t_array(t_uint256)4_storage"
      },
      "t_mapping(t_uint256,t_mapping(t_address,t_uint256))": {
        "encoding": "mapping",
        "key": "t_uint256",
        "label": "mapping(uint256 => mapping(address => uint256))",
        "numberOfBytes": "32",
        "value": "t_mapping(t_address,t_uint256)"
      },
      "t_mapping(t_uint256,t_mapping(t_uint256,t_mapping(t_address,t_uint256)))": {
        "encoding": "mapping",
        "key": "t_uint256",
        "label": "mapping(uint256 => mapping(uint256 => mapping(address => uint256)))",
        "numberOfBytes": "32",
        "value": "t_mapping(t_uint256,t_mapping(t_address,t_uint256))"
      },
      "t_mapping(t_uint256,t_mapping(t_uint256,t_uint256))": {
        "encoding": "mapping",
        "key": "t_uint256",
        "label": "mapping(uint256 => mapping(uint256 => uint256))",
        "numberOfBytes": "32",
        "value": "t_mapping(t_uint256,t_uint256)"
      },
      "t_mapping(t_uint256,t_uint256)": {
        "encoding": "mapping",
        "key": "t_uint256",
        "label": "mapping(uint256 => uint256)",
        "numberOfBytes": "32",
        "value": "t_uint256"
      },
      "t_string_storage": {
        "encoding": "bytes",
        "label": "string",
        "numberOfBytes": "32"
      },
      "t_struct(AddressSet)4430_storage": {
        "encoding": "inplace",
        "label": "struct EnumerableSet.AddressSet",
        "members": [
          {
            "astId": 4429,
            "contract": "contracts/SafeNFT.sol:SafeNFT",
            "label": "_inner",
            "offset": 0,
            "slot": "0",
            "type": "t_struct(Set)4115_storage"
          }
        ],
        "numberOfBytes": "64"
      },
      "t_struct(RoleData)19_storage": {
        "encoding": "inplace",
        "label": "struct AccessControl.RoleData",
        "members": [
          {
            "astId": 16,
            "contract": "contracts/SafeNFT.sol:SafeNFT",
            "label": "members",
            "offset": 0,
            "slot": "0",
            "type": "t_mapping(t_address,t_bool)"
          },
          {
            "astId": 18,
            "contract": "contracts/SafeNFT.sol:SafeNFT",
            "label": "adminRole",
            "offset": 0,
            "slot": "1",
            "type": "t_bytes32"
          }
        ],
        "numberOfBytes": "64"
      },
      "t_struct(Set)4115_storage": {
        "encoding": "inplace",
        "label": "struct EnumerableSet.Set",
        "members": [
          {
            "astId": 4110,
            "contract": "contracts/SafeNFT.sol:SafeNFT",
            "label": "_values",
            "offset": 0,
            "slot": "0",
            "type": "t_array(t_bytes32)dyn_storage"
          },
          {
            "astId": 4114,
            "contract": "contracts/SafeNFT.sol:SafeNFT",
            "label": "_indexes",
            "offset": 0,
            "slot": "1",
            "type": "t_mapping(t_bytes32,t_uint256)"
          }
        ],
        "numberOfBytes": "64"
      },
      "t_uint256": {
        "encoding": "inplace",
        "label": "uint256",
        "numberOfBytes": "32"
      }
    }
  }
}