{
  "address": "0x60462559989550D0145286a6154f5791A35916D4",
  "abi": [
    {
      "inputs": [
        {
          "internalType": "address",
          "name": "_stableCoin",
          "type": "address"
        }
      ],
      "stateMutability": "nonpayable",
      "type": "constructor"
    },
    {
      "inputs": [
        {
          "internalType": "address",
          "name": "",
          "type": "address"
        }
      ],
      "name": "balances",
      "outputs": [
        {
          "internalType": "uint256",
          "name": "",
          "type": "uint256"
        }
      ],
      "stateMutability": "view",
      "type": "function"
    },
    {
      "inputs": [
        {
          "internalType": "address",
          "name": "_user",
          "type": "address"
        },
        {
          "internalType": "uint256",
          "name": "_amount",
          "type": "uint256"
        }
      ],
      "name": "deposit",
      "outputs": [],
      "stateMutability": "nonpayable",
      "type": "function"
    },
    {
      "inputs": [
        {
          "internalType": "address",
          "name": "_stableCoin",
          "type": "address"
        }
      ],
      "name": "initialize",
      "outputs": [],
      "stateMutability": "nonpayable",
      "type": "function"
    },
    {
      "inputs": [],
      "name": "totalSupply",
      "outputs": [
        {
          "internalType": "uint256",
          "name": "",
          "type": "uint256"
        }
      ],
      "stateMutability": "view",
      "type": "function"
    },
    {
      "inputs": [
        {
          "internalType": "address",
          "name": "_receiver",
          "type": "address"
        },
        {
          "internalType": "uint256",
          "name": "_amount",
          "type": "uint256"
        }
      ],
      "name": "withdraw",
      "outputs": [],
      "stateMutability": "nonpayable",
      "type": "function"
    }
  ],
  "transactionHash": "0x40186743e823a0773976b88b0812a843630179adc2c091cbcdc125ea2dc93183",
  "args": [
    "0xeD24FC36d5Ee211Ea25A80239Fb8C4Cfd80f12Ee"
  ],
  "numDeployments": 1,
  "solcInputHash": "0052bfcba2de104cda6885f9d0bc61ea",
  "bytecode": "0x608060405234801561001057600080fd5b50604051610b80380380610b80833981810160405281019061003291906101d2565b6100418161004760201b60201c565b506101ff565b600061005761014660201b60201c565b9050600073ffffffffffffffffffffffffffffffffffffffff168173ffffffffffffffffffffffffffffffffffffffff16036100c95773ffffffffffffffffffffffffffffffffffffffff7fb53127684a568b3173ae13b9f8a6016e243e63b6e8ee1178d6a717850b5d610355610102565b8073ffffffffffffffffffffffffffffffffffffffff163373ffffffffffffffffffffffffffffffffffffffff161461010157600080fd5b5b816000806101000a81548173ffffffffffffffffffffffffffffffffffffffff021916908373ffffffffffffffffffffffffffffffffffffffff1602179055505050565b60007fb53127684a568b3173ae13b9f8a6016e243e63b6e8ee1178d6a717850b5d610354905090565b600080fd5b600073ffffffffffffffffffffffffffffffffffffffff82169050919050565b600061019f82610174565b9050919050565b6101af81610194565b81146101ba57600080fd5b50565b6000815190506101cc816101a6565b92915050565b6000602082840312156101e8576101e761016f565b5b60006101f6848285016101bd565b91505092915050565b6109728061020e6000396000f3fe608060405234801561001057600080fd5b50600436106100575760003560e01c806318160ddd1461005c57806327e235e31461007a57806347e7ef24146100aa578063c4d66de8146100c6578063f3fef3a3146100e2575b600080fd5b6100646100fe565b6040516100719190610585565b60405180910390f35b610094600480360381019061008f9190610603565b610104565b6040516100a19190610585565b60405180910390f35b6100c460048036038101906100bf919061065c565b61011c565b005b6100e060048036038101906100db9190610603565b610273565b005b6100fc60048036038101906100f7919061065c565b61036c565b005b60015481565b60026020528060005260406000206000915090505481565b6000811161015f576040517f08c379a00000000000000000000000000000000000000000000000000000000081526004016101569061071f565b60405180910390fd5b80600260008473ffffffffffffffffffffffffffffffffffffffff1673ffffffffffffffffffffffffffffffffffffffff16815260200190815260200160002060008282546101ae919061076e565b9250508190555080600160008282546101c7919061076e565b9250508190555060008054906101000a900473ffffffffffffffffffffffffffffffffffffffff1673ffffffffffffffffffffffffffffffffffffffff166323b872dd8330846040518463ffffffff1660e01b815260040161022b939291906107b1565b6020604051808303816000875af115801561024a573d6000803e3d6000fd5b505050506040513d601f19601f8201168201806040525081019061026e9190610820565b505050565b600061027d610543565b9050600073ffffffffffffffffffffffffffffffffffffffff168173ffffffffffffffffffffffffffffffffffffffff16036102ef5773ffffffffffffffffffffffffffffffffffffffff7fb53127684a568b3173ae13b9f8a6016e243e63b6e8ee1178d6a717850b5d610355610328565b8073ffffffffffffffffffffffffffffffffffffffff163373ffffffffffffffffffffffffffffffffffffffff161461032757600080fd5b5b816000806101000a81548173ffffffffffffffffffffffffffffffffffffffff021916908373ffffffffffffffffffffffffffffffffffffffff1602179055505050565b600081116103af576040517f08c379a00000000000000000000000000000000000000000000000000000000081526004016103a69061071f565b60405180910390fd5b80600260003373ffffffffffffffffffffffffffffffffffffffff1673ffffffffffffffffffffffffffffffffffffffff168152602001908152602001600020541015610431576040517f08c379a0000000000000000000000000000000000000000000000000000000008152600401610428906108bf565b60405180910390fd5b80600260003373ffffffffffffffffffffffffffffffffffffffff1673ffffffffffffffffffffffffffffffffffffffff168152602001908152602001600020600082825461048091906108df565b92505081905550806001600082825461049991906108df565b9250508190555060008054906101000a900473ffffffffffffffffffffffffffffffffffffffff1673ffffffffffffffffffffffffffffffffffffffff1663a9059cbb83836040518363ffffffff1660e01b81526004016104fb929190610913565b6020604051808303816000875af115801561051a573d6000803e3d6000fd5b505050506040513d601f19601f8201168201806040525081019061053e9190610820565b505050565b60007fb53127684a568b3173ae13b9f8a6016e243e63b6e8ee1178d6a717850b5d610354905090565b6000819050919050565b61057f8161056c565b82525050565b600060208201905061059a6000830184610576565b92915050565b600080fd5b600073ffffffffffffffffffffffffffffffffffffffff82169050919050565b60006105d0826105a5565b9050919050565b6105e0816105c5565b81146105eb57600080fd5b50565b6000813590506105fd816105d7565b92915050565b600060208284031215610619576106186105a0565b5b6000610627848285016105ee565b91505092915050565b6106398161056c565b811461064457600080fd5b50565b60008135905061065681610630565b92915050565b60008060408385031215610673576106726105a0565b5b6000610681858286016105ee565b925050602061069285828601610647565b9150509250929050565b600082825260208201905092915050565b7f536166655661756c743a20616d6f756e74206d7573742062652067726561746560008201527f72207468616e2030000000000000000000000000000000000000000000000000602082015250565b600061070960288361069c565b9150610714826106ad565b604082019050919050565b60006020820190508181036000830152610738816106fc565b9050919050565b7f4e487b7100000000000000000000000000000000000000000000000000000000600052601160045260246000fd5b60006107798261056c565b91506107848361056c565b925082820190508082111561079c5761079b61073f565b5b92915050565b6107ab816105c5565b82525050565b60006060820190506107c660008301866107a2565b6107d360208301856107a2565b6107e06040830184610576565b949350505050565b60008115159050919050565b6107fd816107e8565b811461080857600080fd5b50565b60008151905061081a816107f4565b92915050565b600060208284031215610836576108356105a0565b5b60006108448482850161080b565b91505092915050565b7f536166655661756c743a20757365722062616c616e6365206d7573742062652060008201527f67726561746572207468616e20616d6f756e7400000000000000000000000000602082015250565b60006108a960338361069c565b91506108b48261084d565b604082019050919050565b600060208201905081810360008301526108d88161089c565b9050919050565b60006108ea8261056c565b91506108f58361056c565b925082820390508181111561090d5761090c61073f565b5b92915050565b600060408201905061092860008301856107a2565b6109356020830184610576565b939250505056fea26469706673582212201cbff897febfe5293c622b7af35b672a950d0396ecbdad30fdc26e400edac3dc64736f6c63430008110033",
  "devdoc": {
    "author": "crypt0grapher",
    "kind": "dev",
    "methods": {},
    "title": "Safe Vault",
    "version": 1
  },
  "userdoc": {
    "kind": "user",
    "methods": {},
    "notice": "This contract is responsible for $BUSD pool: mainly deposit/withdrawal and farms management",
    "version": 1
  },
  "storageLayout": {
    "storage": [
      {
        "astId": 5518,
        "contract": "contracts/SafeVault.sol:SafeVault",
        "label": "stableCoin",
        "offset": 0,
        "slot": "0",
        "type": "t_contract(IERC20)2440"
      },
      {
        "astId": 5520,
        "contract": "contracts/SafeVault.sol:SafeVault",
        "label": "totalSupply",
        "offset": 0,
        "slot": "1",
        "type": "t_uint256"
      },
      {
        "astId": 5524,
        "contract": "contracts/SafeVault.sol:SafeVault",
        "label": "balances",
        "offset": 0,
        "slot": "2",
        "type": "t_mapping(t_address,t_uint256)"
      }
    ],
    "types": {
      "t_address": {
        "encoding": "inplace",
        "label": "address",
        "numberOfBytes": "20"
      },
      "t_contract(IERC20)2440": {
        "encoding": "inplace",
        "label": "contract IERC20",
        "numberOfBytes": "20"
      },
      "t_mapping(t_address,t_uint256)": {
        "encoding": "mapping",
        "key": "t_address",
        "label": "mapping(address => uint256)",
        "numberOfBytes": "32",
        "value": "t_uint256"
      },
      "t_uint256": {
        "encoding": "inplace",
        "label": "uint256",
        "numberOfBytes": "32"
      }
    }
  }
}