{
  "address": "0xafC5937eeBF2F3955b11667CBDB300918f19ee17",
  "abi": [
    {
      "inputs": [
        {
          "internalType": "string",
          "name": "_uri",
          "type": "string"
        },
        {
          "internalType": "uint256[4]",
          "name": "_price",
          "type": "uint256[4]"
        },
        {
          "internalType": "uint256[4]",
          "name": "_maxSupply",
          "type": "uint256[4]"
        },
        {
          "internalType": "contract ISafeToken",
          "name": "_safeToken",
          "type": "address"
        },
        {
          "internalType": "uint256[2]",
          "name": "_priceDistributionOnMint",
          "type": "uint256[2]"
        },
        {
          "internalType": "uint256",
          "name": "_referralShareForNFTPurchase",
          "type": "uint256"
        },
        {
          "internalType": "uint256[2]",
          "name": "_profitDistribution",
          "type": "uint256[2]"
        },
        {
          "internalType": "address",
          "name": "_stabilizerWallet",
          "type": "address"
        }
      ],
      "stateMutability": "nonpayable",
      "type": "constructor"
    },
    {
      "anonymous": false,
      "inputs": [
        {
          "indexed": true,
          "internalType": "address",
          "name": "account",
          "type": "address"
        },
        {
          "indexed": true,
          "internalType": "address",
          "name": "operator",
          "type": "address"
        },
        {
          "indexed": false,
          "internalType": "bool",
          "name": "approved",
          "type": "bool"
        }
      ],
      "name": "ApprovalForAll",
      "type": "event"
    },
    {
      "anonymous": false,
      "inputs": [
        {
          "indexed": false,
          "internalType": "address",
          "name": "account",
          "type": "address"
        }
      ],
      "name": "Paused",
      "type": "event"
    },
    {
      "anonymous": false,
      "inputs": [
        {
          "indexed": true,
          "internalType": "bytes32",
          "name": "role",
          "type": "bytes32"
        },
        {
          "indexed": true,
          "internalType": "bytes32",
          "name": "previousAdminRole",
          "type": "bytes32"
        },
        {
          "indexed": true,
          "internalType": "bytes32",
          "name": "newAdminRole",
          "type": "bytes32"
        }
      ],
      "name": "RoleAdminChanged",
      "type": "event"
    },
    {
      "anonymous": false,
      "inputs": [
        {
          "indexed": true,
          "internalType": "bytes32",
          "name": "role",
          "type": "bytes32"
        },
        {
          "indexed": true,
          "internalType": "address",
          "name": "account",
          "type": "address"
        },
        {
          "indexed": true,
          "internalType": "address",
          "name": "sender",
          "type": "address"
        }
      ],
      "name": "RoleGranted",
      "type": "event"
    },
    {
      "anonymous": false,
      "inputs": [
        {
          "indexed": true,
          "internalType": "bytes32",
          "name": "role",
          "type": "bytes32"
        },
        {
          "indexed": true,
          "internalType": "address",
          "name": "account",
          "type": "address"
        },
        {
          "indexed": true,
          "internalType": "address",
          "name": "sender",
          "type": "address"
        }
      ],
      "name": "RoleRevoked",
      "type": "event"
    },
    {
      "anonymous": false,
      "inputs": [
        {
          "indexed": false,
          "internalType": "bool",
          "name": "_status",
          "type": "bool"
        }
      ],
      "name": "TogglePresale",
      "type": "event"
    },
    {
      "anonymous": false,
      "inputs": [
        {
          "indexed": true,
          "internalType": "address",
          "name": "operator",
          "type": "address"
        },
        {
          "indexed": true,
          "internalType": "address",
          "name": "from",
          "type": "address"
        },
        {
          "indexed": true,
          "internalType": "address",
          "name": "to",
          "type": "address"
        },
        {
          "indexed": false,
          "internalType": "uint256[]",
          "name": "ids",
          "type": "uint256[]"
        },
        {
          "indexed": false,
          "internalType": "uint256[]",
          "name": "values",
          "type": "uint256[]"
        }
      ],
      "name": "TransferBatch",
      "type": "event"
    },
    {
      "anonymous": false,
      "inputs": [
        {
          "indexed": true,
          "internalType": "address",
          "name": "operator",
          "type": "address"
        },
        {
          "indexed": true,
          "internalType": "address",
          "name": "from",
          "type": "address"
        },
        {
          "indexed": true,
          "internalType": "address",
          "name": "to",
          "type": "address"
        },
        {
          "indexed": false,
          "internalType": "uint256",
          "name": "id",
          "type": "uint256"
        },
        {
          "indexed": false,
          "internalType": "uint256",
          "name": "value",
          "type": "uint256"
        }
      ],
      "name": "TransferSingle",
      "type": "event"
    },
    {
      "anonymous": false,
      "inputs": [
        {
          "indexed": false,
          "internalType": "string",
          "name": "value",
          "type": "string"
        },
        {
          "indexed": true,
          "internalType": "uint256",
          "name": "id",
          "type": "uint256"
        }
      ],
      "name": "URI",
      "type": "event"
    },
    {
      "anonymous": false,
      "inputs": [
        {
          "indexed": false,
          "internalType": "address",
          "name": "account",
          "type": "address"
        }
      ],
      "name": "Unpaused",
      "type": "event"
    },
    {
      "inputs": [],
      "name": "DEFAULT_ADMIN_ROLE",
      "outputs": [
        {
          "internalType": "bytes32",
          "name": "",
          "type": "bytes32"
        }
      ],
      "stateMutability": "view",
      "type": "function"
    },
    {
      "inputs": [],
      "name": "MINTER_ROLE",
      "outputs": [
        {
          "internalType": "bytes32",
          "name": "",
          "type": "bytes32"
        }
      ],
      "stateMutability": "view",
      "type": "function"
    },
    {
      "inputs": [],
      "name": "PAUSER_ROLE",
      "outputs": [
        {
          "internalType": "bytes32",
          "name": "",
          "type": "bytes32"
        }
      ],
      "stateMutability": "view",
      "type": "function"
    },
    {
      "inputs": [],
      "name": "TIERS",
      "outputs": [
        {
          "internalType": "uint256",
          "name": "",
          "type": "uint256"
        }
      ],
      "stateMutability": "view",
      "type": "function"
    },
    {
      "inputs": [],
      "name": "WALLETS",
      "outputs": [
        {
          "internalType": "uint256",
          "name": "",
          "type": "uint256"
        }
      ],
      "stateMutability": "view",
      "type": "function"
    },
    {
      "inputs": [],
      "name": "WEEKS",
      "outputs": [
        {
          "internalType": "uint256",
          "name": "",
          "type": "uint256"
        }
      ],
      "stateMutability": "view",
      "type": "function"
    },
    {
      "inputs": [
        {
          "internalType": "uint256",
          "name": "",
          "type": "uint256"
        },
        {
          "internalType": "uint256",
          "name": "",
          "type": "uint256"
        },
        {
          "internalType": "address",
          "name": "",
          "type": "address"
        }
      ],
      "name": "alreadyDistributedAmount",
      "outputs": [
        {
          "internalType": "uint256",
          "name": "",
          "type": "uint256"
        }
      ],
      "stateMutability": "view",
      "type": "function"
    },
    {
      "inputs": [
        {
          "internalType": "uint256",
          "name": "",
          "type": "uint256"
        },
        {
          "internalType": "uint256",
          "name": "",
          "type": "uint256"
        }
      ],
      "name": "alreadyDistributedAmountByTier",
      "outputs": [
        {
          "internalType": "uint256",
          "name": "",
          "type": "uint256"
        }
      ],
      "stateMutability": "view",
      "type": "function"
    },
    {
      "inputs": [
        {
          "internalType": "address",
          "name": "account",
          "type": "address"
        },
        {
          "internalType": "uint256",
          "name": "id",
          "type": "uint256"
        }
      ],
      "name": "balanceOf",
      "outputs": [
        {
          "internalType": "uint256",
          "name": "",
          "type": "uint256"
        }
      ],
      "stateMutability": "view",
      "type": "function"
    },
    {
      "inputs": [
        {
          "internalType": "address[]",
          "name": "accounts",
          "type": "address[]"
        },
        {
          "internalType": "uint256[]",
          "name": "ids",
          "type": "uint256[]"
        }
      ],
      "name": "balanceOfBatch",
      "outputs": [
        {
          "internalType": "uint256[]",
          "name": "",
          "type": "uint256[]"
        }
      ],
      "stateMutability": "view",
      "type": "function"
    },
    {
      "inputs": [
        {
          "internalType": "address",
          "name": "account",
          "type": "address"
        },
        {
          "internalType": "uint256",
          "name": "id",
          "type": "uint256"
        },
        {
          "internalType": "uint256",
          "name": "value",
          "type": "uint256"
        }
      ],
      "name": "burn",
      "outputs": [],
      "stateMutability": "nonpayable",
      "type": "function"
    },
    {
      "inputs": [
        {
          "internalType": "address",
          "name": "account",
          "type": "address"
        },
        {
          "internalType": "uint256[]",
          "name": "ids",
          "type": "uint256[]"
        },
        {
          "internalType": "uint256[]",
          "name": "values",
          "type": "uint256[]"
        }
      ],
      "name": "burnBatch",
      "outputs": [],
      "stateMutability": "nonpayable",
      "type": "function"
    },
    {
      "inputs": [
        {
          "internalType": "enum ISafeNFT.Tiers",
          "name": "_tier",
          "type": "uint8"
        },
        {
          "internalType": "uint256",
          "name": "_amount",
          "type": "uint256"
        },
        {
          "internalType": "address",
          "name": "_referral",
          "type": "address"
        }
      ],
      "name": "buy",
      "outputs": [],
      "stateMutability": "nonpayable",
      "type": "function"
    },
    {
      "inputs": [
        {
          "internalType": "enum ISafeNFT.Tiers",
          "name": "_tier",
          "type": "uint8"
        },
        {
          "internalType": "uint256",
          "name": "_distributionId",
          "type": "uint256"
        }
      ],
      "name": "claimReward",
      "outputs": [],
      "stateMutability": "nonpayable",
      "type": "function"
    },
    {
      "inputs": [],
      "name": "claimRewardsTotal",
      "outputs": [],
      "stateMutability": "nonpayable",
      "type": "function"
    },
    {
      "inputs": [],
      "name": "currentDistributionId",
      "outputs": [
        {
          "internalType": "uint256",
          "name": "",
          "type": "uint256"
        }
      ],
      "stateMutability": "view",
      "type": "function"
    },
    {
      "inputs": [
        {
          "internalType": "uint256",
          "name": "_amountUSD",
          "type": "uint256"
        }
      ],
      "name": "distributeProfit",
      "outputs": [],
      "stateMutability": "nonpayable",
      "type": "function"
    },
    {
      "inputs": [
        {
          "internalType": "uint256",
          "name": "",
          "type": "uint256"
        },
        {
          "internalType": "uint256",
          "name": "",
          "type": "uint256"
        }
      ],
      "name": "distributionByTier",
      "outputs": [
        {
          "internalType": "uint256",
          "name": "",
          "type": "uint256"
        }
      ],
      "stateMutability": "view",
      "type": "function"
    },
    {
      "inputs": [
        {
          "internalType": "uint256",
          "name": "",
          "type": "uint256"
        }
      ],
      "name": "distributionOfProfit",
      "outputs": [
        {
          "internalType": "uint256",
          "name": "",
          "type": "uint256"
        }
      ],
      "stateMutability": "view",
      "type": "function"
    },
    {
      "inputs": [
        {
          "internalType": "uint256",
          "name": "",
          "type": "uint256"
        },
        {
          "internalType": "uint256",
          "name": "",
          "type": "uint256"
        }
      ],
      "name": "distributionTotalSupplySnapshot",
      "outputs": [
        {
          "internalType": "uint256",
          "name": "",
          "type": "uint256"
        }
      ],
      "stateMutability": "view",
      "type": "function"
    },
    {
      "inputs": [
        {
          "internalType": "uint256",
          "name": "id",
          "type": "uint256"
        }
      ],
      "name": "exists",
      "outputs": [
        {
          "internalType": "bool",
          "name": "",
          "type": "bool"
        }
      ],
      "stateMutability": "view",
      "type": "function"
    },
    {
      "inputs": [
        {
          "internalType": "address",
          "name": "_user",
          "type": "address"
        }
      ],
      "name": "getBalanceTable",
      "outputs": [
        {
          "internalType": "uint256[]",
          "name": "",
          "type": "uint256[]"
        }
      ],
      "stateMutability": "view",
      "type": "function"
    },
    {
      "inputs": [],
      "name": "getCurrentPresaleWeek",
      "outputs": [
        {
          "internalType": "uint256",
          "name": "",
          "type": "uint256"
        }
      ],
      "stateMutability": "view",
      "type": "function"
    },
    {
      "inputs": [],
      "name": "getDiscountedPriceTable",
      "outputs": [
        {
          "internalType": "uint256[]",
          "name": "",
          "type": "uint256[]"
        }
      ],
      "stateMutability": "view",
      "type": "function"
    },
    {
      "inputs": [
        {
          "internalType": "enum ISafeNFT.Tiers",
          "name": "_tier",
          "type": "uint8"
        }
      ],
      "name": "getFairPrice",
      "outputs": [
        {
          "internalType": "uint256",
          "name": "",
          "type": "uint256"
        }
      ],
      "stateMutability": "view",
      "type": "function"
    },
    {
      "inputs": [],
      "name": "getFairPriceTable",
      "outputs": [
        {
          "internalType": "uint256[]",
          "name": "",
          "type": "uint256[]"
        }
      ],
      "stateMutability": "view",
      "type": "function"
    },
    {
      "inputs": [],
      "name": "getMyBalanceTable",
      "outputs": [
        {
          "internalType": "uint256[]",
          "name": "",
          "type": "uint256[]"
        }
      ],
      "stateMutability": "view",
      "type": "function"
    },
    {
      "inputs": [],
      "name": "getMyPendingRewardsTotal",
      "outputs": [
        {
          "internalType": "uint256",
          "name": "",
          "type": "uint256"
        }
      ],
      "stateMutability": "view",
      "type": "function"
    },
    {
      "inputs": [],
      "name": "getMyShareOfTreasury",
      "outputs": [
        {
          "internalType": "uint256",
          "name": "",
          "type": "uint256"
        }
      ],
      "stateMutability": "view",
      "type": "function"
    },
    {
      "inputs": [
        {
          "internalType": "address",
          "name": "_user",
          "type": "address"
        },
        {
          "internalType": "enum ISafeNFT.Tiers",
          "name": "_tier",
          "type": "uint8"
        },
        {
          "internalType": "uint256",
          "name": "_distributionId",
          "type": "uint256"
        }
      ],
      "name": "getPendingRewards",
      "outputs": [
        {
          "internalType": "uint256",
          "name": "",
          "type": "uint256"
        }
      ],
      "stateMutability": "view",
      "type": "function"
    },
    {
      "inputs": [
        {
          "internalType": "enum ISafeNFT.Tiers",
          "name": "_tier",
          "type": "uint8"
        }
      ],
      "name": "getPrice",
      "outputs": [
        {
          "internalType": "uint256",
          "name": "",
          "type": "uint256"
        }
      ],
      "stateMutability": "view",
      "type": "function"
    },
    {
      "inputs": [],
      "name": "getPriceTable",
      "outputs": [
        {
          "internalType": "uint256[]",
          "name": "",
          "type": "uint256[]"
        }
      ],
      "stateMutability": "view",
      "type": "function"
    },
    {
      "inputs": [
        {
          "internalType": "bytes32",
          "name": "role",
          "type": "bytes32"
        }
      ],
      "name": "getRoleAdmin",
      "outputs": [
        {
          "internalType": "bytes32",
          "name": "",
          "type": "bytes32"
        }
      ],
      "stateMutability": "view",
      "type": "function"
    },
    {
      "inputs": [
        {
          "internalType": "bytes32",
          "name": "role",
          "type": "bytes32"
        },
        {
          "internalType": "uint256",
          "name": "index",
          "type": "uint256"
        }
      ],
      "name": "getRoleMember",
      "outputs": [
        {
          "internalType": "address",
          "name": "",
          "type": "address"
        }
      ],
      "stateMutability": "view",
      "type": "function"
    },
    {
      "inputs": [
        {
          "internalType": "bytes32",
          "name": "role",
          "type": "bytes32"
        }
      ],
      "name": "getRoleMemberCount",
      "outputs": [
        {
          "internalType": "uint256",
          "name": "",
          "type": "uint256"
        }
      ],
      "stateMutability": "view",
      "type": "function"
    },
    {
      "inputs": [],
      "name": "getTotalSupplyAllTiers",
      "outputs": [
        {
          "internalType": "uint256",
          "name": "",
          "type": "uint256"
        }
      ],
      "stateMutability": "view",
      "type": "function"
    },
    {
      "inputs": [],
      "name": "getTreasuryCost",
      "outputs": [
        {
          "internalType": "uint256",
          "name": "",
          "type": "uint256"
        }
      ],
      "stateMutability": "view",
      "type": "function"
    },
    {
      "inputs": [],
      "name": "getUnclaimedRewards",
      "outputs": [
        {
          "internalType": "uint256",
          "name": "",
          "type": "uint256"
        }
      ],
      "stateMutability": "view",
      "type": "function"
    },
    {
      "inputs": [
        {
          "internalType": "bytes32",
          "name": "role",
          "type": "bytes32"
        },
        {
          "internalType": "address",
          "name": "account",
          "type": "address"
        }
      ],
      "name": "grantRole",
      "outputs": [],
      "stateMutability": "nonpayable",
      "type": "function"
    },
    {
      "inputs": [
        {
          "internalType": "bytes32",
          "name": "role",
          "type": "bytes32"
        },
        {
          "internalType": "address",
          "name": "account",
          "type": "address"
        }
      ],
      "name": "hasRole",
      "outputs": [
        {
          "internalType": "bool",
          "name": "",
          "type": "bool"
        }
      ],
      "stateMutability": "view",
      "type": "function"
    },
    {
      "inputs": [
        {
          "internalType": "string",
          "name": "_uri",
          "type": "string"
        },
        {
          "internalType": "uint256[4]",
          "name": "_price",
          "type": "uint256[4]"
        },
        {
          "internalType": "uint256[4]",
          "name": "_maxSupply",
          "type": "uint256[4]"
        },
        {
          "internalType": "contract ISafeToken",
          "name": "_safeToken",
          "type": "address"
        },
        {
          "internalType": "uint256[2]",
          "name": "_priceDistributionOnMint",
          "type": "uint256[2]"
        },
        {
          "internalType": "uint256",
          "name": "_referralShareForNFTPurchase",
          "type": "uint256"
        },
        {
          "internalType": "uint256[2]",
          "name": "_profitDistribution",
          "type": "uint256[2]"
        },
        {
          "internalType": "address",
          "name": "_stabilizerWallet",
          "type": "address"
        }
      ],
      "name": "initialize",
      "outputs": [],
      "stateMutability": "nonpayable",
      "type": "function"
    },
    {
      "inputs": [
        {
          "internalType": "address",
          "name": "account",
          "type": "address"
        },
        {
          "internalType": "address",
          "name": "operator",
          "type": "address"
        }
      ],
      "name": "isApprovedForAll",
      "outputs": [
        {
          "internalType": "bool",
          "name": "",
          "type": "bool"
        }
      ],
      "stateMutability": "view",
      "type": "function"
    },
    {
      "inputs": [
        {
          "internalType": "uint256",
          "name": "",
          "type": "uint256"
        }
      ],
      "name": "maxSupply",
      "outputs": [
        {
          "internalType": "uint256",
          "name": "",
          "type": "uint256"
        }
      ],
      "stateMutability": "view",
      "type": "function"
    },
    {
      "inputs": [
        {
          "internalType": "address",
          "name": "to",
          "type": "address"
        },
        {
          "internalType": "uint256",
          "name": "id",
          "type": "uint256"
        },
        {
          "internalType": "uint256",
          "name": "amount",
          "type": "uint256"
        },
        {
          "internalType": "bytes",
          "name": "data",
          "type": "bytes"
        }
      ],
      "name": "mint",
      "outputs": [],
      "stateMutability": "nonpayable",
      "type": "function"
    },
    {
      "inputs": [
        {
          "internalType": "address",
          "name": "to",
          "type": "address"
        },
        {
          "internalType": "uint256[]",
          "name": "ids",
          "type": "uint256[]"
        },
        {
          "internalType": "uint256[]",
          "name": "amounts",
          "type": "uint256[]"
        },
        {
          "internalType": "bytes",
          "name": "data",
          "type": "bytes"
        }
      ],
      "name": "mintBatch",
      "outputs": [],
      "stateMutability": "nonpayable",
      "type": "function"
    },
    {
      "inputs": [],
      "name": "name",
      "outputs": [
        {
          "internalType": "string",
          "name": "",
          "type": "string"
        }
      ],
      "stateMutability": "view",
      "type": "function"
    },
    {
      "inputs": [],
      "name": "pause",
      "outputs": [],
      "stateMutability": "nonpayable",
      "type": "function"
    },
    {
      "inputs": [],
      "name": "paused",
      "outputs": [
        {
          "internalType": "bool",
          "name": "",
          "type": "bool"
        }
      ],
      "stateMutability": "view",
      "type": "function"
    },
    {
      "inputs": [],
      "name": "presale",
      "outputs": [
        {
          "internalType": "bool",
          "name": "",
          "type": "bool"
        }
      ],
      "stateMutability": "view",
      "type": "function"
    },
    {
      "inputs": [
        {
          "internalType": "uint256",
          "name": "",
          "type": "uint256"
        },
        {
          "internalType": "uint256",
          "name": "",
          "type": "uint256"
        }
      ],
      "name": "presalePrice",
      "outputs": [
        {
          "internalType": "uint256",
          "name": "",
          "type": "uint256"
        }
      ],
      "stateMutability": "view",
      "type": "function"
    },
    {
      "inputs": [],
      "name": "presaleStartDate",
      "outputs": [
        {
          "internalType": "uint256",
          "name": "",
          "type": "uint256"
        }
      ],
      "stateMutability": "view",
      "type": "function"
    },
    {
      "inputs": [
        {
          "internalType": "uint256",
          "name": "",
          "type": "uint256"
        }
      ],
      "name": "price",
      "outputs": [
        {
          "internalType": "uint256",
          "name": "",
          "type": "uint256"
        }
      ],
      "stateMutability": "view",
      "type": "function"
    },
    {
      "inputs": [
        {
          "internalType": "uint256",
          "name": "",
          "type": "uint256"
        }
      ],
      "name": "priceDistributionOnMint",
      "outputs": [
        {
          "internalType": "uint256",
          "name": "",
          "type": "uint256"
        }
      ],
      "stateMutability": "view",
      "type": "function"
    },
    {
      "inputs": [
        {
          "internalType": "uint256",
          "name": "",
          "type": "uint256"
        }
      ],
      "name": "profitDistribution",
      "outputs": [
        {
          "internalType": "uint256",
          "name": "",
          "type": "uint256"
        }
      ],
      "stateMutability": "view",
      "type": "function"
    },
    {
      "inputs": [],
      "name": "referralShareForNFTPurchase",
      "outputs": [
        {
          "internalType": "uint256",
          "name": "",
          "type": "uint256"
        }
      ],
      "stateMutability": "view",
      "type": "function"
    },
    {
      "inputs": [
        {
          "internalType": "bytes32",
          "name": "role",
          "type": "bytes32"
        },
        {
          "internalType": "address",
          "name": "account",
          "type": "address"
        }
      ],
      "name": "renounceRole",
      "outputs": [],
      "stateMutability": "nonpayable",
      "type": "function"
    },
    {
      "inputs": [
        {
          "internalType": "bytes32",
          "name": "role",
          "type": "bytes32"
        },
        {
          "internalType": "address",
          "name": "account",
          "type": "address"
        }
      ],
      "name": "revokeRole",
      "outputs": [],
      "stateMutability": "nonpayable",
      "type": "function"
    },
    {
      "inputs": [
        {
          "internalType": "address",
          "name": "from",
          "type": "address"
        },
        {
          "internalType": "address",
          "name": "to",
          "type": "address"
        },
        {
          "internalType": "uint256[]",
          "name": "ids",
          "type": "uint256[]"
        },
        {
          "internalType": "uint256[]",
          "name": "amounts",
          "type": "uint256[]"
        },
        {
          "internalType": "bytes",
          "name": "data",
          "type": "bytes"
        }
      ],
      "name": "safeBatchTransferFrom",
      "outputs": [],
      "stateMutability": "nonpayable",
      "type": "function"
    },
    {
      "inputs": [],
      "name": "safeToken",
      "outputs": [
        {
          "internalType": "contract ISafeToken",
          "name": "",
          "type": "address"
        }
      ],
      "stateMutability": "view",
      "type": "function"
    },
    {
      "inputs": [
        {
          "internalType": "address",
          "name": "from",
          "type": "address"
        },
        {
          "internalType": "address",
          "name": "to",
          "type": "address"
        },
        {
          "internalType": "uint256",
          "name": "id",
          "type": "uint256"
        },
        {
          "internalType": "uint256",
          "name": "amount",
          "type": "uint256"
        },
        {
          "internalType": "bytes",
          "name": "data",
          "type": "bytes"
        }
      ],
      "name": "safeTransferFrom",
      "outputs": [],
      "stateMutability": "nonpayable",
      "type": "function"
    },
    {
      "inputs": [],
      "name": "safeVault",
      "outputs": [
        {
          "internalType": "contract ISafeVault",
          "name": "",
          "type": "address"
        }
      ],
      "stateMutability": "view",
      "type": "function"
    },
    {
      "inputs": [
        {
          "internalType": "address",
          "name": "operator",
          "type": "address"
        },
        {
          "internalType": "bool",
          "name": "approved",
          "type": "bool"
        }
      ],
      "name": "setApprovalForAll",
      "outputs": [],
      "stateMutability": "nonpayable",
      "type": "function"
    },
    {
      "inputs": [
        {
          "internalType": "uint256[][]",
          "name": "_presalePrice",
          "type": "uint256[][]"
        }
      ],
      "name": "setDiscountedPriceTable",
      "outputs": [],
      "stateMutability": "nonpayable",
      "type": "function"
    },
    {
      "inputs": [
        {
          "internalType": "uint256",
          "name": "_launchDate",
          "type": "uint256"
        }
      ],
      "name": "setPresaleStartDate",
      "outputs": [],
      "stateMutability": "nonpayable",
      "type": "function"
    },
    {
      "inputs": [],
      "name": "stabilizerWallet",
      "outputs": [
        {
          "internalType": "address",
          "name": "",
          "type": "address"
        }
      ],
      "stateMutability": "view",
      "type": "function"
    },
    {
      "inputs": [
        {
          "internalType": "bytes4",
          "name": "interfaceId",
          "type": "bytes4"
        }
      ],
      "name": "supportsInterface",
      "outputs": [
        {
          "internalType": "bool",
          "name": "",
          "type": "bool"
        }
      ],
      "stateMutability": "view",
      "type": "function"
    },
    {
      "inputs": [],
      "name": "togglePresale",
      "outputs": [],
      "stateMutability": "nonpayable",
      "type": "function"
    },
    {
      "inputs": [
        {
          "internalType": "uint256",
          "name": "id",
          "type": "uint256"
        }
      ],
      "name": "totalSupply",
      "outputs": [
        {
          "internalType": "uint256",
          "name": "",
          "type": "uint256"
        }
      ],
      "stateMutability": "view",
      "type": "function"
    },
    {
      "inputs": [],
      "name": "unpause",
      "outputs": [],
      "stateMutability": "nonpayable",
      "type": "function"
    },
    {
      "inputs": [
        {
          "internalType": "uint256",
          "name": "",
          "type": "uint256"
        }
      ],
      "name": "uri",
      "outputs": [
        {
          "internalType": "string",
          "name": "",
          "type": "string"
        }
      ],
      "stateMutability": "view",
      "type": "function"
    },
    {
      "inputs": [],
      "name": "usd",
      "outputs": [
        {
          "internalType": "contract IERC20",
          "name": "",
          "type": "address"
        }
      ],
      "stateMutability": "view",
      "type": "function"
    },
    {
      "inputs": [
        {
          "internalType": "uint256",
          "name": "",
          "type": "uint256"
        }
      ],
      "name": "wallets",
      "outputs": [
        {
          "internalType": "address",
          "name": "",
          "type": "address"
        }
      ],
      "stateMutability": "view",
      "type": "function"
    }
  ],
  "transactionHash": "0x33b7d6f76bee893d793c8e1ea7f5395383ad65a9a22b33164c4647ed921098c5",
  "args": [
    "",
    [
      "131250000",
      "262500000",
      "525000000",
      "1050000000"
    ],
    [
      2000,
      1000,
      1000,
      1000
    ],
    "0xF3c420B081422C51533150664Fc8F2fb77E39296",
    [
      70000000,
      20000000
    ],
    5000000,
    [
      25000000,
      20000000
    ],
    "0x9F397Baa90A0968E87351Ed7D45797EDF9f9037F"
  ],
  "numDeployments": 7,
  "solcInputHash": "51f433477611499d764391112f40a933",
  "bytecode": "0x60806040523480156200001157600080fd5b506040516200693e3803806200693e8339810160408190526200003491620008af565b87806200004181620000b5565b506007805460ff1916905562000059600033620000c7565b620000746000805160206200691e83398151915233620000c7565b6200008f600080516020620068fe83398151915233620000c7565b506001600955620000a78888888888888888620000d3565b505050505050505062000bf4565b6006620000c3828262000a76565b5050565b620000c382826200050e565b6000620000ed600080516020620068de8339815191525490565b90506001600160a01b0381166200011d576001600160a01b03600080516020620068de8339815191525562000133565b336001600160a01b038216146200013357600080fd5b6200013e89620000b5565b6200014b600033620000c7565b620001666000805160206200691e83398151915233620000c7565b62000181600080516020620068fe83398151915233620000c7565b62000190600a89600462000671565b50620001a0601e88600462000671565b50602380546001600160a01b0319166001600160a01b038816179055620001cb6026866002620006b4565b50602a849055620001e06028846002620006b4565b50602b80546001600160a01b0319166001600160a01b03848116919091179091556023546040805163db7a460560e01b815281516200027394939093169263db7a4605926004808401939192918290030181865afa15801562000247573d6000803e3d6000fd5b505050506040513d601f19601f820116820180604052508101906200026d919062000b42565b62000551565b602360009054906101000a90046001600160a01b03166001600160a01b031663deef94de6040518163ffffffff1660e01b8152600401602060405180830381865afa158015620002c7573d6000803e3d6000fd5b505050506040513d601f19601f82011682018060405250810190620002ed919062000ba9565b602480546001600160a01b0319166001600160a01b039283161790556023546040805163d63a6ccd60e01b81529051919092169163d63a6ccd9160048083019260209291908290030181865afa1580156200034c573d6000803e3d6000fd5b505050506040513d601f19601f8201168201806040525081019062000372919062000ba9565b602580546001600160a01b0319166001600160a01b0392831690811790915560235460405163095ea7b360e01b81529216600483015260001960248301529063095ea7b3906044016020604051808303816000875af1158015620003da573d6000803e3d6000fd5b505050506040513d601f19601f8201168201806040525081019062000400919062000bd0565b506025546024805460405163095ea7b360e01b81526001600160a01b039182166004820152600019928101929092529091169063095ea7b3906044016020604051808303816000875af11580156200045c573d6000803e3d6000fd5b505050506040513d601f19601f8201168201806040525081019062000482919062000bd0565b5060235460405163095ea7b360e01b81526001600160a01b039091166004820181905260001960248301529063095ea7b3906044016020604051808303816000875af1158015620004d7573d6000803e3d6000fd5b505050506040513d601f19601f82011682018060405250810190620004fd919062000bd0565b50506000602c555050505050505050565b6200052582826200055f60201b62002d6e1760201c565b60008281526001602090815260409091206200054c91839062002df2620005ff821b17901c565b505050565b620000c360028281620006e4565b6000828152602081815260408083206001600160a01b038516845290915290205460ff16620000c3576000828152602081815260408083206001600160a01b03851684529091529020805460ff19166001179055620005bb3390565b6001600160a01b0316816001600160a01b0316837f2f8788117e7eff1d82e926ec794901d17c78024a50270940304540a733656f0d60405160405180910390a45050565b600062000616836001600160a01b0384166200061f565b90505b92915050565b6000818152600183016020526040812054620006685750815460018181018455600084815260208082209093018490558454848252828601909352604090209190915562000619565b50600062000619565b8260048101928215620006a2579160200282015b82811115620006a257825182559160200191906001019062000685565b50620006b09291506200072f565b5090565b8260028101928215620006a25791602002820182811115620006a257825182559160200191906001019062000685565b8260028101928215620006a2579160200282015b82811115620006a257825182546001600160a01b0319166001600160a01b03909116178255602090920191600190910190620006f8565b5b80821115620006b0576000815560010162000730565b634e487b7160e01b600052604160045260246000fd5b604080519081016001600160401b038111828210171562000781576200078162000746565b60405290565b604051601f8201601f191681016001600160401b0381118282101715620007b257620007b262000746565b604052919050565b600082601f830112620007cc57600080fd5b604051608081016001600160401b0381118282101715620007f157620007f162000746565b6040528060808401858111156200080757600080fd5b845b818110156200082357805183526020928301920162000809565b509195945050505050565b6001600160a01b03811681146200084457600080fd5b50565b805162000854816200082e565b919050565b600082601f8301126200086b57600080fd5b620008756200075c565b8060408401858111156200088857600080fd5b845b81811015620008a45780518452602093840193016200088a565b509095945050505050565b600080600080600080600080610200898b031215620008cd57600080fd5b88516001600160401b0380821115620008e557600080fd5b818b0191508b601f830112620008fa57600080fd5b8151818111156200090f576200090f62000746565b6020915062000927601f8201601f1916830162000787565b8181528d838386010111156200093c57600080fd5b60005b828110156200095c5784810184015182820185015283016200093f565b506000838383010152809b505050620009788c828d01620007ba565b985050506200098b8a60a08b01620007ba565b95506200099c6101208a0162000847565b9450620009ae8a6101408b0162000859565b93506101808901519250620009c88a6101a08b0162000859565b9150620009d96101e08a0162000847565b90509295985092959890939650565b600181811c90821680620009fd57607f821691505b60208210810362000a1e57634e487b7160e01b600052602260045260246000fd5b50919050565b601f8211156200054c57600081815260208120601f850160051c8101602086101562000a4d5750805b601f850160051c820191505b8181101562000a6e5782815560010162000a59565b505050505050565b81516001600160401b0381111562000a925762000a9262000746565b62000aaa8162000aa38454620009e8565b8462000a24565b602080601f83116001811462000ae2576000841562000ac95750858301515b600019600386901b1c1916600185901b17855562000a6e565b600085815260208120601f198616915b8281101562000b135788860151825594840194600190910190840162000af2565b508582101562000b325787850151600019600388901b60f8161c191681555b5050505050600190811b01905550565b60006040828403121562000b5557600080fd5b82601f83011262000b6557600080fd5b62000b6f6200075c565b80604084018581111562000b8257600080fd5b845b81811015620008a457805162000b9a816200082e565b84526020938401930162000b84565b60006020828403121562000bbc57600080fd5b815162000bc9816200082e565b9392505050565b60006020828403121562000be357600080fd5b8151801515811462000bc957600080fd5b615cda8062000c046000396000f3fe608060405234801561001057600080fd5b50600436106104265760003560e01c80636ac600681161022b578063ca15c87311610130578063deef94de116100b8578063f03f1e5111610087578063f03f1e5114610955578063f0b2df891461095d578063f242432a14610970578063f5298aca14610983578063fdea8e0b1461099657600080fd5b8063deef94de146108cc578063df71da76146108df578063e63ab1e9146108f2578063e985e9c51461091957600080fd5b8063d36122b8116100ff578063d36122b814610864578063d36dfac81461086c578063d53913931461087f578063d547741f146108a6578063d63a6ccd146108b957600080fd5b8063ca15c873146107fa578063ca7b24471461080d578063ced79ce014610820578063d0d5a1ba1461085157600080fd5b80638456cb59116101b357806391d148541161018257806391d14854146107a4578063a1f5c239146107b7578063a217fddf146107bf578063a22cb465146107c7578063bd85b039146107da57600080fd5b80638456cb591461076e578063869f7594146107765780638d3bd55b146107895780639010d07c1461079157600080fd5b8063731133e9116101fa578063731133e91461072e578063780069e0146107415780637ad71f721461074a5780637e93391a1461075d57806380a3a7831461076557600080fd5b80636ac60068146107005780636b20c454146107135780636d6689ea146107265780636e748f971461072657600080fd5b80632eb2c2d6116103315780634b3fd05a116102b957806352a1ad541161028857806352a1ad54146106a957806353f7ffd2146106bc578063592fa65e146106cf5780635c975abb146106e25780635e95b4fe146106ed57600080fd5b80634b3fd05a146106595780634e1273f41461066c5780634f558e791461067f57806351ba5b44146106a157600080fd5b806337f1e7f21161030057806337f1e7f2146106055780633f4ba83a14610618578063418f7c511461062057806342e0f792146106335780634407a61e1461064657600080fd5b80632eb2c2d6146105c45780632f2ff15d146105d757806334393743146105ea57806336568abe146105f257600080fd5b806316230257116103b45780631f7fdffa116103835780631f7fdffa1461055e57806323f77fa914610573578063248a9ca31461058657806326a49e37146105a95780632c13f08c146105bc57600080fd5b80631623025714610526578063168affdf1461052e5780631729c14f1461054e5780631a5e85e51461055657600080fd5b806305adca38116103fb57806305adca381461049057806306fdde03146104985780630b0b73d2146104d35780630e89341c146104fe578063104304f31461051157600080fd5b8062a13c4c1461042b578062fdd58e1461044757806301ffc9a71461045a57806304ca4c071461047d575b600080fd5b610434602a5481565b6040519081526020015b60405180910390f35b610434610455366004614a98565b6109aa565b61046d610468366004614ada565b610a45565b604051901515815260200161043e565b61043461048b366004614af7565b610a50565b610434610a75565b6104c66040518060400160405280600f81526020016e14d8599948165a595b191cc8139195608a1b81525081565b60405161043e9190614b69565b602b546104e6906001600160a01b031681565b6040516001600160a01b03909116815260200161043e565b6104c661050c366004614b7c565b610af6565b610519610b8a565b60405161043e9190614bd0565b610434610c07565b61043461053c366004614b7c565b602d6020526000908152604090205481565b610519610c9e565b610434610d3d565b61057161056c366004614d5b565b610d78565b005b610519610581366004614df5565b610dd0565b610434610594366004614b7c565b60009081526020819052604090206001015490565b6104346105b7366004614b7c565b610e3c565b610519610e53565b6105716105d2366004614e12565b610eca565b6105716105e5366004614ebf565b610f16565b610571610f40565b610571610600366004614ebf565b610fcd565b610434610613366004614f03565b61104b565b610571611079565b61043461062e366004614f1e565b61111f565b610571610641366004614b7c565b6111ec565b610571610654366004614f5c565b611218565b6023546104e6906001600160a01b031681565b61051961067a366004615017565b611394565b61046d61068d366004614b7c565b600090815260086020526040902054151590565b6104346114bd565b6104346106b7366004614af7565b611540565b6105716106ca3660046150e3565b611562565b6104346106dd366004614af7565b611666565b60075460ff1661046d565b6104346106fb366004614af7565b611682565b61057161070e36600461519b565b61169e565b610571610721366004615268565b611af5565b610434600481565b61057161073c3660046152dd565b611b38565b610434602c5481565b6104e6610758366004614b7c565b611b8a565b610434611baa565b61043460225481565b610571611d43565b610434610784366004614b7c565b611de7565b610434600281565b6104e661079f366004614af7565b611df7565b61046d6107b2366004614ebf565b611e16565b610519611e3f565b610434600081565b6105716107d5366004615341565b611e51565b6104346107e8366004614b7c565b60009081526008602052604090205490565b610434610808366004614b7c565b611e5c565b61043461081b366004614b7c565b611e73565b61043461082e36600461536f565b603060209081526000938452604080852082529284528284209052825290205481565b61057161085f3660046153a8565b611e83565b610571612795565b61057161087a366004614b7c565b612800565b6104347f9f2df0fed2c77648de5860a4cc508cd0818c85b8b8a1ab4ceeef8d981c8956a681565b6105716108b4366004614ebf565b612ba1565b6025546104e6906001600160a01b031681565b6024546104e6906001600160a01b031681565b6104346108ed366004614b7c565b612bc6565b6104347f65d7a28e3265b37a6474929f336521b332c1681b933f6cb9f3376673440d862a81565b61046d6109273660046153dd565b6001600160a01b03918216600090815260056020908152604080832093909416825291909152205460ff1690565b610434612bd6565b61043461096b366004614f03565b612c3e565b61057161097e36600461540b565b612ce6565b610571610991366004615473565b612d2b565b602b5461046d90600160a01b900460ff1681565b60006001600160a01b038316610a1a5760405162461bcd60e51b815260206004820152602a60248201527f455243313135353a2061646472657373207a65726f206973206e6f742061207660448201526930b634b21037bbb732b960b11b60648201526084015b60405180910390fd5b5060008181526004602090815260408083206001600160a01b03861684529091529020545b92915050565b6000610a3f82612e07565b602e6020528160005260406000208160048110610a6c57600080fd5b01549150829050565b602b54600090600160a01b900460ff168015610a9357506000602254115b610ad55760405162461bcd60e51b8152602060048201526013602482015272141c995cd85b19481b9bdd081cdd185c9d1959606a1b6044820152606401610a11565b62093a8060225442610ae791906154be565b610af191906154d1565b905090565b606060068054610b05906154f3565b80601f0160208091040260200160405190810160405280929190818152602001828054610b31906154f3565b8015610b7e5780601f10610b5357610100808354040283529160200191610b7e565b820191906000526020600020905b815481529060010190602001808311610b6157829003601f168201915b50505050509050919050565b60408051600480825260a08201909252606091600091906020820160808036833701905050905060005b6004811015610c0157600a8160048110610bd057610bd0615527565b0154828281518110610be457610be4615527565b602090810291909101015280610bf98161553d565b915050610bb4565b50919050565b600080805b6004811015610c015760005b602c548111610c8b5760008181526031602052604090208260048110610c4057610c40615527565b01546000828152602e602052604090208360048110610c6157610c61615527565b0154610c6d91906154be565b610c779084615556565b925080610c838161553d565b915050610c18565b5080610c968161553d565b915050610c0c565b60606000610caa610a75565b60408051600480825260a08201909252919250600091906020820160808036833701905050905060005b6004811015610d3657600e8360048110610cf057610cf0615527565b600402018160048110610d0557610d05615527565b0154828281518110610d1957610d19615527565b602090810291909101015280610d2e8161553d565b915050610cd4565b5092915050565b600080805b6004811015610c0157600081815260086020526040902054610d649083615556565b915080610d708161553d565b915050610d42565b610da27f9f2df0fed2c77648de5860a4cc508cd0818c85b8b8a1ab4ceeef8d981c8956a633611e16565b610dbe5760405162461bcd60e51b8152600401610a1190615569565b610dca84848484612e12565b50505050565b60408051600480825260a08201909252606091600091906020820160808036833701905050905060005b6004811015610d3657610e0d84826109aa565b828281518110610e1f57610e1f615527565b602090810291909101015280610e348161553d565b915050610dfa565b600a8160048110610e4c57600080fd5b0154905081565b60408051600480825260a08201909252606091600091906020820160808036833701905050905060005b6004811015610c0157610e9b81600381111561096b5761096b6155c6565b828281518110610ead57610ead615527565b602090810291909101015280610ec28161553d565b915050610e7d565b6001600160a01b038516331480610ee65750610ee68533610927565b610f025760405162461bcd60e51b8152600401610a11906155dc565b610f0f8585858585612f7c565b5050505050565b600082815260208190526040902060010154610f3181613137565b610f3b8383613141565b505050565b610f4b600033611e16565b610f675760405162461bcd60e51b8152600401610a119061562a565b602b805460ff600160a01b808304821615810260ff60a01b1990931692909217928390556040517f512e257b3133a95bd1fef520dafc0dfb212f406af4f808d030e788c8ff536c0493610fc39390049091161515815260200190565b60405180910390a1565b6001600160a01b038116331461103d5760405162461bcd60e51b815260206004820152602f60248201527f416363657373436f6e74726f6c3a2063616e206f6e6c792072656e6f756e636560448201526e103937b632b9903337b91039b2b63360891b6064820152608401610a11565b6110478282613163565b5050565b6000600a826003811115611061576110616155c6565b6004811061107157611071615527565b015492915050565b6110a37f65d7a28e3265b37a6474929f336521b332c1681b933f6cb9f3376673440d862a33611e16565b6111155760405162461bcd60e51b815260206004820152603b60248201527f455243313135355072657365744d696e7465725061757365723a206d7573742060448201527f686176652070617573657220726f6c6520746f20756e706175736500000000006064820152608401610a11565b61111d613185565b565b600080836003811115611134576111346155c6565b602c546000908152602e6020526040812091925090826004811061115a5761115a615527565b015460008381526008602052604081205491925090156111a65760008381526008602052604090205461118d88856109aa565b6111979084615679565b6111a191906154d1565b6111a9565b60005b600086815260306020908152604080832087845282528083206001600160a01b038c1684529091529020549091506111e190826154be565b979650505050505050565b6111f7600033611e16565b6112135760405162461bcd60e51b8152600401610a119061562a565b602255565b611223600033611e16565b61123f5760405162461bcd60e51b8152600401610a119061562a565b60048151146112905760405162461bcd60e51b815260206004820152601960248201527f496e636f7272656374206e756d626572206f66207765656b73000000000000006044820152606401610a11565b60005b60048110156110475760048282815181106112b0576112b0615527565b602002602001015151146113065760405162461bcd60e51b815260206004820152601960248201527f496e636f7272656374206e756d626572206f66207469657273000000000000006044820152606401610a11565b60005b60048110156113815782828151811061132457611324615527565b6020026020010151818151811061133d5761133d615527565b6020026020010151600e836004811061135857611358615527565b60040201826004811061136d5761136d615527565b0155806113798161553d565b915050611309565b508061138c8161553d565b915050611293565b606081518351146113f95760405162461bcd60e51b815260206004820152602960248201527f455243313135353a206163636f756e747320616e6420696473206c656e677468604482015268040dad2e6dac2e8c6d60bb1b6064820152608401610a11565b600083516001600160401b0381111561141457611414614be3565b60405190808252806020026020018201604052801561143d578160200160208202803683370190505b50905060005b84518110156114b55761148885828151811061146157611461615527565b602002602001015185838151811061147b5761147b615527565b60200260200101516109aa565b82828151811061149a5761149a615527565b60209081029190910101526114ae8161553d565b9050611443565b509392505050565b60003381805b600481101561151357600a81600481106114df576114df615527565b01546114eb84836109aa565b6114f59190615679565b6114ff9083615556565b91508061150b8161553d565b9150506114c3565b50600061151e611baa565b905080156115355761153081836154d1565b611538565b60005b935050505090565b600e826004811061155057600080fd5b600402018160048110610a6c57600080fd5b61156a6131d2565b33600061157882858561111f565b60255460405163a9059cbb60e01b81526001600160a01b0385811660048301526024820184905292935091169063a9059cbb906044016020604051808303816000875af11580156115cd573d6000803e3d6000fd5b505050506040513d601f19601f820116820180604052508101906115f19190615690565b5060008381526030602052604081208291866003811115611614576116146155c6565b81526020019081526020016000206000846001600160a01b03166001600160a01b0316815260200190815260200160002060008282546116549190615556565b90915550506001600955506110479050565b60316020528160005260406000208160048110610a6c57600080fd5b602f6020528160005260406000208160048110610a6c57600080fd5b60006116c87fb53127684a568b3173ae13b9f8a6016e243e63b6e8ee1178d6a717850b5d61035490565b90506001600160a01b038116611707576001600160a01b037fb53127684a568b3173ae13b9f8a6016e243e63b6e8ee1178d6a717850b5d61035561171c565b336001600160a01b0382161461171c57600080fd5b6117258961322b565b611730600033613237565b61175a7f9f2df0fed2c77648de5860a4cc508cd0818c85b8b8a1ab4ceeef8d981c8956a633613237565b6117847f65d7a28e3265b37a6474929f336521b332c1681b933f6cb9f3376673440d862a33613237565b611791600a8960046149bb565b5061179f601e8860046149bb565b50602380546001600160a01b0319166001600160a01b0388161790556117c860268660026149f9565b50602a8490556117db60288460026149f9565b50602b80546001600160a01b0319166001600160a01b03848116919091179091556023546040805163db7a460560e01b8152815161186994939093169263db7a4605926004808401939192918290030181865afa158015611840573d6000803e3d6000fd5b505050506040513d601f19601f8201168201806040525081019061186491906156ad565b613241565b602360009054906101000a90046001600160a01b03166001600160a01b031663deef94de6040518163ffffffff1660e01b8152600401602060405180830381865afa1580156118bc573d6000803e3d6000fd5b505050506040513d601f19601f820116820180604052508101906118e0919061570f565b602480546001600160a01b0319166001600160a01b039283161790556023546040805163d63a6ccd60e01b81529051919092169163d63a6ccd9160048083019260209291908290030181865afa15801561193e573d6000803e3d6000fd5b505050506040513d601f19601f82011682018060405250810190611962919061570f565b602580546001600160a01b0319166001600160a01b0392831690811790915560235460405163095ea7b360e01b81529216600483015260001960248301529063095ea7b3906044016020604051808303816000875af11580156119c9573d6000803e3d6000fd5b505050506040513d601f19601f820116820180604052508101906119ed9190615690565b506025546024805460405163095ea7b360e01b81526001600160a01b039182166004820152600019928101929092529091169063095ea7b3906044016020604051808303816000875af1158015611a48573d6000803e3d6000fd5b505050506040513d601f19601f82011682018060405250810190611a6c9190615690565b5060235460405163095ea7b360e01b81526001600160a01b039091166004820181905260001960248301529063095ea7b3906044016020604051808303816000875af1158015611ac0573d6000803e3d6000fd5b505050506040513d601f19601f82011682018060405250810190611ae49190615690565b50506000602c555050505050505050565b6001600160a01b038316331480611b115750611b118333610927565b611b2d5760405162461bcd60e51b8152600401610a11906155dc565b610f3b83838361324d565b611b627f9f2df0fed2c77648de5860a4cc508cd0818c85b8b8a1ab4ceeef8d981c8956a633611e16565b611b7e5760405162461bcd60e51b8152600401610a1190615569565b610dca848484846133f6565b60028160028110611b9a57600080fd5b01546001600160a01b0316905081565b6000620f4240602360009054906101000a90046001600160a01b03166001600160a01b031663a035b1fe6040518163ffffffff1660e01b8152600401602060405180830381865afa158015611c03573d6000803e3d6000fd5b505050506040513d601f19601f82011682018060405250810190611c27919061572c565b6023546001600160a01b03166370a0823160026000015460405160e083901b6001600160e01b03191681526001600160a01b039091166004820152602401602060405180830381865afa158015611c82573d6000803e3d6000fd5b505050506040513d601f19601f82011682018060405250810190611ca6919061572c565b611cb09190615679565b611cba91906154d1565b6025546001600160a01b03166370a0823160026000015460405160e083901b6001600160e01b03191681526001600160a01b039091166004820152602401602060405180830381865afa158015611d15573d6000803e3d6000fd5b505050506040513d601f19601f82011682018060405250810190611d39919061572c565b610af19190615556565b611d6d7f65d7a28e3265b37a6474929f336521b332c1681b933f6cb9f3376673440d862a33611e16565b611ddf5760405162461bcd60e51b815260206004820152603960248201527f455243313135355072657365744d696e7465725061757365723a206d7573742060448201527f686176652070617573657220726f6c6520746f207061757365000000000000006064820152608401610a11565b61111d6134f0565b601e8160048110610e4c57600080fd5b6000828152600160205260408120611e0f908361352d565b9392505050565b6000918252602082815260408084206001600160a01b0393909316845291905290205460ff1690565b606033611e4b81610dd0565b91505090565b611047338383613539565b6000818152600160205260408120610a3f90613619565b60288160028110610e4c57600080fd5b611e8b6131d2565b611eb66040518060400160405280600a815260200169189d5e5a5b99c813919560b21b815250613623565b60008211611f2c5760405162461bcd60e51b815260206004820152603960248201527f45205243313135355072657365744d696e7465725061757365723a20616d6f7560448201527f6e74206d7573742062652067726561746572207468616e2030000000000000006064820152608401610a11565b6000600a846003811115611f4257611f426155c6565b60048110611f5257611f52615527565b015411611fc75760405162461bcd60e51b815260206004820152603c60248201527f455243313135355072657365744d696e7465725061757365723a20746965722060448201527f7072696365206d7573742062652067726561746572207468616e2030000000006064820152608401610a11565b6001600160a01b0381161580159080611ff15750808015611ff157506001600160a01b0382163314155b61204c5760405162461bcd60e51b815260206004820152602660248201527f526566657272616c206d75737420626520646966666572656e742066726f6d2060448201526539b2b73232b960d11b6064820152608401610a11565b6000846003811115612060576120606155c6565b602b54909150600160a01b900460ff1661245557600084600a87600381111561208b5761208b6155c6565b6004811061209b5761209b615527565b01546120a79190615679565b90506120e0604051806040016040528060158152602001747472616e7366657272696e6720757364507269636560581b81525082613666565b6025546001600160a01b03166323b872dd336040516001600160e01b031960e084901b1681526001600160a01b039091166004820152306024820152604481018490526064016020604051808303816000875af1158015612145573d6000803e3d6000fd5b505050506040513d601f19601f820116820180604052508101906121699190615690565b5060006121868260268661217e5760006136ab565b602a546136ab565b90506121c76040518060400160405280601a81526020017f7472616e7366657272696e6720746f53656c6c466f725361666500000000000081525082613666565b60235460405163f7e0ba5f60e01b8152600481018390526000916001600160a01b03169063f7e0ba5f906024016020604051808303816000875af1158015612213573d6000803e3d6000fd5b505050506040513d601f19601f82011682018060405250810190612237919061572c565b905061227460405180604001604052806019815260200178039b0b332a0b6b7bab73a103932ba3ab93732b210333937b69603d1b81525082613666565b60235460009061228f906001600160a01b031683602661371a565b90506122d06040518060400160405280601f81526020017f7472616e7366657272656420746f2070726f746f636f6c2077616c6c6574730081525082613666565b85156123395760006122fb602360009054906101000a90046001600160a01b0316848a602a546139cf565b905061232b6040518060400160405280600c81526020016b726566657272616c2066656560a01b81525082613666565b6123358183615556565b9150505b6123786040518060400160405280601c81526020017f746f74616c207472616e7366657272656420746f2077616c6c6574730000000081525082613666565b6025546040516370a0823160e01b81523060048201526000916001600160a01b0316906370a0823190602401602060405180830381865afa1580156123c1573d6000803e3d6000fd5b505050506040513d601f19601f820116820180604052508101906123e5919061572c565b9050801561244b576024805460405163b6b55f2560e01b8152600481018490526001600160a01b039091169163b6b55f259101600060405180830381600087803b15801561243257600080fd5b505af1158015612446573d6000803e3d6000fd5b505050505b505050505061276e565b6022544210156124a75760405162461bcd60e51b815260206004820152601a60248201527f50726573616c65206973206e6f742073746172746564207965740000000000006044820152606401610a11565b6000600e6124b3610a75565b600481106124c3576124c3615527565b60408051608081019182905292600492830201919082845b8154815260200190600101908083116124db57505050505090506000858288600381111561250b5761250b6155c6565b6004811061251b5761251b615527565b602002015161252a9190615679565b9050612563604051806040016040528060158152602001747472616e7366657272696e6720757364507269636560581b81525082613666565b6025546001600160a01b03166323b872dd336040516001600160e01b031960e084901b1681526001600160a01b039091166004820152306024820152604481018490526064016020604051808303816000875af11580156125c8573d6000803e3d6000fd5b505050506040513d601f19601f820116820180604052508101906125ec9190615690565b506000846125fb576000612618565b602554602a54612618916001600160a01b031690849089906139cf565b905060008515612629576000612654565b602554612654906001600160a01b031684600260000154602a546001600160a01b03909116906139cf565b602554909150600090612672906001600160a01b031685602661371a565b6025546040516370a0823160e01b81523060048201529192506000916001600160a01b03909116906370a0823190602401602060405180830381865afa1580156126c0573d6000803e3d6000fd5b505050506040513d601f19601f820116820180604052508101906126e4919061572c565b9050801561276757602554602b5460405163a9059cbb60e01b81526001600160a01b0391821660048201526024810184905291169063a9059cbb906044016020604051808303816000875af1158015612741573d6000803e3d6000fd5b505050506040513d601f19601f820116820180604052508101906127659190615690565b505b5050505050505b612789338286604051806020016040528060008152506133f6565b5050610f3b6001600955565b61279d6131d2565b60005b60048110156127f55760005b602c5481116127e2576127d08260038111156127ca576127ca6155c6565b82611562565b806127da8161553d565b9150506127ac565b50806127ed8161553d565b9150506127a0565b5061111d6001600955565b6128086131d2565b61283f604051806040016040528060158152602001747472616e7366657272696e6720757364507269636560581b81525082613666565b6025546001600160a01b03166323b872dd336040516001600160e01b031960e084901b1681526001600160a01b039091166004820152306024820152604481018490526064016020604051808303816000875af11580156128a4573d6000803e3d6000fd5b505050506040513d601f19601f820116820180604052508101906128c89190615690565b5060006128d66002836154d1565b905060006128f06128e783856154be565b602860006136ab565b90506129316040518060400160405280601a81526020017f7472616e7366657272696e6720746f53656c6c466f725361666500000000000081525082613666565b60235460405163f7e0ba5f60e01b8152600481018390526000916001600160a01b03169063f7e0ba5f906024016020604051808303816000875af115801561297d573d6000803e3d6000fd5b505050506040513d601f19601f820116820180604052508101906129a1919061572c565b90506129de60405180604001604052806019815260200178039b0b332a0b6b7bab73a103932ba3ab93732b210333937b69603d1b81525082613666565b6023546000906129f9906001600160a01b031683602861371a565b602c80549192506000612a0b8361553d565b9091555050602c546000908152602d60205260408120829055612a2c610d3d565b905060005b6004811015612aba57600081815260086020908152604080832054602c548452602f90925290912081908360048110612a6c57612a6c615527565b015582612a798289615679565b612a8391906154d1565b602c546000908152602e602052604090208360048110612aa557612aa5615527565b01555080612ab28161553d565b915050612a31565b506025546040516370a0823160e01b81523060048201526000916001600160a01b0316906370a0823190602401602060405180830381865afa158015612b04573d6000803e3d6000fd5b505050506040513d601f19601f82011682018060405250810190612b28919061572c565b90508015612b8e576024805460405163b6b55f2560e01b8152600481018490526001600160a01b039091169163b6b55f259101600060405180830381600087803b158015612b7557600080fd5b505af1158015612b89573d6000803e3d6000fd5b505050505b505050505050612b9e6001600955565b50565b600082815260208190526040902060010154612bbc81613137565b610f3b8383613163565b60268160028110610e4c57600080fd5b60003381805b6004811015610d365760005b602c548111612c2b57612c0d84836003811115612c0757612c076155c6565b8361111f565b612c179084615556565b925080612c238161553d565b915050612be8565b5080612c368161553d565b915050612bdc565b6000612c558260038111156107e8576107e86155c6565b15612c7457612c6f8260038111156107e8576107e86155c6565b612c77565b60015b602c546000908152602e60205260409020836003811115612c9a57612c9a6155c6565b60048110612caa57612caa615527565b0154612cb691906154d1565b600a836003811115612cca57612cca6155c6565b60048110612cda57612cda615527565b0154610a3f9190615556565b6001600160a01b038516331480612d025750612d028533610927565b612d1e5760405162461bcd60e51b8152600401610a11906155dc565b610f0f8585858585613cb5565b6001600160a01b038316331480612d475750612d478333610927565b612d635760405162461bcd60e51b8152600401610a11906155dc565b610f3b838383613dff565b612d788282611e16565b611047576000828152602081815260408083206001600160a01b03851684529091529020805460ff19166001179055612dae3390565b6001600160a01b0316816001600160a01b0316837f2f8788117e7eff1d82e926ec794901d17c78024a50270940304540a733656f0d60405160405180910390a45050565b6000611e0f836001600160a01b038416613f25565b6000610a3f82613f74565b6001600160a01b038416612e385760405162461bcd60e51b8152600401610a1190615745565b8151835114612e595760405162461bcd60e51b8152600401610a1190615786565b33612e6981600087878787613fb4565b60005b8451811015612f0557838181518110612e8757612e87615527565b602002602001015160046000878481518110612ea557612ea5615527565b602002602001015181526020019081526020016000206000886001600160a01b03166001600160a01b031681526020019081526020016000206000828254612eed9190615556565b90915550819050612efd8161553d565b915050612e6c565b50846001600160a01b031660006001600160a01b0316826001600160a01b03167f4a39dc06d4c0dbc64b70af90fd698a233a518aa5d07e595d983b8c0526c8f7fb8787604051612f569291906157ce565b60405180910390a4612f6d81600087878787613fc2565b610f0f81600087878787614074565b8151835114612f9d5760405162461bcd60e51b8152600401610a1190615786565b6001600160a01b038416612fc35760405162461bcd60e51b8152600401610a11906157f3565b33612fd2818787878787613fb4565b60005b84518110156130bb576000858281518110612ff257612ff2615527565b60200260200101519050600085838151811061301057613010615527565b60209081029190910181015160008481526004835260408082206001600160a01b038e1683529093529190912054909150818110156130615760405162461bcd60e51b8152600401610a1190615838565b60008381526004602090815260408083206001600160a01b038e8116855292528083208585039055908b168252812080548492906130a0908490615556565b92505081905550505050806130b49061553d565b9050612fd5565b50846001600160a01b0316866001600160a01b0316826001600160a01b03167f4a39dc06d4c0dbc64b70af90fd698a233a518aa5d07e595d983b8c0526c8f7fb878760405161310b9291906157ce565b60405180910390a4613121818787878787613fc2565b61312f818787878787614074565b505050505050565b612b9e81336141cf565b61314b8282612d6e565b6000828152600160205260409020610f3b9082612df2565b61316d8282614228565b6000828152600160205260409020610f3b908261428d565b61318d6142a2565b6007805460ff191690557f5db9ee0a495bf2e6ff9c91a7834c1ba4fdd244a5e8aa4e537bd38aeae4b073aa335b6040516001600160a01b039091168152602001610fc3565b6002600954036132245760405162461bcd60e51b815260206004820152601f60248201527f5265656e7472616e637947756172643a207265656e7472616e742063616c6c006044820152606401610a11565b6002600955565b600661104782826158c8565b6110478282613141565b61104760028281614a26565b6001600160a01b0383166132735760405162461bcd60e51b8152600401610a1190615987565b80518251146132945760405162461bcd60e51b8152600401610a1190615786565b60003390506132b781856000868660405180602001604052806000815250613fb4565b60005b835181101561337f5760008482815181106132d7576132d7615527565b6020026020010151905060008483815181106132f5576132f5615527565b60209081029190910181015160008481526004835260408082206001600160a01b038c1683529093529190912054909150818110156133465760405162461bcd60e51b8152600401610a11906159ca565b60009283526004602090815260408085206001600160a01b038b16865290915290922091039055806133778161553d565b9150506132ba565b5060006001600160a01b0316846001600160a01b0316826001600160a01b03167f4a39dc06d4c0dbc64b70af90fd698a233a518aa5d07e595d983b8c0526c8f7fb86866040516133d09291906157ce565b60405180910390a4610dca81856000868660405180602001604052806000815250613fc2565b6001600160a01b03841661341c5760405162461bcd60e51b8152600401610a1190615745565b336000613428856142eb565b90506000613435856142eb565b905061344683600089858589613fb4565b60008681526004602090815260408083206001600160a01b038b16845290915281208054879290613478908490615556565b909155505060408051878152602081018790526001600160a01b03808a1692600092918716917fc3d58168c5ae7397731d063d5bbf3d657854427343f4c083240f7aacaa2d0f62910160405180910390a46134d883600089858589613fc2565b6134e783600089898989614336565b50505050505050565b6134f86143f1565b6007805460ff191660011790557f62e78cea01bee320cd4e420270b5ea74000d11b0c9f74754ebdbfc544b05a2586131ba3390565b6000611e0f8383614437565b816001600160a01b0316836001600160a01b0316036135ac5760405162461bcd60e51b815260206004820152602960248201527f455243313135353a2073657474696e6720617070726f76616c20737461747573604482015268103337b91039b2b63360b91b6064820152608401610a11565b6001600160a01b03838116600081815260056020908152604080832094871680845294825291829020805460ff191686151590811790915591519182527f17307eab39ab6107e8899845ad3d59bd9653f200f220920489ca2b5937696c31910160405180910390a3505050565b6000610a3f825490565b612b9e816040516024016136379190614b69565b60408051601f198184030181529190526020810180516001600160e01b031663104c13eb60e21b179052614461565b611047828260405160240161367c929190615a0e565b60408051601f198184030181529190526020810180516001600160e01b0316632d839cb360e21b179052614461565b600080805b60028110156136eb578481600281106136cb576136cb615527565b01546136d79083615556565b9150806136e38161553d565b9150506136b0565b506136f68382615556565b90506305f5e1006137078287615679565b61371191906154d1565b95945050505050565b600061375a6040518060400160405280601781526020017f2d2d205f64697374726962757465207374617274202d2d000000000000000000815250613623565b61378b6040518060400160405280600f81526020016e446973747269627574696e6720257360881b81525084613666565b604080518082018252600a81526962616c616e636520257360b01b602082015290516370a0823160e01b815230600482015261381c91906001600160a01b038716906370a0823190602401602060405180830381865afa1580156137f3573d6000803e3d6000fd5b505050506040513d601f19601f82011682018060405250810190613817919061572c565b613666565b6000805b60028110156139605760006305f5e10085836002811061384257613842615527565b015461384e9088615679565b61385891906154d1565b90506138aa6040518060400160405280601081526020016f73656e64696e6720257320746f20257360801b815250826002856002811061389a5761389a615527565b01546001600160a01b0316614482565b866001600160a01b031663a9059cbb600284600281106138cc576138cc615527565b015460405160e083901b6001600160e01b03191681526001600160a01b039091166004820152602481018490526044016020604051808303816000875af115801561391b573d6000803e3d6000fd5b505050506040513d601f19601f8201168201806040525081019061393f9190615690565b5061394a8184615556565b92505080806139589061553d565b915050613820565b506139916040518060400160405280600e81526020016d446973747269627574656420257360901b81525082613666565b6139c7604051806040016040528060158152602001742d2d205f6469737472696275746520656e64202d2d60581b815250613623565b949350505050565b6000613a0f6040518060400160405280601c81526020017f2d2d205f7472616e7366657250657263656e74207374617274202d2d00000000815250613623565b6040516370a0823160e01b81523060048201526000906001600160a01b038716906370a0823190602401602060405180830381865afa158015613a56573d6000803e3d6000fd5b505050506040513d601f19601f82011682018060405250810190613a7a919061572c565b9050613abb6040518060400160405280601881526020017f7472616e7366657272696e67207368617265206f66202573000000000000000081525086613666565b613ae76040518060400160405280600a81526020016962616c616e636520257360b01b81525082613666565b60006305f5e100613af88588615679565b613b0291906154d1565b9050613b3b60405180604001604052806015815260200174616d6f756e7420746f207472616e7366657220257360581b81525082613666565b80821015613b965760405162461bcd60e51b815260206004820152602260248201527f4e6f7420656e6f7567682062616c616e6365206f6e2074686520636f6e74726160448201526118dd60f21b6064820152608401610a11565b613bc96040518060400160405280601081526020016f73656e64696e6720257320746f20257360801b8152508287614482565b60405163a9059cbb60e01b81526001600160a01b0386811660048301526024820183905288169063a9059cbb906044016020604051808303816000875af1158015613c18573d6000803e3d6000fd5b505050506040513d601f19601f82011682018060405250810190613c3c9190615690565b50613c6d6040518060400160405280600e81526020016d446973747269627574656420257360901b81525082613666565b613cab6040518060400160405280601a81526020017f2d2d205f7472616e7366657250657263656e7420656e64202d2d000000000000815250613623565b9695505050505050565b6001600160a01b038416613cdb5760405162461bcd60e51b8152600401610a11906157f3565b336000613ce7856142eb565b90506000613cf4856142eb565b9050613d04838989858589613fb4565b60008681526004602090815260408083206001600160a01b038c16845290915290205485811015613d475760405162461bcd60e51b8152600401610a1190615838565b60008781526004602090815260408083206001600160a01b038d8116855292528083208985039055908a16825281208054889290613d86908490615556565b909155505060408051888152602081018890526001600160a01b03808b16928c821692918816917fc3d58168c5ae7397731d063d5bbf3d657854427343f4c083240f7aacaa2d0f62910160405180910390a4613de6848a8a86868a613fc2565b613df4848a8a8a8a8a614336565b505050505050505050565b6001600160a01b038316613e255760405162461bcd60e51b8152600401610a1190615987565b336000613e31846142eb565b90506000613e3e846142eb565b9050613e5e83876000858560405180602001604052806000815250613fb4565b60008581526004602090815260408083206001600160a01b038a16845290915290205484811015613ea15760405162461bcd60e51b8152600401610a11906159ca565b60008681526004602090815260408083206001600160a01b038b81168086529184528285208a8703905582518b81529384018a90529092908816917fc3d58168c5ae7397731d063d5bbf3d657854427343f4c083240f7aacaa2d0f62910160405180910390a46134e784886000868660405180602001604052806000815250613fc2565b6000818152600183016020526040812054613f6c57508154600181810184556000848152602080822090930184905584548482528286019093526040902091909155610a3f565b506000610a3f565b60006001600160e01b03198216636cdb3d1360e11b1480613fa557506001600160e01b031982166303a24d0760e21b145b80610a3f5750610a3f826144c9565b61312f8686868686866144ee565b601e83600081518110613fd757613fd7615527565b602002602001015160048110613fef57613fef615527565b01546140218460008151811061400757614007615527565b602002602001015160009081526008602052604090205490565b111561406f5760405162461bcd60e51b815260206004820152601b60248201527f536166654e46543a206d617820737570706c79207265616368656400000000006044820152606401610a11565b61312f565b6001600160a01b0384163b1561312f5760405163bc197c8160e01b81526001600160a01b0385169063bc197c81906140b89089908990889088908890600401615a30565b6020604051808303816000875af19250505080156140f3575060408051601f3d908101601f191682019092526140f091810190615a8e565b60015b61419f576140ff615aab565b806308c379a0036141385750614113615ac7565b8061411e575061413a565b8060405162461bcd60e51b8152600401610a119190614b69565b505b60405162461bcd60e51b815260206004820152603460248201527f455243313135353a207472616e7366657220746f206e6f6e2d455243313135356044820152732932b1b2b4bb32b91034b6b83632b6b2b73a32b960611b6064820152608401610a11565b6001600160e01b0319811663bc197c8160e01b146134e75760405162461bcd60e51b8152600401610a1190615b50565b6141d98282611e16565b611047576141e681614675565b6141f1836020614687565b604051602001614202929190615b98565b60408051601f198184030181529082905262461bcd60e51b8252610a1191600401614b69565b6142328282611e16565b15611047576000828152602081815260408083206001600160a01b0385168085529252808320805460ff1916905551339285917ff6391f5c32d9c69d2a47ea670b442974b53935d1edc7fd64eb21e047a839171b9190a45050565b6000611e0f836001600160a01b038416614822565b60075460ff1661111d5760405162461bcd60e51b815260206004820152601460248201527314185d5cd8589b194e881b9bdd081c185d5cd95960621b6044820152606401610a11565b6040805160018082528183019092526060916000919060208083019080368337019050509050828160008151811061432557614325615527565b602090810291909101015292915050565b6001600160a01b0384163b1561312f5760405163f23a6e6160e01b81526001600160a01b0385169063f23a6e619061437a9089908990889088908890600401615c0d565b6020604051808303816000875af19250505080156143b5575060408051601f3d908101601f191682019092526143b291810190615a8e565b60015b6143c1576140ff615aab565b6001600160e01b0319811663f23a6e6160e01b146134e75760405162461bcd60e51b8152600401610a1190615b50565b60075460ff161561111d5760405162461bcd60e51b815260206004820152601060248201526f14185d5cd8589b194e881c185d5cd95960821b6044820152606401610a11565b600082600001828154811061444e5761444e615527565b9060005260206000200154905092915050565b80516a636f6e736f6c652e6c6f67602083016000808483855afa5050505050565b610f3b83838360405160240161449a93929190615c45565b60408051601f198184030181529190526020810180516001600160e01b031663038fd88960e31b179052614461565b60006001600160e01b03198216635a05180f60e01b1480610a3f5750610a3f82614915565b6144fc86868686868661494a565b6001600160a01b0385166145835760005b83518110156145815782818151811061452857614528615527565b60200260200101516008600086848151811061454657614546615527565b60200260200101518152602001908152602001600020600082825461456b9190615556565b9091555061457a90508161553d565b905061450d565b505b6001600160a01b03841661312f5760005b83518110156134e75760008482815181106145b1576145b1615527565b6020026020010151905060008483815181106145cf576145cf615527565b60200260200101519050600060086000848152602001908152602001600020549050818110156146525760405162461bcd60e51b815260206004820152602860248201527f455243313135353a206275726e20616d6f756e74206578636565647320746f74604482015267616c537570706c7960c01b6064820152608401610a11565b6000928352600860205260409092209103905561466e8161553d565b9050614594565b6060610a3f6001600160a01b03831660145b60606000614696836002615679565b6146a1906002615556565b6001600160401b038111156146b8576146b8614be3565b6040519080825280601f01601f1916602001820160405280156146e2576020820181803683370190505b509050600360fc1b816000815181106146fd576146fd615527565b60200101906001600160f81b031916908160001a905350600f60fb1b8160018151811061472c5761472c615527565b60200101906001600160f81b031916908160001a9053506000614750846002615679565b61475b906001615556565b90505b60018111156147d3576f181899199a1a9b1b9c1cb0b131b232b360811b85600f166010811061478f5761478f615527565b1a60f81b8282815181106147a5576147a5615527565b60200101906001600160f81b031916908160001a90535060049490941c936147cc81615c77565b905061475e565b508315611e0f5760405162461bcd60e51b815260206004820181905260248201527f537472696e67733a20686578206c656e67746820696e73756666696369656e746044820152606401610a11565b6000818152600183016020526040812054801561490b5760006148466001836154be565b855490915060009061485a906001906154be565b90508181146148bf57600086600001828154811061487a5761487a615527565b906000526020600020015490508087600001848154811061489d5761489d615527565b6000918252602080832090910192909255918252600188019052604090208390555b85548690806148d0576148d0615c8e565b600190038181906000526020600020016000905590558560010160008681526020019081526020016000206000905560019350505050610a3f565b6000915050610a3f565b60006001600160e01b03198216637965db0b60e01b1480610a3f57506301ffc9a760e01b6001600160e01b0319831614610a3f565b61312f86868686868660075460ff161561312f5760405162461bcd60e51b815260206004820152602c60248201527f455243313135355061757361626c653a20746f6b656e207472616e736665722060448201526b1dda1a5b19481c185d5cd95960a21b6064820152608401610a11565b82600481019282156149e9579160200282015b828111156149e95782518255916020019190600101906149ce565b506149f5929150614a6e565b5090565b82600281019282156149e957916020028201828111156149e95782518255916020019190600101906149ce565b82600281019282156149e9579160200282015b828111156149e957825182546001600160a01b0319166001600160a01b03909116178255602090920191600190910190614a39565b5b808211156149f55760008155600101614a6f565b6001600160a01b0381168114612b9e57600080fd5b60008060408385031215614aab57600080fd5b8235614ab681614a83565b946020939093013593505050565b6001600160e01b031981168114612b9e57600080fd5b600060208284031215614aec57600080fd5b8135611e0f81614ac4565b60008060408385031215614b0a57600080fd5b50508035926020909101359150565b60005b83811015614b34578181015183820152602001614b1c565b50506000910152565b60008151808452614b55816020860160208601614b19565b601f01601f19169290920160200192915050565b602081526000611e0f6020830184614b3d565b600060208284031215614b8e57600080fd5b5035919050565b600081518084526020808501945080840160005b83811015614bc557815187529582019590820190600101614ba9565b509495945050505050565b602081526000611e0f6020830184614b95565b634e487b7160e01b600052604160045260246000fd5b604081018181106001600160401b0382111715614c1857614c18614be3565b60405250565b601f8201601f191681016001600160401b0381118282101715614c4357614c43614be3565b6040525050565b60006001600160401b03821115614c6357614c63614be3565b5060051b60200190565b600082601f830112614c7e57600080fd5b81356020614c8b82614c4a565b604051614c988282614c1e565b83815260059390931b8501820192828101915086841115614cb857600080fd5b8286015b84811015614cd35780358352918301918301614cbc565b509695505050505050565b60006001600160401b03831115614cf757614cf7614be3565b604051614d0e601f8501601f191660200182614c1e565b809150838152848484011115614d2357600080fd5b83836020830137600060208583010152509392505050565b600082601f830112614d4c57600080fd5b611e0f83833560208501614cde565b60008060008060808587031215614d7157600080fd5b8435614d7c81614a83565b935060208501356001600160401b0380821115614d9857600080fd5b614da488838901614c6d565b94506040870135915080821115614dba57600080fd5b614dc688838901614c6d565b93506060870135915080821115614ddc57600080fd5b50614de987828801614d3b565b91505092959194509250565b600060208284031215614e0757600080fd5b8135611e0f81614a83565b600080600080600060a08688031215614e2a57600080fd5b8535614e3581614a83565b94506020860135614e4581614a83565b935060408601356001600160401b0380821115614e6157600080fd5b614e6d89838a01614c6d565b94506060880135915080821115614e8357600080fd5b614e8f89838a01614c6d565b93506080880135915080821115614ea557600080fd5b50614eb288828901614d3b565b9150509295509295909350565b60008060408385031215614ed257600080fd5b823591506020830135614ee481614a83565b809150509250929050565b803560048110614efe57600080fd5b919050565b600060208284031215614f1557600080fd5b611e0f82614eef565b600080600060608486031215614f3357600080fd5b8335614f3e81614a83565b9250614f4c60208501614eef565b9150604084013590509250925092565b60006020808385031215614f6f57600080fd5b82356001600160401b0380821115614f8657600080fd5b818501915085601f830112614f9a57600080fd5b8135614fa581614c4a565b604051614fb28282614c1e565b82815260059290921b8401850191858101915088831115614fd257600080fd5b8585015b8381101561500a57803585811115614fee5760008081fd5b614ffc8b89838a0101614c6d565b845250918601918601614fd6565b5098975050505050505050565b6000806040838503121561502a57600080fd5b82356001600160401b038082111561504157600080fd5b818501915085601f83011261505557600080fd5b8135602061506282614c4a565b60405161506f8282614c1e565b83815260059390931b850182019282810191508984111561508f57600080fd5b948201945b838610156150b65785356150a781614a83565b82529482019490820190615094565b965050860135925050808211156150cc57600080fd5b506150d985828601614c6d565b9150509250929050565b600080604083850312156150f657600080fd5b614ab683614eef565b600082601f83011261511057600080fd5b604051608081018181106001600160401b038211171561513257615132614be3565b60405280608084018581111561514757600080fd5b845b81811015615161578035835260209283019201615149565b509195945050505050565b600082601f83011261517d57600080fd5b60405161518981614bf9565b80604084018581111561514757600080fd5b600080600080600080600080610200898b0312156151b857600080fd5b88356001600160401b038111156151ce57600080fd5b8901601f81018b136151df57600080fd5b6151ee8b823560208401614cde565b9850506151fe8a60208b016150ff565b965061520d8a60a08b016150ff565b955061012089013561521e81614a83565b945061522e8a6101408b0161516c565b935061018089013592506152468a6101a08b0161516c565b91506101e089013561525781614a83565b809150509295985092959890939650565b60008060006060848603121561527d57600080fd5b833561528881614a83565b925060208401356001600160401b03808211156152a457600080fd5b6152b087838801614c6d565b935060408601359150808211156152c657600080fd5b506152d386828701614c6d565b9150509250925092565b600080600080608085870312156152f357600080fd5b84356152fe81614a83565b9350602085013592506040850135915060608501356001600160401b0381111561532757600080fd5b614de987828801614d3b565b8015158114612b9e57600080fd5b6000806040838503121561535457600080fd5b823561535f81614a83565b91506020830135614ee481615333565b60008060006060848603121561538457600080fd5b8335925060208401359150604084013561539d81614a83565b809150509250925092565b6000806000606084860312156153bd57600080fd5b6153c684614eef565b925060208401359150604084013561539d81614a83565b600080604083850312156153f057600080fd5b82356153fb81614a83565b91506020830135614ee481614a83565b600080600080600060a0868803121561542357600080fd5b853561542e81614a83565b9450602086013561543e81614a83565b9350604086013592506060860135915060808601356001600160401b0381111561546757600080fd5b614eb288828901614d3b565b60008060006060848603121561548857600080fd5b833561549381614a83565b95602085013595506040909401359392505050565b634e487b7160e01b600052601160045260246000fd5b81810381811115610a3f57610a3f6154a8565b6000826154ee57634e487b7160e01b600052601260045260246000fd5b500490565b600181811c9082168061550757607f821691505b602082108103610c0157634e487b7160e01b600052602260045260246000fd5b634e487b7160e01b600052603260045260246000fd5b60006001820161554f5761554f6154a8565b5060010190565b80820180821115610a3f57610a3f6154a8565b60208082526038908201527f455243313135355072657365744d696e7465725061757365723a206d7573742060408201527f68617665206d696e74657220726f6c6520746f206d696e740000000000000000606082015260800190565b634e487b7160e01b600052602160045260246000fd5b6020808252602e908201527f455243313135353a2063616c6c6572206973206e6f7420746f6b656e206f776e60408201526d195c881bdc88185c1c1c9bdd995960921b606082015260800190565b6020808252602f908201527f455243313135355072657365744d696e7465725061757365723a206d7573742060408201526e686176652061646d696e20726f6c6560881b606082015260800190565b8082028115828204841417610a3f57610a3f6154a8565b6000602082840312156156a257600080fd5b8151611e0f81615333565b6000604082840312156156bf57600080fd5b82601f8301126156ce57600080fd5b6040516156da81614bf9565b8060408401858111156156ec57600080fd5b845b8181101561516157805161570181614a83565b8352602092830192016156ee565b60006020828403121561572157600080fd5b8151611e0f81614a83565b60006020828403121561573e57600080fd5b5051919050565b60208082526021908201527f455243313135353a206d696e7420746f20746865207a65726f206164647265736040820152607360f81b606082015260800190565b60208082526028908201527f455243313135353a2069647320616e6420616d6f756e7473206c656e677468206040820152670dad2e6dac2e8c6d60c31b606082015260800190565b6040815260006157e16040830185614b95565b82810360208401526137118185614b95565b60208082526025908201527f455243313135353a207472616e7366657220746f20746865207a65726f206164604082015264647265737360d81b606082015260800190565b6020808252602a908201527f455243313135353a20696e73756666696369656e742062616c616e636520666f60408201526939103a3930b739b332b960b11b606082015260800190565b601f821115610f3b57600081815260208120601f850160051c810160208610156158a95750805b601f850160051c820191505b8181101561312f578281556001016158b5565b81516001600160401b038111156158e1576158e1614be3565b6158f5816158ef84546154f3565b84615882565b602080601f83116001811461592a57600084156159125750858301515b600019600386901b1c1916600185901b17855561312f565b600085815260208120601f198616915b828110156159595788860151825594840194600190910190840161593a565b50858210156159775787850151600019600388901b60f8161c191681555b5050505050600190811b01905550565b60208082526023908201527f455243313135353a206275726e2066726f6d20746865207a65726f206164647260408201526265737360e81b606082015260800190565b60208082526024908201527f455243313135353a206275726e20616d6f756e7420657863656564732062616c604082015263616e636560e01b606082015260800190565b604081526000615a216040830185614b3d565b90508260208301529392505050565b60006001600160a01b03808816835280871660208401525060a06040830152615a5c60a0830186614b95565b8281036060840152615a6e8186614b95565b90508281036080840152615a828185614b3d565b98975050505050505050565b600060208284031215615aa057600080fd5b8151611e0f81614ac4565b600060033d1115615ac45760046000803e5060005160e01c5b90565b600060443d1015615ad55790565b6040516003193d81016004833e81513d6001600160401b038160248401118184111715615b0457505050505090565b8285019150815181811115615b1c5750505050505090565b843d8701016020828501011115615b365750505050505090565b615b4560208286010187614c1e565b509095945050505050565b60208082526028908201527f455243313135353a204552433131353552656365697665722072656a656374656040820152676420746f6b656e7360c01b606082015260800190565b7f416363657373436f6e74726f6c3a206163636f756e7420000000000000000000815260008351615bd0816017850160208801614b19565b7001034b99036b4b9b9b4b733903937b6329607d1b6017918401918201528351615c01816028840160208801614b19565b01602801949350505050565b60006001600160a01b03808816835280871660208401525084604083015283606083015260a060808301526111e160a0830184614b3d565b606081526000615c586060830186614b3d565b90508360208301526001600160a01b0383166040830152949350505050565b600081615c8657615c866154a8565b506000190190565b634e487b7160e01b600052603160045260246000fdfea264697066735822122038676f13b7b4c4910e74f0699edb47b51845e5fcffa69a2676206c1f92d756a464736f6c63430008110033b53127684a568b3173ae13b9f8a6016e243e63b6e8ee1178d6a717850b5d610365d7a28e3265b37a6474929f336521b332c1681b933f6cb9f3376673440d862a9f2df0fed2c77648de5860a4cc508cd0818c85b8b8a1ab4ceeef8d981c8956a6",
  "devdoc": {
    "author": "crypt0grapher",
    "kind": "dev",
    "methods": {
      "balanceOf(address,uint256)": {
        "details": "See {IERC1155-balanceOf}. Requirements: - `account` cannot be the zero address."
      },
      "balanceOfBatch(address[],uint256[])": {
        "details": "See {IERC1155-balanceOfBatch}. Requirements: - `accounts` and `ids` must have the same length."
      },
      "buy(uint8,uint256,address)": {
        "params": {
          "_amount": "amount of USD to spend",
          "_referral": "referral getting 5% of the price, should not be the sender, if not specified, goes to treasury",
          "_tier": "tier of the NFT to purchase which stands for ERC1155 token id [0..3]"
        }
      },
      "distributeProfit(uint256)": {
        "params": {
          "_amountUSD": "amount of USD to distribute"
        }
      },
      "exists(uint256)": {
        "details": "Indicates whether any token exist with a given id, or not."
      },
      "getCurrentPresaleWeek()": {
        "returns": {
          "_0": "returns 1-4"
        }
      },
      "getDiscountedPriceTable()": {
        "returns": {
          "_0": "uint256[] containing all NFT prices in one table in USD for the current presale week"
        }
      },
      "getFairPrice(uint8)": {
        "returns": {
          "_0": "counts not only the sale price but also share of the profit for the tier"
        }
      },
      "getPrice(uint8)": {
        "returns": {
          "_0": "NFT price in USD"
        }
      },
      "getPriceTable()": {
        "returns": {
          "_0": "uint256[] containing all NFT prices in one table in USD"
        }
      },
      "getRoleAdmin(bytes32)": {
        "details": "Returns the admin role that controls `role`. See {grantRole} and {revokeRole}. To change a role's admin, use {_setRoleAdmin}."
      },
      "getRoleMember(bytes32,uint256)": {
        "details": "Returns one of the accounts that have `role`. `index` must be a value between 0 and {getRoleMemberCount}, non-inclusive. Role bearers are not sorted in any particular way, and their ordering may change at any point. WARNING: When using {getRoleMember} and {getRoleMemberCount}, make sure you perform all queries on the same block. See the following https://forum.openzeppelin.com/t/iterating-over-elements-on-enumerableset-in-openzeppelin-contracts/2296[forum post] for more information."
      },
      "getRoleMemberCount(bytes32)": {
        "details": "Returns the number of accounts that have `role`. Can be used together with {getRoleMember} to enumerate all bearers of a role."
      },
      "getUnclaimedRewards()": {
        "returns": {
          "_0": "amount of the rewards not yet distributed to NFT holders"
        }
      },
      "grantRole(bytes32,address)": {
        "details": "Grants `role` to `account`. If `account` had not been already granted `role`, emits a {RoleGranted} event. Requirements: - the caller must have ``role``'s admin role. May emit a {RoleGranted} event."
      },
      "hasRole(bytes32,address)": {
        "details": "Returns `true` if `account` has been granted `role`."
      },
      "isApprovedForAll(address,address)": {
        "details": "See {IERC1155-isApprovedForAll}."
      },
      "mint(address,uint256,uint256,bytes)": {
        "details": "Creates `amount` new tokens for `to`, of token type `id`. See {ERC1155-_mint}. Requirements: - the caller must have the `MINTER_ROLE`."
      },
      "mintBatch(address,uint256[],uint256[],bytes)": {
        "details": "xref:ROOT:erc1155.adoc#batch-operations[Batched] variant of {mint}."
      },
      "pause()": {
        "details": "Pauses all token transfers. See {ERC1155Pausable} and {Pausable-_pause}. Requirements: - the caller must have the `PAUSER_ROLE`."
      },
      "paused()": {
        "details": "Returns true if the contract is paused, and false otherwise."
      },
      "renounceRole(bytes32,address)": {
        "details": "Revokes `role` from the calling account. Roles are often managed via {grantRole} and {revokeRole}: this function's purpose is to provide a mechanism for accounts to lose their privileges if they are compromised (such as when a trusted device is misplaced). If the calling account had been revoked `role`, emits a {RoleRevoked} event. Requirements: - the caller must be `account`. May emit a {RoleRevoked} event."
      },
      "revokeRole(bytes32,address)": {
        "details": "Revokes `role` from `account`. If `account` had been granted `role`, emits a {RoleRevoked} event. Requirements: - the caller must have ``role``'s admin role. May emit a {RoleRevoked} event."
      },
      "safeBatchTransferFrom(address,address,uint256[],uint256[],bytes)": {
        "details": "See {IERC1155-safeBatchTransferFrom}."
      },
      "safeTransferFrom(address,address,uint256,uint256,bytes)": {
        "details": "See {IERC1155-safeTransferFrom}."
      },
      "setApprovalForAll(address,bool)": {
        "details": "See {IERC1155-setApprovalForAll}."
      },
      "setDiscountedPriceTable(uint256[][])": {
        "params": {
          "_presalePrice": "4x4 table of the discounted prices for all 4 tiers for all 4 weeks of the presale"
        }
      },
      "totalSupply(uint256)": {
        "details": "Total amount of tokens in with a given id."
      },
      "unpause()": {
        "details": "Unpauses all token transfers. See {ERC1155Pausable} and {Pausable-_unpause}. Requirements: - the caller must have the `PAUSER_ROLE`."
      },
      "uri(uint256)": {
        "details": "See {IERC1155MetadataURI-uri}. This implementation returns the same URI for *all* token types. It relies on the token type ID substitution mechanism https://eips.ethereum.org/EIPS/eip-1155#metadata[defined in the EIP]. Clients calling this function must replace the `\\{id\\}` substring with the actual token type ID."
      }
    },
    "stateVariables": {
      "currentDistributionId": {
        "return": "current distribution number, the one that assigned to the latest distribution",
        "returns": {
          "_0": "current distribution number, the one that assigned to the latest distribution"
        }
      }
    },
    "title": "Safe NFT",
    "version": 1
  },
  "userdoc": {
    "kind": "user",
    "methods": {
      "TIERS()": {
        "notice": "todo a number of tiers should be flexible"
      },
      "buy(uint8,uint256,address)": {
        "notice": "purchase Safe NFT for exact amount of USD"
      },
      "claimReward(uint8,uint256)": {
        "notice": "the function calculates the amount of the reward for the NFT holder and transfers it to the NFT holder"
      },
      "claimRewardsTotal()": {
        "notice": "the function calculates the amount of the reward for the NFT holder and transfers it to the NFT holder"
      },
      "currentDistributionId()": {
        "notice": "gets the current distribution number"
      },
      "distributeProfit(uint256)": {
        "notice": "distribute profit among the NFT holders, the function fixes the amount of the reward and the NFT holders and their shares at the moment of the call. It does not transfer the reward to the NFT holders, it just records the amount of the reward for each NFT holder."
      },
      "getBalanceTable(address)": {
        "notice": "gets NFT balance for all tiers"
      },
      "getCurrentPresaleWeek()": {
        "notice": "gets the current presale week"
      },
      "getDiscountedPriceTable()": {
        "notice": "gets all discounted NFT prices in USD, for presale for all 4 weeks of the presale"
      },
      "getFairPrice(uint8)": {
        "notice": "gets NFT fair price in USD"
      },
      "getFairPriceTable()": {
        "notice": "gets NFT price for all tiers in USD ///todo in SAFE!"
      },
      "getMyBalanceTable()": {
        "notice": "gets NFT balance for all tiers"
      },
      "getMyPendingRewardsTotal()": {
        "notice": "returns the amount of the reward share for the NFT holder"
      },
      "getMyShareOfTreasury()": {
        "notice": "**Your NFTs (% Treasury) **is calculated in $ as a relation of total price of NFTs possessed by the $ amount of Investment Pool - including its SAFE and USDC components."
      },
      "getPendingRewards(address,uint8,uint256)": {
        "notice": "returns the amount of the reward share for the NFT holder"
      },
      "getPrice(uint8)": {
        "notice": "gets NFT price in USD"
      },
      "getPriceTable()": {
        "notice": "gets all NFT prices in USD, the original ones without discounts"
      },
      "getTreasuryCost()": {
        "notice": "gets the total usd value of the NFT minted"
      },
      "getUnclaimedRewards()": {
        "notice": "undistributed profit amount in USD"
      },
      "setDiscountedPriceTable(uint256[][])": {
        "notice": "sets all discounted NFT prices in USD, for presale for all 4 weeks of the presale"
      },
      "togglePresale()": {
        "notice": "toggles presale status"
      }
    },
    "notice": "Safe Yields NFT token based on ERC1155 standard, id [0..3] represents one of the 4 tiers",
    "version": 1
  },
  "storageLayout": {
    "storage": [
      {
        "astId": 24,
        "contract": "contracts/SafeNFT.sol:SafeNFT",
        "label": "_roles",
        "offset": 0,
        "slot": "0",
        "type": "t_mapping(t_bytes32,t_struct(RoleData)19_storage)"
      },
      {
        "astId": 334,
        "contract": "contracts/SafeNFT.sol:SafeNFT",
        "label": "_roleMembers",
        "offset": 0,
        "slot": "1",
        "type": "t_mapping(t_bytes32,t_struct(AddressSet)4430_storage)"
      },
      {
        "astId": 6309,
        "contract": "contracts/SafeNFT.sol:SafeNFT",
        "label": "wallets",
        "offset": 0,
        "slot": "2",
        "type": "t_array(t_address)2_storage"
      },
      {
        "astId": 726,
        "contract": "contracts/SafeNFT.sol:SafeNFT",
        "label": "_balances",
        "offset": 0,
        "slot": "4",
        "type": "t_mapping(t_uint256,t_mapping(t_address,t_uint256))"
      },
      {
        "astId": 732,
        "contract": "contracts/SafeNFT.sol:SafeNFT",
        "label": "_operatorApprovals",
        "offset": 0,
        "slot": "5",
        "type": "t_mapping(t_address,t_mapping(t_address,t_bool))"
      },
      {
        "astId": 734,
        "contract": "contracts/SafeNFT.sol:SafeNFT",
        "label": "_uri",
        "offset": 0,
        "slot": "6",
        "type": "t_string_storage"
      },
      {
        "astId": 556,
        "contract": "contracts/SafeNFT.sol:SafeNFT",
        "label": "_paused",
        "offset": 0,
        "slot": "7",
        "type": "t_bool"
      },
      {
        "astId": 2213,
        "contract": "contracts/SafeNFT.sol:SafeNFT",
        "label": "_totalSupply",
        "offset": 0,
        "slot": "8",
        "type": "t_mapping(t_uint256,t_uint256)"
      },
      {
        "astId": 657,
        "contract": "contracts/SafeNFT.sol:SafeNFT",
        "label": "_status",
        "offset": 0,
        "slot": "9",
        "type": "t_uint256"
      },
      {
        "astId": 4753,
        "contract": "contracts/SafeNFT.sol:SafeNFT",
        "label": "price",
        "offset": 0,
        "slot": "10",
        "type": "t_array(t_uint256)4_storage"
      },
      {
        "astId": 4759,
        "contract": "contracts/SafeNFT.sol:SafeNFT",
        "label": "presalePrice",
        "offset": 0,
        "slot": "14",
        "type": "t_array(t_array(t_uint256)4_storage)4_storage"
      },
      {
        "astId": 4763,
        "contract": "contracts/SafeNFT.sol:SafeNFT",
        "label": "maxSupply",
        "offset": 0,
        "slot": "30",
        "type": "t_array(t_uint256)4_storage"
      },
      {
        "astId": 4765,
        "contract": "contracts/SafeNFT.sol:SafeNFT",
        "label": "presaleStartDate",
        "offset": 0,
        "slot": "34",
        "type": "t_uint256"
      },
      {
        "astId": 4768,
        "contract": "contracts/SafeNFT.sol:SafeNFT",
        "label": "safeToken",
        "offset": 0,
        "slot": "35",
        "type": "t_contract(ISafeToken)6824"
      },
      {
        "astId": 4771,
        "contract": "contracts/SafeNFT.sol:SafeNFT",
        "label": "safeVault",
        "offset": 0,
        "slot": "36",
        "type": "t_contract(ISafeVault)6845"
      },
      {
        "astId": 4774,
        "contract": "contracts/SafeNFT.sol:SafeNFT",
        "label": "usd",
        "offset": 0,
        "slot": "37",
        "type": "t_contract(IERC20)2651"
      },
      {
        "astId": 4781,
        "contract": "contracts/SafeNFT.sol:SafeNFT",
        "label": "priceDistributionOnMint",
        "offset": 0,
        "slot": "38",
        "type": "t_array(t_uint256)2_storage"
      },
      {
        "astId": 4785,
        "contract": "contracts/SafeNFT.sol:SafeNFT",
        "label": "profitDistribution",
        "offset": 0,
        "slot": "40",
        "type": "t_array(t_uint256)2_storage"
      },
      {
        "astId": 4787,
        "contract": "contracts/SafeNFT.sol:SafeNFT",
        "label": "referralShareForNFTPurchase",
        "offset": 0,
        "slot": "42",
        "type": "t_uint256"
      },
      {
        "astId": 4789,
        "contract": "contracts/SafeNFT.sol:SafeNFT",
        "label": "stabilizerWallet",
        "offset": 0,
        "slot": "43",
        "type": "t_address"
      },
      {
        "astId": 4791,
        "contract": "contracts/SafeNFT.sol:SafeNFT",
        "label": "presale",
        "offset": 20,
        "slot": "43",
        "type": "t_bool"
      },
      {
        "astId": 4793,
        "contract": "contracts/SafeNFT.sol:SafeNFT",
        "label": "currentDistributionId",
        "offset": 0,
        "slot": "44",
        "type": "t_uint256"
      },
      {
        "astId": 4797,
        "contract": "contracts/SafeNFT.sol:SafeNFT",
        "label": "distributionOfProfit",
        "offset": 0,
        "slot": "45",
        "type": "t_mapping(t_uint256,t_uint256)"
      },
      {
        "astId": 4803,
        "contract": "contracts/SafeNFT.sol:SafeNFT",
        "label": "distributionByTier",
        "offset": 0,
        "slot": "46",
        "type": "t_mapping(t_uint256,t_array(t_uint256)4_storage)"
      },
      {
        "astId": 4809,
        "contract": "contracts/SafeNFT.sol:SafeNFT",
        "label": "distributionTotalSupplySnapshot",
        "offset": 0,
        "slot": "47",
        "type": "t_mapping(t_uint256,t_array(t_uint256)4_storage)"
      },
      {
        "astId": 4817,
        "contract": "contracts/SafeNFT.sol:SafeNFT",
        "label": "alreadyDistributedAmount",
        "offset": 0,
        "slot": "48",
        "type": "t_mapping(t_uint256,t_mapping(t_uint256,t_mapping(t_address,t_uint256)))"
      },
      {
        "astId": 4823,
        "contract": "contracts/SafeNFT.sol:SafeNFT",
        "label": "alreadyDistributedAmountByTier",
        "offset": 0,
        "slot": "49",
        "type": "t_mapping(t_uint256,t_array(t_uint256)4_storage)"
      }
    ],
    "types": {
      "t_address": {
        "encoding": "inplace",
        "label": "address",
        "numberOfBytes": "20"
      },
      "t_array(t_address)2_storage": {
        "base": "t_address",
        "encoding": "inplace",
        "label": "address[2]",
        "numberOfBytes": "64"
      },
      "t_array(t_array(t_uint256)4_storage)4_storage": {
        "base": "t_array(t_uint256)4_storage",
        "encoding": "inplace",
        "label": "uint256[4][4]",
        "numberOfBytes": "512"
      },
      "t_array(t_bytes32)dyn_storage": {
        "base": "t_bytes32",
        "encoding": "dynamic_array",
        "label": "bytes32[]",
        "numberOfBytes": "32"
      },
      "t_array(t_uint256)2_storage": {
        "base": "t_uint256",
        "encoding": "inplace",
        "label": "uint256[2]",
        "numberOfBytes": "64"
      },
      "t_array(t_uint256)4_storage": {
        "base": "t_uint256",
        "encoding": "inplace",
        "label": "uint256[4]",
        "numberOfBytes": "128"
      },
      "t_bool": {
        "encoding": "inplace",
        "label": "bool",
        "numberOfBytes": "1"
      },
      "t_bytes32": {
        "encoding": "inplace",
        "label": "bytes32",
        "numberOfBytes": "32"
      },
      "t_contract(IERC20)2651": {
        "encoding": "inplace",
        "label": "contract IERC20",
        "numberOfBytes": "20"
      },
      "t_contract(ISafeToken)6824": {
        "encoding": "inplace",
        "label": "contract ISafeToken",
        "numberOfBytes": "20"
      },
      "t_contract(ISafeVault)6845": {
        "encoding": "inplace",
        "label": "contract ISafeVault",
        "numberOfBytes": "20"
      },
      "t_mapping(t_address,t_bool)": {
        "encoding": "mapping",
        "key": "t_address",
        "label": "mapping(address => bool)",
        "numberOfBytes": "32",
        "value": "t_bool"
      },
      "t_mapping(t_address,t_mapping(t_address,t_bool))": {
        "encoding": "mapping",
        "key": "t_address",
        "label": "mapping(address => mapping(address => bool))",
        "numberOfBytes": "32",
        "value": "t_mapping(t_address,t_bool)"
      },
      "t_mapping(t_address,t_uint256)": {
        "encoding": "mapping",
        "key": "t_address",
        "label": "mapping(address => uint256)",
        "numberOfBytes": "32",
        "value": "t_uint256"
      },
      "t_mapping(t_bytes32,t_struct(AddressSet)4430_storage)": {
        "encoding": "mapping",
        "key": "t_bytes32",
        "label": "mapping(bytes32 => struct EnumerableSet.AddressSet)",
        "numberOfBytes": "32",
        "value": "t_struct(AddressSet)4430_storage"
      },
      "t_mapping(t_bytes32,t_struct(RoleData)19_storage)": {
        "encoding": "mapping",
        "key": "t_bytes32",
        "label": "mapping(bytes32 => struct AccessControl.RoleData)",
        "numberOfBytes": "32",
        "value": "t_struct(RoleData)19_storage"
      },
      "t_mapping(t_bytes32,t_uint256)": {
        "encoding": "mapping",
        "key": "t_bytes32",
        "label": "mapping(bytes32 => uint256)",
        "numberOfBytes": "32",
        "value": "t_uint256"
      },
      "t_mapping(t_uint256,t_array(t_uint256)4_storage)": {
        "encoding": "mapping",
        "key": "t_uint256",
        "label": "mapping(uint256 => uint256[4])",
        "numberOfBytes": "32",
        "value": "t_array(t_uint256)4_storage"
      },
      "t_mapping(t_uint256,t_mapping(t_address,t_uint256))": {
        "encoding": "mapping",
        "key": "t_uint256",
        "label": "mapping(uint256 => mapping(address => uint256))",
        "numberOfBytes": "32",
        "value": "t_mapping(t_address,t_uint256)"
      },
      "t_mapping(t_uint256,t_mapping(t_uint256,t_mapping(t_address,t_uint256)))": {
        "encoding": "mapping",
        "key": "t_uint256",
        "label": "mapping(uint256 => mapping(uint256 => mapping(address => uint256)))",
        "numberOfBytes": "32",
        "value": "t_mapping(t_uint256,t_mapping(t_address,t_uint256))"
      },
      "t_mapping(t_uint256,t_uint256)": {
        "encoding": "mapping",
        "key": "t_uint256",
        "label": "mapping(uint256 => uint256)",
        "numberOfBytes": "32",
        "value": "t_uint256"
      },
      "t_string_storage": {
        "encoding": "bytes",
        "label": "string",
        "numberOfBytes": "32"
      },
      "t_struct(AddressSet)4430_storage": {
        "encoding": "inplace",
        "label": "struct EnumerableSet.AddressSet",
        "members": [
          {
            "astId": 4429,
            "contract": "contracts/SafeNFT.sol:SafeNFT",
            "label": "_inner",
            "offset": 0,
            "slot": "0",
            "type": "t_struct(Set)4115_storage"
          }
        ],
        "numberOfBytes": "64"
      },
      "t_struct(RoleData)19_storage": {
        "encoding": "inplace",
        "label": "struct AccessControl.RoleData",
        "members": [
          {
            "astId": 16,
            "contract": "contracts/SafeNFT.sol:SafeNFT",
            "label": "members",
            "offset": 0,
            "slot": "0",
            "type": "t_mapping(t_address,t_bool)"
          },
          {
            "astId": 18,
            "contract": "contracts/SafeNFT.sol:SafeNFT",
            "label": "adminRole",
            "offset": 0,
            "slot": "1",
            "type": "t_bytes32"
          }
        ],
        "numberOfBytes": "64"
      },
      "t_struct(Set)4115_storage": {
        "encoding": "inplace",
        "label": "struct EnumerableSet.Set",
        "members": [
          {
            "astId": 4110,
            "contract": "contracts/SafeNFT.sol:SafeNFT",
            "label": "_values",
            "offset": 0,
            "slot": "0",
            "type": "t_array(t_bytes32)dyn_storage"
          },
          {
            "astId": 4114,
            "contract": "contracts/SafeNFT.sol:SafeNFT",
            "label": "_indexes",
            "offset": 0,
            "slot": "1",
            "type": "t_mapping(t_bytes32,t_uint256)"
          }
        ],
        "numberOfBytes": "64"
      },
      "t_uint256": {
        "encoding": "inplace",
        "label": "uint256",
        "numberOfBytes": "32"
      }
    }
  }
}