{
  "address": "0x59918b0f88B156a1E058896724E487CB94f672d9",
  "abi": [
    {
      "inputs": [
        {
          "internalType": "address",
          "name": "_usd",
          "type": "address"
        }
      ],
      "stateMutability": "nonpayable",
      "type": "constructor"
    },
    {
      "anonymous": false,
      "inputs": [
        {
          "indexed": true,
          "internalType": "address",
          "name": "user",
          "type": "address"
        },
        {
          "indexed": false,
          "internalType": "uint256",
          "name": "amount",
          "type": "uint256"
        }
      ],
      "name": "Deposit",
      "type": "event"
    },
    {
      "anonymous": false,
      "inputs": [
        {
          "indexed": true,
          "internalType": "address",
          "name": "user",
          "type": "address"
        },
        {
          "indexed": false,
          "internalType": "uint256",
          "name": "amount",
          "type": "uint256"
        }
      ],
      "name": "Withdraw",
      "type": "event"
    },
    {
      "inputs": [
        {
          "internalType": "address",
          "name": "",
          "type": "address"
        }
      ],
      "name": "balances",
      "outputs": [
        {
          "internalType": "uint256",
          "name": "",
          "type": "uint256"
        }
      ],
      "stateMutability": "view",
      "type": "function"
    },
    {
      "inputs": [
        {
          "internalType": "uint256",
          "name": "_amount",
          "type": "uint256"
        }
      ],
      "name": "deposit",
      "outputs": [],
      "stateMutability": "nonpayable",
      "type": "function"
    },
    {
      "inputs": [],
      "name": "deposited",
      "outputs": [
        {
          "internalType": "uint256",
          "name": "",
          "type": "uint256"
        }
      ],
      "stateMutability": "view",
      "type": "function"
    },
    {
      "inputs": [
        {
          "internalType": "address",
          "name": "_usd",
          "type": "address"
        }
      ],
      "name": "initialize",
      "outputs": [],
      "stateMutability": "nonpayable",
      "type": "function"
    },
    {
      "inputs": [
        {
          "internalType": "address",
          "name": "tokenAddress",
          "type": "address"
        },
        {
          "internalType": "uint256",
          "name": "tokenAmount",
          "type": "uint256"
        }
      ],
      "name": "recoverERC20",
      "outputs": [],
      "stateMutability": "nonpayable",
      "type": "function"
    },
    {
      "inputs": [],
      "name": "recoverETH",
      "outputs": [],
      "stateMutability": "nonpayable",
      "type": "function"
    },
    {
      "inputs": [],
      "name": "totalSupply",
      "outputs": [
        {
          "internalType": "uint256",
          "name": "",
          "type": "uint256"
        }
      ],
      "stateMutability": "view",
      "type": "function"
    },
    {
      "inputs": [],
      "name": "usd",
      "outputs": [
        {
          "internalType": "contract IERC20",
          "name": "",
          "type": "address"
        }
      ],
      "stateMutability": "view",
      "type": "function"
    },
    {
      "inputs": [
        {
          "internalType": "address",
          "name": "_receiver",
          "type": "address"
        },
        {
          "internalType": "uint256",
          "name": "_amount",
          "type": "uint256"
        }
      ],
      "name": "withdraw",
      "outputs": [],
      "stateMutability": "nonpayable",
      "type": "function"
    }
  ],
  "transactionHash": "0x5a9c47edaf4b1324408c15110eb50d77fd2cae71793f1dbb9bf65fa303bd51c7",
  "args": [
    "0x179522635726710Dd7D2035a81d856de4Aa7836c"
  ],
  "numDeployments": 2,
  "solcInputHash": "b10a890c931bf56539dcf6a39fa2e104",
  "bytecode": "0x608060405234801561001057600080fd5b506040516109eb3803806109eb83398101604081905261002f916100c0565b600160005561003d81610043565b506100f0565b600061005b6000805160206109cb8339815191525490565b90506001600160a01b038116610088576001600160a01b036000805160206109cb8339815191525561009d565b336001600160a01b0382161461009d57600080fd5b50600180546001600160a01b0319166001600160a01b0392909216919091179055565b6000602082840312156100d257600080fd5b81516001600160a01b03811681146100e957600080fd5b9392505050565b6108cc806100ff6000396000f3fe608060405234801561001057600080fd5b50600436106100935760003560e01c8063b6b55f2511610066578063b6b55f25146100f0578063c4d66de814610103578063d63a6ccd14610116578063eef49ee314610141578063f3fef3a31461014a57600080fd5b80630614117a1461009857806318160ddd146100a257806327e235e3146100bd5780638980f11f146100dd575b600080fd5b6100a061015d565b005b6100aa610213565b6040519081526020015b60405180910390f35b6100aa6100cb36600461074c565b60036020526000908152604090205481565b6100a06100eb36600461076e565b610285565b6100a06100fe366004610798565b610388565b6100a061011136600461074c565b6104a8565b600154610129906001600160a01b031681565b6040516001600160a01b0390911681526020016100b4565b6100aa60025481565b6100a061015836600461076e565b610532565b600080516020610877833981519152546001600160a01b0316336001600160a01b0316146101ca5760405162461bcd60e51b815260206004820152601560248201527429b0b332ab30bab63a1d1037b7363c9037bbb732b960591b60448201526064015b60405180910390fd5b600080516020610877833981519152546040516001600160a01b03909116904780156108fc02916000818181858888f19350505050158015610210573d6000803e3d6000fd5b50565b6001546040516370a0823160e01b81523060048201526000916001600160a01b0316906370a0823190602401602060405180830381865afa15801561025c573d6000803e3d6000fd5b505050506040513d601f19601f8201168201806040525081019061028091906107b1565b905090565b600080516020610877833981519152546001600160a01b0316336001600160a01b0316146102ed5760405162461bcd60e51b815260206004820152601560248201527429b0b332ab30bab63a1d1037b7363c9037bbb732b960591b60448201526064016101c1565b816001600160a01b031663a9059cbb6103126000805160206108778339815191525490565b6040516001600160e01b031960e084901b1681526001600160a01b039091166004820152602481018490526044016020604051808303816000875af115801561035f573d6000803e3d6000fd5b505050506040513d601f19601f8201168201806040525081019061038391906107ca565b505050565b6103906106d7565b600081116103b05760405162461bcd60e51b81526004016101c1906107ec565b33600090815260036020526040812080548392906103cf90849061084a565b9250508190555080600260008282546103e8919061084a565b90915550506001546040516323b872dd60e01b8152336004820152306024820152604481018390526001600160a01b03909116906323b872dd906064016020604051808303816000875af1158015610444573d6000803e3d6000fd5b505050506040513d601f19601f8201168201806040525081019061046891906107ca565b5060405181815233907fe1fffcc4923d04b559f4d29a8bfc6cda04eb5b0d3c460751c2402c5c5cc9109c9060200160405180910390a26102106001600055565b60006104c06000805160206108778339815191525490565b90506001600160a01b0381166104ed576001600160a01b0360008051602061087783398151915255610502565b336001600160a01b0382161461050257600080fd5b506001805473ffffffffffffffffffffffffffffffffffffffff19166001600160a01b0392909216919091179055565b61053a6106d7565b6000811161055a5760405162461bcd60e51b81526004016101c1906107ec565b336000908152600360205260409020548111156105df5760405162461bcd60e51b815260206004820152603760248201527f536166655661756c743a20757365722062616c616e6365206973206c6573732060448201527f7468616e20616d6f756e7420746f20776974686472617700000000000000000060648201526084016101c1565b33600090815260036020526040812080548392906105fe908490610863565b9250508190555080600260008282546106179190610863565b909155505060015460405163a9059cbb60e01b81526001600160a01b038481166004830152602482018490529091169063a9059cbb906044016020604051808303816000875af115801561066f573d6000803e3d6000fd5b505050506040513d601f19601f8201168201806040525081019061069391906107ca565b5060405181815233907f884edad9ce6fa2440d8a54cc123490eb96d2768479d49ff9c7366125a94243649060200160405180910390a26106d36001600055565b5050565b6002600054036107295760405162461bcd60e51b815260206004820152601f60248201527f5265656e7472616e637947756172643a207265656e7472616e742063616c6c0060448201526064016101c1565b6002600055565b80356001600160a01b038116811461074757600080fd5b919050565b60006020828403121561075e57600080fd5b61076782610730565b9392505050565b6000806040838503121561078157600080fd5b61078a83610730565b946020939093013593505050565b6000602082840312156107aa57600080fd5b5035919050565b6000602082840312156107c357600080fd5b5051919050565b6000602082840312156107dc57600080fd5b8151801515811461076757600080fd5b60208082526028908201527f536166655661756c743a20616d6f756e74206d75737420626520677265617465604082015267072207468616e20360c41b606082015260800190565b634e487b7160e01b600052601160045260246000fd5b8082018082111561085d5761085d610834565b92915050565b8181038181111561085d5761085d61083456feb53127684a568b3173ae13b9f8a6016e243e63b6e8ee1178d6a717850b5d6103a26469706673582212202c7ff33fb2ba08c61fb55e93de90cda9d83046d470b64727901c457953f6db4964736f6c63430008110033b53127684a568b3173ae13b9f8a6016e243e63b6e8ee1178d6a717850b5d6103",
  "devdoc": {
    "author": "crypt0grapher",
    "kind": "dev",
    "methods": {
      "deposit(uint256)": {
        "details": "Deposit stablecoin to the vault, the total supply of the vault includes not only tokens deposited by users, but also tokens transferred  to the vault"
      },
      "recoverERC20(address,uint256)": {
        "details": "this one is used to recover tokens sent to the vault by mistake, including both SAFE and USD ones"
      },
      "totalSupply()": {
        "details": "total supply, used to determine the price of the SAFE token, deposited on SAFE purchase + transferred to the vault"
      }
    },
    "title": "Safe Vault",
    "version": 1
  },
  "userdoc": {
    "kind": "user",
    "methods": {},
    "notice": "This contract is responsible for the stablecoin pool: mainly deposit/withdrawal and farms management",
    "version": 1
  },
  "storageLayout": {
    "storage": [
      {
        "astId": 657,
        "contract": "contracts/SafeVault.sol:SafeVault",
        "label": "_status",
        "offset": 0,
        "slot": "0",
        "type": "t_uint256"
      },
      {
        "astId": 7322,
        "contract": "contracts/SafeVault.sol:SafeVault",
        "label": "usd",
        "offset": 0,
        "slot": "1",
        "type": "t_contract(IERC20)2651"
      },
      {
        "astId": 7324,
        "contract": "contracts/SafeVault.sol:SafeVault",
        "label": "deposited",
        "offset": 0,
        "slot": "2",
        "type": "t_uint256"
      },
      {
        "astId": 7328,
        "contract": "contracts/SafeVault.sol:SafeVault",
        "label": "balances",
        "offset": 0,
        "slot": "3",
        "type": "t_mapping(t_address,t_uint256)"
      }
    ],
    "types": {
      "t_address": {
        "encoding": "inplace",
        "label": "address",
        "numberOfBytes": "20"
      },
      "t_contract(IERC20)2651": {
        "encoding": "inplace",
        "label": "contract IERC20",
        "numberOfBytes": "20"
      },
      "t_mapping(t_address,t_uint256)": {
        "encoding": "mapping",
        "key": "t_address",
        "label": "mapping(address => uint256)",
        "numberOfBytes": "32",
        "value": "t_uint256"
      },
      "t_uint256": {
        "encoding": "inplace",
        "label": "uint256",
        "numberOfBytes": "32"
      }
    }
  }
}