{
  "address": "0xD8b4C37DFFfe49AF06A4E700040e948DD7fADa9B",
  "abi": [
    {
      "inputs": [
        {
          "internalType": "string",
          "name": "_uri",
          "type": "string"
        },
        {
          "internalType": "uint256[4]",
          "name": "_price",
          "type": "uint256[4]"
        },
        {
          "internalType": "uint256[4]",
          "name": "_maxSupply",
          "type": "uint256[4]"
        },
        {
          "internalType": "contract ISafeToken",
          "name": "_safeToken",
          "type": "address"
        },
        {
          "internalType": "uint256[2]",
          "name": "_priceDistributionOnMint",
          "type": "uint256[2]"
        },
        {
          "internalType": "uint256",
          "name": "_referralShareForNFTPurchase",
          "type": "uint256"
        },
        {
          "internalType": "uint256[2]",
          "name": "_profitDistribution",
          "type": "uint256[2]"
        }
      ],
      "stateMutability": "nonpayable",
      "type": "constructor"
    },
    {
      "anonymous": false,
      "inputs": [
        {
          "indexed": true,
          "internalType": "address",
          "name": "account",
          "type": "address"
        },
        {
          "indexed": true,
          "internalType": "address",
          "name": "operator",
          "type": "address"
        },
        {
          "indexed": false,
          "internalType": "bool",
          "name": "approved",
          "type": "bool"
        }
      ],
      "name": "ApprovalForAll",
      "type": "event"
    },
    {
      "anonymous": false,
      "inputs": [
        {
          "indexed": false,
          "internalType": "address",
          "name": "account",
          "type": "address"
        }
      ],
      "name": "Paused",
      "type": "event"
    },
    {
      "anonymous": false,
      "inputs": [
        {
          "indexed": true,
          "internalType": "bytes32",
          "name": "role",
          "type": "bytes32"
        },
        {
          "indexed": true,
          "internalType": "bytes32",
          "name": "previousAdminRole",
          "type": "bytes32"
        },
        {
          "indexed": true,
          "internalType": "bytes32",
          "name": "newAdminRole",
          "type": "bytes32"
        }
      ],
      "name": "RoleAdminChanged",
      "type": "event"
    },
    {
      "anonymous": false,
      "inputs": [
        {
          "indexed": true,
          "internalType": "bytes32",
          "name": "role",
          "type": "bytes32"
        },
        {
          "indexed": true,
          "internalType": "address",
          "name": "account",
          "type": "address"
        },
        {
          "indexed": true,
          "internalType": "address",
          "name": "sender",
          "type": "address"
        }
      ],
      "name": "RoleGranted",
      "type": "event"
    },
    {
      "anonymous": false,
      "inputs": [
        {
          "indexed": true,
          "internalType": "bytes32",
          "name": "role",
          "type": "bytes32"
        },
        {
          "indexed": true,
          "internalType": "address",
          "name": "account",
          "type": "address"
        },
        {
          "indexed": true,
          "internalType": "address",
          "name": "sender",
          "type": "address"
        }
      ],
      "name": "RoleRevoked",
      "type": "event"
    },
    {
      "anonymous": false,
      "inputs": [
        {
          "indexed": true,
          "internalType": "address",
          "name": "operator",
          "type": "address"
        },
        {
          "indexed": true,
          "internalType": "address",
          "name": "from",
          "type": "address"
        },
        {
          "indexed": true,
          "internalType": "address",
          "name": "to",
          "type": "address"
        },
        {
          "indexed": false,
          "internalType": "uint256[]",
          "name": "ids",
          "type": "uint256[]"
        },
        {
          "indexed": false,
          "internalType": "uint256[]",
          "name": "values",
          "type": "uint256[]"
        }
      ],
      "name": "TransferBatch",
      "type": "event"
    },
    {
      "anonymous": false,
      "inputs": [
        {
          "indexed": true,
          "internalType": "address",
          "name": "operator",
          "type": "address"
        },
        {
          "indexed": true,
          "internalType": "address",
          "name": "from",
          "type": "address"
        },
        {
          "indexed": true,
          "internalType": "address",
          "name": "to",
          "type": "address"
        },
        {
          "indexed": false,
          "internalType": "uint256",
          "name": "id",
          "type": "uint256"
        },
        {
          "indexed": false,
          "internalType": "uint256",
          "name": "value",
          "type": "uint256"
        }
      ],
      "name": "TransferSingle",
      "type": "event"
    },
    {
      "anonymous": false,
      "inputs": [
        {
          "indexed": false,
          "internalType": "string",
          "name": "value",
          "type": "string"
        },
        {
          "indexed": true,
          "internalType": "uint256",
          "name": "id",
          "type": "uint256"
        }
      ],
      "name": "URI",
      "type": "event"
    },
    {
      "anonymous": false,
      "inputs": [
        {
          "indexed": false,
          "internalType": "address",
          "name": "account",
          "type": "address"
        }
      ],
      "name": "Unpaused",
      "type": "event"
    },
    {
      "inputs": [],
      "name": "DEFAULT_ADMIN_ROLE",
      "outputs": [
        {
          "internalType": "bytes32",
          "name": "",
          "type": "bytes32"
        }
      ],
      "stateMutability": "view",
      "type": "function"
    },
    {
      "inputs": [],
      "name": "MINTER_ROLE",
      "outputs": [
        {
          "internalType": "bytes32",
          "name": "",
          "type": "bytes32"
        }
      ],
      "stateMutability": "view",
      "type": "function"
    },
    {
      "inputs": [],
      "name": "PAUSER_ROLE",
      "outputs": [
        {
          "internalType": "bytes32",
          "name": "",
          "type": "bytes32"
        }
      ],
      "stateMutability": "view",
      "type": "function"
    },
    {
      "inputs": [],
      "name": "TIERS",
      "outputs": [
        {
          "internalType": "uint256",
          "name": "",
          "type": "uint256"
        }
      ],
      "stateMutability": "view",
      "type": "function"
    },
    {
      "inputs": [],
      "name": "WALLETS",
      "outputs": [
        {
          "internalType": "uint256",
          "name": "",
          "type": "uint256"
        }
      ],
      "stateMutability": "view",
      "type": "function"
    },
    {
      "inputs": [
        {
          "internalType": "uint256",
          "name": "",
          "type": "uint256"
        },
        {
          "internalType": "uint256",
          "name": "",
          "type": "uint256"
        },
        {
          "internalType": "address",
          "name": "",
          "type": "address"
        }
      ],
      "name": "alreadyDistributedAmount",
      "outputs": [
        {
          "internalType": "uint256",
          "name": "",
          "type": "uint256"
        }
      ],
      "stateMutability": "view",
      "type": "function"
    },
    {
      "inputs": [
        {
          "internalType": "uint256",
          "name": "",
          "type": "uint256"
        },
        {
          "internalType": "uint256",
          "name": "",
          "type": "uint256"
        }
      ],
      "name": "alreadyDistributedAmountByTier",
      "outputs": [
        {
          "internalType": "uint256",
          "name": "",
          "type": "uint256"
        }
      ],
      "stateMutability": "view",
      "type": "function"
    },
    {
      "inputs": [
        {
          "internalType": "address",
          "name": "account",
          "type": "address"
        },
        {
          "internalType": "uint256",
          "name": "id",
          "type": "uint256"
        }
      ],
      "name": "balanceOf",
      "outputs": [
        {
          "internalType": "uint256",
          "name": "",
          "type": "uint256"
        }
      ],
      "stateMutability": "view",
      "type": "function"
    },
    {
      "inputs": [
        {
          "internalType": "address[]",
          "name": "accounts",
          "type": "address[]"
        },
        {
          "internalType": "uint256[]",
          "name": "ids",
          "type": "uint256[]"
        }
      ],
      "name": "balanceOfBatch",
      "outputs": [
        {
          "internalType": "uint256[]",
          "name": "",
          "type": "uint256[]"
        }
      ],
      "stateMutability": "view",
      "type": "function"
    },
    {
      "inputs": [
        {
          "internalType": "address",
          "name": "account",
          "type": "address"
        },
        {
          "internalType": "uint256",
          "name": "id",
          "type": "uint256"
        },
        {
          "internalType": "uint256",
          "name": "value",
          "type": "uint256"
        }
      ],
      "name": "burn",
      "outputs": [],
      "stateMutability": "nonpayable",
      "type": "function"
    },
    {
      "inputs": [
        {
          "internalType": "address",
          "name": "account",
          "type": "address"
        },
        {
          "internalType": "uint256[]",
          "name": "ids",
          "type": "uint256[]"
        },
        {
          "internalType": "uint256[]",
          "name": "values",
          "type": "uint256[]"
        }
      ],
      "name": "burnBatch",
      "outputs": [],
      "stateMutability": "nonpayable",
      "type": "function"
    },
    {
      "inputs": [
        {
          "internalType": "enum ISafeNFT.Tiers",
          "name": "_tier",
          "type": "uint8"
        },
        {
          "internalType": "uint256",
          "name": "_amount",
          "type": "uint256"
        },
        {
          "internalType": "address",
          "name": "_referral",
          "type": "address"
        }
      ],
      "name": "buy",
      "outputs": [],
      "stateMutability": "nonpayable",
      "type": "function"
    },
    {
      "inputs": [
        {
          "internalType": "enum ISafeNFT.Tiers",
          "name": "_tier",
          "type": "uint8"
        },
        {
          "internalType": "uint256",
          "name": "_distributionId",
          "type": "uint256"
        }
      ],
      "name": "claimReward",
      "outputs": [],
      "stateMutability": "nonpayable",
      "type": "function"
    },
    {
      "inputs": [],
      "name": "claimRewardsTotal",
      "outputs": [],
      "stateMutability": "nonpayable",
      "type": "function"
    },
    {
      "inputs": [],
      "name": "currentDistributionId",
      "outputs": [
        {
          "internalType": "uint256",
          "name": "",
          "type": "uint256"
        }
      ],
      "stateMutability": "view",
      "type": "function"
    },
    {
      "inputs": [
        {
          "internalType": "uint256",
          "name": "_amountUSD",
          "type": "uint256"
        }
      ],
      "name": "distributeProfit",
      "outputs": [],
      "stateMutability": "nonpayable",
      "type": "function"
    },
    {
      "inputs": [
        {
          "internalType": "uint256",
          "name": "",
          "type": "uint256"
        },
        {
          "internalType": "uint256",
          "name": "",
          "type": "uint256"
        }
      ],
      "name": "distributionByTier",
      "outputs": [
        {
          "internalType": "uint256",
          "name": "",
          "type": "uint256"
        }
      ],
      "stateMutability": "view",
      "type": "function"
    },
    {
      "inputs": [
        {
          "internalType": "uint256",
          "name": "",
          "type": "uint256"
        }
      ],
      "name": "distributionOfProfit",
      "outputs": [
        {
          "internalType": "uint256",
          "name": "",
          "type": "uint256"
        }
      ],
      "stateMutability": "view",
      "type": "function"
    },
    {
      "inputs": [
        {
          "internalType": "uint256",
          "name": "",
          "type": "uint256"
        },
        {
          "internalType": "uint256",
          "name": "",
          "type": "uint256"
        }
      ],
      "name": "distributionTotalSupplySnapshot",
      "outputs": [
        {
          "internalType": "uint256",
          "name": "",
          "type": "uint256"
        }
      ],
      "stateMutability": "view",
      "type": "function"
    },
    {
      "inputs": [
        {
          "internalType": "uint256",
          "name": "id",
          "type": "uint256"
        }
      ],
      "name": "exists",
      "outputs": [
        {
          "internalType": "bool",
          "name": "",
          "type": "bool"
        }
      ],
      "stateMutability": "view",
      "type": "function"
    },
    {
      "inputs": [
        {
          "internalType": "address",
          "name": "_user",
          "type": "address"
        }
      ],
      "name": "getBalanceTable",
      "outputs": [
        {
          "internalType": "uint256[]",
          "name": "",
          "type": "uint256[]"
        }
      ],
      "stateMutability": "view",
      "type": "function"
    },
    {
      "inputs": [
        {
          "internalType": "enum ISafeNFT.Tiers",
          "name": "_tier",
          "type": "uint8"
        }
      ],
      "name": "getFairPrice",
      "outputs": [
        {
          "internalType": "uint256",
          "name": "",
          "type": "uint256"
        }
      ],
      "stateMutability": "view",
      "type": "function"
    },
    {
      "inputs": [],
      "name": "getFairPriceTable",
      "outputs": [
        {
          "internalType": "uint256[]",
          "name": "",
          "type": "uint256[]"
        }
      ],
      "stateMutability": "view",
      "type": "function"
    },
    {
      "inputs": [],
      "name": "getMyBalanceTable",
      "outputs": [
        {
          "internalType": "uint256[]",
          "name": "",
          "type": "uint256[]"
        }
      ],
      "stateMutability": "view",
      "type": "function"
    },
    {
      "inputs": [],
      "name": "getMyPendingRewardsTotal",
      "outputs": [
        {
          "internalType": "uint256",
          "name": "",
          "type": "uint256"
        }
      ],
      "stateMutability": "view",
      "type": "function"
    },
    {
      "inputs": [],
      "name": "getMyShareOfTreasury",
      "outputs": [
        {
          "internalType": "uint256",
          "name": "",
          "type": "uint256"
        }
      ],
      "stateMutability": "view",
      "type": "function"
    },
    {
      "inputs": [
        {
          "internalType": "address",
          "name": "_user",
          "type": "address"
        },
        {
          "internalType": "enum ISafeNFT.Tiers",
          "name": "_tier",
          "type": "uint8"
        },
        {
          "internalType": "uint256",
          "name": "_distributionId",
          "type": "uint256"
        }
      ],
      "name": "getPendingRewards",
      "outputs": [
        {
          "internalType": "uint256",
          "name": "",
          "type": "uint256"
        }
      ],
      "stateMutability": "view",
      "type": "function"
    },
    {
      "inputs": [
        {
          "internalType": "enum ISafeNFT.Tiers",
          "name": "_tier",
          "type": "uint8"
        }
      ],
      "name": "getPrice",
      "outputs": [
        {
          "internalType": "uint256",
          "name": "",
          "type": "uint256"
        }
      ],
      "stateMutability": "view",
      "type": "function"
    },
    {
      "inputs": [],
      "name": "getPriceTable",
      "outputs": [
        {
          "internalType": "uint256[]",
          "name": "",
          "type": "uint256[]"
        }
      ],
      "stateMutability": "view",
      "type": "function"
    },
    {
      "inputs": [
        {
          "internalType": "bytes32",
          "name": "role",
          "type": "bytes32"
        }
      ],
      "name": "getRoleAdmin",
      "outputs": [
        {
          "internalType": "bytes32",
          "name": "",
          "type": "bytes32"
        }
      ],
      "stateMutability": "view",
      "type": "function"
    },
    {
      "inputs": [
        {
          "internalType": "bytes32",
          "name": "role",
          "type": "bytes32"
        },
        {
          "internalType": "uint256",
          "name": "index",
          "type": "uint256"
        }
      ],
      "name": "getRoleMember",
      "outputs": [
        {
          "internalType": "address",
          "name": "",
          "type": "address"
        }
      ],
      "stateMutability": "view",
      "type": "function"
    },
    {
      "inputs": [
        {
          "internalType": "bytes32",
          "name": "role",
          "type": "bytes32"
        }
      ],
      "name": "getRoleMemberCount",
      "outputs": [
        {
          "internalType": "uint256",
          "name": "",
          "type": "uint256"
        }
      ],
      "stateMutability": "view",
      "type": "function"
    },
    {
      "inputs": [],
      "name": "getTotalSupplyAllTiers",
      "outputs": [
        {
          "internalType": "uint256",
          "name": "",
          "type": "uint256"
        }
      ],
      "stateMutability": "view",
      "type": "function"
    },
    {
      "inputs": [],
      "name": "getTreasuryCost",
      "outputs": [
        {
          "internalType": "uint256",
          "name": "",
          "type": "uint256"
        }
      ],
      "stateMutability": "view",
      "type": "function"
    },
    {
      "inputs": [],
      "name": "getUnclaimedRewards",
      "outputs": [
        {
          "internalType": "uint256",
          "name": "",
          "type": "uint256"
        }
      ],
      "stateMutability": "view",
      "type": "function"
    },
    {
      "inputs": [
        {
          "internalType": "bytes32",
          "name": "role",
          "type": "bytes32"
        },
        {
          "internalType": "address",
          "name": "account",
          "type": "address"
        }
      ],
      "name": "grantRole",
      "outputs": [],
      "stateMutability": "nonpayable",
      "type": "function"
    },
    {
      "inputs": [
        {
          "internalType": "bytes32",
          "name": "role",
          "type": "bytes32"
        },
        {
          "internalType": "address",
          "name": "account",
          "type": "address"
        }
      ],
      "name": "hasRole",
      "outputs": [
        {
          "internalType": "bool",
          "name": "",
          "type": "bool"
        }
      ],
      "stateMutability": "view",
      "type": "function"
    },
    {
      "inputs": [
        {
          "internalType": "string",
          "name": "_uri",
          "type": "string"
        },
        {
          "internalType": "uint256[4]",
          "name": "_price",
          "type": "uint256[4]"
        },
        {
          "internalType": "uint256[4]",
          "name": "_maxSupply",
          "type": "uint256[4]"
        },
        {
          "internalType": "contract ISafeToken",
          "name": "_safeToken",
          "type": "address"
        },
        {
          "internalType": "uint256[2]",
          "name": "_priceDistributionOnMint",
          "type": "uint256[2]"
        },
        {
          "internalType": "uint256",
          "name": "_referralShareForNFTPurchase",
          "type": "uint256"
        },
        {
          "internalType": "uint256[2]",
          "name": "_profitDistribution",
          "type": "uint256[2]"
        }
      ],
      "name": "initialize",
      "outputs": [],
      "stateMutability": "nonpayable",
      "type": "function"
    },
    {
      "inputs": [
        {
          "internalType": "address",
          "name": "account",
          "type": "address"
        },
        {
          "internalType": "address",
          "name": "operator",
          "type": "address"
        }
      ],
      "name": "isApprovedForAll",
      "outputs": [
        {
          "internalType": "bool",
          "name": "",
          "type": "bool"
        }
      ],
      "stateMutability": "view",
      "type": "function"
    },
    {
      "inputs": [
        {
          "internalType": "uint256",
          "name": "",
          "type": "uint256"
        }
      ],
      "name": "maxSupply",
      "outputs": [
        {
          "internalType": "uint256",
          "name": "",
          "type": "uint256"
        }
      ],
      "stateMutability": "view",
      "type": "function"
    },
    {
      "inputs": [
        {
          "internalType": "address",
          "name": "to",
          "type": "address"
        },
        {
          "internalType": "uint256",
          "name": "id",
          "type": "uint256"
        },
        {
          "internalType": "uint256",
          "name": "amount",
          "type": "uint256"
        },
        {
          "internalType": "bytes",
          "name": "data",
          "type": "bytes"
        }
      ],
      "name": "mint",
      "outputs": [],
      "stateMutability": "nonpayable",
      "type": "function"
    },
    {
      "inputs": [
        {
          "internalType": "address",
          "name": "to",
          "type": "address"
        },
        {
          "internalType": "uint256[]",
          "name": "ids",
          "type": "uint256[]"
        },
        {
          "internalType": "uint256[]",
          "name": "amounts",
          "type": "uint256[]"
        },
        {
          "internalType": "bytes",
          "name": "data",
          "type": "bytes"
        }
      ],
      "name": "mintBatch",
      "outputs": [],
      "stateMutability": "nonpayable",
      "type": "function"
    },
    {
      "inputs": [],
      "name": "name",
      "outputs": [
        {
          "internalType": "string",
          "name": "",
          "type": "string"
        }
      ],
      "stateMutability": "view",
      "type": "function"
    },
    {
      "inputs": [],
      "name": "pause",
      "outputs": [],
      "stateMutability": "nonpayable",
      "type": "function"
    },
    {
      "inputs": [],
      "name": "paused",
      "outputs": [
        {
          "internalType": "bool",
          "name": "",
          "type": "bool"
        }
      ],
      "stateMutability": "view",
      "type": "function"
    },
    {
      "inputs": [],
      "name": "presale",
      "outputs": [
        {
          "internalType": "bool",
          "name": "",
          "type": "bool"
        }
      ],
      "stateMutability": "view",
      "type": "function"
    },
    {
      "inputs": [
        {
          "internalType": "uint256",
          "name": "",
          "type": "uint256"
        }
      ],
      "name": "price",
      "outputs": [
        {
          "internalType": "uint256",
          "name": "",
          "type": "uint256"
        }
      ],
      "stateMutability": "view",
      "type": "function"
    },
    {
      "inputs": [
        {
          "internalType": "uint256",
          "name": "",
          "type": "uint256"
        }
      ],
      "name": "priceDistributionOnMint",
      "outputs": [
        {
          "internalType": "uint256",
          "name": "",
          "type": "uint256"
        }
      ],
      "stateMutability": "view",
      "type": "function"
    },
    {
      "inputs": [
        {
          "internalType": "uint256",
          "name": "",
          "type": "uint256"
        }
      ],
      "name": "profitDistribution",
      "outputs": [
        {
          "internalType": "uint256",
          "name": "",
          "type": "uint256"
        }
      ],
      "stateMutability": "view",
      "type": "function"
    },
    {
      "inputs": [],
      "name": "referralShareForNFTPurchase",
      "outputs": [
        {
          "internalType": "uint256",
          "name": "",
          "type": "uint256"
        }
      ],
      "stateMutability": "view",
      "type": "function"
    },
    {
      "inputs": [
        {
          "internalType": "bytes32",
          "name": "role",
          "type": "bytes32"
        },
        {
          "internalType": "address",
          "name": "account",
          "type": "address"
        }
      ],
      "name": "renounceRole",
      "outputs": [],
      "stateMutability": "nonpayable",
      "type": "function"
    },
    {
      "inputs": [
        {
          "internalType": "bytes32",
          "name": "role",
          "type": "bytes32"
        },
        {
          "internalType": "address",
          "name": "account",
          "type": "address"
        }
      ],
      "name": "revokeRole",
      "outputs": [],
      "stateMutability": "nonpayable",
      "type": "function"
    },
    {
      "inputs": [
        {
          "internalType": "address",
          "name": "from",
          "type": "address"
        },
        {
          "internalType": "address",
          "name": "to",
          "type": "address"
        },
        {
          "internalType": "uint256[]",
          "name": "ids",
          "type": "uint256[]"
        },
        {
          "internalType": "uint256[]",
          "name": "amounts",
          "type": "uint256[]"
        },
        {
          "internalType": "bytes",
          "name": "data",
          "type": "bytes"
        }
      ],
      "name": "safeBatchTransferFrom",
      "outputs": [],
      "stateMutability": "nonpayable",
      "type": "function"
    },
    {
      "inputs": [],
      "name": "safeToken",
      "outputs": [
        {
          "internalType": "contract ISafeToken",
          "name": "",
          "type": "address"
        }
      ],
      "stateMutability": "view",
      "type": "function"
    },
    {
      "inputs": [
        {
          "internalType": "address",
          "name": "from",
          "type": "address"
        },
        {
          "internalType": "address",
          "name": "to",
          "type": "address"
        },
        {
          "internalType": "uint256",
          "name": "id",
          "type": "uint256"
        },
        {
          "internalType": "uint256",
          "name": "amount",
          "type": "uint256"
        },
        {
          "internalType": "bytes",
          "name": "data",
          "type": "bytes"
        }
      ],
      "name": "safeTransferFrom",
      "outputs": [],
      "stateMutability": "nonpayable",
      "type": "function"
    },
    {
      "inputs": [],
      "name": "safeVault",
      "outputs": [
        {
          "internalType": "contract ISafeVault",
          "name": "",
          "type": "address"
        }
      ],
      "stateMutability": "view",
      "type": "function"
    },
    {
      "inputs": [
        {
          "internalType": "address",
          "name": "operator",
          "type": "address"
        },
        {
          "internalType": "bool",
          "name": "approved",
          "type": "bool"
        }
      ],
      "name": "setApprovalForAll",
      "outputs": [],
      "stateMutability": "nonpayable",
      "type": "function"
    },
    {
      "inputs": [
        {
          "internalType": "bytes4",
          "name": "interfaceId",
          "type": "bytes4"
        }
      ],
      "name": "supportsInterface",
      "outputs": [
        {
          "internalType": "bool",
          "name": "",
          "type": "bool"
        }
      ],
      "stateMutability": "view",
      "type": "function"
    },
    {
      "inputs": [],
      "name": "togglePresale",
      "outputs": [],
      "stateMutability": "nonpayable",
      "type": "function"
    },
    {
      "inputs": [
        {
          "internalType": "uint256",
          "name": "id",
          "type": "uint256"
        }
      ],
      "name": "totalSupply",
      "outputs": [
        {
          "internalType": "uint256",
          "name": "",
          "type": "uint256"
        }
      ],
      "stateMutability": "view",
      "type": "function"
    },
    {
      "inputs": [],
      "name": "unpause",
      "outputs": [],
      "stateMutability": "nonpayable",
      "type": "function"
    },
    {
      "inputs": [
        {
          "internalType": "uint256",
          "name": "",
          "type": "uint256"
        }
      ],
      "name": "uri",
      "outputs": [
        {
          "internalType": "string",
          "name": "",
          "type": "string"
        }
      ],
      "stateMutability": "view",
      "type": "function"
    },
    {
      "inputs": [],
      "name": "usd",
      "outputs": [
        {
          "internalType": "contract IERC20",
          "name": "",
          "type": "address"
        }
      ],
      "stateMutability": "view",
      "type": "function"
    },
    {
      "inputs": [
        {
          "internalType": "uint256",
          "name": "",
          "type": "uint256"
        }
      ],
      "name": "wallets",
      "outputs": [
        {
          "internalType": "address",
          "name": "",
          "type": "address"
        }
      ],
      "stateMutability": "view",
      "type": "function"
    }
  ],
  "transactionHash": "0xc8ebccb7e2dcdc209d810a7ffb523cd1c4c27a5c5751a5d852726a0098f07ad8",
  "args": [
    "",
    [
      "131250000",
      "262500000",
      "525000000",
      "1050000000"
    ],
    [
      2000,
      1000,
      1000,
      1000
    ],
    "0xF3c420B081422C51533150664Fc8F2fb77E39296",
    [
      70000000,
      20000000
    ],
    5000000,
    [
      25000000,
      20000000
    ]
  ],
  "numDeployments": 3,
  "solcInputHash": "4d8516e80a4a3761aec00633f1b0c064",
  "bytecode": "0x60806040523480156200001157600080fd5b50604051620061883803806200618883398101604081905262000034916200088b565b86806200004181620000b3565b506007805460ff1916905562000059600033620000c5565b620000746000805160206200616883398151915233620000c5565b6200008f6000805160206200614883398151915233620000c5565b506001600955620000a687878787878787620000d1565b5050505050505062000bbd565b6006620000c1828262000a3f565b5050565b620000c18282620004ea565b6000620000eb600080516020620061288339815191525490565b90506001600160a01b0381166200011b576001600160a01b03600080516020620061288339815191525562000131565b336001600160a01b038216146200013157600080fd5b6200013c88620000b3565b62000149600033620000c5565b620001646000805160206200616883398151915233620000c5565b6200017f6000805160206200614883398151915233620000c5565b6200018e600a8860046200064d565b506200019e600e8760046200064d565b50601280546001600160a01b0319166001600160a01b038716179055620001c9601585600262000690565b506019839055620001de601783600262000690565b506012546040805163db7a460560e01b8152815162000254936001600160a01b03169263db7a460592600480820193918290030181865afa15801562000228573d6000803e3d6000fd5b505050506040513d601f19601f820116820180604052508101906200024e919062000b0b565b6200052d565b601260009054906101000a90046001600160a01b03166001600160a01b031663deef94de6040518163ffffffff1660e01b8152600401602060405180830381865afa158015620002a8573d6000803e3d6000fd5b505050506040513d601f19601f82011682018060405250810190620002ce919062000b72565b601380546001600160a01b0319166001600160a01b039283161790556012546040805163d63a6ccd60e01b81529051919092169163d63a6ccd9160048083019260209291908290030181865afa1580156200032d573d6000803e3d6000fd5b505050506040513d601f19601f8201168201806040525081019062000353919062000b72565b601480546001600160a01b0319166001600160a01b0392831690811790915560125460405163095ea7b360e01b81529216600483015260001960248301529063095ea7b3906044016020604051808303816000875af1158015620003bb573d6000803e3d6000fd5b505050506040513d601f19601f82011682018060405250810190620003e1919062000b99565b5060145460135460405163095ea7b360e01b81526001600160a01b039182166004820152600019602482015291169063095ea7b3906044016020604051808303816000875af115801562000439573d6000803e3d6000fd5b505050506040513d601f19601f820116820180604052508101906200045f919062000b99565b5060125460405163095ea7b360e01b81526001600160a01b039091166004820181905260001960248301529063095ea7b3906044016020604051808303816000875af1158015620004b4573d6000803e3d6000fd5b505050506040513d601f19601f82011682018060405250810190620004da919062000b99565b50506000601b5550505050505050565b6200050182826200053b60201b620027091760201c565b6000828152600160209081526040909120620005289183906200278d620005db821b17901c565b505050565b620000c160028281620006c0565b6000828152602081815260408083206001600160a01b038516845290915290205460ff16620000c1576000828152602081815260408083206001600160a01b03851684529091529020805460ff19166001179055620005973390565b6001600160a01b0316816001600160a01b0316837f2f8788117e7eff1d82e926ec794901d17c78024a50270940304540a733656f0d60405160405180910390a45050565b6000620005f2836001600160a01b038416620005fb565b90505b92915050565b60008181526001830160205260408120546200064457508154600181810184556000848152602080822090930184905584548482528286019093526040902091909155620005f5565b506000620005f5565b82600481019282156200067e579160200282015b828111156200067e57825182559160200191906001019062000661565b506200068c9291506200070b565b5090565b82600281019282156200067e57916020028201828111156200067e57825182559160200191906001019062000661565b82600281019282156200067e579160200282015b828111156200067e57825182546001600160a01b0319166001600160a01b03909116178255602090920191600190910190620006d4565b5b808211156200068c57600081556001016200070c565b634e487b7160e01b600052604160045260246000fd5b604080519081016001600160401b03811182821017156200075d576200075d62000722565b60405290565b604051601f8201601f191681016001600160401b03811182821017156200078e576200078e62000722565b604052919050565b600082601f830112620007a857600080fd5b604051608081016001600160401b0381118282101715620007cd57620007cd62000722565b604052806080840185811115620007e357600080fd5b845b81811015620007ff578051835260209283019201620007e5565b509195945050505050565b6001600160a01b03811681146200082057600080fd5b50565b805162000830816200080a565b919050565b600082601f8301126200084757600080fd5b6200085162000738565b8060408401858111156200086457600080fd5b845b818110156200088057805184526020938401930162000866565b509095945050505050565b60008060008060008060006101e0888a031215620008a857600080fd5b87516001600160401b0380821115620008c057600080fd5b818a0191508a601f830112620008d557600080fd5b815181811115620008ea57620008ea62000722565b6020915062000902601f8201601f1916830162000763565b8181528c838386010111156200091757600080fd5b60005b82811015620009375784810184015182820185015283016200091a565b506000838383010152809a505050620009538b828c0162000796565b97505050620009668960a08a0162000796565b945062000977610120890162000823565b935062000989896101408a0162000835565b92506101808801519150620009a3896101a08a0162000835565b905092959891949750929550565b600181811c90821680620009c657607f821691505b602082108103620009e757634e487b7160e01b600052602260045260246000fd5b50919050565b601f8211156200052857600081815260208120601f850160051c8101602086101562000a165750805b601f850160051c820191505b8181101562000a375782815560010162000a22565b505050505050565b81516001600160401b0381111562000a5b5762000a5b62000722565b62000a738162000a6c8454620009b1565b84620009ed565b602080601f83116001811462000aab576000841562000a925750858301515b600019600386901b1c1916600185901b17855562000a37565b600085815260208120601f198616915b8281101562000adc5788860151825594840194600190910190840162000abb565b508582101562000afb5787850151600019600388901b60f8161c191681555b5050505050600190811b01905550565b60006040828403121562000b1e57600080fd5b82601f83011262000b2e57600080fd5b62000b3862000738565b80604084018581111562000b4b57600080fd5b845b818110156200088057805162000b63816200080a565b84526020938401930162000b4d565b60006020828403121562000b8557600080fd5b815162000b92816200080a565b9392505050565b60006020828403121562000bac57600080fd5b8151801515811462000b9257600080fd5b61555b8062000bcd6000396000f3fe608060405234801561001057600080fd5b50600436106103ce5760003560e01c80636e748f97116101ff578063ced79ce01161011a578063df71da76116100ad578063f0b2df891161007c578063f0b2df89146108a0578063f242432a146108b3578063f5298aca146108c6578063fdea8e0b146108d957600080fd5b8063df71da7614610822578063e63ab1e914610835578063e985e9c51461085c578063f03f1e511461089857600080fd5b8063d5391393116100e9578063d5391393146107c2578063d547741f146107e9578063d63a6ccd146107fc578063deef94de1461080f57600080fd5b8063ced79ce014610763578063d0d5a1ba14610794578063d36122b8146107a7578063d36dfac8146107af57600080fd5b80639010d07c11610192578063a22cb46511610161578063a22cb4651461070a578063bd85b0391461071d578063ca15c8731461073d578063ca7b24471461075057600080fd5b80639010d07c146106d457806391d14854146106e7578063a1f5c239146106fa578063a217fddf1461070257600080fd5b80637e93391a116101ce5780637e93391a146106a95780638456cb59146106b1578063869f7594146106b95780638d3bd55b146106cc57600080fd5b80636e748f9714610672578063731133e91461067a578063780069e01461068d5780637ad71f721461069657600080fd5b80632eb2c2d6116102ef5780634e1273f411610282578063592fa65e11610251578063592fa65e1461062e5780635c975abb146106415780635e95b4fe1461064c5780636b20c4541461065f57600080fd5b80634e1273f4146105de5780634f558e79146105f157806351ba5b441461061357806353f7ffd21461061b57600080fd5b806337f1e7f2116102be57806337f1e7f2146105855780633f4ba83a14610598578063418f7c51146105a05780634b3fd05a146105b357600080fd5b80632eb2c2d6146105445780632f2ff15d14610557578063343937431461056a57806336568abe1461057257600080fd5b8063162302571161036757806323f77fa91161033657806323f77fa9146104f3578063248a9ca31461050657806326a49e37146105295780632c13f08c1461053c57600080fd5b806316230257146104b0578063168affdf146104b85780631a5e85e5146104d85780631f7fdffa146104e057600080fd5b806306fdde03116103a357806306fdde03146104385780630e30f66e146104735780630e89341c14610488578063104304f31461049b57600080fd5b8062a13c4c146103d3578062fdd58e146103ef57806301ffc9a71461040257806304ca4c0714610425575b600080fd5b6103dc60195481565b6040519081526020015b60405180910390f35b6103dc6103fd366004614438565b6108e6565b61041561041036600461447a565b610981565b60405190151581526020016103e6565b6103dc610433366004614497565b61098c565b6104666040518060400160405280600f81526020016e14d8599948165a595b191cc8139195608a1b81525081565b6040516103e69190614509565b61048661048136600461467c565b6109b1565b005b610466610496366004614734565b610de6565b6104a3610e7a565b6040516103e69190614788565b6103dc610ef7565b6103dc6104c6366004614734565b601c6020526000908152604090205481565b6103dc610f8d565b6104866104ee36600461484f565b610fc8565b6104a36105013660046148e9565b611020565b6103dc610514366004614734565b60009081526020819052604090206001015490565b6103dc610537366004614734565b611093565b6104a36110aa565b610486610552366004614906565b611121565b6104866105653660046149b3565b61116d565b610486611197565b6104866105803660046149b3565b61121a565b6103dc6105933660046149f7565b611298565b6104866112c6565b6103dc6105ae366004614a12565b61136c565b6012546105c6906001600160a01b031681565b6040516001600160a01b0390911681526020016103e6565b6104a36105ec366004614a50565b611439565b6104156105ff366004614734565b600090815260086020526040902054151590565b6103dc611562565b610486610629366004614b1c565b6115e5565b6103dc61063c366004614497565b6116e9565b60075460ff16610415565b6103dc61065a366004614497565b611704565b61048661066d366004614b38565b611720565b6103dc600481565b610486610688366004614bad565b611763565b6103dc601b5481565b6105c66106a4366004614734565b6117b5565b6103dc6117d5565b610486611973565b6103dc6106c7366004614734565b611a17565b6103dc600281565b6105c66106e2366004614497565b611a27565b6104156106f53660046149b3565b611a46565b6104a3611a6f565b6103dc600081565b610486610718366004614c11565b611a81565b6103dc61072b366004614734565b60009081526008602052604090205490565b6103dc61074b366004614734565b611a8c565b6103dc61075e366004614734565b611aa3565b6103dc610771366004614c3f565b601f60209081526000938452604080852082529284528284209052825290205481565b6104866107a2366004614c78565b611ab3565b61048661212f565b6104866107bd366004614734565b61219a565b6103dc7f9f2df0fed2c77648de5860a4cc508cd0818c85b8b8a1ab4ceeef8d981c8956a681565b6104866107f73660046149b3565b61253c565b6014546105c6906001600160a01b031681565b6013546105c6906001600160a01b031681565b6103dc610830366004614734565b612561565b6103dc7f65d7a28e3265b37a6474929f336521b332c1681b933f6cb9f3376673440d862a81565b61041561086a366004614cad565b6001600160a01b03918216600090815260056020908152604080832093909416825291909152205460ff1690565b6103dc612571565b6103dc6108ae3660046149f7565b6125d9565b6104866108c1366004614cdb565b612681565b6104866108d4366004614d43565b6126c6565b601a546104159060ff1681565b60006001600160a01b0383166109565760405162461bcd60e51b815260206004820152602a60248201527f455243313135353a2061646472657373207a65726f206973206e6f742061207660448201526930b634b21037bbb732b960b11b60648201526084015b60405180910390fd5b5060008181526004602090815260408083206001600160a01b03861684529091529020545b92915050565b600061097b826127a2565b601d60205281600052604060002081600481106109a857600080fd5b01549150829050565b60006109db7fb53127684a568b3173ae13b9f8a6016e243e63b6e8ee1178d6a717850b5d61035490565b90506001600160a01b038116610a1a576001600160a01b037fb53127684a568b3173ae13b9f8a6016e243e63b6e8ee1178d6a717850b5d610355610a2f565b336001600160a01b03821614610a2f57600080fd5b610a38886127ad565b610a436000336127b9565b610a6d7f9f2df0fed2c77648de5860a4cc508cd0818c85b8b8a1ab4ceeef8d981c8956a6336127b9565b610a977f65d7a28e3265b37a6474929f336521b332c1681b933f6cb9f3376673440d862a336127b9565b610aa4600a88600461435b565b50610ab2600e87600461435b565b50601280546001600160a01b0319166001600160a01b038716179055610adb6015856002614399565b506019839055610aee6017836002614399565b506012546040805163db7a460560e01b81528151610b5f936001600160a01b03169263db7a460592600480820193918290030181865afa158015610b36573d6000803e3d6000fd5b505050506040513d601f19601f82011682018060405250810190610b5a9190614d78565b6127c3565b601260009054906101000a90046001600160a01b03166001600160a01b031663deef94de6040518163ffffffff1660e01b8152600401602060405180830381865afa158015610bb2573d6000803e3d6000fd5b505050506040513d601f19601f82011682018060405250810190610bd69190614dda565b601380546001600160a01b0319166001600160a01b039283161790556012546040805163d63a6ccd60e01b81529051919092169163d63a6ccd9160048083019260209291908290030181865afa158015610c34573d6000803e3d6000fd5b505050506040513d601f19601f82011682018060405250810190610c589190614dda565b601480546001600160a01b0319166001600160a01b0392831690811790915560125460405163095ea7b360e01b81529216600483015260001960248301529063095ea7b3906044016020604051808303816000875af1158015610cbf573d6000803e3d6000fd5b505050506040513d601f19601f82011682018060405250810190610ce39190614df7565b5060145460135460405163095ea7b360e01b81526001600160a01b039182166004820152600019602482015291169063095ea7b3906044016020604051808303816000875af1158015610d3a573d6000803e3d6000fd5b505050506040513d601f19601f82011682018060405250810190610d5e9190614df7565b5060125460405163095ea7b360e01b81526001600160a01b039091166004820181905260001960248301529063095ea7b3906044016020604051808303816000875af1158015610db2573d6000803e3d6000fd5b505050506040513d601f19601f82011682018060405250810190610dd69190614df7565b50506000601b5550505050505050565b606060068054610df590614e14565b80601f0160208091040260200160405190810160405280929190818152602001828054610e2190614e14565b8015610e6e5780601f10610e4357610100808354040283529160200191610e6e565b820191906000526020600020905b815481529060010190602001808311610e5157829003601f168201915b50505050509050919050565b60408051600480825260a08201909252606091600091906020820160808036833701905050905060005b6004811015610ef157600a8160048110610ec057610ec0614e48565b0154828281518110610ed457610ed4614e48565b602090810291909101015280610ee981614e74565b915050610ea4565b50919050565b600080805b6004811015610ef15760005b601b548111610f7a57600081815260208052604090208260048110610f2f57610f2f614e48565b01546000828152601d602052604090208360048110610f5057610f50614e48565b0154610f5c9190614e8d565b610f669084614ea0565b925080610f7281614e74565b915050610f08565b5080610f8581614e74565b915050610efc565b600080805b6004811015610ef157600081815260086020526040902054610fb49083614ea0565b915080610fc081614e74565b915050610f92565b610ff27f9f2df0fed2c77648de5860a4cc508cd0818c85b8b8a1ab4ceeef8d981c8956a633611a46565b61100e5760405162461bcd60e51b815260040161094d90614eb3565b61101a848484846127cf565b50505050565b60408051600480825260a08201909252606091600091906020820160808036833701905050905060005b600481101561108c5761105d84826108e6565b82828151811061106f5761106f614e48565b60209081029190910101528061108481614e74565b91505061104a565b5092915050565b600a81600481106110a357600080fd5b0154905081565b60408051600480825260a08201909252606091600091906020820160808036833701905050905060005b6004811015610ef1576110f28160038111156108ae576108ae614f10565b82828151811061110457611104614e48565b60209081029190910101528061111981614e74565b9150506110d4565b6001600160a01b03851633148061113d575061113d853361086a565b6111595760405162461bcd60e51b815260040161094d90614f26565b6111668585858585612939565b5050505050565b60008281526020819052604090206001015461118881612af4565b6111928383612afe565b505050565b6111a2600033611a46565b6112065760405162461bcd60e51b815260206004820152602f60248201527f455243313135355072657365744d696e7465725061757365723a206d7573742060448201526e686176652061646d696e20726f6c6560881b606482015260840161094d565b601a805460ff19811660ff90911615179055565b6001600160a01b038116331461128a5760405162461bcd60e51b815260206004820152602f60248201527f416363657373436f6e74726f6c3a2063616e206f6e6c792072656e6f756e636560448201526e103937b632b9903337b91039b2b63360891b606482015260840161094d565b6112948282612b20565b5050565b6000600a8260038111156112ae576112ae614f10565b600481106112be576112be614e48565b015492915050565b6112f07f65d7a28e3265b37a6474929f336521b332c1681b933f6cb9f3376673440d862a33611a46565b6113625760405162461bcd60e51b815260206004820152603b60248201527f455243313135355072657365744d696e7465725061757365723a206d7573742060448201527f686176652070617573657220726f6c6520746f20756e70617573650000000000606482015260840161094d565b61136a612b42565b565b60008083600381111561138157611381614f10565b601b546000908152601d602052604081209192509082600481106113a7576113a7614e48565b015460008381526008602052604081205491925090156113f3576000838152600860205260409020546113da88856108e6565b6113e49084614f74565b6113ee9190614f8b565b6113f6565b60005b6000868152601f6020908152604080832087845282528083206001600160a01b038c16845290915290205490915061142e9082614e8d565b979650505050505050565b6060815183511461149e5760405162461bcd60e51b815260206004820152602960248201527f455243313135353a206163636f756e747320616e6420696473206c656e677468604482015268040dad2e6dac2e8c6d60bb1b606482015260840161094d565b600083516001600160401b038111156114b9576114b961451c565b6040519080825280602002602001820160405280156114e2578160200160208202803683370190505b50905060005b845181101561155a5761152d85828151811061150657611506614e48565b602002602001015185838151811061152057611520614e48565b60200260200101516108e6565b82828151811061153f5761153f614e48565b602090810291909101015261155381614e74565b90506114e8565b509392505050565b60003381805b60048110156115b857600a816004811061158457611584614e48565b015461159084836108e6565b61159a9190614f74565b6115a49083614ea0565b9150806115b081614e74565b915050611568565b5060006115c36117d5565b905080156115da576115d58183614f8b565b6115dd565b60005b935050505090565b6115ed612b94565b3360006115fb82858561136c565b60145460405163a9059cbb60e01b81526001600160a01b0385811660048301526024820184905292935091169063a9059cbb906044016020604051808303816000875af1158015611650573d6000803e3d6000fd5b505050506040513d601f19601f820116820180604052508101906116749190614df7565b506000838152601f60205260408120829186600381111561169757611697614f10565b81526020019081526020016000206000846001600160a01b03166001600160a01b0316815260200190815260200160002060008282546116d79190614ea0565b90915550506001600955506112949050565b6020805281600052604060002081600481106109a857600080fd5b601e60205281600052604060002081600481106109a857600080fd5b6001600160a01b03831633148061173c575061173c833361086a565b6117585760405162461bcd60e51b815260040161094d90614f26565b611192838383612bed565b61178d7f9f2df0fed2c77648de5860a4cc508cd0818c85b8b8a1ab4ceeef8d981c8956a633611a46565b6117a95760405162461bcd60e51b815260040161094d90614eb3565b61101a84848484612d96565b600281600281106117c557600080fd5b01546001600160a01b0316905081565b6000620f4240601260009054906101000a90046001600160a01b03166001600160a01b031663a035b1fe6040518163ffffffff1660e01b8152600401602060405180830381865afa15801561182e573d6000803e3d6000fd5b505050506040513d601f19601f820116820180604052508101906118529190614fad565b6012546001600160a01b03166370a0823160026000015460405160e083901b6001600160e01b03191681526001600160a01b039091166004820152602401602060405180830381865afa1580156118ad573d6000803e3d6000fd5b505050506040513d601f19601f820116820180604052508101906118d19190614fad565b6118db9190614f74565b6118e59190614f8b565b6014546001600160a01b03166370a0823160026000015460405160e083901b6001600160e01b03191681526001600160a01b039091166004820152602401602060405180830381865afa158015611940573d6000803e3d6000fd5b505050506040513d601f19601f820116820180604052508101906119649190614fad565b61196e9190614ea0565b905090565b61199d7f65d7a28e3265b37a6474929f336521b332c1681b933f6cb9f3376673440d862a33611a46565b611a0f5760405162461bcd60e51b815260206004820152603960248201527f455243313135355072657365744d696e7465725061757365723a206d7573742060448201527f686176652070617573657220726f6c6520746f20706175736500000000000000606482015260840161094d565b61136a612e90565b600e81600481106110a357600080fd5b6000828152600160205260408120611a3f9083612ecd565b9392505050565b6000918252602082815260408084206001600160a01b0393909316845291905290205460ff1690565b606033611a7b81611020565b91505090565b611294338383612ed9565b600081815260016020526040812061097b90612fb9565b601781600281106110a357600080fd5b611abb612b94565b611ae66040518060400160405280600a815260200169189d5e5a5b99c813919560b21b815250612fc3565b60008211611b5c5760405162461bcd60e51b815260206004820152603860248201527f455243313135355072657365744d696e7465725061757365723a20616d6f756e60448201527f74206d7573742062652067726561746572207468616e20300000000000000000606482015260840161094d565b6000600a846003811115611b7257611b72614f10565b60048110611b8257611b82614e48565b015411611bf75760405162461bcd60e51b815260206004820152603c60248201527f455243313135355072657365744d696e7465725061757365723a20746965722060448201527f7072696365206d7573742062652067726561746572207468616e203000000000606482015260840161094d565b6001600160a01b0381161580159080611c215750808015611c2157506001600160a01b0382163314155b611c7c5760405162461bcd60e51b815260206004820152602660248201527f526566657272616c206d75737420626520646966666572656e742066726f6d2060448201526539b2b73232b960d11b606482015260840161094d565b6000846003811115611c9057611c90614f10565b9050600084600a876003811115611ca957611ca9614f10565b60048110611cb957611cb9614e48565b0154611cc59190614f74565b9050611cfe604051806040016040528060158152602001747472616e7366657272696e6720757364507269636560581b81525082613006565b6014546001600160a01b03166323b872dd336040516001600160e01b031960e084901b1681526001600160a01b039091166004820152306024820152604481018490526064016020604051808303816000875af1158015611d63573d6000803e3d6000fd5b505050506040513d601f19601f82011682018060405250810190611d879190614df7565b50601a5460ff16611fa8576000611dae82601586611da657600061304b565b60195461304b565b9050611def6040518060400160405280601a81526020017f7472616e7366657272696e6720746f53656c6c466f725361666500000000000081525082613006565b60125460405163f7e0ba5f60e01b8152600481018390526000916001600160a01b03169063f7e0ba5f906024016020604051808303816000875af1158015611e3b573d6000803e3d6000fd5b505050506040513d601f19601f82011682018060405250810190611e5f9190614fad565b9050611e9c60405180604001604052806019815260200178039b0b332a0b6b7bab73a103932ba3ab93732b210333937b69603d1b81525082613006565b601254600090611eb7906001600160a01b03168360156130ba565b9050611ef86040518060400160405280601f81526020017f7472616e7366657272656420746f2070726f746f636f6c2077616c6c6574730081525082613006565b8515611f61576000611f23601260009054906101000a90046001600160a01b0316848a60195461336f565b9050611f536040518060400160405280600c81526020016b726566657272616c2066656560a01b81525082613006565b611f5d8183614ea0565b9150505b611fa06040518060400160405280601c81526020017f746f74616c207472616e7366657272656420746f2077616c6c6574730000000081525082613006565b505050612032565b600083611fb6576000611fd3565b601454601954611fd3916001600160a01b0316908490889061336f565b905060008415611fe457600061200f565b60145461200f906001600160a01b0316846002600001546019546001600160a01b039091169061336f565b60145490915060009061202d906001600160a01b03168560156130ba565b505050505b6014546040516370a0823160e01b81523060048201526000916001600160a01b0316906370a0823190602401602060405180830381865afa15801561207b573d6000803e3d6000fd5b505050506040513d601f19601f8201168201806040525081019061209f9190614fad565b905080156121065760135460405163b6b55f2560e01b8152600481018390526001600160a01b039091169063b6b55f2590602401600060405180830381600087803b1580156120ed57600080fd5b505af1158015612101573d6000803e3d6000fd5b505050505b61212133848860405180602001604052806000815250612d96565b505050506111926001600955565b612137612b94565b60005b600481101561218f5760005b601b54811161217c5761216a82600381111561216457612164614f10565b826115e5565b8061217481614e74565b915050612146565b508061218781614e74565b91505061213a565b5061136a6001600955565b6121a2612b94565b6121d9604051806040016040528060158152602001747472616e7366657272696e6720757364507269636560581b81525082613006565b6014546001600160a01b03166323b872dd336040516001600160e01b031960e084901b1681526001600160a01b039091166004820152306024820152604481018490526064016020604051808303816000875af115801561223e573d6000803e3d6000fd5b505050506040513d601f19601f820116820180604052508101906122629190614df7565b506000612270600283614f8b565b9050600061228a6122818385614e8d565b6017600061304b565b90506122cb6040518060400160405280601a81526020017f7472616e7366657272696e6720746f53656c6c466f725361666500000000000081525082613006565b60125460405163f7e0ba5f60e01b8152600481018390526000916001600160a01b03169063f7e0ba5f906024016020604051808303816000875af1158015612317573d6000803e3d6000fd5b505050506040513d601f19601f8201168201806040525081019061233b9190614fad565b905061237860405180604001604052806019815260200178039b0b332a0b6b7bab73a103932ba3ab93732b210333937b69603d1b81525082613006565b601254600090612393906001600160a01b03168360176130ba565b601b805491925060006123a583614e74565b9091555050601b546000908152601c602052604081208290556123c6610f8d565b905060005b600481101561245457600081815260086020908152604080832054601b548452601e9092529091208190836004811061240657612406614e48565b0155826124138289614f74565b61241d9190614f8b565b601b546000908152601d60205260409020836004811061243f5761243f614e48565b0155508061244c81614e74565b9150506123cb565b506014546040516370a0823160e01b81523060048201526000916001600160a01b0316906370a0823190602401602060405180830381865afa15801561249e573d6000803e3d6000fd5b505050506040513d601f19601f820116820180604052508101906124c29190614fad565b905080156125295760135460405163b6b55f2560e01b8152600481018390526001600160a01b039091169063b6b55f2590602401600060405180830381600087803b15801561251057600080fd5b505af1158015612524573d6000803e3d6000fd5b505050505b5050505050506125396001600955565b50565b60008281526020819052604090206001015461255781612af4565b6111928383612b20565b601581600281106110a357600080fd5b60003381805b600481101561108c5760005b601b5481116125c6576125a8848360038111156125a2576125a2614f10565b8361136c565b6125b29084614ea0565b9250806125be81614e74565b915050612583565b50806125d181614e74565b915050612577565b60006125f082600381111561072b5761072b614f10565b1561260f5761260a82600381111561072b5761072b614f10565b612612565b60015b601b546000908152601d6020526040902083600381111561263557612635614f10565b6004811061264557612645614e48565b01546126519190614f8b565b600a83600381111561266557612665614f10565b6004811061267557612675614e48565b015461097b9190614ea0565b6001600160a01b03851633148061269d575061269d853361086a565b6126b95760405162461bcd60e51b815260040161094d90614f26565b6111668585858585613655565b6001600160a01b0383163314806126e257506126e2833361086a565b6126fe5760405162461bcd60e51b815260040161094d90614f26565b61119283838361379f565b6127138282611a46565b611294576000828152602081815260408083206001600160a01b03851684529091529020805460ff191660011790556127493390565b6001600160a01b0316816001600160a01b0316837f2f8788117e7eff1d82e926ec794901d17c78024a50270940304540a733656f0d60405160405180910390a45050565b6000611a3f836001600160a01b0384166138c5565b600061097b82613914565b6006611294828261500c565b6112948282612afe565b611294600282816143c6565b6001600160a01b0384166127f55760405162461bcd60e51b815260040161094d906150cb565b81518351146128165760405162461bcd60e51b815260040161094d9061510c565b3361282681600087878787613954565b60005b84518110156128c25783818151811061284457612844614e48565b60200260200101516004600087848151811061286257612862614e48565b602002602001015181526020019081526020016000206000886001600160a01b03166001600160a01b0316815260200190815260200160002060008282546128aa9190614ea0565b909155508190506128ba81614e74565b915050612829565b50846001600160a01b031660006001600160a01b0316826001600160a01b03167f4a39dc06d4c0dbc64b70af90fd698a233a518aa5d07e595d983b8c0526c8f7fb8787604051612913929190615154565b60405180910390a461292a81600087878787613962565b61116681600087878787613a14565b815183511461295a5760405162461bcd60e51b815260040161094d9061510c565b6001600160a01b0384166129805760405162461bcd60e51b815260040161094d90615179565b3361298f818787878787613954565b60005b8451811015612a785760008582815181106129af576129af614e48565b6020026020010151905060008583815181106129cd576129cd614e48565b60209081029190910181015160008481526004835260408082206001600160a01b038e168352909352919091205490915081811015612a1e5760405162461bcd60e51b815260040161094d906151be565b60008381526004602090815260408083206001600160a01b038e8116855292528083208585039055908b16825281208054849290612a5d908490614ea0565b9250508190555050505080612a7190614e74565b9050612992565b50846001600160a01b0316866001600160a01b0316826001600160a01b03167f4a39dc06d4c0dbc64b70af90fd698a233a518aa5d07e595d983b8c0526c8f7fb8787604051612ac8929190615154565b60405180910390a4612ade818787878787613962565b612aec818787878787613a14565b505050505050565b6125398133613b6f565b612b088282612709565b6000828152600160205260409020611192908261278d565b612b2a8282613bc8565b60008281526001602052604090206111929082613c2d565b612b4a613c42565b6007805460ff191690557f5db9ee0a495bf2e6ff9c91a7834c1ba4fdd244a5e8aa4e537bd38aeae4b073aa335b6040516001600160a01b03909116815260200160405180910390a1565b600260095403612be65760405162461bcd60e51b815260206004820152601f60248201527f5265656e7472616e637947756172643a207265656e7472616e742063616c6c00604482015260640161094d565b6002600955565b6001600160a01b038316612c135760405162461bcd60e51b815260040161094d90615208565b8051825114612c345760405162461bcd60e51b815260040161094d9061510c565b6000339050612c5781856000868660405180602001604052806000815250613954565b60005b8351811015612d1f576000848281518110612c7757612c77614e48565b602002602001015190506000848381518110612c9557612c95614e48565b60209081029190910181015160008481526004835260408082206001600160a01b038c168352909352919091205490915081811015612ce65760405162461bcd60e51b815260040161094d9061524b565b60009283526004602090815260408085206001600160a01b038b1686529091529092209103905580612d1781614e74565b915050612c5a565b5060006001600160a01b0316846001600160a01b0316826001600160a01b03167f4a39dc06d4c0dbc64b70af90fd698a233a518aa5d07e595d983b8c0526c8f7fb8686604051612d70929190615154565b60405180910390a461101a81856000868660405180602001604052806000815250613962565b6001600160a01b038416612dbc5760405162461bcd60e51b815260040161094d906150cb565b336000612dc885613c8b565b90506000612dd585613c8b565b9050612de683600089858589613954565b60008681526004602090815260408083206001600160a01b038b16845290915281208054879290612e18908490614ea0565b909155505060408051878152602081018790526001600160a01b03808a1692600092918716917fc3d58168c5ae7397731d063d5bbf3d657854427343f4c083240f7aacaa2d0f62910160405180910390a4612e7883600089858589613962565b612e8783600089898989613cd6565b50505050505050565b612e98613d91565b6007805460ff191660011790557f62e78cea01bee320cd4e420270b5ea74000d11b0c9f74754ebdbfc544b05a258612b773390565b6000611a3f8383613dd7565b816001600160a01b0316836001600160a01b031603612f4c5760405162461bcd60e51b815260206004820152602960248201527f455243313135353a2073657474696e6720617070726f76616c20737461747573604482015268103337b91039b2b63360b91b606482015260840161094d565b6001600160a01b03838116600081815260056020908152604080832094871680845294825291829020805460ff191686151590811790915591519182527f17307eab39ab6107e8899845ad3d59bd9653f200f220920489ca2b5937696c31910160405180910390a3505050565b600061097b825490565b61253981604051602401612fd79190614509565b60408051601f198184030181529190526020810180516001600160e01b031663104c13eb60e21b179052613e01565b611294828260405160240161301c92919061528f565b60408051601f198184030181529190526020810180516001600160e01b0316632d839cb360e21b179052613e01565b600080805b600281101561308b5784816002811061306b5761306b614e48565b01546130779083614ea0565b91508061308381614e74565b915050613050565b506130968382614ea0565b90506305f5e1006130a78287614f74565b6130b19190614f8b565b95945050505050565b60006130fa6040518060400160405280601781526020017f2d2d205f64697374726962757465207374617274202d2d000000000000000000815250612fc3565b61312b6040518060400160405280600f81526020016e446973747269627574696e6720257360881b81525084613006565b604080518082018252600a81526962616c616e636520257360b01b602082015290516370a0823160e01b81523060048201526131bc91906001600160a01b038716906370a0823190602401602060405180830381865afa158015613193573d6000803e3d6000fd5b505050506040513d601f19601f820116820180604052508101906131b79190614fad565b613006565b6000805b60028110156133005760006305f5e1008583600281106131e2576131e2614e48565b01546131ee9088614f74565b6131f89190614f8b565b905061324a6040518060400160405280601081526020016f73656e64696e6720257320746f20257360801b815250826002856002811061323a5761323a614e48565b01546001600160a01b0316613e22565b866001600160a01b031663a9059cbb6002846002811061326c5761326c614e48565b015460405160e083901b6001600160e01b03191681526001600160a01b039091166004820152602481018490526044016020604051808303816000875af11580156132bb573d6000803e3d6000fd5b505050506040513d601f19601f820116820180604052508101906132df9190614df7565b506132ea8184614ea0565b92505080806132f890614e74565b9150506131c0565b506133316040518060400160405280600e81526020016d446973747269627574656420257360901b81525082613006565b613367604051806040016040528060158152602001742d2d205f6469737472696275746520656e64202d2d60581b815250612fc3565b949350505050565b60006133af6040518060400160405280601c81526020017f2d2d205f7472616e7366657250657263656e74207374617274202d2d00000000815250612fc3565b6040516370a0823160e01b81523060048201526000906001600160a01b038716906370a0823190602401602060405180830381865afa1580156133f6573d6000803e3d6000fd5b505050506040513d601f19601f8201168201806040525081019061341a9190614fad565b905061345b6040518060400160405280601881526020017f7472616e7366657272696e67207368617265206f66202573000000000000000081525086613006565b6134876040518060400160405280600a81526020016962616c616e636520257360b01b81525082613006565b60006305f5e1006134988588614f74565b6134a29190614f8b565b90506134db60405180604001604052806015815260200174616d6f756e7420746f207472616e7366657220257360581b81525082613006565b808210156135365760405162461bcd60e51b815260206004820152602260248201527f4e6f7420656e6f7567682062616c616e6365206f6e2074686520636f6e74726160448201526118dd60f21b606482015260840161094d565b6135696040518060400160405280601081526020016f73656e64696e6720257320746f20257360801b8152508287613e22565b60405163a9059cbb60e01b81526001600160a01b0386811660048301526024820183905288169063a9059cbb906044016020604051808303816000875af11580156135b8573d6000803e3d6000fd5b505050506040513d601f19601f820116820180604052508101906135dc9190614df7565b5061360d6040518060400160405280600e81526020016d446973747269627574656420257360901b81525082613006565b61364b6040518060400160405280601a81526020017f2d2d205f7472616e7366657250657263656e7420656e64202d2d000000000000815250612fc3565b9695505050505050565b6001600160a01b03841661367b5760405162461bcd60e51b815260040161094d90615179565b33600061368785613c8b565b9050600061369485613c8b565b90506136a4838989858589613954565b60008681526004602090815260408083206001600160a01b038c168452909152902054858110156136e75760405162461bcd60e51b815260040161094d906151be565b60008781526004602090815260408083206001600160a01b038d8116855292528083208985039055908a16825281208054889290613726908490614ea0565b909155505060408051888152602081018890526001600160a01b03808b16928c821692918816917fc3d58168c5ae7397731d063d5bbf3d657854427343f4c083240f7aacaa2d0f62910160405180910390a4613786848a8a86868a613962565b613794848a8a8a8a8a613cd6565b505050505050505050565b6001600160a01b0383166137c55760405162461bcd60e51b815260040161094d90615208565b3360006137d184613c8b565b905060006137de84613c8b565b90506137fe83876000858560405180602001604052806000815250613954565b60008581526004602090815260408083206001600160a01b038a168452909152902054848110156138415760405162461bcd60e51b815260040161094d9061524b565b60008681526004602090815260408083206001600160a01b038b81168086529184528285208a8703905582518b81529384018a90529092908816917fc3d58168c5ae7397731d063d5bbf3d657854427343f4c083240f7aacaa2d0f62910160405180910390a4612e8784886000868660405180602001604052806000815250613962565b600081815260018301602052604081205461390c5750815460018181018455600084815260208082209093018490558454848252828601909352604090209190915561097b565b50600061097b565b60006001600160e01b03198216636cdb3d1360e11b148061394557506001600160e01b031982166303a24d0760e21b145b8061097b575061097b82613e69565b612aec868686868686613e8e565b600e8360008151811061397757613977614e48565b60200260200101516004811061398f5761398f614e48565b01546139c1846000815181106139a7576139a7614e48565b602002602001015160009081526008602052604090205490565b1115613a0f5760405162461bcd60e51b815260206004820152601b60248201527f536166654e46543a206d617820737570706c7920726561636865640000000000604482015260640161094d565b612aec565b6001600160a01b0384163b15612aec5760405163bc197c8160e01b81526001600160a01b0385169063bc197c8190613a5890899089908890889088906004016152b1565b6020604051808303816000875af1925050508015613a93575060408051601f3d908101601f19168201909252613a909181019061530f565b60015b613b3f57613a9f61532c565b806308c379a003613ad85750613ab3615348565b80613abe5750613ada565b8060405162461bcd60e51b815260040161094d9190614509565b505b60405162461bcd60e51b815260206004820152603460248201527f455243313135353a207472616e7366657220746f206e6f6e2d455243313135356044820152732932b1b2b4bb32b91034b6b83632b6b2b73a32b960611b606482015260840161094d565b6001600160e01b0319811663bc197c8160e01b14612e875760405162461bcd60e51b815260040161094d906153d1565b613b798282611a46565b61129457613b8681614015565b613b91836020614027565b604051602001613ba2929190615419565b60408051601f198184030181529082905262461bcd60e51b825261094d91600401614509565b613bd28282611a46565b15611294576000828152602081815260408083206001600160a01b0385168085529252808320805460ff1916905551339285917ff6391f5c32d9c69d2a47ea670b442974b53935d1edc7fd64eb21e047a839171b9190a45050565b6000611a3f836001600160a01b0384166141c2565b60075460ff1661136a5760405162461bcd60e51b815260206004820152601460248201527314185d5cd8589b194e881b9bdd081c185d5cd95960621b604482015260640161094d565b60408051600180825281830190925260609160009190602080830190803683370190505090508281600081518110613cc557613cc5614e48565b602090810291909101015292915050565b6001600160a01b0384163b15612aec5760405163f23a6e6160e01b81526001600160a01b0385169063f23a6e6190613d1a908990899088908890889060040161548e565b6020604051808303816000875af1925050508015613d55575060408051601f3d908101601f19168201909252613d529181019061530f565b60015b613d6157613a9f61532c565b6001600160e01b0319811663f23a6e6160e01b14612e875760405162461bcd60e51b815260040161094d906153d1565b60075460ff161561136a5760405162461bcd60e51b815260206004820152601060248201526f14185d5cd8589b194e881c185d5cd95960821b604482015260640161094d565b6000826000018281548110613dee57613dee614e48565b9060005260206000200154905092915050565b80516a636f6e736f6c652e6c6f67602083016000808483855afa5050505050565b611192838383604051602401613e3a939291906154c6565b60408051601f198184030181529190526020810180516001600160e01b031663038fd88960e31b179052613e01565b60006001600160e01b03198216635a05180f60e01b148061097b575061097b826142b5565b613e9c8686868686866142ea565b6001600160a01b038516613f235760005b8351811015613f2157828181518110613ec857613ec8614e48565b602002602001015160086000868481518110613ee657613ee6614e48565b602002602001015181526020019081526020016000206000828254613f0b9190614ea0565b90915550613f1a905081614e74565b9050613ead565b505b6001600160a01b038416612aec5760005b8351811015612e87576000848281518110613f5157613f51614e48565b602002602001015190506000848381518110613f6f57613f6f614e48565b6020026020010151905060006008600084815260200190815260200160002054905081811015613ff25760405162461bcd60e51b815260206004820152602860248201527f455243313135353a206275726e20616d6f756e74206578636565647320746f74604482015267616c537570706c7960c01b606482015260840161094d565b6000928352600860205260409092209103905561400e81614e74565b9050613f34565b606061097b6001600160a01b03831660145b60606000614036836002614f74565b614041906002614ea0565b6001600160401b038111156140585761405861451c565b6040519080825280601f01601f191660200182016040528015614082576020820181803683370190505b509050600360fc1b8160008151811061409d5761409d614e48565b60200101906001600160f81b031916908160001a905350600f60fb1b816001815181106140cc576140cc614e48565b60200101906001600160f81b031916908160001a90535060006140f0846002614f74565b6140fb906001614ea0565b90505b6001811115614173576f181899199a1a9b1b9c1cb0b131b232b360811b85600f166010811061412f5761412f614e48565b1a60f81b82828151811061414557614145614e48565b60200101906001600160f81b031916908160001a90535060049490941c9361416c816154f8565b90506140fe565b508315611a3f5760405162461bcd60e51b815260206004820181905260248201527f537472696e67733a20686578206c656e67746820696e73756666696369656e74604482015260640161094d565b600081815260018301602052604081205480156142ab5760006141e6600183614e8d565b85549091506000906141fa90600190614e8d565b905081811461425f57600086600001828154811061421a5761421a614e48565b906000526020600020015490508087600001848154811061423d5761423d614e48565b6000918252602080832090910192909255918252600188019052604090208390555b85548690806142705761427061550f565b60019003818190600052602060002001600090559055856001016000868152602001908152602001600020600090556001935050505061097b565b600091505061097b565b60006001600160e01b03198216637965db0b60e01b148061097b57506301ffc9a760e01b6001600160e01b031983161461097b565b612aec86868686868660075460ff1615612aec5760405162461bcd60e51b815260206004820152602c60248201527f455243313135355061757361626c653a20746f6b656e207472616e736665722060448201526b1dda1a5b19481c185d5cd95960a21b606482015260840161094d565b8260048101928215614389579160200282015b8281111561438957825182559160200191906001019061436e565b5061439592915061440e565b5090565b8260028101928215614389579160200282018281111561438957825182559160200191906001019061436e565b8260028101928215614389579160200282015b8281111561438957825182546001600160a01b0319166001600160a01b039091161782556020909201916001909101906143d9565b5b80821115614395576000815560010161440f565b6001600160a01b038116811461253957600080fd5b6000806040838503121561444b57600080fd5b823561445681614423565b946020939093013593505050565b6001600160e01b03198116811461253957600080fd5b60006020828403121561448c57600080fd5b8135611a3f81614464565b600080604083850312156144aa57600080fd5b50508035926020909101359150565b60005b838110156144d45781810151838201526020016144bc565b50506000910152565b600081518084526144f58160208601602086016144b9565b601f01601f19169290920160200192915050565b602081526000611a3f60208301846144dd565b634e487b7160e01b600052604160045260246000fd5b604081018181106001600160401b03821117156145515761455161451c565b60405250565b601f8201601f191681016001600160401b038111828210171561457c5761457c61451c565b6040525050565b60006001600160401b0383111561459c5761459c61451c565b6040516145b3601f8501601f191660200182614557565b8091508381528484840111156145c857600080fd5b83836020830137600060208583010152509392505050565b600082601f8301126145f157600080fd5b604051608081018181106001600160401b03821117156146135761461361451c565b60405280608084018581111561462857600080fd5b845b8181101561464257803583526020928301920161462a565b509195945050505050565b600082601f83011261465e57600080fd5b60405161466a81614532565b80604084018581111561462857600080fd5b60008060008060008060006101e0888a03121561469857600080fd5b87356001600160401b038111156146ae57600080fd5b8801601f81018a136146bf57600080fd5b6146ce8a823560208401614583565b9750506146de8960208a016145e0565b95506146ed8960a08a016145e0565b94506101208801356146fe81614423565b935061470e896101408a0161464d565b92506101808801359150614726896101a08a0161464d565b905092959891949750929550565b60006020828403121561474657600080fd5b5035919050565b600081518084526020808501945080840160005b8381101561477d57815187529582019590820190600101614761565b509495945050505050565b602081526000611a3f602083018461474d565b60006001600160401b038211156147b4576147b461451c565b5060051b60200190565b600082601f8301126147cf57600080fd5b813560206147dc8261479b565b6040516147e98282614557565b83815260059390931b850182019282810191508684111561480957600080fd5b8286015b84811015614824578035835291830191830161480d565b509695505050505050565b600082601f83011261484057600080fd5b611a3f83833560208501614583565b6000806000806080858703121561486557600080fd5b843561487081614423565b935060208501356001600160401b038082111561488c57600080fd5b614898888389016147be565b945060408701359150808211156148ae57600080fd5b6148ba888389016147be565b935060608701359150808211156148d057600080fd5b506148dd8782880161482f565b91505092959194509250565b6000602082840312156148fb57600080fd5b8135611a3f81614423565b600080600080600060a0868803121561491e57600080fd5b853561492981614423565b9450602086013561493981614423565b935060408601356001600160401b038082111561495557600080fd5b61496189838a016147be565b9450606088013591508082111561497757600080fd5b61498389838a016147be565b9350608088013591508082111561499957600080fd5b506149a68882890161482f565b9150509295509295909350565b600080604083850312156149c657600080fd5b8235915060208301356149d881614423565b809150509250929050565b8035600481106149f257600080fd5b919050565b600060208284031215614a0957600080fd5b611a3f826149e3565b600080600060608486031215614a2757600080fd5b8335614a3281614423565b9250614a40602085016149e3565b9150604084013590509250925092565b60008060408385031215614a6357600080fd5b82356001600160401b0380821115614a7a57600080fd5b818501915085601f830112614a8e57600080fd5b81356020614a9b8261479b565b604051614aa88282614557565b83815260059390931b8501820192828101915089841115614ac857600080fd5b948201945b83861015614aef578535614ae081614423565b82529482019490820190614acd565b96505086013592505080821115614b0557600080fd5b50614b12858286016147be565b9150509250929050565b60008060408385031215614b2f57600080fd5b614456836149e3565b600080600060608486031215614b4d57600080fd5b8335614b5881614423565b925060208401356001600160401b0380821115614b7457600080fd5b614b80878388016147be565b93506040860135915080821115614b9657600080fd5b50614ba3868287016147be565b9150509250925092565b60008060008060808587031215614bc357600080fd5b8435614bce81614423565b9350602085013592506040850135915060608501356001600160401b03811115614bf757600080fd5b6148dd8782880161482f565b801515811461253957600080fd5b60008060408385031215614c2457600080fd5b8235614c2f81614423565b915060208301356149d881614c03565b600080600060608486031215614c5457600080fd5b83359250602084013591506040840135614c6d81614423565b809150509250925092565b600080600060608486031215614c8d57600080fd5b614c96846149e3565b9250602084013591506040840135614c6d81614423565b60008060408385031215614cc057600080fd5b8235614ccb81614423565b915060208301356149d881614423565b600080600080600060a08688031215614cf357600080fd5b8535614cfe81614423565b94506020860135614d0e81614423565b9350604086013592506060860135915060808601356001600160401b03811115614d3757600080fd5b6149a68882890161482f565b600080600060608486031215614d5857600080fd5b8335614d6381614423565b95602085013595506040909401359392505050565b600060408284031215614d8a57600080fd5b82601f830112614d9957600080fd5b604051614da581614532565b806040840185811115614db757600080fd5b845b81811015614642578051614dcc81614423565b835260209283019201614db9565b600060208284031215614dec57600080fd5b8151611a3f81614423565b600060208284031215614e0957600080fd5b8151611a3f81614c03565b600181811c90821680614e2857607f821691505b602082108103610ef157634e487b7160e01b600052602260045260246000fd5b634e487b7160e01b600052603260045260246000fd5b634e487b7160e01b600052601160045260246000fd5b600060018201614e8657614e86614e5e565b5060010190565b8181038181111561097b5761097b614e5e565b8082018082111561097b5761097b614e5e565b60208082526038908201527f455243313135355072657365744d696e7465725061757365723a206d7573742060408201527f68617665206d696e74657220726f6c6520746f206d696e740000000000000000606082015260800190565b634e487b7160e01b600052602160045260246000fd5b6020808252602e908201527f455243313135353a2063616c6c6572206973206e6f7420746f6b656e206f776e60408201526d195c881bdc88185c1c1c9bdd995960921b606082015260800190565b808202811582820484141761097b5761097b614e5e565b600082614fa857634e487b7160e01b600052601260045260246000fd5b500490565b600060208284031215614fbf57600080fd5b5051919050565b601f82111561119257600081815260208120601f850160051c81016020861015614fed5750805b601f850160051c820191505b81811015612aec57828155600101614ff9565b81516001600160401b038111156150255761502561451c565b615039816150338454614e14565b84614fc6565b602080601f83116001811461506e57600084156150565750858301515b600019600386901b1c1916600185901b178555612aec565b600085815260208120601f198616915b8281101561509d5788860151825594840194600190910190840161507e565b50858210156150bb5787850151600019600388901b60f8161c191681555b5050505050600190811b01905550565b60208082526021908201527f455243313135353a206d696e7420746f20746865207a65726f206164647265736040820152607360f81b606082015260800190565b60208082526028908201527f455243313135353a2069647320616e6420616d6f756e7473206c656e677468206040820152670dad2e6dac2e8c6d60c31b606082015260800190565b604081526000615167604083018561474d565b82810360208401526130b1818561474d565b60208082526025908201527f455243313135353a207472616e7366657220746f20746865207a65726f206164604082015264647265737360d81b606082015260800190565b6020808252602a908201527f455243313135353a20696e73756666696369656e742062616c616e636520666f60408201526939103a3930b739b332b960b11b606082015260800190565b60208082526023908201527f455243313135353a206275726e2066726f6d20746865207a65726f206164647260408201526265737360e81b606082015260800190565b60208082526024908201527f455243313135353a206275726e20616d6f756e7420657863656564732062616c604082015263616e636560e01b606082015260800190565b6040815260006152a260408301856144dd565b90508260208301529392505050565b60006001600160a01b03808816835280871660208401525060a060408301526152dd60a083018661474d565b82810360608401526152ef818661474d565b9050828103608084015261530381856144dd565b98975050505050505050565b60006020828403121561532157600080fd5b8151611a3f81614464565b600060033d11156153455760046000803e5060005160e01c5b90565b600060443d10156153565790565b6040516003193d81016004833e81513d6001600160401b03816024840111818411171561538557505050505090565b828501915081518181111561539d5750505050505090565b843d87010160208285010111156153b75750505050505090565b6153c660208286010187614557565b509095945050505050565b60208082526028908201527f455243313135353a204552433131353552656365697665722072656a656374656040820152676420746f6b656e7360c01b606082015260800190565b7f416363657373436f6e74726f6c3a206163636f756e74200000000000000000008152600083516154518160178501602088016144b9565b7001034b99036b4b9b9b4b733903937b6329607d1b60179184019182015283516154828160288401602088016144b9565b01602801949350505050565b60006001600160a01b03808816835280871660208401525084604083015283606083015260a0608083015261142e60a08301846144dd565b6060815260006154d960608301866144dd565b90508360208301526001600160a01b0383166040830152949350505050565b60008161550757615507614e5e565b506000190190565b634e487b7160e01b600052603160045260246000fdfea26469706673582212208446c0f17e43923ded8aa6e941a6db24cc865e60dc803226515a702cb533021864736f6c63430008110033b53127684a568b3173ae13b9f8a6016e243e63b6e8ee1178d6a717850b5d610365d7a28e3265b37a6474929f336521b332c1681b933f6cb9f3376673440d862a9f2df0fed2c77648de5860a4cc508cd0818c85b8b8a1ab4ceeef8d981c8956a6",
  "devdoc": {
    "author": "crypt0grapher",
    "kind": "dev",
    "methods": {
      "balanceOf(address,uint256)": {
        "details": "See {IERC1155-balanceOf}. Requirements: - `account` cannot be the zero address."
      },
      "balanceOfBatch(address[],uint256[])": {
        "details": "See {IERC1155-balanceOfBatch}. Requirements: - `accounts` and `ids` must have the same length."
      },
      "buy(uint8,uint256,address)": {
        "params": {
          "_amount": "amount of USD to spend",
          "_referral": "referral getting 5% of the price",
          "_tier": "tier of the NFT to purchase which stands for ERC1155 token id [0..3]"
        }
      },
      "distributeProfit(uint256)": {
        "params": {
          "_amountUSD": "amount of USD to distribute"
        }
      },
      "exists(uint256)": {
        "details": "Indicates whether any token exist with a given id, or not."
      },
      "getFairPrice(uint8)": {
        "returns": {
          "_0": "counts not only the sale price but also share of the profit for the tier"
        }
      },
      "getPrice(uint8)": {
        "returns": {
          "_0": "NFT price in USD"
        }
      },
      "getPriceTable()": {
        "returns": {
          "_0": "returns all NFT prices in one table in USD"
        }
      },
      "getRoleAdmin(bytes32)": {
        "details": "Returns the admin role that controls `role`. See {grantRole} and {revokeRole}. To change a role's admin, use {_setRoleAdmin}."
      },
      "getRoleMember(bytes32,uint256)": {
        "details": "Returns one of the accounts that have `role`. `index` must be a value between 0 and {getRoleMemberCount}, non-inclusive. Role bearers are not sorted in any particular way, and their ordering may change at any point. WARNING: When using {getRoleMember} and {getRoleMemberCount}, make sure you perform all queries on the same block. See the following https://forum.openzeppelin.com/t/iterating-over-elements-on-enumerableset-in-openzeppelin-contracts/2296[forum post] for more information."
      },
      "getRoleMemberCount(bytes32)": {
        "details": "Returns the number of accounts that have `role`. Can be used together with {getRoleMember} to enumerate all bearers of a role."
      },
      "getUnclaimedRewards()": {
        "returns": {
          "_0": "amount of the rewards not yet distributed to NFT holders"
        }
      },
      "grantRole(bytes32,address)": {
        "details": "Grants `role` to `account`. If `account` had not been already granted `role`, emits a {RoleGranted} event. Requirements: - the caller must have ``role``'s admin role. May emit a {RoleGranted} event."
      },
      "hasRole(bytes32,address)": {
        "details": "Returns `true` if `account` has been granted `role`."
      },
      "isApprovedForAll(address,address)": {
        "details": "See {IERC1155-isApprovedForAll}."
      },
      "mint(address,uint256,uint256,bytes)": {
        "details": "Creates `amount` new tokens for `to`, of token type `id`. See {ERC1155-_mint}. Requirements: - the caller must have the `MINTER_ROLE`."
      },
      "mintBatch(address,uint256[],uint256[],bytes)": {
        "details": "xref:ROOT:erc1155.adoc#batch-operations[Batched] variant of {mint}."
      },
      "pause()": {
        "details": "Pauses all token transfers. See {ERC1155Pausable} and {Pausable-_pause}. Requirements: - the caller must have the `PAUSER_ROLE`."
      },
      "paused()": {
        "details": "Returns true if the contract is paused, and false otherwise."
      },
      "renounceRole(bytes32,address)": {
        "details": "Revokes `role` from the calling account. Roles are often managed via {grantRole} and {revokeRole}: this function's purpose is to provide a mechanism for accounts to lose their privileges if they are compromised (such as when a trusted device is misplaced). If the calling account had been revoked `role`, emits a {RoleRevoked} event. Requirements: - the caller must be `account`. May emit a {RoleRevoked} event."
      },
      "revokeRole(bytes32,address)": {
        "details": "Revokes `role` from `account`. If `account` had been granted `role`, emits a {RoleRevoked} event. Requirements: - the caller must have ``role``'s admin role. May emit a {RoleRevoked} event."
      },
      "safeBatchTransferFrom(address,address,uint256[],uint256[],bytes)": {
        "details": "See {IERC1155-safeBatchTransferFrom}."
      },
      "safeTransferFrom(address,address,uint256,uint256,bytes)": {
        "details": "See {IERC1155-safeTransferFrom}."
      },
      "setApprovalForAll(address,bool)": {
        "details": "See {IERC1155-setApprovalForAll}."
      },
      "totalSupply(uint256)": {
        "details": "Total amount of tokens in with a given id."
      },
      "unpause()": {
        "details": "Unpauses all token transfers. See {ERC1155Pausable} and {Pausable-_unpause}. Requirements: - the caller must have the `PAUSER_ROLE`."
      },
      "uri(uint256)": {
        "details": "See {IERC1155MetadataURI-uri}. This implementation returns the same URI for *all* token types. It relies on the token type ID substitution mechanism https://eips.ethereum.org/EIPS/eip-1155#metadata[defined in the EIP]. Clients calling this function must replace the `\\{id\\}` substring with the actual token type ID."
      }
    },
    "stateVariables": {
      "currentDistributionId": {
        "return": "current distribution number, the one that assigned to the latest distribution",
        "returns": {
          "_0": "current distribution number, the one that assigned to the latest distribution"
        }
      }
    },
    "title": "Safe NFT",
    "version": 1
  },
  "userdoc": {
    "kind": "user",
    "methods": {
      "buy(uint8,uint256,address)": {
        "notice": "purchase Safe NFT for exact amount of USD"
      },
      "claimReward(uint8,uint256)": {
        "notice": "the function calculates the amount of the reward for the NFT holder and transfers it to the NFT holder"
      },
      "claimRewardsTotal()": {
        "notice": "the function calculates the amount of the reward for the NFT holder and transfers it to the NFT holder"
      },
      "currentDistributionId()": {
        "notice": "gets the current distribution number"
      },
      "distributeProfit(uint256)": {
        "notice": "distribute profit among the NFT holders, the function fixes the amount of the reward and the NFT holders and their shares at the moment of the call. It does not transfer the reward to the NFT holders, it just records the amount of the reward for each NFT holder."
      },
      "getBalanceTable(address)": {
        "notice": "gets NFT balance for all tiers"
      },
      "getFairPrice(uint8)": {
        "notice": "gets NFT fair price in USD"
      },
      "getFairPriceTable()": {
        "notice": "gets NFT price for all tiers in USD ///todo in SAFE!"
      },
      "getMyBalanceTable()": {
        "notice": "gets NFT balance for all tiers"
      },
      "getMyPendingRewardsTotal()": {
        "notice": "returns the amount of the reward share for the NFT holder"
      },
      "getMyShareOfTreasury()": {
        "notice": "**Your NFTs (% Treasury) **is calculated in $ as a relation of total price of NFTs possessed by the $ amount of Investment Pool - including its SAFE and USDC components."
      },
      "getPendingRewards(address,uint8,uint256)": {
        "notice": "returns the amount of the reward share for the NFT holder"
      },
      "getPrice(uint8)": {
        "notice": "gets NFT price in USD"
      },
      "getPriceTable()": {
        "notice": "gets all NFT prices in USD"
      },
      "getTreasuryCost()": {
        "notice": "gets the total usd value of the NFT minted"
      },
      "getUnclaimedRewards()": {
        "notice": "undistributed profit amount in USD"
      }
    },
    "notice": "Safe Yields NFT token based on ERC1155 standard, id [0..3] represents one of the 4 tiers",
    "version": 1
  },
  "storageLayout": {
    "storage": [
      {
        "astId": 24,
        "contract": "contracts/SafeNFT.sol:SafeNFT",
        "label": "_roles",
        "offset": 0,
        "slot": "0",
        "type": "t_mapping(t_bytes32,t_struct(RoleData)19_storage)"
      },
      {
        "astId": 334,
        "contract": "contracts/SafeNFT.sol:SafeNFT",
        "label": "_roleMembers",
        "offset": 0,
        "slot": "1",
        "type": "t_mapping(t_bytes32,t_struct(AddressSet)4430_storage)"
      },
      {
        "astId": 6065,
        "contract": "contracts/SafeNFT.sol:SafeNFT",
        "label": "wallets",
        "offset": 0,
        "slot": "2",
        "type": "t_array(t_address)2_storage"
      },
      {
        "astId": 726,
        "contract": "contracts/SafeNFT.sol:SafeNFT",
        "label": "_balances",
        "offset": 0,
        "slot": "4",
        "type": "t_mapping(t_uint256,t_mapping(t_address,t_uint256))"
      },
      {
        "astId": 732,
        "contract": "contracts/SafeNFT.sol:SafeNFT",
        "label": "_operatorApprovals",
        "offset": 0,
        "slot": "5",
        "type": "t_mapping(t_address,t_mapping(t_address,t_bool))"
      },
      {
        "astId": 734,
        "contract": "contracts/SafeNFT.sol:SafeNFT",
        "label": "_uri",
        "offset": 0,
        "slot": "6",
        "type": "t_string_storage"
      },
      {
        "astId": 556,
        "contract": "contracts/SafeNFT.sol:SafeNFT",
        "label": "_paused",
        "offset": 0,
        "slot": "7",
        "type": "t_bool"
      },
      {
        "astId": 2213,
        "contract": "contracts/SafeNFT.sol:SafeNFT",
        "label": "_totalSupply",
        "offset": 0,
        "slot": "8",
        "type": "t_mapping(t_uint256,t_uint256)"
      },
      {
        "astId": 657,
        "contract": "contracts/SafeNFT.sol:SafeNFT",
        "label": "_status",
        "offset": 0,
        "slot": "9",
        "type": "t_uint256"
      },
      {
        "astId": 4749,
        "contract": "contracts/SafeNFT.sol:SafeNFT",
        "label": "price",
        "offset": 0,
        "slot": "10",
        "type": "t_array(t_uint256)4_storage"
      },
      {
        "astId": 4753,
        "contract": "contracts/SafeNFT.sol:SafeNFT",
        "label": "maxSupply",
        "offset": 0,
        "slot": "14",
        "type": "t_array(t_uint256)4_storage"
      },
      {
        "astId": 4756,
        "contract": "contracts/SafeNFT.sol:SafeNFT",
        "label": "safeToken",
        "offset": 0,
        "slot": "18",
        "type": "t_contract(ISafeToken)6545"
      },
      {
        "astId": 4759,
        "contract": "contracts/SafeNFT.sol:SafeNFT",
        "label": "safeVault",
        "offset": 0,
        "slot": "19",
        "type": "t_contract(ISafeVault)6566"
      },
      {
        "astId": 4762,
        "contract": "contracts/SafeNFT.sol:SafeNFT",
        "label": "usd",
        "offset": 0,
        "slot": "20",
        "type": "t_contract(IERC20)2651"
      },
      {
        "astId": 4769,
        "contract": "contracts/SafeNFT.sol:SafeNFT",
        "label": "priceDistributionOnMint",
        "offset": 0,
        "slot": "21",
        "type": "t_array(t_uint256)2_storage"
      },
      {
        "astId": 4773,
        "contract": "contracts/SafeNFT.sol:SafeNFT",
        "label": "profitDistribution",
        "offset": 0,
        "slot": "23",
        "type": "t_array(t_uint256)2_storage"
      },
      {
        "astId": 4775,
        "contract": "contracts/SafeNFT.sol:SafeNFT",
        "label": "referralShareForNFTPurchase",
        "offset": 0,
        "slot": "25",
        "type": "t_uint256"
      },
      {
        "astId": 4777,
        "contract": "contracts/SafeNFT.sol:SafeNFT",
        "label": "presale",
        "offset": 0,
        "slot": "26",
        "type": "t_bool"
      },
      {
        "astId": 4779,
        "contract": "contracts/SafeNFT.sol:SafeNFT",
        "label": "currentDistributionId",
        "offset": 0,
        "slot": "27",
        "type": "t_uint256"
      },
      {
        "astId": 4783,
        "contract": "contracts/SafeNFT.sol:SafeNFT",
        "label": "distributionOfProfit",
        "offset": 0,
        "slot": "28",
        "type": "t_mapping(t_uint256,t_uint256)"
      },
      {
        "astId": 4789,
        "contract": "contracts/SafeNFT.sol:SafeNFT",
        "label": "distributionByTier",
        "offset": 0,
        "slot": "29",
        "type": "t_mapping(t_uint256,t_array(t_uint256)4_storage)"
      },
      {
        "astId": 4795,
        "contract": "contracts/SafeNFT.sol:SafeNFT",
        "label": "distributionTotalSupplySnapshot",
        "offset": 0,
        "slot": "30",
        "type": "t_mapping(t_uint256,t_array(t_uint256)4_storage)"
      },
      {
        "astId": 4803,
        "contract": "contracts/SafeNFT.sol:SafeNFT",
        "label": "alreadyDistributedAmount",
        "offset": 0,
        "slot": "31",
        "type": "t_mapping(t_uint256,t_mapping(t_uint256,t_mapping(t_address,t_uint256)))"
      },
      {
        "astId": 4809,
        "contract": "contracts/SafeNFT.sol:SafeNFT",
        "label": "alreadyDistributedAmountByTier",
        "offset": 0,
        "slot": "32",
        "type": "t_mapping(t_uint256,t_array(t_uint256)4_storage)"
      }
    ],
    "types": {
      "t_address": {
        "encoding": "inplace",
        "label": "address",
        "numberOfBytes": "20"
      },
      "t_array(t_address)2_storage": {
        "base": "t_address",
        "encoding": "inplace",
        "label": "address[2]",
        "numberOfBytes": "64"
      },
      "t_array(t_bytes32)dyn_storage": {
        "base": "t_bytes32",
        "encoding": "dynamic_array",
        "label": "bytes32[]",
        "numberOfBytes": "32"
      },
      "t_array(t_uint256)2_storage": {
        "base": "t_uint256",
        "encoding": "inplace",
        "label": "uint256[2]",
        "numberOfBytes": "64"
      },
      "t_array(t_uint256)4_storage": {
        "base": "t_uint256",
        "encoding": "inplace",
        "label": "uint256[4]",
        "numberOfBytes": "128"
      },
      "t_bool": {
        "encoding": "inplace",
        "label": "bool",
        "numberOfBytes": "1"
      },
      "t_bytes32": {
        "encoding": "inplace",
        "label": "bytes32",
        "numberOfBytes": "32"
      },
      "t_contract(IERC20)2651": {
        "encoding": "inplace",
        "label": "contract IERC20",
        "numberOfBytes": "20"
      },
      "t_contract(ISafeToken)6545": {
        "encoding": "inplace",
        "label": "contract ISafeToken",
        "numberOfBytes": "20"
      },
      "t_contract(ISafeVault)6566": {
        "encoding": "inplace",
        "label": "contract ISafeVault",
        "numberOfBytes": "20"
      },
      "t_mapping(t_address,t_bool)": {
        "encoding": "mapping",
        "key": "t_address",
        "label": "mapping(address => bool)",
        "numberOfBytes": "32",
        "value": "t_bool"
      },
      "t_mapping(t_address,t_mapping(t_address,t_bool))": {
        "encoding": "mapping",
        "key": "t_address",
        "label": "mapping(address => mapping(address => bool))",
        "numberOfBytes": "32",
        "value": "t_mapping(t_address,t_bool)"
      },
      "t_mapping(t_address,t_uint256)": {
        "encoding": "mapping",
        "key": "t_address",
        "label": "mapping(address => uint256)",
        "numberOfBytes": "32",
        "value": "t_uint256"
      },
      "t_mapping(t_bytes32,t_struct(AddressSet)4430_storage)": {
        "encoding": "mapping",
        "key": "t_bytes32",
        "label": "mapping(bytes32 => struct EnumerableSet.AddressSet)",
        "numberOfBytes": "32",
        "value": "t_struct(AddressSet)4430_storage"
      },
      "t_mapping(t_bytes32,t_struct(RoleData)19_storage)": {
        "encoding": "mapping",
        "key": "t_bytes32",
        "label": "mapping(bytes32 => struct AccessControl.RoleData)",
        "numberOfBytes": "32",
        "value": "t_struct(RoleData)19_storage"
      },
      "t_mapping(t_bytes32,t_uint256)": {
        "encoding": "mapping",
        "key": "t_bytes32",
        "label": "mapping(bytes32 => uint256)",
        "numberOfBytes": "32",
        "value": "t_uint256"
      },
      "t_mapping(t_uint256,t_array(t_uint256)4_storage)": {
        "encoding": "mapping",
        "key": "t_uint256",
        "label": "mapping(uint256 => uint256[4])",
        "numberOfBytes": "32",
        "value": "t_array(t_uint256)4_storage"
      },
      "t_mapping(t_uint256,t_mapping(t_address,t_uint256))": {
        "encoding": "mapping",
        "key": "t_uint256",
        "label": "mapping(uint256 => mapping(address => uint256))",
        "numberOfBytes": "32",
        "value": "t_mapping(t_address,t_uint256)"
      },
      "t_mapping(t_uint256,t_mapping(t_uint256,t_mapping(t_address,t_uint256)))": {
        "encoding": "mapping",
        "key": "t_uint256",
        "label": "mapping(uint256 => mapping(uint256 => mapping(address => uint256)))",
        "numberOfBytes": "32",
        "value": "t_mapping(t_uint256,t_mapping(t_address,t_uint256))"
      },
      "t_mapping(t_uint256,t_uint256)": {
        "encoding": "mapping",
        "key": "t_uint256",
        "label": "mapping(uint256 => uint256)",
        "numberOfBytes": "32",
        "value": "t_uint256"
      },
      "t_string_storage": {
        "encoding": "bytes",
        "label": "string",
        "numberOfBytes": "32"
      },
      "t_struct(AddressSet)4430_storage": {
        "encoding": "inplace",
        "label": "struct EnumerableSet.AddressSet",
        "members": [
          {
            "astId": 4429,
            "contract": "contracts/SafeNFT.sol:SafeNFT",
            "label": "_inner",
            "offset": 0,
            "slot": "0",
            "type": "t_struct(Set)4115_storage"
          }
        ],
        "numberOfBytes": "64"
      },
      "t_struct(RoleData)19_storage": {
        "encoding": "inplace",
        "label": "struct AccessControl.RoleData",
        "members": [
          {
            "astId": 16,
            "contract": "contracts/SafeNFT.sol:SafeNFT",
            "label": "members",
            "offset": 0,
            "slot": "0",
            "type": "t_mapping(t_address,t_bool)"
          },
          {
            "astId": 18,
            "contract": "contracts/SafeNFT.sol:SafeNFT",
            "label": "adminRole",
            "offset": 0,
            "slot": "1",
            "type": "t_bytes32"
          }
        ],
        "numberOfBytes": "64"
      },
      "t_struct(Set)4115_storage": {
        "encoding": "inplace",
        "label": "struct EnumerableSet.Set",
        "members": [
          {
            "astId": 4110,
            "contract": "contracts/SafeNFT.sol:SafeNFT",
            "label": "_values",
            "offset": 0,
            "slot": "0",
            "type": "t_array(t_bytes32)dyn_storage"
          },
          {
            "astId": 4114,
            "contract": "contracts/SafeNFT.sol:SafeNFT",
            "label": "_indexes",
            "offset": 0,
            "slot": "1",
            "type": "t_mapping(t_bytes32,t_uint256)"
          }
        ],
        "numberOfBytes": "64"
      },
      "t_uint256": {
        "encoding": "inplace",
        "label": "uint256",
        "numberOfBytes": "32"
      }
    }
  }
}